:020000040808EA
:1000000000000808A0100908000006000A00050109
:0800100004027B050000000062
:0400180064DD080893
:1000200009480A4908B5884205D0094A824202D0E7
:10003000121A0AF05CFF0748074A0021121A0AF058
:1000400061FF064808BD00BF00000020AC0E090893
:10005000CC010020D0010020A8120020A81200200E
:1000600070B508F019FE074B074C1E46E41AA408A9
:100070000025A54204D056F8253098470135F8E709
:1000800070BD00BF140E09089C0E090801F0E0BE07
:1000900008B504F0FBFDBDE8084008F0BFBD07F05F
:1000A0009BBC0078B0FA80F04009704701230370D0
:1000B000704748B1836C3BB1C36C2BB1006DB0FA93
:1000C00080F04009404270474FF0FF30704773B5F1
:1000D000024608460C46FFF7ECFF054650BB12F0FF
:1000E000800FCA7814BF002310239A4222D0CB700D
:1000F0008E6C01230DF10702F3216078B04784F87C
:10010000540010B16FF0010514E0E378E66C03F0E1
:1001100010029DF80730732123F0100313438DF86C
:1001200007300DF1070201236078B04784F85400CE
:100130000028E7D1284602B070BD40B103788B4259
:1001400008D90170137843F00203137002E04FF0F6
:10015000FF307047002070472DE9F84306461846E7
:10016000884691461D46FFF7A4FF0446A8B9AB7820
:100170003BB929463046FFF7AAFF044608B946F0C6
:100180008006AF6C4B46424631466878B847002837
:1001900085F8540018BF6FF001042046BDE8F883CD
:1001A0002DE9F04F1E468BB083468A461446002147
:1001B000282268460AF0A6FE3046FFF77AFF054679
:1001C000A8BB631E122B30D80DF101085F46C14653
:1001D0000AF1FF3AA4B2CBEB07039BB29C4213D9BE
:1001E000B37843B931463878FFF771FF3B7805465D
:1001F00003F07F0300E03B7808F8013C1AF8013F68
:10020000013708F8023BE6E78DB96300013BF46C67
:100210009BB24A469DF800107078A047002886F8E7
:10022000540018BF6FF0010501E06FF00305284688
:100230000BB0BDE8F08F37B5742304468DF8073056
:10024000FFF737FFA0BB0546234601220DF106014B
:100250007420FFF781FFA0B99DF8063013F0030565
:1002600011D023F003038DF80630012223460DF14F
:1002700006010DF10700FFF793FF236D0A20984751
:10028000E2E7002DE0D194F844308BB19DF80620D0
:1002900003F0030322F0030213438DF8063038B94C
:1002A000234601220DF106010DF10700FFF778FF4B
:1002B00003B030BD2DE9F041002388B00646084662
:1002C0000C468DF807300493ADF814300693ADF862
:1002D0001C30FFF7EEFE002840F06481320791F8F1
:1002E00044706AD5012FADF80800ADF80C0063D159
:1002F0005A238DF80830B1F84030C72B05D9B3F533
:10030000C87F28BF4FF4C87300E0C823B4F9122097
:10031000142102F5163202F29912534393FBF1F3C2
:100320000A2103F5481393FBF1F394F9112094F992
:10033000140002F544725A4394F9043058434FF4C0
:100340007A7390FBF3F31B0203EB620194F83430F1
:10035000043391FBF3F294F9351083234B4303F5F7
:10036000803392FBF3F32222FA3B5343642232336D
:1003700093FBF2F38DF80C30B4F842308DF809207D
:10038000B3F57C6F0BD200223F2BD1B202F10102F8
:1003900001D99B08F8E703EB8113DBB200E0FF23F0
:1003A0008DF80D30002384F83C300222234603A947
:1003B00002A8FFF7F5FE00E00120002384F8443096
:1003C00010B92046FFF737FF06F01005ADB205B3B0
:1003D00004F14602072104F13B00FFF7AEFE30B9FD
:1003E000234601220DF107017520FFF7B5FE94F8B1
:1003F0003B3001259B0003F01C029DF8073023F0E1
:100400001C03134375228DF807308DF810208DF8EA
:100410001830B30622D504F14602082104F13D004C
:10042000FFF78BFE30B9234601220DF10701702042
:10043000FFF792FE9DF80730702123F0080294F830
:100440003D3003F00803134308AA2A4401358DF810
:10045000073002F8101C02F8083CEDB2B10733D0A7
:1004600004F14602052104F13900FFF766FE30B9B8
:10047000234601220DF107017420FFF76DFEF207FC
:1004800009D59DF8073094F8392003F01F0343EA9B
:1004900042138DF80730B3070BD594F83A309B0020
:1004A00003F01C029DF8073023F01C0313438DF862
:1004B000073008AB2B44742203F8102C9DF807205A
:1004C000013503F8082CEDB2710722D504F146027C
:1004D000052104F13800FFF730FE30B92346012230
:1004E0000DF107017220FFF737FE9DF807307221EA
:1004F00023F0070294F8383003F00703134308AAE7
:100500002A4401358DF8073002F8101C02F8083C27
:10051000EDB216F0C00F3CD004F14608424601216E
:1005200004F13E00FFF709FE68B942460A2104F1D2
:100530003C00FFF702FE30B9234601220DF107010E
:100540007120FFF709FE72060BD594F83E301B01AF
:1005500003F010029DF8073023F0100313438DF8C9
:10056000073033060AD59DF8073023F00F0294F8C0
:100570003C3003F00F0313438DF8073008AB2B44D6
:10058000712203F8102C9DF80720013503F8082C80
:10059000EDB228B923462A4606A904A8FFF700FEB3
:1005A00084F8447008B0BDE8F081000013B5184B22
:1005B000044618689B8802AAADF8043091F83930D7
:1005C0000090134491F83A2002A8024412F8082C33
:1005D00013F8083C134491F83820024412F8082C10
:1005E000134440F2AB72534303F595534FF47A72C0
:1005F0001933B3FBF2F301339BB2238091F83E2011
:100600001AB1B1F842201344238002B010BD00BFDC
:1006100078DD08082DE9F04F804689B008460C4681
:10062000FFF747FD0546002840F0678104AF01460B
:100630000F2238460AF066FC2046FFF73AFD0546D1
:100640000A26002D40F0538123460F2239461D20F3
:10065000FFF782FD05469DF810009DF81EE000F0B2
:100660000F0388F801309DF8113020F07F0088F8E2
:1006700002309DF812309DF8139000939DF81830C9
:100680009DF814C001939DF819309DF815B00293A0
:100690009DF81D309DF8161003934FFA8EF303F06A
:1006A000200A40EA0A0003F01003184340B2002871
:1006B0009DF8172088F8000080F21681120942EA9E
:1006C000011141EA0B3BE18AB4F918004900C1EB82
:1006D000DB010A46CB175B104FEA320202FB03F63E
:1006E000A2FB02234FEA123A94F91A2003EB4603C5
:1006F0004AEA035A4FEA233B1301DF170AFB07F6C6
:1007000080FB010103FB0B66AAFB0323C00A3344F1
:10071000920B40EA415042EA83428318236303EB81
:10072000830380331B12A8F80430236B94F926004E
:100730005B10A3F57A439A105243D1124843B4F99F
:10074000241052135943490001EBA001B4F91E00D3
:100750004FEA1C1C434394F920004CEA091940015C
:100760004243D21002EB63039B14A28B03F50043B8
:100770005343009ADB1349EA0239B4F92220C9F540
:100780008019120402EBA10140F63542A9EB213198
:100790005143B1FBF3F35B00D9104943B4F92A206C
:1007A000B4F9280049134A43991041431E124913D2
:1007B00001EB223106FB06F2564394F82C207243DB
:1007C00001EB624294F9271002EBC11203EB2213F2
:1007D000C8F80830236B94F90E1003EB83038033C1
:1007E0001B125943642291FBF2F194F90D00594315
:1007F0005843891190FBF2F091FBF2F167890144B3
:1008000001F58041794301988F120299268941EAC6
:10081000002094F90C10A0EB0616594391FBF2F15D
:10082000A6EB610000FB07F194F910000EF00F0633
:10083000434393FBF2F240F23C50E37B4FEA9E1EAF
:1008400002EBC3128B135B4312119B12534301EB58
:1008500063034FF47A729B1253432A4A1B1323EA11
:10086000E3739342D4BFC8F80C30C8F80C2094F955
:10087000363005220021C3FB0201234B53F82670BA
:10088000A0FB072307FB0133100C40EA03401914B7
:10089000039B1E4F4EEA830E4FEACE3257F826E0F6
:1008A00012F17F42AEFB00670EFB01774FF00003B1
:1008B00043F1FF3312184B41700A40EAC7507912D6
:1008C0005F104FEA32068019794109F0AFFFC8F88E
:1008D000100095B998F90030002BBABF012384F8B5
:1008E000453084F8455008E0236D0A209847013EC2
:1008F00016F0FF067FF4A5AE0225284609B0BDE834
:10090000F08F00BFA0860100000000204000002002
:100910007047037C024603F0080303F0FF002BB18D
:10092000D36A506A181A48BF6FF00040704770478A
:10093000704710B504462C2108F033FE204610BD48
:1009400010B50446342108F02CFE204610BD0830B6
:1009500005F032BF103005F02FBF07B502AB03F82A
:10096000011D01221946103005F026FF03B05DF885
:1009700004FB103005F094BE103005F0C0BD07B583
:1009800001220DF10701103005F005FD01280CBF13
:100990009DF807004FF0FF3003B05DF804FB00F254
:1009A000644005F0C0BB00F2644005F0F4BA00F208
:1009B000644005F033BB00F2644005F0A4BA10B502
:1009C0000C46042206F00AFE204610BD13B5002393
:1009D000ADF8063007F0C4FC982804460AD808F0A1
:1009E0006FFD204602220DF1060106F0EFFDBDF875
:1009F000060001E04FF0FF3002B010BD10B50C460C
:100A0000042206F0E3FD204610BD07B502AB03F853
:100A1000011D01221946083005F0CEFE03B05DF835
:100A200004FB00231A461946406806F075BF10B54E
:100A30000446142108F0B5FD204610BD0EB400B5E3
:100A40008CB00DAA52F8041B20238DE806000392F7
:100A500004930168002304AA1E20059306F0D6FE25
:100A60000CB05DF804EB03B07047000010B50C4CFF
:100A70002368DB0711D42046FFF713FB68B1094A4E
:100A80000321094B094808F04DFB2046FFF70EFBF8
:100A9000074A0849054808F07FFD044810BD00BF1B
:100AA00074090020E80800207C090020E8070020E5
:100AB000D00100201109080810B5FFF7D7FF074B38
:100AC000044653B108F04BFB38B1236820461B693C
:100AD0009847002801DDAFF3008010BD0000000042
:100AE00010B50C4C2368DB0711D42046FFF7D9FA68
:100AF00068B1094A0421094B094808F013FB204654
:100B0000FFF7D4FA074A0849054808F045FD0448AC
:100B100010BD00BFE4010020140A002020080020BE
:100B2000F4010020D00100201109080810B5FFF7DA
:100B3000D7FF074B044653B108F011FB38B12368C7
:100B400020461B699847002801DDAFF3008010BDE7
:100B50000000000038B5044600F2644005F03FF99B
:100B6000E8B104F58865284605F0D0FD012120464E
:100B700006F00AF8014668B12146284605F0F3FB65
:100B800068B194F8403413F0700316BF054B184653
:100B90001D6038BD204605F0F7FF0028ECD100208D
:100BA00038BD00BF740B002038B50C46054608F070
:100BB000D3FC6B2108F05AFB08F0CEFC03682946F1
:100BC0009B68984708F0C8FC036821469B689847D3
:100BD00008F0C2FCBDE83840012108F04ABB000023
:100BE00073B508F06DFC40F2136302AC44F8043DA9
:100BF000214600206426FFF7E2FE08F061FC214652
:100C000008200196FFF7DBFE08F05AFC2146102071
:100C10000196FFF7D4FE08F053FC21469820019678
:100C2000FFF7CDFE08F04CFC214618200196FFF797
:100C3000C6FE08F045FC214620200196FFF7BFFEC6
:100C400008F03EFC214628200196FFF7B8FE08F088
:100C500037FC214630200196FFF7B1FE08F030FC4A
:100C6000214638200196FFF7AAFE08F029FC21460C
:100C7000402000250196FFF7A2FE08F021FC214646
:100C800004200195FFF79BFE08F01AFC21460C207A
:100C90000195FFF794FE08F013FC2146942001957E
:100CA000FFF78DFE08F00CFC214614200195FFF79C
:100CB00086FE08F005FC21461C200195FFF77FFE0B
:100CC00008F0FEFB214624200195FFF778FE08F08E
:100CD000F7FB21462C200195FFF771FE08F0F0FB91
:100CE000214634200195FFF76AFE08F0E9FB214612
:100CF0003C200195FFF763FE08F0E2FB214644200B
:100D00000195FFF75CFE08F0DBFB214648200195CA
:100D1000FFF755FE08F0D4FB214658200195FFF758
:100D20004EFE08F0CDFB41495C20FFF748FE08F07D
:100D3000C7FB4FF47A7321464C200193FFF73FFE27
:100D400008F0BEFB42F21073214650200193FFF7DA
:100D500036FE08F0B5FB21466FF0060354200193E0
:100D6000FFF72DFE324B186809F020FB07F04AFD13
:100D700008F0A6FB214660200195FFF720FE08F051
:100D80009FFB2146304601950126FFF718FE08F02B
:100D900097FB214668200196FFF711FE08F090FBB3
:100DA00021466C200195FFF70AFE08F089FB2146D9
:100DB00070200195FFF703FE08F082FB21467420A6
:100DC0000196FFF7FCFD08F07BFB21467820019699
:100DD000FFF7F5FD08F074FB21467C200195FFF735
:100DE000EEFD08F06DFB214680200196FFF7E7FD40
:100DF00008F066FB214684200195FFF7E0FD08F02E
:100E00005FFB214688200195FFF7D9FD08F058FBCC
:100E100021468C200195FFF7D2FD08F051FB2146B9
:100E200090200195FFF7CBFD02B070BD340B002080
:100E3000640B00202DE9F347C24C08F041FB21462A
:100E40000020FFF7DBFD2368013304D140F2136378
:100E50002360FFF7C5FE08F033FB01A90820FFF768
:100E6000CDFD019809F0A2FAB74909F0A7FBDFF818
:100E70006493DFF86483C9F8000008F021FB01A93E
:100E80001020FFF7BBFD019809F090FAAE4909F078
:100E900095FBC8F8000008F013FB01A99820FFF7A4
:100EA000ADFD019809F082FAA74909F087FBA74F29
:100EB000A74E386008F004FB01A91820FFF79EFD3B
:100EC000019809F073FAA04909F078FB306008F046
:100ED000F7FA01A92020FFF791FD019809F066FAC1
:100EE000994909F06BFB9B4D9B4C286008F0E8FA90
:100EF00001A92820FFF782FD019809F057FA9249CD
:100F000009F05CFB206008F0DBFA01A93020FFF754
:100F100075FD019809F04AFA8B4909F04FFB8F4B98
:100F2000DFF8B8A2186008F0CBFA01A93820FFF763
:100F300065FD019809F03AFA834909F03FFB884BB7
:100F4000186008F0BDFA01A94020FFF757FD01988D
:100F500009F02CFA7C4909F031FB824B186008F04B
:100F6000AFFA81490420FFF749FD08F0A9FA7F494B
:100F70000C20FFF743FD08F0A3FA7D499420FFF70A
:100F80003DFD08F09DFA7B491420FFF737FD08F07E
:100F900097FA79491C20FFF731FD08F091FA77495B
:100FA0002420FFF72BFD08F08BFA75492C20FFF762
:100FB00025FD08F085FA73493420FFF71FFD08F07E
:100FC0007FFA71493C20FFF719FD08F079FA6F4963
:100FD0004420FFF713FD08F073FA6D494820FFF72E
:100FE0000DFD08F06DFA6B495820FFF707FD08F07A
:100FF00067FA69495C20FFF701FD08F061FA67496B
:101000004C20FFF7FBFC08F05BFA65495020FFF726
:10101000F5FC08F055FA01A95420FFF7EFFC019800
:1010200009F0C4F907F0EEFB08F04AFA5D496020C8
:10103000FFF7E4FC08F044FA5B496420FFF7DEFCAC
:1010400008F03EFA59496820FFF7D8FC08F038FA52
:1010500057496C20FFF7D2FC08F032FA554970204E
:10106000FFF7CCFC08F02CFA53497420FFF7C6FCBC
:1010700008F026FA51497820FFF7C0FC08F020FA62
:101080004F497C20FFF7BAFC08F01AFA4D4980203E
:10109000FFF7B4FC08F014FA4B498420FFF7AEFCCC
:1010A00008F00EFA49498820FFF7A8FC08F008FA72
:1010B00051468C20FFF7A2FC08F002FA4449902028
:1010C000FFF79CFCDAF8003013B1002007F09AFB20
:1010D00041F28731384AD9F800001368013B8B424E
:1010E00084BF01231360002109F048FB18B1394B7C
:1010F0004FF07E521A600021D8F8000009F03EFB44
:1011000018B1354B4FF07E521A600021386809F053
:1011100035FB18B10D4B4FF07E521A60002130683C
:1011200009F02CFB18B10A4B4FF07E521A600021D7
:10113000286809F023FB002852D0064B4FF07E525E
:101140001A604DE0880000200000C842A808002076
:1011500020020020A8070020D80A0020B0070020A5
:10116000EC010020D8060020240200206C09002099
:1011700070090020980A002064070020CC0A002093
:10118000A00A0020780900205C0700201C02002033
:10119000C40A0020000A0020340B00209000002028
:1011A0008C000020A4060020AC070020600700206F
:1011B000200B0020A0060020B40A00202C0B0020E9
:1011C00004080020F0010020E0060020240B00208D
:1011D00018020020040A0020A408002010080020A3
:1011E0000021206809F0CAFA18B1034B4FF07E5273
:1011F0001A6002B0BDE8F087D80A002010B507F0E9
:1012000063FE03681B69984790B9FFF769FC0368A0
:101210001B6998470028F2DDFFF762FC03685B69F1
:101220009847044607F050FEE1B207F0EBF8E6E716
:1012300010BD0000F7B506460D4600244F1EAC4217
:1012400012D0325D0B4901A806F0D6FB07F03CFE38
:1012500001A907F0D3F8A74204D007F035FE2021FA
:1012600007F0D0F80134EAE707F02EFE07F0CDF8DA
:1012700003B0F0BD4BDE0808F8B504460F464E1E1D
:10128000451E0644B54207D0FFF72AFC036815F84F
:10129000011F9B689847F5E739462046BDE8F840AE
:1012A000FFF7C8BF1FB5074A01AB52F80E0F5168D0
:1012B000128903C30A2101A81A80FFF7DDFF05B0D8
:1012C0005DF804FBD8DD08081FB5074A01AB52F8EA
:1012D000180F5168128903C30A2101A81A80FFF769
:1012E000CBFF05B05DF804FBD8DD08080000000066
:1012F00038B5314B314D1B68B3B1314B588909F0CA
:1013000051F8304909F05AF92F4909F0A3F82F494B
:1013100008F096FF2B680446002B35D007F0D4FD6B
:101320002B4907F07EF82FE02A4B1B681BB32B6874
:1013300023B107F0C9FD284907F073F80B2008F026
:101340007AF809F033F808F0DBFB17A3D3E90023A0
:1013500008F02AFC08F020FF4FF07C5108F070FFE5
:1013600008F0CEFB12A3D3E9002308F047FD08F0F4
:1013700013FF044608E02B6823B107F0A5FD1749C9
:1013800007F04FF8164B1C68164B2046196809F0F9
:1013900061F80446144B186809F008F8214608F073
:1013A00051FF38BDAFF300802D431CEBE2364A3FBE
:1013B0007B14AE47E17A843FF0010020C40A00208C
:1013C0001408002000F87F4600002543000020425A
:1013D00050DE08086007002071DE080890DE08086B
:1013E000E4060020B0070020A00A00200000000052
:1013F0002DE9F04F8BB0944902A806F074FE934B90
:101400001A689B4622B107F05FFD914907F009F881
:10141000904C0021208807F0E2FF08F07DF80122BF
:101420004A2107F015FF274628B907F04DFD8A49E4
:1014300006F0F7FF2EE00321884803F092FF08F042
:10144000B5FF874B196809F005F88649824609F00F
:10145000B5F808F055FB0022834B8046894608F01A
:10146000EFF908F051FE0028B8BF404208F036FB03
:1014700000227E4B08F028FE60B107F025FD7C4974
:1014800006F0BCFF07F020FD0223009342464B46C6
:1014900007F0EEF80021774803F00DFE38B9DBF8CD
:1014A000003023B107F010FD734906F0BAFF08F0D1
:1014B00033F801224A2107F0CBFE002800F0AC806F
:1014C00000216C4803F0F7FD002800F0A580654975
:1014D000504609F073F808F013FB0022624B08F045
:1014E000AFF908F011FE0028B8BF404208F0F6FA44
:1014F00000225E4B08F0E8FD002840F08D80044695
:10150000804681460A250021544803F02AFF012124
:101510008144524803F025FF022180444F4803F0E4
:1015200020FF03214D4803F01CFF013D0444EAD194
:101530004B4B0A25D3F800A094FBF5F008F036FFDA
:10154000514608F087FF044699FBF5F008F02EFF9E
:10155000514608F07FFF0146204608F071FE4749DA
:1015600009F02CF8814698FBF5F008F01FFF514672
:1015700008F070FF0146204608F062FE404909F07D
:101580001DF80446FFF7B4FE3E4909F00BF920B1FF
:101590002146484608F054FE25E0FFF7A9FE3A49E7
:1015A00009F000F920B12146484608F04BFE1AE048
:1015B000FFF79EFE344909F009F9A8B1204608F06A
:1015C0009FFA1DA3D3E9002308F0EEFA044648462B
:1015D0000D4608F095FA02460B462046294608F0CB
:1015E00031F908F0D9FD0646304608F089FA14A30F
:1015F000D3E9002308F002FC08F0CEFD02220146E8
:10160000054606A806F0E5FD06A902A806F0B5FD08
:1016100006A806F021FD03E01C4902A806F0B5FD6E
:101620000121388807F0DBFE02A806F015FD2846E8
:101630000BB0BDE8F08F00BF52B81E85EB51E83FFC
:10164000B6F3FDD478E9D63F84050908C40A002022
:10165000F4DE0808D00000200ADF08080E0A002087
:10166000A400002000007A440000F43F0000E03FA6
:101670002FDF0808E90100203FDF08080000F0C262
:10168000000016C3000070410000C84166DF080872
:1016900030B51E4985B0054602230C22A1F58E60A7
:1016A000FFF758FA50B307F00FFC194906F0B9FEDE
:1016B000184A1949194C462312680968184805F058
:1016C0002CF8236893B91749174806F0AAFE07F0CB
:1016D00092F90146684607F0BBF80099124806F0F7
:1016E000A0FE684606F0B8FC0123236029680E4876
:1016F00006F097FE0A4805F009F804E007F0E4FB5D
:101700000A4906F08EFE05B030BD00BF98060020E5
:101710006ADF080898070020740B00200C080020DE
:10172000400B002084DF0808380B00209BDF0808EE
:10173000F0B58DB09349684606F0D5FCFFF7D0F9B7
:101740000D22014608A806F0F3FF08A9684606F036
:1017500014FD08A806F080FC07230422694604A8AB
:1017600006F0D6FD884904A806F0B5FD0546A8B9DF
:101770008449684606F0AFFD98B107F0A5FB8349A0
:1017800006F04FFE814908A806F0ADFC08A8FFF757
:101790007FFF08A806F060FC012404E00024012576
:1017A00001E00446054604A806F056FC15B9002CD5
:1017B000C4D0E2E0764E012437460025029B611E2C
:1017C000994280F0DA80684606F0A0FD2C2840F0AF
:1017D000D280E5B92146684606F098FD2C2800F035
:1017E000C98004F10A032246694608A806F090FD64
:1017F000684B1B684BB107F067FB674906F0FEFDBD
:1018000007F062FB089906F00CFE08A8B0E0012D75
:101810002FD12146684606F079FD2C2800F0AA80D9
:1018200004F109032246694604A806F071FD594BEC
:101830001B684BB107F048FB584906F0DFFD07F085
:1018400043FB049906F0DAFD04A908A806F08AFC17
:1018500004F10B01684606F059FD08A902465048FC
:1018600003F0AAFD08A806F0F7FB338823F008036D
:1018700069E0032D28D12146684606F047FD2C2853
:1018800078D004F10A032246694604A806F040FD18
:10189000404B1B684BB107F017FB424906F0AEFD09
:1018A00007F012FB049906F0A9FD04A908A806F0A8
:1018B00059FC04F10C01684606F028FD08A902460F
:1018C000374803F0BFFD15E0062D17D121466846C5
:1018D00006F01CFD2C284DD0A31C2246694604A806
:1018E00006F016FD04A908A806F03CFC08A92C483F
:1018F00003F0EEFD08A806F0AFFB38E0072D39D164
:101900002146684606F002FD2C2833D0A31C22464F
:10191000694604A806F0FCFC04A908A806F022FC0D
:1019200008A91F4803F0DCFD08A806F095FB3388E2
:101930001B4823F00C03338003F0E8FD012804DC8E
:10194000338843F00C03338011E0154803F0DEFDCB
:10195000042803DC3B8843F0080307E0104803F049
:10196000D5FD132803DC3B8843F004033B8004A827
:1019700006F072FB0135013420E7684606F06CFB87
:101980000DB0F0BDB7DF0808BCDF0808C0DF0808ED
:10199000280B0020C40A0020D2DF0808E3DF080873
:1019A000B0080020F5DF0808F0B58DB0884968461A
:1019B00006F099FBFFF794F80D22014608A806F0FF
:1019C000B7FE08A9684606F0D8FB08A806F044FB55
:1019D00007230422694604A806F09AFC7D4904A85E
:1019E00006F079FC0546A8B97949684606F073FC0B
:1019F00098B107F069FA784906F013FD764908A80E
:101A000006F071FB08A8FFF743FE08A806F024FBC8
:101A1000012404E00024012501E00446054604A851
:101A200006F01AFB15B9002CC4D0CCE06B4D012494
:101A30002F460026029B611E994280F0C4806846B2
:101A400006F064FC2C2840F0BC80062E1CD12146F8
:101A5000684606F05BFC2C2800F0B28004F10A0313
:101A60002246694608A806F053FC5D4B1B684BB143
:101A700007F02AFA5B4906F0C1FC07F025FA08993D
:101A800006F0CFFC08A899E0012E2FD12146684628
:101A900006F03CFC2C2800F0938004F10903224658
:101AA000694604A806F034FC4D4B1B684BB107F0A7
:101AB0000BFA4D4906F0A2FC07F006FA049906F06D
:101AC0009DFC04A908A806F04DFB04F10B01684633
:101AD00006F01CFC08A90246444803F06DFC08A867
:101AE00006F0BAFA2B8823F008035BE0032E2BD113
:101AF0002146684606F00AFC2C2861D004F10A034E
:101B00002246694604A806F003FC354B1B684BB11E
:101B100007F0DAF9364906F071FC07F0D5F90499B7
:101B200006F06CFC04A908A806F01CFB04F10C01EB
:101B3000684606F0EBFB08A902462C4803F082FC3D
:101B400008A806F089FA38E0072E39D12146684600
:101B500006F0DCFB2C2833D0A31C2246694604A8DF
:101B600006F0D6FB04A908A806F0FCFA08A91F484D
:101B700003F0B6FC08A806F06FFA2B881B4823F088
:101B80000C032B8003F0C2FC012803DC2B8843F0FC
:101B90000C0307E0154803F0B9FC042804DC2B888B
:101BA00043F008032B8008E0104803F0AFFC132833
:101BB000DEBF3B8843F004033B8004A806F04CFAE8
:101BC0000136013436E7684606F046FA0DB0F0BD3E
:101BD000B7DF08081AE0080808E00808280B00200A
:101BE000C40A0020D2DF0808E3DF0808B00800209C
:101BF000F5DF080810B590B01D4908A806F073FA83
:101C00001C4904A806F0AEFA04A908A806F045FB92
:101C1000194906F04EFB044618490CA806F0A2FA32
:101C20000CA9204606F039FB154906F042FB014697
:101C3000684606F097FA0CA806F00EFA04A806F01B
:101C40000BFA08A806F008FA07F03EF90D4906F06D
:101C5000E8FB07F087FA009906F0E3FB07F034F998
:101C6000094906F0DEFB684606F0F6F910B010BD33
:101C700065E208080802002056010908D401002086
:101C800071E4080868E208088CE2080800B51E4BF9
:101C900089B01888002107F0A2FB1C4B002118888E
:101CA00007F09DFB1A4B0021188807F098FB194B91
:101CB0000021188807F093FB174B0021188807F0C4
:101CC0008EFB164B0021188807F089FBFFF7FCFA02
:101CD000134B144A1B6812680421ADF816100292C7
:101CE0005B00012202218DF81510019300920DF185
:101CF00015030DF1160106A806F0CAF806F0ADF8B6
:101D000009B05DF804FB00BF98000020CC00002063
:101D1000A0000020C8000020A8000020D40000205F
:101D2000940000200808002010B52C4C01212088C8
:101D300007F055FBFA2006F0ABFE0021208807F0E3
:101D40004EFBFA2006F0A4FE0121208807F047FB95
:101D5000FA2006F09DFE0021208807F040FBFA20C3
:101D600006F096FE0121208807F039FBFA2006F0E4
:101D70008FFE0021208807F032FBFA2006F088FE53
:101D80000121208807F02BFBFA2006F081FE0021BC
:101D9000208807F024FBFA2006F07AFE0121208833
:101DA00007F01DFBFA2006F073FE0021208807F0E3
:101DB00016FBFA2006F06CFE0121208807F00FFBCD
:101DC000FA2006F065FE2088002107F008FBBDE838
:101DD00010406B210720FEF7E7BE00BF98000020EF
:101DE000F8B5174F174E3888174D002107F0F7FA4E
:101DF000164C3088002107F0F2FA2888002107F0FD
:101E0000EEFA0021208807F0EAFA4FF47A7006F023
:101E10003FFE3888012107F0E2FA3088012107F0FF
:101E2000DEFA2888012107F0DAFA2088012107F07C
:101E3000D6FABDE8F8404FF47A7006F029BE00BF2C
:101E4000A0000020CC000020C8000020A800002036
:101E500070B5B24BAAB04FF4DA42B14903A8B14D04
:101E60001A80B14E06F03FF9072006F00FFE01215F
:101E7000288807F0A3FA0121308807F09FFAAB4BBE
:101E80000121188807F09AFAA94B0121188807F058
:101E900095FAA84B0121188807F090FAA64B01216A
:101EA000188807F08BFAA54B0121188807F086FAED
:101EB0000021042007F082FAA14B0121188807F0C5
:101EC0007DFAFEF7B7FF9F4805F0CEFD41F27001A5
:101ED0009C4805F0F9FE9B4805F0C1FE9A4C342160
:101EE0000020FEF761FE1B210120FEF75DFE20466B
:101EF00003F090F9954B1B6823B194F82130002B27
:101F000000F05082924B1B68012B0BD1914806F0D8
:101F100023FE914908F03CFC20B194F82130002BBD
:101F200000F040820023009301224FF0FF338B49E1
:101F3000042007F02DF8042007F06AFA08B1FFF733
:101F4000A5FE0121288807F04AFA0121308807F010
:101F500046FA784B0121188807F041FA744B0121A9
:101F6000188807F03CFA744B0121188807F037FAFB
:101F7000724B0121188807F032FA714B0121188841
:101F800007F02DFA694B0121188807F028FA744AE6
:101F90007449754806F0C2FE07F0E4F84FF4165194
:101FA00007F0DAF8FEF762FD4FF4165107F0D4F8A7
:101FB000FEF796FD4FF4165107F0CEF8FEF756FDEA
:101FC00041F2883106F0B1FB42F2107006F060FD7C
:101FD00006F07AFF4FF4165106F05CFF634B0A22BD
:101FE000196807A806F0E2F807A90BA806F0BAF8E6
:101FF0005F490BA806F05DF9044606F033FD0A229E
:1020000001460FA806F0D2F80FA9204606F045F9C0
:10201000044606F01FFD0A22014613A806F0C6F882
:1020200013A9204606F039F9044606F009FD0A22F4
:10203000014617A806F0BAF817A9204606F02DF9B0
:102040004B4906F036F9044606F0DCFC0A2201464C
:102050001BA806F0ABF81BA9204606F01EF90446A3
:1020600006F0DAFC0A2201461FA806F09FF81FA915
:10207000204606F012F9044606F0D8FC0A22014672
:1020800023A806F093F823A9204606F006F939495B
:1020900006F00FF9384C0146204606F054F823A804
:1020A00005F0DAFF1FA805F0D7FF1BA805F0D4FF45
:1020B00017A805F0D1FF13A805F0CEFF0FA805F073
:1020C000CBFF0BA805F0C8FF07A805F0C5FF06F079
:1020D000FBFE2A4906F0A5F9294923A806F003F8D2
:1020E000214623A806F0D9F80146264806F02BF829
:1020F00023A805F0B1FF244902230C22A1F58E602C
:10210000FEF728FD002843D006F0DEFE1F4906F04A
:1021100075F906F0D9FE21683DE000BF280B0020CC
:10212000840509089C000020D0000020D400002075
:10213000CC00002098000020A0000020C800002053
:10214000A80000209C0A002074070020180200202C
:102150002C0B0020FC0700200000A0415B7E08083B
:1021600095E20808CD090808F18C080888000020CD
:10217000C0E20808A3E20808A40A0020A8E20808B0
:10218000BDE208089807002098060020C2E208086F
:1021900006F09AFE8549864C06F043F906F094FE57
:1021A000844906F03EF923684BB1824923A805F023
:1021B0009AFF23A8FFF76CFA23A805F04DFF07F05C
:1021C000ABF907F033F80021288807F008F903235A
:1021D000B0221821784802F0BFFF88B906F074FEDB
:1021E000764906F01EF92368FBB1744923A805F06F
:1021F0007AFF23A8FFF74CFA23A805F02DFF14E07F
:1022000006F062FE6E4906F00CF923684BB16D4989
:1022100023A805F068FF23A8FFF73AFA23A805F0E2
:102220001BFF0121288807F0DAF8674803F090F8CF
:1022300007F072F90122492107F00AF888B906F07F
:1022400043FE624906F0EDF8236873B15F4923A8A5
:1022500005F049FF23A8FFF71BFA23A805F0FCFEB1
:1022600003E00021584803F07AF806F02DFE5849A3
:1022700006F0D7F823684BB1554923A805F033FF82
:1022800023A8FFF705FA23A805F0E6FE514D07F055
:1022900043F906F0CBFF0021288807F0A0F80323BC
:1022A000B02218214C4802F057FF78B906F00CFE16
:1022B0004A4906F0B6F8494923A805F014FF23A8B7
:1022C000FFF7E6F923A805F0C7FE14E006F0FCFDD1
:1022D000434906F0A6F823684BB1414923A805F00D
:1022E00002FF23A8FFF7D4F923A805F0B5FE0121CA
:1022F000288807F074F83B4803F02AF807F00CF937
:1023000001224A2106F0A4FF88B906F0DDFD2F491D
:1023100006F087F8236873B12C4923A805F0E3FE83
:1023200023A8FFF7B5F923A805F096FE03E00021E6
:102330002C4803F014F8FFF753FD06F0C5FD2A49B9
:1023400006F06FF806F0C0FD284906F057F806F0D1
:10235000BBFD0A22462106F0D2F806F0B5FD24495D
:1023600006F04CF806F0B0FD0A220D2106F0C7F881
:10237000FEF798FF1C23002123A8ADF88C3005F050
:102380006DFA25A91FA805F0AEFE1F9A19491A4833
:10239000FEF754FB1FA805F05FFE03A805F05CFEE6
:1023A0002AB070BDFFF7C0FCBCE500BFE8E208083A
:1023B000C40A0020FEE20808E801002022E3080821
:1023C0004EE308086CE30808080A002088E30808C0
:1023D000BBE30808D0000020E9010020DEE3080884
:1023E00007E408080E0A002025E4080830E408087D
:1023F0003DE4080845E40808840B002000B58FB0D0
:10240000804902A805F06FFE06F05EFD7E4906F0E9
:1024100008F8002300937D4B06A8D3E9002305F0BC
:10242000EFFE06A90AA805F09DFE79490AA805F065
:1024300040FF014602A805F010FF0AA805F00CFEB7
:1024400006A805F009FE734B0322196806A805F0DB
:10245000C0FE06A90AA805F085FE6D490AA805F088
:1024600028FF014602A805F0F8FE0AA805F0F4FDD1
:1024700006A805F0F1FD684B0322196806A805F0CF
:10248000A8FE06A90AA805F06DFE61490AA805F094
:1024900010FF014602A805F0E0FE0AA805F0DCFDE9
:1024A00006A805F0D9FD5D4803F026F800220023B8
:1024B00007F0E2FD90B9594803F02DF818B95849D2
:1024C00002A805F0CEFE554803F016F80623009347
:1024D00002460B4606A805F093FE03E0514906A804
:1024E00005F001FE06A90AA805F03CFE48490AA825
:1024F00005F0DFFE014602A805F0AFFE0AA805F0D0
:10250000ABFD06A805F0A8FD444802F0FAFF002242
:10251000002307F0B1FD98B9404802F0FFFF012801
:1025200003D13F4902A805F09CFE3C4802F0E9FFB8
:102530000623009302460B4606A805F061FE03E061
:10254000394906A805F0CFFD06A90AA805F00AFE3C
:102550002F490AA805F0ADFE014602A805F07DFE50
:102560000AA805F079FD06A805F076FD2B4802F0D3
:10257000C8FF0022002307F07FFD80B9274802F042
:10258000C5FF07F0ABFA0022284B07F037FC062303
:10259000009302460B4606A805F032FE03E02449EC
:1025A00006A805F0A0FD06A90AA805F0DBFD18495C
:1025B0000AA805F07EFE014602A805F04EFE0AA814
:1025C00005F04AFD06A805F047FD1A4A1A4B1268A5
:1025D0000AA81A4906F0BCF90AA902A805F03DFEAE
:1025E0000AA805F039FD164902A805F03AFE06F0E2
:1025F000B9FD029905F002FF02A805F02DFD0FB00C
:102600005DF804FB58E408085AE40808D00A0020E2
:10261000560109086C07002070070020B008002050
:10262000DEE00808AC000020B800002000002440D4
:1026300080000020B80A0020E0E00808AC0B002071
:102640006FE4080830B55B4D95B006F03DFC5A4983
:1026500005F0D4FE594C06F037FC296805F0E1FE80
:1026600006F032FC564905F0C9FE06F02DFC216843
:1026700005F0D7FE06F028FC524905F0D2FE06F020
:1026800023FC4CF2503106F050F806F01DFC0D22F0
:102690000146684606F04CF84B49684605F01BFEBB
:1026A000002800F0818006F00FFC484905F0B9FED3
:1026B00006F00AFC464905F0B4FE06F005FC4CF2B3
:1026C000503106F032F806F0FFFB0D22014604A857
:1026D00006F02EF806F0F8FB3E4905F08FFE06F0F6
:1026E000F3FB049905F09DFE06F0EEFB3A4905F078
:1026F00098FE06F0E9FB0D22014608A806F018F83E
:10270000364908A805F0E7FD002842D006F0DCFBBA
:10271000334905F086FE04A9284605F014FD06F0AD
:10272000D3FB304905F07DFE06F0CEFB0D220146BD
:102730000CA805F0FDFF06F0C7FB2B4905F05EFE77
:1027400006F0C2FB0C9905F06CFE06F0BDFB0D22F5
:10275000014610A805F0ECFF204910A805F0BBFDCC
:1027600058B106F0B1FB214905F05BFE0CA92046EB
:1027700005F0E9FCFFF73EFA04E006F0A5FB1C4972
:1027800005F04FFE10A805F067FC0CA805F064FCEE
:1027900004E006F099FB164905F043FE08A805F091
:1027A0005BFC04A805F058FC684605F055FC15B024
:1027B00030BD00BF08020020B8E40808D4010020A2
:1027C000CEE40808E8E408081AE5080820E5080847
:1027D00032E5080842E508085AE508089E0B090892
:1027E00070E5080880E5080893E50808AFE50808E3
:1027F000C3E508081FB506F067FB194905F011FE8F
:1028000006F062FB4CF2503105F08FFF06F05CFBE6
:102810000D220146684605F08BFF1249684605F017
:102820005AFD98B106F050FB0F4905F0FAFD0F4C28
:1028300006F04AFB0E4905F0F4FD0123236006F083
:102840003FFE21468C20FEF7BAF804E006F03CFB80
:10285000084905F0E6FD684605F0FEFB04B010BD32
:10286000D6E5080819E6080820E508081008002041
:1028700024E6080845E6080830B589B006F024FBD0
:10288000354C05F0C2FD06F01FFB344905F0B6FDDE
:1028900006F01AFB0A22216805F031FE06F014FB4F
:1028A0002F4905F0BEFD06F00FFB4CF2503105F04C
:1028B0003CFF06F009FB0D220146684605F038FF93
:1028C0002849684605F007FD00283AD006F0FCFAD2
:1028D000254905F0A6FD06F0F7FA244905F0A1FD0B
:1028E00006F0F2FA0D22014604A805F021FF04A823
:1028F00005F036FD054606F0E7FA1D4905F091FDA5
:1029000042F20C73AA1E9A4212D806F0DDFA194957
:1029100005F074FD06F0D8FA29460A2205F0EFFD0D
:10292000256006F0CDFD21460020FEF748F804E0C2
:1029300006F0CAFA104905F074FD04A805F08CFBF6
:1029400004E006F0C1FA0D4905F06BFD684605F09C
:1029500083FB09B030BD00BF880000205BE608089B
:102960006EE608081AE5080820E508089EE608084B
:1029700084050908B3E60808C4E6080845E608081F
:102980001FB506F0A1FA05F040FD06F09DFA1449C6
:1029900005F047FD06F098FA4CF2503105F0C5FEFF
:1029A00006F092FA0D220146684605F0C1FE0D4977
:1029B000684605F090FC38B106F086FA0A4905F041
:1029C00030FDFEF70DF904E006F07EFA074905F048
:1029D00028FD684605F040FB05B05DF804FB00BF2C
:1029E000D5E608081AE508080EE7080845E60808CD
:1029F00010B588B006F068FA1F4905F012FD06F020
:102A000063FA4CF2503105F090FE06F05DFA0D22AB
:102A10000146684605F08CFE684605F0A1FC0446B8
:102A200006F052FA154905F0FCFC154B9C4218DDE6
:102A3000204605F003FF06F047FA124905F0DEFCD8
:102A400006F042FA044605F0D6FF014604A805F058
:102A5000FFFE0499204605F0E4FC04A805F0FCFA0A
:102A600004E006F031FA084905F0DBFC684605F0A1
:102A7000F3FA08B010BD00BF7DE708088405090817
:102A8000F52E9439B8E70808C4E6080810B586B0F2
:102A900006F01AFA1F4905F0C4FC06F015FA4CF2CC
:102AA000503105F042FE06F00FFA0D22014602A851
:102AB00005F03EFE02A805F053FC019006F004FA72
:102AC000154905F0AEFC019800F10C031A2B17D83C
:102AD00007F06CFC05F096FE06AC06F0F5F90F4920
:102AE00005F08CFC06F0F0F954F8141D0A2205F0EC
:102AF00006FD06F0E5FC21465420FDF760FF04E0EA
:102B000006F0E2F9064905F08CFC02A805F0A4FAEB
:102B100006B010BDCBE7080884050908F6E70808E9
:102B2000C4E6080830B587B006F0CEF9294D05F0A7
:102B30006CFC06F0C9F9284905F060FC06F0C4F900
:102B40000A22296805F0D9FC06F0BEF9234905F0F0
:102B500068FC06F0B9F9224905F050FC06F0B4F91A
:102B60004CF2503105F0E1FD06F0AEF90D220146C0
:102B700002A805F0DDFD02A805F0F2FB42F20E739B
:102B80000190013898421AD806F09EF9154905F0CF
:102B900035FC06F099F90A22019905F0B0FC06AC63
:102BA00006F092F90D4905F03CFC54F8143D2B60F9
:102BB00006F086FC21467420FDF701FF04E006F0D4
:102BC00083F9094905F02DFC02A805F045FA07B084
:102BD00030BD00BFB40A00200EE8080822E808084B
:102BE0003BE808084EE80808C4E6080830B58BB092
:102BF00006F06AF905F009FC06F066F9324905F0BD
:102C0000FDFB06F061F90546304C0222216806A85A
:102C100005F0DFFA0699284605F0F0FB06A805F056
:102C20001BFA06F051F92A4905F0FBFB06F04CF9B6
:102C3000284905F0E3FB06F047F94CF2503105F066
:102C400074FD06F041F90D22014602A805F070FD61
:102C500002A805F08AFB4FF07C51054607F0ACFD59
:102C600038B31D49284607F093FD10B31B49284689
:102C7000256007F0EFFB07F0B3FD019006F024F9A3
:102C8000174905F0BBFB06F01FF905460222216833
:102C900006A805F09EFA0699284605F0C2FB06A88C
:102CA00005F0DAF906F00CFC01A90820FDF787FE13
:102CB00004E006F009F90B4905F0B3FB02A805F0A2
:102CC000CBF90BB030BD00BF60E80808040A002053
:102CD00073E8080878E80808000020410000C842AE
:102CE0008EE80808C4E6080830B587B006F0ECF8AE
:102CF000264D05F08AFB06F0E7F8254905F07EFB36
:102D000006F0E2F80A22296805F0F7FB06F0DCF885
:102D1000204905F086FB06F0D7F81F4905F06EFB49
:102D200006F0D2F84CF2503105F0FFFC06F0CCF87A
:102D30000D22014602A805F0FBFC02A805F010FBDD
:102D4000019000F57A70B0F5FA6F15D206F0BCF874
:102D5000124905F053FB06AC06F0B6F801990A22B9
:102D600005F0CDFB54F8143D2B6006F0A9FB21467D
:102D70000420FDF724FE04E006F0A6F8084905F05B
:102D800050FB02A805F068F907B030BD240200200E
:102D9000A0E8080873E80808B2E80808C7E80808C7
:102DA000C4E608080000000030B58BB006F08CF8CF
:102DB00005F02BFB06F088F8374905F01FFB06F0FD
:102DC00083F80546354C0222216806A805F001FA71
:102DD0000699284605F012FB06A805F03DF906F015
:102DE00073F82F4905F01DFB06F06EF82D4905F02C
:102DF00005FB06F069F84CF2503105F096FC06F040
:102E000063F80D22014602A805F092FC02A805F025
:102E1000ACFA054606F074FE1DA3D3E9002307F0C3
:102E200049F940B34FF08041284607F0B1FC10B398
:102E30001D492846256007F00DFB07F0D1FC0190E5
:102E400006F042F8194905F0D9FA06F03DF80546B2
:102E50000222216806A805F0BCF90699284605F06B
:102E6000E0FA06A805F0F8F806F02AFB01A9102000
:102E7000FDF7A5FD04E006F027F80D4905F0D1FAAD
:102E800002A805F0E9F80BB030BD00BFAFF3008039
:102E90009A9999999999B93FD8E80808A408002007
:102EA00073E80808EAE808080000C842FFE80808D4
:102EB000C4E6080830B587B006F006F8274D05F0DF
:102EC000A4FA06F001F8264905F098FA05F0FCFF8F
:102ED0000A22296805F011FB05F0F6FF214905F0EB
:102EE000A0FA05F0F1FF204905F088FA05F0ECFFA3
:102EF0004CF2503105F019FC05F0E6FF0D220146B9
:102F000002A805F015FC02A805F02AFA42F20F7398
:102F1000019000F59C500830984215D805F0D4FF78
:102F2000124905F06BFA06AC05F0CEFF01990A22B2
:102F300005F0E5FA54F8143D2B6006F0C1FA21467D
:102F40000C20FDF73CFD04E005F0BEFF084905F04C
:102F500068FA02A805F080F807B030BD6C090020BF
:102F600011E9080824E9080829E908083DE90808E2
:102F7000C4E6080830B58BB005F0A6FF05F045FAA9
:102F800005F0A2FF324905F039FA05F09DFF05462C
:102F9000304C0222216806A805F01BF90699284644
:102FA00005F02CFA06A805F057F805F08DFF2A4920
:102FB00005F037FA05F088FF284905F01FFA05F0FB
:102FC00083FF4CF2503105F0B0FB05F07DFF0D2280
:102FD000014602A805F0ACFB02A805F0C6F94FF0C7
:102FE0007C51054607F0E8FB40B34FF07F5128467F
:102FF00007F0CEFB10B31A492846256007F02AFADD
:1030000007F0EEFB019005F05FFF164905F0F6F9B9
:1030100005F05AFF05460222216806A805F0D9F8F6
:103020000699284605F0FDF906A805F015F806F002
:1030300047FA01A91820FDF7C2FC04E005F044FF9F
:10304000094905F0EEF902A805F006F80BB030BD0D
:103050004DE908082002002088FE080860E90808F9
:103060000000C84276E90808C4E6080830B587B011
:1030700005F02AFF264D05F0C8F905F025FF254982
:1030800005F0BCF905F020FF0A22296805F035FAA1
:1030900005F01AFF204905F0C4F905F015FF1F4996
:1030A00005F0ACF905F010FF4CF2503105F03DFB96
:1030B00005F00AFF0D22014602A805F039FB02A81F
:1030C00005F04EF9019000F57A70B0F5FA6F15D25F
:1030D00005F0FAFE124905F091F906AC05F0F4FE90
:1030E00001990A2205F00BFA54F8143D2B6006F002
:1030F000E7F921461420FDF762FC04E005F0E4FE48
:10310000084905F08EF902A804F0A6FF07B030BD0B
:10311000980A002088E908089AE90808A1E908083F
:10312000B6E90808C4E6080830B58BB005F0CCFE57
:1031300005F06BF905F0C8FE324905F05FF905F0BE
:10314000C3FE0546304C0222216806A805F041F86E
:103150000699284605F052F906A804F07DFF05F00F
:10316000B3FE2A4905F05DF905F0AEFE284905F0E9
:1031700045F905F0A9FE4CF2503105F0D6FA05F0FC
:10318000A3FE0D22014602A805F0D2FA02A805F01E
:10319000ECF84FF07C51054607F00EFB40B34FF0C2
:1031A0007F51284607F0F4FA10B31A4928462560E3
:1031B00007F050F907F014FB019005F085FE164961
:1031C00005F01CF905F080FE05460222216806A8DC
:1031D00004F0FFFF0699284605F023F906A804F03D
:1031E0003BFF06F06DF901A92020FDF7E8FB04E0A4
:1031F00005F06AFE094905F014F902A804F02CFF55
:103200000BB030BDC7E90808A807002088FE0808F1
:10321000DCE908080000C842F4E90808C4E6080828
:1032200030B587B005F050FE264D05F0EEF805F0FC
:103230004BFE254905F0E2F805F046FE0A22296812
:1032400005F05BF905F040FE204905F0EAF805F0CD
:103250003BFE1F4905F0D2F805F036FE4CF2503126
:1032600005F063FA05F030FE0D22014602A805F0D4
:103270005FFA02A805F074F8019000F57A70B0F5D5
:10328000FA6F15D205F020FE124905F0B7F806AC2A
:1032900005F01AFE01990A2205F031F954F8143D9F
:1032A0002B6006F00DF921461C20FDF788FB04E099
:1032B00005F00AFE084905F0B4F802A804F0CCFEB7
:1032C00007B030BD6407002008EA08089AE908083A
:1032D0001CEA080833EA0808C4E6080830B58BB0D1
:1032E00005F0F2FD05F091F805F0EEFD324905F02C
:1032F00085F805F0E9FD0546304C0222216806A854
:1033000004F067FF0699284605F078F806A804F04F
:10331000A3FE05F0D9FD2A4905F083F805F0D4FD98
:10332000284905F06BF805F0CFFD4CF2503105F05F
:10333000FCF905F0C9FD0D22014602A805F0F8F9D7
:1033400002A805F012F84FF07C51054607F034FA58
:1033500040B34FF07F51284607F01AFA10B31A49CC
:103360002846256007F076F807F03AFA019005F054
:10337000ABFD164905F042F805F0A6FD0546022210
:10338000216806A804F025FF0699284605F049F8AB
:1033900006A804F061FE06F093F801A92820FDF7C5
:1033A0000EFB04E005F090FD094905F03AF802A88B
:1033B00004F052FE0BB030BD46EA0808D80A0020DF
:1033C00088FE08085AEA08080000C84271EA08089E
:1033D000C4E6080830B587B005F076FD264D05F047
:1033E00014F805F071FD254905F008F805F06CFDAD
:1033F0000A22296805F081F805F066FD204905F0EC
:1034000010F805F061FD1F4904F0F8FF05F05CFDC0
:103410004CF2503105F089F905F056FD0D220146B8
:1034200002A805F085F902A804F09AFF019000F5C2
:103430007A70B0F5FA6F15D205F046FD124904F026
:10344000DDFF06AC05F040FD01990A2205F057F8B2
:1034500054F8143D2B6006F033F821462420FDF784
:10346000AEFA04E005F030FD084904F0DAFF02A8E6
:1034700004F0F2FD07B030BDCC0A002084EA080851
:1034800097EA08089EEA0808B4EA0808C4E60808AB
:1034900030B58BB005F018FD04F0B7FF05F014FD52
:1034A000324904F0ABFF05F00FFD0546304C022217
:1034B000216806A804F08DFE0699284604F09EFFB8
:1034C00006A804F0C9FD05F0FFFC2A4904F0A9FF95
:1034D00005F0FAFC284904F091FF05F0F5FC4CF2E8
:1034E000503105F022F905F0EFFC0D22014602A84B
:1034F00005F01EF902A804F038FF4FF07C51054694
:1035000007F05AF940B34FF07F51284607F040F9D1
:1035100010B31A492846256006F09CFF07F060F9B1
:10352000019005F0D1FC164904F068FF05F0CCFCD1
:1035300005460222216806A804F04BFE069928469B
:1035400004F06FFF06A804F087FD05F0B9FF01A99C
:103550003020FDF734FA04E005F0B6FC094904F028
:1035600060FF02A804F078FD0BB030BDC6EA080881
:10357000B0070020E1EA0808ECEA08080000C842A9
:103580000AEB0808C4E6080830B587B005F09CFCD3
:10359000254D04F03AFF05F097FC244904F02EFF76
:1035A00005F092FC0A22296804F0A7FF05F08CFCC4
:1035B0001F4904F036FF05F087FC1E4904F01EFF8A
:1035C00005F082FC4CF2503105F0AFF805F07CFCC0
:1035D0000D22014602A805F0ABF802A804F0C0FED7
:1035E00001901E303B2815D805F06EFC124904F0FE
:1035F00005FF06AC05F068FC01990A2204F07FFF84
:1036000054F8143D2B6005F05BFF21462C20FDF79C
:10361000D6F904E005F058FC084904F002FF02A8BE
:1036200004F01AFD07B030BDA00A002024EB080802
:10363000E1EA08083EEB08085BEB0808C4E6080866
:1036400030B58BB005F040FC04F0DFFE05F03CFC2B
:10365000324904F0D3FE05F037FC0546304C022217
:10366000216806A804F0B5FD0699284604F0C6FEB8
:1036700006A804F0F1FC05F027FC2A4904F0D1FE6D
:1036800005F022FC284904F0B9FE05F01DFC4CF2BF
:10369000503105F04AF805F017FC0D22014602A84A
:1036A00005F046F802A804F060FE4FF07C51054694
:1036B00007F082F840B34FF07F51284607F068F8D2
:1036C00010B31A492846256006F0C4FE07F088F8B2
:1036D000019005F0F9FB164904F090FE05F0F4FBAB
:1036E00005460222216806A804F073FD06992846C3
:1036F00004F097FE06A804F0AFFC05F0E1FE01A976
:103700003820FDF75CF904E005F0DEFB094904F020
:1037100088FE02A804F0A0FC0BB030BD74EB0808D2
:10372000EC0100208CEB080892EB08080000C8426E
:10373000ADEB0808C4E6080830B587B005F0C4FB57
:10374000264D04F062FE05F0BFFB254904F056FE4D
:1037500005F0BAFB0A22296804F0CFFE05F0B4FB9D
:10376000204904F05EFE05F0AFFB1F4904F046FE61
:1037700005F0AAFB4CF2503104F0D7FF05F0A4FB92
:103780000D22014602A804F0D3FF02A804F0E8FDD0
:10379000019000F57A70B0F5FA6F15D205F094FB40
:1037A000124904F02BFE06AC05F08EFB01990A22AB
:1037B00004F0A5FE54F8143D2B6005F081FE21466F
:1037C0003420FDF7FCF804E005F07EFB084904F026
:1037D00028FE02A804F040FC07B030BD78090020A4
:1037E000C4EB080873E80808DBEB0808F5EB0808E9
:1037F000C4E6080830B58BB005F066FB04F005FEA2
:1038000005F062FB324904F0F9FD05F05DFB054669
:10381000304C0222216806A804F0DBFC06992846F9
:1038200004F0ECFD06A804F017FC05F04DFB2A4956
:1038300004F0F7FD05F048FB284904F0DFFD05F032
:1038400043FB4CF2503104F070FF05F03DFB0D22BC
:10385000014602A804F06CFF02A804F086FD4FF0B8
:103860007C51054606F0A8FF38B31D49284606F0EE
:103870008FFF10B31B492846256006F0EBFD06F0CC
:10388000AFFF019005F020FB174904F0B7FD05F0EC
:103890001BFB05460222216806A804F09AFC069943
:1038A000284604F0BEFD06A804F0D6FB05F008FE8D
:1038B00001A94020FDF783F804E005F005FB0B4962
:1038C00004F0AFFD02A804F0C7FB0BB030BD00BF91
:1038D0000BEC0808D80600201DEC080820EC0808AE
:1038E000000020410000C84235EC0808C4E6080882
:1038F00030B587B005F0E8FA254D04F086FD05F0F7
:10390000E3FA244904F07AFD05F0DEFA0A22296878
:1039100004F0F3FD05F0D8FA1F4904F082FD05F02C
:10392000D3FA1E4904F06AFD05F0CEFA4CF250318C
:1039300004F0FBFE05F0C8FA0D22014602A804F0CF
:10394000F7FE02A804F00CFD01903230632815D870
:1039500005F0BAFA124904F051FD06AC05F0B4FACC
:1039600001990A2204F0CBFD54F8143D2B6005F0B8
:10397000A7FD21463C20FDF722F804E005F0A4FA5B
:10398000084904F04EFD02A804F066FB07B030BD04
:103990005C07002046EC08081DEC080857EC0808F6
:1039A0006BEC0808C4E6080830B589B005F08CFA5D
:1039B000354C04F02AFD05F087FA344904F01EFD69
:1039C00005F082FA0A22216804F099FD05F07CFADC
:1039D0002F4904F026FD05F077FA4CF2503104F03F
:1039E000A4FE05F071FA0D220146684604F0A0FE1F
:1039F0002849684604F06FFC00283AD005F064FAC4
:103A0000254904F00EFD05F05FFA244904F009FD94
:103A100005F05AFA0D22014604A804F089FE04A814
:103A200004F09EFC054605F04FFA1D4904F0F9FC30
:103A300044F61E636A1E9A4212D805F045FA1949E7
:103A400004F0DCFC05F040FA29460A2204F057FD98
:103A5000256005F035FD21464C20FCF7B0FF04E061
:103A600005F032FA104904F0DCFC04A804F0F4FA82
:103A700004E005F029FA0D4904F0D3FC684604F08F
:103A8000EBFA09B030BD00BF90000020C3EC08087D
:103A9000D8EC08081AE5080820E5080811ED080820
:103AA000840509082AED0808C4E6080845E6080860
:103AB00030B589B005F008FA354C04F0A6FC05F0E5
:103AC00003FA344904F09AFC05F0FEF90A22216851
:103AD00004F015FD05F0F8F92F4904F0A2FC05F0FB
:103AE000F3F94CF2503104F020FE05F0EDF90D220F
:103AF0000146684604F01CFE2849684604F0EBFBCA
:103B000000283AD005F0E0F9254904F08AFC05F0D8
:103B1000DBF9244904F085FC05F0D6F90D220146B5
:103B200004A804F005FE04A804F01AFC054605F0FC
:103B3000CBF91D4904F075FC4CF24E336A1E9A42D3
:103B400012D805F0C1F9194904F058FC05F0BCF988
:103B500029460A2204F0D3FC256005F0B1FC214679
:103B60005020FCF72CFF04E005F0AEF9104904F0FA
:103B700058FC04A804F070FA04E005F0A5F90D491A
:103B800004F04FFC684604F067FA09B030BD00BF8E
:103B90008C0000203DED080852ED08081AE50808E1
:103BA00020E508088BED080884050908A4ED08083D
:103BB000C4E6080845E6080808B505F085F9A249F5
:103BC00004F02FFC05F080F9A04904F02AFC05F070
:103BD0007BF99F4904F025FC05F076F99D4904F036
:103BE00020FC05F071F99C4904F01BFC05F06CF910
:103BF0009A4904F016FC05F067F9994904F011FCA4
:103C000005F062F9974904F00CFC05F05DF996495E
:103C100004F007FC05F058F9944904F002FC05F0A3
:103C200053F9934904F0FDFB05F04EF9914904F076
:103C3000F8FB05F049F9904904F0F3FB05F044F96D
:103C40008E4904F0EEFB05F03FF98D4904F0E9FBE5
:103C500005F03AF98B4904F0E4FB05F035F98A499F
:103C600004F0DFFB05F030F9884904F0DAFB05F0D9
:103C70002BF9874904F0D5FB05F026F9854904F0B6
:103C8000D0FB05F021F9844904F0CBFB05F01CF9C9
:103C9000824904F0C6FB05F017F9814904F0C1FB25
:103CA00005F012F97F4904F0BCFB05F00DF97E49DF
:103CB00004F0B7FB05F008F97C4904F0B2FB05F00D
:103CC00003F97B4904F0ADFB05F0FEF8794904F0F7
:103CD000A8FB05F0F9F8784904F0A3FB05F0F4F827
:103CE000764904F09EFB05F0EFF8754904F099FB66
:103CF00005F0EAF8734904F094FB05F0E5F8724921
:103D000004F08FFB05F0E0F8704904F08AFB05F041
:103D1000DBF86F4904F085FB05F0D6F86D4904F037
:103D200080FB05F0D1F86C4904F07BFB05F0CCF882
:103D30006A4904F076FB05F0C7F8694904F071FBA5
:103D400005F0C2F8674904F06CFB05F0BDF8664960
:103D500004F067FB05F0B8F8644904F062FB05F075
:103D6000B3F8634904F05DFB05F0AEF8614904F077
:103D700058FB05F0A9F8604904F053FB05F0A4F8DE
:103D80005E4904F04EFB05F09FF85D4904F049FBE5
:103D900005F09AF85B4904F044FB05F095F85A49A0
:103DA00004F03FFB05F090F8584904F03AFB05F0A9
:103DB0008BF8574904F035FB05F086F8554904F0B7
:103DC00030FB05F081F8544904F02BFB05F07CF83A
:103DD000524904F026FB05F077F8514904F021FB25
:103DE00005F072F84F4904F01CFB05F06DF84E49E0
:103DF00004F017FB05F068F84C4904F012FB05F0DD
:103E000063F84B4904F00DFB05F05EF8494904F0F6
:103E100008FB05F059F8484904F003FB05F054F895
:103E2000464904F0FEFA05F04FF8454904F0F9FA66
:103E300005F04AF8434904F0F4FA05F045F8BDE806
:103E40000840414904F0EDBAB7ED0808CDED080887
:103E5000E2ED0808F6ED08080AEE08081DEE08086D
:103E600032EE080846EE08085DEE080873EE080812
:103E700089EE08089EEE0808BBEE0808D7EE080891
:103E8000F1EE08080AEF080824EF08083DEF0808DB
:103E900059EF080876EF08088FEF0808ABEF08081D
:103EA000C3EF0808DCEF0808F5EF080809F0080878
:103EB0001EF0080839F0080854F008086AF00808ED
:103EC0007BF008088DF008089EF00808B0F008089C
:103ED000D9F0080802F1080831F1080857F108087C
:103EE0007CF10808A4F10808E4F1080827F20808A2
:103EF00051F2080894F20808DAF208080EF30808EC
:103F00002CF3080850F308086BF3080895F3080829
:103F1000CAF30808EEF3080802F408081EF40808BB
:103F200043F4080867F408088CF40808B4F4080897
:103F3000E0F4080823F5080855F508087BF508089B
:103F4000E1F5080845F608085AF6080813460A4637
:103F5000002104F09BBB000038B51D4803F0E6FDCE
:103F6000054604F0B1FF2A461A49FFF7EFFF642D1A
:103F700016D0962D16D0B5F5FA7F16D0B5F5617F1F
:103F800016D0B5F5966F40F2DC5416D0A54212D08B
:103F900040F6B832B5F5FA6F14BF2C4614460CE063
:103FA00096240AE04FF4FA7407E04FF4617404E0D9
:103FB0004FF4966401E04FF4FA64A1B2044803F0B0
:103FC000EDFD04F081FF22460349FFF7BFFF38BD36
:103FD0009C0A002063F7080881F70808F0B5334809
:103FE00085B003F0AFFD054610F0800F0CBF002434
:103FF0004FF40064470648BF04F58064860648BF56
:1040000004F50074E80648BF04F58074290748BF2A
:1040100080346A0748BF403404F056FF22462449E2
:10402000FFF794FF281DC0B2030658BF002100F01F
:10403000400346BF01214FF400640C4603F0FF0229
:1040400013B104F58064012200F0200505F0FF03A0
:1040500015B104F50074012300F0100606F0FF0509
:1040600016B104F58074012500F0080707F0FF067B
:104070000FB18034012600F0040000F0FF0710B1FA
:104080004034012000E0384602908DE86000074887
:1040900003F0E7FD054803F055FD04F015FF224647
:1040A0000449FFF753FF05B0F0BD00BF9C0A002094
:1040B0009FF70808C8F708082DE9F04FA64D8FB004
:1040C000A64906A804F00FF82B6823B104F0FCFE03
:1040D000A34904F0A6F9DFF8E0920021B9F8000046
:1040E00005F07DF905F018FA0122492105F0B0F834
:1040F000CDF8149048B92B68002B3ED004F0E4FEB4
:10410000984904F08EF997492EE00321964801F072
:1041100028F9044606F04AF9944B196806F09AF912
:10412000934906F04BFA05F0EBFC0022914BCDE9E8
:10413000020105F085FB05F0E7FF0028B8BF40420B
:1041400005F0CCFC00228C4B05F0BEFFA8B12B681B
:104150009BB104F0B9FEDDE902230021CDE9002383
:10416000864A04F093FA86490AA803F0BCFF0AA81D
:10417000FDF78EFA0AA803F06FFF0021814800F0D6
:104180009AFF80B92B6873B104F09EFE7E4904F05B
:1041900048F97E490AA803F0A6FF0AA8FDF778FAB5
:1041A0000AA803F059FF05F0B7F90122492105F0EB
:1041B0004FF8002800F0B9800021724800F07BFF22
:1041C000002800F0B2800024A246274626464FF081
:1041D0000A080021644801F0C4F80121064462483D
:1041E00001F0BFF8022107445F4801F0BAF803214B
:1041F00082445D4801F0B5F8B8F101080444E8D103
:104200000A2394FBF3F496FBF3F697FBF3F79AFB80
:10421000F3FA564B2046D3F8008006F0C7F8414623
:1042200006F018F98146304606F0C0F8414606F01F
:1042300011F90146484606F003F8554906F0BEF963
:104240008346384606F0B2F8414606F003F90146C7
:10425000484605F0F5FF4F4906F0B0F98046FDF7F6
:1042600047F84D4906F09EFA20B14146584605F000
:10427000E7FF1FE0FDF73CF8484906F093FA20B14C
:104280004146584605F0DEFF14E0404605F038FC94
:104290002DA3D3E9002305F087FC804658468946C4
:1042A00005F02EFC02460B464046494605F0CAFA88
:1042B00005F072FF05F024FC25A3D3E9002305F0E7
:1042C0009DFD05F069FF0222014680460AA803F021
:1042D00080FF0AA906A803F050FF0AA803F0BCFE5D
:1042E000059B0121188805F07AF82B6813B304F0B8
:1042F000EBFD2B4904F082F804F0E6FD3246294933
:10430000FFF724FE04F0E0FD3A462749FFF71EFEC2
:1043100004F0DAFD52462549FFF718FE04F0D4FDFB
:1043200022462349FFF712FE04E0224906A803F0C3
:104330002CFFD5E706A803F08FFE40460FB0BDE87E
:10434000F08F00BFAFF3008052B81E85EB51E83FFD
:10435000B6F3FDD478E9D63FC40A002084050908E5
:10436000E6F70808FAF70808080A0020A400002069
:1043700000007A440000F43F0000E03F1FF8080806
:1043800031F80808E80100204AF808086EF8080823
:104390000000F0C2000016C3000070410000C841D8
:1043A00081F8080896F80808A3F80808B0F8080883
:1043B000BEF8080866DF08089C00002073B50D4DA4
:1043C00004F082FD03681B699847044680B9FFF733
:1043D00073FE286004F078FD0646286805F090FB1F
:1043E000054ACDE900012146304604F04FF9E7E7E0
:1043F00002B070BD6C070020CEF80808F0B5AC4CD8
:104400003023AC4E8DB023702378782B00F00784D6
:1044100004F05AFDA84903F0F1FF04F055FD0368CC
:10442000DB69984704F050FD03681B699847002832
:10443000F8D004F049FD03685B699847C0B2612871
:10444000207002D1FEF7D2FBDEE7622802D1FEF730
:104450004BFCD9E7632802D1FEF7A6FCD4E7642819
:1044600002D1FEF727FDCFE7652802D1FEF782FDD6
:10447000CAE7662802D1FEF7F9FDC5E7672802D131
:10448000FEF752FEC0E7682802D1FEF7C9FEBBE77F
:10449000692802D1FEF722FFB6E76A2802D1FEF7AB
:1044A00099FFB1E76B2802D1FEF7F2FFACE76C2869
:1044B00002D1FFF769F8A7E76D2802D1FFF7C0F82E
:1044C000A2E76E2802D1FFF737F99DE76F2802D1E6
:1044D000FFF790F998E7702802D1FFF709FA93E700
:1044E000712807D104F0F0FC744903F09AFF744D71
:1044F000012308E072280ED104F0E6FC704D7149EA
:1045000003F08FFF00232B6004F0DAFF29464820D8
:10451000FCF755FA78E773280BD104F0D5FC054673
:10452000694908A803F0DFFD0899284603F079FFE0
:1045300064E3742802D1FEF75BFA65E7752802D1BF
:10454000FEF7A4FA60E7762802D1FEF795F95BE75B
:10455000772802D1FEF776F856E779280DD15B4D22
:104560002B681BB904F0B0FC594902E004F0ACFC24
:10457000584903F056FF012314E07A2818D1534D0F
:104580002B68012B08D104F09FFC534903F049FF2D
:104590005248FCF746FA04E004F096FC504903F058
:1045A00040FF00232B6004F08BFF48494420AFE715
:1045B00046280FD14B4B1A68012A01D100220FE087
:1045C00004F082FC484903F02CFF04F079FF4549D0
:1045D00060209DE7432809D1424B1A6812B9012295
:1045E0001A60F2E704F070FC4049ECE7442813D16C
:1045F0003F4B1A68012A05D100221A6004F064FCBE
:104600003C4902E004F060FC3B4903F00AFF04F07F
:1046100057FF374968207BE745280DD1344B1A688E
:10462000012A03D104F050FC3449EEE701221A605C
:1046300004F04AFC3249E8E7472813D1314B1A68A5
:10464000012A03D104F040FC2F4904E001221A6042
:1046500004F03AFC2D4903F0E4FE04F031FF29494F
:104660006C2055E748280CD1264B1A681AB904F07B
:104670002BFC2749EFE700221A6004F025FC2549AE
:10468000E9E7492802D1FEF74DFABDE64A2805D1EF
:10469000FDF7A6FB04F018FC1F494FE04B283FD163
:1046A00004F012FC1D4903F0BCFEFCF7A7FDABE6CD
:1046B00068070020E4060020DEF80808E4F808088F
:1046C000C40A0020FEF808087BE108081C0200204C
:1046D00019F908082CF9080846F90808140F0020F1
:1046E00059F90808A406002074F908089FF9080879
:1046F00060070020C9F90808EAF908080EFA080856
:1047000031FA0808200B00204FFA080877FA080849
:104710009BFA0808C4FA080825E40808E9FA08081A
:104720004C2802D1FEF72CF96EE64D2810D1AF4D82
:104730002B68012B05D104F0C7FBAD4903F071FED6
:1047400062E604F0C1FBAB4903F06BFE01230EE00F
:104750004E2812D1A54D2B681BB904F0B5FBA64914
:10476000ECE704F0B1FBA54903F05BFE00232B60EE
:1047700004F0A6FE29467820CAE64F2807D104F0A7
:10478000A3FB9F4903F04DFEFCF79EFD3CE650283D
:1047900006D104F099FB9B4903F043FE6B2107E02F
:1047A000512809D104F090FB974903F03AFE4B21C0
:1047B0000720FCF7F9F927E6522817D1934D2B680B
:1047C00083B104F081FB924903F02BFE00232B60A0
:1047D00004F076FE29467C20FCF7F1F88D4800F0C5
:1047E000CCFE11E604F070FB8B49A7E7532817D1E4
:1047F000864D2B6883B904F067FB884903F011FEEE
:1048000001232B6004F05CFE29467C20FCF7D7F8DE
:10481000804800F0D7FEF7E504F056FB80498DE7AD
:10482000542815D17F4D2B6833B904F04DFB7E49D8
:1048300003F0F7FD012305E004F046FB7B4903F09C
:10484000F0FD00232B6004F03BFE294680205FE64C
:10485000552815D1764D2B6833B904F035FB7549D1
:1048600003F0DFFD012305E004F02EFB724903F0A5
:10487000D8FD00232B6004F023FE2946842047E660
:10488000562808D104F020FB6C4903F0CAFD6148AA
:1048900000F04EFEB8E5312802D1FFF785F8B3E508
:1048A000322802D1FFF704F9AEE5332816D104F01F
:1048B0000BFB634903F0A2FD04F006FB0A2246212C
:1048C00003F01DFE04F000FB5E4903F097FD04F0C9
:1048D000FBFA0A220D2103F012FE95E534280DD1D2
:1048E000594D2B681BB904F0EFFA584902E004F067
:1048F000EBFA574903F095FD01230FE0352813D15A
:10490000514D2B68012B03D104F0DEFA514902E02E
:1049100004F0DAFA504903F084FD00232B6004F020
:10492000CFFD49495820F3E536280DD14B4D2B6872
:104930001BB904F0C9FA4A4902E004F0C5FA494932
:1049400003F06FFD01230FE0372813D1434D2B688F
:10495000012B03D104F0B8FA434902E004F0B4FAA1
:10496000424903F05EFD00232B6004F0A9FD3B49A2
:104970005C20CDE538281ED104F0A6FA3C4903F0AE
:104980003DFD3C4803F0E4F8054604F09DFA0A2298
:10499000294603F086FD04F097FA374903F02EFD0F
:1049A000344803F0D2F8054604F08EFA0A2229466C
:1049B00003F077FD28E5392802D1FFF70FFB23E547
:1049C000302802D1FFF7C8FA1EE5412802D1FFF7CF
:1049D000F5FC19E5422861D1284B1A68012A51D10A
:1049E00000221A6004F070FA254950E02C0B0020D8
:1049F00005FB080827FB08084BFB08086EFB0808A6
:104A000093FB0808AEFB0808C1FB08080408002057
:104A1000DCFB0808300B0020FFFB08081AFC080824
:104A20003CFC0808F001002056FC080871FC08084E
:104A3000E00600208DFC0808ACFC0808CBFC080848
:104A4000E3FC08083DE40808000A0020F1FC08081F
:104A500000FD080816FD080826FD0808340B002094
:104A60003DFD08084CFD080862FD080872FD0808B5
:104A700089FD08089C0A002091FD0808AC07002069
:104A8000A1FD080801221A6004F01EFA674903F02C
:104A9000C8FC04F015FD6649642039E5212835D1AC
:104AA00004F012FA634903F0BCFC04F00DFA036849
:104AB0001B699847054600287FF4A6AC5E4802F0C3
:104AC00001F918B904F000FA5C49ABE004F0FCF914
:104AD0000746B06805F014F8CDE90601706805F0E6
:104AE0000FF8CDE90401306805F00AF8CDE90201BC
:104AF0005349F06805F062FD05F002F8514ACDE92E
:104B000000012946384603F0C1FDCEE7402812D106
:104B10004D4D2B68012B0BD104F0D6F94B4903F016
:104B200080FC00232B6004F0CBFC29468C20EFE4B2
:104B3000FDF760FE68E4232815D1454D2B68012B55
:104B400005D100232B6004F0BFF9424904E00123A2
:104B50002B6004F0B9F9404903F063FC04F0B0FCA9
:104B600029469020D4E4572816D13C4D2B68012BC0
:104B700006D104F0A9F93A4903F053FC002305E0FB
:104B800004F0A2F9374903F04CFC01232B6004F038
:104B900097FC29468820BBE4582807D101213248D8
:104BA00000F036FD314BB4221A602DE45A2829D189
:104BB00004F08AF92E4903F034FC2E4908A802F0CB
:104BC00057FB089A2C492D48FBF738FF08A803F03B
:104BD00043FA284908A802F067FB089A28492748A1
:104BE000FBF72CFF08A803F037FA224908A802F0C7
:104BF00077FB089A23492148FBF720FF08A803F018
:104C00002BFA01E42A2803D1FDF7F8FBFFF7FCBBE0
:104C10003F287FF4F9ABFEF7CFFFFFF7F5BB04F0B9
:104C200053F9194903F0FDFB0DB0F0BDB5FD0808BF
:104C3000AC070020C8FD0808E406002003FE0808B1
:104C40000000C84219FE0808100800204AFE0808A3
:104C5000180200206CFE08088AFE0808240B0020B9
:104C6000D2FE0808F6FE0808300B0020A806002037
:104C700019FF08087C0B002050FF0808840B002057
:104C800058FF080860FF080869FF08081FB5704C46
:104C900004F01AF96F4903F0C4FBD4E900010022C3
:104CA0006D4B04F0CFFDC4E90001FFF705FA6B4B33
:104CB0001860FCF79DFB6A4B1860FCF739FDFCF7A8
:104CC00073FE03F098FE674B1860674B1A68674BDA
:104CD0001A60FDF793FB04F0F7F803681B69984727
:104CE00000281DDD04F0F0F80368614C5B6998470B
:104CF000604B20701B684BB104F0E6F85E4903F08E
:104D00007DFB04F0E1F8217803F095FB04F0DCF87A
:104D1000217803F090FB23786D2B01D1FFF76EFB18
:104D2000564B1B686BB1564A138843F0010313803E
:104D300002F032FE002838D1524B1A78002A34D1C2
:104D400043E002F029FEA0B14A4B1B6873B104F0A6
:104D5000BBF84D4903F065FB4B49684603F0C3F9C6
:104D60006846FCF795FC684603F076F94748FBF780
:104D700058FE474C204600F04DFA464B1B68012B6D
:104D800064D1454803F0E8FE444905F001FD0028E0
:104D90005CD094F82130002B58D104F095F84049AC
:104DA00003F03FFBFCF7C0FF50E002F0F5FD0028E8
:104DB000DFD0304B1B6823B104F086F8394903F08B
:104DC00030FB304B00221A70D3E72A4C01221A70B4
:104DD000236873B104F078F8334903F022FB3249B9
:104DE000684603F080F96846FCF752FC684603F019
:104DF00033F9264800231A461946406802F084FD1C
:104E0000236873B104F060F8284903F00AFB2849CD
:104E1000684603F068F96846FCF73AFC684603F018
:104E20001BF902F0B1FD2368002BA2D004F04CF86E
:104E3000204903F0F6FA1F49684603F054F9684622
:104E4000FCF726FC684603F007F992E704B010BDB2
:104E5000D00A002080FF08080000F03F6C07002007
:104E600070070020B80A0020D8000020B00B0020F6
:104E700068070020C40A00208CFF08081C020020DC
:104E8000280B0020C80A00201C000908140F00206D
:104E9000740700202C0B0020FC0700200000A0411C
:104EA00040000908F4FF08089CFF0808BBFF080839
:104EB000CCFF0808DDFF0808F8B55B4B00241C6038
:104EC0005A4F5B4B5B4D01261E7002F0AFFA38461D
:104ED00002F08AF82A465849384604F05DFB4FF63E
:104EE000FF72564B03201C705C809A8002F09EFC7F
:104EF0002146304602F0AAFC4FF0FF31504801F045
:104F0000CBFE504800F013FB4F4800F0D3F84F4859
:104F100000F0D0F84E4E49214E4800F012FA4A21D6
:104F20004D4800F00EFA2146304603F0D5FD3046DC
:104F30004A4E2A464A4904F02FFB2146304602F0E9
:104F4000AAFD3046474E2A46474904F025FB304625
:104F500000F040F92A464549304604F01DFB272160
:104F6000434801F033FF434B192283F86A24424A35
:104F700042481A60424E434A434FDC7183F8404432
:104F800083F8414483F8684483F86D44C3F870247F
:104F900083F874442A4631460472447244600760C0
:104FA00004F0FAFA39482A463146047244724460E1
:104FB000076004F0F1FA36484FF47A73354E364FF5
:104FC0008360364B2A460474447444603449036059
:104FD000344C04F0E1FA3146384603F084F83846A0
:104FE000314F2A46214604F0D7FA3146384603F0BD
:104FF0007AF838462D4F2A46214604F0CDFA31463C
:10500000384603F070F83846294F2A46214604F006
:10501000C3FA3146384603F066F82A462146384638
:10502000BDE8F84004F0B8BA08080020DC0A002007
:10503000DC060020D0010020A16F0808BC0A002077
:10504000E4060020300B0020E8010020E9010020E8
:10505000FC070020080A00200E0A00209C0A0020FD
:10506000F78A080874070020B57A0808A9510808CB
:105070001408002028020020C8DD0808AC06002023
:105080002F090808E8000908B0DD0808380B0020DF
:10509000B407002084050908A40A002088DD080858
:1050A00031090808598008089807002008020020E4
:1050B000D4010020704710B50C4604F02DFA4821A9
:1050C00004F0D4F804F028FA036821469B68984756
:1050D00004F022FA002104F0CCF804F01DFA0123B8
:1050E0001A46482104F0B9F804F016FA03681B695F
:1050F000984728B104F010FA03685B699847C0B27A
:1051000010BD70B516460C46054604F005FA482158
:1051100004F0ACF804F000FA036821469B68984755
:1051200004F0FAF9036831469B68984704F0F4F9F3
:10513000012104F09EF821462846BDE87040FFF7A3
:10514000BABF0021FFF7B7BF01221146FFF7D9BF51
:1051500000220121FFF7D5BF2DE9F0410446884622
:1051600017461E46FFF7EDFF0128054615D12046DC
:10517000FFF7EEFF424610212046FFF7C2FF3A46F6
:1051800011212046FFF7BDFF324612212046FFF7CE
:10519000B8FF2046FFF7D8FF00E000252846BDE80D
:1051A000F08102F043B9000010B50446034B40F80B
:1051B000143B02F07FFC204610BD00BF7C000908B4
:1051C00010B50446FFF7F0FF2046242104F0E9F96A
:1051D000204610BD38B504460D4B00250360322330
:1051E00043604FF4FA638360C5600561294614305B
:1051F00002F051FC0123A561E56184F8205084F898
:10520000215084F8223084F82350204638BD00BF56
:105210007C00090810B5044602F0B8F9E368C01A2A
:10522000636898421FD302F0B1F9E06004F1140002
:1052300002F08BFC00F0040303F0FF0273B194F85A
:105240002030C0F3011083421FBFE36984F82000BF
:105250000133E361012384F8213001E084F8212047
:10526000A3690133A36102F091F92369C01AA3680D
:1052700098421CD902F08AF9A36920610A2B06DD45
:10528000E269B2EBA30FD4BF0123002300E00123A6
:1052900084F8223033B194F82030013B012B8CBFCD
:1052A0000023012384F823300023A361E36110BDB0
:1052B00002F0BCB810B5044604F02EF9036821468C
:1052C000BDE810409B68184708B504F025F903684D
:1052D0005B699847C0B208BD70B506460D461446D6
:1052E00004F01AF9314603F0BDFF2846FFF7E2FF4C
:1052F000200AFFF7DFFFE0B2FFF7DCFF04F00CF954
:10530000BDE8704003F0B9BF10B5044604F004F9DD
:10531000214603F0A7FF0020FFF7CCFF04F0FCF8C4
:1053200003F0ABFF04F0F8F82146022203F08DFFF2
:10533000FFF7CAFF0446FFF7C7FF40EA042080B228
:1053400010BD002201700821828041708270704778
:1053500008B504F0E1F8BDE8084003F067BF8180BC
:105360007047032910B5044622D80229828808D044
:10537000032909D0012914BF42F4834242F4A34215
:1053800004E042F4C34201E042F4E34242F003028B
:1053900042F4004201212078FFF79EFF607803F07D
:1053A00077FB2078FFF7B0FFA378184180B210BDDB
:1053B000002010BD02F03AB82DE9F0410E4688B049
:1053C0000446154668460223002202F0A1FF0A2384
:1053D0000222314604A802F09BFF684602F0C0FF9B
:1053E000A08304A802F0BCFFE083684602F0B8FF87
:1053F000064604A802F0B9FF8046304604F06EFB72
:10540000064640460F4604F07BFB00220C4B04F09E
:10541000F5FC0B4602463946304604F013FA532D8C
:105420000CBF00238023C4E9020184F8243004A8BF
:1054300002F012FE684602F00FFE08B0BDE8F081EF
:1054400000004E402DE9F0410E4688B00446154656
:1054500068460323002202F05BFF0A230322314641
:1054600004A802F055FF684602F07AFF208404A8E1
:1054700002F076FF6084684602F072FF064604A8D8
:1054800002F073FF8046304604F028FB0646404693
:105490000F4604F035FB00220C4B04F0AFFC0B462A
:1054A00002463946304604F0CDF9452D0CBF0023A5
:1054B0000123C4E9040184F8253004A802F0CCFDDE
:1054C000684602F0C9FD08B0BDE8F08100004E401A
:1054D00010B50446084602F043FFE06210BD00002C
:1054E00010B50446084602F040FF024904F0B2FF3E
:1054F000206310BD0000204100F10801D1E9000146
:10550000704700F11001D1E90001704708B5006B48
:1055100005F066F908BD90F92400704790F9250060
:10552000704701F083BF0368C9B29B681847704792
:1055300008B503F0F1FF152103F098FE03F0ECFF2E
:105540000521FFF7F0FF03F0E7FF0321FFF7EBFF73
:1055500003F0E2FFE821FFF7E6FF03F0DDFFFF21A4
:10556000FFF7E1FF03F0D8FF0021FFF7DCFF03F0B6
:10557000D3FFBDE8084003F080BE08B503F0CCFFC0
:10558000152103F073FE03F0C7FF0521FFF7CBFFE2
:1055900003F0C2FF0321FFF7C6FF03F0BDFFEE21BA
:1055A000FFF7C1FF03F0B8FF0021FFF7BCFF03F0D6
:1055B000B3FF0021FFF7B7FF03F0AEFFBDE80840DF
:1055C00003F05BBE08B503F0A7FF152103F04EFE04
:1055D00003F0A2FF0521FFF7A6FF03F09DFF0321C3
:1055E000FFF7A1FF03F098FFEE21FFF79CFF03F008
:1055F00093FFFF21FFF797FF03F08EFF0021FFF7D6
:1056000092FF03F089FFBDE8084003F036BE0000BA
:1056100008B521B103F058FC134902F002FF03F072
:105620007BFF152103F022FE03F076FF0521FFF733
:105630007AFF03F071FF0321FFF775FF03F06CFFA2
:10564000EC21FFF770FF03F067FFFF21FFF76BFF0F
:1056500003F062FF0021FFF766FF03F05DFFBDE886
:10566000084003F00ABE00BFC300090801F0DEBE17
:1056700001F0DCBE10B50446283001F07FF928B1F6
:1056800004F50D70BDE8104001F078B910BD411E61
:1056900000F10A020020430843EAC01011F8013F5C
:1056A00018448A4200F0FF00F5D170472DE9F04719
:1056B0000378441C202B01D12046F9E70546704FA2
:1056C00088602C1A2E4615F8013B0BB32F2B01D105
:1056D000031917E05C2B02D10020BDE8F087A3F18D
:1056E0002204E4B21D2C03D827FA04F4E407F3D40F
:1056F00003F0BF043C2CEFD0203B5E2BE1D9EBE75D
:105700002F2D05D11E4613F8015B202DF8D1F9E7A6
:10571000166003199842C0EB030809D013F8012D55
:105720002E2AF7D0202AF5D0B8F1FF0FD4DC01E003
:105730004FF00008C1F8048001F10C0301F11702D9
:10574000202403F8014F9342FBD103461A1A13F8A1
:10575000014B2E2CFAD0202CF8D0B2FA82F408F1AA
:10576000FF366409731C07D100274FF0070E3D4632
:10577000BA464FF0080909E0835D2E2BF4D0013EB4
:10578000F0E7835C202B04D1002401324245F8DB92
:105790004BE02E2B02D1B242F6D103E0222B17D0E0
:1057A0007C2B15D0A3F12A0CBCF1050F01D82D2BB1
:1057B0000ED1A3F13A0CBCF1050F09D9A3F15B0C92
:1057C000BCF1020F04D9A3F1210CBCF15D0F02D989
:1057D000B2420ED149E0B24247D0754521D8A3F17B
:1057E000610CBCF1190F08D8203BDBB249EA07076E
:1057F0000AE0754515D800245F23A3F1410CBCF1E4
:10580000190F98BF49EA0A0A05F1010C5FFA8CFCEE
:105810000D44BCF1060F6B7301D881F80CC06546CE
:10582000B3E7BEF10A0F17D100244B7B202B3FF4C6
:1058300053AF3CB11AEA070F18BF02270F700120BF
:10584000BDE8F0870B7B0120087019447E234B7361
:1058500031238B73BDE8F087B242E5DC32464FF06E
:105860000A0E08254FF010098EE7BEF10A0FDBD0B3
:1058700032464FF00A0E08254FF0100985E700BFA9
:10588000010100312DE9F84306460D4691F80C90D0
:1058900002247E2701F10D086968AA6863189BB28B
:1058A0001144914206D012F8010B03EB431343401D
:1058B0009BB2F6E7B9F1030F28BF4FF0030909F1D6
:1058C0000402D2B203F00F01A818013A0929D2B29A
:1058D00094BF30313731914541734FEA1313F1D3FF
:1058E00005EB09035F730021304600F038FE01210B
:1058F000304600F017FE014628B97078B0FA80F003
:105900004009BDE8F88303784BB1C37A1B07EED496
:105910000B22404605F0DCFA0028E8D102E0012025
:10592000BDE8F8830134A4B2642CB5D1BDE8F88396
:105930002DE9F04F89B003930B78059013F0700FA9
:105940000E46914601D1002099E1059B1B78002B62
:10595000F9D11378D2F804B09B0700F086810BF1DF
:105960000C030D27B3FBF7F70137FFB24FF0000828
:105970000021304600F0F3FD45464346444609F118
:105980000D02CDF80880CDF81080069272690121D1
:1059900030460793C2F34F1A00F0C4FD079B20B9AD
:1059A0007378002B00F08E80CDE70278E52A00D0D6
:1059B00042B9002D08BFD046BD423CBF0135EDB213
:1059C00022B97FE0BD4238BF002503E0E52A01D1BE
:1059D0000024DBE72E2AFBD0C17A0F2950D13CB935
:1059E0005106D3D5437B02F01F040293234607E000
:1059F000013BDBB29A42EBD1427B02999142E7D163
:105A00005A1E4FF00D0C0CFB02FCE345E0D94FF0A1
:105A1000000EBEF1040F5FFA8EF204D800EB4E02C6
:105A2000B2F801200CE00A2A95BF0EF1FF320EF108
:105A3000010200EB420200EB420294BFD28892883E
:105A4000E34503D1002A18BF00249FE7FF2ABFD8EF
:105A5000D2B2A2F141011929D9F8081098BF203219
:105A600011F80C100CF1010AA1F1410C98BFD2B24F
:105A7000BCF1190F9CBF2031C9B29142A8D1F6E008
:105A80000A07A5D44CB1012B7FF45DAFFFF7FFFDF2
:105A9000029B83427FF457AF0FE00B2206990793D6
:105AA00005F016FA079B00287FF470AF99F80020E4
:105AB000D10702D50122049268E7039B1A0640F140
:105AC000CC8040E7039B03F04203422B7FF43BAFC3
:105AD000002D08BFD046BD4202D3049BCBB91FE0C6
