:020000040808EA
:10000000000008081C210908000006000A0005017C
:0800100004027E05000000005F
:04001800B4ED080833
:1000200009480A4908B5884205D0094A824202D0E7
:10003000121A0BF068FF0748074A0021121A0BF04A
:100040006DFF064808BD00BF000000202C1F0908F6
:10005000C8010020C8010020C8120020C8120020DA
:1000600070B509F073FB074B074C1E46E41AA40851
:100070000025A54204D056F8253098470135F8E709
:1000800070BD00BF8C1E0908141F090801F0DABEFC
:1000900008B505F003FBBDE8084009F019BB08F0FE
:1000A0009DB908F0A3B90078B0FA80F04009704714
:1000B00001230370704748B1836C3BB1C36C2BB113
:1000C000006DB0FA80F04009404270474FF0FF30B9
:1000D000704773B5024608460C46FFF7ECFF05462D
:1000E00050BB12F0800FCA7814BF002310239A422D
:1000F00022D0CB708E6C01230DF10702F3216078C2
:10010000B04784F8540010B16FF0010514E0E378B3
:10011000E66C03F010029DF80730732123F0100302
:1001200013438DF807300DF1070201236078B047C3
:1001300084F854000028E7D1284602B070BD40B1D1
:1001400003788B4208D90170137843F002031370CF
:1001500002E04FF0FF307047002070472DE9F84370
:1001600006461846884691461D46FFF7A4FF0446FA
:10017000A8B9AB783BB929463046FFF7AAFF044639
:1001800008B946F08006AF6C4B4642463146687867
:10019000B847002885F8540018BF6FF001042046C6
:1001A000BDE8F8832DE9F04F1E468BB083468A46A2
:1001B00014460021282268460BF0B0FE3046FFF7B7
:1001C0007AFF0546A8BB631E122B30D80DF101083B
:1001D0005F46C1460AF1FF3AA4B2CBEB07039BB2DC
:1001E0009C4213D9B37843B931463878FFF771FF91
:1001F0003B78054603F07F0300E03B7808F8013CBC
:100200001AF8013F013708F8023BE6E78DB96300B1
:10021000013BF46C9BB24A469DF800107078A047F1
:10022000002886F8540018BF6FF0010501E06FF058
:10023000030528460BB0BDE8F08F37B5742304469C
:100240008DF80730FFF737FFA0BB05462346012294
:100250000DF106017420FFF781FFA0B99DF806306B
:1002600013F0030511D023F003038DF806300122AB
:1002700023460DF106010DF10700FFF793FF236DF3
:100280000A209847E2E7002DE0D194F844308BB182
:100290009DF8062003F0030322F0030213438DF8B8
:1002A000063038B9234601220DF106010DF1070091
:1002B000FFF778FF03B030BD2DE9F041002388B08F
:1002C000064608460C468DF807300493ADF8143006
:1002D0000693ADF81C30FFF7EEFE002840F0648175
:1002E000320791F844706AD5012FADF80800ADF8D7
:1002F0000C0063D15A238DF80830B1F84030C72B79
:1003000005D9B3F5C87F28BF4FF4C87300E0C823F0
:10031000B4F91220142102F5163202F29912534355
:1003200093FBF1F30A2103F5481393FBF1F394F9DE
:10033000112094F9140002F544725A4394F90430E0
:1003400058434FF47A7390FBF3F31B0203EB620103
:1003500094F83430043391FBF3F294F9351083238D
:100360004B4303F5803392FBF3F32222FA3B5343D2
:100370006422323393FBF2F38DF80C30B4F8423040
:100380008DF80920B3F57C6F0BD200223F2BD1B240
:1003900002F1010201D99B08F8E703EB8113DBB2FC
:1003A00000E0FF238DF80D30002384F83C3002225A
:1003B000234603A902A8FFF7F5FE00E00120002371
:1003C00084F8443010B92046FFF737FF06F01005D7
:1003D000ADB205B304F14602072104F13B00FFF77B
:1003E000AEFE30B9234601220DF107017520FFF75B
:1003F000B5FE94F83B3001259B0003F01C029DF8EC
:10040000073023F01C03134375228DF807308DF855
:1004100010208DF81830B30622D504F146020821C9
:1004200004F13D00FFF78BFE30B9234601220DF1A8
:1004300007017020FFF792FE9DF80730702123F02E
:10044000080294F83D3003F00803134308AA2A4435
:1004500001358DF8073002F8101C02F8083CEDB2A7
:10046000B10733D004F14602052104F13900FFF74A
:1004700066FE30B9234601220DF107017420FFF713
:100480006DFEF20709D59DF8073094F8392003F086
:100490001F0343EA42138DF80730B3070BD594F8D6
:1004A0003A309B0003F01C029DF8073023F01C0338
:1004B00013438DF8073008AB2B44742203F8102C3B
:1004C0009DF80720013503F8082CEDB2710722D5FD
:1004D00004F14602052104F13800FFF730FE30B97F
:1004E000234601220DF107017220FFF737FE9DF828
:1004F0000730722123F0070294F8383003F0070325
:10050000134308AA2A4401358DF8073002F8101C5D
:1005100002F8083CEDB216F0C00F3CD004F14608DA
:100520004246012104F13E00FFF709FE68B9424648
:100530000A2104F13C00FFF702FE30B923460122F4
:100540000DF107017120FFF709FE72060BD594F833
:100550003E301B0103F010029DF8073023F010031A
:1005600013438DF8073033060AD59DF8073023F082
:100570000F0294F83C3003F00F0313438DF807305B
:1005800008AB2B44712203F8102C9DF8072001358D
:1005900003F8082CEDB228B923462A4606A904A878
:1005A000FFF700FE84F8447008B0BDE8F081000059
:1005B00013B5184B044618689B8802AAADF804309E
:1005C00091F839300090134491F83A2002A802447F
:1005D00012F8082C13F8083C134491F83820024410
:1005E00012F8082C134440F2AB72534303F59553B1
:1005F0004FF47A721933B3FBF2F301339BB22380C9
:1006000091F83E201AB1B1F842201344238002B081
:1006100010BD00BFC8ED08082DE9F04F804689B035
:1006200008460C46FFF747FD0546002840F0678165
:1006300004AF01460F2238460BF070FC2046FFF74E
:100640003AFD05460A26002D40F0538123460F222D
:1006500039461D20FFF782FD05469DF810009DF8E4
:100660001EE000F00F0388F801309DF8113020F0F3
:100670007F0088F802309DF812309DF813900093A7
:100680009DF818309DF814C001939DF819309DF81D
:1006900015B002939DF81D309DF8161003934FFA84
:1006A0008EF303F0200A40EA0A0003F01003184317
:1006B00040B200289DF8172088F8000080F21681CB
:1006C000120942EA011141EA0B3BE18AB4F9180030
:1006D0004900C1EBDB010A46CB175B104FEA32023F
:1006E00002FB03F6A2FB02234FEA123A94F91A2006
:1006F00003EB46034AEA035A4FEA233B1301DF1791
:100700000AFB07F680FB010103FB0B66AAFB032330
:10071000C00A3344920B40EA415042EA83428318B4
:10072000236303EB830380331B12A8F80430236B8D
:1007300094F926005B10A3F57A439A105243D11224
:100740004843B4F9241052135943490001EBA00166
:10075000B4F91E004FEA1C1C434394F920004CEAF4
:10076000091940014243D21002EB63039B14A28B90
:1007700003F500435343009ADB1349EA0239B4F905
:100780002220C9F58019120402EBA10140F635427E
:10079000A9EB21315143B1FBF3F35B00D91049437D
:1007A000B4F92A20B4F9280049134A439910414367
:1007B0001E12491301EB223106FB06F2564394F850
:1007C0002C20724301EB624294F9271002EBC11214
:1007D00003EB2213C8F80830236B94F90E1003EBD7
:1007E000830380331B125943642291FBF2F194F985
:1007F0000D0059435843891190FBF2F091FBF2F13F
:100800006789014401F58041794301988F1202996B
:10081000268941EA002094F90C10A0EB06165943F2
:1008200091FBF2F1A6EB610000FB07F194F91000D7
:100830000EF00F06434393FBF2F240F23C50E37B91
:100840004FEA9E1E02EBC3128B135B4312119B12E5
:10085000534301EB63034FF47A729B1253432A4ACA
:100860001B1323EAE3739342D4BFC8F80C30C8F8D3
:100870000C2094F9363005220021C3FB0201234BE2
:1008800053F82670A0FB072307FB0133100C40EA46
:1008900003401914039B1E4F4EEA830E4FEACE32DB
:1008A00057F826E012F17F42AEFB00670EFB01779E
:1008B0004FF0000343F1FF3312184B41700A40EA36
:1008C000C75079125F104FEA3206801979410AF059
:1008D000A5FFC8F8100095B998F90030002BBABFF1
:1008E000012384F8453084F8455008E0236D0A2040
:1008F0009847013E16F0FF067FF4A5AE0225284674
:1009000009B0BDE8F08F00BFA08601000000002004
:10091000400000207047037C024603F0080303F008
:10092000FF002BB1D36A506A181A48BF6FF000401D
:1009300070477047704710B504462C2109F027FE18
:10094000204610BD10B50446342109F020FE204693
:1009500010BD083006F044BC103006F041BC07B5AD
:1009600002AB03F8011D01221946103006F038FCD5
:1009700003B05DF804FB103006F0A6BB103006F0A3
:10098000D2BA07B501220DF10701103006F017FAAF
:1009900001280CBF9DF807004FF0FF3003B05DF851
:1009A00004FB00F2644006F0D2B800F2644006F0A6
:1009B00006B800F2644006F045B800F2644005F065
:1009C000B6BF10B50C46042207F004FB204610BD4C
:1009D00013B50023ADF8063008F0F0F99828044666
:1009E0000AD809F063FD204602220DF1060107F046
:1009F000E9FABDF8060001E04FF0FF3002B010BD8B
:100A000010B50C46042207F0DDFA204610BD07B5EC
:100A100002AB03F8011D01221946083006F0E0FB85
:100A200003B05DF804FB00231A461946406807F03E
:100A30006DBC10B50446142109F0A9FD204610BD77
:100A40000EB400B58CB00DAA52F8041B20238DE81B
:100A50000600039204930168002304AA1E20059354
:100A600007F0C8FB0CB05DF804EB03B07047000062
:100A700010B50C4C2368DB0711D42046FFF713FB9D
:100A800068B1094A0321094B094809F03FFB204698
:100A9000FFF70EFB074A0849054809F073FD0448B3
:100AA00010BD00BF000A002074090020080A0020C1
:100AB0006C080020C80100201509080810B5FFF7D0
:100AC000D7FF074B044653B109F03DFB38B123680B
:100AD00020461B699847002801DDAFF3008010BD58
:100AE0000000000010B50C4C2368DB0711D4204631
:100AF000FFF7D9FA68B1094A0421094B094809F0FE
:100B000005FB2046FFF7D4FA074A0849054809F0D3
:100B100039FD044810BD00BFDC010020B4070020EF
:100B2000A8080020EC010020C801002015090808D1
:100B300010B5FFF7D7FF074B044653B109F003FB8D
:100B400038B1236820461B699847002801DDAFF3C0
:100B5000008010BD0000000038B5044600F264407B
:100B600005F051FEE8B104F58865284606F0E2FA82
:100B70000121204606F01CFD014668B121462846A9
:100B800006F005F968B194F8403413F0700316BF0D
:100B9000054B18461D6038BD204606F009FD0028AB
:100BA000ECD1002038BD00BF940B002038B50C46B6
:100BB000054609F0C7FC6B2109F060FB09F0C2FC97
:100BC000036829469B68984709F0BCFC03682146E6
:100BD0009B68984709F0B6FCBDE83840012109F050
:100BE00050BB000073B509F061FC40F2136302AC26
:100BF00044F8043D214600206426FFF7E2FE09F098
:100C000055FC214608200196FFF7DBFE09F04EFC5B
:100C1000214610200196FFF7D4FE09F047FC21463B
:100C200098200196FFF7CDFE09F040FC21461820E0
:100C30000196FFF7C6FE09F039FC214620200196F7
:100C4000FFF7BFFE09F032FC214628200196FFF78E
:100C5000B8FE09F02BFC214630200196FFF7B1FECB
:100C600009F024FC214638200196FFF7AAFE09F07E
:100C70001DFC2146402000250196FFF7A2FE09F049
:100C800015FC214604200195FFF79BFE09F00EFCA0
:100C900021460C200195FFF794FE09F007FC214640
:100CA00094200195FFF78DFE09F000FC21461420E9
:100CB0000195FFF786FE09F0F9FB21461C200195FE
:100CC000FFF77FFE09F0F2FB214624200195FFF794
:100CD00078FE09F0EBFB21462C200195FFF771FE11
:100CE00009F0E4FB214634200195FFF76AFE09F084
:100CF000DDFB21463C200195FFF763FE09F0D6FBA2
:100D0000214644200195FFF75CFE09F0CFFB214608
:100D100048200195FFF755FE09F0C8FB21465820F1
:100D20000195FFF74EFE09F0C1FB41495C20FFF73A
:100D300048FE09F0BBFB4FF47A7321464C20019327
:100D4000FFF73FFE09F0B2FB42F21073214650203C
:100D50000193FFF736FE09F0A9FB21466FF0060369
:100D600054200193FFF72DFE324B18680AF016FB52
:100D700008F092FA09F09AFB214660200195FFF7EE
:100D800020FE09F093FB2146304601950126FFF72E
:100D900018FE09F08BFB214668200196FFF711FE33
:100DA00009F084FB21466C200195FFF70AFE09F04B
:100DB0007DFB214670200195FFF703FE09F076FBCD
:100DC000214674200196FFF7FCFD09F06FFB2146D8
:100DD00078200196FFF7F5FD09F068FB21467C209D
:100DE0000195FFF7EEFD09F061FB21468020019699
:100DF000FFF7E7FD09F05AFB214684200195FFF734
:100E0000E0FD09F053FB214688200195FFF7D9FD4D
:100E100009F04CFB21468C200195FFF7D2FD09F02B
:100E200045FB214690200195FFF7CBFD02B070BD38
:100E3000540B0020840B00202DE9F347C24C09F02D
:100E400035FB21460020FFF7DBFD2368013304D189
:100E500040F213632360FFF7C5FE09F027FB01A9E9
:100E60000820FFF7CDFD01980AF098FAB7490AF07B
:100E70009DFBDFF86493DFF86483C9F8000009F094
:100E800015FB01A91020FFF7BBFD01980AF086FAB7
:100E9000AE490AF08BFBC8F8000009F007FB01A976
:100EA0009820FFF7ADFD01980AF078FAA7490AF0FB
:100EB0007DFBA74FA74E386009F0F8FA01A918206A
:100EC000FFF79EFD01980AF069FAA0490AF06EFB4F
:100ED000306009F0EBFA01A92020FFF791FD01989D
:100EE0000AF05CFA99490AF061FB9B4D9B4C286023
:100EF00009F0DCFA01A92820FFF782FD01980AF029
:100F00004DFA92490AF052FB206009F0CFFA01A98C
:100F10003020FFF775FD01980AF040FA8B490AF07E
:100F200045FB8F4BDFF8B8A2186009F0BFFA01A9A2
:100F30003820FFF765FD01980AF030FA83490AF07E
:100F400035FB884B186009F0B1FA01A94020FFF782
:100F500057FD01980AF022FA7C490AF027FB824BE0
:100F6000186009F0A3FA81490420FFF749FD09F050
:100F70009DFA7F490C20FFF743FD09F097FA7D4960
:100F80009420FFF73DFD09F091FA7B491420FFF70B
:100F900037FD09F08BFA79491C20FFF731FD09F084
:100FA00085FA77492420FFF72BFD09F07FFA754970
:100FB0002C20FFF725FD09F079FA73493420FFF75B
:100FC0001FFD09F073FA71493C20FFF719FD09F084
:100FD0006DFA6F494420FFF713FD09F067FA6D4978
:100FE0004820FFF70DFD09F061FA6B495820FFF723
:100FF00007FD09F05BFA69495C20FFF701FD09F084
:1010000055FA67494C20FFF7FBFC09F04FFA654998
:101010005020FFF7F5FC09F049FA01A95420FFF729
:10102000EFFC01980AF0BAF908F036F909F03EFA37
:101030005D496020FFF7E4FC09F038FA5B49642061
:10104000FFF7DEFC09F032FA59496820FFF7D8FCB7
:1010500009F02CFA57496C20FFF7D2FC09F026FA68
:1010600055497020FFF7CCFC09F020FA5349742051
:10107000FFF7C6FC09F01AFA51497820FFF7C0FCC7
:1010800009F014FA4F497C20FFF7BAFC09F00EFA78
:101090004D498020FFF7B4FC09F008FA4B49842041
:1010A000FFF7AEFC09F002FA49498820FFF7A8FCD7
:1010B00009F0FCF951468C20FFF7A2FC09F0F6F983
:1010C00044499020FFF79CFCDAF8003013B100206F
:1010D00008F0E2F841F28731384AD9F80000136885
:1010E000013B8B4284BF0123136000210AF03EFBC9
:1010F00018B1394B4FF07E521A600021D8F8000029
:101100000AF034FB18B1354B4FF07E521A600021C3
:1011100038680AF02BFB18B10D4B4FF07E521A6065
:10112000002130680AF022FB18B10A4B4FF07E52C2
:101130001A60002128680AF019FB002852D0064BDB
:101140004FF07E521A604DE0880000200000C84237
:10115000300900201C020020A8070020F00A00200F
:10116000B0070020E4010020DC060020240200205B
:10117000F8090020FC0900208C08002068070020E6
:10118000D40A0020A80A0020040A002060070020DA
:1011900014020020CC0A00208C0A0020540B0020EE
:1011A000900000208C000020A8060020AC07002042
:1011B000640700203C0B0020A4060020BC0A00208D
:1011C000480B002088080020E8010020E4060020E9
:1011D000400B002010020020900A00202C09002063
:1011E00098080020002120680AF0C0FA18B1034BCB
:1011F0004FF07E521A6002B0BDE8F087F00A00207E
:1012000010B508F07FFE03681B69984790B9FFF797
:1012100069FC03681B6998470028F2DDFFF762FC50
:1012200003685B699847044608F06CFEE1B207F07A
:1012300017FEE6E710BD0000F7B506460D46002490
:101240004F1EAC4212D0325D0B4901A807F0DEF808
:1012500008F058FE01A907F0FFFDA74204D008F0EE
:1012600051FE202107F0FCFD0134EAE708F04AFEB8
:1012700007F0F9FD03B0F0BD9BEE0808F8B5044691
:101280000F464E1E451E0644B54207D0FFF72AFC06
:10129000036815F8011F9B689847F5E73946204613
:1012A000BDE8F840FFF7C8BF1FB5074A01AB52F8C9
:1012B0000E0F5168128903C30A2101A81A80FFF793
:1012C000DDFF05B05DF804FB28EE08081FB5074AEE
:1012D00001AB52F8180F5168128903C30A2101A803
:1012E0001A80FFF7CBFF05B05DF804FB28EE080875
:1012F00038B5314B314D1B68B3B1314B58890AF0C9
:1013000049F830490AF052F92F490AF09BF82F4961
:1013100009F08EFF2B680446002B35D008F0F2FD53
:101320002B4907F0ACFD2FE02A4B1B681BB32B6841
:1013300023B108F0E7FD284907F0A1FD0B2009F0D3
:101340006FF80AF02BF809F0D3FB17A3D3E90023B9
:1013500009F022FC09F018FF4FF07C5109F068FFFA
:1013600009F0C6FB12A3D3E9002309F03FFD09F001
:101370000BFF044608E02B6823B108F0C3FD1749B2
:1013800007F07DFD164B1C68164B204619680AF0C5
:1013900059F80446144B18680AF000F8214609F081
:1013A00049FF38BDAFF300802D431CEBE2364A3FC6
:1013B0007B14AE47E17A843FE8010020CC0A00208C
:1013C0009C08002000F87F460000254300002042D2
:1013D000A0EE080864070020C1EE0808E0EE080847
:1013E000E8060020B0070020A80A002038B5194BF5
:1013F000194D1B6883B1194B188909F0CBFF1849A7
:101400000AF0D4F817490AF01DF82B68044663B1B6
:1014100008F078FD144906E0144B9C682B6823B152
:1014200008F070FD124907F02AFD124B204619689A
:101430000AF008F80446104B186809F0AFFF21467F
:1014400009F0F8FE074904460AF0B8F900B1054C66
:10145000204638BDE8010020CC0A00209C0800206E
:1014600000F87F460000C8420CEF0808E80600209C
:101470002AEF0808DC0600206007002000000000BA
:101480002DE9F04F8BB0944902A807F036FB934B3F
:101490001A689B4622B108F035FD914907F0EFFC30
:1014A000904C0021208808F0A2FF09F02BF80122BF
:1014B0004A2108F0D5FE274628B908F023FD8A49BD
:1014C00007F0DDFC2EE00321884804F052FC09F00F
:1014D00065FF874B196809F0B5FF864982460AF017
:1014E00065F809F005FB0022834B8046894609F028
:1014F0009FF909F001FE0028B8BF404209F0E6FA62
:1015000000227E4B09F0D8FD60B108F0FBFC7C495D
:1015100007F0A2FC08F0F6FC0223009342464B467B
:1015200007F0D4FD0021774804F0CDFA38B9DBF894
:10153000003023B108F0E6FC734907F0A0FC08F086
:10154000E1FF01224A2108F08BFE002800F0AC8068
:1015500000216C4804F0B7FA002800F0A580654926
:1015600050460AF023F809F0C3FA0022624B09F052
:101570005FF909F0C1FD0028B8BF404209F0A6FAA2
:1015800000225E4B09F098FD002840F08D80044653
:10159000804681460A250021544804F0EAFB0121D7
:1015A0008144524804F0E5FB022180444F4804F096
:1015B000E0FB03214D4804F0DCFB013D0444EAD18B
:1015C0004B4B0A25D3F800A094FBF5F009F0E6FE9A
:1015D000514609F037FF044699FBF5F009F0DEFEAD
:1015E000514609F02FFF0146204609F021FE4749E8
:1015F00009F0DCFF814698FBF5F009F0CFFE51467B
:1016000009F020FF0146204609F012FE404909F08A
:10161000CDFF0446FFF76CFE3E490AF0BBF820B14F
:101620002146484609F004FE25E0FFF761FE3A49ED
:101630000AF0B0F820B12146484609F0FBFD1AE057
:10164000FFF756FE34490AF0B9F8A8B1204609F070
:101650004FFA1DA3D3E9002309F09EFA0446484639
:101660000D4609F045FA02460B462046294609F088
:10167000E1F809F089FD0646304609F039FA14A36D
:10168000D3E9002309F0B2FB09F07EFD02220146F6
:10169000054606A807F0CBFA06A902A807F077FAD4
:1016A00006A807F0E3F903E01C4902A807F077FA5F
:1016B0000121388808F09BFE02A807F0D7F92846D8
:1016C0000BB0BDE8F08F00BF52B81E85EB51E83F6C
:1016D000B6F3FDD478E9D63FE4150908CC0A00201A
:1016E00044EF0808CC0000205AEF08089A0A0020AE
:1016F000A000002000007A440000F43F0000E03F1A
:101700007FEF0808E10100208FEF08080000F0C219
:10171000000016C3000070410000C841B6EF080881
:1017200030B51E4985B0054602230C22A1F58E6016
:10173000FFF712FA50B308F0E5FB194907F09FFBD9
:10174000184A1949194C462312680968184805F0C7
:10175000F8FC236893B91749174807F090FB07F086
:1017600094FE0146684607F0BDFD0099124807F057
:1017700086FB684607F07AF90123236029680E4842
:1017800007F07DFB0A4805F0D5FC04E008F0BAFB41
:101790000A4907F074FB05B030BD00BF9C0600206D
:1017A000BAEF080898070020940B00209408002046
:1017B000600B0020D4EF0808580B0020EBEF08085E
:1017C000F0B58DB09349684607F097F9FFF78AF9AD
:1017D0000D22014608A807F0EDFC08A9684607F0AD
:1017E000D6F908A807F042F907230422694604A89D
:1017F00007F0BCFA884904A807F09BFA0546A8B987
:101800008449684607F095FA98B108F07BFB834954
:1018100007F035FB814908A807F06FF908A8FFF722
:101820007FFF08A807F022F9012404E00024012525
:1018300001E00446054604A807F018F915B9002C84
:10184000C4D0E2E0764E012437460025029B611E9B
:10185000994280F0DA80684607F086FA2C2840F03A
:10186000D280E5B92146684607F07EFA2C2800F0C0
:10187000C98004F10A032246694608A807F076FAEF
:10188000684B1B684BB108F03DFB674907F0E4FA71
:1018900008F038FB089907F0F2FA08A8B0E0012D2B
:1018A0002FD12146684607F05FFA2C2800F0AA8065
:1018B00004F109032246694604A807F057FA594B78
:1018C0001B684BB108F01EFB584907F0C5FA08F039
:1018D00019FB049907F0C0FA04A908A807F04CF90D
:1018E00004F10B01684607F03FFA08A90246504888
:1018F00004F06AFA08A807F0B9F8338823F008035F
:1019000069E0032D28D12146684607F02DFA2C28DE
:1019100078D004F10A032246694604A807F026FAA3
:10192000404B1B684BB108F0EDFA424907F094FABE
:1019300008F0E8FA049907F08FFA04A908A807F05C
:101940001BF904F10C01684607F00EFA08A90246DB
:10195000374804F07FFA15E0062D17D12146684676
:1019600007F002FA2C284DD0A31C2246694604A891
:1019700007F0FCF904A908A807F0FEF808A92C480C
:1019800004F0AEFA08A807F071F838E0072D39D155
:101990002146684607F0E8F92C2833D0A31C2246DC
:1019A000694604A807F0E2F904A908A807F0E4F8DA
:1019B00008A91F4804F09CFA08A807F057F83388D4
:1019C0001B4823F00C03338004F0A8FA012804DC40
:1019D000338843F00C03338011E0154804F09EFA7D
:1019E000042803DC3B8843F0080307E0104804F0B8
:1019F00095FA132803DC3B8843F004033B8004A8DA
:101A000007F034F80135013420E7684607F02EF876
:101A10000DB0F0BD07F008080CF0080810F0080839
:101A2000440B0020CC0A002022F0080833F00808FC
:101A30003809002045F00808F0B58DB0884968469F
:101A400007F05BF8FFF74EF80D22014608A807F0F3
:101A5000B1FB08A9684607F09AF808A807F006F84D
:101A600007230422694604A807F080F97D4904A8E9
:101A700007F05FF90546A8B97949684607F059F9B2
:101A800098B108F03FFA784907F0F9F9764908A8C3
:101A900007F033F808A8FFF743FE08A806F0E6FFB2
:101AA000012404E00024012501E00446054604A8C1
:101AB00006F0DCFF15B9002CC4D0CCE06B4D01243E
:101AC0002F460026029B611E994280F0C480684622
:101AD00007F04AF92C2840F0BC80062E1CD1214684
:101AE000684607F041F92C2800F0B28004F10A039F
:101AF0002246694608A807F039F95D4B1B684BB1CF
:101B000008F000FA5B4907F0A7F908F0FBF908991B
:101B100007F0B5F908A899E0012E2FD121466846B3
:101B200007F022F92C2800F0938004F109032246E3
:101B3000694604A807F01AF94D4B1B684BB108F031
:101B4000E1F94D4907F088F908F0DCF9049907F04C
:101B500083F904A908A807F00FF804F10B016846FF
:101B600007F002F908A90246444804F02DF908A834
:101B700006F07CFF2B8823F008035BE0032E2BD1BB
:101B80002146684607F0F0F82C2861D004F10A03DA
:101B90002246694604A807F0E9F8354B1B684BB1AB
:101BA00008F0B0F9364907F057F908F0ABF9049995
:101BB00007F052F904A908A806F0DEFF04F10C01B1
:101BC000684607F0D1F808A902462C4804F042F90B
:101BD00008A806F04BFF38E0072E39D121466846A9
:101BE00007F0C2F82C2833D0A31C2246694604A86B
:101BF00007F0BCF804A908A806F0BEFF08A91F4812
:101C000004F076F908A806F031FF2B881B4823F072
:101C10000C032B8004F082F9012803DC2B8843F0AD
:101C20000C0307E0154804F079F9042804DC2B883C
:101C300043F008032B8008E0104804F06FF91328E4
:101C4000DEBF3B8843F004033B8004A806F00EFF90
:101C50000136013436E7684606F008FF0DB0F0BDE6
:101C600007F008086AF0080858F00808440B00203C
:101C7000CC0A002022F0080833F0080838090020B8
:101C800045F0080810B590B01D4908A806F035FFCA
:101C90001C4904A806F070FF04A908A807F02BF857
:101CA000194907F034F8044618490CA806F064FFF7
:101CB0000CA9204607F01FF8154907F028F801463F
:101CC000684606F059FF0CA806F0D0FE04A806F0FE
:101CD000CDFE08A806F0CAFE08F014F90D4907F079
:101CE000CEF808F033FA009907F0C9F808F00AF9BD
:101CF000094907F0C4F8684606F0B8FE10B010BDF8
:101D0000D4F0080800020020B6110908CC01002018
:101D1000FDF20808D7F00808FBF0080810B52C4CB5
:101D20000121208808F063FBFA2007F0FBFB00216B
:101D3000208808F05CFBFA2007F0F4FB01212088E2
:101D400008F055FBFA2007F0EDFB0021208808F091
:101D50004EFBFA2007F0E6FB0121208808F047FB44
:101D6000FA2007F0DFFB0021208808F040FBFA2072
:101D700007F0D8FB0121208808F039FBFA2007F092
:101D8000D1FB0021208808F032FBFA2007F0CAFBC3
:101D90000121208808F02BFBFA2007F0C3FB00216B
:101DA000208808F024FBFA2007F0BCFB01212088E2
:101DB00008F01DFBFA2007F0B5FB2088002108F091
:101DC00016FBBDE810406B210720FEF7EFBE00BFF9
:101DD00094000020F8B5174F174E3888174D002192
:101DE00008F005FB164C3088002108F000FB28881D
:101DF000002108F0FCFA0021208808F0F8FA4FF4DE
:101E00007A7007F08FFB3888012108F0F0FA3088EB
:101E1000012108F0ECFA2888012108F0E8FA20886E
:101E2000012108F0E4FABDE8F8404FF47A7007F0B9
:101E300079BB00BF9C000020C8000020C400002027
:101E4000A400002070B5AA4BA8B04FF4DA42A9490B
:101E500001A8A94D1A80A94C06F04FFE072007F0F3
:101E60005FFB0121288808F0B1FA0121208808F0E1
:101E7000ADFAA34B0121188808F0A8FAA14B012163
:101E8000188808F0A3FAA04B0121188808F09EFAE0
:101E90009E4B0121188808F099FA9D4B0121188862
:101EA00008F094FA9B4B0121188808F08FFAFEF78E
:101EB000C3FF994806F0EAFA41F27001964806F02D
:101EC00015FC954806F0DDFB944E34210020FEF70A
:101ED0006DFE1B210120FEF769FE304603F0A2FED5
:101EE00096F8213013B9FFF719FF0EE08C4B1B68F1
:101EF000012B0AD18B4807F089FB8B4909F040FC84
:101F000018B196F82130002BEDD00121288808F077
:101F10006EFA2088012108F06AFA7B4B01211888AB
:101F200008F065FA774B0121188808F060FA774BC2
:101F30000121188808F05BFA754B0121188808F018
:101F400056FA744B0121188808F051FA6C4B0121A4
:101F5000188808F04CFA754A7549764807F080FCF5
:101F6000002302227449754806F0F8F908F0EEF8EB
:101F70004FF4165108F0E4F8FEF77AFD4FF41651CD
:101F800008F0DEF8FEF7AEFD4FF4165108F0D8F871
:101F9000FEF76EFD41F2883107F0F5F842F210705D
:101FA00007F0C0FA07F0AEFF4FF4165107F090FFAC
:101FB000634B0A22196805A806F013FE05A909A8B3
:101FC00006F0DAFD5F4909A806F0A1FE044607F015
:101FD00093FA0A2201460DA806F003FE0DA9204639
:101FE00006F089FE044607F07FFA0A22014611A88E
:101FF00006F0F7FD11A9204606F07DFE044607F025
:1020000069FA0A22014615A806F0EBFD15A920463B
:1020100006F071FE4B4906F07AFE044607F03CFAE2
:102020000A22014619A806F0DCFD19A9204606F08F
:1020300062FE044607F03AFA0A2201461DA806F09D
:10204000D0FD1DA9204606F056FE044607F038FADA
:102050000A22014621A806F0C4FD21A9204606F067
:102060004AFE394906F053FE384C0146204606F038
:1020700074FD21A806F0FAFC1DA806F0F7FC19A8CB
:1020800006F0F4FC15A806F0F1FC11A806F0EEFC31
:102090000DA806F0EBFC09A806F0E8FC05A806F080
:1020A000E5FC07F02FFF2A4906F0E9FE294921A89F
:1020B00006F023FD214621A806F01DFE0146264814
:1020C00006F04BFD21A806F0D1FC244902230C2286
:1020D000A1F58E60FEF740FD002843D007F012FF07
:1020E0001F4906F0B9FE07F00DFF21683DE000BF73
:1020F000440B0020E415090898000020CC000020C3
:10210000D0000020C8000020940000209C00002087
:10211000C4000020A4000020A40A002074070020AE
:10212000480B0020800800200000A04104F10808AE
:10213000D109080835980808F809002012F10808A4
:102140008800002038F108081BF10808AC0A0020BC
:1021500020F1080835F10808980700209C060020A7
:102160003AF1080807F0CEFE8349844C06F087FE5A
:1021700007F0C8FE824906F082FE23684BB1804911
:1021800021A806F0BAFC21A8FFF7CAFA21A806F098
:102190006DFC08F0B7F908F051F80021288808F024
:1021A00026F90323B0221821764803F0DDFC88B914
:1021B00007F0A8FE744906F062FE2368FBB172497D
:1021C00021A806F09AFC21A8FFF7AAFA21A806F098
:1021D0004DFC14E007F096FE6C4906F050FE2368B3
:1021E0004BB16B4921A806F088FC21A8FFF798FAAB
:1021F00021A806F03BFC0121288808F0F8F8654882
:1022000003F0AEFD08F07EF90122492108F028F81C
:1022100088B907F077FE604906F031FE236873B194
:102220005D4921A806F069FC21A8FFF779FA21A8E9
:1022300006F01CFC03E00021564803F098FD07F06F
:1022400061FE564906F01BFE23684BB1534921A895
:1022500006F053FC21A8FFF763FA21A806F006FC5C
:102260004F4D08F04FF907F0E9FF0021288808F0EA
:10227000BEF80323B02218214A4803F075FC78B950
:1022800007F040FE484906F0FAFD474921A806F04C
:1022900034FC21A8FFF744FA21A806F0E7FB14E07C
:1022A00007F030FE414906F0EAFD23684BB13F4993
:1022B00021A806F022FC21A8FFF732FA21A806F097
:1022C000D5FB0121288808F092F8394803F048FD31
:1022D00008F018F901224A2107F0C2FF88B907F077
:1022E00011FE2D4906F0CBFD236873B12A4921A8C0
:1022F00006F003FC21A8FFF713FA21A806F0B6FBAD
:1023000003E000212A4803F032FDFFF763FD07F0E8
:10231000F9FD284906F0B3FD07F0F4FD264906F063
:102320009BFD07F0EFFD0A22462106F016FE07F09E
:10233000E9FD224906F090FD07F0E4FD0A220D2197
:1023400006F00BFEFEF7B0FF1C23002121A8ADF81C
:10235000843005F077FF23A91DA806F0CEFB1D9A57
:1023600017491848FEF76CFB1DA806F07FFB01A873
:1023700006F07CFB28B070BD60F10808CC0A002094
:1023800076F10808E00100209AF10808C6F1080873
:10239000E4F10808940A002000F2080833F2080863
:1023A000CC000020E101002056F208087FF2080866
:1023B0009A0A00209DF20808A8F20808B5F2080859
:1023C000BDF20808A40B002000B58FB0804902A818
:1023D00006F093FB07F096FD7E4906F050FD0023C2
:1023E00000937D4B06A8D3E9002306F037FC06A92D
:1023F0000AA806F0C1FB79490AA806F088FC014644
:1024000002A806F058FC0AA806F030FB06A806F061
:102410002DFB734B0322196806A806F008FC06A9D9
:102420000AA806F0A9FB6D490AA806F070FC01464F
:1024300002A806F040FC0AA806F018FB06A806F061
:1024400015FB684B0322196806A806F0F0FB06A9E5
:102450000AA806F091FB61490AA806F058FC01465B
:1024600002A806F028FC0AA806F000FB06A806F061
:10247000FDFA5D4803F048FD0022002308F0F4FD5A
:1024800090B9594803F05BFD18B9584902A806F005
:1024900016FC554803F038FD0623009302460B4610
:1024A00006A806F0DBFB03E0514906A806F025FB71
:1024B00006A90AA806F060FB48490AA806F027FC0E
:1024C000014602A806F0F7FB0AA806F0CFFA06A814
:1024D00006F0CCFA444803F01CFD0022002308F06B
:1024E000C3FD98B9404803F02DFD012803D13F49B1
:1024F00002A806F0E4FB3C4803F00BFD0623009322
:1025000002460B4606A806F0A9FB03E0394906A8D7
:1025100006F0F3FA06A90AA806F02EFB2F490AA82E
:1025200006F0F5FB014602A806F0C5FB0AA806F076
:102530009DFA06A806F09AFA2B4803F0EAFC00225E
:10254000002308F091FD80B9274803F0E7FC08F06C
:10255000BDFA0022284B08F049FC062300930246EE
:102560000B4606A806F07AFB03E0244906A806F00D
:10257000C4FA06A90AA806F0FFFA18490AA806F044
:10258000C6FB014602A806F096FB0AA806F06EFA02
:1025900006A806F06BFA1A4A1A4B12680AA81A49DA
:1025A00006F020FF0AA902A806F085FB0AA806F09B
:1025B0005DFA164902A806F082FB07F0C7FD0299F2
:1025C00006F04AFC02A806F051FA0FB05DF804FBD1
:1025D000D0F20808D2F20808D80A0020B61109087B
:1025E00070070020A00A002038090020E7F2080840
:1025F000A8000020B400002000002440800000203B
:10260000C00A0020E9F20808CC0B0020FBF2080801
:1026100030B55B4D95B007F075FC5A4906F01CFCCF
:10262000594C07F06FFC296806F029FC07F06AFC9A
:10263000564906F011FC07F065FC216806F01FFC06
:1026400007F060FC524906F01AFC07F05BFC4CF204
:10265000503106F098FD07F055FC0D220146684602
:1026600006F0A8FD4B49684606F063FB002800F021
:10267000818007F047FC484906F001FC07F042FC66
:10268000464906F0FCFB07F03DFC4CF2503106F0E9
:102690007AFD07F037FC0D22014604A806F08AFDFA
:1026A00007F030FC3E4906F0D7FB07F02BFC0499FD
:1026B00006F0E5FB07F026FC3A4906F0E0FB07F0E0
:1026C00021FC0D22014608A806F074FD364908A831
:1026D00006F02FFB002842D007F014FC334906F027
:1026E000CEFB04A9284606F038FA07F00BFC304967
:1026F00006F0C5FB07F006FC0D2201460CA806F00B
:1027000059FD07F0FFFB2B4906F0A6FB07F0FAFB8B
:102710000C9906F0B4FB07F0F5FB0D22014610A85A
:1027200006F048FD204910A806F003FB58B107F059
:10273000E9FB214906F0A3FB0CA9204606F00DFA9F
:10274000FFF7A0FA04E007F0DDFB1C4906F097FB59
:1027500010A806F08BF90CA806F088F904E007F041
:10276000D1FB164906F08BFB08A806F07FF904A8F8
:1027700006F07CF9684606F079F915B030BD00BF67
:102780000002002044F30808CC0100205AF3080896
:1027900074F30808A6F30808ACF30808BEF30808A9
:1027A000CEF30808E6F30808161C0908FCF308082D
:1027B0000CF408081FF408083BF408084FF4080854
:1027C0001FB507F09FFB194906F059FB07F09AFB6C
:1027D0004CF2503106F0D7FC07F094FB0D22014675
:1027E000684606F0E7FC1249684606F0A2FA98B17E
:1027F00007F088FB0F4906F042FB0F4C07F082FB05
:102800000E4906F03CFB0123236007F04FFE2146F2
:102810008C20FEF7D6F804E007F074FB084906F0B8
:102820002EFB684606F022F904B010BD62F40808D9
:10283000A5F40808ACF3080898080020B0F40808CC
:10284000D1F4080830B589B007F05CFB354C06F0D0
:102850000AFB07F057FB344906F0FEFA07F052FB7B
:102860000A22216806F079FB07F04CFB2F4906F09D
:1028700006FB07F047FB4CF2503106F084FC07F0F2
:1028800041FB0D220146684606F094FC2849684643
:1028900006F04FFA00283AD007F034FB254906F03D
:1028A000EEFA07F02FFB244906F0E9FA07F02AFBBD
:1028B0000D22014604A806F07DFC04A806F07EFA6D
:1028C000054607F01FFB1D4906F0D9FA42F20C73CA
:1028D000AA1E9A4212D807F015FB194906F0BCFA55
:1028E00007F010FB29460A2206F037FB256007F0A7
:1028F000DDFD21460020FEF764F804E007F002FB4E
:10290000104906F0BCFA04A806F0B0F804E007F09D
:10291000F9FA0D4906F0B3FA684606F0A7F809B0CF
:1029200030BD00BF88000020E7F40808FAF408086A
:10293000A6F30808ACF308082AF50808E415090806
:102940003FF5080850F50808D1F408081FB507F04E
:10295000D9FA06F088FA07F0D5FA144906F08FFA8A
:1029600007F0D0FA4CF2503106F00DFC07F0CAFA2D
:102970000D220146684606F01DFC0D49684606F02A
:10298000D8F938B107F0BEFA0A4906F078FAFEF72E
:1029900029F904E007F0B6FA074906F070FA68462C
:1029A00006F064F805B05DF804FB00BF61F50808A7
:1029B000A6F308089AF50808D1F4080810B588B0FD
:1029C00007F0A0FA1F4906F05AFA07F09BFA4CF2FA
:1029D000503106F0D8FB07F095FA0D220146684603
:1029E00006F0E8FB684606F0E9F9044607F08AFAC3
:1029F000154906F044FA154B9C4218DD204606F0B6
:102A000067FC07F07FFA124906F026FA07F07AFA17
:102A1000044606F03AFD014604A806F063FC04995A
:102A2000204606F02CFA04A806F020F804E007F08F
:102A300069FA084906F023FA684606F017F808B064
:102A400010BD00BF09F60808E4150908F52E9439F1
:102A500044F6080850F5080810B586B007F052FA99
:102A60001F4906F00CFA07F04DFA4CF2503106F00F
:102A70008AFB07F047FA0D22014602A806F09AFBEE
:102A800002A806F09BF9019007F03CFA154906F000
:102A9000F6F9019800F10C031A2B17D808F07EFC08
:102AA00006F0FAFB06AC07F02DFA0F4906F0D4F950
:102AB00007F028FA54F8141D0A2206F04EFA07F01F
:102AC000F5FC21465420FDF77CFF04E007F01AFADC
:102AD000064906F0D4F902A805F0C8FF06B010BDFB
:102AE00057F60808E415090882F6080850F50808A2
:102AF00030B587B007F006FA294D06F0B4F907F0B3
:102B000001FA284906F0A8F907F0FCF90A22296819
:102B100006F021FA07F0F6F9234906F0B0F907F0BC
:102B2000F1F9224906F098F907F0ECF94CF250312E
:102B300006F029FB07F0E6F90D22014602A806F08F
:102B400039FB02A806F03AF942F20E7301900138FF
:102B500098421AD807F0D6F9154906F07DF907F022
:102B6000D1F90A22019906F0F8F906AC07F0CAF982
:102B70000D4906F084F954F8143D2B6007F096FCDB
:102B800021467420FDF71DFF04E007F0BBF9094959
:102B900006F075F902A805F069FF07B030BD00BF67
:102BA000BC0A00209AF60808AEF60808C7F608081E
:102BB000DAF6080850F5080830B58BB007F0A2F92E
:102BC00006F051F907F09EF9324906F045F907F091
:102BD00099F90546304C0222216806A806F027F82C
:102BE0000699284606F038F906A805F03FFF07F0D9
:102BF00089F92A4906F043F907F084F9284906F0D3
:102C00002BF907F07FF94CF2503106F0BCFA07F0CF
:102C100079F90D22014602A806F0CCFA02A806F0C6
:102C2000D2F84FF07C51054608F0BEFD38B31D497F
:102C3000284608F0A5FD10B31B492846256008F07A
:102C400001FC08F0C5FD019007F05CF9174906F09A
:102C500003F907F057F905460222216806A805F096
:102C6000E6FF0699284606F00AF906A805F0FEFEDA
:102C700007F01CFC01A90820FDF7A3FE04E007F003
:102C800041F90B4906F0FBF802A805F0EFFE0BB086
:102C900030BD00BFECF60808900A0020FFF60808D7
:102CA00004F70808000020410000C8421AF708088D
:102CB00050F5080830B587B007F024F9264D06F026
:102CC000D2F807F01FF9254906F0C6F807F01AF9FF
:102CD0000A22296806F03FF907F014F9204906F0A6
:102CE000CEF807F00FF91F4906F0B6F807F00AF919
:102CF0004CF2503106F047FA07F004F90D22014674
:102D000002A806F057FA02A806F058F8019000F55C
:102D10007A70B0F5FA6F15D207F0F4F8124906F0A0
:102D20009BF806AC07F0EEF801990A2206F015F9B7
:102D300054F8143D2B6007F0B9FB21460420FDF741
:102D400040FE04E007F0DEF8084906F098F802A813
:102D500005F08CFE07B030BD240200202CF70808D7
:102D6000FFF608083EF7080853F7080850F508086A
:102D700030B58BB007F0C6F806F075F807F0C2F86A
:102D8000374906F069F807F0BDF80546354C0222D0
:102D9000216806A805F04BFF0699284606F05CF866
:102DA00006A805F063FE07F0ADF82F4906F067F8B6
:102DB00007F0A8F82D4906F04FF807F0A3F84CF2F9
:102DC000503106F0E0F907F09DF80D22014602A807
:102DD00006F0F0F902A805F0F6FF054607F088FEB8
:102DE0001DA3D3E9002308F05DF940B34FF0804103
:102DF000284608F0C5FC10B31D492846256008F098
:102E000021FB08F0E5FC019007F07CF8194906F079
:102E100023F807F077F805460222216806A805F096
:102E200006FF0699284606F02AF806A805F01EFEB9
:102E300007F03CFB01A91020FDF7C3FD04E007F0FB
:102E400061F80D4906F01BF802A805F00FFE0BB063
:102E500030BD00BFAFF300809A9999999999B93F15
:102E600064F708082C090020FFF6080876F7080820
:102E70000000C8428BF7080850F5080830B587B045
:102E800007F040F8274D05F0EEFF07F03BF8264924
:102E900005F0E2FF07F036F80A22296806F05BF831
:102EA00007F030F8214905F0EAFF07F02BF8204938
:102EB00005F0D2FF07F026F84CF2503106F063F926
:102EC00007F020F80D22014602A806F073F902A8C7
:102ED00005F074FF42F20F73019000F59C5008302A
:102EE000984215D807F00EF8124905F0B5FF06AC68
:102EF00007F008F801990A2206F02FF854F8143D5B
:102F00002B6007F0D3FA21460C20FDF75AFD04E0B0
:102F100006F0F8FF084905F0B2FF02A805F0A6FD8B
:102F200007B030BDF80900209DF70808B0F7080881
:102F3000B5F70808C9F7080850F5080830B58BB090
:102F400006F0E0FF05F08FFF06F0DCFF324905F0E8
:102F500083FF06F0D7FF0546304C0222216806A801
:102F600005F065FE0699284605F076FF06A805F0EF
:102F70007DFD06F0C7FF2A4905F081FF06F0C2FF7C
:102F8000284905F069FF06F0BDFF4CF2503106F00C
:102F9000FAF806F0B7FF0D22014602A806F00AF97A
:102FA00002A805F010FF4FF07C51054608F0FCFB2D
:102FB00040B34FF07F51284608F0E2FB10B31A49A6
:102FC0002846256008F03EFA08F002FC019006F061
:102FD00099FF164905F040FF06F094FF05460222CE
:102FE000216806A805F023FE0699284605F047FF4C
:102FF00006A805F03BFD07F059FA01A91820FDF7D6
:10300000E0FC04E006F07EFF094905F038FF02A865
:1030100005F02CFD0BB030BDD9F708081C020020CC
:10302000E90E0908ECF708080000C84202F8080891
:1030300050F5080830B587B006F064FF264D05F05E
:1030400012FF06F05FFF254905F006FF06F05AFF64
:103050000A22296805F07FFF06F054FF204905F099
:103060000EFF06F04FFF1F4905F0F6FE06F04AFF7F
:103070004CF2503106F087F806F044FF0D2201466D
:1030800002A806F097F802A805F098FE019000F556
:103090007A70B0F5FA6F15D206F034FF124905F0D8
:1030A000DBFE06AC06F02EFF01990A2205F055FF63
:1030B00054F8143D2B6007F0F9F921461420FDF770
:1030C00080FC04E006F01EFF084905F0D8FE02A8C7
:1030D00005F0CCFC07B030BD8C08002014F80808BF
:1030E00026F808082DF8080842F8080850F50808DE
:1030F00030B58BB006F006FF05F0B5FE06F002FF16
:10310000324905F0A9FE06F0FDFE0546304C0222CC
:10311000216806A805F08BFD0699284605F09CFE5F
:1031200006A805F0A3FC06F0EDFE2A4905F0A7FE6F
:1031300006F0E8FE284905F08FFE06F0E3FE4CF2AB
:10314000503106F020F806F0DDFE0D22014602A8FF
:1031500006F030F802A805F036FE4FF07C51054627
:1031600008F022FB40B34FF07F51284608F008FBDF
:1031700010B31A492846256008F064F908F028FBC6
:10318000019006F0BFFE164905F066FE06F0BAFE95
:1031900005460222216806A805F049FD0699284641
:1031A00005F06DFE06A805F061FC07F07FF901A9A6
:1031B0002020FDF706FC04E006F0A4FE094905F016
:1031C0005EFE02A805F052FC0BB030BD53F80808B3
:1031D000A8070020E90E090868F808080000C8429E
:1031E00080F8080850F5080830B587B006F08AFE68
:1031F000264D05F038FE06F085FE254905F02CFE2B
:1032000006F080FE0A22296805F0A5FE06F07AFE87
:10321000204905F034FE06F075FE1F4905F01CFE3E
:1032200006F070FE4CF2503105F0ADFF06F06AFE7C
:103230000D22014602A805F0BDFF02A805F0BEFD63
:10324000019000F57A70B0F5FA6F15D206F05AFECB
:10325000124905F001FE06AC06F054FE01990A225F
:1032600005F07BFE54F8143D2B6007F01FF9214652
:103270001C20FDF7A6FB04E006F044FE084905F01B
:10328000FEFD02A805F0F2FB07B030BD6807002084
:1032900094F8080826F80808A8F80808BFF80808ED
:1032A00050F5080830B58BB006F02CFE05F0DBFDBC
:1032B00006F028FE324905F0CFFD06F023FE054654
:1032C000304C0222216806A805F0B1FC0699284678
:1032D00005F0C2FD06A805F0C9FB06F013FE2A4959
:1032E00005F0CDFD06F00EFE284905F0B5FD06F00F
:1032F00009FE4CF2503105F046FF06F003FE0D22A8
:10330000014602A805F056FF02A805F05CFD4FF04B
:103310007C51054608F048FA40B34FF07F512846EB
:1033200008F02EFA10B31A492846256008F08AF8EA
:1033300008F04EFA019006F0E5FD164905F08CFD07
:1033400006F0E0FD05460222216806A805F06FFCA4
:103350000699284605F093FD06A805F087FB07F0BF
:10336000A5F801A92820FDF72CFB04E006F0CAFD12
:10337000094905F084FD02A805F078FB0BB030BDCB
:10338000D2F80808F00A0020E90E0908E6F8080853
:103390000000C842FDF8080850F5080830B587B0AD
:1033A00006F0B0FD264D05F05EFD06F0ABFD2549AB
:1033B00005F052FD06F0A6FD0A22296805F0CBFDB6
:1033C00006F0A0FD204905F05AFD06F09BFD1F49BF
:1033D00005F042FD06F096FD4CF2503105F0D3FEAB
:1033E00006F090FD0D22014602A805F0E3FE02A8BA
:1033F00005F0E4FC019000F57A70B0F5FA6F15D293
:1034000006F080FD124905F027FD06AC06F07AFDB6
:1034100001990A2205F0A1FD54F8143D2B6007F034
:1034200045F821462420FDF7CCFA04E006F06AFDB9
:10343000084905F024FD02A805F018FB07B030BDCF
:10344000D40A002010F9080823F908082AF9080806
:1034500040F9080850F5080830B58BB006F052FD69
:1034600005F001FD06F04EFD324905F0F5FC06F0D1
:1034700049FD0546304C0222216806A805F0D7FB1D
:103480000699284605F0E8FC06A805F0EFFA06F0D4
:1034900039FD2A4905F0F3FC06F034FD284905F012
:1034A000DBFC06F02FFD4CF2503105F06CFE06F00F
:1034B00029FD0D22014602A805F07CFE02A805F0B8
:1034C00082FC4FF07C51054608F06EF940B34FF096
:1034D0007F51284608F054F910B31A492846256050
:1034E00007F0B0FF08F074F9019006F00BFD1649E3
:1034F00005F0B2FC06F006FD05460222216806A88A
:1035000005F095FB0699284605F0B9FC06A805F0DC
:10351000ADFA06F0CBFF01A93020FDF752FA04E026
:1035200006F0F0FC094905F0AAFC02A805F09EFA95
:103530000BB030BD52F90808B00700206DF908083B
:1035400078F908080000C84296F9080850F50808FC
:1035500030B587B006F0D6FC254D05F084FC06F0AA
:10356000D1FC244905F078FC06F0CCFC0A2229683D
:1035700005F0F1FC06F0C6FC1F4905F080FC06F0E2
:10358000C1FC1E4905F068FC06F0BCFC4CF2503151
:1035900005F0F9FD06F0B6FC0D22014602A805F083
:1035A00009FE02A805F00AFC01901E303B2815D840
:1035B00006F0A8FC124905F04FFC06AC06F0A2FC90
:1035C00001990A2205F0C9FC54F8143D2B6006F05D
:1035D0006DFF21462C20FDF7F4F904E006F092FC83
:1035E000084905F04CFC02A805F040FA07B030BDD0
:1035F000A80A0020B0F908086DF90808CAF90808F7
:10360000E7F9080850F5080830B58BB006F07AFCE9
:1036100005F029FC06F076FC324905F01DFC06F0A9
:1036200071FC0546304C0222216806A805F0FFFA1D
:103630000699284605F010FC06A805F017FA06F0D2
:1036400061FC2A4905F01BFC06F05CFC284905F0EA
:1036500003FC06F057FC4CF2503105F094FD06F0E7
:1036600051FC0D22014602A805F0A4FD02A805F0B8
:10367000AAFB4FF07C51054608F096F840B34FF096
:103680007F51284608F07CF810B31A492846256077
:1036900007F0D8FE08F09CF8019006F033FC1649BC
:1036A00005F0DAFB06F02EFC05460222216806A88A
:1036B00005F0BDFA0699284605F0E1FB06A805F0DD
:1036C000D5F906F0F3FE01A93820FDF77AF904E0F8
:1036D00006F018FC094905F0D2FB02A805F0C6F96E
:1036E0000BB030BD00FA0808E401002018FA080801
:1036F0001EFA08080000C84239FA080850F5080800
:1037000030B587B006F0FEFB264D05F0ACFB06F0A9
:10371000F9FB254905F0A0FB06F0F4FB0A22296815
:1037200005F019FC06F0EEFB204905F0A8FB06F0B9
:10373000E9FB1F4905F090FB06F0E4FB4CF2503129
:1037400005F021FD06F0DEFB0D22014602A805F082
:1037500031FD02A805F032FB019000F57A70B0F55A
:10376000FA6F15D206F0CEFB124905F075FB06ACD8
:1037700006F0C8FB01990A2205F0EFFB54F8143D4E
:103780002B6006F093FE21463420FDF71AF904E081
:1037900006F0B8FB084905F072FB02A805F066F9CF
:1037A00007B030BD040A002050FA0808FFF60808E8
:1037B00067FA080881FA080850F5080830B58BB098
:1037C00006F0A0FB05F04FFB06F09CFB324905F02C
:1037D00043FB06F097FB0546304C0222216806A801
:1037E00005F025FA0699284605F036FB06A805F0EF
:1037F0003DF906F087FB2A4905F041FB06F082FB04
:10380000284905F029FB06F07DFB4CF2503105F00C
:10381000BAFC06F077FB0D22014602A805F0CAFCAF
:1038200002A805F0D0FA4FF07C51054607F0BCFF26
:1038300038B31D49284607F0A3FF10B31B4928469B
:10384000256007F0FFFD07F0C3FF019006F05AFB6B
:10385000174905F001FB06F055FB054602222168D9
:1038600006A805F0E4F90699284605F008FB06A825
:1038700005F0FCF806F01AFE01A94020FDF7A1F8BA
:1038800004E006F03FFB0B4905F0F9FA02A805F049
:10389000EDF80BB030BD00BF97FA0808DC06002039
:1038A000A9FA0808ACFA0808000020410000C84244
:1038B000C1FA080850F5080830B587B006F022FBB9
:1038C000254D05F0D0FA06F01DFB244905F0C4FA99
:1038D00006F018FB0A22296805F03DFB06F012FBF2
:1038E0001F4905F0CCFA06F00DFB1E4905F0B4FAAD
:1038F00006F008FB4CF2503105F045FC06F002FBE7
:103900000D22014602A805F055FC02A805F056FA62
:1039100001903230632815D806F0F4FA124905F008
:103920009BFA06AC06F0EEFA01990A2205F015FBA7
:1039300054F8143D2B6006F0B9FD21463C20FDF7FC
:1039400040F804E006F0DEFA084905F098FA02A80B
:1039500005F08CF807B030BD60070020D2FA0808E7
:10396000A9FA0808E3FA0808F7FA080850F5080861
:1039700030B589B006F0C6FA354C05F074FA06F099
:10398000C1FA344905F068FA06F0BCFA0A22216847
:1039900005F0E3FA06F0B6FA2F4905F070FA06F0E2
:1039A000B1FA4CF2503105F0EEFB06F0ABFA0D2205
:1039B0000146684605F0FEFB2849684605F0B9F95E
:1039C00000283AD006F09EFA254905F058FA06F08C
:1039D00099FA244905F053FA06F094FA0D220146AB
:1039E00004A805F0E7FB04A805F0E8F9054606F091
:1039F00089FA1D4905F043FA44F61E636A1E9A428D
:103A000012D806F07FFA194905F026FA06F07AFA7C
:103A100029460A2205F0A1FA256006F047FD214655
:103A20004C20FCF7CEFF04E006F06CFA104905F0DC
:103A300026FA04A805F01AF804E006F063FA0D4926
:103A400005F01DFA684605F011F809B030BD00BF59
:103A5000900000204FFB080864FB0808A6F3080844
:103A6000ACF308089DFB0808E4150908B6FB080834
:103A700050F50808D1F4080830B589B006F042FACC
:103A8000354C05F0F0F906F03DFA344905F0E4F95B
:103A900006F038FA0A22216805F05FFA06F032FAD9
:103AA0002F4905F0ECF906F02DFA4CF2503105F0F3
:103AB0006AFB06F027FA0D220146684605F07AFBFC
:103AC0002849684605F035F900283AD006F01AFA78
:103AD000254905F0D4F906F015FA244905F0CFF987
:103AE00006F010FA0D22014604A805F063FB04A8B5
:103AF00005F064F9054606F005FA1D4905F0BFF921
:103B00004CF24E336A1E9A4212D806F0FBF919495C
:103B100005F0A2F906F0F6F929460A2205F01DFA89
:103B2000256006F0C3FC21465020FCF74AFF04E064
:103B300006F0E8F9104905F0A2F904A804F096FF90
:103B400004E006F0DFF90D4905F099F9684604F044
:103B50008DFF09B030BD00BF8C000020C9FB0808F4
:103B6000DEFB0808A6F30808ACF3080817FC0808F1
:103B7000E415090830FC080850F50808D1F40808D5
:103B800008B506F0BFF9A24905F079F906F0BAF9CF
:103B9000A04905F074F906F0B5F99F4905F06FF9F1
:103BA00006F0B0F99D4905F06AF906F0ABF99C49B9
:103BB00005F065F906F0A6F99A4905F060F906F0F6
:103BC000A1F9994905F05BF906F09CF9974905F0D0
:103BD00056F906F097F9964905F051F906F092F971
:103BE000944905F04CF906F08DF9934905F047F931
:103BF00006F088F9914905F042F906F083F99049F9
:103C000005F03DF906F07EF98E4905F038F906F029
:103C100079F98D4905F033F906F074F98B4905F00F
:103C20002EF906F06FF98A4905F029F906F06AF9CC
:103C3000884905F024F906F065F9874905F01FF970
:103C400006F060F9854905F01AF906F05BF9844938
:103C500005F015F906F056F9824905F010F906F05D
:103C600051F9814905F00BF906F04CF97F4905F04F
:103C700006F906F047F97E4905F001F906F042F928
:103C80007C4905F0FCF806F03DF97B4905F0F7F8B2
:103C900006F038F9794905F0F2F806F033F9784979
:103CA00005F0EDF806F02EF9764905F0E8F806F093
:103CB00029F9754905F0E3F806F024F9734905F090
:103CC000DEF806F01FF9724905F0D9F806F01AF986
:103CD000704905F0D4F806F015F96F4905F0CFF8F2
:103CE00006F010F96D4905F0CAF806F00BF96C49B9
:103CF00005F0C5F806F006F96A4905F0C0F806F0C7
:103D000001F9694905F0BBF806F0FCF8674905F0D0
:103D1000B6F806F0F7F8664905F0B1F806F0F2F8E3
:103D2000644905F0ACF806F0EDF8634905F0A7F832
:103D300006F0E8F8614905F0A2F806F0E3F86049FA
:103D400005F09DF806F0DEF85E4905F098F806F0FB
:103D5000D9F85D4905F093F806F0D4F85B4905F011
:103D60008EF806F0CFF85A4905F089F806F0CAF83F
:103D7000584905F084F806F0C5F8574905F07FF872
:103D800006F0C0F8554905F07AF806F0BBF854493A
:103D900005F075F806F0B6F8524905F070F806F02F
:103DA000B1F8514905F06BF806F0ACF84F4905F051
:103DB00066F806F0A7F84E4905F061F806F0A2F89B
:103DC0004C4905F05CF806F09DF84B4905F057F8B2
:103DD00006F098F8494905F052F806F093F848497A
:103DE00005F04DF806F08EF8464905F048F806F063
:103DF00089F8454905F043F806F084F8434905F091
:103E00003EF806F07FF8BDE80840414905F037B8B4
:103E100043FC080859FC08086EFC080882FC0808E6
:103E200096FC0808A9FC0808BEFC0808D2FC080893
:103E3000E9FC0808FFFC080815FD08082AFD080829
:103E400047FD080863FD08087DFD080896FD080881
:103E5000B0FD0808C9FD0808E5FD080802FE0808CD
:103E60001BFE080837FE08084FFE080868FE080811
:103E700081FE080895FE0808AAFE0808C5FE080885
:103E8000E0FE0808F6FE080807FF080819FF080802
:103E90002AFF08083CFF080865FF08088EFF08088D
:103EA000BDFF0808E3FF08080800090830000908FA
:103EB00070000908B3000908DD000908200109089D
:103EC000660109089A010908B8010908DC01090816
:103ED000F701090821020908560209087A020908AF
:103EE0008E020908AA020908CF020908F30209088C
:103EF00018030908400309086C030908AF030908FF
:103F0000E1030908070409086D040908D104090838
:103F1000E604090838B5046805467CB16368013BCE
:103F200063605BB9236820469B689847A368013BA0
:103F3000A3601BB923682046DB689847284638BD34
:103F400030B58BB02949054602A804F0D6FD04F02F
:103F500025FA274C274B08B11A682ABB1B6843B9BE
:103F60002368E3B105F0CEFF234904F088FF22491E
:103F70000CE0224A138823F002031380236873B1F4
:103F800005F0C0FF1E4904F07AFF1D4906A804F0A1
:103F9000B4FD06A8FDF7C4FB06A804F067FD02A85F
:103FA00004F064FD0BB030BD144A1649138806A80E
:103FB00043F002031380144B2A681B788DF80030FD
:103FC0003C2305F05DFD07A8FFF7A4FF03F0DAFF2F
:103FD0000E4B186004F0D2F92368002BDFD005F0F7
:103FE00091FF0B4904F04BFF0949CFE7E90E09089F
:103FF000CC0A00201402002010050908440B002000
:104000002605090844050908E0060020BC10002028
:10401000FA0409082DE9F041DCB005F036FAB34B9B
:10402000B3491A68B34B054603A81A6004F065FD4E
:10403000AF4907A804F061FDAD490BA804F05DFD90
:10404000AB490FA804F059FDA94913A804F055FD88
:104050005E2103A804F042FE0A2201211BA804F0FD
:10406000C0FD1BA91FA804F087FDA3491FA804F0E9
:104070004EFE014603A804F01EFE1FA804F0F6FC45
:104080001BA804F0F3FC9D4C5A2117A804F098FDDE
:1040900017A91FA804F070FD0A2221681BA804F0CC
:1040A000A0FD1BA91FA804F026FE014603A804F0EA
:1040B00002FE1BA804F0DAFC1FA804F0D7FC17A826
:1040C00004F0D4FC0A2221681BA804F08AFD1BA975
:1040D0001FA804F051FD8A491FA804F018FE0146EC
:1040E00007A804F0E8FD1FA804F0C0FC1BA804F01A
:1040F000BDFC844C4D2117A804F062FD17A91FA830
:1041000004F03AFD032221681BA804F090FD1BA9CE
:104110001FA804F0F0FD014603A804F0CCFD1BA885
:1041200004F0A4FC1FA804F0A1FC17A804F09EFC56
:10413000032221681BA804F07AFD1BA91FA804F024
:104140001BFD6F491FA804F0E2FD014607A804F01B
:10415000B2FD1FA804F08AFC1BA804F087FC6A4B80
:10416000032219681BA804F062FD1BA91FA804F014
:1041700003FD63491FA804F0CAFD014607A804F027
:104180009AFD1FA804F072FC1BA804F06FFC6121CB
:104190001FA804F015FD1FA903A804F08CFD1FA89B
:1041A00004F064FC594801F0AFFE0022002306F041
:1041B0005BFF002831D1554801F0C1FE38B95449A0
:1041C00007A804F07CFD524903A804F078FD4F488D
:1041D00001F09AFE062402460B4600941BA804F048
:1041E0003DFD1BA91FA804F0C7FC45491FA804F00A
:1041F0008EFD014607A804F05EFD1FA804F036FC02
:104200001BA804F033FC414801F07EFE00940246F6
:104210000B461FA804F022FD19E03E491BA804F03C
:104220006CFC1BA91FA804F0A7FC35491FA804F0CB
:104230006EFD014607A804F03EFD1FA804F016FC21
:104240001BA804F013FC33491FA804F056FC1FA957
:1042500003A804F030FD1FA804F008FC6F211FA87C
:1042600004F0AEFC1FA903A804F025FD1FA804F06C
:10427000FDFB264801F04DFE0022002306F0F4FE6F
:10428000002849D1214801F05DFE012807D12049CD
:1042900007A804F014FD1E4903A804F010FD1B48F4
:1042A00001F037FE062402460B4600941BA804F0DA
:1042B000D5FC1BA91FA804F05FFC11491FA804F03E
:1042C00026FD014607A804F0F6FC1FA804F0CEFB6B
:1042D0001BA804F0CBFB0D4801F01BFE0094024626
:1042E0000B461FA804F0BAFC30E000BFD400002049
:1042F000E4150908D00B00204A05090888000020B1
:10430000B611090870070020A00A00203809002013
:10431000E7F20808A8000020B0491BA804F0EDFB54
:104320001BA91FA804F028FCAD491FA804F0EFFC4E
:10433000014607A804F0BFFC1FA804F097FB1BA8C8
:1043400004F094FBA5491FA804F0D7FB1FA903A8FC
:1043500004F0B1FC1FA804F089FB63211FA804F03E
:104360002FFC1FA903A804F0A6FC1FA804F07EFBE5
:104370009C4801F0CEFD0022002306F075FE0028C7
:1043800031D1984801F0CAFD06F0A0FB0022964BFF
:1043900006F02CFD062402460B4600941BA804F0F0
:1043A0005DFC1BA91FA804F0E7FB8D491FA804F0C2
:1043B000AEFC014607A804F07EFC1FA804F056FBE3
:1043C0001BA804F053FB874801F0A8FD06F07EFB14
:1043D0000022854B06F00AFD009402460B461FA8FA
:1043E00004F03CFC19E081491BA804F086FB1BA9E2
:1043F0001FA804F0C1FB7A491FA804F088FC0146FD
:1044000007A804F058FC1FA804F030FB1BA804F018
:104410002DFB76491FA804F070FB1FA903A8744E5A
:1044200004F049FC1FA804F021FB0A2231881BA8D4
:1044300004F0D7FB1BA91FA804F09EFB68491FA826
:1044400004F065FC014607A804F035FC1FA804F041
:104450000DFB1BA804F00AFB664B2A4666491FA801
:1044600004F0C0FF1FA907A804F025FC1FA804F052
:10447000FDFA592117A804F0A3FB17A91FA804F0FF
:104480007BFB05F002F80A2201461BA804F0BCFBE6
:104490001BA91FA804F02FFC014603A804F00BFC85
:1044A0001BA804F0E3FA1FA804F0E0FA534C17A885
:1044B00004F0DCFA262103A804F010FC23684BB1B9
:1044C00005F020FD4E4904F0DAFC05F01BFD0399D0
:1044D00004F0D5FC03A91BA804F04EFB49491FA812
:1044E00004F00BFB1FA91BA8FFF72AFD1FA804F06F
:1044F000BDFA1BA804F0BAFA434B1B68ABB12368A2
:1045000073B105F0FFFC414904F0B9FC40491FA814
:1045100004F0F3FA1FA8FDF703F91FA804F0A6FAA8
:1045200005F014FE039904F0AAFC05F0EBFC0799D2
:1045300004F0A5FC374902230C22A1F58E60FCF79C
:104540000BFB002836D0236823B105F0DBFC324991
:1045500004F095FC314A3249324C4623126809680E
:10456000314802F0EEFD2368EBB93049304804F0E1
:1045700086FC04F08AFF01461FA804F0B3FE1F99D1
:104580002B4804F07CFC1FA804F070FA29491FA8EE
:1045900004F0B3FA1F99264804F071FC1FA804F038
:1045A00065FA012323600799214804F068FC1E483E
:1045B00002F0C0FD204F0DF17D040025012304F819
:1045C000013C3B682370C3F3072363701B4B1B68DC
:1045D000A370BDBB4D23E370194B7BE0B4000020FA
:1045E000B61109083809002000002440800000208E
:1045F000440B0020E9F20808CC0B0020CC0A002074
:104600004C05090864050908280200206F050908FF
:10461000990509089C060020C0050908AC0A00207D
:10462000940B0020500B0020B8060020D4EF08089F
:10463000B0060020D50509088800002020020020CF
:1046400070070020012D03D14323E370544B41E058
:10465000022D05D17823E370524804F0D7FF3AE0E9
:10466000032D03D17223E3704F4B0AE0042D03D1D5
:104670005223E3704D4B2DE0052D06D17123E370DD
:104680004B4B186806F08AFE25E0062D04D17423F2
:10469000E370FCF72DFE1EE0072D07D15023E370D9
:1046A000444B4549586806F081FF14E0082D04D1B9
:1046B0006823E370FCF79AFE0DE0092D07D1732300
:1046C000E3703E4BD3E9000106F05EFD03E0672393
:1046D000E3703B4B1868C0F3072320716371C0F38C
:1046E0000743C0F30760A371E071364801F01BFC7B
:1046F0002072C0F307206072324801F017FCA072EC
:10470000C0F30720E0722F4801F013FC2073C0F3C0
:10471000072060732B4801F00FFCA073C0F3072043
:10472000E073284801F00BFC8046264801F00AFCA3
:1047300048EA00002074234801F0F0FB737801354B
:10474000A37433780B2DE3744FF023036074237547
:1047500004F116047FF432AF05F0F8FC1A4904F0B6
:104760007BFB05F0F3FC0368F222DB681FA9984786
:1047700005F0ECFC154904F06FFB13A804F076F982
:104780000FA804F073F90BA804F070F907A804F05F
:104790006DF903A804F06AF95CB0BDE8F08100BFD0
:1047A00018020020800800209008002070090020D6
:1047B000F40A0020E80600200000C842E80A0020B1
:1047C000E00A00203809002057060908FDF2080811
:1047D000F0B58FB0544902A804F08FF9534C5449F6
:1047E00006A804F08AF905F0B1FC40F6B83104F0EF
:1047F000CAFC236873B105F085FB4E4904F03FFB0A
:104800004C490AA804F079F90AA8FCF789FF0AA81C
:1048100004F02CF905F09AFC029904F01DFB002627
:104820000027002505F092FC03681B699847E0B952
:10483000DDB90022404B3046394605F0FBFF38A376
:10484000D3E9002306460F4606F036FC0028E9D0DF
:1048500023680BB90125E5E705F054FBCDE90067B6
:10486000364A294604F040FCF4E70A2004F05AFED8
:1048700005F06CFC01460AA804F088FC0AA906A809
:1048800004F085F90AA804F0F1F823689BB105F05B
:1048900039FB2B4904F0E0FA05F034FB069904F0EB
:1048A000EEFA28490AA804F028F90AA8FCF738FF0C
:1048B0000AA804F0DBF803F071FD30B3224B1B684B
:1048C0001BB3224B069A1B7821498DF800300AA8A9
:1048D0003C2305F0D5F80BA8FFF71CFB03F052FBB7
:1048E0001C4B186003F04AFD236873B105F00AFB06
:1048F000194904F0C4FA18490AA804F0FEF80AA8F5
:10490000FCF70EFF0AA804F0B1F806A804F0AEF810
:1049100002A804F0ABF80FB0F0BD00BFAFF3008009
:1049200000000000004CCD4059060908CC0A0020C8
:10493000E90E09085C0609080000F03F790609083D
:10494000B4060908CD06090814020020E00600207C
:10495000FB060908BC100020E406090813460A46B5
:10496000002104F0C1BB000038B51D4803F0F0FD84
:10497000054605F0C7FA2A461A49FFF7EFFF642DEE
:1049800016D0962D16D0B5F5FA7F16D0B5F5617F05
:1049900016D0B5F5966F40F2DC5416D0A54212D071
:1049A00040F6B832B5F5FA6F14BF2C4614460CE049
:1049B00096240AE04FF4FA7407E04FF4617404E0BF
:1049C0004FF4966401E04FF4FA64A1B2044803F096
:1049D000F7FD05F097FA22460349FFF7BFFF38BD00
:1049E000A40A0020C4070908E2070908F0B5334803
:1049F00085B003F0B9FD054610F0800F0CBF002410
:104A00004FF40064470648BF04F58064860648BF3B
:104A100004F50074E80648BF04F58074290748BF10
:104A200080346A0748BF403405F06CFA22462449B6
:104A3000FFF794FF281DC0B2030658BF002100F005
:104A4000400346BF01214FF400640C4603F0FF020F
:104A500013B104F58064012200F0200505F0FF0386
:104A600015B104F50074012300F0100606F0FF05EF
:104A700016B104F58074012500F0080707F0FF0661
:104A80000FB18034012600F0040000F0FF0710B1E0
:104A90004034012000E0384602908DE8600007486D
:104AA00003F0F1FD054803F05FFD05F02BFA224607
:104AB0000449FFF753FF05B0F0BD00BFA40A002072
:104AC00000080908290809082DE9F04FA64D8FB004
:104AD000A64906A804F011F82B6823B105F012FAD4
:104AE000A34904F0CCF9DFF8E0920021B9F8000006
:104AF00005F07DFC05F006FD0122492105F0B0FB23
:104B0000CDF8149048B92B68002B3ED005F0FAF987
:104B1000984904F0B4F997492EE00321964801F032
:104B200028F9044606F03AFC944B196806F08AFC12
:104B3000934906F03BFD05F0DBFF0022914BCDE9E8
:104B4000020105F075FE06F0D7FA0028B8BF404212
:104B500005F0BCFF00228C4B06F0AEFAA8B12B6822
:104B60009BB105F0CFF9DDE902230021CDE9002357
:104B7000864A04F0B9FA86490AA803F0BEFF0AA8DB
:104B8000FCF7CEFD0AA803F071FF0021814800F078
:104B90009AFF80B92B6873B105F0B4F97E4904F02F
:104BA0006EF97E490AA803F0A8FF0AA8FCF7B8FD31
:104BB0000AA803F05BFF05F0A5FC0122492105F0DE
:104BC0004FFB002800F0B9800021724800F07BFF05
:104BD000002800F0B2800024A246274626464FF067
:104BE0000A080021644801F0C4F801210644624823
:104BF00001F0BFF8022107445F4801F0BAF8032131
:104C000082445D4801F0B5F8B8F101080444E8D1E8
:104C10000A2394FBF3F496FBF3F697FBF3F79AFB66
:104C2000F3FA564B2046D3F8008006F0B7FB414616
:104C300006F008FC8146304606F0B0FB414606F01F
:104C400001FC0146484606F0F3FA554906F0AEFC71
:104C50008346384606F0A2FB414606F0F3FB0146C8
:104C6000484606F0E5FA4F4906F0A0FC8046FCF7FE
:104C70003FFB4D4906F08EFD20B14146584606F0F7
:104C8000D7FA1FE0FCF734FB484906F083FD20B15A
:104C90004146584606F0CEFA14E0404605F028FF9B
:104CA0002DA3D3E9002305F077FF804658468946B7
:104CB00005F01EFF02460B464046494605F0BAFD88
:104CC00006F062FA05F014FF25A3D3E9002306F0ED
:104CD0008DF806F059FA0222014680460AA803F030
:104CE000A6FF0AA906A803F052FF0AA803F0BEFE19
:104CF000059B0121188805F07AFB2B6813B305F09A
:104D000001F92B4904F0A8F805F0FCF832462949CE
:104D1000FFF724FE05F0F6F83A462749FFF71EFE96
:104D200005F0F0F852462549FFF718FE05F0EAF8BD
:104D300022462349FFF712FE04E0224906A803F0A9
:104D40002EFFD5E706A803F091FE40460FB0BDE860
:104D5000F08F00BFAFF3008052B81E85EB51E83FE3
:104D6000B6F3FDD478E9D63FCC0A0020E415090853
:104D7000470809085B080908940A0020A0000020E1
:104D800000007A440000F43F0000E03F800809087A
:104D900092080908E0010020AB080908CF080908BB
:104DA0000000F0C2000016C3000070410000C841BE
:104DB000E2080908F708090804090908110909089F
:104DC0001F090908B6EF08089800002073B50D4DBB
:104DD00005F098F803681B699847044680B9FFF707
:104DE00073FE286005F08EF80646286805F080FE00
:104DF000054ACDE900012146304604F075F9E7E7A0
:104E000002B070BD700700202F090908F0B5AC4C46
:104E10003023AC4E8DB023702378782B00F00784BC
:104E200005F070F8A84904F017F805F06BF803686E
:104E3000DB69984705F066F803681B699847002806
:104E4000F8D005F05FF803685B699847C0B2612845
:104E5000207002D1FDF7B0FEDEE7622802D1FDF737
:104E600029FFD9E7632802D1FDF782FFD4E7642840
:104E700002D1FEF703F8CFE7652802D1FEF75EF80E
:104E8000CAE7662802D1FEF7D5F8C5E7672802D140
:104E9000FEF72EF9C0E7682802D1FEF7A5F9BBE7B7
:104EA000692802D1FEF7FEF9B6E76A2802D1FEF7BB
:104EB00075FAB1E76B2802D1FEF7CEFAACE76C28A1
:104EC00002D1FEF745FBA7E76D2802D1FEF79CFB58
:104ED000A2E76E2802D1FEF713FC9DE76F2802D1EE
:104EE000FEF76CFC98E7702802D1FEF7E5FC93E72B
:104EF000712807D105F006F8744903F0C0FF744D1E
:104F0000012308E072280ED104F0FCFF704D7149B6
:104F100003F0B5FF00232B6005F0C8FA29464820AE
:104F2000FBF74FFD78E773280BD104F0EBFF054644
:104F3000694908A803F0E1FD0899284603F09FFF9E
:104F400064E3742802D1FDF739FD65E7752802D1C5
:104F5000FDF782FD60E7762802D1FDF773FC5BE781
:104F6000772802D1FDF754FB56E779280DD15B4D28
:104F70002B681BB904F0C6FF594902E004F0C2FFD8
:104F8000584903F07CFF012314E07A2818D1534DCF
:104F90002B68012B08D104F0B5FF534903F06FFFD4
:104FA0005248FBF740FD04E004F0ACFF504903F029
:104FB00066FF00232B6005F079FA48494420AFE7EB
:104FC00046280FD14B4B1A68012A01D100220FE06D
:104FD00004F098FF484903F052FF05F067FA45498D
:104FE00060209DE7432809D1424B1A6812B901227B
:104FF0001A60F2E704F086FF4049ECE7442813D139
:105000003F4B1A68012A05D100221A6004F07AFF8A
:105010003C4902E004F076FF3B4903F030FF05F025
:1050200045FA374968207BE745280DD1344B1A688B
:10503000012A03D104F066FF3449EEE701221A6029
:1050400004F060FF3249E8E7472813D1314B1A6872
:10505000012A03D104F056FF2F4904E001221A600F
:1050600004F050FF2D4903F00AFF05F01FFA29490B
:105070006C2055E748280CD1264B1A681AB904F061
:1050800041FF2749EFE700221A6004F03BFF254962
:10509000E9E7492802D1FDF72BFDBDE64A2805D1F5
:1050A000FCF798FE04F02EFF1F494FE04B283FD13C
:1050B00004F028FF1D4903F0E2FEFCF7A1F8ABE67F
:1050C0006C070020E80600203F0909084509090887
:1050D000CC0A00205F090908D50509081402002040
:1050E0007A0909088D090908A7090908340F002061
:1050F000BA090908A8060020D5090908000A090804
:10510000640700202A0A09084B0A09086F0A0908DF
:10511000920A09083C0B0020B00A0908D80A0908BD
:10512000FC0A0908250B09089DF208084A0B090822
:105130004C2802D1FDF70AFC6EE64D2810D1AF4D88
:105140002B68012B05D104F0DDFEAD4903F097FE7D
:1051500062E604F0D7FEAB4903F091FE01230EE0B6
:105160004E2812D1A54D2B681BB904F0CBFEA649E1
:10517000ECE704F0C7FEA54903F081FE00232B6095
:1051800005F094F929467820CAE64F2807D104F0A3
:10519000B9FE9F4903F073FEFCF798F83CE65028EF
:1051A00006D104F0AFFE9B4903F069FE6B2107E0D6
:1051B000512809D104F0A6FE974903F060FE4B2167
:1051C0000720FBF7F3FC27E6522817D1934D2B68F5
:1051D00083B104F097FE924903F051FE00232B6047
:1051E00005F064F929467C20FBF7EBFB8D4800F0C5
:1051F000D8FE11E604F086FE8B49A7E7532817D1A5
:10520000864D2B6883B904F07DFE884903F037FE94
:1052100001232B6005F04AF929467C20FBF7D1FBDE
:10522000804800F0E3FEF7E504F06CFE80498DE76E
:10523000542815D17F4D2B6833B904F063FE7E49A5
:1052400003F01DFE012305E004F05CFE7B4903F042
:1052500016FE00232B6005F029F9294680205FE621
:10526000552815D1764D2B6833B904F04BFE75499E
:1052700003F005FE012305E004F044FE724903F04B
:10528000FEFD00232B6005F011F92946842047E636
:10529000562808D104F036FE6C4903F0F0FD614851
:1052A00000F05AFEB8E5312802D1FEF761FBB3E504
:1052B000322802D1FEF7E0FBAEE5332816D104F028
:1052C00021FE634903F0C8FD04F01CFE0A224621BA
:1052D00003F043FE04F016FE5E4903F0BDFD04F04A
:1052E00011FE0A220D2103F038FE95E534280DD178
:1052F000594D2B681BB904F005FE584902E004F033
:1053000001FE574903F0BBFD01230FE0352813D1FF
:10531000514D2B68012B03D104F0F4FD514902E0FB
:1053200004F0F0FD504903F0AAFD00232B6005F0C6
:10533000BDF849495820F3E536280DD14B4D2B686F
:105340001BB904F0DFFD4A4902E004F0DBFD4949E6
:1053500003F095FD01230FE0372813D1434D2B684F
:10536000012B03D104F0CEFD434902E004F0CAFD55
:10537000424903F084FD00232B6005F097F83B4978
:105380005C20CDE538281ED104F0BCFD3C4903F07B
:1053900063FD3C4803F0EEF8054604F0B3FD0A2235
:1053A000294603F0ACFD04F0ADFD374903F054FD90
:1053B000344803F0DCF8054604F0A4FD0A2229462F
:1053C00003F09DFD28E5392802D1FFF70FFB23E507
:1053D000302802D1FFF7C8FA1EE5412802D1FFF7B5
:1053E000F5FC19E5422861D1284B1A68012A51D1F0
:1053F00000221A6004F086FD254950E0480B002089
:10540000660B0908880B0908AC0B0908CF0B0908C3
:10541000F40B09080F0C0908220C09088808002061
:105420003D0C09084C0B0020600C09087B0C090896
:105430009D0C0908E8010020B70C0908D20C0908E6
:10544000E4060020EE0C09080D0D09082C0D0908D2
:10545000440D0908B5F208088C0A0020520D09080D
:10546000610D0908770D0908870D0908540B002004
:105470009E0D0908AD0D0908C30D0908D30D0908D3
:10548000EA0D0908A40A0020F20D0908AC07002063
:10549000020E090801221A6004F034FD674903F086
:1054A000EEFC05F003F86649642039E5212835D182
:1054B00004F028FD634903F0E2FC04F023FD0368D7
:1054C0001B699847054600287FF4A6AC5E4802F0A9
:1054D0000DF918B904F016FD5C49ABE004F012FDBB
:1054E0000746B06805F004FBCDE90601706805F0D9
:1054F000FFFACDE90401306805F0FAFACDE90201BE
:105500005349F06806F052F805F0F2FA514ACDE935
:1055100000012946384603F0E7FDCEE7402812D1C6
:105520004D4D2B68012B0BD104F0ECFC4B4903F0E3
:10553000A6FC00232B6004F0B9FF29468C20EFE481
:10554000FDF73EF968E4232815D1454D2B68012B62
:1055500005D100232B6004F0D5FC424904E001236F
:105560002B6004F0CFFC404903F089FC04F09EFF5F
:1055700029469020D4E4572816D13C4D2B68012BA6
:1055800006D104F0BFFC3A4903F079FC002305E0A2
:1055900004F0B8FC374903F072FC01232B6004F0DF
:1055A00085FF29468820BBE4582807D101213248CD
:1055B00000F042FD314BB4221A602DE45A2829D163
:1055C00004F0A0FC2E4903F05AFC2E4908A802F072
:1055D00063FB089A2C492D48FBF732FA08A803F020
:1055E00045FA284908A802F073FB089A2849274879
:1055F000FBF726FA08A803F039FA224908A802F0B6
:1056000083FB089A23492148FBF71AFA08A803F0FC
:105610002DFA01E42A2803D1FCF7D6FEFFF7FCBBE4
:105620003F287FF4F9ABFEF7ABFAFFF7F5BB04F0C8
:1056300069FC194903F023FC0DB0F0BD160E0908F2
:10564000AC070020290E0908E8060020640E0908AE
:105650000000C8427A0E090898080020AB0E09081D
:1056600010020020CD0E0908EB0E0908400B0020A7
:10567000330F0908570F09084C0B0020AC06002017
:105680007A0F09089C0B0020B10F0908A40B002019
:10569000B90F0908C10F0908CA0F09081FB5724CD4
:1056A00004F030FC714903F0EAFBD4E90001002268
:1056B0006F4B05F0BFF8C4E90001FFF705FA6D4B29
:1056C0001860FBF7DDFE6C4B1860FCF779F8FCF70F
:1056D000B3F903F0DAFE694B1860694B1A68694B3D
:1056E0001A60FFF775F8FCF76FFEFEF793FC04F005
:1056F00009FC03681B69984700281DDD04F002FCC3
:105700000368614C5B699847604B20701B684BB124
:1057100004F0F8FB5E4903F09FFB04F0F3FB2178F3
:1057200003F0B7FB04F0EEFB217803F0B2FB237823
:105730006D2B01D1FFF76AFB564B1B686BB1564AC4
:10574000138843F00103138002F028FE002838D1AB
:10575000524B1A78002A34D143E002F01FFEA0B168
:105760004A4B1B6873B104F0CDFB4D4903F087FB36
:105770004B49684603F0C1F96846FBF7D1FF68461C
:1057800003F074F94748FBF74EF9474C204600F008
:1057900049FA464B1B68012B64D1454803F036FF9C
:1057A000444905F0EDFF00285CD094F82130002B2F
:1057B00058D104F0A7FB404903F061FBFCF7AEFAB7
:1057C00050E002F0EBFD0028DFD0304B1B6823B126
:1057D00004F098FB394903F052FB304B00221A7059
:1057E000D3E72A4C01221A70236873B104F08AFBB4
:1057F000334903F044FB3249684603F07EF96846BA
:10580000FBF78EFF684603F031F9264800231A465D
:105810001946406802F072FD236873B104F072FB10
:10582000284903F02CFB2849684603F066F96846CE
:10583000FBF776FF684603F019F902F0A7FD23682D
:10584000002BA2D004F05EFB204903F018FB1F4997
:10585000684603F052F96846FBF762FF684603F0BA
:1058600005F992E704B010BDD80A0020E10F09083D
:105870000000F03F70070020A00A0020C00A0020AE
:10588000D4000020D00B00206C070020CC0A0020A0
:10589000ED0F090814020020440B0020D00A00205C
:1058A0007D100908340F002074070020480B0020E9
:1058B000800800200000A041A11009085510090827
:1058C000FD0F09081C1009082D1009083E100908D1
:1058D000F8B55A4B5A4C5B4D01261E7002F0BAFACD
:1058E000204602F095F82A465749204604F04AFE21
:1058F0004FF6FF72554B00241C705C809A80032089
:1059000002F088FC2146304602F094FC4FF0FF3153
:105910004F4801F0D5FE4F4800F01DFB4E4800F007
:10592000D1F84E4800F0CEF84D4E49214D4800F0D8
:1059300010FA4A214C4800F00CFA2146304603F098
:1059400025FE3046494E2A46494904F01BFE2146B1
:10595000304602F0B2FD3046464E2A46464904F033
:1059600011FE304600F03EF92A464449304604F024
:1059700009FE2721424801F03DFF424B192283F8DE
:105980006A24414A41481A60414E424A424FDC7102
:1059900083F8404483F8414483F8684483F86D44B5
:1059A000C3F8702483F874442A4631460472447262
:1059B0004460076004F0E6FD38482A463146047228
:1059C00044724460076004F0DDFD35484FF47A739B
:1059D000344E354F8360354B2A460474447444601A
:1059E00033490360334C04F0CDFD3146384603F0B3
:1059F00084F83846304F2A46214604F0C3FD31462C
:105A0000384603F07AF838462C4F2A46214604F0EF
:105A1000B9FD3146384603F070F83846284F2A461B
:105A2000214604F0AFFD3146384603F066F82A46B9
:105A300021463846BDE8F84004F0A4BDE006002049
:105A4000F80A0020C8010020C9790808C40A00200B
:105A5000E80600204C0B0020E0010020E1010020BE
:105A600080080020940A00209A0A0020A40A00203E
:105A7000AB95080874070020D9840808B95B0808AA
:105A80009C0800202C02002018EE0808B006002018
:105A9000330908084811090800EE0808580B0020CF
:105AA00038080020E4150908AC0A0020D8ED0808E1
:105AB000350908086D8A08089807002000020020B0
:105AC000CC010020704710B50C4604F01BFD4821A6
:105AD00004F0D4FB04F016FD036821469B68984748
