:020000040808EA
:1000000000000808FC220908000006000A0005019B
:0800100004027E05000000005F
:0400180054EF080891
:1000200009480A4908B5884205D0094A824202D0E7
:10003000121A0CF038F80748074A0021121A0CF07F
:100040003DF8064808BD00BF000000200C2109084B
:10005000C8010020C8010020BC0E0020BC0E0020FA
:1000600070B509F045FC074B074C1E46E41AA4087E
:100070000025A54204D056F8253098470135F8E709
:1000800070BD00BF74200908FC20090801F070BF92
:1000900008B505F0D5FBBDE8084009F0EBBB08F05A
:1000A0006FBA08F075BA0078B0FA80F0400970476E
:1000B00001230370704748B1836C3BB1C36C2BB113
:1000C000006DB0FA80F04009404270474FF0FF30B9
:1000D000704773B5024608460C46FFF7ECFF05462D
:1000E00050BB12F0800FCA7814BF002310239A422D
:1000F00022D0CB708E6C01230DF10702F3216078C2
:10010000B04784F8540010B16FF0010514E0E378B3
:10011000E66C03F010029DF80730732123F0100302
:1001200013438DF807300DF1070201236078B047C3
:1001300084F854000028E7D1284602B070BD40B1D1
:1001400003788B4208D90170137843F002031370CF
:1001500002E04FF0FF307047002070472DE9F84370
:1001600006461846884691461D46FFF7A4FF0446FA
:10017000A8B9AB783BB929463046FFF7AAFF044639
:1001800008B946F08006AF6C4B4642463146687867
:10019000B847002885F8540018BF6FF001042046C6
:1001A000BDE8F8832DE9F04F1E468BB083468A46A2
:1001B00014460021282268460BF080FF3046FFF7E6
:1001C0007AFF0546A8BB631E122B30D80DF101083B
:1001D0005F46C1460AF1FF3AA4B2CBEB07039BB2DC
:1001E0009C4213D9B37843B931463878FFF771FF91
:1001F0003B78054603F07F0300E03B7808F8013CBC
:100200001AF8013F013708F8023BE6E78DB96300B1
:10021000013BF46C9BB24A469DF800107078A047F1
:10022000002886F8540018BF6FF0010501E06FF058
:10023000030528460BB0BDE8F08F37B5742304469C
:100240008DF80730FFF737FFA0BB05462346012294
:100250000DF106017420FFF781FFA0B99DF806306B
:1002600013F0030511D023F003038DF806300122AB
:1002700023460DF106010DF10700FFF793FF236DF3
:100280000A209847E2E7002DE0D194F844308BB182
:100290009DF8062003F0030322F0030213438DF8B8
:1002A000063038B9234601220DF106010DF1070091
:1002B000FFF778FF03B030BD2DE9F041002388B08F
:1002C000064608460C468DF807300493ADF8143006
:1002D0000693ADF81C30FFF7EEFE002840F0648175
:1002E000320791F844706AD5012FADF80800ADF8D7
:1002F0000C0063D15A238DF80830B1F84030C72B79
:1003000005D9B3F5C87F28BF4FF4C87300E0C823F0
:10031000B4F91220142102F5163202F29912534355
:1003200093FBF1F30A2103F5481393FBF1F394F9DE
:10033000112094F9140002F544725A4394F90430E0
:1003400058434FF47A7390FBF3F31B0203EB620103
:1003500094F83430043391FBF3F294F9351083238D
:100360004B4303F5803392FBF3F32222FA3B5343D2
:100370006422323393FBF2F38DF80C30B4F8423040
:100380008DF80920B3F57C6F0BD200223F2BD1B240
:1003900002F1010201D99B08F8E703EB8113DBB2FC
:1003A00000E0FF238DF80D30002384F83C3002225A
:1003B000234603A902A8FFF7F5FE00E00120002371
:1003C00084F8443010B92046FFF737FF06F01005D7
:1003D000ADB205B304F14602072104F13B00FFF77B
:1003E000AEFE30B9234601220DF107017520FFF75B
:1003F000B5FE94F83B3001259B0003F01C029DF8EC
:10040000073023F01C03134375228DF807308DF855
:1004100010208DF81830B30622D504F146020821C9
:1004200004F13D00FFF78BFE30B9234601220DF1A8
:1004300007017020FFF792FE9DF80730702123F02E
:10044000080294F83D3003F00803134308AA2A4435
:1004500001358DF8073002F8101C02F8083CEDB2A7
:10046000B10733D004F14602052104F13900FFF74A
:1004700066FE30B9234601220DF107017420FFF713
:100480006DFEF20709D59DF8073094F8392003F086
:100490001F0343EA42138DF80730B3070BD594F8D6
:1004A0003A309B0003F01C029DF8073023F01C0338
:1004B00013438DF8073008AB2B44742203F8102C3B
:1004C0009DF80720013503F8082CEDB2710722D5FD
:1004D00004F14602052104F13800FFF730FE30B97F
:1004E000234601220DF107017220FFF737FE9DF828
:1004F0000730722123F0070294F8383003F0070325
:10050000134308AA2A4401358DF8073002F8101C5D
:1005100002F8083CEDB216F0C00F3CD004F14608DA
:100520004246012104F13E00FFF709FE68B9424648
:100530000A2104F13C00FFF702FE30B923460122F4
:100540000DF107017120FFF709FE72060BD594F833
:100550003E301B0103F010029DF8073023F010031A
:1005600013438DF8073033060AD59DF8073023F082
:100570000F0294F83C3003F00F0313438DF807305B
:1005800008AB2B44712203F8102C9DF8072001358D
:1005900003F8082CEDB228B923462A4606A904A878
:1005A000FFF700FE84F8447008B0BDE8F081000059
:1005B00013B5184B044618689B8802AAADF804309E
:1005C00091F839300090134491F83A2002A802447F
:1005D00012F8082C13F8083C134491F83820024410
:1005E00012F8082C134440F2AB72534303F59553B1
:1005F0004FF47A721933B3FBF2F301339BB22380C9
:1006000091F83E201AB1B1F842201344238002B081
:1006100010BD00BF68EF08082DE9F04F804689B093
:1006200008460C46FFF747FD0546002840F0678165
:1006300004AF01460F2238460BF040FD2046FFF77D
:100640003AFD05460A26002D40F0538123460F222D
:1006500039461D20FFF782FD05469DF810009DF8E4
:100660001EE000F00F0388F801309DF8113020F0F3
:100670007F0088F802309DF812309DF813900093A7
:100680009DF818309DF814C001939DF819309DF81D
:1006900015B002939DF81D309DF8161003934FFA84
:1006A0008EF303F0200A40EA0A0003F01003184317
:1006B00040B200289DF8172088F8000080F21681CB
:1006C000120942EA011141EA0B3BE18AB4F9180030
:1006D0004900C1EBDB010A46CB175B104FEA32023F
:1006E00002FB03F6A2FB02234FEA123A94F91A2006
:1006F00003EB46034AEA035A4FEA233B1301DF1791
:100700000AFB07F680FB010103FB0B66AAFB032330
:10071000C00A3344920B40EA415042EA83428318B4
:10072000236303EB830380331B12A8F80430236B8D
:1007300094F926005B10A3F57A439A105243D11224
:100740004843B4F9241052135943490001EBA00166
:10075000B4F91E004FEA1C1C434394F920004CEAF4
:10076000091940014243D21002EB63039B14A28B90
:1007700003F500435343009ADB1349EA0239B4F905
:100780002220C9F58019120402EBA10140F635427E
:10079000A9EB21315143B1FBF3F35B00D91049437D
:1007A000B4F92A20B4F9280049134A439910414367
:1007B0001E12491301EB223106FB06F2564394F850
:1007C0002C20724301EB624294F9271002EBC11214
:1007D00003EB2213C8F80830236B94F90E1003EBD7
:1007E000830380331B125943642291FBF2F194F985
:1007F0000D0059435843891190FBF2F091FBF2F13F
:100800006789014401F58041794301988F1202996B
:10081000268941EA002094F90C10A0EB06165943F2
:1008200091FBF2F1A6EB610000FB07F194F91000D7
:100830000EF00F06434393FBF2F240F23C50E37B91
:100840004FEA9E1E02EBC3128B135B4312119B12E5
:10085000534301EB63034FF47A729B1253432A4ACA
:100860001B1323EAE3739342D4BFC8F80C30C8F8D3
:100870000C2094F9363005220021C3FB0201234BE2
:1008800053F82670A0FB072307FB0133100C40EA46
:1008900003401914039B1E4F4EEA830E4FEACE32DB
:1008A00057F826E012F17F42AEFB00670EFB01779E
:1008B0004FF0000343F1FF3312184B41700A40EA36
:1008C000C75079125F104FEA3206801979410BF058
:1008D00075F8C8F8100095B998F90030002BBABF28
:1008E000012384F8453084F8455008E0236D0A2040
:1008F0009847013E16F0FF067FF4A5AE0225284674
:1009000009B0BDE8F08F00BFA08601000000002004
:10091000400000207047037C024603F0080303F008
:10092000FF002BB1D36A506A181A48BF6FF000401D
:1009300070477047704710B504462C2109F0F7FE48
:10094000204610BD10B50446342109F0F0FE2046C3
:1009500010BD083006F016BD103006F013BD07B507
:1009600002AB03F8011D01221946103006F00AFD02
:1009700003B05DF804FB103006F078BC103006F0D0
:10098000A4BB07B501220DF10701103006F0E9FA0A
:1009900001280CBF9DF807004FF0FF3003B05DF851
:1009A00004FB00F2644006F0A4B900F2644006F0D3
:1009B000D8B800F2644006F017B900F2644006F0BF
:1009C00088B810B50C46042207F0D6FB204610BDAF
:1009D00013B50023ADF8063008F0C2FA9828044693
:1009E0000AD809F033FE204602220DF1060107F075
:1009F000BBFBBDF8060001E04FF0FF3002B010BDB8
:100A000010B50C46042207F0AFFB204610BD07B519
:100A100002AB03F8011D01221946083006F0B2FCB2
:100A200003B05DF804FB00231A461946406807F03E
:100A30003FBD10B50446142109F079FE204610BDD3
:100A40000EB400B58CB00DAA52F8041B20238DE81B
:100A50000600039204930168002304AA1E20059354
:100A600007F09AFC0CB05DF804EB03B0704700008F
:100A700010B50C4C2368DB0711D42046FFF713FB9D
:100A800068B1094A0321094B094809F0F5FB2046E2
:100A9000FFF70EFB074A0849054809F043FE0448E2
:100AA00010BD00BF000A002074090020080A0020C1
:100AB0006C080020C80100201509080810B5FFF7D0
:100AC000D7FF074B044653B109F0F3FB38B1236855
:100AD00020461B699847002801DDAFF3008010BD58
:100AE0000000000010B50C4C2368DB0711D4204631
:100AF000FFF7D9FA68B1094A0421094B094809F0FE
:100B0000BBFB2046FFF7D4FA074A0849054809F01D
:100B100009FE044810BD00BFDC010020B40700201E
:100B2000A8080020EC010020C801002015090808D1
:100B300010B5FFF7D7FF074B044653B109F0B9FBD7
:100B400038B1236820461B699847002801DDAFF3C0
:100B5000008010BD0000000038B5044600F264407B
:100B600005F023FFE8B104F58865284606F0B4FBDC
:100B70000121204606F0EEFD014668B121462846D7
:100B800006F0D7F968B194F8403413F0700316BF3B
:100B9000054B18461D6038BD204606F0DBFD0028D9
:100BA000ECD1002038BD00BF940B002038B50C46B6
:100BB000054609F097FD6B2109F030FC09F092FD24
:100BC000036829469B68984709F08CFD0368214615
:100BD0009B68984709F086FDBDE83840012109F07F
:100BE00020BC000073B509F031FD40F2136302AC84
:100BF00044F8043D214600206426FFF7E2FE09F098
:100C000025FD214608200196FFF7DBFE09F01EFDB9
:100C1000214610200196FFF7D4FE09F017FD21466A
:100C200098200196FFF7CDFE09F010FD214618200F
:100C30000196FFF7C6FE09F009FD21462020019626
:100C4000FFF7BFFE09F002FD214628200196FFF7BD
:100C5000B8FE09F0FBFC214630200196FFF7B1FEFB
:100C600009F0F4FC214638200196FFF7AAFE09F0AE
:100C7000EDFC2146402000250196FFF7A2FE09F079
:100C8000E5FC214604200195FFF79BFE09F0DEFC00
:100C900021460C200195FFF794FE09F0D7FC214670
:100CA00094200195FFF78DFE09F0D0FC2146142019
:100CB0000195FFF786FE09F0C9FC21461C2001952D
:100CC000FFF77FFE09F0C2FC214624200195FFF7C3
:100CD00078FE09F0BBFC21462C200195FFF771FE40
:100CE00009F0B4FC214634200195FFF76AFE09F0B3
:100CF000ADFC21463C200195FFF763FE09F0A6FC00
:100D0000214644200195FFF75CFE09F09FFC214637
:100D100048200195FFF755FE09F098FC2146582020
:100D20000195FFF74EFE09F091FC41495C20FFF769
:100D300048FE09F08BFC4FF47A7321464C20019356
:100D4000FFF73FFE09F082FC42F21073214650206B
:100D50000193FFF736FE09F079FC21466FF0060398
:100D600054200193FFF72DFE324B18680AF0E6FB82
:100D700008F064FB09F06AFC214660200195FFF74A
:100D800020FE09F063FC2146304601950126FFF75D
:100D900018FE09F05BFC214668200196FFF711FE62
:100DA00009F054FC21466C200195FFF70AFE09F07A
:100DB0004DFC214670200195FFF703FE09F046FC2B
:100DC000214674200196FFF7FCFD09F03FFC214607
:100DD00078200196FFF7F5FD09F038FC21467C20CC
:100DE0000195FFF7EEFD09F031FC214680200196C8
:100DF000FFF7E7FD09F02AFC214684200195FFF763
:100E0000E0FD09F023FC214688200195FFF7D9FD7C
:100E100009F01CFC21468C200195FFF7D2FD09F05A
:100E200015FC214690200195FFF7CBFD02B070BD67
:100E3000540B0020840B00202DE9F347C24C09F02D
:100E400005FC21460020FFF7DBFD2368013304D1B8
:100E500040F213632360FFF7C5FE09F0F7FB01A919
:100E60000820FFF7CDFD01980AF068FBB7490AF0AA
:100E70006DFCDFF86493DFF86483C9F8000009F0C3
:100E8000E5FB01A91020FFF7BBFD01980AF056FB16
:100E9000AE490AF05BFCC8F8000009F0D7FB01A9D5
:100EA0009820FFF7ADFD01980AF048FBA7490AF02A
:100EB0004DFCA74FA74E386009F0C8FB01A91820C8
:100EC000FFF79EFD01980AF039FBA0490AF03EFCAD
:100ED000306009F0BBFB01A92020FFF791FD0198CC
:100EE0000AF02CFB99490AF031FC9B4D9B4C286081
:100EF00009F0ACFB01A92820FFF782FD01980AF058
:100F00001DFB92490AF022FC206009F09FFB01A919
:100F10003020FFF775FD01980AF010FB8B490AF0AD
:100F200015FC8F4BDFF8B8A2186009F08FFB01A900
:100F30003820FFF765FD01980AF000FB83490AF0AD
:100F400005FC884B186009F081FB01A94020FFF7E0
:100F500057FD01980AF0F2FA7C490AF0F7FB824B40
:100F6000186009F073FB81490420FFF749FD09F07F
:100F70006DFB7F490C20FFF743FD09F067FB7D49BE
:100F80009420FFF73DFD09F061FB7B491420FFF73A
:100F900037FD09F05BFB79491C20FFF731FD09F0B3
:100FA00055FB77492420FFF72BFD09F04FFB7549CE
:100FB0002C20FFF725FD09F049FB73493420FFF78A
:100FC0001FFD09F043FB71493C20FFF719FD09F0B3
:100FD0003DFB6F494420FFF713FD09F037FB6D49D6
:100FE0004820FFF70DFD09F031FB6B495820FFF752
:100FF00007FD09F02BFB69495C20FFF701FD09F0B3
:1010000025FB67494C20FFF7FBFC09F01FFB6549F6
:101010005020FFF7F5FC09F019FB01A95420FFF758
:10102000EFFC01980AF08AFA08F008FA09F00EFBC2
:101030005D496020FFF7E4FC09F008FB5B49642090
:10104000FFF7DEFC09F002FB59496820FFF7D8FCE6
:1010500009F0FCFA57496C20FFF7D2FC09F0F6FAC8
:1010600055497020FFF7CCFC09F0F0FA5349742081
:10107000FFF7C6FC09F0EAFA51497820FFF7C0FCF7
:1010800009F0E4FA4F497C20FFF7BAFC09F0DEFAD8
:101090004D498020FFF7B4FC09F0D8FA4B49842071
:1010A000FFF7AEFC09F0D2FA49498820FFF7A8FC07
:1010B00009F0CCFA51468C20FFF7A2FC09F0C6FAE1
:1010C00044499020FFF79CFCDAF8003013B100206F
:1010D00008F0B4F941F28731384AD9F800001368B2
:1010E000013B8B4284BF0123136000210AF00EFCF8
:1010F00018B1394B4FF07E521A600021D8F8000029
:101100000AF004FC18B1354B4FF07E521A600021F2
:1011100038680AF0FBFB18B10D4B4FF07E521A6095
:10112000002130680AF0F2FB18B10A4B4FF07E52F2
:101130001A60002128680AF0E9FB002852D0064B0B
:101140004FF07E521A604DE0880000200000C84237
:10115000300900201C020020A8070020F00A00200F
:10116000B0070020E4010020DC060020240200205B
:10117000F8090020FC0900208C08002068070020E6
:10118000D40A0020A80A0020040A002060070020DA
:1011900014020020CC0A00208C0A0020540B0020EE
:1011A000900000208C000020A8060020AC07002042
:1011B000640700203C0B0020A4060020BC0A00208D
:1011C000480B002088080020E8010020E4060020E9
:1011D000400B002010020020900A00202C09002063
:1011E00098080020002120680AF090FB18B1034BFA
:1011F0004FF07E521A6002B0BDE8F087F00A00207E
:1012000010B508F043FF03681B69984790B9FFF7D2
:1012100069FC03681B6998470028F2DDFFF762FC50
:1012200003685B699847044608F030FFE1B207F0B5
:10123000E9FEE6E710BD0000F7B506460D460024BE
:101240004F1EAC4212D0325D0B4901A807F0B0F935
:1012500008F01CFF01A907F0D1FEA74204D008F056
:1012600015FF202107F0CEFE0134EAE708F00EFF5B
:1012700007F0CBFE03B0F0BD3BF00808F8B504461C
:101280000F464E1E451E0644B54207D0FFF72AFC06
:10129000036815F8011F9B689847F5E73946204613
:1012A000BDE8F840FFF7C8BF1FB5074A01AB52F8C9
:1012B0000E0F5168128903C30A2101A81A80FFF793
:1012C000DDFF05B05DF804FBC8EF08081FB5074A4D
:1012D00001AB52F8180F5168128903C30A2101A803
:1012E0001A80FFF7CBFF05B05DF804FBC8EF0808D4
:1012F00038B5314B314D1B68B3B1314B58890AF0C9
:1013000019F930490AF022FA2F490AF06BF92F49EE
:101310000AF05EF82B680446002B35D008F0B6FEC4
:101320002B4907F07EFE2FE02A4B1B681BB32B686E
:1013300023B108F0ABFE284907F073FE0B2009F03B
:101340003FF90AF0FBF809F0A3FC17A3D3E9002347
:1013500009F0F2FC09F0E8FF4FF07C510AF038F890
:1013600009F096FC12A3D3E9002309F00FFE09F05F
:10137000DBFF044608E02B6823B108F087FE17491D
:1013800007F04FFE164B1C68164B204619680AF0F2
:1013900029F90446144B18680AF0D0F821460AF0DF
:1013A00019F838BDAFF300802D431CEBE2364A3FFD
:1013B0007B14AE47E17A843FE8010020CC0A00208C
:1013C0009C08002000F87F460000254300002042D2
:1013D00040F008086407002061F0080880F0080861
:1013E000E8060020B0070020A80A002038B5194BF5
:1013F000194D1B6883B1194B18890AF09BF81849DD
:101400000AF0A4F917490AF0EDF82B68044663B115
:1014100008F03CFE144906E0144B9C682B6823B18D
:1014200008F034FE124907F0FCFD124B2046196803
:101430000AF0D8F80446104B18680AF07FF82146E5
:1014400009F0C8FF074904460AF088FA00B1054CC4
:10145000204638BDE8010020CC0A00209C0800206E
:1014600000F87F460000C842ACF00808E8060020FB
:10147000CAF00808DC060020600700200000000019
:101480002DE9F0438BB0944902A807F008FC934B78
:101490001A681E4622B108F0F9FD914907F0C1FD16
:1014A000904D0021288809F072F809F0FBF801221C
:1014B0004A2108F0A5FF30B908F0E8FD8A4907F095
:1014C000B0FD00242EE00321884804F024FD0AF03A
:1014D00035F8874B19680AF085F8864904460AF002
:1014E00035F909F0D5FB0022834B8046894609F087
:1014F0006FFA09F0D1FE0028B8BF404209F0B6FBF0
:1015000000227E4B09F0A8FE60B108F0BFFD7C49C7
:1015100007F074FD08F0BAFD0223009342464B46E3
:1015200007F0A6FE0021774804F09FFB30B933682E
:1015300023B108F0ABFD744907F073FD09F0B2F870
:1015400001224A2108F05CFF002800F0AB80002156
:101550006C4804F08AFB002800F0A480654920460E
:101560000AF0F4F809F094FB0022634B09F030FA1A
:1015700009F092FE0028B8BF404209F077FB002234
:101580005E4B09F069FE002840F08C8004468146DD
:1015900080460A260021554804F0BDFC0121804404
:1015A000524804F0B8FC02218144504804F0B3FCD6
:1015B00003214E4804F0AFFC013E0444EAD14C4BF9
:1015C0000A271E6894FBF7F009F0B8FF31460AF0CD
:1015D00009F8044698FBF7F009F0B0FF31460AF02D
:1015E00001F80146204609F0F3FE48490AF0AEF83A
:1015F000804699FBF7F009F0A1FF314609F0F2FFB0
:101600000146204609F0E4FE41490AF09FF80446ED
:10161000FFF76EFE3F490AF08DF920B121464046A2
:1016200009F0D6FE27E0FFF763FE3B490AF082F996
:1016300020B12146404609F0CDFE1CE0FFF758FEE0
:1016400035490AF08BF9A8B1204609F021FB1EA309
:10165000D3E9002309F070FB064640460F4609F027
:1016600017FB02460B463046394609F0B3F909F03C
:101670005BFE00E0002009F00BFB15A3D3E900237B
:1016800009F084FC09F050FE02220146044606A837
:1016900007F09FFB06A902A807F04BFB06A807F07E
:1016A000B7FA04E01D4902A807F04BFB0024012112
:1016B000288808F06CFF02A807F0AAFA20460BB0B1
:1016C000BDE8F083AFF3008052B81E85EB51E83FD0
:1016D000B6F3FDD478E9D63FCC170908CC0A002030
:1016E000E4F00808CC000020FAF008089A0A00206C
:1016F000A000002000007A440000F43F0000E03F1A
:101700001FF10808E10100202FF108080000F0C2D5
:10171000000016C3000070410000C84156F10808DF
:1017200030B51E4985B0054602230C22A1F58E6016
:10173000FFF712FA50B308F0A9FC194907F071FC41
:10174000184A1949194C462312680968184805F0C7
:10175000CAFD236893B91749174807F062FC07F0E0
:1017600066FF0146684607F08FFE0099124807F0B1
:1017700058FC684607F04CFA0123236029680E489C
:1017800007F04FFC0A4805F0A7FD04E008F07EFCD6
:101790000A4907F046FC05B030BD00BF9C0600209A
:1017A0005AF1080898070020940B002094080020A4
:1017B000600B002074F10808580B00208BF108081A
:1017C0002DE9F04190B0B049684607F068FAAF499A
:1017D00004A807F064FAFFF785F90D2201460CA86A
:1017E00007F0BAFD0CA9684607F0A3FA0CA807F0A9
:1017F0000FFA0723042269460CA807F089FB0CA9FD
:1018000004A807F096FA0CA807F002FAA04904A869
:1018100007F061FB50BB9C49684607F05CFB002861
:10182000D9D008F033FC9B4907F0FBFB99490CA881
:1018300007F035FA0CA8FFF773FF0CA80BE0214660
:10184000684607F063FB2C2818D00136029BB4B21F
:10185000A342F4D808A807F0DBF904A807F0D8F9E8
:10186000684607F0D5F910B0BDE8F081874908A8AF
:10187000002607F014FA3746874DE7E77B1E062B54
:1018800000F2FB80DFE813F02C00F9006500F9009E
:1018900098000700B90004F101084146684607F0C6
:1018A00035FB2C2800F0EE8004F10B03424669461C
:1018B0000CA807F02DFB0CA908A807F03AFA0CA811
:1018C00007F0A6F9754B1B68002B00F0DB8008F0D1
:1018D000DDFB734907F092FB08F0D8FB0899CFE0D5
:1018E00004F101084146684607F010FB2C2800F07F
:1018F000C98004F10A03424669460CA807F008FBB8
:101900000CA908A807F015FA0CA807F081F9634B99
:101910001B684BB108F0BAFB624907F06FFB08F097
:10192000B5FB089907F06AFB08A90CA807F0F6F9BF
:1019300004F10C01684607F0E9FA0CA902465A487E
:1019400004F014FB0CA807F063F92B8823F00803BC
:1019500091E004F101084146684607F0D7FA2C28C7
:1019600000F0908004F10B03424669460CA807F092
:10197000CFFA0CA908A807F0DCF90CA807F048F981
:10198000464B1B684BB108F081FB484907F036FB1A
:1019900008F07CFB089907F031FB08A90CA807F0B8
:1019A000BDF904F10D01684607F0B0FA0CA9024632
:1019B0003D4804F021FB1CE004F101084146684663
:1019C00007F0A4FA2C285DD0E31C424669460CA817
:1019D00007F09EFA0CA908A807F0ABF90CA807F0CD
:1019E00017F908A90CA807F099F90CA92E4804F0DA
:1019F00049FB0CA807F00CF944E004F1010841464A
:101A0000684607F083FA2C283CD0E31C424669461E
:101A10000CA807F07DFA0CA908A807F08AF90CA811
:101A200007F0F6F808A90CA807F078F90CA91E48E9
:101A300004F030FB0CA807F0EBF82B881A4823F0D1
:101A40000C032B8004F03CFB012803DC2B8843F0C3
:101A50000C0310E0144804F033FB042803DC2B884B
:101A600043F0080307E0104804F02AFB132809DCC0
:101A70002B8843F004032B8004E008F007FB0C499B
:101A800007F0CFFA0137E0E6A7F10808CC170908FC
:101A9000BEF10808ACF10808440B0020CC0A002075
:101AA000C2F10808D3F1080838090020E5F1080858
:101AB000F8F108082DE9F0418CB0B249684607F00A
:101AC000EEF8FFF70FF80D22014608A807F044FCD6
:101AD00008A9684607F02DF908A807F099F8072328
:101AE0000422694604A807F013FAA74904A807F0DE
:101AF000F2F90546A8B9A349684607F0ECF998B190
:101B000008F0C4FAA14907F08CFAA04908A807F028
:101B1000C6F808A8FFF704FE08A807F079F8012422
:101B200004E00024012501E00446054604A807F06E
:101B30006FF8B5B9002CC4D00DE02146684607F017
:101B4000E5F92C2815D00137029BBCB2A342F4D88A
:101B500004A807F05DF8684607F05AF80CB0BDE835
:101B6000F0818B4904A8002707F099F83E46894D7B
:101B7000EAE7072E00F2FE80DFE816F008002F00EB
:101B8000FC006800FC00FC009B00BC0004F10108A4
:101B90004146684607F0BAF92C2800F0F18004F1BC
:101BA0000B034246694608A807F0B2F908A904A841
:101BB00007F0BFF808A807F02BF8774B1B68002B3D
:101BC00000F0DE8008F062FA744907F017FA08F0B6
:101BD0005DFA049907F025FAD2E004F101084146C4
:101BE000684607F093F92C2800F0CA8004F10A0334
:101BF0004246694608A807F08BF908A904A807F02F
:101C000098F808A807F004F8634B1B684BB108F07C
:101C10003DFA634907F0F2F908F038FA049907F041
:101C2000EDF904A908A807F079F804F10C01684659
:101C300007F06CF908A902465A4804F097F908A879
:101C400006F0E6FF2B8823F008037FE004F101088B
:101C50004146684607F05AF92C2800F0918004F1BB
:101C60000B034246694608A807F052F908A904A8E0
:101C700007F05FF808A806F0CBFF474B1B684BB195
:101C800008F004FA484907F0B9F908F0FFF9049997
:101C900007F0B4F904A908A807F040F804F10D0111
:101CA000684607F033F908A902463E4804F0A4F953
:101CB0001CE004F101084146684607F027F92C288A
:101CC0005ED0E31C4246694608A807F021F908A93E
:101CD00004A807F02EF808A806F09AFF04A908A89F
:101CE00007F01CF808A92F4804F0CCF908A806F062
:101CF0008FFF45E004F101084146684607F006F908
:101D00002C283DD0E31C4246694608A807F000F99C
:101D100008A904A807F00DF808A806F079FF04A99F
:101D200008A806F0FBFF08A91E4804F0B3F908A8AC
:101D300006F06EFF2B881B4823F00C032B8004F069
:101D4000BFF9012804DC2B8843F00C032B8017E03B
:101D5000144804F0B5F9042803DC2B8843F0080389
:101D6000F4E7104804F0ACF9132809DC2B8843F0A1
:101D70000403EBE708F08AF90C4A002107F086FA21
:101D80000136E0E6A7F1080820F2080824F2080866
:101D9000CC170908440B0020CC0A0020C2F1080827
:101DA000D3F1080838090020E5F1080836F20808E0
:101DB00010B590B01D4908A806F071FF1C4904A891
:101DC00006F0ACFF04A908A807F067F8194907F066
:101DD00070F8044618490CA806F0A0FF0CA920468C
:101DE00007F05BF8154907F064F80146684606F00D
:101DF00095FF0CA806F00CFF04A806F009FF08A840
:101E000006F006FF08F042F90D4907F00AF908F05C
:101E100053FA009907F005F908F038F9094907F075
:101E200000F9684606F0F4FE10B010BDB8F20808DC
:101E3000000200209E130908CC010020E1F40808EC
:101E4000BBF20808DFF2080810B52C4C01212088ED
:101E500008F09DFBFA2007F037FC0021208808F0ED
:101E600096FBFA2007F030FC0121208808F08FFB58
:101E7000FA2007F029FC0021208808F088FBFA20CE
:101E800007F022FC0121208808F081FBFA2007F0EE
:101E90001BFC0021208808F07AFBFA2007F014FCD4
:101EA0000121208808F073FBFA2007F00DFC0021C7
:101EB000208808F06CFBFA2007F006FC012120883E
:101EC00008F065FBFA2007F0FFFB0021208808F0EE
:101ED0005EFBFA2007F0F8FB0121208808F057FB91
:101EE000FA2007F0F1FB2088002108F050FBBDE844
:101EF00010406B210720FEF759BE00BF9400002060
:101F0000F8B5174F174E3888174D002108F03FFBE2
:101F1000164C3088002108F03AFB2888002108F090
:101F200036FB0021208808F032FB4FF47A7007F06E
:101F3000CBFB3888012108F02AFB3088012108F00A
:101F400026FB2888012108F022FB2088012108F0C7
:101F50001EFBBDE8F8404FF47A7007F0B5BB00BF38
:101F60009C000020C8000020C4000020A400002025
:101F700070B5AA4BA8B04FF4DA42A94901A8A94DFF
:101F80001A80A94C06F08BFE072007F09BFB01216D
:101F9000288808F0EBFA0121208808F0E7FAA34B23
:101FA0000121188808F0E2FAA14B0121188808F0F5
:101FB000DDFAA04B0121188808F0D8FA9E4B0121C8
:101FC000188808F0D3FA9D4B0121188808F0CEFA42
:101FD0009B4B0121188808F0C9FAFEF72DFF99489C
:101FE00006F026FB41F27001964806F051FC954838
:101FF00006F019FC944E34210020FEF7D7FD1B217A
:102000000120FEF7D3FD304603F0DEFE96F82130C6
:1020100013B9FFF719FF0EE08C4B1B68012B0AD197
:102020008B4807F0C5FB8B4909F07AFC18B196F88C
:102030002130002BEDD00121288808F0A8FA208853
:10204000012108F0A4FA7B4B0121188808F09FFABF
:10205000774B0121188808F09AFA774B01211888EC
:1020600008F095FA754B0121188808F090FA744B26
:102070000121188808F08BFA6C4B0121188808F0B0
:1020800086FA754A7549764807F0BCFC002302229F
:102090007449754806F034FA08F00EF94FF41651F9
:1020A00008F004F9FEF7E4FC4FF4165108F0FEF8CE
:1020B000FEF718FD4FF4165108F0F8F8FEF7D8FCBB
:1020C00041F2883107F031F942F2107007F0FCFA62
:1020D00007F0DCFF4FF4165107F0CCFF634B0A22E8
:1020E000196805A806F04FFE05A909A806F016FE16
:1020F0005F4909A806F0DDFE044607F0CFFA0A2280
:1021000001460DA806F03FFE0DA9204606F0C5FECB
:10211000044607F0BBFA0A22014611A806F033FE76
:1021200011A9204606F0B9FE044607F0A5FA0A22D6
:10213000014615A806F027FE15A9204606F0ADFEBB
:102140004B4906F0B6FE044607F078FA0A2201462B
:1021500019A806F018FE19A9204606F09EFE0446AE
:1021600007F076FA0A2201461DA806F00CFE1DA90A
:10217000204606F092FE044607F074FA0A22014651
:1021800021A806F000FE21A9204606F086FE394966
:1021900006F08FFE384C0146204606F0B0FD21A81F
:1021A00006F036FD1DA806F033FD19A806F030FD37
:1021B00015A806F02DFD11A806F02AFD0DA806F0C1
:1021C00027FD09A806F024FD05A806F021FD07F06B
:1021D0005DFF2A4906F025FF294921A806F05FFD89
:1021E000214621A806F059FE0146264806F087FD43
:1021F00021A806F00DFD244902230C22A1F58E60D2
:10220000FEF7AAFC002843D007F040FF1F4906F064
:10221000F5FE07F03BFF21683DE000BF440B0020C6
:10222000CC17090898000020CC000020D000002026
:10223000C8000020940000209C000020C400002062
:10224000A4000020A40A002074070020480B0020EE
:10225000800800200000A041E8F20808D109080821
:10226000D9990808F8090020F6F20808880000202B
:102270001CF30808FFF20808AC0A002004F3080861
:1022800019F30808980700209C0600201EF3080890
:1022900007F0FCFE8349844C06F0C3FE07F0F6FE0F
:1022A000824906F0BEFE23684BB1804921A806F0A2
:1022B000F6FC21A8FFF734FA21A806F0A9FC08F0E3
:1022C000F1F908F08BF80021288808F060F9032361
:1022D000B0221821764803F019FD88B907F0D6FE20
:1022E000744906F09EFE2368FBB1724921A806F0EE
:1022F000D6FC21A8FFF714FA21A806F089FC14E007
:1023000007F0C4FE6C4906F08CFE23684BB16B49A4
:1023100021A806F0C4FC21A8FFF702FA21A806F0C4
:1023200077FC0121288808F032F9654803F0EAFDBE
:1023300008F0B8F90122492108F062F888B907F0DD
:10234000A5FE604906F06DFE236873B15D4921A8C2
:1023500006F0A5FC21A8FFF7E3F921A806F058FC38
:1023600003E00021564803F0D4FD07F08FFE5649E4
:1023700006F057FE23684BB1534921A806F08FFCA5
:1023800021A8FFF7CDF921A806F042FC4F4D08F037
:1023900089F908F023F80021288808F0F8F80323C9
:1023A000B02218214A4803F0B1FC78B907F06EFE5C
:1023B000484906F036FE474921A806F070FC21A8DE
:1023C000FFF7AEF921A806F023FC14E007F05EFE4B
:1023D000414906F026FE23684BB13F4921A806F08B
:1023E0005EFC21A8FFF79CF921A806F011FC012151
:1023F000288808F0CCF8394803F084FD08F052F939
:1024000001224A2107F0FCFF88B907F03FFE2D4961
:1024100006F007FE236873B12A4921A806F03FFCA5
:1024200021A8FFF77DF921A806F0F2FB03E00021C7
:102430002A4803F06EFDFFF763FD07F027FE2849E9
:1024400006F0EFFD07F022FE264906F0D7FD07F063
:102450001DFE0A22462106F052FE07F017FE224911
:1024600006F0CCFD07F012FE0A220D2106F047FE11
:10247000FEF71AFF1C23002121A8ADF8843005F0D7
:10248000B3FF23A91DA806F00AFC1D9A1749184896
:10249000FEF7D6FA1DA806F0BBFB01A806F0B8FBB4
:1024A00028B070BD44F30808CC0A00205AF308088D
:1024B000E00100207EF30808AAF30808C8F3080822
:1024C000940A0020E4F3080817F40808CC00002060
:1024D000E10100203AF4080863F408089A0A002091
:1024E00081F408088CF4080899F40808A1F4080895
:1024F000A40B002000B58FB0804902A806F0CFFBE6
:1025000007F0C4FD7E4906F08CFD002300937D4B4F
:1025100006A8D3E9002306F073FC06A90AA806F072
:10252000FDFB79490AA806F0C4FC014602A806F0A2
:1025300094FC0AA806F06CFB06A806F069FB734B36
:102540000322196806A806F044FC06A90AA806F0AA
:10255000E5FB6D490AA806F0ACFC014602A806F0AE
:102560007CFC0AA806F054FB06A806F051FB684B59
:102570000322196806A806F02CFC06A90AA806F092
:10258000CDFB61490AA806F094FC014602A806F0BA
:1025900064FC0AA806F03CFB06A806F039FB5D487F
:1025A00003F084FD0022002308F02EFE90B9594864
:1025B00003F097FD18B9584902A806F052FC554897
:1025C00003F074FD0623009302460B4606A806F0AE
:1025D00017FC03E0514906A806F061FB06A90AA80A
:1025E00006F09CFB48490AA806F063FC014602A8D5
:1025F00006F033FC0AA806F00BFB06A806F008FB61
:10260000444803F058FD0022002308F0FDFD98B96E
:10261000404803F069FD012803D13F4902A806F0B4
:1026200020FC3C4803F047FD0623009302460B467E
:1026300006A806F0E5FB03E0394906A806F02FFBE3
:1026400006A90AA806F06AFB2F490AA806F031FC81
:10265000014602A806F001FC0AA806F0D9FA06A86D
:1026600006F0D6FA2B4803F026FD0022002308F0DE
:10267000CBFD80B9274803F023FD08F0F7FA0022CC
:10268000284B08F083FC0623009302460B4606A85D
:1026900006F0B6FB03E0244906A806F000FB06A9F5
:1026A0000AA806F03BFB18490AA806F002FC0146FE
:1026B00002A806F0D2FB0AA806F0AAFA06A806F0BD
:1026C000A7FA1A4A1A4B12680AA81A4906F05CFFC0
:1026D0000AA902A806F0C1FB0AA806F099FA164951
:1026E00002A806F0BEFB07F0E7FD029906F086FCA3
:1026F00002A806F08DFA0FB05DF804FBB4F40808E8
:10270000B6F40808D80A00209E13090870070020B4
:10271000A00A002038090020CBF40808A8000020F7
:10272000B40000200000244080000020C00A0020E7
:10273000CDF40808CC0B0020DFF4080830B55B4D61
:1027400095B007F0A3FC5A4906F058FC594C07F025
:102750009DFC296806F065FC07F098FC564906F0D8
:102760004DFC07F093FC216806F05BFC07F08EFC43
:10277000524906F056FC07F089FC4CF2503106F045
:10278000D4FD07F083FC0D220146684606F0E4FD07
:102790004B49684606F09FFB002800F0818007F057
:1027A00075FC484906F03DFC07F070FC464906F010
:1027B00038FC07F06BFC4CF2503106F0B6FD07F028
:1027C00065FC0D22014604A806F0C6FD07F05EFC7C
:1027D0003E4906F013FC07F059FC049906F021FC71
:1027E00007F054FC3A4906F01CFC07F04FFC0D22A0
:1027F000014608A806F0B0FD364908A806F06BFBB4
:10280000002842D007F042FC334906F00AFC04A934
:10281000284606F074FA07F039FC304906F001FC4E
:1028200007F034FC0D2201460CA806F095FD07F0D8
:102830002DFC2B4906F0E2FB07F028FC0C9906F072
:10284000F0FB07F023FC0D22014610A806F084FDE2
:10285000204910A806F03FFB58B107F017FC2149AA
:1028600006F0DFFB0CA9204606F049FAFFF7A0FAB4
:1028700004E007F00BFC1C4906F0D3FB10A806F09F
:10288000C7F90CA806F0C4F904E007F0FFFB1649ED
:1028900006F0C7FB08A806F0BBF904A806F0B8F9D3
:1028A000684606F0B5F915B030BD00BF0002002043
:1028B00029F50808CC0100203FF5080859F508085B
:1028C0008BF5080891F50808A3F50808B3F5080882
:1028D000CBF50808FE1D0908E1F50808F1F5080820
:1028E00004F6080820F6080834F608081FB507F0B3
:1028F000CDFB194906F095FB07F0C8FB4CF25031AF
:1029000006F013FD07F0C2FB0D220146684606F0F3
:1029100023FD1249684606F0DEFA98B107F0B6FBCF
:102920000F4906F07EFB0F4C07F0B0FB0E4906F096
:1029300078FB0123236007F089FE21468C20FEF7F7
:1029400040F804E007F0A2FB084906F06AFB68467D
:1029500006F05EF904B010BD47F608088AF60808CC
:1029600091F508089808002095F60808B6F60808BA
:1029700030B589B007F08AFB354C06F046FB07F00E
:1029800085FB344906F03AFB07F080FB0A222168F8
:1029900006F0B5FB07F07AFB2F4906F042FB07F083
:1029A00075FB4CF2503106F0C0FC07F06FFB0D22B6
:1029B0000146684606F0D0FC2849684606F08BFAC6
:1029C00000283AD007F062FB254906F02AFB07F001
:1029D0005DFB244906F025FB07F058FB0D2201465C
:1029E00004A806F0B9FC04A806F0BAFA054607F0F8
:1029F0004DFB1D4906F015FB42F20C73AA1E9A42CC
:102A000012D807F043FB194906F0F8FA07F03EFB2D
:102A100029460A2206F073FB256007F017FE2146BF
:102A20000020FDF7CEFF04E007F030FB104906F070
:102A3000F8FA04A806F0ECF804E007F027FB0D49CB
:102A400006F0EFFA684606F0E3F809B030BD00BFC3
:102A500088000020CCF60808DFF608088BF5080887
:102A600091F508080FF70808CC17090824F708089B
:102A700035F70808B6F608081FB507F007FB06F09B
:102A8000C4FA07F003FB144906F0CBFA07F0FEFA8C
:102A90004CF2503106F049FC07F0F8FA0D220146DD
:102AA000684606F059FC0D49684606F014FA38B13C
:102AB00007F0ECFA0A4906F0B4FAFEF793F804E0DE
:102AC00007F0E4FA074906F0ACFA684606F0A0F809
:102AD00005B05DF804FB00BF46F708088BF5080851
:102AE0007FF70808B6F6080810B588B007F0CEFAE8
:102AF0001F4906F096FA07F0C9FA4CF2503106F079
:102B000014FC07F0C3FA0D220146684606F024FCC7
:102B1000684606F025FA044607F0B8FA154906F0AB
:102B200080FA154B9C4218DD204606F0A3FC07F006
:102B3000ADFA124906F062FA07F0A8FA044606F068
:102B400076FD014604A806F09FFC0499204606F095
:102B500068FA04A806F05CF804E007F097FA084960
:102B600006F05FFA684606F053F808B010BD00BFE3
:102B7000EEF70808CC170908F52E943929F808084B
:102B800035F7080810B586B007F080FA1F4906F03F
:102B900048FA07F07BFA4CF2503106F0C6FB07F01A
:102BA00075FA0D22014602A806F0D6FB02A806F02F
:102BB000D7F9019007F06AFA154906F032FA019840
:102BC00000F10C031A2B17D808F0B8FC06F036FCFD
:102BD00006AC07F05BFA0F4906F010FA07F056FA58
:102BE00054F8141D0A2206F08AFA07F02FFD214638
:102BF0005420FDF7E6FE04E007F048FA064906F027
:102C000010FA02A806F004F806B010BD3CF8080857
:102C1000CC17090867F8080835F7080830B587B0F9
:102C200007F034FA294D06F0F0F907F02FFA284999
:102C300006F0E4F907F02AFA0A22296806F05DFA9C
:102C400007F024FA234906F0ECF907F01FFA2249AD
:102C500006F0D4F907F01AFA4CF2503106F065FB91
:102C600007F014FA0D22014602A806F075FB02A82F
:102C700006F076F942F20E730190013898421AD8A4
:102C800007F004FA154906F0B9F907F0FFF90A222E
:102C9000019906F034FA06AC07F0F8F90D4906F090
:102CA000C0F954F8143D2B6007F0D0FC2146742085
:102CB000FDF787FE04E007F0E9F9094906F0B1F9EC
:102CC00002A805F0A5FF07B030BD00BFBC0A002078
:102CD0007FF8080893F80808ACF80808BFF8080857
:102CE00035F7080830B58BB007F0D0F906F08DF94C
:102CF00007F0CCF9324906F081F907F0C7F905462B
:102D0000304C0222216806A806F063F8069928468E
:102D100006F074F906A805F07BFF07F0B7F92A4919
:102D200006F07FF907F0B2F9284906F067F907F0D5
:102D3000ADF94CF2503106F0F8FA07F0A7F90D2280
:102D4000014602A806F008FB02A806F00EF94FF0B3
:102D50007C51054608F0F8FD38B31D49284608F0B7
:102D6000DFFD10B31B492846256008F03BFC08F046
:102D7000FFFD019007F08AF9174906F03FF907F0C7
:102D800085F905460222216806A806F022F8069970
:102D9000284606F046F906A805F03AFF07F056FC6B
:102DA00001A90820FDF70DFE04E007F06FF90B49BB
:102DB00006F037F902A805F02BFF0BB030BD00BFBD
:102DC000D1F80808900A0020E4F80808E9F8080893
:102DD000000020410000C842FFF8080835F7080845
:102DE00030B587B007F052F9264D06F00EF907F01E
:102DF0004DF9254906F002F907F048F90A22296839
:102E000006F07BF907F042F9204906F00AF907F0CD
:102E10003DF91F4906F0F2F807F038F94CF250314D
:102E200006F083FA07F032F90D22014602A806F0F7
:102E300093FA02A806F094F8019000F57A70B0F5C4
:102E4000FA6F15D207F022F9124906F0D7F806AC4E
:102E500007F01CF901990A2206F051F954F8143DC3
:102E60002B6007F0F3FB21460420FDF7AAFD04E0E8
:102E700007F00CF9084906F0D4F802A805F0C8FEDE
:102E800007B030BD2402002011F90808E4F8080852
:102E900023F9080838F9080835F708080000000089
:102EA00030B58BB007F0F2F806F0AFF807F0EEF8A7
:102EB000374906F0A3F807F0E9F80546354C022239
:102EC000216806A805F085FF0699284606F096F8C1
:102ED00006A805F09DFE07F0D9F82F4906F0A1F8E5
:102EE00007F0D4F82D4906F089F807F0CFF84CF236
:102EF000503106F01AFA07F0C9F80D22014602A86F
:102F000006F02AFA02A806F030F8054607F0C0FEDF
:102F10001DA3D3E9002308F095F940B34FF0804199
:102F2000284608F0FDFC10B31D492846256008F02E
:102F300059FB08F01DFD019007F0A8F8194906F0AB
:102F40005DF807F0A3F805460222216806A805F0FF
:102F500040FF0699284606F064F806A805F058FEDA
:102F600007F074FB01A91020FDF72BFD04E007F02A
:102F70008DF80D4906F055F802A805F049FE0BB092
:102F800030BD00BFAFF300809A9999999999B93FE4
:102F900049F908082C090020E4F808085BF908083A
:102FA0000000C84270F9080835F7080830B587B046
:102FB00007F06CF8274D06F028F807F067F8264967
:102FC00006F01CF807F062F80A22296806F095F866
:102FD00007F05CF8214906F024F807F057F820497B
:102FE00006F00CF807F052F84CF2503106F09DF95B
:102FF00007F04CF80D22014602A806F0ADF902A830
:1030000005F0AEFF42F20F73019000F59C500830BE
:10301000984215D807F03AF8124905F0EFFF06ACD0
:1030200007F034F801990A2206F069F854F8143DC3
:103030002B6007F00BFB21460C20FDF7C2FC04E0DF
:1030400007F024F8084905F0ECFF02A805F0E0FDC0
:1030500007B030BDF809002082F9080895F9080882
:103060009AF90808AEF9080835F7080830B58BB0AA
:1030700007F00CF805F0C9FF07F008F8324905F031
:10308000BDFF07F003F80546304C0222216806A870
:1030900005F09FFE0699284605F0B0FF06A805F04A
:1030A000B7FD06F0F3FF2A4905F0BBFF06F0EEFF7F
:1030B000284905F0A3FF06F0E9FF4CF2503106F075
:1030C00034F906F0E3FF0D22014602A806F044F9A8
:1030D00002A805F04AFF4FF07C51054608F034FC89
:1030E00040B34FF07F51284608F01AFC10B31A493C
:1030F0002846256008F076FA08F03AFC019006F0C0
:10310000C5FF164905F07AFF06F0C0FF054602220A
:10311000216806A805F05DFE0699284605F081FFA6
:1031200006A805F075FD07F091FA01A91820FDF732
:1031300048FC04E006F0AAFF094905F072FF02A866
:1031400005F066FD0BB030BDBEF908081C0200207A
:1031500066110908D1F908080000C842E7F9080813
:1031600035F7080830B587B006F090FF264D05F01A
:103170004CFF06F08BFF254905F040FF06F086FF67
:103180000A22296805F0B9FF06F080FF204905F002
:1031900048FF06F07BFF1F4905F030FF06F076FF81
:1031A0004CF2503106F0C1F806F070FF0D220146D6
:1031B00002A806F0D1F802A805F0D2FE019000F5B1
:1031C0007A70B0F5FA6F15D206F060FF124905F07B
:1031D00015FF06AC06F05AFF01990A2205F08FFF91
:1031E00054F8143D2B6007F031FA21461420FDF706
:1031F000E8FB04E006F04AFF084905F012FF02A8C8
:1032000005F006FD07B030BD8C080020F9F908086C
:103210000BFA080812FA080827FA080835F7080810
:1032200030B58BB006F032FF05F0EFFE06F02EFF52
:10323000324905F0E3FE06F029FF0546304C022234
:10324000216806A805F0C5FD0699284605F0D6FEBA
:1032500006A805F0DDFC06F019FF2A4905F0E1FE9D
:1032600006F014FF284905F0C9FE06F00FFF4CF2E6
:10327000503106F05AF806F009FF0D22014602A867
:1032800006F06AF802A805F070FE4FF07C51054682
:1032900008F05AFB40B34FF07F51284608F040FB3E
:1032A00010B31A492846256008F09CF908F060FB25
:1032B000019006F0EBFE164905F0A0FE06F0E6FED2
:1032C00005460222216806A805F083FD06992846D6
:1032D00005F0A7FE06A805F09BFC07F0B7F901A9C9
:1032E0002020FDF76EFB04E006F0D0FE094905F052
:1032F00098FE02A805F08CFC0BB030BD38FA080827
:10330000A8070020661109084DFA08080000C84205
:1033100065FA080835F7080830B587B006F0B6FE3C
:10332000264D05F072FE06F0B1FE254905F066FE59
:1033300006F0ACFE0A22296805F0DFFE06F0A6FEC4
:10334000204905F06EFE06F0A1FE1F4905F056FE6D
:1033500006F09CFE4CF2503105F0E7FF06F096FEB9
:103360000D22014602A805F0F7FF02A805F0F8FDBE
:10337000019000F57A70B0F5FA6F15D206F086FE6E
:10338000124905F03BFE06AC06F080FE01990A22C8
:1033900005F0B5FE54F8143D2B6007F057F92146AF
:1033A0001C20FDF70EFB04E006F070FE084905F056
:1033B00038FE02A805F02CFC07B030BD68070020DD
:1033C00079FA08080BFA08088DFA0808A4FA080820
:1033D00035F7080830B58BB006F058FE05F015FE3D
:1033E00006F054FE324905F009FE06F04FFE054690
:1033F000304C0222216806A805F0EBFC069928460D
:1034000005F0FCFD06A805F003FC06F03FFE2A4986
:1034100005F007FE06F03AFE284905F0EFFD06F03C
:1034200035FE4CF2503105F080FF06F02FFE0D22E4
:10343000014602A805F090FF02A805F096FD4FF0A6
:103440007C51054608F080FA40B34FF07F51284682
:1034500008F066FA10B31A492846256008F0C2F849
:1034600008F086FA019006F011FE164905F0C6FD37
:1034700006F00CFE05460222216806A805F0A9FC0C
:103480000699284605F0CDFD06A805F0C1FB07F01A
:10349000DDF801A92820FDF794FA04E006F0F6FD16
:1034A000094905F0BEFD02A805F0B2FB0BB030BD26
:1034B000B7FA0808F00A002066110908CBFA0808D4
:1034C0000000C842E2FA080835F7080830B587B0AE
:1034D00006F0DCFD264D05F098FD06F0D7FD2549E8
:1034E00005F08CFD06F0D2FD0A22296805F005FEE4
:1034F00006F0CCFD204905F094FD06F0C7FD1F49FC
:1035000005F07CFD06F0C2FD4CF2503105F00DFFD8
:1035100006F0BCFD0D22014602A805F01DFF02A821
:1035200005F01EFD019000F57A70B0F5FA6F15D226
:1035300006F0ACFD124905F061FD06AC06F0A6FDF3
:1035400001990A2205F0DBFD54F8143D2B6007F0C9
:103550007DF821462420FDF734FA04E006F096FDBC
:10356000084905F05EFD02A805F052FB07B030BD2A
:10357000D40A0020F5FA080808FB08080FFB080821
:1035800025FB080835F7080830B58BB006F07EFD3E
:1035900005F03BFD06F07AFD324905F02FFD06F0FF
:1035A00075FD0546304C0222216806A805F011FC85
:1035B0000699284605F022FD06A805F029FB06F02D
:1035C00065FD2A4905F02DFD06F060FD284905F04E
:1035D00015FD06F05BFD4CF2503105F0A6FE06F03D
:1035E00055FD0D22014602A805F0B6FE02A805F021
:1035F000BCFC4FF07C51054608F0A6F940B34FF0F3
:103600007F51284608F08CF910B31A4928462560E6
:1036100007F0E8FF08F0ACF9019006F037FD164915
:1036200005F0ECFC06F032FD05460222216806A8F2
:1036300005F0CFFB0699284605F0F3FC06A805F037
:10364000E7FA07F003F801A93020FDF7BAF904E022
:1036500006F01CFD094905F0E4FC02A805F0D8FAC3
:103660000BB030BD37FB0808B007002052FB08083C
:103670005DFB08080000C8427BFB080835F7080816
:1036800030B587B006F002FD254D05F0BEFC06F012
:10369000FDFC244905F0B2FC06F0F8FC0A2229687A
:1036A00005F02BFD06F0F2FC1F4905F0BAFC06F010
:1036B000EDFC1E4905F0A2FC06F0E8FC4CF250318E
:1036C00005F033FE06F0E2FC0D22014602A805F0EB
:1036D00043FE02A805F044FC01901E303B2815D89B
:1036E00006F0D4FC124905F089FC06AC06F0CEFCCD
:1036F00001990A2205F003FD54F8143D2B6006F0F1
:10370000A5FF21462C20FDF75CF904E006F0BEFC85
:10371000084905F086FC02A805F07AFA07B030BD2A
:10372000A80A002095FB080852FB0808AFFB080810
:10373000CCFB080835F7080830B58BB006F0A6FCBE
:1037400005F063FC06F0A2FC324905F057FC06F0D8
:103750009DFC0546304C0222216806A805F039FB85
:103760000699284605F04AFC06A805F051FA06F02D
:103770008DFC2A4905F055FC06F088FC284905F027
:103780003DFC06F083FC4CF2503105F0CEFD06F016
:103790007DFC0D22014602A805F0DEFD02A805F021
:1037A000E4FB4FF07C51054608F0CEF840B34FF0F3
:1037B0007F51284608F0B4F810B31A49284625600E
:1037C00007F010FF08F0D4F8019006F05FFC1649EE
:1037D00005F014FC06F05AFC05460222216806A8F2
:1037E00005F0F7FA0699284605F01BFC06A805F037
:1037F0000FFA06F02BFF01A93820FDF7E2F804E0EC
:1038000006F044FC094905F00CFC02A805F000FA9A
:103810000BB030BDE5FB0808E4010020FDFB080803
:1038200003FC08080000C8421EFC080835F7080819
:1038300030B587B006F02AFC264D05F0E6FB06F011
:1038400025FC254905F0DAFB06F020FC0A22296850
:1038500005F053FC06F01AFC204905F0E2FB06F0E7
:1038600015FC1F4905F0CAFB06F010FC4CF2503164
:1038700005F05BFD06F00AFC0D22014602A805F0EA
:103880006BFD02A805F06CFB019000F57A70B0F5B5
:10389000FA6F15D206F0FAFB124905F0AFFB06AC41
:1038A00006F0F4FB01990A2205F029FC54F8143DB6
:1038B0002B6006F0CBFE21463420FDF782F804E0B1
:1038C00006F0E4FB084905F0ACFB02A805F0A0F9FE
:1038D00007B030BD040A002035FC0808E4F80808E9
:1038E0004CFC080866FC080835F7080830B58BB0B2
:1038F00006F0CCFB05F089FB06F0C8FB324905F069
:103900007DFB06F0C3FB0546304C0222216806A869
:1039100005F05FFA0699284605F070FB06A805F049
:1039200077F906F0B3FB2A4905F07BFB06F0AEFB06
:10393000284905F063FB06F0A9FB4CF2503105F075
:10394000F4FC06F0A3FB0D22014602A805F004FDDD
:1039500002A805F00AFB4FF07C51054607F0F4FF82
:1039600038B31D49284607F0DBFF10B31B49284632
:10397000256007F037FE07F0FBFF019006F086FB9D
:10398000174905F03BFB06F081FB05460222216842
:1039900006A805F01EFA0699284605F042FB06A87F
:1039A00005F036F906F052FE01A94020FDF709F8AE
:1039B00004E006F06BFB0B4905F033FB02A805F0B1
:1039C00027F90BB030BD00BF7CFC0808DC060020E6
:1039D0008EFC080891FC0808000020410000C84245
:1039E000A6FC080835F7080830B587B006F04EFB8E
:1039F000254D05F00AFB06F049FB244905F0FEFAC7
:103A000006F044FB0A22296805F077FB06F03EFB2E
:103A10001F4905F006FB06F039FB1E4905F0EEFADA
:103A200006F034FB4CF2503105F07FFC06F02EFB23
:103A30000D22014602A805F08FFC02A805F090FABD
:103A400001903230632815D806F020FB124905F0AA
:103A5000D5FA06AC06F01AFB01990A2205F04FFBD5
:103A600054F8143D2B6006F0F1FD21463C20FCF794
:103A7000A8FF04E006F00AFB084905F0D2FA02A804
:103A800005F0C6F807B030BD60070020B7FC080895
:103A90008EFC0808C8FC0808DCFC080835F7080894
:103AA00030B589B006F0F2FA354C05F0AEFA06F002
:103AB000EDFA344905F0A2FA06F0E8FA0A22216884
:103AC00005F01DFB06F0E2FA2F4905F0AAFA06F010
:103AD000DDFA4CF2503105F028FC06F0D7FA0D2241
:103AE0000146684605F038FC2849684605F0F3F9B8
:103AF00000283AD006F0CAFA254905F092FA06F0F5
:103B0000C5FA244905F08DFA06F0C0FA0D220146E7
:103B100004A805F021FC04A805F022FA054606F0E9
:103B2000B5FA1D4905F07DFA44F61E636A1E9A42F5
:103B300012D806F0ABFA194905F060FA06F0A6FAB9
:103B400029460A2205F0DBFA256006F07FFD2146B2
:103B50004C20FCF736FF04E006F098FA104905F017
:103B600060FA04A805F054F804E006F08FFA0D4955
:103B700005F057FA684605F04BF809B030BD00BFB4
:103B80009000002034FD080849FD08088BF508085E
:103B900091F5080882FD0808CC1709089BFD080864
:103BA00035F70808B6F6080830B589B006F06EFAA1
:103BB000354C05F02AFA06F069FA344905F01EFA88
:103BC00006F064FA0A22216805F099FA06F05EFA16
:103BD0002F4905F026FA06F059FA4CF2503105F05B
:103BE000A4FB06F053FA0D220146684605F0B4FB2B
:103BF0002849684605F06FF900283AD006F046FAE1
:103C0000254905F00EFA06F041FA244905F009FAB3
:103C100006F03CFA0D22014604A805F09DFB04A81D
:103C200005F09EF9054606F031FA1D4905F0F9F94F
:103C30004CF24E336A1E9A4212D806F027FA1949FE
:103C400005F0DCF906F022FA29460A2205F057FAB7
:103C5000256006F0FBFC21465020FCF7B2FE04E094
:103C600006F014FA104905F0DCF904A804F0D0FFBE
:103C700004E006F00BFA0D4905F0D3F9684604F0AC
:103C8000C7FF09B030BD00BF8C000020AEFD0808A2
:103C9000C3FD08088BF5080891F50808FCFD080825
:103CA000CC17090815FE080835F70808B6F6080805
:103CB00008B506F0EBF9A24905F0B3F906F0E6F90C
:103CC000A04905F0AEF906F0E1F99F4905F0A9F920
:103CD00006F0DCF99D4905F0A4F906F0D7F99C49F6
:103CE00005F09FF906F0D2F99A4905F09AF906F025
:103CF000CDF9994905F095F906F0C8F9974905F00D
:103D000090F906F0C3F9964905F08BF906F0BEF973
:103D1000944905F086F906F0B9F9934905F081F95F
:103D200006F0B4F9914905F07CF906F0AFF9904935
:103D300005F077F906F0AAF98E4905F072F906F058
:103D4000A5F98D4905F06DF906F0A0F98B4905F04C
:103D500068F906F09BF98A4905F063F906F096F9CF
:103D6000884905F05EF906F091F9874905F059F99F
:103D700006F08CF9854905F054F906F087F9844975
:103D800005F04FF906F082F9824905F04AF906F08C
:103D90007DF9814905F045F906F078F97F4905F08C
:103DA00040F906F073F97E4905F03BF906F06EF92B
:103DB0007C4905F036F906F069F97B4905F031F9DF
:103DC00006F064F9794905F02CF906F05FF97849B5
:103DD00005F027F906F05AF9764905F022F906F0C0
:103DE00055F9754905F01DF906F050F9734905F0CC
:103DF00018F906F04BF9724905F013F906F046F987
:103E0000704905F00EF906F041F96F4905F009F91E
:103E100006F03CF96D4905F004F906F037F96C49F4
:103E200005F0FFF806F032F96A4905F0FAF806F0F5
:103E30002DF9694905F0F5F806F028F9674905F00C
:103E4000F0F806F023F9664905F0EBF806F01EF9E4
:103E5000644905F0E6F806F019F9634905F0E1F860
:103E600006F014F9614905F0DCF806F00FF9604935
:103E700005F0D7F806F00AF95E4905F0D2F806F029
:103E800005F95D4905F0CDF806F000F95B4905F04C
:103E9000C8F806F0FBF85A4905F0C3F806F0F6F842
:103EA000584905F0BEF806F0F1F8574905F0B9F8A1
:103EB00006F0ECF8554905F0B4F806F0E7F8544977
:103EC00005F0AFF806F0E2F8524905F0AAF806F05E
:103ED000DDF8514905F0A5F806F0D8F84F4905F08E
:103EE000A0F806F0D3F84E4905F09BF806F0CEF89E
:103EF0004C4905F096F806F0C9F84B4905F091F8E1
:103F000006F0C4F8494905F08CF806F0BFF84849B6
:103F100005F087F806F0BAF8464905F082F806F091
:103F2000B5F8454905F07DF806F0B0F8434905F0CD
:103F300078F806F0ABF8BDE80840414905F071B8E3
:103F400028FE08083EFE080853FE080867FE080819
:103F50007BFE08088EFE0808A3FE0808B7FE0808C6
:103F6000CEFE0808E4FE0808FAFE08080FFF08085D
:103F70002CFF080848FF080862FF08087BFF0808B4
:103F800095FF0808AEFF0808CAFF0808E7FF080801
:103F9000000009081C000908340009084D00090840
:103FA000660009087A0009088F000908AA000908B4
:103FB000C5000908DB000908EC000908FE00090833
:103FC0000F010908210109084A01090873010908BC
:103FD000A2010908C7010908EC010908140209082F
:103FE0005402090897020908C202090805030908D2
:103FF0004B0309087F0309089D030908C103090849
:10400000DC030908060409083B0409085F040908E1
:10401000730409088F040908B4040908D8040908BE
:10402000FD04090825050908510509089405090832
:10403000C6050908EC05090852060908B60609086C
:10404000CB06090838B5046805467CB16368013BB6
:1040500063605BB9236820469B689847A368013B6F
:10406000A3601BB923682046DB689847284638BD03
:1040700030B58BB02949054602A804F010FE04F0C3
:104080005FFA274C274B08B11A682ABB1B6843B953
:104090002368E3B105F0FAFF234904F0C2FF224987
:1040A0000CE0224A138823F002031380236873B1C3
:1040B00005F0ECFF1E4904F0B4FF1D4906A804F00A
:1040C000EEFD06A8FDF72CFB06A804F0A1FD02A852
:1040D00004F09EFD0BB030BD144A1649138806A8A3
:1040E00043F002031380144B2A681B788DF80030CC
:1040F0003C2305F097FD07A8FFF7A4FF04F014F890
:104100000E4B186004F00CFA2368002BDFD005F08A
:10411000BDFF0B4904F085FF0949CFE76611090887
:10412000CC0A002014020020F5060908440B0020E8
:104130000B07090829070908E0060020B00C002039
:10414000DF0609082DE9F041DCB005F070FAB34B49
:10415000B3491A68B34B064603A81A6004F09FFDE2
:10416000AF4907A804F09BFDAD490BA804F097FDEB
:10417000AB490FA804F093FDA94913A804F08FFDE3
:104180005E2103A804F07CFE0A2201211BA804F092
:10419000FAFD1BA91FA804F0C1FDA3491FA804F044
:1041A00088FE014603A804F058FE1FA804F030FD65
:1041B0001BA804F02DFD9D4C5A2117A804F0D2FD38
:1041C00017A91FA804F0AAFD0A2221681BA804F061
:1041D000DAFD1BA91FA804F060FE014603A804F045
:1041E0003CFE1BA804F014FD1FA804F011FD17A845
:1041F00004F00EFD0A2221681BA804F0C4FD1BA9CF
:104200001FA804F08BFD8A491FA804F052FE014646
:1042100007A804F022FE1FA804F0FAFC1BA804F073
:10422000F7FC844C4D2117A804F09CFD17A91FA88A
:1042300004F074FD032221681BA804F0CAFD1BA929
:104240001FA804F02AFE014603A804F006FE1BA8DE
:1042500004F0DEFC1FA804F0DBFC17A804F0D8FC77
:10426000032221681BA804F0B4FD1BA91FA804F0B9
:1042700055FD6F491FA804F01CFE014607A804F075
:10428000ECFD1FA804F0C4FC1BA804F0C1FC6A4BA1
:10429000032219681BA804F09CFD1BA91FA804F0A9
:1042A0003DFD63491FA804F004FE014607A804F081
:1042B000D4FD1FA804F0ACFC1BA804F0A9FC6121EC
:1042C0001FA804F04FFD1FA903A804F0C6FD1FA8F6
:1042D00004F09EFC594801F0E9FE0022002306F09C
:1042E00093FF002831D1554801F0FBFE38B95449FD
:1042F00007A804F0B6FD524903A804F0B2FD4F48E8
:1043000001F0D4FE062402460B4600941BA804F0DC
:1043100077FD1BA91FA804F001FD45491FA804F063
:10432000C8FD014607A804F098FD1FA804F070FC22
:104330001BA804F06DFC414801F0B8FE0094024651
:104340000B461FA804F05CFD19E03E491BA804F0D1
:10435000A6FC1BA91FA804F0E1FC35491FA804F026
:10436000A8FD014607A804F078FD1FA804F050FC42
:104370001BA804F04DFC33491FA804F090FC1FA9B2
:1043800003A804F06AFD1FA804F042FC6F211FA8D7
:1043900004F0E8FC1FA903A804F05FFD1FA804F0C7
:1043A00037FC264801F087FE0022002306F02CFF90
:1043B000002849D1214801F097FE012807D1204962
:1043C00007A804F04EFD1E4903A804F04AFD1B484F
:1043D00001F071FE062402460B4600941BA804F06F
:1043E0000FFD1BA91FA804F099FC11491FA804F098
:1043F00060FD014607A804F030FD1FA804F008FC8A
:104400001BA804F005FC0D4801F055FE009402467F
:104410000B461FA804F0F4FC30E000BFD4000020DD
:10442000CC170908D00B00202F07090888000020AE
:104430009E13090870070020A00A002038090020F8
:10444000CBF40808A800002033491BA804F027FC7F
:104450001BA91FA804F062FC30491FA804F029FD25
:10446000014607A804F0F9FC1FA804F0D1FB1BA823
:1044700004F0CEFB28491FA804F011FC1FA903A8D3
:1044800004F0EBFC1FA804F0C3FB63211FA804F099
:1044900069FC1FA903A804F0E0FC1FA804F0B8FB06
:1044A0001F4801F008FE0022002306F0ADFE0028A0
:1044B0003AD11B4801F004FE06F0D8FB0022194B4C
:1044C00006F064FD062402460B4600941BA804F087
:1044D00097FC1BA91FA804F021FC10491FA804F099
:1044E000E8FC014607A804F0B8FC1FA804F090FB04
:1044F0001BA804F08DFB0A4801F0E2FD06F0B6FBB4
:104500000022084B06F042FD009402460B461FA80D
:1045100004F076FC22E000BFB40000209E130908DE
:1045200038090020000024409A491BA804F0B7FB7A
:104530001BA91FA804F0F2FB97491FA804F0B9FCBF
:10454000014607A804F089FC1FA804F061FB1BA822
:1045500004F05EFB8F491FA804F0A1FB1FA903A86C
:104560008E4D04F07AFC1FA804F052FB0A22298821
:104570001BA804F008FC1BA91FA804F0CFFB864968
:104580001FA804F096FC014607A804F066FC1FA8CB
:1045900004F03EFB1BA804F03BFB814B32468149F3
:1045A0001FA804F0F1FF1FA907A804F056FC1FA8DC
:1045B00004F02EFB592117A804F0D4FB17A91FA85B
:1045C00004F0ACFB05F033F80A2201461BA804F006
:1045D000EDFB1BA91FA804F060FC014603A804F032
:1045E0003CFC1BA804F014FB1FA804F011FB6E4C4C
:1045F00017A804F00DFB262103A804F041FC236852
:104600004BB105F043FD694904F00BFD05F03EFD9B
:10461000039904F006FD03A91BA804F07FFB64497D
:104620001FA804F03CFB1FA91BA8FFF721FD1FA832
:1046300004F0EEFA1BA804F0EBFA5E4B1B68ABB17A
:10464000236873B105F022FD5B4904F0EAFC5B4985
:104650001FA804F024FB1FA8FDF762F81FA804F0B0
:10466000D7FA05F029FE039904F0DBFC05F00EFDF6
:10467000079904F0D6FC524902230C22A1F58E6062
:10468000FCF76AFA002836D0236823B105F0FEFC57
:104690004C4904F0C6FC4C4A4C494D4C4623126828
:1046A00009684C4802F01FFE2368EBB94A494B48A1
:1046B00004F0B7FC04F0BBFF01461FA804F0E4FEC1
:1046C0001F99464804F0ADFC1FA804F0A1FA444924
:1046D0001FA804F0E4FA1F99404804F0A2FC1FA8A8
:1046E00004F096FA0123236007993C4804F099FCF2
:1046F000384802F0F1FD3B4F1FAC00260123237028
:104700003B686370C3F30723A370374B1B68E370E8
:10471000F3B2013B092B06D8DFE803F0090D1317AC
:104720001B22272F347A4D232371304B73E0432310
:1047300023712F4B6FE0782323712E4805F038F852
:104740006AE0722323712C4B06E0522323712B4B1A
:1047500061E0712323712A4B186806F0EFFE5BE0DD
:1047600074232371FCF7C4FD56E050232371254BBD
:104770002549586806F0EAFF4EE068232371FCF7EC
:1047800035FE49E073232371204BD3E9000106F085
:10479000CBFD41E0800000209E130908440B00205F
:1047A000CDF40808CC0B0020CC0A00203107090802
:1047B0004907090828020020540709087E0709084C
:1047C0009C060020A5070908AC0A0020940B0020D5
:1047D000500B0020B806002074F10808B006002035
:1047E000BA07090888000020200200207007002076
:1047F0001802002080080020900800207009002086
:10480000F40A0020E80600200000C842E80A002060
:1048100067232371324B1868C0F307236071A371BB
:10482000C0F30743C0F30760E37120722D4801F025
:104830004CFC6072C0F30720A0722A4801F048FCCB
:10484000E072C0F307202073264801F044FC607337
:10485000C0F30720A073234801F040FCE073C0F3CD
:10486000072020741F4801F03CFC80461D4801F0E1
:104870003BFC48EA000060741A4801F021FC6B78A8
:104880000136E3742B780B2E23754FF02303A074AD
:10489000637504F116047FF431AF05F00DFD124984
:1048A00004F0ACFB05F008FD0368F222DB681FA9E9
:1048B000984705F001FD0D4904F0A0FB13A804F092
:1048C000A7F90FA804F0A4F90BA804F0A1F907A810
:1048D00004F09EF903A804F09BF95CB0BDE8F081F8
:1048E000E00A0020380900203C080908E1F4080823
:1048F000F0B58FB0544902A804F0D1F9534C544993
:1049000006A804F0CCF905F0D7FC40F6B83104F065
:104910000CFD236873B105F0B9FB4E4904F081FB2F
:104920004C490AA804F0BBF90AA8FCF7F9FE0AA84A
:1049300004F06EF905F0C0FC029904F05FFB00265C
:104940000027002505F0B8FC03681B699847E0B90B
:10495000DDB90022404B3046394606F03BF838A31B
:10496000D3E9002306460F4606F076FC0028E9D07E
:1049700023680BB90125E5E705F088FBCDE9006761
:10498000364A294604F082FCF4E70A2004F09CFE33
:1049900005F092FC01460AA804F0CAFC0AA906A880
:1049A00004F0C7F90AA804F033F923689BB105F0B5
:1049B0006DFB2B4904F022FB05F068FB069904F01F
:1049C00030FB28490AA804F06AF90AA8FCF7A8FEF7
:1049D0000AA804F01DF903F0B3FD30B3224B1B68A5
:1049E0001BB3224B069A1B7821498DF800300AA888
:1049F0003C2305F017F90BA8FFF724FB03F094FB09
:104A00001C4B186003F08CFD236873B105F03EFB6E
:104A1000194904F006FB18490AA804F040F90AA84D
:104A2000FCF77EFE0AA804F0F3F806A804F0F0F8FC
:104A300002A804F0EDF80FB0F0BD00BFAFF30080A6
:104A400000000000004CCD403E080908CC0A0020C0
:104A500066110908410809080000F03F5F080908CD
:104A60009A080908B308090814020020E00600208B
:104A7000E1080908B00C0020CA08090813460A46D4
:104A8000002104F003BC000038B51D4803F032FEDD
:104A9000054605F0FBFA2A461A49FFF7EFFF642D99
:104AA00016D0962D16D0B5F5FA7F16D0B5F5617FE4
:104AB00016D0B5F5966F40F2DC5416D0A54212D050
:104AC00040F6B832B5F5FA6F14BF2C4614460CE028
:104AD00096240AE04FF4FA7407E04FF4617404E09E
:104AE0004FF4966401E04FF4FA64A1B2044803F075
:104AF00039FE05F0CBFA22460349FFF7BFFF38BD68
:104B0000A40A0020AA090908C8090908F0B5334811
:104B100085B003F0FBFD054610F0800F0CBF0024AC
:104B20004FF40064470648BF04F58064860648BF1A
:104B300004F50074E80648BF04F58074290748BFEF
:104B400080346A0748BF403405F0A0FA2246244961
:104B5000FFF794FF281DC0B2030658BF002100F0E4
:104B6000400346BF01214FF400640C4603F0FF02EE
:104B700013B104F58064012200F0200505F0FF0365
:104B800015B104F50074012300F0100606F0FF05CE
:104B900016B104F58074012500F0080707F0FF0640
:104BA0000FB18034012600F0040000F0FF0710B1BF
:104BB0004034012000E0384602908DE8600007484C
:104BC00003F033FE054803F0A1FD05F05FFA22462D
:104BD0000449FFF753FF05B0F0BD00BFA40A002051
:104BE000E60909080F0A09082DE9F04F8DB0AA4916
:104BF00004A804F054F8A94B1A689A4622B105F0AB
:104C000045FAA74904F00DFAA64D0021288805F0C1
:104C1000BEFC05F047FD0122492105F0F1FB03959B
:104C2000044650B9DAF80030002B3ED005F02EFAD9
:104C30009D4904F0F6F99C492DE003219B4801F0C1
:104C40006AF9044606F07AFC994B196806F0CAFC2A
:104C5000984906F07BFD06F01BF80022964B0646AD
:104C60000F4605F0B5FE06F017FB0028B8BF40421E
:104C700005F0FCFF0022914B06F0EEFAB0B1DAF835
:104C800000309BB105F002FA0021CDE900678C4AA3
:104C900004F0FCFA8B4908A804F001F808A8FCF716
:104CA0003FFD08A803F0B4FF00E01C460021864841
:104CB00000F0DBFF88B9DAF8003073B105F0E6F9EF
:104CC000824904F0AEF9824908A803F0E8FF08A879
:104CD000FCF726FD08A803F09BFF05F0E3FC01228A
:104CE000492105F08DFB002800F0BC8000217648AA
:104CF00000F0BBFF002800F0B580002425462746C1
:104D000026464FF00A080021684801F004F9012105
:104D10000644664801F0FFF802210744634801F0A9
:104D2000FAF803210544614801F0F5F808F1FF386D
:104D300018F0FF080444E6D10A2394FBF3F496FB31
:104D4000F3F697FBF3F795FBF3F5594B2046D3F8B1
:104D5000008006F0F3FB414606F044FC81463046F5
:104D600006F0ECFB414606F03DFC0146484606F0E5
:104D70002FFB584906F0EAFC8346384606F0DEFB76
:104D8000414606F02FFC0146484606F021FB5249F9
:104D900006F0DCFC8046FCF7ABFA504906F0CAFD91
:104DA00020B14146584606F013FB1FE0FCF7A0FA7D
:104DB0004B4906F0BFFD20B14146584606F00AFBBC
:104DC00014E0404605F064FF2FA3D3E9002305F06B
:104DD000B3FF80465846894605F05AFF02460B4607
:104DE0004046494605F0F6FD06F09EFA05F050FFF4
:104DF00027A3D3E9002306F0C9F806F095FA0222AA
:104E00000146804608A803F0E4FF08A904A803F0BF
:104E100090FF08A803F0FCFE039B0121188805F011
:104E2000B6FBDAF800303BB305F030F92D4904F059
:104E3000E5F805F02BF932462B49FFF71FFE05F088
:104E400025F93A462949FFF719FE05F01FF92A46C8
:104E50002749FFF713FE05F019F922462549FFF708
:104E60000DFE09E00025244904A803F06AFF4FF075
:104E700000082F462E46CFE704A803F0C9FE40469F
:104E80000DB0BDE8F08F00BF52B81E85EB51E83F72
:104E9000B6F3FDD478E9D63FCC170908CC0A002038
:104EA0002D0A090898000020410A0908940A0020E8
:104EB000A000002000007A440000F43F0000E03F22
:104EC000660A0908780A0908E0010020910A090821
:104ED000B50A09080000F0C2000016C300007041C6
:104EE0000000C841C80A0908DD0A0908EA0A0908D9
:104EF000F70A0908050B090856F1080873B50D4DA6
:104F000005F0C4F803681B699847044680B9FFF7A9
:104F10006BFE286005F0BAF80646286805F0B8FE72
:104F2000054ACDE900012146304604F0AFF9E7E734
:104F300002B070BD70070020150B0908F0B5C84C11
:104F40003023C84E8DB023702378782B00F0408436
:104F500005F09CF8C44904F051F805F097F803688F
:104F6000DB69984705F092F803681B6998470028A9
:104F7000F8D005F08BF803685B699847C0B22070E1
:104F800021385928E0D801A353F820F0FB5608082F
:104F9000494F08088F570808494F0808494F080823
:104FA000494F0808494F0808494F0808494F080861
:104FB000C1570808494F0808494F0808494F0808D1
:104FC000494F0808494F0808F5560808375508089A
:104FD0003D5508084355080829560808455608084D
:104FE0006D56080889560808B1560808EF56080893
:104FF000494F0808494F0808494F0808494F080811
:10500000494F0808C957080867570808FD5108089C
:10501000035208082F5208084D520808C5520808C4
:10502000E1520808F75208081F53080839530808C6
:105030003F5308084B5308085B530808615308089E
:1050400083530808A9530808B9530808C753080828
:10505000DB5308080B5408083B5408086754080839
:1050600093540808A5540808D3540808494F080861
:10507000E3540808494F0808494F0808494F0808F1
:10508000494F0808494F0808494F0808F5500808D3
:10509000FB50080801510808075108080D5108087D
:1050A00013510808195108081F510808255108080C
:1050B0002B51080831510808375108083D5108089C
:1050C00043510808495108084F510808555108082C
:1050D000655108087F510808975108089D51080834
:1050E000A3510808A9510808494F0808AF510808FA
:1050F000CB510808FDF7F6FD26E7FDF771FE23E723
:10510000FDF7CEFE20E7FDF751FF1DE7FDF7AEFFEF
:105110001AE7FEF727F817E7FEF782F814E7FEF71D
:10512000FBF811E7FEF756F90EE7FEF7CFF90BE7AC
:10513000FEF72AFA08E7FEF7A3FA05E7FEF7FCFAFE
:1051400002E7FEF775FBFFE6FEF7D0FBFCE6FEF795
:105150004BFCF9E604F09AFF444903F062FF444D2A
:10516000012306E004F092FF414D424903F059FF4C
:1051700000232B6005F06AFA294648201CE304F05E
:1051800085FF05463C4908A803F089FD0899284693
:1051900003F047FFCBE1FDF7A7FCD5E6FDF7F2FCF6
:1051A000D2E6FDF7E5FBCFE6FDF7C8FACCE6334DD6
:1051B0002B681BB904F06AFF314902E004F066FF76
:1051C000304903F02EFF012312E02C4D2B68012BF8
:1051D00008D104F05BFF2C4903F023FF2B48FBF7B9
:1051E00022FC04E004F052FF294903F01AFF0023D7
:1051F0002B6005F02BFA21494420DDE2FFF77EFE0B
:10520000A2E6244B1A68012A05D100221A6004F094
:105210003DFF214904E001221A6004F037FF1F49D5
:1052200003F0FFFE05F012FA1A496420C4E21C4B99
:105230001A680AB9012258E004F028FF194903F05E
:10524000F0FE05F003FA16496020B5E2164B1A6825
:10525000012A2DD100221A6004F018FF13492AE018
:105260006C070020E8060020250B09082B0B090815
:10527000CC0A0020450B0908BA07090814020020CF
:10528000600B0908730B09088D0B0908280C002016
:10529000A00B0908AC070020BB0B0908CF0B0908BD
:1052A000A8060020E20B0908640700200C0C09087E
:1052B00004F0ECFEAE4903F0B4FE05F0C7F9AD49C9
:1052C000682079E2AB4B1A68012A03D104F0DEFEB4
:1052D000A949F0E701221A6004F0D8FEA749EAE7DD
:1052E000A74B1A68012A02D100221A60A9E704F02C
:1052F000CDFEA449A3E7A44B1A68012A03D104F008
:10530000C5FEA24904E001221A6004F0BFFEA049D4
:1053100003F087FE05F09AF99B496C204CE29A4B0A
:105320001A681AB904F0B2FE9A49F1E700221A602D
:1053300004F0ACFE9849EBE7FDF770FC04E6FCF7DF
:10534000DFFD04F0A3FE954911E004F09FFE9449AF
:1053500003F067FEFBF754FFF6E5FDF78DFBF3E581
:10536000904D2B68012B05D104F090FE8E4903F07F
:1053700058FEE9E504F08AFE8C4903F052FE012351
:105380000CE0884D2B681BB904F080FE8849EEE7DD
:1053900004F07CFE874903F044FE00232B6005F0F7
:1053A00055F92946782007E204F070FE824903F09F
:1053B00038FEFBF78BFFC7E504F068FE7F4903F07A
:1053C00030FE6B2105E004F061FE7D4903F029FE0B
:1053D0004B210720FBF7EAFBB6E57A4D2B6883B13A
:1053E00004F054FE784903F01CFE00232B6005F006
:1053F0002DF929467C20FBF7E4FA744800F0A3FE5F
:10540000A2E504F043FE7249B1E76E4D2B6883B903
:1054100004F03CFE6F4903F004FE01232B6005F00D
:1054200015F929467C20FBF7CCFA684800F0B0FE5D
:105430008AE504F02BFE684999E7684D2B6833B97B
:1054400004F024FE664903F0ECFD012305E004F0BE
:105450001DFE644903F0E5FD00232B6005F0F6F81E
:1054600029468020A8E1604D2B6833B904F00EFE78
:105470005E4903F0D6FD012305E004F007FE5C4918
:1054800003F0CFFD00232B6005F0E0F829468420CF
:1054900092E104F0FBFD574903F0C3FD4B4800F0D7
:1054A0002DFE51E5544D2B68012B06D104F0EEFD85
:1054B000524903F0B6FD002305E004F0E7FD504932
:1054C00003F0AFFD01232B6005F0C0F829468820CA
:1054D00072E101213D4800F081FE4A4BB4221A607E
:1054E00032E504F0D3FD484903F09BFD474908A885
:1054F00002F0A4FC089A46494648FBF7A1FA08A81E
:1055000003F086FB414908A802F0B4FC089A42491E
:105510004048FBF795FA08A803F07AFB3B4908A836
:1055200002F0C4FC089A3D493A48FBF789FA08A8FA
:1055300003F06EFB08E5FEF7B3FA05E5FEF734FB72
:1055400002E504F0A3FD364903F058FD04F09EFD8A
:105550000A22462103F0D3FD04F098FD314903F0FF
:105560004DFD04F093FD0A220D2103F0C8FDEBE48C
:105570002D0C090864070020510C0908740C090857
:10558000A8060020920C09083C0B0020BF0C09085B
:10559000E70C09080B0D0908340D090881F4080807
:1055A000590D0908480B0020750D0908970D0908C9
:1055B000BB0D0908DE0D0908030E09081E0E0908B7
:1055C000310E0908880800204C0E09084C0B0020F9
:1055D0006F0E09088A0E0908AC0E0908E8010020C0
:1055E000C60E0908E10E0908E4060020FD0E0908B0
:1055F0001C0F09083B0F0908400B0020530F090836
:10560000770F0908AC0600209A0F09089C0B0020B0
:10561000D10F0908A40B0020D90F0908E10F0908D0
:10562000EA0F090899F408086D4D2B681BB904F0BE
:105630002DFD6C4902E004F029FD6B4903F0F1FCFB
:1056400001230DE0664D2B68012B03D104F01EFDF4
:10565000664902E004F01AFD654903F0E2FC00230C
:105660002B6004F0F3FF5E495820A5E0614D2B68E4
:105670001BB904F00BFD604902E004F007FD5F492F
:1056800003F0CFFC01230DE05A4D2B68012B03D111
:1056900004F0FCFC5A4902E004F0F8FC594903F01C
:1056A000C0FC00232B6004F0D1FF52495C2083E052
:1056B00004F0ECFC544903F0A1FC544803F02CF82E
:1056C000054604F0E3FC0A22294603F0EAFC04F054
:1056D000DDFC4F4903F092FC4C4803F01AF80546F4
:1056E00004F0D4FC0A22294603F0DBFC2CE4FFF78B
:1056F0000DFA29E4FFF7C8F926E404F0C7FC454990
:1057000003F08FFC04F0C2FC03681B699847054650
:1057100000287FF419AC404802F0BAF818B904F038
:10572000B5FC3E4957E004F0B1FC0746B06805F00F
:10573000AFFACDE90601706805F0AAFACDE90401D7
:10574000306805F0A5FACDE902013549F06805F0A9
:10575000FDFF05F09DFA334ACDE9000129463846A0
:1057600003F094FDCEE7304D2B68012B0BD104F0F4
:105770008DFC2E4903F055FC00232B6004F066FFDE
:1057800029468C2018E0FDF7B1F8FFF7DDBB284D66
:105790002B68012B05D100232B6004F077FC2549F1
:1057A00004E001232B6004F071FC234903F039FC71
:1057B00004F04CFF29469020FBF703F9FFF7C4BB28
:1057C000FCF798FEFFF7C0BBFEF772FAFFF7BCBB11
:1057D00004F05CFC194903F024FC0DB0F0BD00BFDF
:1057E0008C0A0020F80F0908071009081D10090885
:1057F0002D100908540B0020441009085210090804
:1058000067100908771009088E100908A40A0020FB
:1058100096100908A6100908E8060020E1100908FA
:105820000000C842F710090898080020281109084C
:10583000100200204A11090868110908B01109086E
:105840001FB5724C04F022FC714903F0EAFBD4E965
:10585000000100226F4B05F0BDF8C4E90001FFF71D
:10586000C3F96D4B1860FBF70BFE6C4B1860FCF72F
:1058700021F9FBF7A5FF03F0DAFE694B1860694BCD
:105880001A68694B1A60FFF733F8FCF733FEFEF72E
:1058900059FC04F0FBFB03681B69984700281DDDD9
:1058A00004F0F4FB0368614C5B699847604B20701F
:1058B0001B684BB104F0EAFB5E4903F09FFB04F068
:1058C000E5FB217803F0B7FB04F0E0FB217803F05F
:1058D000B2FB23786D2B01D1FFF730FB564B1B68D1
:1058E0006BB1564A138843F00103138002F028FE7F
:1058F000002838D1524B1A78002A34D143E002F004
:105900001FFEA0B14A4B1B6873B104F0BFFB4D49A9
:1059100003F087FB4B49684603F0C1F96846FBF783
:10592000FFFE684603F074F94748FBF77CF8474CE4
:10593000204600F049FA464B1B68012B64D14548CC
:1059400003F036FF444905F0EBFF00285CD094F8E3
:105950002130002B58D104F099FB404903F061FB42
:10596000FCF772FA50E002F0EBFD0028DFD0304B7C
:105970001B6823B104F08AFB394903F052FB304B1A
:1059800000221A70D3E72A4C01221A70236873B1DF
:1059900004F07CFB334903F044FB3249684603F0D2
:1059A0007EF96846FBF7BCFE684603F031F92648ED
:1059B00000231A461946406802F072FD236873B14D
:1059C00004F064FB284903F02CFB2849684603F0E7
:1059D00066F96846FBF7A4FE684603F019F902F081
:1059E000A7FD2368002BA2D004F050FB204903F050
:1059F00018FB1F49684603F052F96846FBF790FE12
:105A0000684603F005F992E704B010BDD80A0020FB
:105A1000C71109080000F03F70070020A00A00200D
:105A2000C00A0020D4000020D00B00206C0700200A
:105A3000CC0A0020D311090814020020440B0020D6
:105A4000D00A002062120908280C002074070020E8
:105A5000480B0020800800200000A04186120908A1
:105A60003A120908E211090801120908121209087C
:105A700023120908F8B55A4B5A4C5B4D01261E708B
:105A800002F0BAFA204602F095F82A465749204615
:105A900004F048FE4FF6FF72554B00241C705C80EA
:105AA0009A80032002F088FC2146304602F094FCE4
:105AB0004FF0FF314F4801F0D5FE4F4800F01DFB7D
:105AC0004E4800F0D1F84E4800F0CEF84D4E492136
:105AD0004D4800F010FA4A214C4800F00CFA2146DB
