:020000040808EA
:1000000000000808C0110908000006000A000501E8
:0800100004027E05000000005F
:0400180014E30808DD
:1000200009480A4908B5884205D0094A824202D0E7
:10003000121A0BF0FCF90748074A0021121A0BF0BC
:100040001CFA064808BD00BF00000020CC0F0908BC
:10005000CC010020D001002010230020102300201C
:1000600070B508F015FE074B074C1E46E41AA408AD
:100070000025A54204D056F8253098470135F8E709
:1000800070BD00BFD40E0908C00F090802F014B9F2
:1000900008B504F091FABDE8084008F0BBBD07F0D0
:1000A00077BB07F07DBB0078B0FA80F0400970475D
:1000B00001230370704748B1836C3BB1C36C2BB113
:1000C000006DB0FA80F04009404270474FF0FF30B9
:1000D000704773B5024608460C46FFF7ECFF05462D
:1000E00050BB12F0800FCA7814BF002310239A422D
:1000F00022D0CB708E6C01230DF10702F3216078C2
:10010000B04784F8540010B16FF0010514E0E378B3
:10011000E66C03F010029DF80730732123F0100302
:1001200013438DF807300DF1070201236078B047C3
:1001300084F854000028E7D1284602B070BD40B1D1
:1001400003788B4208D90170137843F002031370CF
:1001500002E04FF0FF307047002070472DE9F84370
:1001600006461846884691461D46FFF7A4FF0446FA
:10017000A8B9AB783BB929463046FFF7AAFF044639
:1001800008B946F08006AF6C4B4642463146687867
:10019000B847002885F8540018BF6FF001042046C6
:1001A000BDE8F8832DE9F04F1E468BB083468A46A2
:1001B00014460021282268460BF05FF93046FFF70D
:1001C0007AFF0546A8BB631E122B30D80DF101083B
:1001D0005F46C1460AF1FF3AA4B2CBEB07039BB2DC
:1001E0009C4213D9B37843B931463878FFF771FF91
:1001F0003B78054603F07F0300E03B7808F8013CBC
:100200001AF8013F013708F8023BE6E78DB96300B1
:10021000013BF46C9BB24A469DF800107078A047F1
:10022000002886F8540018BF6FF0010501E06FF058
:10023000030528460BB0BDE8F08F37B5742304469C
:100240008DF80730FFF737FFA0BB05462346012294
:100250000DF106017420FFF781FFA0B99DF806306B
:1002600013F0030511D023F003038DF806300122AB
:1002700023460DF106010DF10700FFF793FF236DF3
:100280000A209847E2E7002DE0D194F844308BB182
:100290009DF8062003F0030322F0030213438DF8B8
:1002A000063038B9234601220DF106010DF1070091
:1002B000FFF778FF03B030BD2DE9F041002388B08F
:1002C000064608460C468DF807300493ADF8143006
:1002D0000693ADF81C30FFF7EEFE002840F0648175
:1002E000320791F844706AD5012FADF80800ADF8D7
:1002F0000C0063D15A238DF80830B1F84030C72B79
:1003000005D9B3F5C87F28BF4FF4C87300E0C823F0
:10031000B4F91220142102F5163202F29912534355
:1003200093FBF1F30A2103F5481393FBF1F394F9DE
:10033000112094F9140002F544725A4394F90430E0
:1003400058434FF47A7390FBF3F31B0203EB620103
:1003500094F83430043391FBF3F294F9351083238D
:100360004B4303F5803392FBF3F32222FA3B5343D2
:100370006422323393FBF2F38DF80C30B4F8423040
:100380008DF80920B3F57C6F0BD200223F2BD1B240
:1003900002F1010201D99B08F8E703EB8113DBB2FC
:1003A00000E0FF238DF80D30002384F83C3002225A
:1003B000234603A902A8FFF7F5FE00E00120002371
:1003C00084F8443010B92046FFF737FF06F01005D7
:1003D000ADB205B304F14602072104F13B00FFF77B
:1003E000AEFE30B9234601220DF107017520FFF75B
:1003F000B5FE94F83B3001259B0003F01C029DF8EC
:10040000073023F01C03134375228DF807308DF855
:1004100010208DF81830B30622D504F146020821C9
:1004200004F13D00FFF78BFE30B9234601220DF1A8
:1004300007017020FFF792FE9DF80730702123F02E
:10044000080294F83D3003F00803134308AA2A4435
:1004500001358DF8073002F8101C02F8083CEDB2A7
:10046000B10733D004F14602052104F13900FFF74A
:1004700066FE30B9234601220DF107017420FFF713
:100480006DFEF20709D59DF8073094F8392003F086
:100490001F0343EA42138DF80730B3070BD594F8D6
:1004A0003A309B0003F01C029DF8073023F01C0338
:1004B00013438DF8073008AB2B44742203F8102C3B
:1004C0009DF80720013503F8082CEDB2710722D5FD
:1004D00004F14602052104F13800FFF730FE30B97F
:1004E000234601220DF107017220FFF737FE9DF828
:1004F0000730722123F0070294F8383003F0070325
:10050000134308AA2A4401358DF8073002F8101C5D
:1005100002F8083CEDB216F0C00F3CD004F14608DA
:100520004246012104F13E00FFF709FE68B9424648
:100530000A2104F13C00FFF702FE30B923460122F4
:100540000DF107017120FFF709FE72060BD594F833
:100550003E301B0103F010029DF8073023F010031A
:1005600013438DF8073033060AD59DF8073023F082
:100570000F0294F83C3003F00F0313438DF807305B
:1005800008AB2B44712203F8102C9DF8072001358D
:1005900003F8082CEDB228B923462A4606A904A878
:1005A000FFF700FE84F8447008B0BDE8F081000059
:1005B00013B5184B044618689B8802AAADF804309E
:1005C00091F839300090134491F83A2002A802447F
:1005D00012F8082C13F8083C134491F83820024410
:1005E00012F8082C134440F2AB72534303F59553B1
:1005F0004FF47A721933B3FBF2F301339BB22380C9
:1006000091F83E201AB1B1F842201344238002B081
:1006100010BD00BF28E308082DE9F04F804689B0DF
:1006200008460C46FFF747FD0546002840F0678165
:1006300004AF01460F2238460AF01FFF2046FFF79D
:100640003AFD05460A26002D40F0538123460F222D
:1006500039461D20FFF782FD05469DF810009DF8E4
:100660001EE000F00F0388F801309DF8113020F0F3
:100670007F0088F802309DF812309DF813900093A7
:100680009DF818309DF814C001939DF819309DF81D
:1006900015B002939DF81D309DF8161003934FFA84
:1006A0008EF303F0200A40EA0A0003F01003184317
:1006B00040B200289DF8172088F8000080F21681CB
:1006C000120942EA011141EA0B3BE18AB4F9180030
:1006D0004900C1EBDB010A46CB175B104FEA32023F
:1006E00002FB03F6A2FB02234FEA123A94F91A2006
:1006F00003EB46034AEA035A4FEA233B1301DF1791
:100700000AFB07F680FB010103FB0B66AAFB032330
:10071000C00A3344920B40EA415042EA83428318B4
:10072000236303EB830380331B12A8F80430236B8D
:1007300094F926005B10A3F57A439A105243D11224
:100740004843B4F9241052135943490001EBA00166
:10075000B4F91E004FEA1C1C434394F920004CEAF4
:10076000091940014243D21002EB63039B14A28B90
:1007700003F500435343009ADB1349EA0239B4F905
:100780002220C9F58019120402EBA10140F635427E
:10079000A9EB21315143B1FBF3F35B00D91049437D
:1007A000B4F92A20B4F9280049134A439910414367
:1007B0001E12491301EB223106FB06F2564394F850
:1007C0002C20724301EB624294F9271002EBC11214
:1007D00003EB2213C8F80830236B94F90E1003EBD7
:1007E000830380331B125943642291FBF2F194F985
:1007F0000D0059435843891190FBF2F091FBF2F13F
:100800006789014401F58041794301988F1202996B
:10081000268941EA002094F90C10A0EB06165943F2
:1008200091FBF2F1A6EB610000FB07F194F91000D7
:100830000EF00F06434393FBF2F240F23C50E37B91
:100840004FEA9E1E02EBC3128B135B4312119B12E5
:10085000534301EB63034FF47A729B1253432A4ACA
:100860001B1323EAE3739342D4BFC8F80C30C8F8D3
:100870000C2094F9363005220021C3FB0201234BE2
:1008800053F82670A0FB072307FB0133100C40EA46
:1008900003401914039B1E4F4EEA830E4FEACE32DB
:1008A00057F826E012F17F42AEFB00670EFB01779E
:1008B0004FF0000343F1FF3312184B41700A40EA36
:1008C000C75079125F104FEA3206801979410AF059
:1008D0004DFAC8F8100095B998F90030002BBABF4E
:1008E000012384F8453084F8455008E0236D0A2040
:1008F0009847013E16F0FF067FF4A5AE0225284674
:1009000009B0BDE8F08F00BFA08601000000002004
:10091000400000207047037C024603F0080303F008
:10092000FF002BB1D36A506A181A48BF6FF000401D
:10093000704770477047704710B504462C2109F086
:10094000CEF8204610BD10B50446342109F0C7F892
:10095000204610BD10B5044641F2300109F0BFF841
:10096000204610BD7FB5024613790846956833B11D
:100970003DB90C4904B0BDE8704007F00FBD0A4B0B
:1009800000E00A4B167B0A4C0A49527B012E08BF35
:100990002146029201910095074A002107F046FE88
:1009A00004B070BDDBE30808F0050908CAE30808D5
:1009B000D3E30808D7E30808F1E30808083005F096
:1009C00017BD103005F014BD07B502AB03F8011DCB
:1009D00001221946103005F00BFD03B05DF804FB51
:1009E00008B55221024806F049FB012008BD00BFAE
:1009F0000C0B0020103005F06FBC103005F046BB2A
:100A000007B501220DF10701103005F054FA012855
:100A10000CBF9DF807004FF0FF3003B05DF804FBFA
:100A200010B50C46042206F08FFC204610BD13B50D
:100A30000023ADF8063007F064FC982804460AD875
:100A400008F0DCFF204602220DF1060106F074FCDE
:100A5000BDF8060001E04FF0FF3002B010BD10B548
:100A60000C46042206F068FC204610BD07B502AB18
:100A700003F8011D01221946083005F0B9FC03B046
:100A80005DF804FB08B506F037FC014B186008BDA3
:100A90000421002010B50446142109F020F8204656
:100AA00010BD0EB400B58CB00DAA52F8041B202363
:100AB0008DE80600039204930168002304AA1E2017
:100AC000059306F071FD0CB05DF804EB03B07047C0
:100AD00010B50C4C2368DB0711D42046FFF7E3FA6E
:100AE00068B1094A0321094B094808F0B7FD2046BF
:100AF000FFF7DEFA074A0849054808F0EBFF04480B
:100B000010BD00BF140A0020880900201C0A002024
:100B100090080020D00100201509080810B5FFF743
:100B2000D7FF074B044653B108F0B5FD38B1236831
:100B300020461B699847002801DDAFF3008010BDF7
:100B40000000000010B50C4C2368DB0711D42046D0
:100B5000FFF7A9FA68B1094A0421094B094808F0CE
:100B60007DFD2046FFF7A4FA074A0849054808F02A
:100B7000B1FF044810BD00BFE4010020D8070020E9
:100B8000C4080020F4010020D00100201509080845
:100B900010B5FFF7D7FF074B044653B108F07BFDB4
:100BA00038B1236820461B699847002801DDAFF360
:100BB000008010BD0000000013460A460149096884
:100BC00005F0C7BBD41B002030B51D4B85B000938A
:100BD000137900F58C658DF8043093680446029310
:100BE000137B8DF80C30537B0A468DF80D3000F2E4
:100BF0006C416B46284604F0A3FEF0B1256004F278
:100C00003C45284605F09EFB0121204605F0DFFD0E
:100C1000014668B12146284605F035F968B194F8D7
:100C20003C3413F0700316BF064B18461D6005E0F8
:100C3000204605F0CCFD0028ECD1002005B030BDE9
:100C400038E30808D41B002038B50C46054608F0E8
:100C500021FF6B2108F0BAFD08F01CFF036829464C
:100C60009B68984708F016FF036821469B689847E1
:100C700008F010FFBDE83840012108F0AABD0000CF
:100C800073B508F0BBFE40F2136302AC44F8043DB8
:100C9000214600206426FFF7C3FE08F0AFFE214680
:100CA00008200196FFF7BCFE08F0A8FE21461020A0
:100CB0000196FFF7B5FE08F0A1FE214698200196A7
:100CC000FFF7AEFE08F09AFE214618200196FFF7C6
:100CD000A7FE08F093FE214620200196FFF7A0FE14
:100CE00008F08CFE214628200196FFF799FE08F0B7
:100CF00085FE214630200196FFF792FE08F07EFE29
:100D0000214638200196FFF78BFE08F077FE21463A
:100D1000402000250196FFF783FE08F06FFE214674
:100D200004200195FFF77CFE08F068FE21460C20A8
:100D30000195FFF775FE08F061FE214694200195AC
:100D4000FFF76EFE08F05AFE214614200195FFF7CA
:100D500067FE08F053FE21461C200195FFF760FE58
:100D600008F04CFE214624200195FFF759FE08F0BB
:100D700045FE21462C200195FFF752FE08F03EFE6D
:100D8000214634200195FFF74BFE08F037FE21463F
:100D90003C200195FFF744FE08F030FE4B4944200B
:100DA000FFF73EFE08F02AFE214648200195FFF796
:100DB00037FE08F023FE214658200195FFF730FE4C
:100DC00008F01CFE42495C20FFF72AFE08F016FEE0
:100DD0004FF47A7321464C200193FFF721FE08F06F
:100DE0000DFE42F21073214650200193FFF718FECA
:100DF00008F004FE21466FF0060354200193FFF72C
:100E00000FFE344B186809F071FD07F0E7FC08F09D
:100E1000F5FD214660200195FFF702FE08F0EEFD8A
:100E20002146304601950126FFF7FAFD08F0E6FD60
:100E3000214668200196FFF7F3FD08F0DFFD21460B
:100E40006C200195FFF7ECFD08F0D8FD21467020DD
:100E50000195FFF7E5FD08F0D1FD214674200196CC
:100E6000FFF7DEFD08F0CAFD214678200196FFF766
:100E7000D7FD08F0C3FD21467C200195FFF7D0FD8A
:100E800008F0BCFD214680200196FFF7C9FD08F05F
:100E9000B5FD214684200195FFF7C2FD08F0AEFDA7
:100EA000214688200195FFF7BBFD08F0A7FD2146EC
:100EB0008C200195FFF7B4FD08F0A0FD214690209D
:100EC0000195FFF7ADFD02B070BD00BF8C000020A2
:100ED000981B0020C81B00202DE9F347C24C08F0E6
:100EE0008DFD21460020FFF7BAFD2368013304D1B0
:100EF00040F213632360FFF7C3FE08F07FFD01A9F2
:100F00000820FFF7ACFD019809F0F0FCB74909F0A3
:100F1000F5FDDFF86493DFF86483C9F8000008F09A
:100F20006DFD01A91020FFF79AFD019809F0DEFC84
:100F3000AE4909F0E3FDC8F8000008F05FFD01A923
:100F40009820FFF78CFD019809F0D0FCA74909F023
:100F5000D5FDA74FA74E386008F050FD01A9182015
:100F6000FFF77DFD019809F0C1FCA04909F0C6FD1D
:100F7000306008F043FD01A92020FFF770FD0198C3
:100F800009F0B4FC994909F0B9FD9B4D9B4C2860D0
:100F900008F034FD01A92820FFF761FD019809F050
:100FA000A5FC924909F0AAFD206008F027FD01A9DF
:100FB0003020FFF754FD019809F098FC8B4909F0A7
:100FC0009DFD8F4BDFF8B8A2186008F017FD01A94E
:100FD0003820FFF744FD019809F088FC834909F0A7
:100FE0008DFD884B186008F009FD01A94020FFF72E
:100FF00036FD019809F07AFC7C4909F07FFD824BAF
:10100000186008F0FBFC81490420FFF728FD08F078
:10101000F5FC7F490C20FFF722FD08F0EFFC7D492D
:101020009420FFF71CFD08F0E9FC7B491420FFF732
:1010300016FD08F0E3FC79491C20FFF710FD08F0CD
:10104000DDFC77492420FFF70AFD08F0D7FC75493D
:101050002C20FFF704FD08F0D1FC73493420FFF782
:10106000FEFC08F0CBFC71493C20FFF7F8FC08F0CF
:10107000C5FC6F494420FFF7F2FC08F0BFFC6D4946
:101080004820FFF7ECFC08F0B9FC6B495820FFF74B
:10109000E6FC08F0B3FC69495C20FFF7E0FC08F0CF
:1010A000ADFC67494C20FFF7DAFC08F0A7FC654966
:1010B0005020FFF7D4FC08F0A1FC01A95420FFF751
:1010C000CEFC019809F012FC07F088FB08F096FCB2
:1010D0005D496020FFF7C3FC08F090FC5B49642089
:1010E000FFF7BDFC08F08AFC59496820FFF7B7FC00
:1010F00008F084FC57496C20FFF7B1FC08F07EFC37
:1011000055497020FFF7ABFC08F078FC5349742078
:10111000FFF7A5FC08F072FC51497820FFF79FFC0F
:1011200008F06CFC4F497C20FFF799FC08F066FC46
:101130004D498020FFF793FC08F060FC4B49842068
:10114000FFF78DFC08F05AFC49498820FFF787FC1F
:1011500008F054FC51468C20FFF781FC08F04EFC4F
:1011600044499020FFF77BFCDAF8003013B10020EF
:1011700007F034FB41F28731384AD9F80000136890
:10118000013B8B4284BF01231360002109F096FDCF
:1011900018B1394B4FF07E521A600021D8F8000088
:1011A00009F08CFD18B1354B4FF07E521A600021CA
:1011B000386809F083FD18B10D4B4FF07E521A606C
:1011C0000021306809F07AFD18B10A4B4FF07E52C9
:1011D0001A600021286809F071FD002852D0064BE2
:1011E0004FF07E521A604DE0880000200000C84297
:1011F0004C0900201C020020CC0700203C1B0020D2
:10120000D4070020EC010020F0060020200200207E
:101210000C0A0020100A0020B00800208C070020D3
:10122000F80A0020CC0A0020180A002074070020C9
:101230008C000020F00A0020A00A0020981B00204B
:101240009400002090000020BC060020D007002061
:1012500078070020080B0020B8060020E00A0020D4
:10126000901B0020AC080020F0010020F8060020B0
:10127000881B002018020020A40A00204809002032
:10128000B40800200021206809F018FD18B1034BB4
:101290004FF07E521A6002B0BDE8F0873C1B002080
:1012A00010B50C4805F0EEFE90B9FFF74BFC036853
:1012B0001B6998470028F4DDFFF744FC03685B696D
:1012C0009847044608F0C0F8E1B207F06BF8E8E789
:1012D00010BD00BF0C0B0020F7B506460D460024DC
:1012E0004F1EAC4212D0325D0B4901A806F068FADD
:1012F00008F0AAF801A907F051F8A74204D008F0B5
:10130000A3F8202107F04EF80134EAE708F09CF832
:1013100007F04BF803B0F0BD32E40808F8B5044616
:101320000F464E1E451E0644B54207D0FFF70AFC85
:10133000036815F8011F9B689847F5E73946204672
:10134000BDE8F840FFF7C8BF1FB5074A01AB52F828
:101350000E0F5168128903C30A2101A81A80FFF7F2
:10136000DDFF05B05DF804FBA8E308081FB5074AD8
:1013700001AB52F8180F5168128903C30A2101A862
:101380001A80FFF7CBFF05B05DF804FBA8E308085F
:1013900038B5314B314D1B68B3B1314B588909F029
:1013A000A1FA304909F0AAFB2F4909F0F3FA2F49B5
:1013B00009F0E6F92B680446002B35D008F044F814
:1013C0002B4906F0FEFF2FE02A4B1B681BB32B684E
:1013D00023B108F039F8284906F0F3FF0B2008F094
:1013E000C7FA09F083FA08F02BFE17A3D3E900230C
:1013F00008F07AFE09F070F94FF07C5109F0C0F95D
:1014000008F01EFE12A3D3E9002308F097FF09F0AD
:1014100063F9044608E02B6823B108F015F8174972
:1014200006F0CFFF164B1C68164B2046196809F0D2
:10143000B1FA0446144B186809F058FA214609F02D
:10144000A1F938BDAFF300802D431CEBE2364A3FD3
:101450007B14AE47E17A843FF0010020F00A0020BF
:10146000B808002000F87F46000025430000204215
:1014700037E408087807002058E4080877E40808EB
:10148000FC060020D4070020CC0A00200000000049
:101490002DE9F04F8BB0A24902A806F0F2FCA14B57
:1014A0001A689A4622B107F0CFFF9F4906F089FFDC
:1014B0009E4D0021288808F042FA08F0CBFA01225C
:1014C0004A2108F075F938B907F0BEFF984906F0CF
:1014D00078FF4FF0000B3BE00321964803F015FC2A
:1014E00009F004FA944B4FF00104196809F052FA1C
:1014F0009249834609F002FB08F0A2FD0022904BBE
:101500008046894608F03CFC0022002306460F4630
:1015100009F07AF8002228B18A4B3046394609F0A2
:1015200073F804E0884B3046394609F04FF800B9AB
:101530000446E4B264B107F087FF844906F02EFF49
:1015400007F082FF0223009342464B4607F060F803
:1015500000217F4803F083FA38B9DAF8003023B16C
:1015600007F072FF7B4906F02CFF08F073FA0122A6
:101570004A2108F01DF9002800F0B78000217448C6
:1015800003F06DFA002800F0B0806C49584609F06D
:10159000B5FA08F055FD0022694B08F0F1FB002276
:1015A000002306460F4609F02FF8002228B1654BAC
:1015B0003046394609F028F804E0634B3046394696
:1015C00009F004F8002840F09080044606460746DB
:1015D0004FF00A080021574803F097FB0121074408
:1015E000544803F092FB02210644524803F08DFB5D
:1015F0000321504803F089FBB8F101080444E9D104
:101600004D4B4FF00A09D3F8008094FBF9F009F034
:101610006DF9414609F0BEF9824697FBF9F009F0F1
:1016200065F9414609F0B6F90146504609F0A8F8B7
:10163000494909F063FA044696FBF9F009F056F9B6
:10164000414609F0A7F90146504609F099F8434987
:1016500009F054FA0646FFF79BFE414909F042FBA8
:1016600020B13146204609F08BF827E0FFF790FEC5
:101670003C4909F037FB20B13146204609F082F899
:101680001CE0FFF785FE374909F040FBA8B1304662
:1016900008F0D6FC1EA3D3E9002308F025FD06467A
:1016A00020460F4608F0CCFC02460B463046394631
:1016B00008F068FB09F010F800E0002008F0C0FC1A
:1016C00015A3D3E9002308F039FE09F005F802223A
:1016D0000146044606A806F04AFC06A902A806F040
:1016E0001AFC06A806F086FB04E01F4902A806F0D3
:1016F0001AFC00240121288808F021F902A806F02C
:1017000079FB20460BB0BDE8F08F00BFAFF300803F
:1017100052B81E85EB51E83FB6F3FDD478E9D63FC9
:10172000F0050908F00A0020DBE40808D0000020DA
:10173000F1E40808AE0A0020A800002000007A4466
:101740000000F43F0000E03F0000E0BF16E508089D
:10175000E901002026E508080000F0C2000016C3D9
:10176000000070410000C8414DE5080810B5FFF7C2
:101770008FFE064B196809F00DF90446044B1868F2
:1017800009F0B4F8214608F0FDFF10BD4C09002017
:10179000100A00207FB5214B214A06460093029291
:1017A000002301256A460C211E488DF804308DF86F
:1017B0000C508DF80D30FFF707FA40B307F044FEE8
:1017C000194906F0FEFD194B194C196840F209221F
:1017D0001848FFF7F1F923688BB91749174806F045
:1017E000F0FD07F0F4F80146684607F01DF800998F
:1017F000124806F0E6FD684606F0FCFA25603168FE
:101800000E4806F0DEFD0B4804F09CFD04E007F0F6
:101810001BFE0B4906F0D5FD04B070BD38E3080887
:1018200080F0FA023402002051E50808BC070020CD
:10183000841B0020A41B00206BE508089C1B0020D3
:1018400082E508082DE9F0438DB0B049684606F0FE
:1018500018FBFFF777F90D22014608A806F04CFFA8
:1018600008A9684606F057FB08A806F0C3FA072344
:101870000422694604A806F095FCA54904A806F0D0
:1018800002FC0546A8B9A149684606F0FCFB98B1E0
:1018900007F0DAFD9F4906F094FD9E4908A806F07E
:1018A000F0FA08A8FFF776FF08A806F0A3FA0124CB
:1018B00004E00024012501E00446054604A806F0E2
:1018C00099FAB5B9002CC4D00DE02146684606F05F
:1018D00004FC2C2817D00137029BBCB2A342F4D8D9
:1018E00004A806F087FA684606F084FA0DB0BDE851
:1018F000F083894904A8002706F0C3FA3E46874DC5
:10190000DFF82C82E8E7072E00F2FD80DFE816F012
:1019100008002F00FB006800FB00FB009B00BC00E0
:1019200004F101094946684606F0D7FB2C2800F06F
:10193000EA8004F10B034A46694608A806F032FC27
:1019400008A904A806F0E7FA08A806F053FAD8F8A0
:101950000030002B00F0D78007F076FD704906F0CC
:101960001DFD07F071FD049906F02BFDCBE004F19D
:1019700001094946684606F0B0FB2C2800F0C380F8
:1019800004F10A034A46694608A806F00BFC08A9B8
:1019900004A806F0C0FA08A806F02CFAD8F800301F
:1019A0004BB107F051FD5F4906F0F8FC07F04CFD24
:1019B000049906F0F3FC04A908A806F0A1FA04F1C2
:1019C0000C01684606F089FB08A90246564803F058
:1019D000C7F908A806F00EFA2B8823F0080391E057
:1019E00004F101094946684606F077FB2C2800F00F
:1019F0008A8004F10B034A46694608A806F0D2FB28
:101A000008A904A806F087FA08A806F0F3F9D8F8A0
:101A100000304BB107F018FD444906F0BFFC07F059
:101A200013FD049906F0BAFC04A908A806F068FAA8
:101A300004F10D01684606F050FB08A902463A4839
:101A400003F0D4F91CE004F101094946684606F0A8
:101A500044FB2C2857D0E31C4A46694608A806F0E8
:101A6000A1FB08A904A806F056FA08A806F0C2F9D6
:101A700004A908A806F044FA08A92B4803F0FCF9C9
:101A800008A806F0B7F93EE004F1010949466846A6
:101A900006F023FB2C2836D0E31C4A46694608A8EA
:101AA00006F080FB08A904A806F035FA08A806F09D
:101AB000A1F904A908A806F023FA08A91A4803F016
:101AC000E3F908A806F096F92B88174823F00C03D1
:101AD0002B8003F0EFF9012803DC2B8843F00C0383
:101AE00010E0114803F0E6F9042803DC2B8843F0EA
:101AF000080307E00C4803F0DDF9132803DC2B880A
:101B000043F004032B800136E5E600BF9EE508089C
:101B1000A3E50808A7E50808F00509088C1B0020C4
:101B2000B9E50808CAE5080850090020DCE50808FE
:101B3000F00A00202DE9F04391B0AE49684606F066
:101B4000A0F9AD4904A806F09CF9FEF7FBFF0D22B1
:101B500001460CA806F0D0FD0CA9684606F0DBF99A
:101B60000CA806F047F90723042269460CA806F0E2
:101B700019FB0CA904A806F0CEF90CA806F03AF956
:101B80009E4904A806F07FFA50BB9A49684606F0C1
:101B90007AFA0028D9D007F057FC994906F011FCD1
:101BA00097490CA806F06DF90CA8FFF7F3FD0CA8F7
:101BB0000BE02146684606F090FA2C2819D0013631
:101BC000029BB4B2A342F4D808A806F013F904A803
:101BD00006F010F9684606F00DF911B0BDE8F08383
:101BE000854908A8002606F04CF9B046854D864F79
:101BF000E6E708F1FF33062B00F2F980DFE813F087
:101C00002D00F7006500F70097000700B80004F109
:101C100001094946684606F060FA2C2800F0E78082
:101C200004F10B034A4669460CA806F0BBFA0CA95E
:101C300008A806F070F90CA806F0DCF83B68002B49
:101C400000F0D58007F000FC704906F0A7FB07F014
:101C5000FBFB089906F0B5FBC9E004F10109494610
:101C6000684606F03AFA2C2800F0C18004F10A0315
:101C70004A4669460CA806F095FA0CA908A806F091
:101C80004AF90CA806F0B6F83B684BB107F0DCFB4C
:101C90005F4906F083FB07F0D7FB089906F07EFB4F
:101CA00008A90CA806F02CF904F10C01684606F00E
:101CB00014FA0CA90246574803F052F80CA806F093
:101CC00099F82B8823F0080390E004F101094946B4
:101CD000684606F002FA2C2800F0898004F10B0314
:101CE0004A4669460CA806F05DFA0CA908A806F059
:101CF00012F90CA806F07EF83B684BB107F0A4FB84
:101D0000454906F04BFB07F09FFB089906F046FBA0
:101D100008A90CA806F0F4F804F10D01684606F0D5
:101D2000DCF90CA902463B4803F060F81CE004F122
:101D300001094946684606F0D0F92C2857D0E31C23
:101D40004A4669460CA806F02DFA0CA908A806F028
:101D5000E2F80CA806F04EF808A90CA806F0D0F896
:101D60000CA92C4803F088F80CA806F043F83EE0D4
:101D700004F101094946684606F0AFF92C2836D02F
:101D8000E31C4A4669460CA806F00CFA0CA908A800
:101D900006F0C1F80CA806F02DF808A90CA806F06A
:101DA000AFF80CA91B4803F06FF80CA806F022F856
:101DB0002B88184823F00C032B8003F07BF80128B4
:101DC00003DC2B8843F00C0310E0124803F072F898
:101DD000042803DC2B8843F0080307E00D4803F0D8
:101DE00069F8132803DC2B8843F004032B8008F1E7
:101DF0000108E4E69EE50808F005090801E6080880
:101E0000EFE508088C1B0020F00A0020B9E508085F
:101E1000CAE5080850090020DCE5080800000000B9
:101E20002DE9F04F9A4D8BB09A4902A806F029F897
:101E30002B6823B107F008FB974906F0C2FA974CCC
:101E40000021208807F07BFD07F004FE01224921D4
:101E500007F0AEFCA24648B92B68002B48D007F02B
:101E6000F3FA8F4906F0ADFA8D4938E003218D4829
:101E700002F04BFF08F03AFD8B4B4FF0010419685C
:101E800008F088FD894908F039FE08F0D9F80022E9
:101E9000874B8046894607F073FF002200230646E1
:101EA0000F4608F0B1FB002228B1824B304639467C
:101EB00008F0AAFB04E0804B3046394608F086FB68
:101EC00000B90446E4B29CB12B688BB107F0BCFAB0
:101ED0000021CDE90089794A06F0A8FB784906A8D7
:101EE00005F0CFFF06A8FFF755FC06A805F082FF16
:101EF0000021744802F0B3FD80B92B6873B107F07C
:101F0000A3FA714906F05DFA704906A805F0B9FF19
:101F100006A8FFF73FFC06A805F06CFF07F09AFD46
:101F20000122492107F044FC002800F09A8000219A
:101F3000644802F094FD002800F0938000242746B6
:101F4000A0460A260021574802F0DFFE0121804406
:101F5000544802F0DAFE02210744524802F0D5FE4E
:101F60000321504802F0D1FE013E16F0FF06044462
:101F7000E8D14D4B4FF00A091E6894FBF9F008F0C8
:101F8000B5FC314608F006FD834698FBF9F008F0F1
:101F9000ADFC314608F0FEFC0146584608F0F0FB67
:101FA0004B4908F0ABFD044697FBF9F008F09EFCA6
:101FB000314608F0EFFC0146584608F0E1FB454980
:101FC00008F09CFD0646FFF7E3F9434908F08AFE56
:101FD00020B13146204608F0D3FB1FE0FFF7D8F9C7
:101FE0003E4908F07FFE20B13146204608F0CAFB8A
:101FF00014E0304608F024F821A3D3E9002308F0C8
:1020000073F8064620460F4608F01AF802460B46BB
:102010003046394607F0B6FE08F05EFB08F010F8CF
:1020200019A3D3E9002308F089F908F055FB02222F
:102030000146044606A805F09AFF06A902A805F085
:102040006AFF06A805F0D6FE0121BAF8000007F0E5
:1020500076FC2B685BB107F0F7F9214906F09EF991
:1020600005E0204902A805F05EFF0024ECE702A885
:1020700005F0C0FE20460BB0BDE8F08FAFF3008046
:1020800052B81E85EB51E83FB6F3FDD478E9D63F50
:10209000F00A0020F005090805E60808A000002065
:1020A00019E60808A80A0020A800002000007A44C9
:1020B0000000F43F0000E03F0000E0BF3EE60808FB
:1020C00050E60808E801002069E608088DE60808DF
:1020D0000000F0C2000016C3000070410000C841BB
:1020E000A0E608084DE5080810B5FFF799FE064B75
:1020F000196808F04FFC0446044B186808F0F6FB1A
:10210000214608F03FFB10BD480900200C0A0020C2
:1021100010B590B01D4908A805F0B3FE1C4904A8ED
:1021200005F0EEFE04A908A805F085FF194905F0A1
:102130008EFF044618490CA805F0E2FE0CA92046C3
:1021400005F079FF154905F082FF0146684605F064
:10215000D7FE0CA805F04EFE04A805F04BFE08A81B
:1021600005F048FE07F070F90D4906F02AF907F06E
:1021700095FA009906F025F907F066F9094906F085
:1021800020F9684605F036FE10B010BD1BE70808C0
:1021900008020020C2010908D401002063E90808F0
:1021A0001EE7080842E7080810B52C4C01212088DA
:1021B00007F0C5FBFA2006F057FC0021208807F045
:1021C000BEFBFA2006F050FC0121208807F0B7FB87
:1021D000FA2006F049FC0021208807F0B0FBFA2025
:1021E00006F042FC0121208807F0A9FBFA2006F046
:1021F0003BFC0021208807F0A2FBFA2006F034FC0B
:102200000121208807F09BFBFA2006F02DFC00211D
:10221000208807F094FBFA2006F026FC0121208894
:1022200007F08DFBFA2006F01FFC0021208807F044
:1022300086FBFA2006F018FC0121208807F07FFBBE
:10224000FA2006F011FC2088002107F078FBBDE899
:1022500010406B210720FEF7F7BC00BF9C00002058
:1022600070B5124E124D3088124C002107F067FBFA
:102270002888002107F063FB0021208807F05FFB1E
:102280004FF47A7006F0F0FB3088012107F057FB1D
:102290002888012107F053FB2088012107F04FFB1C
:1022A000BDE870404FF47A7006F0DEBBA400002059
:1022B000CC000020AC00002070B52B4B0124A8B04E
:1022C0001C602A4B4FF4DA42294901A8294E1A8092
:1022D000294D05F0D6FD072006F0C4FB21463088C5
:1022E00007F01CFB2146288807F018FB234B2146EA
:1022F000188807F013FB224B2146188807F00EFBC5
:10230000204B2146188807F009FB1F4B21461888EF
:1023100007F004FB1D4B2146188807F0FFFA1C4B01
:102320002146188807F0FAFAFEF7D6FD194805F09D
:1023300087FA41F27001174805F0B2FB154805F025
:102340007AFB34210020FEF77FFC2046124C1B2133
:10235000FEF77AFC204602F031FC94F82130EBB90C
:10236000FFF722FF29E000BF8C0000208C1B00201B
:10237000F0050908A0000020D0000020D4000020B3
:10238000980000209C000020A4000020CC00002029
:10239000AC000020C80A002098070020A64B1B684C
:1023A000012B0AD1A54806F0D3FBA54908F090FC03
:1023B00018B194F82130002BD2D00121308807F0D9
:1023C000BEFA2888012107F0BAFA9E4B012118882D
:1023D00007F0B5FA9C4B0121188807F0B0FA9B4B27
:1023E0000121188807F0ABFA994B0121188807F0F2
:1023F000A6FA984B0121188807F0A1FA964B012103
:10240000188807F09CFA954A9549964806F0CAFC48
:10241000954A9649934806F0C5FC954A95499148D6
:1024200006F0C0FC002302229349944805F070F99D
:1024300007F034F94FF4165107F02AF9FEF748FB7C
:102440004FF4165107F024F9FEF77CFB4FF41651B8
:1024500007F01EF98A4804F05DFE8A4C42F21070C3
:1024600006F002FB06F0F0FF4FF4165106F0D2FF23
:102470000A22216805A805F067FD05A909A805F04D
:102480003FFD814909A805F0E2FD054606F0D6FAB0
:102490000A2201460DA805F057FD0DA9284605F0B2
:1024A000CAFD054606F0C2FA0A22014611A805F047
:1024B0004BFD11A9284605F0BEFD054606F0ACFA15
:1024C0000A22014615A805F03FFD15A9284605F08A
:1024D000B2FD6D4905F0BBFD054606F07FFA0A2204
:1024E000014619A805F030FD19A9284605F0A3FDFD
:1024F000054606F07DFA0A2201461DA805F024FDD6
:102500001DA9284605F097FD054606F07BFA0A222C
:10251000014621A805F018FD21A9284605F08BFDEC
:102520005A4905F094FD0146594805F0DAFC21A806
:1025300005F060FC1DA805F05DFC19A805F05AFC2B
:1025400015A805F057FC11A805F054FC0DA805F0DE
:1025500051FC09A805F04EFC05A805F04BFC0A2229
:10256000216811A805F0F0FC11A915A805F0C8FC18
:10257000484915A805F06BFD044606F05FFA0A22EB
:10258000014619A805F0E0FC19A9204605F053FD05
:102590005F2105F06EFD044606F048FA0A22014666
:1025A0001DA805F0D1FC1DA9204605F044FD5F21C2
:1025B00005F05FFD044606F02FFA0A22014621A825
:1025C00005F0C2FC21A9204605F035FD324C01463C
:1025D000204605F086FC21A805F00CFC1DA805F09E
:1025E00009FC19A805F006FC15A805F003FC11A8C4
:1025F00005F000FC06F028FF284905F0E2FE284A15
:10260000284B2392012221938DF89020002321AAA8
:102610000C2125488DF888308DF89130FEF7D4FADA
:10262000002845D006F010FF204905F0B7FE06F05F
:102630000BFF21683FE000BF901B0020A408002092
:102640000000A0419C00002098000020A400002071
:10265000CC000020AC000020D40000204BE708088C
:102660002F0A0808798D080859E70808E1090808C1
:1026700066E708086D3B08080C0A002072E70808A6
:102680000C0B0020880000208BE708087BE7080877
:10269000D00A002080E70808B80A00208DE7080863
:1026A00080F0FA0238E3080834020020A2E70808A4
:1026B00006F0CAFE8449854C05F083FE06F0C4FE90
:1026C000834905F07EFE23684BB1814921A805F0BE
:1026D000D8FB21A8FFF75EF821A805F08BFB7D4D04
:1026E00007F0B8F907F052F80021288807F027F919
:1026F0000323B0221821784802F002FA88B906F0C4
:10270000A3FE764905F05DFE2368FBB1734921A85D
:1027100005F0B7FB21A8FFF73DF821A805F06AFBFB
:1027200014E006F091FE6E4905F04BFE23684BB1B4
:102730006C4921A805F0A5FB21A8FFF72BF821A8DB
:1027400005F058FB0121288807F0F9F8664802F0E7
:10275000D3FA07F07FF90122492107F029F888B957
:1027600006F072FE614905F02CFE236873B15F49E3
:1027700021A805F086FB21A8FFF70CF821A805F099
:1027800039FB03E00021584802F0BDFA06F05CFE78
:10279000574905F016FE23684BB1554921A805F0AD
:1027A00070FB21A8FEF7F6FF21A805F023FB514D91
:1027B00007F050F906F0EAFF0021288807F0BFF87B
:1027C0000323B02218214C4802F09AF978B906F098
:1027D0003BFE4A4905F0F5FD484921A805F051FBAB
:1027E00021A8FEF7D7FF21A805F004FB14E006F0AE
:1027F0002BFE434905F0E5FD23684BB1404921A874
:1028000005F03FFB21A8FEF7C5FF21A805F0F2FA6D
:102810000121288807F093F83A4802F06DFA07F092
:1028200019F901224A2106F0C3FF88B906F00CFE0F
:102830002E4905F0C6FD236873B12C4921A805F087
:1028400020FB21A8FEF7A6FF21A805F0D3FA03E09C
:1028500000212C4802F057FAFFF702FD06F0F4FDC4
:10286000294905F0AEFD06F0EFFD284905F096FD7B
:1028700006F0EAFD0A22462105F011FE06F0E4FD0D
:10288000234905F08BFD06F0DFFD0A220D2105F03E
:1028900006FEFEF759FD1C23002121A8ADF8843067
:1028A00004F0AAFE23A91DA805F0EBFA1D9A194908
:1028B0001948FEF7F6F81DA805F09CFA01A805F0E6
:1028C00099FA28B070BD00BFC8E70808F00A0020D8
:1028D000DEE70808A0000020E801002002E8080860
:1028E0002EE808084CE80808A80A002068E808084C
:1028F0009BE80808D0000020E9010020BEE8080895
:10290000E7E80808AE0A002005E9080810E9080809
:102910001DE9080825E90808EC1B002000B58FB068
:10292000804902A805F0ADFA06F08EFD7E4905F05B
:1029300048FD002300937D4B06A8D3E9002305F052
:102940002DFB06A90AA805F0DBFA79490AA805F0CB
:102950007EFB014602A805F04EFB0AA805F04AFAE4
:1029600006A805F047FA734B0322196806A805F07C
:10297000FEFA06A90AA805F0C3FA6D490AA805F0EF
:1029800066FB014602A805F036FB0AA805F032FAFC
:1029900006A805F02FFA684B0322196806A805F06F
:1029A000E6FA06A90AA805F0ABFA61490AA805F0FB
:1029B0004EFB014602A805F01EFB0AA805F01AFA14
:1029C00006A805F017FA5D4802F06AFA0022002313
:1029D00007F0F2FD90B9594802F071FA18B9584958
:1029E00002A805F00CFB554802F05AFA06230093A2
:1029F00002460B4606A805F0D1FA03E0514906A8A5
:102A000005F03FFA06A90AA805F07AFA48490AA88B
:102A100005F01DFB014602A805F0EDFA0AA805F035
:102A2000E9F906A805F0E6F9444802F03EFA00226A
:102A3000002307F0C1FD98B9404802F043FA01288D
:102A400003D13F4902A805F0DAFA3C4802F02DFA1A
:102A50000623009302460B4606A805F09FFA03E002
:102A6000394906A805F00DFA06A90AA805F048FAA2
:102A70002F490AA805F0EBFA014602A805F0BBFAB7
:102A80000AA805F0B7F906A805F0B4F92B4802F03A
:102A90000CFA0022002307F08FFD80B9274802F0CE
:102AA00009FA07F0BBFA0022284B07F047FC06237F
:102AB000009302460B4606A805F070FA03E024498D
:102AC00006A805F0DEF906A90AA805F019FA1849C2
:102AD0000AA805F0BCFA014602A805F08CFA0AA87B
:102AE00005F088F906A805F085F91A4A1A4B12680C
:102AF0000AA81A4905F018FF0AA902A805F07BFAEE
:102B00000AA805F077F9164902A805F078FA0299A3
:102B1000144805F043FC02A805F06CF90FB05DF80D
:102B200004FB00BFF005090838E90808000B002085
:102B3000C201090894070020B40A002050090020AF
:102B40004DE90808B0000020BC000020000024402F
:102B500080000020E40A00204FE90808141C00202F
:102B600061E908080C0B002030B5594D95B006F00E
:102B70006BFC584905F012FC574C06F065FC2968BF
:102B800005F01FFC06F060FC544905F007FC06F058
:102B90005BFC216805F015FC06F056FC504905F079
:102BA00010FC06F051FC4F4905F08FFD06F04CFC7F
:102BB0000D220146684605F09FFD4B49684605F029
:102BC00062FA00287FD006F03FFC484905F0F9FB87
:102BD00006F03AFC464905F0F4FB06F035FC4149A5
:102BE00005F073FD06F030FC0D22014604A805F047
:102BF00083FD06F029FC3F4905F0D0FB06F024FCDC
:102C0000049905F0DEFB06F01FFC3B4905F0D9FBFB
:102C100006F01AFC0D22014608A805F06DFD3749A3
:102C200008A805F030FA002842D006F00DFC34491F
:102C300005F0C7FB04A9284605F053F906F004FC8B
:102C4000304905F0BEFB06F0FFFB0D2201460CA843
:102C500005F052FD06F0F8FB2B4905F09FFB06F04E
:102C6000F3FB0C9905F0ADFB06F0EEFB0D220146DF
:102C700010A805F041FD214910A805F004FA58B14B
:102C800006F0E2FB214905F09CFB0CA9204605F06B
:102C900028F9FFF73DFA04E006F0D6FB1C4905F0E1
:102CA00090FB10A805F0A6F80CA805F0A3F804E026
:102CB00006F0CAFB164905F084FB08A805F09AF84F
:102CC00004A805F097F8684605F094F815B030BDF3
:102CD00008020020ABE90808D4010020C1E9080877
:102CE000DBE9080820A107000DEA080813EA080834
:102CF00025EA080835EA08084DEA08085E0C0908C4
:102D000063EA080873EA080886EA0808A2EA0808DD
:102D1000B6EA08081FB506F097FB194905F051FB04
:102D200006F092FB174905F0D0FC06F08DFB0D2252
:102D30000146684605F0E0FC1349684605F0A3F932
:102D400098B106F081FB114905F03BFB104C06F0F1
:102D50007BFB104905F035FB0123236006F04EFE96
:102D600021468C20FDF75CFE04E006F06DFB0A496D
:102D700005F027FB684605F03DF804B010BD00BF24
:102D8000C9EA080820A107000CEB080813EA0808A4
:102D9000B408002017EB080838EB080870B5104C91
:102DA00010492646054605F06CF800232370237869
:102DB0000D2B13D00A2B11D00B4804F063F9002817
:102DC000F5D0094804F068F9C1B20D293170EED090
:102DD0000A29ECD0284605F021F9E8E7284670BD1D
:102DE00090070020F00509080C0B002010B588B0F2
:102DF00006F02AFB194905F0E4FA06F025FB18490C
:102E000005F063FC6846FFF7C9FF684605F079FAEC
:102E1000144B984217DD05F0FDFC06F015FB124936
:102E200005F0BCFA06F010FB044605F0D0FD0146A3
:102E300004A805F0F9FC0499204605F0C2FA04A89C
:102E400004F0D8FF04E006F0FFFA084905F0B9FAEB
:102E5000684604F0CFFF08B010BD00BFD7EB0808EC
:102E600020A10700F52E943912EC08088EEB080813
:102E70001FB506F0E9FA05F098FA06F0E5FA1149EF
:102E800005F09FFA06F0E0FA0F4905F01EFC6846CF
:102E9000FFF784FF0D49684605F0F5F838B106F0F4
:102EA000D3FA0B4905F08DFAFDF7EAFE04E006F0CF
:102EB000CBFA084905F085FA684604F09BFF05B097
:102EC0005DF804FB25EC080820A107000DEA0808BE
:102ED0005EEC080838EB080830B589B006F0B4FAA3
:102EE0002F4C05F062FA06F0AFFA2E4905F056FABB
:102EF00006F0AAFA0A22216805F0D1FA06F0A4FA2F
:102F0000294905F05EFA06F09FFA284905F0DDFB35
:102F10006846FFF743FF2649684605F0B4F8A0B3BA
:102F200006F092FA234905F04CFA06F08DFA224990
:102F300005F047FA04A8FFF731FF04A805F0E1F90E
:102F4000054604A804F056FF06F07EFA1B4905F07A
:102F500038FA42F20C73AA1E9A4212D806F074FA9A
:102F6000174905F01BFA06F06FFA29460A2205F008
:102F700096FA256006F042FD21460020FDF750FD3F
:102F800008E006F061FA0F4902E006F05DFA0E492A
:102F900005F017FA684604F02DFF09B030BD00BFF8
:102FA00088000020CDEC0808E0EC080820A107000C
:102FB0000DEA080813EA080810ED0808F0050908EA
:102FC00025ED08088EEB080838EB080810B586B028
:102FD00006F03AFA1D4905F0F4F906F035FA1C49F5
:102FE00005F073FB02A8FFF7D9FE02A805F089F9E6
:102FF000019002A804F0FEFE06F026FA154905F03D
:10300000E0F9019800F10C031A2B17D807F06EFCB9
:1030100005F0E4FB06AC06F017FA0F4905F0BEF91F
:1030200006F012FA54F8141D0A2205F038FA06F0D8
:10303000E5FC21465420FDF7F3FC04E006F004FA19
:10304000064905F0BEF906B010BD00BF36ED080810
:1030500020A10700F005090861ED08088EEB0808BB
:1030600030B587B006F0F0F9264D05F09EF906F070
:10307000EBF9254905F092F906F0E6F90A222968EC
:1030800005F00BFA06F0E0F9204905F09AF906F090
:10309000DBF91F4905F082F906F0D6F91D4905F064
:1030A00014FB02A8FFF77AFE02A805F02AF942F203
:1030B0000E730190013898421AD806F0C5F91649E6
:1030C00005F06CF906F0C0F90A22019905F0E7F95C
:1030D00006AC06F0B9F90D4905F073F954F8143D42
:1030E0002B6006F08BFC21467420FDF799FC04E070
:1030F00006F0AAF9094905F064F902A804F07AFE7D
:1031000007B030BDE00A002079ED08088DED080811
:10311000A6ED080820A10700B9ED08088EEB080805
:103120007FB506F091F905F040F906F08DF93249C6
:1031300005F034F906F088F90446304D022229687A
:10314000684604F014FF0099204605F027F9684608
:1031500004F050FE06F078F9294905F032F906F03E
:1031600073F9284905F01AF96846FFF717FE684613
:1031700005F0CCF80446684604F03CFE204606F014
:103180005FFF1BA3D3E9002307F034FA40B31E49C5
:10319000204607F09DFD18B31C4920462C6007F01F
:1031A000F9FB07F0BDFD1A4E306006F04DF91949E4
:1031B00005F0F4F806F048F904460222296868464A
:1031C00004F0D5FE0099204605F0FBF8684604F0AF
:1031D00011FE06F013FC31461020FDF721FC04E03F
:1031E00006F032F90C4905F0ECF804B070BD00BFF0
:1031F0009A9999999999B93FCBED08084809002007
:1032000061EB0808DDED08080000A0400000C8429E
:10321000C81B0020F2ED08088EEB080830B587B017
:1032200006F012F9234D05F0C0F806F00DF9224919
:1032300005F0B4F806F008F90A22296805F02DF91E
:1032400006F002F91D4905F0BCF806F0FDF81C492E
:1032500005F0A4F802A8FFF7A1FD02A805F051F8B7
:10326000019002A804F0C6FD42F20F72019B03F523
:103270009C530833934215D806F0E6F8114905F03F
:103280008DF806AC06F0E0F801990A2205F007F97E
:1032900054F8143D2B6006F0B1FB21460C20FDF7DD
:1032A000BFFB04E006F0D0F8074905F08AF807B044
:1032B00030BD00BF0C0A002004EE080817EE080815
:1032C0001CEE080830EE08088EEB0808000000002D
:1032D0007FB506F0B9F805F068F806F0B5F83249A0
:1032E00005F05CF806F0B0F80446304D022229687B
:1032F000684604F03CFE0099204605F04FF8684609
:1033000004F078FD06F0A0F8294905F05AF806F017
:103310009BF8284905F042F86846FFF73FFD6846EC
:1033200004F0F4FF0446684604F064FD204606F00D
:1033300087FE1BA3D3E9002307F05CF940B31E49C5
:10334000204607F0C5FC18B31C4920462C6007F046
:1033500021FB07F0E5FC1A4E306006F075F81949BC
:1033600005F01CF806F070F8044602222968684649
:1033700004F0FDFD0099204605F023F8684604F0AE
:1033800039FD06F03BFB31469820FDF749FB04E090
:1033900006F05AF80C4905F014F804B070BD00BFEF
:1033A0009A9999999999B93FCBED08084C09002051
:1033B00061EB0808DDED08080000A0400000C842ED
:1033C000C81B002040EE08088EEB080830B587B017
:1033D00006F03AF8234D04F0E8FF06F035F82249EC
:1033E00004F0DCFF06F030F80A22296805F055F8F1
:1033F00006F02AF81D4904F0E4FF06F025F81C4900
:1034000004F0CCFF02A8FFF7C9FC02A804F079FF82
:10341000019002A804F0EEFC42F20F72019B03F54A
:103420009C530833934215D806F00EF8114904F066
:10343000B5FF06AC06F008F801990A2205F02FF84E
:1034400054F8143D2B6006F0D9FA21469420FDF77C
:10345000E7FA04E005F0F8FF074904F0B2FF07B00F
:1034600030BD00BF100A002052EE080817EE080811
:103470001CEE080865EE08088EEB080870B594B0DD
:10348000064605F0E1FF2E4904F09BFF2D4B0A2272
:103490001968684604F058FD694604A804F030FD38
:1034A000294904A804F0D3FD044605F0C7FA0A220E
:1034B000014608A804F048FD08A9204604F0BBFD19
:1034C0005F2104F0D6FD044605F0B0FA0A22014659
:1034D0000CA804F039FD0CA9204604F0ACFD5F21D6
:1034E00004F0C7FD044605F097FA0A22014610A829
:1034F00004F02AFD10A9204604F09DFD134D40F272
:10350000092205F1080401682046FDF755FB10A8C3
:1035100004F070FC0CA804F06DFC08A804F06AFC30
:1035200004A804F067FC684604F064FC316828468F
:1035300004F047FF204602F005FF14B070BD00BF45
:1035400076EE08088800002080E70808C4060020FE
:10355000F0B5074685B042F2107004F019F942F256
:1035600010720021064607F088FF00222A492B48E6
:10357000FDF722FB00242A4D002205F11001294805
:1035800002F06BFEE0B1642505FB04655622294676
:10359000244801F076FD05F057FF0A22214604F089
:1035A0007CFF05F051FF204904F0F8FE05F04CFFC8
:1035B000294604F006FF1B48013402F0C3FEDAE797
:1035C0006B7C1BB105F040FF184902E005F03CFFA1
:1035D000174904F0F6FE134802F0B4FE6846FFF700
:1035E000DDFB684604F08DFE0446684604F002FCEC
:1035F000642101FB0461684604F043FC304604F09A
:10360000CFF86946384604F07BFC684604F0F2FBCC
:10361000384605B0F0BD00BFDEEE08086C0800209B
:103620005C080020CC06002006070908E0EE080828
:10363000F0EE080800B5ADF57F7D05F005FF04F05C
:10364000B4FE05F001FF164904F0BBFE05F0FCFED8
:1036500004F0ABFE6846FFF77BFF05F0F5FE00992E
:1036600004F0AFFE002200990E48FDF7A5FA0023F2
:103670004FF47A7204A90B4802F0D0FC002805DD53
:1036800005F0E2FE04A904F09CFEF0E7064802F013
:1036900059FE684604F0AEFB0DF57F7D5DF804FB36
:1036A000FDEE0808CC0600206C08002008B505F0E7
:1036B000CBFE844904F085FE05F0C6FE824904F085
:1036C00080FE05F0C1FE814904F07BFE05F0BCFEE2
:1036D0007F4904F076FE05F0B7FE7E4904F071FEE6
:1036E00005F0B2FE7C4904F06CFE05F0ADFE7B49AE
:1036F00004F067FE05F0A8FE794904F062FE05F0CB
:10370000A3FE784904F05DFE05F09EFE764904F0C4
:1037100058FE05F099FE754904F053FE05F094FE3D
:10372000734904F04EFE05F08FFE724904F049FE25
:1037300005F08AFE704904F044FE05F085FE6F49ED
:1037400004F03FFE05F080FE6D4904F03AFE05F0FE
:103750007BFE6C4904F035FE05F076FE6A4904F004
:1037600030FE05F071FE694904F02BFE05F06CFE99
:10377000674904F026FE05F067FE664904F021FE65
:1037800005F062FE644904F01CFE05F05DFE63492D
:1037900004F017FE05F058FE614904F012FE05F032
:1037A00053FE604904F00DFE05F04EFE5E4904F044
:1037B00008FE05F049FE5D4904F003FE05F044FEF5
:1037C0005B4904F0FEFD05F03FFE5A4904F0F9FDA7
:1037D00005F03AFE584904F0F4FD05F035FE57496E
:1037E00004F0EFFD05F030FE554904F0EAFD05F068
:1037F0002BFE544904F0E5FD05F026FE524904F085
:10380000E0FD05F021FE514904F0DBFD05F01CFE52
:103810004F4904F0D6FD05F017FE4E4904F0D1FDE6
:1038200005F012FE4C4904F0CCFD05F00DFE4B49AD
:1038300004F0C7FD05F008FE494904F0C2FD05F09B
:1038400003FE484904F0BDFD05F0FEFD464904F0C5
:10385000B8FD05F0F9FD454904F0B3FD05F0F4FDB0
:10386000434904F0AEFD05F0EFFD424904F0A9FD27
:1038700005F0EAFD404904F0A4FD05F0E5FD3F49EF
:1038800004F09FFD05F0E0FD3D4904F09AFD05F0D0
:10389000DBFD3C4904F095FD05F0D6FD3A4904F006
:1038A00090FD05F0D1FD394904F08BFD05F0CCFD0C
:1038B000374904F086FD05F0C7FDBDE808403549ED
:1038C00004F07FBD75EF08088BEF0808A0EF08082B
:1038D000B4EF0808C9EF0808DDEF0808F9EF080899
:1038E00016F0080838F0080854F008086CF00808CA
:1038F00085F008089EF00808C6F00808F7F00808E8
:1039000012F108082DF1080843F1080854F10808DD
:1039100066F1080877F1080889F10808B2F108088B
:10392000DBF108080AF208082FF2080854F2080828
:103930007CF20808BCF20808FFF208082AF308081D
:103940006DF30808B3F30808E7F3080805F408085E
:1039500029F4080844F408086EF40808A3F40808D9
:10396000C7F40808DBF40808F7F408081CF5080891
:1039700040F5080865F508088DF50808B9F5080848
:10398000FCF508082EF6080854F60808BAF60808E8
:103990001EF7080833F7080838B5046805467CB1F7
:1039A0006368013B63605BB9236820469B68984766
:1039B000A368013BA3601BB923682046DB689847D6
:1039C000284638BDB0B592B002AF624904463846C9
:1039D00004F057FA604907F1300004F079FE07F16E
:1039E0003001384604F097FA07F1300004F002FA8B
:1039F000BA683846D31D23F00703ADEB030D02A9C7
:103A0000002304F06CFB554907F1200004F039FA5B
:103A1000504907F1300004F034FA07F1300207F1A1
:103A20002001384604F0E6FB07F1300004F0E2F92B
:103A300007F1200004F0DEF9B9683846013904F0D6
:103A400035FB03780D2B10D1BB680022023B3946B1
:103A500007F1300004F0A6FB07F13001384604F00E
:103A60005AFA07F1300004F0C5F9592C24D139462F
:103A700007F1300004F044FA07F13000FFF7FEFCD4
:103A800007F1300004F0B6F903F062FE00285BD0C5
:103A9000334B3A681B7833498DF8003007F130001A
:103AA0003C2305F08FFA07F13400FFF775FFFCF7B0
:103AB000E9FF03F03DFE47E0512C45D13A2138465D
:103AC00004F033FB284C431E0222394607F1100054
:103AD00004F068FB07F11001204604F038FB0028D1
:103AE00022DD851EA3682A46214607F1200004F046
:103AF00059FB262107F1200004F017FB2A46034654
:103B0000214607F1300004F04DFB3A4607F1300141
:103B1000204604F06FFB07F1300004F06BF907F169
:103B2000200004F067F90BE00A49204604F0ABFAE4
:103B30003946204604F05FFA2621204604F06EFA4A
:103B400007F1100004F056F9384604F053F94037F5
:103B5000BD46B0BDF00509080C0B0020A6F808080A
:103B6000F4060020A8F808087C07002070B51D4C5A
:103B70001D4E8AB026211B4804F0D7FA0022431EAE
:103B8000184902A804F00EFB3378029A17498DF801
:103B9000003006A83C2305F015FA07A8FFF7FCFE45
:103BA000FCF770FF03F0C4FD26210E4804F0BDFAB7
:103BB000A368421C0B4906A804F0F4FA06A90948B8
:103BC00004F0A9F906A804F015F9A56802A804F004
:103BD00011F9022DCED8064803F04CFA01200AB0A4
:103BE00070BD00BF7C070020F4060020AFF8080875
:103BF0000C0B002013460A46002104F017BD0000FC
:103C000038B51D4803F07EFE054605F01DFC2A462A
:103C10001A49FFF7EFFF642D16D0962D16D0B5F593
:103C2000FA7F16D0B5F5617F16D0B5F5966F40F2E4
:103C3000DC5416D0A54212D040F6B832B5F5FA6F72
:103C400014BF2C4614460CE096240AE04FF4FA7494
:103C500007E04FF4617404E04FF4966401E04FF420
:103C6000FA64A1B2044803F085FE05F0EDFB22469C
:103C70000349FFF7BFFF38BDC80A0020E2F8080873
:103C800000F90808F0B5334885B003F047FE054653
:103C900010F0800F0CBF00244FF40064470648BFAB
:103CA00004F58064860648BF04F50074E80648BF42
:103CB00004F58074290748BF80346A0748BF403440
:103CC00005F0C2FB22462449FFF794FF281DC0B22D
:103CD000030658BF002100F0400346BF01214FF406
:103CE00000640C4603F0FF0213B104F58064012266
:103CF00000F0200505F0FF0315B104F50074012361
:103D000000F0100606F0FF0516B104F580740125D9
:103D100000F0080707F0FF060FB18034012600F01D
:103D2000040000F0FF0710B14034012000E03846E5
:103D300002908DE86000074803F07FFE054803F01D
:103D4000EDFD05F081FB22460449FFF753FF05B066
:103D5000F0BD00BFC80A00201EF9080847F908088E
:103D6000F0B5C84C30238DB023702378782B00F049
:103D7000FF8305F069FBC44904F010FB05F064FB08
:103D80000368DB699847C14803F07CF90028FAD042
:103D9000BE4803F081F9C0B2207021385928E4D818
:103DA00001A353F820F000BF9F4408086B3D0808AA
:103DB000334508086B3D08086B3D08086B3D080853
:103DC0006B3D08086B3D08086B3D08086345080813
:103DD0006B3D08086B3D08086B3D08086B3D080803
:103DE0006B3D0808994408086B3D08086B3D0808BE
:103DF000E942080817430808334308085B430808EA
:103E00007743080855440808934408086B3D0808A0
:103E10006B3D08086B3D08086B3D08086B3D0808C2
:103E2000694508080D4508086B3D0808A93F0808C2
:103E3000D53F0808F33F08081B400808374008082A
:103E40004D40080875400808F9400808FF40080878
:103E50000B4108081B410808214108084341080894
:103E600069410808794108086B3D08088D41080838
:103E7000BD410808ED4108081942080845420808F4
:103E800057420808854208086B3D08089542080813
:103E90006B3D08086B3D08086B3D08086B3D080842
:103EA0006B3D08086B3D0808113F0808173F0808DC
:103EB0001D3F0808233F08086B3D08086B3D0808B4
:103EC0006B3D08086B3D08086B3D08086B3D080812
:103ED0006B3D08086B3D08086B3D08086B3D080802
:103EE0006B3D08086B3D0808293F0808393F080862
:103EF000533F0808653F08086B3F0808713F0808F2
:103F0000773F08086B3D08087D3F0808A33F080875
:103F1000FFF706F929E7FFF781F926E7FFF7D8F958
:103F200023E7FFF753FA20E705F08EFA584904F02B
:103F300048FA584D012306E005F086FA554D5649DA
:103F400004F03FFA00232B6005F058FD2946482075
:103F500004E305F079FA514904F033FA504B012299
:103F60001A7002E7FEF742FFFFE6FFF72FF8FCE6C4
:103F7000FEF7B2FFF9E6FEF7F7FDF6E6494D2B68CE
:103F80001BB905F061FA484902E005F05DFA4749BE
:103F900004F017FA01232B6005F030FD414944205D
:103FA000DCE2FFF747FBE0E6414B1A68012A05D146
:103FB00000221A6005F048FA3E4904E001221A6026
:103FC00005F042FA3C4904F0FCF905F017FD3849C8
:103FD0006420C3E2394B1A680AB9012230E005F0C7
:103FE00033FA374904F0EDF905F008FD3349602054
:103FF000B4E2344B1A68012A05D100221A6005F098
:1040000023FA314902E005F01FFA304904F0D9F9EA
:1040100005F0F4FC2B496820A0E22A4B1A68012A1B
:1040200003D105F011FA2A49F0E701221A6005F0E0
:104030000BFA2849EAE7214B1A68012A02D100222B
:104040001A60D1E705F000FA2349CBE7234B1A6841
:10405000012A03D105F0F8F9214904E001221A6090
:1040600005F0F2F91F4904F0ACF905F0C7FC1B4953
:104070006C2073E2194B1A68C2BB05F0E5F91A49C6
:10408000F1E700BF9007002065F908080C0B00203D
:104090006BF90808F00A002085F90808A0F908085B
:1040A000F50600208C000020CEF90808E1F9080888
:1040B000D0070020FBF908080FFA0808BC0600200A
:1040C00022FA0808780700204CFA08086DFA080858
:1040D00091FA0808B4FA0808D2FA0808080B002078
:1040E000FFFA080827FB08084BFB080800221A60A3
:1040F00005F0AAF9AA49B6E7FEF7B2FF35E6FEF7E2
:10410000AFF805F0A1F9A74911E005F09DF9A6491E
:1041100004F057F9FDF7C4F827E6FEF7A9FE24E6F8
:10412000A24D2B68012B05D105F08EF9A04904F0B2
:1041300048F91AE605F088F99E4904F042F901238E
:104140000CE09A4D2B681BB905F07EF99A49EEE711
:1041500005F07AF9994904F034F900232B6005F051
:104160004DFC29467820F9E105F06EF9944904F0F8
:1041700028F9FDF7FBF8F8E505F066F9914904F038
:1041800020F96B210720FCF75FFDEEE58E4D2B68D3
:1041900083B105F059F98D4904F013F900232B6020
:1041A00005F02CFC29467C20FCF73AFC884800F0FE
:1041B000B8FEDAE505F048F98649B8E7824D2B6884
:1041C00083B905F041F9844904F0FBF801232B6021
:1041D00005F014FC29467C20FCF722FC7C4800F00A
:1041E000C5FEC2E505F030F97C49A0E77C4D2B689F
:1041F00033B905F029F97B4904F0E3F8012305E020
:1042000005F022F9784904F0DCF800232B6005F072
:10421000F5FB29468020A1E1744D2B6833B905F0E8
:1042200013F9734904F0CDF8012305E005F00CF90A
:10423000704904F0C6F800232B6005F0DFFB294627
:1042400084208BE105F000F96B4904F0BAF860486E
:1042500000F042FE89E5694D2B68012B06D105F07F
:10426000F3F8674904F0ADF8002305E005F0ECF839
:10427000644904F0A6F801232B6005F0BFFB294632
:1042800088206BE10121524800F096FE5E4BB4227B
:104290001A606AE505F0D8F85C4904F092F808A8BD
:1042A0005B4902F005FE089A5A495B48FCF7F9FBA6
:1042B00008A803F09FFD08A8554902F015FE089ACA
:1042C00056495548FCF7EDFB08A803F093FD08A8F4
:1042D0004F4902F025FE089A51494F48FCF7E1FB8F
:1042E00008A803F087FD40E505F0AEF84D4904F05D
:1042F00055F805F0A9F80A22462104F0D0F805F097
:10430000A3F8494904F04AF805F09EF80A220D2165
:1043100004F0C5F829E5454D2B681BB905F094F864
:10432000434902E005F090F8424904F04AF80123BD
:104330000DE03E4D2B68012B03D105F085F83E4979
:1043400002E005F081F83D4904F03BF800232B60C2
:1043500005F054FB3549582000E1394D2B681BB955
:1043600005F072F8374902E005F06EF8364904F0BE
:1043700028F801230DE0324D2B68012B03D105F005
:1043800063F8324902E005F05FF8314904F019F8AA
:1043900000232B6005F032FB29495C20DEE000BFE2
:1043A00074FB080805E9080899FB0808901B002021
:1043B000B5FB0808D7FB0808FBFB08081EFC08082B
:1043C00043FC08085EFC0808AC08002071FC0808E3
:1043D000941B002094FC0808AFFC0808D1FC0808D6
:1043E000F0010020EBFC080806FD0808F806002094
:1043F00022FD080841FD080860FD0808881B002010
:1044000078FD08089CFD0808C0060020BFFD0808CC
:10441000E01B0020F6FD0808EC1B0020FEFD08084C
:1044200006FE08080FFE08081DE90808A00A00207B
:104430001DFE08082CFE080842FE080852FE080867
:10444000981B002069FE080877FE08088CFE080803
:104450009CFE080804F0F8FF494903F09FFF494813
:1044600003F062FA054604F0EFFF0A22294603F042
:10447000E8FF04F0E9FF444903F090FF414803F0EE
:1044800050FA054604F0E0FF0A22294603F0D9FF5E
:104490006BE4FFF7F7FB68E4FFF7B2FB65E404F0B9
:1044A000D3FF3A4903F08DFF394D04F0CDFF036887
:1044B0001B699847064600287FF457AC344802F041
:1044C00021FA18B904F0C0FF324954E004F0BCFFEF
:1044D0000746A86805F0B4FDCDE90601686805F057
:1044E000AFFDCDE90401286805F0AAFDCDE9020180
:1044F0002949E86806F002FB05F0A2FD274ACDE94C
:1045000000013146384604F091F8CEE7244D2B687F
:10451000012B0BD104F098FF224903F052FF002336
:104520002B6005F06BFA29468C2017E0FEF7F2FBB2
:104530001BE41D4D2B68012B05D100232B6004F0DB
:1045400083FF1A4904E001232B6004F07DFF184922
:1045500003F037FF05F052FA29469020FCF760FA85
:1045600003E4FEF7DBF900E4FFF7A0F8FFF7FDBB7B
:1045700004F06AFF0F4903F024FF0DB0F0BD00BF47
:10458000B3FE0808C80A0020BBFE0808CBFE0808D6
:10459000FC06002006FF08080000C8421CFF0808AF
:1045A000B40800204DFF0808180200206FFF08081B
:1045B0008DFF0808D5FF08081FB56B4C00226B4B18
:1045C000D4E9000105F0DEFBC4E90001FDF78CFD34
:1045D000674B1860FDF7CAF8664B1860FDF732F9B3
:1045E000FDF7A8FA04F0F3F9634B1860634B6448D5
:1045F0001A68644B1A6002F045FD002816DD604819
:1046000002F04AFD604C207004F01EFF5F4903F089
:10461000D8FE04F019FF217803F0DDFE20786D2824
:1046200002D1FFF79DFB01E0FFF7CCF9FEF776F929
:10463000574B1B686BB1574A138843F00103138033
:1046400003F086F800283CD1534B1A78002A38D161
:1046500047E003F07DF8C0B1504B1B6873B104F024
:10466000F3FE4F4903F0ADFE4D49684603F009FCE7
:104670006846FDF78FF8684603F0BCFB4948002305
:104680001A461946406803F01BF8474C204600F0D4
:1046900095FA464B1B68012B64D1454804F058FA43
:1046A000444906F015FB00285CD094F82130002B1B
:1046B00058D104F0C9FE404903F083FEFDF774FDB4
:1046C00050E003F045F80028DFD0344B1B6823B1DD
:1046D00004F0BAFE394903F074FE2F4B00221A7021
:1046E000D3E72E4C01221A70236873B104F0ACFE9C
:1046F000334903F066FE3249684603F0C2FB684660
:10470000FDF748F8684603F075FB264800231A4673
:104710001946406802F0CCFF236873B104F094FEA0
:10472000284903F04EFE2849684603F0AAFB684674
:10473000FDF730F8684603F05DFB03F001F82368ED
:10474000002BA2D004F080FE204903F03AFE1F495E
:10475000684603F096FB6846FDF71CF8684603F0D0
:1047600049FB92E704B010BD000B00200000F03FB1
:1047700094070020B40A0020E40A0020D80000209A
:104780000C0B0020181C002090070020ECFF0808EC
:104790008C0000208C1B0020F40A0020F00A00206E
:1047A000B90009087C1F002098070020901B0020FA
:1047B000A40800200000A041DD00090891000908BC
:1047C0003900090858000908690009087A00090831
:1047D0002DE9F843794B7A4F7A4C4FF001087A4D26
:1047E00083F80080794E02F0FFFC3946204603F042
:1047F00048FB2046764C2A46314605F06BF92046A8
:1048000002F012FA2046734C2A46734905F062F909
:104810003946204603F035FB2A463146204605F04E
:1048200059F9FCF755F96D4C034604F130014FF48A
:104830008052204602F05CFC694B2A4669492046BA
:10484000236005F047F94FF6FF72674B00241C7098
:104850005C809A80032002F0B7FE2146404602F0B9
:10486000C3FE4FF0FF31614802F036F8604800F0B7
:1048700032FB604800F0F2F85F4800F0EFF8DFF834
:10488000C89149215D4800F030FA4A215C4800F0A7
:104890002CFA2146484604F01BF94846DFF8AC9153
:1048A0002A46584905F016F92146484602F0DFFF2E
:1048B0004846DFF89C912A46534905F00BF94846D3
:1048C00000F05CF92A465149484605F003F92721D2
:1048D0004F4802F09BF84F4B642283F860244E4A05
:1048E0004E48C3F8702483F874844D4ADFF864811D
:1048F000DFF86491DC7183F83C4483F83D4483F82D
:104900006A44C3F8784483F87C4483F87D44C3F850
:104910006C2441462A46047244724460C0F80090F8
:1049200005F0D8F83F482A46414604724472446074
:10493000C0F8009005F0CEF83B484FF47A73047449
:10494000447444608360394C394B2A4639490360CA
:1049500005F0C0F83946204603F093FA2046364C5D
:104960002A46314605F0B6F83946204603F089FA62
:104970002046324C2A46314605F0ACF839462046EE
:1049800003F07FFA20462E4C2A46314605F0A2F865
:104990003946204603F075FA20462A4C2A4631460D
:1049A00005F098F83946204603F06BFA2A4631465E
:1049B0002046BDE8F84305F08DB800BFF40600209E
:1049C000F00509087C070020D0010020F57D0808CB
:1049D000401B002024020020E16B08080C0B002083
:1049E00084E3080833090808E80A0020FC060020D0
:1049F000941B0020E8010020E9010020A80A002003
:104A0000AE0A0020EF8A08088D780808514B080884
:104A1000B80800203402002038E30808C40600204B
:104A2000D42000209C1B00205C080020D00A00201D
:104A300044E3080837090808B80A0020BC0700202A
:104A400008020020D4010020A4080020C80A002089
:104A500098070020350908086CE30808704710B56E
:104A60000C4604F0F7FF482104F0B0FE04F0F2FF1A
:104A7000036821469B68984704F0ECFF002104F08E
:104A8000A8FE04F0E7FF01231A46482104F095FE32
:104A900004F0E0FF03681B69984728B104F0DAFFCF
:104AA00003685B699847C0B210BD70B516460C46E6
:104AB000054604F0CFFF482104F088FE04F0CAFF49
:104AC000036821469B68984704F0C4FF0368314699
:104AD0009B68984704F0BEFF012104F07AFE21464E
:104AE0002846BDE87040FFF7BABF0021FFF7B7BF07
:104AF00001221146FFF7D9BF00220121FFF7D5BFE0
:104B00002DE9F0410446884617461E46FFF7EDFFA3
:104B10000128054615D12046FFF7EEFF4246102139
:104B20002046FFF7C2FF3A4611212046FFF7BDFF9E
:104B3000324612212046FFF7B8FF2046FFF7D8FF84
:104B400000E000252846BDE8F08102F04DBB0000E2
:104B500010B50446034B40F8143B02F097FE204684
:104B600010BD00BF1801090810B50446FFF7F0FF9B
:104B70002046242104F0B3FF204610BD38B504467A
:104B80000D4B00250360322343604FF4FA638360CA
:104B9000C56005612946143002F069FE0123A56154
:104BA000E56184F8205084F8215084F8223084F89C
:104BB0002350204638BD00BF1801090810B504462F
:104BC00002F09AFBE368C01A636898421FD302F0B0
:104BD00093FBE06004F1140002F0A3FE00F0040374
:104BE00003F0FF0273B194F82030C0F30110834248
:104BF0001FBFE36984F820000133E361012384F8D7
:104C0000213001E084F82120A3690133A36102F07F
:104C100073FB2369C01AA36898421CD902F06CFB8D
:104C2000A36920610A2B06DDE269B2EBA30FD4BFB2
:104C30000123002300E0012384F8223033B194F8EB
:104C40002030013B012B8CBF0023012384F823304B
:104C50000023A361E36110BD02F0C6BA10B504469B
:104C600004F0F8FE03682146BDE810409B68184731
:104C700008B504F0EFFE03685B699847C0B208BD51
:104C800070B506460D46144604F0E4FE314604F0C5
:104C900099FD2846FFF7E2FF200AFFF7DFFFE0B2A9
:104CA000FFF7DCFF04F0D6FEBDE8704004F095BDD0
:104CB00010B5044604F0CEFE214604F083FD00202A
:104CC000FFF7CCFF04F0C6FE04F087FD04F0C2FE3F
:104CD0002146022204F069FDFFF7CAFF0446FFF7F0
:104CE000C7FF40EA042080B210BD002201700821F5
:104CF000828041708270704708B504F0ABFEBDE859
:104D0000084004F043BD81807047032910B5044674
:104D100022D80229828808D0032909D0012914BF8A
:104D200042F4834242F4A34204E042F4C34201E06D
:104D300042F4E34242F0030242F4004201212078AF
:104D4000FFF79EFF607803F08FFE2078FFF7B0FF3B
:104D5000A378184180B210BD002010BD02F044BA03
:104D60002DE9F0410E4688B00446154668460423F6
:104D7000022203F017FA0A230422314604A803F0A2
:104D800011FA684603F0BDFAA08304A803F0B9FA4B
:104D9000E083684603F0B5FA064604A803F0B6FAC5
:104DA0008046304605F03AF9064640460F4605F083
:104DB00047F900220C4B05F0C1FA0B460246394672
:104DC000304604F0DFFF532D0CBF00238023C4E9DD
:104DD000020184F8243004A803F00CF8684603F0BC
:104DE00009F808B0BDE8F08100004E402DE9F0411F
:104DF0000E4688B00446154668460523022203F095
:104E0000D1F90A230522314604A803F0CBF96846FC
:104E100003F077FA208404A803F073FA60846846EC
:104E200003F06FFA064604A803F070FA8046304695
:104E300005F0F4F8064640460F4605F001F9002259
:104E40000C4B05F07BFA0B4602463946304604F01F
:104E500099FF452D0CBF00230123C4E9040184F808
:104E6000253004A802F0C6FF684602F0C3FF08B070
:104E7000BDE8F08100004E4010B50446084603F03E
:104E800040FAE06210BD000010B50446084603F089
:104E90003DFA024905F07EFD206310BD000020416F
:104EA00000F10801D1E90001704700F11001D1E9DA
:104EB0000001704708B5006B05F032FF08BD90F99E
:104EC0002400704790F92500704702F08DB90368FF
:104ED000C9B29B681847704708B504F0BBFD15219F
:104EE00004F074FC04F0B6FD0521FFF7F0FF04F0B8
:104EF000B1FD0321FFF7EBFF04F0ACFDE821FFF764
:104F0000E6FF04F0A7FDFF21FFF7E1FF04F0A2FD9B
:104F10000021FFF7DCFF04F09DFDBDE8084004F030
:104F20005CBC08B504F096FD152104F04FFC04F0BC
:104F300091FD0521FFF7CBFF04F08CFD0321FFF766
:104F4000C6FF04F087FDEE21FFF7C1FF04F082FDEC
:104F50000021FFF7BCFF04F07DFD0021FFF7B7FF44
:104F600004F078FDBDE8084004F037BC08B504F053
:104F700071FD152104F02AFC04F06CFD0521FFF7FA
:104F8000A6FF04F067FD0321FFF7A1FF04F062FD17
:104F9000EE21FFF79CFF04F05DFDFF21FFF797FF77
:104FA00004F058FD0021FFF792FF04F053FDBDE827
:104FB000084004F012BC000008B521B104F044FA26
:104FC000134903F0FEF904F045FD152104F0FEFB42
:104FD00004F040FD0521FFF77AFF04F03BFD0321BB
:104FE000FFF775FF04F036FDEC21FFF770FF04F0CA
:104FF00031FDFF21FFF76BFF04F02CFD0021FFF7CF
:1050000066FF04F027FDBDE8084004F0E6BB00BFE2
:105010005F01090802F0E8B802F0E6B810B50446EE
:10502000243001F0C5FA28B104F50C70BDE8104039
:1050300001F0BEBA10BD411E00F10A020020430873
:1050400043EAC01011F8013F18448A4200F0FF0003
:10505000F5D1704738B5CB6804460D4623B9BDE895
:105060003840896800F00FBF2422002106F005FABD
:10507000102301202370A070AB68A360EB6823624B
:1050800038BD2DE9F04303788BB0002580460E46ED
:1050900017468DF804508DF8055063B10C2A0AD9D3
:1050A0000EE0414601A8FFF7D5FF20B1012498F892
:1050B0000330A3420BD24FF0000986F8009055E070
:1050C000C378002BEDD100F051FB81464EE0B8F8DB
:1050D000041001A8091B490101F008F881460028C5
:1050E000E9D0002101A800F0E4FF0028E3D0C37A52
:1050F0000F2BE0D1037803F01F039C42DBD1631E2A
:105100000D225A43002306EB020E042BD9B204D819
:1051100000EB4301B1F801100BE00A2995BF03F140
:10512000FF31591C00EB410100EB410194BFC988DC
:10513000898861B1974210D97E2994BFC9B23F21B5
:105140000EF8031001330D2B02F10102DDD197425D
:1051500003D90378590648BFB554F31903F8015C25
:1051600003785B0602D40134E4B2A0E748460BB0F2
:10517000BDE8F0832DE9F0470378441C202B01D1D2
:105180002046F9E70546704F88602C1A2E4615F820
:10519000013B0BB32F2B01D1031917E05C2B02D17C
:1051A0000020BDE8F087A3F12204E4B21D2C03D84F
:1051B00027FA04F4E407F3D403F0BF043C2CEFD047
:1051C000203B5E2BE1D9EBE72F2D05D11E4613F8CE
:1051D000015B202DF8D1F9E7166003199842C0EB66
:1051E000030809D013F8012D2E2AF7D0202AF5D074
:1051F000B8F1FF0FD4DC01E04FF00008C1F80480E3
:1052000001F10C0301F11702202403F8014F93422E
:10521000FBD103461A1A13F8014B2E2CFAD0202C7E
:10522000F8D0B2FA82F408F1FF366409731C07D192
:1052300000274FF0070E3D46BA464FF0080909E037
:10524000835D2E2BF4D0013EF0E7835C202B04D14C
:10525000002401324245F8DB4BE02E2B02D1B24252
:10526000F6D103E0222B17D07C2B15D0A3F12A0C0A
:10527000BCF1050F01D82D2B0ED1A3F13A0CBCF1D6
:10528000050F09D9A3F15B0CBCF1020F04D9A3F1FE
:10529000210CBCF15D0F02D9B2420ED149E0B242FD
:1052A00047D0754521D8A3F1610CBCF1190F08D87E
:1052B000203BDBB249EA07070AE0754515D8002410
:1052C0005F23A3F1410CBCF1190F98BF49EA0A0A08
:1052D00005F1010C5FFA8CFC0D44BCF1060F6B73F9
:1052E00001D881F80CC06546B3E7BEF10A0F17D1AB
:1052F00000244B7B202B3FF453AF3CB11AEA070F3D
:1053000018BF02270F700120BDE8F0870B7B01203A
:10531000087019447E234B7331238B73BDE8F087EB
:10532000B242E5DC32464FF00A0E08254FF0100974
:105330008EE7BEF10A0FDBD032464FF00A0E082589
:105340004FF0100985E700BF010100312DE9F84356
:1053500006460D4691F80C9002247E2701F10D08B7
:105360006968AA6863189BB21144914206D012F88A
:10537000010B03EB431343409BB2F6E7B9F1030F74
:1053800028BF4FF0030909F10402D2B203F00F0164
:10539000A818013A0929D2B294BF3031373191456A
:1053A00041734FEA1313F1D305EB09035F73002137
:1053B000304600F09BFE0121304600F07AFE0146A7
:1053C00028B97078B0FA80F04009BDE8F883037816
:1053D0004BB1C37A1B07EED40B22404606F018F8F7
:1053E0000028E8D102E00120BDE8F8830134A4B22E
:1053F000642CB5D1BDE8F8832DE9F04F9B460B78BE
:1054000089B013F0700F05900E46914601D100202F
:10541000A0E1059B1B78002BF9D153680293137808
:105420009B0700F08D81029B0D270C33B3FBF7F730
:105430000137FFB24FF000080021304600F056FE61
:1054400044464346454609F10D02CDF80C80CDF89F
:10545000108006927269012130460793C2F34F1AF9
:1054600000F027FE079B20B97378002B00F0908096
:10547000CDE70278E52A00D042B9002C08BFD0461B
:10548000BC423CBF0134E4B222B981E0BC4238BF27
:10549000002403E0E52A01D10025DBE72E2AFBD01A
:1054A000C17A0F2952D13DB95106D3D5437B02F0C1
:1054B0001F0503932B4607E0013BDBB29A42EBD179
:1054C000427B03999142E7D15A1E4FF00D0C0CFB21
:1054D00002FC029A6245DFD94FF0000EBEF1040FC4
:1054E0005FFA8EF204D800EB4E02B2F801200CE015
:1054F0000A2A95BF0EF1FF320EF1010200EB4202C3
:1055000000EB420294BFD28892880299614503D190
:10551000002A18BF00259DE7FF2ABDD8D2B2A2F10C
:1055200041011929D9F8081098BF203211F80C1040
:105530000CF1010AA1F1410C98BFD2B2BCF1190FD4
:105540009CBF2031C9B29142A6D1FBE00907A3D488
:105550004DB1012B7FF45BAFFFF76DFD039B8342E1
:105560007FF455AF0FE00B220699079305F050FF2B
:10557000079B00287FF46EAF99F80020D20702D570
:105580000122049266E71BF4006F00F0D1803EE731
:105590001BF4007F3FF43BAF0BF00303013B012BF7
:1055A0003FF635AF002C08BFD046BC4202D3049B67
:1055B000CBB91FE00021304600F07BFD10B97378B5
:1055C0005BB124E70134E4B2EFE7B3681B79012B48
:1055D000EDD81034E4B2A742E9D9304600F0DAFB46
:1055E0000028F2D113E749463046FFF7AFFE002806
:1055F0003FF40DAF4FEA4811304600F077FD002828
:105600003FF405AF7D1EEDB22C464FF0000A4FF07F
:105610000F0841E00021304600F04BFD074600280E
:105620003FF4F5AEB268AC4292F8243043F0010387
:1056300082F8243014BF224644F04002027080F801
:105640000B8080F80CA009F10D000392FFF7F3FC2A
:10565000039A787387F81AA087F81BA002F01F023C
:105660000D23013AD9F808E05A43002302999142E8
:1056700015D91EF80210042B5FFA83FC03F1010018
:1056800013D807EB4303A3F801100D2802F1010220
:105690000346EBD1013CE4B2002CBBD10EE014BFB9
:1056A0004FF0FF31002189B2E5E7BCF10A0F94BF4A
:1056B00007EB430307EB40039980E6E77369214654
:1056C0003046C3F34F1A00F0F4FC074600283FF4BD
:1056D0009EAE2022214605F0D0FE4B4653F80D2FFA
:1056E0003A605A687A601A893A819B7ABB7299F853
:1056F000003003F018033B73184B1B682BB107F104
:105700000E0107F11000984706E021233B7428237F
:105710007B740823BC73FB733B8A7B823B83FB89CE
:10572000FB82B26892F8243043F0010382F82430FF
:1057300000955B4652463146059800F020FD09E091
:10574000012777E60EF1010EBEF10D0F3FF482AE98
:10575000D446C3E609B0BDE8F08F00BFD81B0020D7
:1057600001F042BD01F040BD01F03EBD10B50C4658
:10577000017809B9002010BD11F0600104D02F2379
:1057800023700023637006E000F044FB0028F1D092
:10579000214600F04EFB012010BD01F025BD0000A8
:1057A00070B50E46154601F09FFD0C4C2368C01ADB
:1057B0000B4B984208D901F09FFD0A4B186001F08D
:1057C000B7FF01F091FD206001F096FD80B2801BD3
:1057D000A842D4BF0020012070BD00BFCC1B002018
:1057E000A08601000421002038B5057A04464DB991
:1057F000406800F079FA63682946187D04F09FF844
:105800000123237238BD10B5037A04466BB1436897
:105810000121187D04F093F8FF21606800F096FAEA
:10582000606800F075FA0023237210BDF8B50446D5
:105830000D46164601F060FD87B2606800F06BFA15
:10584000FF28607209D14FF47A7239462046FFF77B
:10585000A7FF0028F1D055230BE0FE2801D05023EC
:1058600007E032462946606800F05AFA607230B1AB
:10587000602320462370FFF7C6FF0020F8BD606854
:1058800000F049FA606800F046FA0120F8BD70B5F2
:1058900004460E4601F030FD85B2324629462046C8
:1058A000FFF77EFF30B9606800F035FAFF28F4D1C9
:1058B000012070BD002070BDF7B5037A04460D4687
:1058C00001920BB9FFF790FF25B14FF49671204676
:1058D000FFF7DDFF45F04001606800F037FA0DF199
:1058E00007060DF1030716F80119606800F02EFA9B
:1058F000BE42F8D1002D0CBF95218721606800F0D1
:1059000025FA606800F007FA0B25606800F003FADA
:105910000306607203D5013D15F0FF05F5D103B014
:10592000F0BD70B504460D46164637210022FFF73C
:10593000C3FF324629462046BDE87040FFF7BCBF92
:105940002DE9F0410025057205708572416004461D
:1059500090461E4601F0D0FC41460746606800F0C4
:10596000C7F963684F4A4FF001081D72DA605D7431
:1059700083F810802046FFF737FF63684146187DA3
:1059800003F0DDFF0A25FF216068013D00F0DEF92C
:1059900015F0FF05F7D163682946187D03F0CFFFA6
:1059A0000A25002211462046FFF786FF012880467F
:1059B00012D0013D15F0FF0501D1202357E0FD2154
:1059C000606800F0C3F94FF40278606800F0A3F952
:1059D000B8F10108F9D1E4E74FF4D5720821204667
:1059E000FFF76AFF052802D184F80A800FE004253A
:1059F000606800F090F9013D15F0FF056072F7D185
:105A0000AA2802D10223A37201E025232FE0A37A62
:105A1000BFB2022B0CBF4FF0804500252A4629213A
:105A20002046FFF77EFF024648B14FF4FA6239463E
:105A30002046FFF7B5FE0028F0D0432317E0A37AF5
:105A4000022B0ED02046FFF7DEFE6368B068347983
:105A5000317B727BD8601C7219745A740120BDE8C6
:105A6000F0813A212046FFF727FF38B1372320463F
:105A70002370FFF7C8FE0020BDE8F081606800F0E9
:105A80004AF900F0C000C02804BF0323A372606875
:105A900000F041F9606800F03EF9606800F03BF901
:105AA000D0E700BF90D0030038B5837A1546032BAA
:105AB00018BF49020A4611210446FFF7FDFE10B146
:105AC000302323700BE029464FF400722046FFF785
:105AD000ADFE054618B12046FFF795FE03E02046CF
