:020000040808EA
:1000000000000808AC100908000006000A000501FD
:0800100004027E05000000005F
:040018008CE0080868
:1000200009480A4908B5884205D0094A824202D0E7
:10003000121A0BF0BAF80748074A0021121A0BF0FF
:10004000DAF8064808BD00BF00000020BC0E090811
:10005000C8010020C8010020CC220020CC220020B2
:1000600070B508F0D9FC074B074C1E46E41AA408EB
:100070000025A54204D056F8253098470135F8E709
:1000800070BD00BF1C0E0908A80E090802F086B852
:1000900008B504F045FBBDE8084008F07FBC07F058
:1000A00085BA07F08BBA0078B0FA80F04009704743
:1000B00001230370704748B1836C3BB1C36C2BB113
:1000C000006DB0FA80F04009404270474FF0FF30B9
:1000D000704773B5024608460C46FFF7ECFF05462D
:1000E00050BB12F0800FCA7814BF002310239A422D
:1000F00022D0CB708E6C01230DF10702F3216078C2
:10010000B04784F8540010B16FF0010514E0E378B3
:10011000E66C03F010029DF80730732123F0100302
:1001200013438DF807300DF1070201236078B047C3
:1001300084F854000028E7D1284602B070BD40B1D1
:1001400003788B4208D90170137843F002031370CF
:1001500002E04FF0FF307047002070472DE9F84370
:1001600006461846884691461D46FFF7A4FF0446FA
:10017000A8B9AB783BB929463046FFF7AAFF044639
:1001800008B946F08006AF6C4B4642463146687867
:10019000B847002885F8540018BF6FF001042046C6
:1001A000BDE8F8832DE9F04F1E468BB083468A46A2
:1001B00014460021282268460BF01DF83046FFF750
:1001C0007AFF0546A8BB631E122B30D80DF101083B
:1001D0005F46C1460AF1FF3AA4B2CBEB07039BB2DC
:1001E0009C4213D9B37843B931463878FFF771FF91
:1001F0003B78054603F07F0300E03B7808F8013CBC
:100200001AF8013F013708F8023BE6E78DB96300B1
:10021000013BF46C9BB24A469DF800107078A047F1
:10022000002886F8540018BF6FF0010501E06FF058
:10023000030528460BB0BDE8F08F37B5742304469C
:100240008DF80730FFF737FFA0BB05462346012294
:100250000DF106017420FFF781FFA0B99DF806306B
:1002600013F0030511D023F003038DF806300122AB
:1002700023460DF106010DF10700FFF793FF236DF3
:100280000A209847E2E7002DE0D194F844308BB182
:100290009DF8062003F0030322F0030213438DF8B8
:1002A000063038B9234601220DF106010DF1070091
:1002B000FFF778FF03B030BD2DE9F041002388B08F
:1002C000064608460C468DF807300493ADF8143006
:1002D0000693ADF81C30FFF7EEFE002840F0648175
:1002E000320791F844706AD5012FADF80800ADF8D7
:1002F0000C0063D15A238DF80830B1F84030C72B79
:1003000005D9B3F5C87F28BF4FF4C87300E0C823F0
:10031000B4F91220142102F5163202F29912534355
:1003200093FBF1F30A2103F5481393FBF1F394F9DE
:10033000112094F9140002F544725A4394F90430E0
:1003400058434FF47A7390FBF3F31B0203EB620103
:1003500094F83430043391FBF3F294F9351083238D
:100360004B4303F5803392FBF3F32222FA3B5343D2
:100370006422323393FBF2F38DF80C30B4F8423040
:100380008DF80920B3F57C6F0BD200223F2BD1B240
:1003900002F1010201D99B08F8E703EB8113DBB2FC
:1003A00000E0FF238DF80D30002384F83C3002225A
:1003B000234603A902A8FFF7F5FE00E00120002371
:1003C00084F8443010B92046FFF737FF06F01005D7
:1003D000ADB205B304F14602072104F13B00FFF77B
:1003E000AEFE30B9234601220DF107017520FFF75B
:1003F000B5FE94F83B3001259B0003F01C029DF8EC
:10040000073023F01C03134375228DF807308DF855
:1004100010208DF81830B30622D504F146020821C9
:1004200004F13D00FFF78BFE30B9234601220DF1A8
:1004300007017020FFF792FE9DF80730702123F02E
:10044000080294F83D3003F00803134308AA2A4435
:1004500001358DF8073002F8101C02F8083CEDB2A7
:10046000B10733D004F14602052104F13900FFF74A
:1004700066FE30B9234601220DF107017420FFF713
:100480006DFEF20709D59DF8073094F8392003F086
:100490001F0343EA42138DF80730B3070BD594F8D6
:1004A0003A309B0003F01C029DF8073023F01C0338
:1004B00013438DF8073008AB2B44742203F8102C3B
:1004C0009DF80720013503F8082CEDB2710722D5FD
:1004D00004F14602052104F13800FFF730FE30B97F
:1004E000234601220DF107017220FFF737FE9DF828
:1004F0000730722123F0070294F8383003F0070325
:10050000134308AA2A4401358DF8073002F8101C5D
:1005100002F8083CEDB216F0C00F3CD004F14608DA
:100520004246012104F13E00FFF709FE68B9424648
:100530000A2104F13C00FFF702FE30B923460122F4
:100540000DF107017120FFF709FE72060BD594F833
:100550003E301B0103F010029DF8073023F010031A
:1005600013438DF8073033060AD59DF8073023F082
:100570000F0294F83C3003F00F0313438DF807305B
:1005800008AB2B44712203F8102C9DF8072001358D
:1005900003F8082CEDB228B923462A4606A904A878
:1005A000FFF700FE84F8447008B0BDE8F081000059
:1005B00013B5184B044618689B8802AAADF804309E
:1005C00091F839300090134491F83A2002A802447F
:1005D00012F8082C13F8083C134491F83820024410
:1005E00012F8082C134440F2AB72534303F59553B1
:1005F0004FF47A721933B3FBF2F301339BB22380C9
:1006000091F83E201AB1B1F842201344238002B081
:1006100010BD00BFA0E008082DE9F04F804689B06A
:1006200008460C46FFF747FD0546002840F0678165
:1006300004AF01460F2238460AF0DDFD2046FFF7E1
:100640003AFD05460A26002D40F0538123460F222D
:1006500039461D20FFF782FD05469DF810009DF8E4
:100660001EE000F00F0388F801309DF8113020F0F3
:100670007F0088F802309DF812309DF813900093A7
:100680009DF818309DF814C001939DF819309DF81D
:1006900015B002939DF81D309DF8161003934FFA84
:1006A0008EF303F0200A40EA0A0003F01003184317
:1006B00040B200289DF8172088F8000080F21681CB
:1006C000120942EA011141EA0B3BE18AB4F9180030
:1006D0004900C1EBDB010A46CB175B104FEA32023F
:1006E00002FB03F6A2FB02234FEA123A94F91A2006
:1006F00003EB46034AEA035A4FEA233B1301DF1791
:100700000AFB07F680FB010103FB0B66AAFB032330
:10071000C00A3344920B40EA415042EA83428318B4
:10072000236303EB830380331B12A8F80430236B8D
:1007300094F926005B10A3F57A439A105243D11224
:100740004843B4F9241052135943490001EBA00166
:10075000B4F91E004FEA1C1C434394F920004CEAF4
:10076000091940014243D21002EB63039B14A28B90
:1007700003F500435343009ADB1349EA0239B4F905
:100780002220C9F58019120402EBA10140F635427E
:10079000A9EB21315143B1FBF3F35B00D91049437D
:1007A000B4F92A20B4F9280049134A439910414367
:1007B0001E12491301EB223106FB06F2564394F850
:1007C0002C20724301EB624294F9271002EBC11214
:1007D00003EB2213C8F80830236B94F90E1003EBD7
:1007E000830380331B125943642291FBF2F194F985
:1007F0000D0059435843891190FBF2F091FBF2F13F
:100800006789014401F58041794301988F1202996B
:10081000268941EA002094F90C10A0EB06165943F2
:1008200091FBF2F1A6EB610000FB07F194F91000D7
:100830000EF00F06434393FBF2F240F23C50E37B91
:100840004FEA9E1E02EBC3128B135B4312119B12E5
:10085000534301EB63034FF47A729B1253432A4ACA
:100860001B1323EAE3739342D4BFC8F80C30C8F8D3
:100870000C2094F9363005220021C3FB0201234BE2
:1008800053F82670A0FB072307FB0133100C40EA46
:1008900003401914039B1E4F4EEA830E4FEACE32DB
:1008A00057F826E012F17F42AEFB00670EFB01779E
:1008B0004FF0000343F1FF3312184B41700A40EA36
:1008C000C75079125F104FEA3206801979410AF059
:1008D0000BF9C8F8100095B998F90030002BBABF91
:1008E000012384F8453084F8455008E0236D0A2040
:1008F0009847013E16F0FF067FF4A5AE0225284674
:1009000009B0BDE8F08F00BFA08601000000002004
:10091000400000207047037C024603F0080303F008
:10092000FF002BB1D36A506A181A48BF6FF000401D
:1009300070470120704770477047704710B50446F4
:100940002C2108F08AFF204610BD10B50446342142
:1009500008F083FF204610BD10B5044641F2300177
:1009600008F07BFF204610BD083005F083BC103036
:1009700005F080BC07B502AB03F8011D0122194642
:10098000103005F077FC03B05DF804FB103005F083
:10099000E5BB103005F011BB07B501220DF10701D1
:1009A000103005F056FA01280CBF9DF807004FF0F3
:1009B000FF3003B05DF804FB00F2644005F011B9AC
:1009C00000F2644005F045B800F2644005F084B8D8
:1009D00000F2644004F0F5BF10B50C46042206F0A6
:1009E000D1FB204610BD13B50023ADF8063007F04B
:1009F0004CFB982804460AD808F0BEFE2046022286
:100A00000DF1060106F0B6FBBDF8060001E04FF05F
:100A1000FF3002B010BD10B50C46042206F0AAFB50
:100A2000204610BD07B502AB03F8011D012219468F
:100A3000083005F01FFC03B05DF804FB00231A46E4
:100A40001946406806F04ABD08B506F073FB034B33
:100A50001860BDE8084006F079BD00BFC020002046
:100A600010B50446142108F0F8FE204610BD0EB45F
:100A700000B58CB00DAA52F8041B20238DE80600A7
:100A8000039204930168002304AA1E20059306F034
:100A900099FC0CB05DF804EB03B0704710B50C4C3A
:100AA0002368DB0711D42046FFF7FDFA68B1094A35
:100AB0000321094B094808F08FFC2046FFF7F8FA9C
:100AC000074A0849054808F0C3FE044810BD00BFA6
:100AD000141A0020881900201C1A002090180020E9
:100AE000C80100201509080810B5FFF7D7FF074B0C
:100AF000044653B108F08DFC38B1236820461B69C9
:100B00009847002801DDAFF3008010BD0000000011
:100B100010B50C4C2368DB0711D42046FFF7C3FA4D
:100B200068B1094A0421094B094808F055FC2046E0
:100B3000FFF7BEFA074A0849054808F089FE04484D
:100B400010BD00BFDC010020D8170020C418002011
:100B5000EC010020C80100201509080810B5FFF7B6
:100B6000D7FF074B044653B108F053FC38B1236854
:100B700020461B699847002801DDAFF3008010BDB7
:100B80000000000038B5044600F2644004F085FE21
:100B9000E8B104F58865284605F016FB01212046DA
:100BA00005F050FD014668B12146284605F039F9A7
:100BB00068B194F8403413F0700316BF054B184623
:100BC0001D6038BD204605F03DFD0028ECD1002019
:100BD00038BD00BF981B002038B50C46054608F00C
:100BE00017FE6B2108F0B0FC08F012FE03682946DE
:100BF0009B68984708F00CFE036821469B6898475D
:100C000008F006FEBDE83840012108F0A0BC000055
:100C100073B508F0B1FD40F2136302AC44F8043D33
:100C2000214600206426FFF7D7FE08F0A5FD2146E7
:100C300008200196FFF7D0FE08F09EFD2146102007
:100C40000196FFF7C9FE08F097FD2146982001960E
:100C5000FFF7C2FE08F090FD214618200196FFF72D
:100C6000BBFE08F089FD214620200196FFF7B4FE67
:100C700008F082FD214628200196FFF7ADFE08F01E
:100C80007BFD214630200196FFF7A6FE08F074FD9B
:100C9000214638200196FFF79FFE08F06DFD2146A2
:100CA000402000250196FFF797FE08F065FD2146DC
:100CB00004200195FFF790FE08F05EFD21460C2010
:100CC0000195FFF789FE08F057FD21469420019514
:100CD000FFF782FE08F050FD214614200195FFF732
:100CE0007BFE08F049FD21461C200195FFF774FEAC
:100CF00008F042FD214624200195FFF76DFE08F023
:100D00003BFD21462C200195FFF766FE08F034FDDF
:100D1000214634200195FFF75FFE08F02DFD2146A6
:100D20003C200195FFF758FE08F026FD214644209F
:100D30000195FFF751FE08F01FFD2146482001955F
:100D4000FFF74AFE08F018FD214658200195FFF7ED
:100D500043FE08F011FD41495C20FFF73DFE08F01D
:100D60000BFD4FF47A7321464C200193FFF734FEBC
:100D700008F002FD42F21073214650200193FFF764
:100D80002BFE08F0F9FC21466FF006035420019376
:100D9000FFF722FE324B186809F066FC07F0E2FB11
:100DA00008F0EAFC214660200195FFF715FE08F0E7
:100DB000E3FC2146304601950126FFF70DFE08F0C1
:100DC000DBFC214668200196FFF706FE08F0D4FC04
:100DD00021466C200195FFF7FFFD08F0CDFC214670
:100DE00070200195FFF7F8FD08F0C6FC214674203D
:100DF0000196FFF7F1FD08F0BFFC2146782001962F
:100E0000FFF7EAFD08F0B8FC21467C200195FFF7CA
:100E1000E3FD08F0B1FC214680200196FFF7DCFDE0
:100E200008F0AAFC214684200195FFF7D5FD08F0C3
:100E3000A3FC214688200195FFF7CEFD08F09CFC1D
:100E400021468C200195FFF7C7FD08F095FC21464F
:100E500090200195FFF7C0FD02B070BD581B002027
:100E6000881B00202DE9F347C24C08F085FC214681
:100E70000020FFF7D0FD2368013304D140F2136353
:100E80002360FFF7C5FE08F077FC01A90820FFF7F3
:100E9000C2FD019809F0E8FBB74909F0EDFCDFF865
:100EA0006493DFF86483C9F8000008F065FC01A9C9
:100EB0001020FFF7B0FD019809F0D6FBAE4909F00C
:100EC000DBFCC8F8000008F057FC01A99820FFF7E8
:100ED000A2FD019809F0C8FBA74909F0CDFCA74F76
:100EE000A74E386008F048FC01A91820FFF793FDD1
:100EF000019809F0B9FBA04909F0BEFC306008F088
:100F00003BFC01A92020FFF786FD019809F0ACFB0E
:100F1000994909F0B1FC9B4D9B4C286008F02CFCD2
:100F200001A92820FFF777FD019809F09DFB924960
:100F300009F0A2FC206008F01FFC01A93020FFF797
:100F40006AFD019809F090FB8B4909F095FC8F4BE5
:100F5000DFF8B8A2186008F00FFC01A93820FFF7ED
:100F60005AFD019809F080FB834909F085FC884B04
:100F7000186008F001FC01A94020FFF74CFD019822
:100F800009F072FB7C4909F077FC824B186008F08D
:100F9000F3FB81490420FFF73EFD08F0EDFB7F499C
:100FA0000C20FFF738FD08F0E7FB7D499420FFF7A0
:100FB00032FD08F0E1FB7B491420FFF72CFD08F01F
:100FC000DBFB79491C20FFF726FD08F0D5FB7749AC
:100FD0002420FFF720FD08F0CFFB75492C20FFF7F8
:100FE0001AFD08F0C9FB73493420FFF714FD08F01F
:100FF000C3FB71493C20FFF70EFD08F0BDFB6F49B4
:101000004420FFF708FD08F0B7FB6D494820FFF7C3
:1010100002FD08F0B1FB6B495820FFF7FCFC08F01B
:10102000ABFB69495C20FFF7F6FC08F0A5FB6749BC
:101030004C20FFF7F0FC08F09FFB65495020FFF7BC
:10104000EAFC08F099FB01A95420FFF7E4FC0198A1
:1010500009F00AFB07F086FA08F08EFB5D49602074
:10106000FFF7D9FC08F088FB5B496420FFF7D3FC4D
:1010700008F082FB59496820FFF7CDFC08F07CFBA3
:1010800057496C20FFF7C7FC08F076FB55497020E4
:10109000FFF7C1FC08F070FB53497420FFF7BBFC5D
:1010A00008F06AFB51497820FFF7B5FC08F064FBB3
:1010B0004F497C20FFF7AFFC08F05EFB4D498020D4
:1010C000FFF7A9FC08F058FB4B498420FFF7A3FC6D
:1010D00008F052FB49498820FFF79DFC08F04CFBC3
:1010E00051468C20FFF797FC08F046FB44499020BE
:1010F000FFF791FCDAF8003013B1002007F032FA64
:1011000041F28731384AD9F800001368013B8B421D
:1011100084BF01231360002109F08EFC18B1394B04
:101120004FF07E521A600021D8F8000009F084FCCC
:1011300018B1354B4FF07E521A600021386809F023
:101140007BFC18B10D4B4FF07E521A6000213068C5
:1011500009F072FC18B10A4B4FF07E521A60002160
:10116000286809F069FC002852D0064B4FF07E52E7
:101170001A604DE0880000200000C8424C19002091
:1011800018020020CC170020FC1A0020D4170020E1
:10119000E4010020D00600201C0200200C1A0020D0
:1011A000101A0020B01800205C070020E81A002068
:1011B000BC1A0020181A0020540700201402002036
:1011C000E01A0020A01A0020581B002090000020E8
:1011D0008C0000209C060020D0170020580700201B
:1011E000F81A002098060020D01A0020501B00207A
:1011F000AC180020E8010020D8060020481B002081
:1012000010020020A41A002048190020B418002061
:101210000021206809F010FC18B1034B4FF07E52FA
:101220001A6002B0BDE8F087FC1A002010B507F084
:10123000CFFF03681B69984790B9FFF769FC036803
:101240001B6998470028F2DDFFF762FC03685B69C1
:101250009847044607F0BCFFE1B206F067FFE6E7F7
:1012600010BD0000F7B506460D4600244F1EAC42E7
:1012700012D0325D0B4901A806F0B0F907F0A8FFC3
:1012800001A906F04FFFA74204D007F0A1FF2021DB
:1012900006F04CFF0134EAE707F09AFF06F049FF39
:1012A00003B0F0BD71E10808F8B504460F464E1EC4
:1012B000451E0644B54207D0FFF72AFC036815F81F
:1012C000011F9B689847F5E739462046BDE8F8407E
:1012D000FFF7C8BF1FB5074A01AB52F80E0F5168A0
:1012E000128903C30A2101A81A80FFF7DDFF05B0A8
:1012F0005DF804FB2CE108081FB5074A01AB52F862
:10130000180F5168128903C30A2101A81A80FFF738
:10131000CBFF05B05DF804FB2CE1080800000000DD
:1013200038B5314B314D1B68B3B1314B588909F099
:1013300097F9304909F0A0FA2F4909F0E9F92F4946
:1013400009F0DCF82B680446002B35D007F040FF8D
:101350002B4906F0FAFE2FE02A4B1B681BB32B68C3
:1013600023B107F035FF284906F0EFFE0B2008F007
:10137000BDF909F079F908F021FD17A3D3E900239D
:1013800008F070FD09F066F84FF07C5109F0B6F8EE
:1013900008F014FD12A3D3E9002308F08DFE09F034
:1013A00059F8044608E02B6823B107F011FF1749EC
:1013B00006F0CBFE164B1C68164B2046196809F048
:1013C000A7F90446144B186809F04EF9214609F0B4
:1013D00097F838BDAFF300802D431CEBE2364A3F4F
:1013E0007B14AE47E17A843FE8010020E01A002038
:1013F000B818002000F87F46000025430000204276
:1014000076E108085807002097E10808B6E10808C7
:10141000DC060020D4170020BC1A002000000000C9
:101420002DE9F0438BB0944902A806F010FC934BD1
:101430001A681E4622B107F0CBFE914906F085FEE0
:10144000904D0021288808F038F908F0C1F90122F0
:101450004A2108F06BF830B907F0BAFE8A4906F065
:1014600074FE00242EE00321884803F0D8FC09F024
:10147000FBF8874B196809F04BF98649044609F0D7
:10148000FBF908F09BFC0022834B8046894608F05C
:1014900035FB08F097FF0028B8BF404208F07CFCFD
:1014A00000227E4B08F06EFF60B107F091FE7C4990
:1014B00006F038FE07F08CFE0223009342464B46AE
:1014C00006F06AFF0021774803F053FB30B9336818
:1014D00023B107F07DFE744906F037FE08F078F975
:1014E00001224A2108F022F8002800F0AB800021F8
:1014F0006C4803F03EFB002800F0A48065492046BC
:1015000009F0BAF908F05AFC0022634B08F0F6FA29
:1015100008F058FF0028B8BF404208F03DFC002208
:101520005E4B08F02FFF002840F08C800446814677
:1015300080460A260021554803F071FC01218044B1
:10154000524803F06CFC02218144504803F067FCD0
:1015500003214E4803F063FC013E0444EAD14C4BA6
:101560000A271E6894FBF7F009F07EF8314609F06F
:10157000CFF8044698FBF7F009F076F8314609F009
:10158000C7F80146204608F0B9FF484909F074F948
:10159000804699FBF7F009F067F8314609F0B8F892
:1015A0000146204608F0AAFF414909F065F90446C2
:1015B000FFF7B6FE3F4909F053FA20B121464046F5
:1015C00008F09CFF27E0FFF7ABFE3B4909F048FA23
:1015D00020B12146404608F093FF1CE0FFF7A0FE33
:1015E000354909F051FAA8B1204608F0E7FB1EA3DF
:1015F000D3E9002308F036FC064640460F4608F0C3
:10160000DDFB02460B463046394608F079FA08F011
:1016100021FF00E0002008F0D1FB15A3D3E900234F
:1016200008F04AFD08F016FF02220146044606A80B
:1016300006F083FB06A902A806F053FB06A806F0F5
:10164000BFFA04E01D4902A806F053FB0024012163
:10165000288808F032F802A806F0B2FA20460BB04B
:10166000BDE8F083AFF3008052B81E85EB51E83F30
:10167000B6F3FDD478E9D63F38050908E01A002012
:101680001AE20808CC00002030E20808AE1A002058
:10169000A400002000007A440000F43F0000E03F76
:1016A00055E20808E101002065E208080000F0C2E8
:1016B000000016C3000070410000C8418CE2080819
:1016C00030B51E4985B0054602230C22A1F58E6077
:1016D000FFF758FA50B307F07BFD194906F035FDC6
:1016E000184A1949194C462312680968184804F029
:1016F00072FD236893B91749174806F026FD07F0D5
:101700002AF80146684606F053FF0099124806F091
:101710001CFD684606F054FA0123236029680E4830
:1017200006F013FD0A4804F04FFD04E007F050FDF9
:101730000A4906F00AFD05B030BD00BF9006002042
:1017400090E20808BC170020981B0020441B0020D2
:10175000641B0020AAE208085C1B0020C1E2080804
:101760002DE9F04190B0B049684606F070FAAF49F3
:1017700004A806F06CFAFFF7CBF90D2201460CA87D
:1017800006F07EFE0CA9684606F0ABFA0CA806F03F
:1017900017FA0723042269460CA806F0ADFB0CA932
:1017A00004A806F09EFA0CA806F00AFAA04904A8BC
:1017B00006F045FB50BB9C49684606F040FB0028FC
:1017C000D9D007F005FD9B4906F0BFFC99490CA84C
:1017D00006F03DFA0CA8FFF773FF0CA80BE02146BA
:1017E000684606F047FB2C2818D00136029BB4B29D
:1017F000A342F4D808A806F0E3F904A806F0E0F93B
:10180000684606F0DDF910B0BDE8F081874908A808
:10181000002606F01CFA3746874DE7E77B1E062BAD
:1018200000F2FB80DFE813F02C00F9006500F900FE
:1018300098000700B90004F101084146684606F027
:1018400019FB2C2800F0EE8004F10B034246694698
:101850000CA806F051FB0CA908A806F042FA0CA847
:1018600006F0AEF9754B1B68002B00F0DB8007F02B
:10187000AFFC734906F056FC07F0AAFC0899CFE0CC
:1018800004F101084146684606F0F4FA2C2800F0FD
:10189000C98004F10A03424669460CA806F02CFBF5
:1018A0000CA908A806F01DFA0CA806F089F9634BEC
:1018B0001B684BB107F08CFC624906F033FC07F063
:1018C00087FC089906F02EFC08A90CA806F0FEF982
:1018D00004F10C01684606F0CDFA0CA902465A48FC
:1018E00003F0C8FA0CA806F06BF92B8823F0080364
:1018F00091E004F101084146684606F0BBFA2C2845
:1019000000F0908004F10B03424669460CA806F0F3
:10191000F3FA0CA908A806F0E4F90CA806F050F9AF
:10192000464B1B684BB107F053FC484906F0FAFBE5
:1019300007F04EFC089906F0F5FB08A90CA806F084
:10194000C5F904F10D01684606F094FA0CA90246A7
:101950003D4803F0D5FA1CE004F101084146684611
:1019600006F088FA2C285DD0E31C424669460CA894
:1019700006F0C2FA0CA908A806F0B3F90CA806F004
:101980001FF908A90CA806F0A1F90CA92E4803F02C
:10199000FDFA0CA806F014F944E004F101084146F0
:1019A000684606F067FA2C283CD0E31C424669469C
:1019B0000CA806F0A1FA0CA908A806F092F90CA848
:1019C00006F0FEF808A90CA806F080F90CA91E483C
:1019D00003F0E4FA0CA806F0F3F82B881A4823F079
:1019E0000C032B8003F0F0FA012803DC2B8843F072
:1019F0000C0310E0144803F0E7FA042803DC2B88FA
:101A000043F0080307E0104803F0DEFA132809DC6E
:101A10002B8843F004032B8004E007F0D9FB0C492A
:101A200006F093FB0137E0E6DDE208083805090817
:101A3000F4E20808E2E208084C1B0020E01A00204B
:101A4000F8E2080809E30808501900201BE3080819
:101A50002EE308082DE9F0418CB0B249684606F043
:101A6000F6F8FFF755F80D22014608A806F008FD24
:101A700008A9684606F035F908A806F0A1F807237A
:101A80000422694604A806F037FAA74904A806F01C
:101A9000D6F90546A8B9A349684606F0D0F998B129
:101AA00007F096FBA14906F050FBA04908A806F0F4
:101AB000CEF808A8FFF704FE08A806F081F8012474
:101AC00004E00024012501E00446054604A806F0D0
:101AD00077F8B5B9002CC4D00DE02146684606F071
:101AE000C9F92C2815D00137029BBCB2A342F4D807
:101AF00004A806F065F8684606F062F80CB0BDE888
:101B0000F0818B4904A8002706F0A1F83E46894DD4
:101B1000EAE7072E00F2FE80DFE816F008002F004B
:101B2000FC006800FC00FC009B00BC0004F1010804
:101B30004146684606F09EF92C2800F0F18004F139
:101B40000B034246694608A806F0D6F908A904A87E
:101B500006F0C7F808A806F033F8774B1B68002B8F
:101B600000F0DE8007F034FB744906F0DBFA07F082
:101B70002FFB049906F0E9FAD2E004F1010841468E
:101B8000684606F077F92C2800F0CA8004F10A03B1
:101B90004246694608A806F0AFF908A904A806F06D
:101BA000A0F808A806F00CF8634B1B684BB107F0CF
:101BB0000FFB634906F0B6FA07F00AFB049906F03A
:101BC000B1FA04A908A806F081F804F10C016846EE
:101BD00006F050F908A902465A4803F04BF908A844
:101BE00005F0EEFF2B8823F008037FE004F10108E5
:101BF0004146684606F03EF92C2800F0918004F139
:101C00000B034246694608A806F076F908A904A81D
:101C100006F067F808A805F0D3FF474B1B684BB1E7
:101C200007F0D6FA484906F07DFA07F0D1FA049990
:101C300006F078FA04A908A806F048F804F10D01A6
:101C4000684606F017F908A902463E4803F058F91D
:101C50001CE004F101084146684606F00BF92C2807
:101C60005ED0E31C4246694608A806F045F908A97B
:101C700004A806F036F808A805F0A2FF04A908A8F1
:101C800006F024F808A92F4803F080F908A805F009
:101C900097FF45E004F101084146684606F0EAF87E
:101CA0002C283DD0E31C4246694608A806F024F9DA
:101CB00008A904A806F015F808A805F081FF04A9F2
:101CC00008A806F003F808A91E4803F067F908A859
:101CD00005F076FF2B881B4823F00C032B8003F0C4
:101CE00073F9012804DC2B8843F00C032B8017E0E8
:101CF000144803F069F9042803DC2B8843F0080337
:101D0000F4E7104803F060F9132809DC2B8843F04E
:101D10000403EBE707F05CFA0C4A002106F04AFBEB
:101D20000136E0E6DDE2080856E308085AE3080851
:101D3000380509084C1B0020E01A0020F8E20808CA
:101D400009E30808501900201BE308086CE30808A1
:101D50002DE9F04F924C8BB0924902A805F077FF25
:101D6000236823B107F034FA8F4906F0EEF98F4F5C
:101D70000021388807F0A1FC07F02AFD0122492143
:101D800007F0D4FB48B92368002B3BD007F020FABA
:101D9000874906F0DAF986492BE00321854803F0EC
:101DA0003EF808F061FC844B196808F0B1FC8349E7
:101DB00008F062FD08F002F80022814B8046894657
:101DC00007F09CFE08F0FEFA0028B8BF404207F07A
:101DD000E3FF00227B4B08F0D5FA98B123688BB162
:101DE00007F0F6F90021CDE90089774A06F0E2FA1A
:101DF000764906A805F02BFF06A8FFF761FC06A8A8
:101E000005F0DEFE0021724802F0B3FE80B92368BF
:101E100073B107F0DDF96F4906F097F96E4906A82E
:101E200005F015FF06A8FFF74BFC06A805F0C8FE55
:101E300007F0CEFC0122492107F078FB002800F0D2
:101E400099800021624802F094FE002800F0928000
:101E50000025A846A9460A260021564802F0DFFFC1
:101E600001218144534802F0DAFF022180445148A5
:101E700002F0D5FF03214F4802F0D1FF013E16F0DA
:101E8000FF060544E8D14C4B4FF00A0A1E6895FB4B
:101E9000FAF008F0E9FB314608F03AFC834699FB7A
:101EA000FAF008F0E1FB314608F032FC01465846F2
:101EB00008F024FB494908F0DFFC054698FBFAF0DE
:101EC00008F0D2FB314608F023FC0146584608F0E2
:101ED00015FB434908F0D0FC0646FFF721FA4149BB
:101EE00008F0BEFD20B13146284608F007FB1FE090
:101EF000FFF716FA3C4908F0B3FD20B131462846F9
:101F000008F0FEFA14E0304607F058FF20A3D3E9AA
:101F1000002307F0A7FF80462846894607F04EFFBA
:101F200002460B464046494607F0EAFD08F092FAA1
:101F300007F044FF18A3D3E9002308F0BDF808F028
:101F400089FA02220146054606A805F0F6FE06A912
:101F500002A805F0C6FE06A805F032FE0121388869
:101F600007F0ABFB23685BB107F032F91F4906F0BD
:101F7000D9F805E01E4902A805F0BBFE0025EDE7F3
:101F800002A805F01DFE28460BB0BDE8F08F00BF8B
:101F900052B81E85EB51E83FB6F3FDD478E9D63F41
:101FA000E01A00203805090888E308089C00002092
:101FB0009CE30808A81A0020A400002000007A442E
:101FC0000000F43F0000E03FC1E30808D3E3080845
:101FD000E0010020ECE3080810E408080000F0C26B
:101FE000000016C3000070410000C84123E4080847
:101FF0008CE2080810B590B01D4908A805F027FE2E
:102000001C4904A805F062FE04A908A805F0F9FE21
:10201000194905F002FF044618490CA805F056FEC0
:102020000CA9204605F0EDFE154905F0F6FE014627
:10203000684605F04BFE0CA805F0C2FD04A805F0AB
:10204000BFFD08A805F0BCFD07F0C2F80D4906F079
:102050007CF807F0E1F9009906F077F807F0B8F896
:10206000094906F072F8684605F0AAFD10B010BDE7
:102070009EE40808000200200A010908CC010020A3
:10208000D0E60808A1E40808C5E4080810B52C4CFF
:102090000121208807F011FBFA2006F0A9FB00219E
:1020A000208807F00AFBFA2006F0A2FB0121208815
:1020B00007F003FBFA2006F09BFB0021208807F0C5
:1020C000FCFAFA2006F094FB0121208807F0F5FACB
:1020D000FA2006F08DFB0021208807F0EEFAFA20A6
:1020E00006F086FB0121208807F0E7FAFA2006F0C7
:1020F0007FFB0021208807F0E0FAFA2006F078FB49
:102100000121208807F0D9FAFA2006F071FB00219E
:10211000208807F0D2FAFA2006F06AFB0121208815
:1021200007F0CBFAFA2006F063FB2088002107F0C5
:10213000C4FABDE810406B210720FEF74DBD00BF7B
:102140009800002070B5124E124D3088124C0021BC
:1021500007F0B3FA2888002107F0AFFA00212088A1
:1021600007F0ABFA4FF47A7006F042FB3088012199
:1021700007F0A3FA2888012107F09FFA208801219F
:1021800007F09BFABDE870404FF47A7006F030BB60
:10219000A0000020C8000020A800002070B5AB4BB4
:1021A000A8B04FF4DA42AA4901A8AA4D1A80AA4C55
:1021B00005F04DFD072006F019FB0121288807F0E6
:1021C0006BFA0121208807F067FAA44B01211888D7
:1021D00007F062FAA24B0121188807F05DFAA14BC3
:1021E0000121188807F058FA9F4B0121188807F041
:1021F00053FA9E4B0121188807F04EFA9C4B01219F
:10220000188807F049FAFEF72DFE9A4805F026FADD
:1022100041F27001974805F051FB964805F019FB13
:10222000954E34210020FEF7D7FC1B210120FEF73C
:10223000D3FC304602F04CFD96F8213013B9FFF77D
:1022400025FF0EE08D4B1B68012B0AD18C4806F050
:1022500043FB8C4908F0FAFB18B196F82130002BAB
:10226000EDD00121288807F028FA2088012107F005
:1022700024FA7C4B0121188807F01FFA784B0121C2
:10228000188807F01AFA784B0121188807F015FA18
:10229000764B0121188807F010FA754B0121188838
:1022A00007F00BFA6D4B0121188807F006FA764A01
:1022B0007649774806F03AFC764A7749744806F042
:1022C00035FC002302227549754805F02FF907F007
:1022D000A3F84FF4165107F099F8FEF7DFFB4FF41F
:1022E000165107F093F8FEF713FC4FF4165107F060
:1022F0008DF86C4804F04CFE42F2107006F078FA4B
:1023000006F066FF4FF4165106F048FF664B0A22AE
:10231000196805A805F0FEFC05A909A805F0D6FC7A
:10232000624909A805F079FD044606F04BFA0A2235
:1023300001460DA805F0EEFC0DA9204605F061FD53
:10234000044606F037FA0A22014611A805F0E2FC1D
:1023500011A9204605F055FD044606F021FA0A228F
:10236000014615A805F0D6FC15A9204605F049FD43
:102370004E4905F052FD044606F0F4F90A220146E2
:1023800019A805F0C7FC19A9204605F03AFD044636
:1023900006F0F2F90A2201461DA805F0BBFC1DA9B2
:1023A000204605F02EFD044606F0F0F90A2201460B
:1023B00021A805F0AFFC21A9204605F022FD3C49EB
:1023C00005F02BFD3B4C0146204605F070FC21A892
:1023D00005F0F6FB1DA805F0F3FB19A805F0F0FBCE
:1023E00015A805F0EDFB11A805F0EAFB0DA805F016
:1023F000E7FB09A805F0E4FB05A805F0E1FB06F002
:10240000E7FE2D4905F0A1FE2C4921A805F01FFC8F
:10241000214621A805F0F5FC0146294805F047FCB6
:1024200021A805F0CDFB274902230C22A1F58E60DF
:10243000FEF7A8FB002849D006F0CAFE224905F0A5
:1024400071FE06F0C5FE216843E000BF4C1B002072
:10245000380509089C000020CC000020D000002096
:102460009400002098000020A0000020C800002058
:10247000A8000020B81A002098170020501B002048
:10248000A41800200000A041CEE40808E7090808CD
:10249000018B0808DCE40808330908080C1A00203E
:1024A000E7E4080864070020880000200DE508081C
:1024B000F0E40808C01A0020F5E408080AE5080856
:1024C000BC170020900600200FE5080806F080FEEB
:1024D0008349844C05F039FE06F07AFE824905F006
:1024E00034FE23684BB1804921A805F0B0FB21A838
:1024F000FFF7E6F821A805F063FB07F069F907F09C
:1025000003F80021288807F0D8F80323B022182107
:10251000764802F07FFB88B906F05AFE744905F050
:1025200014FE2368FBB1724921A805F090FB21A895
:10253000FFF7C6F821A805F043FB14E006F048FEBB
:102540006C4905F002FE23684BB16B4921A805F0E8
:102550007EFB21A8FFF7B4F821A805F031FB01218B
:10256000288807F0AAF8654802F050FC07F030F917
:102570000122492106F0DAFF88B906F029FE6049F8
:1025800005F0E3FD236873B15D4921A805F05FFB09
:1025900021A8FFF795F821A805F012FB03E0002120
:1025A000564802F03AFC06F013FE564905F0CDFD00
:1025B00023684BB1534921A805F049FB21A8FFF737
:1025C0007FF821A805F0FCFA4F4D07F001F906F05D
:1025D0009BFF0021288807F070F80323B022182100
:1025E0004A4802F017FB78B906F0F2FD484905F0B9
:1025F000ACFD474921A805F02AFB21A8FFF760F8A8
:1026000021A805F0DDFA14E006F0E2FD414905F0ED
:102610009CFD23684BB13F4921A805F018FB21A878
:10262000FFF74EF821A805F0CBFA0121288807F022
:1026300044F8394802F0EAFB07F0CAF801224A21BF
:1026400006F074FF88B906F0C3FD2D4905F07DFD45
:10265000236873B12A4921A805F0F9FA21A8FFF7E8
:102660002FF821A805F0ACFA03E000212A4802F077
:10267000D4FBFFF767FD06F0ABFD284905F065FDCB
:1026800006F0A6FD264905F04DFD06F0A1FD0A2243
:10269000462105F0C8FD06F09BFD224905F042FDEC
:1026A00006F096FD0A220D2105F0BDFDFEF712FE93
:1026B0001C23002121A8ADF8843004F0ABFE23A92F
:1026C0001DA805F0C4FA1D9A17491848FEF7CFF95E
:1026D0001DA805F075FA01A805F072FA28B070BDC2
:1026E00035E50808E01A00204BE50808E001002065
:1026F0006FE508089BE50808B9E50808A81A002056
:10270000D5E5080808E60808CC000020E101002013
:102710002BE6080854E60808AE1A002072E60808FE
:102720007DE608088AE6080892E60808A81B00204B
:1027300000B58FB0804902A805F089FA06F048FD7F
:102740007E4905F002FD002300937D4B06A8D3E9E6
:10275000002305F009FB06A90AA805F0B7FA794994
:102760000AA805F05AFB014602A805F02AFB0AA8B0
:1027700005F026FA06A805F023FA734B0322196820
:1027800006A805F0DAFA06A90AA805F09FFA6D492D
:102790000AA805F042FB014602A805F012FB0AA8B0
:1027A00005F00EFA06A805F00BFA684B032219682B
:1027B00006A805F0C2FA06A90AA805F087FA614939
:1027C0000AA805F02AFB014602A805F0FAFA0AA8B1
:1027D00005F0F6F906A805F0F3F95D4802F0EAFB0A
:1027E0000022002307F0A6FD90B9594802F0F1FB42
:1027F00018B9584902A805F0E8FA554802F0DAFB82
:102800000623009302460B4606A805F0ADFA03E046
:10281000514906A805F01BFA06A90AA805F056FAC0
:1028200048490AA805F0F9FA014602A805F0C9FAD4
:102830000AA805F0C5F906A805F0C2F9444802F057
:10284000BEFB0022002307F075FD98B9404802F056
:10285000C3FB012803D13F4902A805F0B6FA3C4862
:1028600002F0ADFB0623009302460B4606A805F0D6
:102870007BFA03E0394906A805F0E9F906A90AA898
:1028800005F024FA2F490AA805F0C7FA014602A864
:1028900005F097FA0AA805F093F906A805F090F953
:1028A0002B4802F08CFB0022002307F043FD80B987
:1028B000274802F089FB07F06FFA0022284B07F047
:1028C000FBFB0623009302460B4606A805F04CFAD4
:1028D00003E0244906A805F0BAF906A90AA805F0FC
:1028E000F5F918490AA805F098FA014602A805F07A
:1028F00068FA0AA805F064F906A805F061F91A4A11
:102900001A4B12680AA81A4905F0D2FE0AA902A8B1
:1029100005F057FA0AA805F053F9164902A805F080
:1029200054FA06F079FD029905F0FCFB02A805F0C7
:1029300047F90FB05DF804FB38050908A5E608085B
:10294000F01A00200A01090894170020B41A002088
:1029500050190020BAE60808AC000020B80000209A
:102960000000244080000020D41A0020BCE60808A3
:10297000D01B0020CEE6080830B55B4D95B006F0C0
:1029800027FC5A4905F0CEFB594C06F021FC29687A
:1029900005F0DBFB06F01CFC564905F0C3FB06F016
:1029A00017FC216805F0D1FB06F012FC524905F036
:1029B000CCFB06F00DFC4CF2503105F04AFD06F060
:1029C00007FC0D220146684605F05AFD4B49684652
:1029D00005F035FA002800F0818006F0F9FB48493F
:1029E00005F0B3FB06F0F4FB464905F0AEFB06F03C
:1029F000EFFB4CF2503105F02CFD06F0E9FB0D2207
:102A0000014604A805F03CFD06F0E2FB3E4905F056
:102A100089FB06F0DDFB049905F097FB06F0D8FB77
:102A20003A4905F092FB06F0D3FB0D22014608A8B7
:102A300005F026FD364908A805F001FA002842D025
:102A400006F0C6FB334905F080FB04A9284605F0D3
:102A50002EF906F0BDFB304905F077FB06F0B8FB18
:102A60000D2201460CA805F00BFD06F0B1FB2B4929
:102A700005F058FB06F0ACFB0C9905F066FB06F080
:102A8000A7FB0D22014610A805F0FAFC204910A86A
:102A900005F0D5F958B106F09BFB214905F055FB2F
:102AA0000CA9204605F003F9FFF7A4FA04E006F0AC
:102AB0008FFB1C4905F049FB10A805F081F80CA814
:102AC00005F07EF804E006F083FB164905F03DFBB7
:102AD00008A805F075F804A805F072F8684605F036
:102AE0006FF815B030BD00BF0002002018E70808DD
:102AF000CC0100202EE7080848E708087AE7080814
:102B000080E7080892E70808A2E70808BAE708087B
:102B1000A60B0908D0E70808E0E70808F3E708086B
:102B20000FE8080823E808081FB506F051FB19490B
:102B300005F00BFB06F04CFB4CF2503105F089FC24
:102B400006F046FB0D220146684605F099FC124945
:102B5000684605F074F998B106F03AFB0F4905F0A4
:102B6000F4FA0F4C06F034FB0E4905F0EEFA01239F
:102B7000236006F001FE21468C20FDF72DFF04E0C6
:102B800006F026FB084905F0E0FA684605F018F85B
:102B900004B010BD36E8080879E8080880E708089E
:102BA000B418002084E80808A5E8080830B589B002
:102BB00006F00EFB354C05F0BCFA06F009FB344973
:102BC00005F0B0FA06F004FB0A22216805F02BFBA1
:102BD00006F0FEFA2F4905F0B8FA06F0F9FA4CF2C1
:102BE000503105F036FC06F0F3FA0D220146684636
:102BF00005F046FC2849684605F021F900283AD03E
:102C000006F0E6FA254905F0A0FA06F0E1FA2449B3
:102C100005F09BFA06F0DCFA0D22014604A805F047
:102C20002FFC04A805F031FA054606F0D1FA1D493B
:102C300005F08BFA42F20C73AA1E9A4212D806F0E3
:102C4000C7FA194905F06EFA06F0C2FA29460A22B7
:102C500005F0E9FA256006F08FFD21460020FDF71A
:102C6000BBFE04E006F0B4FA104905F06EFA04A8C1
:102C700004F0A6FF04E006F0ABFA0D4905F065FA92
:102C8000684604F09DFF09B030BD00BF88000020F9
:102C9000BBE80808CEE808087AE7080880E70808D3
:102CA000FEE808083805090813E9080824E90808B7
:102CB000A5E808081FB506F08BFA05F03AFA06F009
:102CC00087FA144905F041FA06F082FA4CF25031C5
:102CD00005F0BFFB06F07CFA0D220146684605F0C0
:102CE000CFFB0D49684605F0AAF838B106F070FA36
:102CF0000A4905F02AFAFDF78BFF04E006F068FAAE
:102D0000074905F022FA684604F05AFF05B05DF85D
:102D100004FB00BF35E908087AE708086EE90808EF
:102D2000A5E8080810B588B006F052FA1F4905F06A
:102D30000CFA06F04DFA4CF2503105F08AFB06F021
:102D400047FA0D220146684605F09AFB684605F0F1
:102D50009CF9044606F03CFA154905F0F6F9154BC6
:102D60009C4218DD204605F019FC06F031FA1249A4
:102D700005F0D8F906F02CFA044605F0ECFC014603
:102D800004A805F015FC0499204605F0DEF904A816
:102D900004F016FF04E006F01BFA084905F0D5F927
:102DA000684604F00DFF08B010BD00BFDDE908085B
:102DB00038050908F52E943918EA080824E90808A6
:102DC00010B586B006F004FA1F4905F0BEF906F00A
:102DD000FFF94CF2503105F03CFB06F0F9F90D22F9
:102DE000014602A805F04CFB02A805F04EF901903F
:102DF00006F0EEF9154905F0A8F9019800F10C0369
:102E00001A2B17D807F030FC05F0ACFB06AC06F027
:102E1000DFF90F4905F086F906F0DAF954F8141DC8
:102E20000A2205F000FA06F0A7FC21465420FDF71F
:102E3000D3FD04E006F0CCF9064905F086F902A8B6
:102E400004F0BEFE06B010BD2BEA080838050908DC
:102E500056EA080824E9080830B587B006F0B8F942
:102E6000294D05F066F906F0B3F9284905F05AF93D
:102E700006F0AEF90A22296805F0D3F906F0A8F9A0
:102E8000234905F062F906F0A3F9224905F04AF951
:102E900006F09EF94CF2503105F0DBFA06F098F995
:102EA0000D22014602A805F0EBFA02A805F0EDF8A4
:102EB00042F20E730190013898421AD806F088F950
:102EC000154905F02FF906F083F90A22019905F05A
:102ED000AAF906AC06F07CF90D4905F036F954F86C
:102EE000143D2B6006F048FC21467420FDF774FD6C
:102EF00004E006F06DF9094905F027F902A804F08D
:102F00005FFE07B030BD00BFD01A00206EEA08088F
:102F100082EA08089BEA0808AEEA080824E90808DB
:102F200030B58BB006F054F905F003F906F050F90E
:102F3000324905F0F7F806F04BF90546304C02220D
:102F4000216806A804F0F9FE0699284605F0EAF87B
:102F500006A804F035FE06F03BF92A4905F0F5F81D
:102F600006F036F9284905F0DDF806F031F94CF2A3
:102F7000503105F06EFA06F02BF90D22014602A839
:102F800005F07EFA02A805F085F84FF07C51054661
:102F900007F070FD38B31D49284607F057FD10B300
:102FA0001B492846256007F0B3FB07F077FD019029
:102FB00006F00EF9174905F0B5F806F009F90546CF
:102FC0000222216806A804F0B8FE0699284605F0FA
:102FD000BCF806A804F0F4FD06F0CEFB01A9082019
:102FE000FDF7FAFC04E006F0F3F80B4905F0ADF844
:102FF00002A804F0E5FD0BB030BD00BFC0EA080830
:10300000A41A0020D3EA0808D8EA080800002041E2
:103010000000C842EEEA080824E9080830B587B085
:1030200006F0D6F8264D05F084F806F0D1F82549CB
:1030300005F078F806F0CCF80A22296805F0F1F8D6
:1030400006F0C6F8204905F080F806F0C1F81F49DF
:1030500005F068F806F0BCF84CF2503105F0F9F9CB
:1030600006F0B6F80D22014602A805F009FA02A8FA
:1030700005F00BF8019000F57A70B0F5FA6F15D2F3
:1030800006F0A6F8124905F04DF806AC06F0A0F8D7
:1030900001990A2205F0C7F854F8143D2B6006F098
:1030A0006BFB21460420FDF797FC04E006F090F846
:1030B000084905F04AF802A804F082FD07B030BDC7
:1030C0001C02002000EB0808D3EA080812EB0808ED
:1030D00027EB080824E9080830B58BB006F078F82B
:1030E00005F027F806F074F8374905F01BF806F0EC
:1030F0006FF80546354C0222216806A804F01DFE33
:103100000699284605F00EF806A804F059FD06F0C9
:103110005FF82F4905F019F806F05AF82D4905F027
:1031200001F806F055F84CF2503105F092F906F02E
:103130004FF80D22014602A805F0A2F902A804F0FA
:10314000A9FF054606F03AFE1DA3D3E9002307F0C8
:103150000FF940B34FF08041284607F077FC10B3D9
:103160001D492846256007F0D3FA07F097FC019027
:1031700006F02EF8194904F0D5FF06F029F80546A7
:103180000222216806A804F0D8FD0699284604F01A
:10319000DCFF06A804F014FD06F0EEFA01A91020E9
:1031A000FDF71AFC04E006F013F80D4904F0CDFF1A
:1031B00002A804F005FD0BB030BD00BFAFF30080E6
:1031C0009A9999999999B93F38EB080848190020BC
:1031D000D3EA08084AEB08080000C8425FEB080879
:1031E00024E9080830B587B005F0F2FF274D04F058
:1031F000A0FF05F0EDFF264904F094FF05F0E8FF7D
:103200000A22296805F00DF805F0E2FF214904F0D3
:103210009CFF05F0DDFF204904F084FF05F0D8FF96
:103220004CF2503105F015F905F0D2FF0D220146A0
:1032300002A805F025F902A804F027FF42F20F7357
:10324000019000F59C500830984215D805F0C0FF59
:10325000124904F067FF06AC05F0BAFF01990A2293
:1032600004F0E1FF54F8143D2B6006F085FA214686
:103270000C20FDF7B1FB04E005F0AAFF084904F0BB
:1032800064FF02A804F09CFC07B030BD0C1A0020BB
:1032900071EB080884EB080889EB08089DEB080827
:1032A00024E9080830B58BB005F092FF04F041FF27
:1032B00005F08EFF324904F035FF05F089FF054621
:1032C000304C0222216806A804F037FD06992846F2
:1032D00004F028FF06A804F073FC05F079FF2A49E2
:1032E00004F033FF05F074FF284904F01BFF05F0DC
:1032F0006FFF4CF2503105F0ACF805F069FF0D227C
:10330000014602A805F0BCF802A804F0C3FE4FF085
:103310007C51054607F0AEFB40B34FF07F51284685
:1033200007F094FB10B31A492846256007F0F0F91E
:1033300007F0B4FB019005F04BFF164904F0F2FED4
:1033400005F046FF05460222216806A804F0F5FCB8
:103350000699284604F0F9FE06A804F031FC06F0B0
:103360000BFA01A93020FDF737FB04E005F030FF30
:10337000094904F0EAFE02A804F022FC0BB030BDBB
:10338000ADEB0808D4170020C8EB0808D3EB0808F9
:103390000000C842F1EB080824E9080830B587B0FE
:1033A00005F016FF254D04F0C4FE05F011FF244979
:1033B00004F0B8FE05F00CFF0A22296804F031FF82
:1033C00005F006FF1F4904F0C0FE05F001FF1E498D
:1033D00004F0A8FE05F0FCFE4CF2503105F039F87F
:1033E00005F0F6FE0D22014602A805F049F802A8F4
:1033F00004F04BFE01901E303B2815D805F0E8FE86
:10340000124904F08FFE06AC05F0E2FE01990A2293
:1034100004F009FF54F8143D2B6006F0ADF9214685
:103420002C20FDF7D9FA04E005F0D2FE084904F09B
:103430008CFE02A804F0C4FB07B030BDBC1A00200B
:103440000BEC0808C8EB080825EC080842EC080853
:1034500024E9080830B58BB005F0BAFE04F069FE27
:1034600005F0B6FE324904F05DFE05F0B1FE0546FA
:10347000304C0222216806A804F05FFC0699284619
:1034800004F050FE06A804F09BFB05F0A1FE2A49BB
:1034900004F05BFE05F09CFE284904F043FE05F0B5
:1034A00097FE4CF2503104F0D4FF05F091FE0D224E
:1034B000014602A804F0E4FF02A804F0EBFD4FF07F
:1034C0007C51054607F0D6FA40B34FF07F512846AD
:1034D00007F0BCFA10B31A492846256007F018F91E
:1034E00007F0DCFA019005F073FE164904F01AFEAD
:1034F00005F06EFE05460222216806A804F01DFCB8
:103500000699284604F021FE06A804F059FB06F0AF
:1035100033F901A93820FDF75FFA04E005F058FE01
:10352000094904F012FE02A804F04AFB0BB030BDBA
:103530005BEC0808E401002073EC080879EC08084B
:103540000000C84294EC080824E9080830B587B0A8
:1035500005F03EFE264D04F0ECFD05F039FE254950
:1035600004F0E0FD05F034FE0A22296804F059FE5B
:1035700005F02EFE204904F0E8FD05F029FE1F4964
:1035800004F0D0FD05F024FE4CF2503104F061FF50
:1035900005F01EFE0D22014602A804F071FF02A8EC
:1035A00004F073FD019000F57A70B0F5FA6F15D252
:1035B00005F00EFE124904F0B5FD06AC05F008FE5C
:1035C00001990A2204F02FFE54F8143D2B6006F0F6
:1035D000D3F821463420FDF7FFF904E005F0F8FDAB
:1035E000084904F0B2FD02A804F0EAFA07B030BDC1
:1035F000181A0020ABEC0808D3EA0808C2EC080847
:10360000DCEC080824E9080830B58BB005F0E0FDD3
:1036100004F08FFD05F0DCFD324904F083FD05F078
:10362000D7FD0546304C0222216806A804F085FB30
:103630000699284604F076FD06A804F0C1FA05F0C4
:10364000C7FD2A4904F081FD05F0C2FD284904F0B8
:1036500069FD05F0BDFD4CF2503104F0FAFE05F0B5
:10366000B7FD0D22014602A804F00AFF02A804F0EB
:1036700011FD4FF07C51054607F0FCF938B31D49A8
:10368000284607F0E3F910B31B492846256007F0E8
:103690003FF807F003FA019005F09AFD174904F08E
:1036A00041FD05F095FD05460222216806A804F0BB
:1036B00044FB0699284604F048FD06A804F080FA69
:1036C00006F05AF801A94020FDF786F904E005F05C
:1036D0007FFD0B4904F039FD02A804F071FA0BB02C
:1036E00030BD00BFF2EC0808D006002004ED080849
:1036F00007ED0808000020410000C8421CED080842
:1037000024E9080830B587B005F062FD254D04F0C6
:1037100010FD05F05DFD244904F004FD05F058FDA1
:103720000A22296804F07DFD05F052FD1F4904F0CE
:103730000CFD05F04DFD1E4904F0F4FC05F048FDBC
:103740004CF2503104F085FE05F042FD0D22014699
:1037500002A804F095FE02A804F097FC0190323014
:10376000632815D805F034FD124904F0DBFC06ACE3
:1037700005F02EFD01990A2204F055FD54F8143D80
:103780002B6005F0F9FF21463C20FDF725F904E008
:1037900005F01EFD084904F0D8FC02A804F010FA58
:1037A00007B030BD540700202DED080804ED0808CF
:1037B0003EED080852ED080824E9080808B505F0B0
:1037C00007FDA24904F0C1FC05F002FDA04904F088
:1037D000BCFC05F0FDFC9F4904F0B7FC05F0F8FCCB
:1037E0009D4904F0B2FC05F0F3FC9C4904F0ADFCEB
:1037F00005F0EEFC9A4904F0A8FC05F0E9FC9949B3
:1038000004F0A3FC05F0E4FC974904F09EFC05F0ED
:10381000DFFC964904F099FC05F0DAFC944904F0C9
:1038200094FC05F0D5FC934904F08FFC05F0D0FC26
:10383000914904F08AFC05F0CBFC904904F085FC2A
:1038400005F0C6FC8E4904F080FC05F0C1FC8D49F2
:1038500004F07BFC05F0BCFC8B4904F076FC05F021
:10386000B7FC8A4904F071FC05F0B2FC884904F009
:103870006CFC05F0ADFC874904F067FC05F0A8FC82
:10388000854904F062FC05F0A3FC844904F05DFC6A
:1038900005F09EFC824904F058FC05F099FC814932
:1038A00004F053FC05F094FC7F4904F04EFC05F055
:1038B0008FFC7E4904F049FC05F08AFC7C4904F049
:1038C00044FC05F085FC7B4904F03FFC05F080FCDE
:1038D000794904F03AFC05F07BFC784904F035FCAA
:1038E00005F076FC764904F030FC05F071FC754972
:1038F00004F02BFC05F06CFC734904F026FC05F089
:1039000067FC724904F021FC05F062FC704904F088
:103910001CFC05F05DFC6F4904F017FC05F058FC39
:103920006D4904F012FC05F053FC6C4904F00DFCE9
:1039300005F04EFC6A4904F008FC05F049FC6949B1
:1039400004F003FC05F044FC674904F0FEFB05F0BD
:103950003FFC664904F0F9FB05F03AFC644904F0C9
:10396000F4FB05F035FC634904F0EFFB05F030FC97
:10397000614904F0EAFB05F02BFC604904F0E5FB2B
:1039800005F026FC5E4904F0E0FB05F021FC5D49F2
:1039900004F0DBFB05F01CFC5B4904F0D6FB05F0F2
:1039A00017FC5A4904F0D1FB05F012FC584904F009
:1039B000CCFB05F00DFC574904F0C7FB05F008FCF3
:1039C000554904F0C2FB05F003FC544904F0BDFB6B
:1039D00005F0FEFB524904F0B8FB05F0F9FB514934
:1039E00004F0B3FB05F0F4FB4F4904F0AEFB05F027
:1039F000EFFB4E4904F0A9FB05F0EAFB4C4904F04B
:103A0000A4FB05F0E5FB4B4904F09FFB05F0E0FB50
:103A1000494904F09AFB05F0DBFB484904F095FBAB
:103A200005F0D6FB464904F090FB05F0D1FB454973
:103A300004F08BFB05F0CCFB434904F086FB05F05A
:103A4000C7FBBDE80840414904F07FBB62ED0808B0
:103A500078ED08088DED0808A1ED0808B5ED080817
:103A6000C8ED0808DDED0808F1ED080808EE0808C3
:103A70001EEE080834EE080849EE080866EE08084D
:103A800082EE08089CEE0808B5EE0808CFEE08089C
:103A9000E8EE080804EF080821EF08083AEF0808E4
:103AA00056EF08086EEF080887EF0808A0EF08082F
:103AB000B4EF0808C9EF0808E4EF0808FFEF0808AA
:103AC00015F0080826F0080838F0080849F008083A
:103AD0005BF0080884F00808ADF00808DCF008087E
:103AE00001F1080826F108084EF108088EF10808CF
:103AF000D1F10808FCF108083FF2080885F208082F
:103B0000B9F20808D7F20808FBF2080816F308080B
:103B100040F3080875F3080899F30808ADF308089E
:103B2000C9F30808EEF3080812F4080837F4080887
:103B30005FF408088BF40808CEF4080800F50808BC
:103B400026F508088CF50808F0F5080805F60808B9
:103B500038B5046805467CB16368013B63605BB9B6
:103B6000236820469B689847A368013BA3601BB964
:103B700023682046DB689847284638BD90B593B047
:103B800002AF4D49384604F062F84C4907F1100085
:103B900004F05DF84A4907F1300004F05DFC07F1DC
:103BA000300107F1100004F09CF807F1300004F038
:103BB00007F805F00DFB434904F0C7FA05F008FBD0
:103BC000396904F0C2FABA6907F11000D31D23F075
:103BD0000703ADEB030D02A9002304F04DF9012208
:103BE000002107F110009DF8084004F034FA014666
:103BF00007F1100004F05BF8334907F1200004F0EE
:103C000026F82E4907F1300004F021F807F13002C0
:103C100007F1200107F1100004F096F907F13000D8
:103C200003F0CEFF07F1200003F0CAFF05F0D0FA41
:103C3000264904F08AFA05F0CBFA396904F085FACE
:103C4000592C11D105F0C4FA214904F07EFA05F08F
:103C5000BFFA396904F079FA1E4B3A691B781E499C
:103C60008DF800303C2312E0512C1AD105F0B0FA47
:103C70001A4904F06AFA05F0ABFA396904F065FAFA
:103C8000144B3A691B7816498DF800303C2307F134
:103C9000300005F05BF807F13400FFF759FFFCF73F
:103CA000D3FE07F1100003F08BFF384603F088FFC6
:103CB0004437BD4690BD00BF78F7080838050908AD
:103CC000640700207BF708089DF708089FF708089D
:103CD000B2F70808D4060020D1F70808D8F708087A
:103CE00006F8080813460A46002104F063BB0000EA
:103CF00038B51D4803F014FD054605F069FA2A465B
:103D00001A49FFF7EFFF642D16D0962D16D0B5F5A2
:103D1000FA7F16D0B5F5617F16D0B5F5966F40F2F3
:103D2000DC5416D0A54212D040F6B832B5F5FA6F81
:103D300014BF2C4614460CE096240AE04FF4FA74A3
:103D400007E04FF4617404E04FF4966401E04FF42F
:103D5000FA64A1B2044803F01BFD05F039FA2246CB
:103D60000349FFF7BFFF38BDB81A00201DF8080847
:103D70003BF80808F0B5334885B003F0DDFC054694
:103D800010F0800F0CBF00244FF40064470648BFBA
:103D900004F58064860648BF04F50074E80648BF51
:103DA00004F58074290748BF80346A0748BF40344F
:103DB00005F00EFA22462449FFF794FF281DC0B2F1
:103DC000030658BF002100F0400346BF01214FF415
:103DD00000640C4603F0FF0213B104F58064012275
:103DE00000F0200505F0FF0315B104F50074012370
:103DF00000F0100606F0FF0516B104F580740125E9
:103E000000F0080707F0FF060FB18034012600F02C
:103E1000040000F0FF0710B14034012000E03846F4
:103E200002908DE86000074803F015FD054803F097
:103E300083FC05F0CDF922460449FFF753FF05B096
:103E4000F0BD00BFB81A002059F8080882F8080829
:103E5000F0B5CA4C3023CA4E8DB023702378782B2E
:103E600000F02C8405F0B4F9C64904F05BF905F0C4
:103E7000AFF90368DB69984705F0AAF903681B6985
:103E800098470028F8D005F0A3F903685B699847C4
:103E9000C0B2207021385928E0D801A353F820F08F
:103EA000E74508085D3E08087B4608085D3E0808AF
:103EB0005D3E08085D3E08085D3E08085D3E080856
:103EC0005D3E0808AD4608085D3E08085D3E0808EE
:103ED0005D3E08085D3E08085D3E0808E1450808AB
:103EE0005D3E08085D3E08082F4408085D44080848
:103EF0007944080859450808754508089D4508088B
:103F0000DB4508085D3E08085D3E08085D3E080880
:103F10005D3E08085D3E0808B54608085346080897
:103F20005D3E0808ED4008081941080837410808B7
:103F30005F410808D9410808EF41080817420808FE
:103F4000314208083742080843420808534208082B
:103F5000594208087B420808A1420808B1420808F3
:103F6000BF420808D342080803430808334308083F
:103F70005F4308088B4308089D430808CB430808A3
:103F80005D3E0808DB4308085D3E08085D3E080802
:103F90005D3E08085D3E08085D3E08085D3E080875
:103FA000094008080F400808154008081B40080889
:103FB0005D3E08085D3E08085D3E08085D3E080855
:103FC0005D3E08085D3E08082140080827400808B3
:103FD0002D40080833400808394008083F400808C9
:103FE00045400808554008086F4008088740080801
:103FF0008D40080893400808994008085D3E08086D
:104000009F400808BB400808FEF78AFF26E7FFF735
:1040100005F823E7FFF760F820E7FFF7E3F81DE76F
:10402000FFF740F91AE7FFF7B9F917E7FFF712FAB8
:1040300014E7FFF78BFA11E7FFF7E6FA0EE7FFF751
:1040400061FB0BE705F0C4F84F4904F07EF84F4DD3
:10405000012306E005F0BCF84C4D4D4904F075F81D
:1040600000232B6005F088FB294648201AE305F061
:10407000AFF80546474908A803F0E9FD0899284626
:1040800004F063F8CFE1FEF74DFEE7E6FEF798FE99
:10409000E4E6FEF78BFDE1E6FEF76EFCDEE63E4D64
:1040A0002B681BB905F094F83C4902E005F090F844
:1040B0003B4904F04AF8012312E0374D2B68012BED
:1040C00008D105F085F8374904F03FF83648FCF789
:1040D000B5FC04E005F07CF8344904F036F8002320
:1040E0002B6005F049FB2C494420DBE2304B1A6879
:1040F000012A05D100221A6005F06AF82D4904E072
:1041000001221A6005F064F82B4904F01EF805F04E
:1041100033FB27496420C5E2284B1A680AB90122FB
:104120005FE005F055F8264904F00FF805F024FB90
:1041300022496020B6E2234B1A68012A05D10022E9
:104140001A6005F045F8204902E005F041F81F49E2
:1041500003F0FBFF05F010FB1A496820A2E2194B9F
:104160001A68012A03D105F033F81949F0E7012252
:104170001A6005F02DF81749EAE700BF6007002034
:10418000DC060020A0F80808A6F80808E01A0020BD
:10419000C0F80808F4F6080814020020DBF8080844
:1041A000EEF8080808F90808381F00201BF908086D
:1041B000D017002036F908084AF908089C060020A4
:1041C0005DF908085807002087F90808A8F90808C9
:1041D000CCF90808EFF90808AB4B1A68012A02D19C
:1041E00000221A60A2E704F0F3FFA8499CE7A84B5D
:1041F0001A68012A03D104F0EBFFA64904E001226A
:104200001A6004F0E5FFA44903F09FFF05F0B4FA3B
:104210009F496C2046E29E4B1A681AB904F0D8FFF9
:104220009E49F1E700221A6004F0D2FF9C49EBE7B7
:10423000FEF712FE12E6FDF785FF04F0C9FF99496B
:1042400011E004F0C5FF984903F07FFFFCF7EEFF93
:1042500004E6FEF72FFD01E6944D2B68012B05D1F6
:1042600004F0B6FF924903F070FFF7E504F0B0FFE9
:10427000904903F06AFF01230CE08C4D2B681BB9B9
:1042800004F0A6FF8C49EEE704F0A2FF8B4903F08F
:104290005CFF00232B6005F06FFA2946782001E2CD
:1042A00004F096FF864903F050FFFDF725F8D5E5A9
:1042B00004F08EFF834903F048FF6B2105E004F012
:1042C00087FF814903F041FF4B210720FCF784FC65
:1042D000C4E57E4D2B6883B104F07AFF7C4903F07E
:1042E00034FF00232B6005F047FA29467C20FCF7B9
:1042F00073FB784800F09FFEB0E504F069FF764953
:10430000B1E7724D2B6883B904F062FF734903F083
:104310001CFF01232B6005F02FFA29467C20FCF7B7
:104320005BFB6C4800F0ACFE98E504F051FF6C4973
:1043300099E76C4D2B6833B904F04AFF6A4903F0E2
:1043400004FF012305E004F043FF684903F0FDFE8C
:1043500000232B6005F010FA29468020A2E1644D6D
:104360002B6833B904F034FF624903F0EEFE0123F9
:1043700005E004F02DFF604903F0E7FE00232B6009
:1043800005F0FAF9294684208CE104F021FF5B490D
:1043900003F0DBFE4F4800F029FE5FE5584D2B6827
:1043A000012B06D104F014FF564903F0CEFE002382
:1043B00005E004F00DFF544903F0C7FE01232B6014
:1043C00005F0DAF9294688206CE10121414800F026
:1043D0007DFE4E4BB4221A6040E504F0F9FE4C49D4
:1043E00003F0B3FE4B4908A802F0A0FC089A4A4922
:1043F0004A48FCF73CFB08A803F0E2FB454908A843
:1044000002F0B0FC089A46494448FCF730FB08A883
:1044100003F0D6FB3F4908A802F0C0FC089A4149C6
:104420003E48FCF724FB08A803F0CAFB16E504F09D
:10443000CFFE3D4903F076FE04F0CAFE0A22462173
:1044400003F0F1FE04F0C4FE384903F06BFE04F003
:10445000BFFE0A220D2103F0E6FEFFE4344D2B6877
:104460001BB904F0B5FE334902E004F0B1FE324955
:1044700003F06BFE012369E02D4D2B68012B5FD10A
:1044800004F0A6FE2D495EE09C0600200DFA080807
:10449000F81A00203AFA080862FA080886FA0808AA
:1044A000AFFA080872E60808D4FA0808501B002082
:1044B000F0FA080812FB080836FB080859FB080840
:1044C0007EFB080899FB0808ACFB0808AC18002024
:1044D000C7FB0808541B0020EAFB080805FC080875
:1044E00027FC0808E801002041FC08085CFC0808DB
:1044F000D806002078FC080897FC0808B6FC0808D5
:10450000481B0020CEFC0808F2FC0808A00600208A
:1045100015FD0808A01B00204CFD0808A81B002062
:1045200054FD08085CFD080865FD08088AE60808CF
:10453000A01A002073FD080882FD080898FD0808ED
:1045400004F046FE614903F000FE00232B6005F0F5
:1045500013F95F495820A5E05E4D2B681BB904F0A4
:1045600037FE5D4902E004F033FE5C4903F0EDFDE7
:1045700001230DE0574D2B68012B03D104F028FED9
:10458000574902E004F024FE564903F0DEFD002303
:104590002B6005F0F1F84F495C2083E004F018FE31
:1045A000514903F0BFFD514803F0CCF8054604F033
:1045B0000FFE0A22294603F008FE04F009FE4C49CA
:1045C00003F0B0FD494803F0BAF8054604F000FED8
:1045D0000A22294603F0F9FD40E4FFF7CBFB3DE456
:1045E000FFF786FB3AE404F0F3FD424903F0ADFD2A
:1045F00004F0EEFD03681B699847054600287FF428
:104600002DAC3D4802F0BCF818B904F0E1FD3B497F
:1046100057E004F0DDFD0746B06805F0CFFBCDE9BB
:104620000601706805F0CAFBCDE90401306805F0A9
:10463000C5FBCDE902013249F06806F01DF905F02D
:10464000BDFB304ACDE900012946384603F0B2FEF1
:10465000CEE72D4D2B68012B0BD104F0B9FD2B4972
:1046600003F073FD00232B6005F086F829468C20AB
:1046700018E0FEF759FAFFF7F1BB254D2B68012B27
:1046800005D100232B6004F0A3FD224904E001239F
:104690002B6004F09DFD204903F057FD05F06CF8F8
:1046A00029469020FCF798F9FFF7D8BBFEF740F8B1
:1046B000FFF7D4BBFFF782F8FFF7D0BB04F088FD0B
:1046C000164903F042FD0DB0F0BD00BFA8FD08087B
:1046D000A01A0020581B0020BFFD0808CDFD0808C7
:1046E000E2FD0808F2FD080809FE0808B81A0020D3
:1046F00011FE080821FE0808DC0600205CFE080800
:104700000000C84272FE0808B4180020A3FE080882
:1047100010020020C5FE0808E3FE08082BFF080869
:104720001FB5704C0022704BD4E9000105F0E8F988
:10473000C4E90001FDF70CFB6C4B1860FCF770FE40
:104740006B4B1860FDF786F9FDF70AF804F003F8E3
:10475000684B1860684B69481A68694B1A6002F028
:10476000CFFB002801DDFFF709FA04F031FD0368F3
:104770001B69984700281DDD04F02AFD0368614C81
:104780005B699847604B20701B684BB104F020FDBB
:104790005E4903F0C7FC04F01BFD217803F0DFFC49
:1047A00004F016FD217803F0DAFC23786D2B01D19B
:1047B000FFF74EFB564B1B686BB1564A138843F00C
:1047C0000103138002F0D2FE002879D1524B1A78EF
:1047D000002A75D133E002F0C9FEA0B14A4B1B6834
:1047E00073B104F0F5FC4D4903F0AFFC4B4968464A
:1047F00003F02DFA6846FCF763FF684603F0E0F922
:104800004748FCF71BF9474C204600F061FA464B3D
:104810001B68012B64D1454804F05EF8444906F05A
:1048200015F900285CD094F82130002B58D104F001
:10483000CFFC404903F089FCFDF728FC50E0324CE6
:1048400001221A70236873B104F0C2FC3A4903F0E4
:104850007CFC3949684603F0FAF96846FCF730FFFA
:10486000684603F0ADF92E4800231A461946406801
:1048700002F02CFE236873B104F0AAFC2F4903F068
:1048800064FC2F49684603F0E2F96846FCF718FF1C
:10489000684603F095F902F061FE2368002BB2D060
:1048A00004F096FC274903F050FC2649684603F0C3
:1048B000CEF96846FCF704FF684603F081F9A2E7E9
:1048C00002F054FE00289ED00F4B1B6823B104F069
:1048D0007FFC1D4903F039FC0F4B00221A7092E750
:1048E00004B010BDF01A00200000F03F9417002023
:1048F000B41A0020D41A0020D4000020640700203D
:10490000D41B002060070020E01A002042FF0808A6
:10491000140200204C1B0020E41A0020D1FF0808DC
:10492000381F002098170020501B0020A4180020DA
:104930000000A041F5FF080851FF080870FF0808B3
:1049400081FF080892FF0808A9FF0808F8B5634B23
:10495000634C644D01261E7002F054FB204602F0A9
:10496000A1F82A466049204604F072FFFCF796F849
:104970005E4C034604F130014FF48052204602F0B1
:10498000F5FA5B4B2A465B492046236004F060FF42
:104990004FF6FF72584B00241C705C809A800320F5
:1049A00002F020FD2146304602F02CFD4FF0FF3191
:1049B000524801F0CFFE524800F017FB514800F07A
:1049C000D7F8514800F0D4F8504E4921504800F033
:1049D00016FA4A214F4800F012FA2146304603F0F9
:1049E0003BFF30464C4E2A464C4904F031FF2146ED
:1049F000304602F04AFE3046494E2A46494904F004
:104A000027FF304600F044F92A464749304604F073
:104A10001FFF2721454801F037FF454B192283F836
:104A20006A24444A44481A60444E454A454FDC7162
:104A300083F8404483F8414483F8684483F86D4424
:104A4000C3F8702483F874442A46314604724472D1
:104A50004460076004F0FCFE3B482A46314604727D
:104A600044724460076004F0F3FE38484FF47A73F0
:104A7000374E384F8360384B2A4604744474446080
:104A800036490360364C04F0E3FE3146384603F005
:104A9000DEF83846334F2A46214604F0D9FE314627
:104AA000384603F0D4F838462F4F2A46214604F002
:104AB000CFFE3146384603F0CAF838462B4F2A4617
:104AC000214604F0C5FE3146384603F0C0F82A46B8
:104AD00021463846BDE8F84004F0BABED4060020AE
:104AE000001B0020C80100205D6A08086407002040
:104AF00008E1080837090808D81A0020DC06002059
:104B0000541B0020E0010020E1010020A418002037
:104B1000A81A0020AE1A0020B81A002077880808CA
:104B200098170020A9760808654C0808B8180020D6
:104B300020020020F0E00808A40600203909080837
:104B40009C000908D8E008085C1B00205C180020C5
:104B500038050908C01A0020B0E008083B09080819
:104B6000C17B0808BC17002000020020CC010020F7
:104B7000704710B50C4604F02BFE482104F0E4FC0D
:104B800004F026FE036821469B68984704F020FE47
:104B9000002104F0DCFC04F01BFE01231A4648212E
:104BA00004F0C9FC04F014FE03681B69984728B19F
:104BB00004F00EFE03685B699847C0B210BD70B583
:104BC00016460C46054604F003FE482104F0BCFCE2
:104BD00004F0FEFD036821469B68984704F0F8FD49
:104BE000036831469B68984704F0F2FD012104F008
:104BF000AEFC21462846BDE87040FFF7BABF002151
:104C0000FFF7B7BF01221146FFF7D9BF00220121EC
:104C1000FFF7D5BF2DE9F0410446884617461E46EA
:104C2000FFF7EDFF0128054615D12046FFF7EEFFFF
:104C3000424610212046FFF7C2FF3A461121204686
:104C4000FFF7BDFF324612212046FFF7B8FF20468E
:104C5000FFF7D8FF00E000252846BDE8F08102F00C
:104C6000D1B9000010B50446034B40F8143B02F0E4
:104C70001BFD204610BD00BF3000090810B50446DA
:104C8000FFF7F0FF2046242104F0E7FD204610BD89
:104C900038B504460D4B00250360322343604FF4C2
:104CA000FA638360C56005612946143002F0EDFCAB
:104CB0000123A561E56184F8205084F8215084F82F
:104CC000223084F82350204638BD00BF3000090848
:104CD00010B5044602F02EFAE368C01A63689842E1
:104CE0001FD302F027FAE06004F1140002F027FD60
:104CF00000F0040303F0FF0273B194F82030C0F316
:104D0000011083421FBFE36984F820000133E3618F
:104D1000012384F8213001E084F82120A3690133C4
:104D2000A36102F007FA2369C01AA36898421CD94C
:104D300002F000FAA36920610A2B06DDE269B2EBFA
:104D4000A30FD4BF0123002300E0012384F8223005
:104D500033B194F82030013B012B8CBF0023012399
:104D600084F823300023A361E36110BD02F04AB947
:104D700010B5044604F02CFD03682146BDE8104040
:104D80009B68184708B504F023FD03685B699847E2
:104D9000C0B208BD70B506460D46144604F018FDB5
:104DA000314604F0CDFB2846FFF7E2FF200AFFF76B
:104DB000DFFFE0B2FFF7DCFF04F00AFDBDE8704062
:104DC00004F0C9BB10B5044604F002FD214604F00E
:104DD000B7FB0020FFF7CCFF04F0FAFC04F0BBFBAC
:104DE00004F0F6FC2146022204F09DFBFFF7CAFF07
:104DF0000446FFF7C7FF40EA042080B210BD00223E
:104E000001700821828041708270704708B504F0FB
:104E1000DFFCBDE8084004F077BB818070470329C0
:104E200010B5044622D80229828808D0032909D067
:104E3000012914BF42F4834242F4A34204E042F445
:104E4000C34201E042F4E34242F0030242F4004272
:104E500001212078FFF79EFF607803F0C9FC2078DD
:104E6000FFF7B0FFA378184180B210BD002010BD3D
:104E700002F0C8B82DE9F0410E4688B00446154648
:104E800068460223002203F037F80A230222314643
:104E900004A803F031F8684603F0F7F8A08304A8EB
:104EA00003F0F3F8E083684603F0EFF8064604A841
:104EB00003F0F0F88046304604F06EFF06464046A8
:104EC0000F4604F07BFF00220C4B05F0F5F80B4673
:104ED00002463946304604F013FE532D0CBF002322
:104EE0008023C4E9020184F8243004A802F068FE9B
:104EF000684602F065FE08B0BDE8F08100004E4053
:104F00002DE9F0410E4688B0044615466846032355
:104F1000002202F0F1FF0A230322314604A802F026
:104F2000EBFF684603F0B1F8208404A803F0ADF865
:104F30006084684603F0A9F8064604A803F0AAF8BE
:104F40008046304604F028FF064640460F4604F0EF
:104F500035FF00220C4B05F0AFF80B4602463946F0
:104F6000304604F0CDFD452D0CBF00230123C4E9DC
:104F7000040184F8253004A802F022FE684602F0FD
:104F80001FFE08B0BDE8F08100004E4010B5044699
:104F9000084603F07AF8E06210BD000010B5044640
:104FA000084603F077F8024905F0B2FB206310BD14
:104FB0000000204100F10801D1E90001704700F133
:104FC0001001D1E90001704708B5006B05F066FDDE
:104FD00008BD90F92400704790F92500704702F051
:104FE00011B80368C9B29B681847704708B504F048
:104FF000EFFB152104F0A8FA04F0EAFB0521FFF706
:10500000F0FF04F0E5FB0321FFF7EBFF04F0E0FB0A
:10501000E821FFF7E6FF04F0DBFBFF21FFF7E1FFEC
:1050200004F0D6FB0021FFF7DCFF04F0D1FBBDE864
:10503000084004F090BA08B504F0CAFB152104F04A
:1050400083FA04F0C5FB0521FFF7CBFF04F0C0FB9A
:105050000321FFF7C6FF04F0BBFBEE21FFF7C1FF02
:1050600004F0B6FB0021FFF7BCFF04F0B1FB002108
:10507000FFF7B7FF04F0ACFBBDE8084004F06BBAE3
:1050800008B504F0A5FB152104F05EFA04F0A0FBBE
:105090000521FFF7A6FF04F09BFB0321FFF7A1FF0B
:1050A00004F096FBEE21FFF79CFF04F091FBFF213B
:1050B000FFF797FF04F08CFB0021FFF792FF04F04D
:1050C00087FBBDE8084004F046BA000008B521B1EE
:1050D00004F07EF8134903F038F804F079FB152149
:1050E00004F032FA04F074FB0521FFF77AFF04F0B4
:1050F0006FFB0321FFF775FF04F06AFBEC21FFF75C
:1051000070FF04F065FBFF21FFF76BFF04F060FB0D
:105110000021FFF766FF04F05BFBBDE8084004F0E8
:105120001ABA00BF7700090801F06CBF01F06ABF2E
:1051300010B50446283001F07FF928B104F50D7050
:10514000BDE8104001F078B910BD411E00F10A021F
:105150000020430843EAC01011F8013F18448A4276
:1051600000F0FF00F5D170472DE9F0470378441CAB
:10517000202B01D12046F9E70546704F88602C1A94
:105180002E4615F8013B0BB32F2B01D1031917E065
:105190005C2B02D10020BDE8F087A3F12204E4B229
:1051A0001D2C03D827FA04F4E407F3D403F0BF045A
:1051B0003C2CEFD0203B5E2BE1D9EBE72F2D05D126
:1051C0001E4613F8015B202DF8D1F9E7166003198C
:1051D0009842C0EB030809D013F8012D2E2AF7D00E
:1051E000202AF5D0B8F1FF0FD4DC01E04FF0000821
:1051F000C1F8048001F10C0301F11702202403F827
:10520000014F9342FBD103461A1A13F8014B2E2C7F
:10521000FAD0202CF8D0B2FA82F408F1FF366409F3
:10522000731C07D100274FF0070E3D46BA464FF0DA
:10523000080909E0835D2E2BF4D0013EF0E7835C82
:10524000202B04D1002401324245F8DB4BE02E2B09
:1052500002D1B242F6D103E0222B17D07C2B15D01D
:10526000A3F12A0CBCF1050F01D82D2B0ED1A3F10F
:105270003A0CBCF1050F09D9A3F15B0CBCF1020F8C
:1052800004D9A3F1210CBCF15D0F02D9B2420ED1B9
:1052900049E0B24247D0754521D8A3F1610CBCF179
:1052A000190F08D8203BDBB249EA07070AE0754529
:1052B00015D800245F23A3F1410CBCF1190F98BF4E
:1052C00049EA0A0A05F1010C5FFA8CFC0D44BCF1B5
:1052D000060F6B7301D881F80CC06546B3E7BEF1C9
:1052E0000A0F17D100244B7B202B3FF453AF3CB166
:1052F0001AEA070F18BF02270F700120BDE8F087D8
:105300000B7B0120087019447E234B7331238B7370
:10531000BDE8F087B242E5DC32464FF00A0E0825C0
:105320004FF010098EE7BEF10A0FDBD032464FF086
:105330000A0E08254FF0100985E700BF0101003172
:105340002DE9F84306460D4691F80C9002247E277D
:1053500001F10D086968AA6863189BB21144914273
:1053600006D012F8010B03EB431343409BB2F6E760
:10537000B9F1030F28BF4FF0030909F10402D2B2BB
:1053800003F00F01A818013A0929D2B294BF3031B5
:105390003731914541734FEA1313F1D305EB0903FC
:1053A0005F730021304600F038FE0121304600F0E6
:1053B00017FE014628B97078B0FA80F04009BDE8C0
:1053C000F88303784BB1C37A1B07EED40B22404617
:1053D00005F0DCFE0028E8D102E00120BDE8F883FA
:1053E0000134A4B2642CB5D1BDE8F8832DE9F04FA7
:1053F00089B003930B78059013F0700F0E46914619
:1054000001D1002099E1059B1B78002BF9D113787D
:10541000D2F804B09B0700F086810BF10C030D2736
:10542000B3FBF7F70137FFB24FF000080021304619
:1054300000F0F3FD45464346444609F10D02CDF820
:105440000880CDF8108006927269012130460793DA
:10545000C2F34F1A00F0C4FD079B20B97378002BEC
:1054600000F08E80CDE70278E52A00D042B9002D09
:1054700008BFD046BD423CBF0135EDB222B97FE046
:10548000BD4238BF002503E0E52A01D10024DBE757
:105490002E2AFBD0C17A0F2950D13CB95106D3D561
:1054A000437B02F01F040293234607E0013BDBB27B
:1054B0009A42EBD1427B02999142E7D15A1E4FF0BA
:1054C0000D0C0CFB02FCE345E0D94FF0000EBEF1E1
:1054D000040F5FFA8EF204D800EB4E02B2F80120FE
:1054E0000CE00A2A95BF0EF1FF320EF1010200EB2B
:1054F000420200EB420294BFD2889288E34503D176
:10550000002A18BF00249FE7FF2ABFD8D2B2A2F119
:1055100041011929D9F8081098BF203211F80C1050
:105520000CF1010AA1F1410C98BFD2B2BCF1190FE4
:105530009CBF2031C9B29142A8D1F6E00A07A5D498
:105540004CB1012B7FF45DAFFFF7FFFD029B83425F
:105550007FF457AF0FE00B220699079305F016FE74
:10556000079B00287FF470AF99F80020D10702D57F
:105570000122049268E7039B1A0640F1CC8040E7C1
:10558000039B03F04203422B7FF43BAF002D08BF87
:10559000D046BD4202D3049BCBB91FE00021304668
:1055A00000F01EFD10B973785BB12AE70135EDB24A
:1055B000EFE7B3681B79012BEDD81035EDB2AF42A0
:1055C000E9D9304600F0DEFB0028F2D119E7494660
:1055D0003046FFF7B5FE00283FF413AF4FEA4811FD
:1055E000304600F01AFD00283FF40BAF7C1EE4B2F9
:1055F00025464FF0000A4FF00F0840E000213046EA
:1056000000F0EEFC074600283FF4FBAEB268A5426E
:1056100092F8283043F0010382F8283014BF2A465C
:1056200045F04002027080F80B8080F80CA009F170
:105630000D000292FFF789FD029A787387F81AA08D
:1056400087F81BA002F01F020D23013AD9F808E0E9
:105650005A430023934515D91EF80210042B5FFA14
:1056600083FC03F1010013D807EB4303A3F80110F7
:105670000D2802F101020346ECD1013DEDB2002DEF
:10568000BCD10EE014BF4FF0FF31002189B2E5E735
:10569000BCF10A0F94BF07EB430307EB400399806B
:1056A000E6E7736929463046C3F34F1A00F098FCC9
:1056B000074600283FF4A5AE2022294605F09BFDB1
:1056C0004B4653F80D2F3A605A687A601A893A812E
:1056D0009B7ABB7299F8003003F018033B73184BA8
:1056E0001B682BB107F10E0107F11000984706E087
:1056F00021233B7428237B740823BD73FB733B8AEF
:105700007B823B83FB89FB82B26892F8283043F0AE
:10571000010382F828300094039B524631460598D5
:1057200000F0C4FC09E001277EE60EF1010EBEF197
:105730000D0F3FF489AED446C9E609B0BDE8F08F3D
:10574000941B002001F05EBC01F05CBC01F05ABC6F
:1057500001F058BC03685B6918470368DB681847A9
:1057600010B5037904466BB10121407903F0A5FF20
:10577000FF212068FFF7EEFF206803689B689847C9
:105780000023237110BD38B50579044655B900686A
:10579000E17903685B6898472946607903F08DFFDB
:1057A0000123237138BDF8B504460D46164601F0B5
:1057B000C1FC07462068FFF7D0FFFF28207207D101
:1057C00001F0B8FCC01BB0F5967FF3D911230CE0B3
:1057D000FE2801D00F2308E02068324603682946DE
:1057E0001B699847207230B11C232046A371FFF734
:1057F000B7FF0020F8BD2068FFF7AFFF2068FFF774
:10580000ACFF0120F8BD70B506460C4601F092FCD5
:1058100005463068FFF7A1FFFF2806D001F08AFC9B
:10582000401BA042F5D3002070BD012070BDF7B52C
:10583000037904460D4601920BB9FFF7A4FF4FF41C
:1058400016712046FFF7DFFF45F040012068FFF7A3
:1058500081FF0DF107060DF1030716F80119206805
:10586000FFF778FFBE42F8D1002D0CBF95218721AC
:105870002068FFF76FFF0C2D02D12068FFF76DFF46
:1058800000252068FFF769FF0306207203D5013564
:10589000B5F5807FF5D103B0F0BDF8B51F46002304
:1058A0004271437283710160044601F043FC064675
:1058B0002068617903680A251B6898478021206861
:1058C000E17103685B689847FF212068013DFFF79D
:1058D00041FF15F0FF05F7D1206803689B689847E2
:1058E000002211462046FFF7A2FF012807D001F051
:1058F00021FC801BB0F5FA6FF2D9012348E04FF488
:10590000D57208212046FFF792FF052801D1012317
:105910000BE004252068FFF720FF013D15F0FF058F
:105920002072F7D1AA2808D102236372637A022B6E
:105930000CBF4FF08045002507E001F0FBFB801B0A
:10594000B0F5FA6FDBD9022322E00022372120468E
:10595000FFF76DFF2A4629212046FFF768FF024620
:1059600038B101F0E7FB801BB0F5FA6FEDD90A23DF
:105970000EE0637A022B05D02046FFF7F1FEE771B7
:105980000120F8BD3A212046FFF751FF30B108232E
:105990002046A371FFF7E4FE0020F8BD2068FFF762
:1059A000DCFE00F0C000C02804BF0323637220683F
:1059B000FFF7D3FE2068FFF7D0FE2068FFF7CDFE8B
:1059C000DAE738B5437A1546032B18BF49020A4671
:1059D00011210446FFF72BFF10B10423A3710BE044
:1059E00029464FF400722046FFF7DDFE054618B148
:1059F0002046FFF7B5FE03E02046FFF7B1FE002585
:105A0000284638BD10B5437A0A46032B18BF4A0210
:105A100012210446FFF70BFF30B105232046A37186
:105A2000FFF79EFE002010BD012010BD10B5002222
:105A30000C210446FFF7FBFE30B103232046A3717F
:105A4000FFF78EFE002010BD2046FFF789FE0120E3
:105A500010BDF8B5054616461F46FFF7D3FF98B1AF
:105A60000024A3B29F4206EB442108D94FF40072F0
:105A70002846FFF798FE01340028F2D104E02846BA
:105A8000BDE8F840FFF7D2BF0020F8BD38B50446A6
:105A900015460068FFF75EFE20684FF40072036849
:105AA00029469B699847FF212068FFF753FEFF2195
:105AB0002068FFF74FFE2068FFF74FFE207200F0CE
:105AC0001F00052806D013232046A371FFF748FEC8
:105AD000002038BD012038BD38B5437A1546032B68
