:020000040808EA
:1000000000000808BC210908000006000A000501DC
:0800100004027E05000000005F
:04001800D4ED080813
:1000200009480A4908B5884205D0094A824202D0E7
:10003000121A0BF078FF0748074A0021121A0BF03A
:100040007DFF064808BD00BF00000020CC1F090846
:10005000C8010020C8010020C8120020C8120020DA
:1000600070B509F083FB074B074C1E46E41AA40841
:100070000025A54204D056F8253098470135F8E709
:1000800070BD00BFEC1E0908B41F090801F070BF65
:1000900008B505F011FBBDE8084009F029BB08F0E0
:1000A000C1B908F0C7B90078B0FA80F040097047CC
:1000B00001230370704748B1836C3BB1C36C2BB113
:1000C000006DB0FA80F04009404270474FF0FF30B9
:1000D000704773B5024608460C46FFF7ECFF05462D
:1000E00050BB12F0800FCA7814BF002310239A422D
:1000F00022D0CB708E6C01230DF10702F3216078C2
:10010000B04784F8540010B16FF0010514E0E378B3
:10011000E66C03F010029DF80730732123F0100302
:1001200013438DF807300DF1070201236078B047C3
:1001300084F854000028E7D1284602B070BD40B1D1
:1001400003788B4208D90170137843F002031370CF
:1001500002E04FF0FF307047002070472DE9F84370
:1001600006461846884691461D46FFF7A4FF0446FA
:10017000A8B9AB783BB929463046FFF7AAFF044639
:1001800008B946F08006AF6C4B4642463146687867
:10019000B847002885F8540018BF6FF001042046C6
:1001A000BDE8F8832DE9F04F1E468BB083468A46A2
:1001B00014460021282268460BF0C0FE3046FFF7A7
:1001C0007AFF0546A8BB631E122B30D80DF101083B
:1001D0005F46C1460AF1FF3AA4B2CBEB07039BB2DC
:1001E0009C4213D9B37843B931463878FFF771FF91
:1001F0003B78054603F07F0300E03B7808F8013CBC
:100200001AF8013F013708F8023BE6E78DB96300B1
:10021000013BF46C9BB24A469DF800107078A047F1
:10022000002886F8540018BF6FF0010501E06FF058
:10023000030528460BB0BDE8F08F37B5742304469C
:100240008DF80730FFF737FFA0BB05462346012294
:100250000DF106017420FFF781FFA0B99DF806306B
:1002600013F0030511D023F003038DF806300122AB
:1002700023460DF106010DF10700FFF793FF236DF3
:100280000A209847E2E7002DE0D194F844308BB182
:100290009DF8062003F0030322F0030213438DF8B8
:1002A000063038B9234601220DF106010DF1070091
:1002B000FFF778FF03B030BD2DE9F041002388B08F
:1002C000064608460C468DF807300493ADF8143006
:1002D0000693ADF81C30FFF7EEFE002840F0648175
:1002E000320791F844706AD5012FADF80800ADF8D7
:1002F0000C0063D15A238DF80830B1F84030C72B79
:1003000005D9B3F5C87F28BF4FF4C87300E0C823F0
:10031000B4F91220142102F5163202F29912534355
:1003200093FBF1F30A2103F5481393FBF1F394F9DE
:10033000112094F9140002F544725A4394F90430E0
:1003400058434FF47A7390FBF3F31B0203EB620103
:1003500094F83430043391FBF3F294F9351083238D
:100360004B4303F5803392FBF3F32222FA3B5343D2
:100370006422323393FBF2F38DF80C30B4F8423040
:100380008DF80920B3F57C6F0BD200223F2BD1B240
:1003900002F1010201D99B08F8E703EB8113DBB2FC
:1003A00000E0FF238DF80D30002384F83C3002225A
:1003B000234603A902A8FFF7F5FE00E00120002371
:1003C00084F8443010B92046FFF737FF06F01005D7
:1003D000ADB205B304F14602072104F13B00FFF77B
:1003E000AEFE30B9234601220DF107017520FFF75B
:1003F000B5FE94F83B3001259B0003F01C029DF8EC
:10040000073023F01C03134375228DF807308DF855
:1004100010208DF81830B30622D504F146020821C9
:1004200004F13D00FFF78BFE30B9234601220DF1A8
:1004300007017020FFF792FE9DF80730702123F02E
:10044000080294F83D3003F00803134308AA2A4435
:1004500001358DF8073002F8101C02F8083CEDB2A7
:10046000B10733D004F14602052104F13900FFF74A
:1004700066FE30B9234601220DF107017420FFF713
:100480006DFEF20709D59DF8073094F8392003F086
:100490001F0343EA42138DF80730B3070BD594F8D6
:1004A0003A309B0003F01C029DF8073023F01C0338
:1004B00013438DF8073008AB2B44742203F8102C3B
:1004C0009DF80720013503F8082CEDB2710722D5FD
:1004D00004F14602052104F13800FFF730FE30B97F
:1004E000234601220DF107017220FFF737FE9DF828
:1004F0000730722123F0070294F8383003F0070325
:10050000134308AA2A4401358DF8073002F8101C5D
:1005100002F8083CEDB216F0C00F3CD004F14608DA
:100520004246012104F13E00FFF709FE68B9424648
:100530000A2104F13C00FFF702FE30B923460122F4
:100540000DF107017120FFF709FE72060BD594F833
:100550003E301B0103F010029DF8073023F010031A
:1005600013438DF8073033060AD59DF8073023F082
:100570000F0294F83C3003F00F0313438DF807305B
:1005800008AB2B44712203F8102C9DF8072001358D
:1005900003F8082CEDB228B923462A4606A904A878
:1005A000FFF700FE84F8447008B0BDE8F081000059
:1005B00013B5184B044618689B8802AAADF804309E
:1005C00091F839300090134491F83A2002A802447F
:1005D00012F8082C13F8083C134491F83820024410
:1005E00012F8082C134440F2AB72534303F59553B1
:1005F0004FF47A721933B3FBF2F301339BB22380C9
:1006000091F83E201AB1B1F842201344238002B081
:1006100010BD00BFE8ED08082DE9F04F804689B015
:1006200008460C46FFF747FD0546002840F0678165
:1006300004AF01460F2238460BF080FC2046FFF73E
:100640003AFD05460A26002D40F0538123460F222D
:1006500039461D20FFF782FD05469DF810009DF8E4
:100660001EE000F00F0388F801309DF8113020F0F3
:100670007F0088F802309DF812309DF813900093A7
:100680009DF818309DF814C001939DF819309DF81D
:1006900015B002939DF81D309DF8161003934FFA84
:1006A0008EF303F0200A40EA0A0003F01003184317
:1006B00040B200289DF8172088F8000080F21681CB
:1006C000120942EA011141EA0B3BE18AB4F9180030
:1006D0004900C1EBDB010A46CB175B104FEA32023F
:1006E00002FB03F6A2FB02234FEA123A94F91A2006
:1006F00003EB46034AEA035A4FEA233B1301DF1791
:100700000AFB07F680FB010103FB0B66AAFB032330
:10071000C00A3344920B40EA415042EA83428318B4
:10072000236303EB830380331B12A8F80430236B8D
:1007300094F926005B10A3F57A439A105243D11224
:100740004843B4F9241052135943490001EBA00166
:10075000B4F91E004FEA1C1C434394F920004CEAF4
:10076000091940014243D21002EB63039B14A28B90
:1007700003F500435343009ADB1349EA0239B4F905
:100780002220C9F58019120402EBA10140F635427E
:10079000A9EB21315143B1FBF3F35B00D91049437D
:1007A000B4F92A20B4F9280049134A439910414367
:1007B0001E12491301EB223106FB06F2564394F850
:1007C0002C20724301EB624294F9271002EBC11214
:1007D00003EB2213C8F80830236B94F90E1003EBD7
:1007E000830380331B125943642291FBF2F194F985
:1007F0000D0059435843891190FBF2F091FBF2F13F
:100800006789014401F58041794301988F1202996B
:10081000268941EA002094F90C10A0EB06165943F2
:1008200091FBF2F1A6EB610000FB07F194F91000D7
:100830000EF00F06434393FBF2F240F23C50E37B91
:100840004FEA9E1E02EBC3128B135B4312119B12E5
:10085000534301EB63034FF47A729B1253432A4ACA
:100860001B1323EAE3739342D4BFC8F80C30C8F8D3
:100870000C2094F9363005220021C3FB0201234BE2
:1008800053F82670A0FB072307FB0133100C40EA46
:1008900003401914039B1E4F4EEA830E4FEACE32DB
:1008A00057F826E012F17F42AEFB00670EFB01779E
:1008B0004FF0000343F1FF3312184B41700A40EA36
:1008C000C75079125F104FEA3206801979410AF059
:1008D000B5FFC8F8100095B998F90030002BBABFE1
:1008E000012384F8453084F8455008E0236D0A2040
:1008F0009847013E16F0FF067FF4A5AE0225284674
:1009000009B0BDE8F08F00BFA08601000000002004
:10091000400000207047037C024603F0080303F008
:10092000FF002BB1D36A506A181A48BF6FF000401D
:1009300070477047704710B504462C2109F037FE08
:10094000204610BD10B50446342109F030FE204683
:1009500010BD083006F048BC103006F045BC07B5A5
:1009600002AB03F8011D01221946103006F03CFCD1
:1009700003B05DF804FB103006F0AABB103006F09F
:10098000D6BA07B501220DF10701103006F01BFAA7
:1009900001280CBF9DF807004FF0FF3003B05DF851
:1009A00004FB00F2644006F0D6B800F2644006F0A2
:1009B0000AB800F2644006F049B800F2644005F05D
:1009C000BABF10B50C46042207F028FB204610BD24
:1009D00013B50023ADF8063008F014FA9828044641
:1009E0000AD809F073FD204602220DF1060107F036
:1009F0000DFBBDF8060001E04FF0FF3002B010BD66
:100A000010B50C46042207F001FB204610BD07B5C7
:100A100002AB03F8011D01221946083006F0E4FB81
:100A200003B05DF804FB00231A461946406807F03E
:100A300091BC10B50446142109F0B9FD204610BD43
:100A40000EB400B58CB00DAA52F8041B20238DE81B
:100A50000600039204930168002304AA1E20059354
:100A600007F0ECFB0CB05DF804EB03B0704700003E
:100A700010B50C4C2368DB0711D42046FFF713FB9D
:100A800068B1094A0321094B094809F04FFB204688
:100A9000FFF70EFB074A0849054809F083FD0448A3
:100AA00010BD00BF000A002074090020080A0020C1
:100AB0006C080020C80100201509080810B5FFF7D0
:100AC000D7FF074B044653B109F04DFB38B12368FB
:100AD00020461B699847002801DDAFF3008010BD58
:100AE0000000000010B50C4C2368DB0711D4204631
:100AF000FFF7D9FA68B1094A0421094B094809F0FE
:100B000015FB2046FFF7D4FA074A0849054809F0C3
:100B100049FD044810BD00BFDC010020B4070020DF
:100B2000A8080020EC010020C801002015090808D1
:100B300010B5FFF7D7FF074B044653B109F013FB7D
:100B400038B1236820461B699847002801DDAFF3C0
:100B5000008010BD0000000038B5044600F264407B
:100B600005F055FEE8B104F58865284606F0E6FA7A
:100B70000121204606F020FD014668B121462846A5
:100B800006F009F968B194F8403413F0700316BF09
:100B9000054B18461D6038BD204606F00DFD0028A7
:100BA000ECD1002038BD00BF940B002038B50C46B6
:100BB000054609F0D7FC6B2109F070FB09F0D2FC67
:100BC000036829469B68984709F0CCFC03682146D6
:100BD0009B68984709F0C6FCBDE83840012109F040
:100BE00060BB000073B509F071FC40F2136302AC06
:100BF00044F8043D214600206426FFF7E2FE09F098
:100C000065FC214608200196FFF7DBFE09F05EFC3B
:100C1000214610200196FFF7D4FE09F057FC21462B
:100C200098200196FFF7CDFE09F050FC21461820D0
:100C30000196FFF7C6FE09F049FC214620200196E7
:100C4000FFF7BFFE09F042FC214628200196FFF77E
:100C5000B8FE09F03BFC214630200196FFF7B1FEBB
:100C600009F034FC214638200196FFF7AAFE09F06E
:100C70002DFC2146402000250196FFF7A2FE09F039
:100C800025FC214604200195FFF79BFE09F01EFC80
:100C900021460C200195FFF794FE09F017FC214630
:100CA00094200195FFF78DFE09F010FC21461420D9
:100CB0000195FFF786FE09F009FC21461C200195ED
:100CC000FFF77FFE09F002FC214624200195FFF783
:100CD00078FE09F0FBFB21462C200195FFF771FE01
:100CE00009F0F4FB214634200195FFF76AFE09F074
:100CF000EDFB21463C200195FFF763FE09F0E6FB82
:100D0000214644200195FFF75CFE09F0DFFB2146F8
:100D100048200195FFF755FE09F0D8FB21465820E1
:100D20000195FFF74EFE09F0D1FB41495C20FFF72A
:100D300048FE09F0CBFB4FF47A7321464C20019317
:100D4000FFF73FFE09F0C2FB42F21073214650202C
:100D50000193FFF736FE09F0B9FB21466FF0060359
:100D600054200193FFF72DFE324B18680AF026FB42
:100D700008F0A2FA09F0AAFB214660200195FFF7CE
:100D800020FE09F0A3FB2146304601950126FFF71E
:100D900018FE09F09BFB214668200196FFF711FE23
:100DA00009F094FB21466C200195FFF70AFE09F03B
:100DB0008DFB214670200195FFF703FE09F086FBAD
:100DC000214674200196FFF7FCFD09F07FFB2146C8
:100DD00078200196FFF7F5FD09F078FB21467C208D
:100DE0000195FFF7EEFD09F071FB21468020019689
:100DF000FFF7E7FD09F06AFB214684200195FFF724
:100E0000E0FD09F063FB214688200195FFF7D9FD3D
:100E100009F05CFB21468C200195FFF7D2FD09F01B
:100E200055FB214690200195FFF7CBFD02B070BD28
:100E3000540B0020840B00202DE9F347C24C09F02D
:100E400045FB21460020FFF7DBFD2368013304D179
:100E500040F213632360FFF7C5FE09F037FB01A9D9
:100E60000820FFF7CDFD01980AF0A8FAB7490AF06B
:100E7000ADFBDFF86493DFF86483C9F8000009F084
:100E800025FB01A91020FFF7BBFD01980AF096FA97
:100E9000AE490AF09BFBC8F8000009F017FB01A956
:100EA0009820FFF7ADFD01980AF088FAA7490AF0EB
:100EB0008DFBA74FA74E386009F008FB01A9182049
:100EC000FFF79EFD01980AF079FAA0490AF07EFB2F
:100ED000306009F0FBFA01A92020FFF791FD01988D
:100EE0000AF06CFA99490AF071FB9B4D9B4C286003
:100EF00009F0ECFA01A92820FFF782FD01980AF019
:100F00005DFA92490AF062FB206009F0DFFA01A95C
:100F10003020FFF775FD01980AF050FA8B490AF06E
:100F200055FB8F4BDFF8B8A2186009F0CFFA01A982
:100F30003820FFF765FD01980AF040FA83490AF06E
:100F400045FB884B186009F0C1FA01A94020FFF762
:100F500057FD01980AF032FA7C490AF037FB824BC0
:100F6000186009F0B3FA81490420FFF749FD09F040
:100F7000ADFA7F490C20FFF743FD09F0A7FA7D4940
:100F80009420FFF73DFD09F0A1FA7B491420FFF7FB
:100F900037FD09F09BFA79491C20FFF731FD09F074
:100FA00095FA77492420FFF72BFD09F08FFA754950
:100FB0002C20FFF725FD09F089FA73493420FFF74B
:100FC0001FFD09F083FA71493C20FFF719FD09F074
:100FD0007DFA6F494420FFF713FD09F077FA6D4958
:100FE0004820FFF70DFD09F071FA6B495820FFF713
:100FF00007FD09F06BFA69495C20FFF701FD09F074
:1010000065FA67494C20FFF7FBFC09F05FFA654978
:101010005020FFF7F5FC09F059FA01A95420FFF719
:10102000EFFC01980AF0CAF908F046F909F04EFA07
:101030005D496020FFF7E4FC09F048FA5B49642051
:10104000FFF7DEFC09F042FA59496820FFF7D8FCA7
:1010500009F03CFA57496C20FFF7D2FC09F036FA48
:1010600055497020FFF7CCFC09F030FA5349742041
:10107000FFF7C6FC09F02AFA51497820FFF7C0FCB7
:1010800009F024FA4F497C20FFF7BAFC09F01EFA58
:101090004D498020FFF7B4FC09F018FA4B49842031
:1010A000FFF7AEFC09F012FA49498820FFF7A8FCC7
:1010B00009F00CFA51468C20FFF7A2FC09F006FA61
:1010C00044499020FFF79CFCDAF8003013B100206F
:1010D00008F0F2F841F28731384AD9F80000136875
:1010E000013B8B4284BF0123136000210AF04EFBB9
:1010F00018B1394B4FF07E521A600021D8F8000029
:101100000AF044FB18B1354B4FF07E521A600021B3
:1011100038680AF03BFB18B10D4B4FF07E521A6055
:10112000002130680AF032FB18B10A4B4FF07E52B2
:101130001A60002128680AF029FB002852D0064BCB
:101140004FF07E521A604DE0880000200000C84237
:10115000300900201C020020A8070020F00A00200F
:10116000B0070020E4010020DC060020240200205B
:10117000F8090020FC0900208C08002068070020E6
:10118000D40A0020A80A0020040A002060070020DA
:1011900014020020CC0A00208C0A0020540B0020EE
:1011A000900000208C000020A8060020AC07002042
:1011B000640700203C0B0020A4060020BC0A00208D
:1011C000480B002088080020E8010020E4060020E9
:1011D000400B002010020020900A00202C09002063
:1011E00098080020002120680AF0D0FA18B1034BBB
:1011F0004FF07E521A6002B0BDE8F087F00A00207E
:1012000010B508F08FFE03681B69984790B9FFF787
:1012100069FC03681B6998470028F2DDFFF762FC50
:1012200003685B699847044608F07CFEE1B207F06A
:101230003BFEE6E710BD0000F7B506460D4600246C
:101240004F1EAC4212D0325D0B4901A807F002F9E3
:1012500008F068FE01A907F023FEA74204D008F0B9
:1012600061FE202107F020FE0134EAE708F05AFE73
:1012700007F01DFE03B0F0BDBBEE0808F8B504464C
:101280000F464E1E451E0644B54207D0FFF72AFC06
:10129000036815F8011F9B689847F5E73946204613
:1012A000BDE8F840FFF7C8BF1FB5074A01AB52F8C9
:1012B0000E0F5168128903C30A2101A81A80FFF793
:1012C000DDFF05B05DF804FB48EE08081FB5074ACE
:1012D00001AB52F8180F5168128903C30A2101A803
:1012E0001A80FFF7CBFF05B05DF804FB48EE080855
:1012F00038B5314B314D1B68B3B1314B58890AF0C9
:1013000059F830490AF062F92F490AF0ABF82F4931
:1013100009F09EFF2B680446002B35D008F002FE32
:101320002B4907F0D0FD2FE02A4B1B681BB32B681D
:1013300023B108F0F7FD284907F0C5FD0B2009F09F
:101340007FF80AF03BF809F0E3FB17A3D3E9002389
:1013500009F032FC09F028FF4FF07C5109F078FFCA
:1013600009F0D6FB12A3D3E9002309F04FFD09F0E1
:101370001BFF044608E02B6823B108F0D3FD174992
:1013800007F0A1FD164B1C68164B204619680AF0A1
:1013900069F80446144B18680AF010F8214609F061
:1013A00059FF38BDAFF300802D431CEBE2364A3FB6
:1013B0007B14AE47E17A843FE8010020CC0A00208C
:1013C0009C08002000F87F460000254300002042D2
:1013D000C0EE080864070020E1EE080800EF0808E6
:1013E000E8060020B0070020A80A002038B5194BF5
:1013F000194D1B6883B1194B188909F0DBFF184997
:101400000AF0E4F817490AF02DF82B68044663B196
:1014100008F088FD144906E0144B9C682B6823B142
:1014200008F080FD124907F04EFD124B2046196866
:101430000AF018F80446104B186809F0BFFF21465F
:1014400009F008FF074904460AF0C8F900B1054C45
:10145000204638BDE8010020CC0A00209C0800206E
:1014600000F87F460000C8422CEF0808E80600207C
:101470004AEF0808DC06002060070020000000009A
:101480002DE9F0438BB0944902A807F05AFB934B27
:101490001A681E4622B108F045FD914907F013FD78
:1014A000904D0021288808F0B2FF09F03BF8012296
:1014B0004A2108F0E5FE30B908F034FD8A4907F00A
:1014C00002FD00242EE00321884804F056FC09F0B8
:1014D00075FF874B196809F0C5FF864904460AF075
:1014E00075F809F015FB0022834B8046894609F008
:1014F000AFF909F011FE0028B8BF404209F0F6FA32
:1015000000227E4B09F0E8FD60B108F00BFD7C493C
:1015100007F0C6FC08F006FD0223009342464B4646
:1015200007F0F8FD0021774804F0D1FA30B93368AC
:1015300023B108F0F7FC744907F0C5FC08F0F2FF8E
:1015400001224A2108F09CFE002800F0AB80002117
:101550006C4804F0BCFA002800F0A48065492046DD
:101560000AF034F809F0D4FA0022634B09F070F95C
:1015700009F0D2FD0028B8BF404209F0B7FA0022B6
:101580005E4B09F0A9FD002840F08C80044681469E
:1015900080460A260021554804F0EFFB01218044D3
:1015A000524804F0EAFB02218144504804F0E5FB74
:1015B00003214E4804F0E1FB013E0444EAD14C4BC8
:1015C0000A271E6894FBF7F009F0F8FE314609F08F
:1015D00049FF044698FBF7F009F0F0FE314609F0A8
:1015E00041FF0146204609F033FE484909F0EEFF6D
:1015F000804699FBF7F009F0E1FE314609F032FF31
:101600000146204609F024FE414909F0DFFF044667
:10161000FFF76EFE3F490AF0CDF820B12146404663
:1016200009F016FE27E0FFF763FE3B490AF0C2F817
:1016300020B12146404609F00DFE1CE0FFF758FEA0
:1016400035490AF0CBF8A8B1204609F061FA1EA38B
:10165000D3E9002309F0B0FA064640460F4609F0E8
:1016600057FA02460B463046394609F0F3F809F0BE
:101670009BFD00E0002009F04BFA15A3D3E90023FD
:1016800009F0C4FB09F090FD02220146044606A8B9
:1016900007F0F1FA06A902A807F09DFA06A807F0DC
:1016A00009FA04E01D4902A807F09DFA002401216F
:1016B000288808F0ACFE02A807F0FCF920460BB021
:1016C000BDE8F083AFF3008052B81E85EB51E83FD0
:1016D000B6F3FDD478E9D63F40160908CC0A0020BD
:1016E00064EF0808CC0000207AEF08089A0A00206E
:1016F000A000002000007A440000F43F0000E03F1A
:101700009FEF0808E1010020AFEF08080000F0C2D9
:10171000000016C3000070410000C841D6EF080861
:1017200030B51E4985B0054602230C22A1F58E6016
:10173000FFF712FA50B308F0F5FB194907F0C3FBA5
:10174000184A1949194C462312680968184805F0C7
:10175000FCFC236893B91749174807F0B4FB07F05E
:10176000A4FE0146684607F0CDFD0099124807F037
:10177000AAFB684607F09EF90123236029680E48FA
:1017800007F0A1FB0A4805F0D9FC04E008F0CAFB09
:101790000A4907F098FB05B030BD00BF9C06002049
:1017A000DAEF080898070020940B00209408002026
:1017B000600B0020F4EF0808580B00200BF008081D
:1017C0002DE9F04190B0B049684607F0BAF9AF4949
:1017D00004A807F0B6F9FFF785F90D2201460CA819
:1017E00007F0F8FC0CA9684607F0F5F90CA807F01B
:1017F00061F90723042269460CA807F0DBFA0CA95B
:1018000004A807F0E8F90CA807F054F9A04904A8C7
:1018100007F0B3FA50BB9C49684607F0AEFA0028BF
:10182000D9D008F07FFB9B4907F04DFB99490CA8E4
:1018300007F087F90CA8FFF773FF0CA80BE021460F
:10184000684607F0B5FA2C2818D00136029BB4B2CE
:10185000A342F4D808A807F02DF904A807F02AF944
:10186000684607F027F910B0BDE8F081874908A85D
:10187000002607F066F93746874DE7E77B1E062B03
:1018800000F2FB80DFE813F02C00F9006500F9009E
:1018900098000700B90004F101084146684607F0C6
:1018A00087FA2C2800F0EE8004F10B0342466946CB
:1018B0000CA807F07FFA0CA908A807F08CF90CA86F
:1018C00007F0F8F8754B1B68002B00F0DB8008F080
:1018D00029FB734907F0E4FA08F024FB0899CFE0EC
:1018E00004F101084146684607F062FA2C2800F02E
:1018F000C98004F10A03424669460CA807F05AFA67
:101900000CA908A807F067F90CA807F0D3F8634BF7
:101910001B684BB108F006FB624907F0C1FA08F0FA
:1019200001FB089907F0BCFA08A90CA807F048F9D0
:1019300004F10C01684607F03BFA0CA902465A482C
:1019400004F046FA0CA807F0B5F82B8823F008033A
:1019500091E004F101084146684607F029FA2C2875
:1019600000F0908004F10B03424669460CA807F092
:1019700021FA0CA908A807F02EF90CA807F09AF88C
:10198000464B1B684BB108F0CDFA484907F088FA7E
:1019900008F0C8FA089907F083FA08A90CA807F01C
:1019A0000FF904F10D01684607F002FA0CA902468E
:1019B0003D4804F053FA1CE004F101084146684632
:1019C00007F0F6F92C285DD0E31C424669460CA8C6
:1019D00007F0F0F90CA908A807F0FDF80CA807F02B
:1019E00069F808A90CA807F0EBF80CA92E4804F038
:1019F0007BFA0CA807F05EF844E004F101084146C8
:101A0000684607F0D5F92C283CD0E31C42466946CD
:101A10000CA807F0CFF90CA908A807F0DCF80CA86F
:101A200007F048F808A90CA807F0CAF80CA91E4846
:101A300004F062FA0CA807F03DF82B881A4823F04E
:101A40000C032B8004F06EFA012803DC2B8843F092
:101A50000C0310E0144804F065FA042803DC2B881A
:101A600043F0080307E0104804F05CFA132809DC8F
:101A70002B8843F004032B8004E008F053FA0C4950
:101A800007F021FA0137E0E627F0080840160908B8
:101A90003EF008082CF00808440B0020CC0A002077
:101AA00042F0080853F008083809002065F00808DB
:101AB00078F008082DE9F0418CB0B249684607F08B
:101AC00040F8FFF70FF80D22014608A807F082FB47
:101AD00008A9684607F07FF808A806F0EBFF07237F
:101AE0000422694604A807F065F9A74904A807F08D
:101AF00044F90546A8B9A349684607F03EF998B1EC
:101B000008F010FAA14907F0DEF9A04908A807F08B
:101B100018F808A8FFF704FE08A806F0CBFF012478
:101B200004E00024012501E00446054604A806F06F
:101B3000C1FFB5B9002CC4D00DE02146684607F0BE
:101B400037F92C2815D00137029BBCB2A342F4D838
:101B500004A806F0AFFF684606F0ACFF0CB0BDE885
:101B6000F0818B4904A8002706F0EBFF3E46894D23
:101B7000EAE7072E00F2FE80DFE816F008002F00EB
:101B8000FC006800FC00FC009B00BC0004F10108A4
:101B90004146684607F00CF92C2800F0F18004F16A
:101BA0000B034246694608A807F004F908A904A8EF
:101BB00007F011F808A806F07DFF774B1B68002B93
:101BC00000F0DE8008F0AEF9744907F069F908F01A
:101BD000A9F9049907F077F9D2E004F10108414628
:101BE000684607F0E5F82C2800F0CA8004F10A03E3
:101BF0004246694608A807F0DDF808A904A806F0DF
:101C0000EAFF08A806F056FF634B1B684BB108F0CB
:101C100089F9634907F044F908F084F9049907F059
:101C20003FF904A908A806F0CBFF04F10C016846AF
:101C300007F0BEF808A902465A4804F0C9F808A8F7
:101C400006F038FF2B8823F008037FE004F1010839
:101C50004146684607F0ACF82C2800F0918004F16A
:101C60000B034246694608A807F0A4F808A904A88F
:101C700006F0B1FF08A806F01DFF474B1B684BB1EB
:101C800008F050F9484907F00BF908F04BF90499AE
:101C900007F006F904A908A806F092FF04F10D0167
:101CA000684607F085F808A902463E4804F0D6F8D1
:101CB0001CE004F101084146684607F079F82C2839
:101CC0005ED0E31C4246694608A807F073F808A9ED
:101CD00004A806F080FF08A806F0ECFE04A908A8F6
:101CE00006F06EFF08A92F4804F0FEF808A806F0D9
:101CF000E1FE45E004F101084146684607F058F866
:101D00002C283DD0E31C4246694608A807F052F84B
:101D100008A904A806F05FFF08A806F0CBFE04A9F6
:101D200008A806F04DFF08A91E4804F0E5F808A829
:101D300006F0C0FE2B881B4823F00C032B8004F018
:101D4000F1F8012804DC2B8843F00C032B8017E00A
:101D5000144804F0E7F8042803DC2B8843F0080358
:101D6000F4E7104804F0DEF8132809DC2B8843F070
:101D70000403EBE708F0D6F80C4A002107F0D8F985
:101D80000136E0E627F00808A0F00808A4F00808EB
:101D900040160908440B0020CC0A002042F0080835
:101DA00053F008083809002065F00808B6F0080864
:101DB00010B590B01D4908A806F0C3FE1C4904A840
:101DC00006F0FEFE04A908A806F0B9FF194906F0BE
:101DD000C2FF044618490CA806F0F2FE0CA92046E2
:101DE00006F0ADFF154906F0B6FF0146684606F05D
:101DF000E7FE0CA806F05EFE04A806F05BFE08A84D
:101E000006F058FE08F08EF80D4907F05CF808F06F
:101E1000ADF9009907F057F808F084F8094907F080
:101E200052F8684606F046FE10B010BD38F10808BA
:101E30000002002012120908CC01002061F30808FA
:101E40003BF108085FF1080810B52C4C01212088EF
:101E500008F0DDFAFA2007F075FB0021208808F071
:101E6000D6FAFA2007F06EFB0121208808F0CFFA9D
:101E7000FA2007F067FB0021208808F0C8FAFA2052
:101E800007F060FB0121208808F0C1FAFA2007F072
:101E900059FB0021208808F0BAFAFA2007F052FB1B
:101EA0000121208808F0B3FAFA2007F04BFB00214B
:101EB000208808F0ACFAFA2007F044FB01212088C2
:101EC00008F0A5FAFA2007F03DFB0021208808F071
:101ED0009EFAFA2007F036FB0121208808F097FAD5
:101EE000FA2007F02FFB2088002108F090FABDE8C7
:101EF00010406B210720FEF759BE00BF9400002060
:101F0000F8B5174F174E3888174D002108F07FFAA3
:101F1000164C3088002108F07AFA2888002108F051
:101F200076FA0021208808F072FA4FF47A7007F0F0
:101F300009FB3888012108F06AFA3088012108F08D
:101F400066FA2888012108F062FA2088012108F049
:101F50005EFABDE8F8404FF47A7007F0F3BA00BFBC
:101F60009C000020C8000020C4000020A400002025
:101F700070B5AA4BA8B04FF4DA42A94901A8A94DFF
:101F80001A80A94C06F0DDFD072007F0D9FA0121DF
:101F9000288808F02BFA0121208808F027FAA34BA3
:101FA0000121188808F022FAA14B0121188808F0B5
:101FB0001DFAA04B0121188808F018FA9E4B012148
:101FC000188808F013FA9D4B0121188808F00EFAC2
:101FD0009B4B0121188808F009FAFEF72DFF99485C
:101FE00006F078FA41F27001964806F0A3FB954896
:101FF00006F06BFB944E34210020FEF7D7FD1B2129
:102000000120FEF7D3FD304603F010FE96F8213094
:1020100013B9FFF719FF0EE08C4B1B68012B0AD197
:102020008B4807F003FB8B4909F0BAFB18B196F80F
:102030002130002BEDD00121288808F0E8F9208814
:10204000012108F0E4F97B4B0121188808F0DFF941
:10205000774B0121188808F0DAF9774B01211888AD
:1020600008F0D5F9754B0121188808F0D0F9744BA8
:102070000121188808F0CBF96C4B0121188808F071
:10208000C6F9754A7549764807F0FAFB0023022223
:102090007449754806F086F908F068F84FF416514F
:1020A00008F05EF8FEF7E4FC4FF4165108F058F81B
:1020B000FEF718FD4FF4165108F052F8FEF7D8FC61
:1020C00041F2883107F083F842F2107007F03AFAD3
:1020D00007F028FF4FF4165107F00AFF634B0A225E
:1020E000196805A806F0A1FD05A909A806F068FD74
:1020F0005F4909A806F02FFE044607F00DFA0A22F0
:1021000001460DA806F091FD0DA9204606F017FE28
:10211000044607F0F9F90A22014611A806F085FDE8
:1021200011A9204606F00BFE044607F0E3F90A2247
:10213000014615A806F079FD15A9204606F0FFFD19
:102140004B4906F008FE044607F0B6F90A2201469C
:1021500019A806F06AFD19A9204606F0F0FD04460C
:1021600007F0B4F90A2201461DA806F05EFD1DA97C
:10217000204606F0E4FD044607F0B2F90A220146C3
:1021800021A806F052FD21A9204606F0D8FD3949C4
:1021900006F0E1FD384C0146204606F002FD21A87C
:1021A00006F088FC1DA806F085FC19A806F082FC44
:1021B00015A806F07FFC11A806F07CFC0DA806F01F
:1021C00079FC09A806F076FC05A806F073FC07F078
:1021D000A9FE2A4906F077FE294921A806F0B1FC9C
:1021E000214621A806F0ABFD0146264806F0D9FCA1
:1021F00021A806F05FFC244902230C22A1F58E6081
:10220000FEF7AAFC002843D007F08CFE1F4906F019
:1022100047FE07F087FE21683DE000BF440B002029
:102220004016090898000020CC000020D0000020B3
:10223000C8000020940000209C000020C400002062
:10224000A4000020A40A002074070020480B0020EE
:10225000800800200000A04168F10808D1090808A2
:1022600055980808F809002076F108088800002031
:102270009CF108087FF10808AC0A002084F10808E6
:1022800099F10808980700209C0600209EF1080894
:1022900007F048FE8349844C06F015FE07F042FE25
:1022A000824906F010FE23684BB1804921A806F050
:1022B00048FC21A8FFF734FA21A806F0FBFB08F040
:1022C00031F907F0CBFF0021288808F0A0F803239C
:1022D000B0221821764803F04BFC88B907F022FEA3
:1022E000744906F0F0FD2368FBB1724921A806F09D
:1022F00028FC21A8FFF714FA21A806F0DBFB14E064
:1023000007F010FE6C4906F0DEFD23684BB16B4907
:1023100021A806F016FC21A8FFF702FA21A806F072
:10232000C9FB0121288808F072F8654803F01CFDFC
:1023300008F0F8F80122492107F0A2FF88B907F058
:10234000F1FD604906F0BFFD236873B15D4921A826
:1023500006F0F7FB21A8FFF7E3F921A806F0AAFB96
:1023600003E00021564803F006FD07F0DBFD564967
:1023700006F0A9FD23684BB1534921A806F0E1FB03
:1023800021A8FFF7CDF921A806F094FB4F4D08F0E6
:10239000C9F807F063FF0021288808F038F8032304
:1023A000B02218214A4803F0E3FB78B907F0BAFDE0
:1023B000484906F088FD474921A806F0C2FB21A83C
:1023C000FFF7AEF921A806F075FB14E007F0AAFDAF
:1023D000414906F078FD23684BB13F4921A806F03A
:1023E000B0FB21A8FFF79CF921A806F063FB0121AF
:1023F000288808F00CF8394803F0B6FC08F092F889
:1024000001224A2107F03CFF88B907F08BFD2D49D6
:1024100006F059FD236873B12A4921A806F091FB03
:1024200021A8FFF77DF921A806F044FB03E0002175
:102430002A4803F0A0FCFFF763FD07F073FD28496D
:1024400006F041FD07F06EFD264906F029FD07F074
:1024500069FD0A22462106F0A4FD07F063FD22492A
:1024600006F01EFD07F05EFD0A220D2106F099FD23
:10247000FEF71AFF1C23002121A8ADF8843005F0D7
:1024800005FF23A91DA806F05CFB1D9A17491848F3
:10249000FEF7D6FA1DA806F00DFB01A806F00AFB10
:1024A00028B070BDC4F10808CC0A0020DAF1080891
:1024B000E0010020FEF108082AF2080848F20808A6
:1024C000940A002064F2080897F20808CC00002063
:1024D000E1010020BAF20808E3F208089A0A002095
:1024E00001F308080CF3080819F3080821F3080899
:1024F000A40B002000B58FB0804902A806F021FB94
:1025000007F010FD7E4906F0DEFC002300937D4BB2
:1025100006A8D3E9002306F0C5FB06A90AA806F021
:102520004FFB79490AA806F016FC014602A806F0FE
:10253000E6FB0AA806F0BEFA06A806F0BBFA734B43
:102540000322196806A806F096FB06A90AA806F059
:1025500037FB6D490AA806F0FEFB014602A806F00B
:10256000CEFB0AA806F0A6FA06A806F0A3FA684B66
:102570000322196806A806F07EFB06A90AA806F041
:102580001FFB61490AA806F0E6FB014602A806F017
:10259000B6FB0AA806F08EFA06A806F08BFA5D488C
:1025A00003F0B6FC0022002308F06EFD90B95948F4
:1025B00003F0C9FC18B9584902A806F0A4FB554815
:1025C00003F0A6FC0623009302460B4606A806F07D
:1025D00069FB03E0514906A806F0B3FA06A90AA868
:1025E00006F0EEFA48490AA806F0B5FB014602A833
:1025F00006F085FB0AA806F05DFA06A806F05AFA6E
:10260000444803F08AFC0022002308F03DFD98B9FD
:10261000404803F09BFC012803D13F4902A806F083
:1026200072FB3C4803F079FC0623009302460B46FC
:1026300006A806F037FB03E0394906A806F081FA40
:1026400006A90AA806F0BCFA2F490AA806F083FBDF
:10265000014602A806F053FB0AA806F02BFA06A8CA
:1026600006F028FA2B4803F058FC0022002308F05B
:102670000BFD80B9274803F055FC08F037FA00221B
:10268000284B08F0C3FB0623009302460B4606A81E
:1026900006F008FB03E0244906A806F052FA06A952
:1026A0000AA806F08DFA18490AA806F054FB01465C
:1026B00002A806F024FB0AA806F0FCF906A806F01A
:1026C000F9F91A4A1A4B12680AA81A4906F09AFE32
:1026D0000AA902A806F013FB0AA806F0EBF91649AE
:1026E00002A806F010FB07F041FD029906F0D8FBA6
:1026F00002A806F0DFF90FB05DF804FB34F3080818
:1027000036F30808D80A00201212090870070020C2
:10271000A00A0020380900204BF30808A800002078
:10272000B40000200000244080000020C00A0020E7
:102730004DF30808CC0B00205FF3080830B55B4D63
:1027400095B007F0EFFB5A4906F0AAFB594C07F089
:10275000E9FB296806F0B7FB07F0E4FB564906F0F1
:102760009FFB07F0DFFB216806F0ADFB07F0DAFB0B
:10277000524906F0A8FB07F0D5FB4CF2503106F0A9
:1027800026FD07F0CFFB0D220146684606F022FD2C
:102790004B49684606F0F1FA002800F0818007F006
:1027A000C1FB484906F08FFB07F0BCFB464906F029
:1027B0008AFB07F0B7FB4CF2503106F008FD07F03A
:1027C000B1FB0D22014604A806F004FD07F0AAFBA8
:1027D0003E4906F065FB07F0A5FB049906F073FB84
:1027E00007F0A0FB3A4906F06EFB07F09BFB0D22B9
:1027F000014608A806F0EEFC364908A806F0BDFA26
:10280000002842D007F08EFB334906F05CFB04A998
:10281000284606F0C6F907F085FB304906F053FB61
:1028200007F080FB0D2201460CA806F0D3FC07F050
:1028300079FB2B4906F034FB07F074FB0C9906F08A
:1028400042FB07F06FFB0D22014610A806F0C2FC08
:10285000204910A806F091FA58B107F063FB21490E
:1028600006F031FB0CA9204606F09BF9FFF7A0FA11
:1028700004E007F057FB1C4906F025FB10A806F002
:1028800019F90CA806F016F904E007F04BFB1649FD
:1028900006F019FB08A806F00DF904A806F00AF9DD
:1028A000684606F007F915B030BD00BF00020020F1
:1028B000A9F30808CC010020BFF30808D9F30808E1
:1028C0000BF4080811F4080823F4080833F4080886
:1028D0004BF40808761C090861F4080871F408082C
:1028E00084F40808A0F40808B4F408081FB507F039
:1028F00019FB194906F0E7FA07F014FB4CF25031C6
:1029000006F065FC07F00EFB0D220146684606F056
:1029100061FC1249684606F030FA98B107F002FBF4
:102920000F4906F0D0FA0F4C07F0FCFA0E4906F0FA
:10293000CAFA0123236007F0C9FD21468C20FEF767
:1029400040F804E007F0EEFA084906F0BCFA6846E1
:1029500006F0B0F804B010BDC7F408080AF508087E
:1029600011F408089808002015F5080836F508083D
:1029700030B589B007F0D6FA354C06F098FA07F072
:10298000D1FA344906F08CFA07F0CCFA0A22216811
:1029900006F007FB07F0C6FA2F4906F094FA07F095
:1029A000C1FA4CF2503106F012FC07F0BBFA0D22CE
:1029B0000146684606F00EFC2849684606F0DDF937
:1029C00000283AD007F0AEFA254906F07CFA07F065
:1029D000A9FA244906F077FA07F0A4FA0D22014675
:1029E00004A806F0F7FB04A806F00CFA054607F069
:1029F00099FA1D4906F067FA42F20C73AA1E9A4230
:102A000012D807F08FFA194906F04AFA07F08AFA45
:102A100029460A2206F0C5FA256007F057FD21462F
:102A20000020FDF7CEFF04E007F07CFA104906F025
:102A30004AFA04A806F03EF804E007F073FA0D49DC
:102A400006F041FA684606F035F809B030BD00BF1F
:102A5000880000204CF508085FF508080BF408080A
:102A600011F408088FF5080840160908A4F50808AD
:102A7000B5F5080836F508081FB507F053FA06F053
:102A800016FA07F04FFA144906F01DFA07F04AFA51
:102A90004CF2503106F09BFB07F044FA0D22014640
:102AA000684606F097FB0D49684606F066F938B1AE
:102AB00007F038FA0A4906F006FAFEF793F804E040
:102AC00007F030FA074906F0FEF9684605F0F2FF14
:102AD00005B05DF804FB00BFC6F508080BF4080854
:102AE000FFF5080836F5080810B588B007F01AFA9F
:102AF0001F4906F0E8F907F015FA4CF2503106F0DC
:102B000066FB07F00FFA0D220146684606F062FBED
:102B1000684606F077F9044607F004FA154906F00E
:102B2000D2F9154B9C4218DD204606F0E1FB07F078
:102B3000F9F9124906F0B4F907F0F4F9044606F081
:102B4000B4FC014604A806F0DDFB0499204606F01B
:102B5000BAF904A805F0AEFF04E007F0E3F908496C
:102B600006F0B1F9684605F0A5FF08B010BD00BF3A
:102B70006EF6080840160908F52E9439A9F60808DB
:102B8000B5F5080810B586B007F0CCF91F4906F076
:102B90009AF907F0C7F94CF2503106F018FB07F02C
:102BA000C1F90D22014602A806F014FB02A806F0A6
:102BB00029F9019007F0B6F9154906F084F9019852
:102BC00000F10C031A2B17D808F0F8FB06F074FB81
:102BD00006AC07F0A7F90F4906F062F907F0A2F971
:102BE00054F8141D0A2206F0DCF907F06FFC2146A8
:102BF0005420FDF7E6FE04E007F094F9064906F0DC
:102C000062F902A805F056FF06B010BDBCF6080830
:102C100040160908E7F60808B5F5080830B587B08A
:102C200007F080F9294D06F042F907F07BF92849B1
:102C300006F036F907F076F90A22296806F0AFF9AE
:102C400007F070F9234906F03EF907F06BF92249C5
:102C500006F026F907F066F94CF2503106F0B7FAA3
:102C600007F060F90D22014602A806F0B3FA02A8A7
:102C700006F0C8F842F20E730190013898421AD853
:102C800007F050F9154906F00BF907F04BF90A2245
:102C9000019906F086F906AC07F044F90D4906F0F3
:102CA00012F954F8143D2B6007F010FC21467420F3
:102CB000FDF787FE04E007F035F9094906F003F94E
:102CC00002A805F0F7FE07B030BD00BFBC0A002027
:102CD000FFF6080813F708082CF708083FF708085C
:102CE000B5F5080830B58BB007F01CF906F0DFF831
:102CF00007F018F9324906F0D3F807F013F9054642
:102D0000304C0222216806A805F0B5FF0699284636
:102D100006F0C6F806A805F0CDFE07F003F92A492B
:102D200006F0D1F807F0FEF8284906F0B9F807F0E8
:102D3000F9F84CF2503106F04AFA07F0F3F80D2298
:102D4000014602A806F046FA02A806F060F84FF025
:102D50007C51054608F038FD38B31D49284608F077
:102D60001FFD10B31B492846256008F07BFB08F0C7
:102D70003FFD019007F0D6F8174906F091F807F0EB
:102D8000D1F805460222216806A805F074FF0699CD
:102D9000284606F098F806A805F08CFE07F096FB8A
:102DA00001A90820FDF70DFE04E007F0BBF80B4970
:102DB00006F089F802A805F07DFE0BB030BD00BF1B
:102DC00051F70808900A002064F7080869F7080816
:102DD000000020410000C8427FF70808B5F5080848
:102DE00030B587B007F09EF8264D06F060F807F082
:102DF00099F8254906F054F807F094F80A22296852
:102E000006F0CDF807F08EF8204906F05CF807F0E0
:102E100089F81F4906F044F807F084F84CF2503165
:102E200006F0D5F907F07EF80D22014602A806F05B
:102E3000D1F902A805F0E6FF019000F57A70B0F52F
:102E4000FA6F15D207F06EF8124906F029F806ACB1
:102E500007F068F801990A2206F0A3F854F8143D27
:102E60002B6007F033FB21460420FDF7AAFD04E0A8
:102E700007F058F8084906F026F802A805F01AFEEF
:102E800007B030BD2402002091F7080864F7080855
:102E9000A3F70808B8F70808B5F50808000000000F
:102EA00030B58BB007F03EF806F001F807F03AF8BD
:102EB000374905F0F5FF07F035F80546354C022295
:102EC000216806A805F0D7FE0699284605F0E8FF18
:102ED00006A805F0EFFD07F025F82F4905F0F3FFF0
:102EE00007F020F82D4905F0DBFF07F01BF84CF246
:102EF000503106F06CF907F015F80D22014602A8D2
:102F000006F068F902A805F082FF054607F000FE0A
:102F10001DA3D3E9002308F0D5F840B34FF080415A
:102F2000284608F03DFC10B31D492846256008F0EE
:102F300099FA08F05DFC019006F0F4FF194905F0DC
:102F4000AFFF06F0EFFF05460222216806A805F054
:102F500092FE0699284605F0B6FF06A805F0AAFDE0
:102F600007F0B4FA01A91020FDF72BFD04E006F0EC
:102F7000D9FF0D4905F0A7FF02A805F09BFD0BB096
:102F800030BD00BFAFF300809A9999999999B93FE4
:102F9000C9F708082C09002064F70808DBF70808BF
:102FA0000000C842F0F70808B5F5080830B587B04A
:102FB00006F0B8FF274D05F07AFF06F0B3FF26496B
:102FC00005F06EFF06F0AEFF0A22296805F0E7FF64
:102FD00006F0A8FF214905F076FF06F0A3FF20497F
:102FE00005F05EFF06F09EFF4CF2503106F0EFF860
:102FF00006F098FF0D22014602A806F0EBF802A8A1
:1030000005F000FF42F20F73019000F59C5008306C
:10301000984215D806F086FF124905F041FF06AC2C
:1030200006F080FF01990A2205F0BBFF54F8143D19
:103030002B6007F04BFA21460C20FDF7C2FC04E0A0
:1030400006F070FF084905F03EFF02A805F032FDCA
:1030500007B030BDF809002002F8080815F8080884
:103060001AF808082EF80808B5F5080830B58BB02E
:1030700006F058FF05F01BFF06F054FF324905F03B
:103080000FFF06F04FFF0546304C0222216806A8CC
:1030900005F0F1FD0699284605F002FF06A805F0A7
:1030A00009FD06F03FFF2A4905F00DFF06F03AFF43
:1030B000284905F0F5FE06F035FF4CF2503106F0D8
:1030C00086F806F02FFF0D22014602A806F082F8CE
:1030D00002A805F09CFE4FF07C51054608F074FBF9
:1030E00040B34FF07F51284608F05AFB10B31A49FD
:1030F0002846256008F0B6F908F07AFB019006F042
:1031000011FF164905F0CCFE06F00CFF0546022221
:10311000216806A805F0AFFD0699284605F0D3FE04
:1031200006A805F0C7FC07F0D1F901A91820FDF7A2
:1031300048FC04E006F0F6FE094905F0C4FE02A8CA
:1031400005F0B8FC0BB030BD3EF808081C020020AA
:10315000E60F090851F808080000C84267F8080897
:10316000B5F5080830B587B006F0DCFE264D05F051
:103170009EFE06F0D7FE254905F092FE06F0D2FE2F
:103180000A22296805F00BFF06F0CCFE204905F065
:103190009AFE06F0C7FE1F4905F082FE06F0C2FE49
:1031A0004CF2503106F013F806F0BCFE0D22014639
:1031B00002A806F00FF802A805F024FE019000F521
:1031C0007A70B0F5FA6F15D206F0ACFE124905F030
:1031D00067FE06AC06F0A6FE01990A2205F0E1FEA4
:1031E00054F8143D2B6007F071F921461420FDF7C7
:1031F000E8FB04E006F096FE084905F064FE02A82C
:1032000005F058FC07B030BD8C08002079F808089C
:103210008BF8080892F80808A7F80808B5F5080818
:1032200030B58BB006F07EFE05F041FE06F07AFE6A
:10323000324905F035FE06F075FE0546304C022297
:10324000216806A805F017FD0699284605F028FE16
:1032500006A805F02FFC06F065FE2A4905F033FEAE
:1032600006F060FE284905F01BFE06F05BFE4CF2FE
:10327000503105F0ACFF06F055FE0D22014602A8C4
:1032800005F0A8FF02A805F0C2FD4FF07C510546ED
:1032900008F09AFA40B34FF07F51284608F080FAC0
:1032A00010B31A492846256008F0DCF808F0A0FAA7
:1032B000019006F037FE164905F0F2FD06F032FEE9
:1032C00005460222216806A805F0D5FC0699284685
:1032D00005F0F9FD06A805F0EDFB07F0F7F801A9E8
:1032E0002020FDF76EFB04E006F01CFE094905F006
:1032F000EAFD02A805F0DEFB0BB030BDB8F8080807
:10330000A8070020E60F0908CDF808080000C84209
:10331000E5F80808B5F5080830B587B006F002FEF4
:10332000264D05F0C4FD06F0FDFD254905F0B8FD6C
:1033300006F0F8FD0A22296805F031FE06F0F2FDDC
:10334000204905F0C0FD06F0EDFD1F4905F0A8FD80
:1033500006F0E8FD4CF2503105F039FF06F0E2FDD1
:103360000D22014602A805F035FF02A805F04AFD2E
:10337000019000F57A70B0F5FA6F15D206F0D2FD23
:10338000124905F08DFD06AC06F0CCFD01990A222C
:1033900005F007FE54F8143D2B6007F097F821461E
:1033A0001C20FDF70EFB04E006F0BCFD084905F00B
:1033B0008AFD02A805F07EFB07B030BD680700203B
:1033C000F9F808088BF808080DF9080824F9080826
:1033D000B5F5080830B58BB006F0A4FD05F067FD23
:1033E00006F0A0FD324905F05BFD06F09BFD0546A9
:1033F000304C0222216806A805F03DFC06992846BB
:1034000005F04EFD06A805F055FB06F08BFD2A4998
:1034100005F059FD06F086FD284905F041FD06F04E
:1034200081FD4CF2503105F0D2FE06F07BFD0D22FD
:10343000014602A805F0CEFE02A805F0E8FC4FF018
:103440007C51054608F0C0F940B34FF07F51284643
:1034500008F0A6F910B31A492846256008F002F8CA
:1034600008F0C6F9019006F05DFD164905F018FD5B
:1034700006F058FD05460222216806A805F0FBFB70
:103480000699284605F01FFD06A805F013FB07F076
:103490001DF801A92820FDF794FA04E006F042FD8A
:1034A000094905F010FD02A805F004FB0BB030BD82
:1034B00037F90808F00A0020E60F09084BF9080858
:1034C0000000C84262F90808B5F5080830B587B0B1
:1034D00006F028FD264D05F0EAFC06F023FD2549FF
:1034E00005F0DEFC06F01EFD0A22296805F057FDF6
:1034F00006F018FD204905F0E6FC06F013FD1F4913
:1035000005F0CEFC06F00EFD4CF2503105F05FFEEA
:1035100006F008FD0D22014602A805F05BFE02A898
:1035200005F070FC019000F57A70B0F5FA6F15D2D5
:1035300006F0F8FC124905F0B3FC06AC06F0F2FC0C
:1035400001990A2205F02DFD54F8143D2B6006F078
:10355000BDFF21462420FDF734FA04E006F0E2FC2A
:10356000084905F0B0FC02A805F0A4FA07B030BD88
:10357000D40A002075F9080888F908088FF90808A6
:10358000A5F90808B5F5080830B58BB006F0CAFCF7
:1035900005F08DFC06F0C6FC324905F081FC06F012
:1035A000C1FC0546304C0222216806A805F063FBE9
:1035B0000699284605F074FC06A805F07BFA06F08B
:1035C000B1FC2A4905F07FFC06F0ACFC284905F067
:1035D00067FC06F0A7FC4CF2503105F0F8FD06F050
:1035E000A1FC0D22014602A805F0F4FD02A805F099
:1035F0000EFC4FF07C51054608F0E6F840B34FF062
:103600007F51284608F0CCF810B31A4928462560A7
:1036100007F028FF08F0ECF8019006F083FC16494B
:1036200005F03EFC06F07EFC05460222216806A855
:1036300005F021FB0699284605F045FC06A805F093
:1036400039FA06F043FF01A93020FDF7BAF904E08A
:1036500006F068FC094905F036FC02A805F02AFAD4
:103660000BB030BDB7F90808B0070020D2F9080840
:10367000DDF908080000C842FBF90808B5F508089C
:1036800030B587B006F04EFC254D05F010FC06F075
:1036900049FC244905F004FC06F044FC0A22296890
:1036A00005F07DFC06F03EFC1F4905F00CFC06F021
:1036B00039FC1E4905F0F4FB06F034FC4CF25031A5
:1036C00005F085FD06F02EFC0D22014602A805F04E
:1036D00081FD02A805F096FB01901E303B2815D80D
:1036E00006F020FC124905F0DBFB06AC06F01AFCE4
:1036F00001990A2205F055FC54F8143D2B6006F0A0
:10370000E5FE21462C20FDF75CF904E006F00AFCFA
:10371000084905F0D8FB02A805F0CCF907B030BD88
:10372000A80A002015FA0808D2F908082FFA080894
:103730004CFA0808B5F5080830B58BB006F0F2FB76
:1037400005F0B5FB06F0EEFB324905F0A9FB06F0EB
:10375000E9FB0546304C0222216806A805F08BFAE9
:103760000699284605F09CFB06A805F0A3F906F08B
:10377000D9FB2A4905F0A7FB06F0D4FB284905F040
:103780008FFB06F0CFFB4CF2503105F020FD06F028
:10379000C9FB0D22014602A805F01CFD02A805F098
:1037A00036FB4FF07C51054608F00EF840B34FF061
:1037B0007F51284607F0F4FF10B31A4928462560C8
:1037C00007F050FE08F014F8019006F0ABFB164924
:1037D00005F066FB06F0A6FB05460222216806A856
:1037E00005F049FA0699284605F06DFB06A805F094
:1037F00061F906F06BFE01A93820FDF7E2F804E05C
:1038000006F090FB094905F05EFB02A805F052F9AD
:103810000BB030BD65FA0808E40100207DFA080805
:1038200083FA08080000C8429EFA0808B5F508089F
:1038300030B587B006F076FB264D05F038FB06F074
:1038400071FB254905F02CFB06F06CFB0A22296868
:1038500005F0A5FB06F066FB204905F034FB06F0F9
:1038600061FB1F4905F01CFB06F05CFB4CF250317C
:1038700005F0ADFC06F056FB0D22014602A805F04E
:10388000A9FC02A805F0BEFA019000F57A70B0F527
:10389000FA6F15D206F046FB124905F001FB06ACA3
:1038A00006F040FB01990A2205F07BFB54F8143D19
:1038B0002B6006F00BFE21463420FDF782F804E071
:1038C00006F030FB084905F0FEFA02A805F0F2F810
:1038D00007B030BD040A0020B5FA080864F70808EC
:1038E000CCFA0808E6FA0808B5F5080830B58BB038
:1038F00006F018FB05F0DBFA06F014FB324905F080
:10390000CFFA06F00FFB0546304C0222216806A8CC
:1039100005F0B1F90699284605F0C2FA06A805F0A7
:10392000C9F806F0FFFA2A4905F0CDFA06F0FAFACE
:10393000284905F0B5FA06F0F5FA4CF2503105F0D9
:1039400046FC06F0EFFA0D22014602A805F042FC03
:1039500002A805F05CFA4FF07C51054607F034FFF1
:1039600038B31D49284607F01BFF10B31B492846F2
:10397000256007F077FD07F03BFF019006F0D2FAD3
:10398000174905F08DFA06F0CDFA054602222168A6
:1039900006A805F070F90699284605F094FA06A8DD
:1039A00005F088F806F092FD01A94020FDF709F81E
:1039B00004E006F0B7FA0B4905F085FA02A805F015
:1039C00079F80BB030BD00BFFCFA0808DC06002017
:1039D0000EFB080811FB0808000020410000C84247
:1039E00026FB0808B5F5080830B587B006F09AFA46
:1039F000254D05F05CFA06F095FA244905F050FAD9
:103A000006F090FA0A22296805F0C9FA06F08AFA47
:103A10001F4905F058FA06F085FA1E4905F040FAEC
:103A200006F080FA4CF2503105F0D1FB06F07AFA3C
:103A30000D22014602A805F0CDFB02A805F0E2F92F
:103A400001903230632815D806F06CFA124905F05F
:103A500027FA06AC06F066FA01990A2205F0A1FAE7
:103A600054F8143D2B6006F031FD21463C20FCF754
:103A7000A8FF04E006F056FA084905F024FA02A867
:103A800005F018F807B030BD6007002037FB0808C4
:103A90000EFB080848FB08085CFB0808B5F5080899
:103AA00030B589B006F03EFA354C05F000FA06F064
:103AB00039FA344905F0F4F906F034FA0A2221689B
:103AC00005F06FFA06F02EFA2F4905F0FCF906F022
:103AD00029FA4CF2503105F07AFB06F023FA0D2258
:103AE0000146684605F076FB2849684605F045F929
:103AF00000283AD006F016FA254905F0E4F906F058
:103B000011FA244905F0DFF906F00CFA0D220146FE
:103B100004A805F05FFB04A805F074F9054606F05B
:103B200001FA1D4905F0CFF944F61E636A1E9A4258
:103B300012D806F0F7F9194905F0B2F906F0F2F9D2
:103B400029460A2205F02DFA256006F0BFFC214621
:103B50004C20FCF736FF04E006F0E4F9104905F0CC
:103B6000B2F904A804F0A6FF04E006F0DBF90D4961
:103B700005F0A9F9684604F09DFF09B030BD00BF0B
:103B800090000020B4FB0808C9FB08080BF40808E3
:103B900011F4080802FC0808401609081BFC080874
:103BA000B5F5080836F5080830B589B006F0BAF959
:103BB000354C05F07CF906F0B5F9344905F070F99B
:103BC00006F0B0F90A22216805F0EBF906F0AAF92F
:103BD0002F4905F078F906F0A5F94CF2503105F0BF
:103BE000F6FA06F09FF90D220146684605F0F2FA52
:103BF0002849684605F0C1F800283AD006F092F945
:103C0000254905F060F906F08DF9244905F05BF9C6
:103C100006F088F90D22014604A805F0DBFA04A895
:103C200005F0F0F8054606F07DF91D4905F04BF961
:103C30004CF24E336A1E9A4212D806F073F91949B3
:103C400005F02EF906F06EF929460A2205F0A9F9C9
:103C5000256006F03BFC21465020FCF7B2FE04E054
:103C600006F060F9104905F02EF904A804F022FFCF
:103C700004E006F057F90D4905F025F9684604F00F
:103C800019FF09B030BD00BF8C0000202EFC0808D1
:103C900043FC08080BF4080811F408087CFC080829
:103CA0004016090895FC0808B5F5080836F5080817
:103CB00008B506F037F9A24905F005F906F032F922
:103CC000A04905F000F906F02DF99F4905F0FBF831
:103CD00006F028F99D4905F0F6F806F023F99C490D
:103CE00005F0F1F806F01EF99A4905F0ECF806F037
:103CF00019F9994905F0E7F806F014F9974905F024
:103D0000E2F806F00FF9964905F0DDF806F00AF939
:103D1000944905F0D8F806F005F9934905F0D3F871
:103D200006F000F9914905F0CEF806F0FBF890494D
:103D300005F0C9F806F0F6F88E4905F0C4F806F06B
:103D4000F1F88D4905F0BFF806F0ECF88B4905F065
:103D5000BAF806F0E7F88A4905F0B5F806F0E2F897
:103D6000884905F0B0F806F0DDF8874905F0ABF8B2
:103D700006F0D8F8854905F0A6F806F0D3F884498E
:103D800005F0A1F806F0CEF8824905F09CF806F09F
:103D9000C9F8814905F097F806F0C4F87F4905F0A5
:103DA00092F806F0BFF87E4905F08DF806F0BAF8F3
:103DB0007C4905F088F806F0B5F87B4905F083F8F2
:103DC00006F0B0F8794905F07EF806F0ABF87849CE
:103DD00005F079F806F0A6F8764905F074F806F0D3
:103DE000A1F8754905F06FF806F09CF8734905F0E5
:103DF0006AF806F097F8724905F065F806F092F84F
:103E0000704905F060F806F08DF86F4905F05BF831
:103E100006F088F86D4905F056F806F083F86C490D
:103E200005F051F806F07EF86A4905F04CF806F006
:103E300079F8694905F047F806F074F8674905F024
:103E400042F806F06FF8664905F03DF806F06AF8AA
:103E5000644905F038F806F065F8634905F033F871
:103E600006F060F8614905F02EF806F05BF860494D
:103E700005F029F806F056F85E4905F024F806F03A
:103E800051F85D4905F01FF806F04CF85B4905F064
:103E90001AF806F047F85A4905F015F806F042F806
:103EA000584905F010F806F03DF8574905F00BF8B1
:103EB00006F038F8554905F006F806F033F854498D
:103EC00005F001F806F02EF8524904F0FCFF06F068
:103ED00029F8514904F0F7FF06F024F84F4904F09F
:103EE000F2FF06F01FF84E4904F0EDFF06F01AF855
:103EF0004C4904F0E8FF06F015F84B4904F0E3FFE5
:103F000006F010F8494904F0DEFF06F00BF84849C6
:103F100004F0D9FF06F006F8464904F0D4FF06F095
:103F200001F8454904F0CFFF05F0FCFF434904F0D8
:103F3000CAFF05F0F7FFBDE80840414904F0C3BFE0
:103F4000A8FC0808BEFC0808D3FC0808E7FC080821
:103F5000FBFC08080EFD080823FD080837FD0808CB
:103F60004EFD080864FD08087AFD08088FFD080862
:103F7000ACFD0808C8FD0808E2FD0808FBFD0808BC
:103F800015FE08082EFE08084AFE080867FE080805
:103F900080FE08089CFE0808B4FE0808CDFE08084C
:103FA000E6FE0808FAFE08080FFF08082AFF0808BE
:103FB00045FF08085BFF08086CFF08087EFF08083B
:103FC0008FFF0808A1FF0808CAFF0808F3FF0808C8
:103FD00022000908470009086C0009089400090834
:103FE000D4000908170109084201090885010908D8
:103FF000CB010908FF0109081D020908410209084F
:104000005C02090886020908BB020908DF020908E8
:10401000F30209080F0309083403090858030908C3
:104020007D030908A5030908D10309081404090838
:10403000460409086C040908D20409083605090871
:104040004B05090838B5046805467CB16368013B37
:1040500063605BB9236820469B689847A368013B6F
:10406000A3601BB923682046DB689847284638BD03
:1040700030B58BB02949054602A804F062FD04F072
:10408000B1F9274C274B08B11A682ABB1B6843B902
:104090002368E3B105F046FF234904F014FF2249E9
:1040A0000CE0224A138823F002031380236873B1C3
:1040B00005F038FF1E4904F006FF1D4906A804F06C
:1040C00040FD06A8FDF72CFB06A804F0F3FC02A8AF
:1040D00004F0F0FC0BB030BD144A1649138806A852
:1040E00043F002031380144B2A681B788DF80030CC
:1040F0003C2305F0D5FC07A8FFF7A4FF03F066FFFB
:104100000E4B186004F05EF92368002BDFD005F039
:1041100009FF0B4904F0D7FE0949CFE7E60F09086C
:10412000CC0A00201402002075050908440B002069
:104130008B050908A9050908E0060020BC1000202D
:104140005F0509082DE9F041DCB005F0AEF9B34B8D
:10415000B3491A68B34B064603A81A6004F0F1FC91
:10416000AF4907A804F0EDFCAD490BA804F0E9FC49
:10417000AB490FA804F0E5FCA94913A804F0E1FC41
:104180005E2103A804F0CEFD0A2201211BA804F041
:104190004CFD1BA91FA804F013FDA3491FA804F0A0
:1041A000DAFD014603A804F0AAFD1FA804F082FC72
:1041B0001BA804F07FFC9D4C5A2117A804F024FD95
:1041C00017A91FA804F0FCFC0A2221681BA804F010
:1041D0002CFD1BA91FA804F0B2FD014603A804F0A2
:1041E0008EFD1BA804F066FC1FA804F063FC17A852
:1041F00004F060FC0A2221681BA804F016FD1BA92C
:104200001FA804F0DDFC8A491FA804F0A4FD0146A4
:1042100007A804F074FD1FA804F04CFC1BA804F0D0
:1042200049FC844C4D2117A804F0EEFC17A91FA8E7
:1042300004F0C6FC032221681BA804F01CFD1BA986
:104240001FA804F07CFD014603A804F058FD1BA83C
:1042500004F030FC1FA804F02DFC17A804F02AFC81
:10426000032221681BA804F006FD1BA91FA804F067
:10427000A7FC6F491FA804F06EFD014607A804F0D3
:104280003EFD1FA804F016FC1BA804F013FC6A4BAB
:10429000032219681BA804F0EEFC1BA91FA804F058
:1042A0008FFC63491FA804F056FD014607A804F0DF
:1042B00026FD1FA804F0FEFB1BA804F0FBFB6121F8
:1042C0001FA804F0A1FC1FA903A804F018FD1FA853
:1042D00004F0F0FB594801F01BFE0022002306F019
:1042E000D3FE002831D1554801F02DFE38B954498C
:1042F00007A804F008FD524903A804F004FD4F4844
:1043000001F006FE062402460B4600941BA804F0AA
:10431000C9FC1BA91FA804F053FC45491FA804F0C1
:104320001AFD014607A804F0EAFC1FA804F0C2FB2E
:104330001BA804F0BFFB414801F0EAFD00940246CF
:104340000B461FA804F0AEFC19E03E491BA804F080
:10435000F8FB1BA91FA804F033FC35491FA804F083
:10436000FAFC014607A804F0CAFC1FA804F0A2FB4F
:104370001BA804F09FFB33491FA804F0E2FB1FA910
:1043800003A804F0BCFC1FA804F094FB6F211FA835
:1043900004F03AFC1FA903A804F0B1FC1FA804F024
:1043A00089FB264801F0B9FD0022002306F06CFECF
:1043B000002849D1214801F0C9FD012807D1204931
:1043C00007A804F0A0FC1E4903A804F09CFC1B48AD
:1043D00001F0A3FD062402460B4600941BA804F03E
:1043E00061FC1BA91FA804F0EBFB11491FA804F0F6
:1043F000B2FC014607A804F082FC1FA804F05AFB97
:104400001BA804F057FB0D4801F087FD00940246FD
:104410000B461FA804F046FC30E000BFD40000208B
:1044200040160908D00B0020AF05090888000020BD
:104430001212090870070020A00A00203809002085
:104440004BF30808A800002033491BA804F079FBAF
:104450001BA91FA804F0B4FB30491FA804F07BFC83
:10446000014607A804F04BFC1FA804F023FB1BA87F
:1044700004F020FB28491FA804F063FB1FA903A830
:1044800004F03DFC1FA804F015FB63211FA804F0F5
:10449000BBFB1FA903A804F032FC1FA804F00AFB11
:1044A0001F4801F03AFD0022002306F0EDFD002830
:1044B0003AD11B4801F036FD06F018FB0022194BDB
:1044C00006F0A4FC062402460B4600941BA804F048
:1044D000E9FB1BA91FA804F073FB10491FA804F0F7
:1044E0003AFC014607A804F00AFC1FA804F0E2FA0F
:1044F0001BA804F0DFFA0A4801F014FD06F0F6FAF2
:104500000022084B06F082FC009402460B461FA8CE
:1045100004F0C8FB22E000BFB4000020121209081A
:1045200038090020000024409A491BA804F009FB28
:104530001BA91FA804F044FB97491FA804F00BFC1B
:10454000014607A804F0DBFB1FA804F0B3FA1BA880
:1045500004F0B0FA8F491FA804F0F3FA1FA903A8CA
:104560008E4D04F0CCFB1FA804F0A4FA0A2229887F
:104570001BA804F05AFB1BA91FA804F021FB8649C5
:104580001FA804F0E8FB014607A804F0B8FB1FA829
:1045900004F090FA1BA804F08DFA814B3246814951
:1045A0001FA804F02FFF1FA907A804F0A8FB1FA84D
:1045B00004F080FA592117A804F026FB17A91FA8B8
:1045C00004F0FEFA04F071FF0A2201461BA804F071
:1045D0003FFB1BA91FA804F0B2FB014603A804F08F
:1045E0008EFB1BA804F066FA1FA804F063FA6E4C59
:1045F00017A804F05FFA262103A804F093FB2368B0
:104600004BB105F08FFC694904F05DFC05F08AFCB4
:10461000039904F058FC03A91BA804F0D1FA6449DB
:104620001FA804F08EFA1FA91BA8FFF721FD1FA8E1
:1046300004F040FA1BA804F03DFA5E4B1B68ABB1D6
:10464000236873B105F06EFC5B4904F03CFC5B49E8
:104650001FA804F076FA1FA8FDF762F81FA804F05F
:1046600029FA05F083FD039904F02DFC05F05AFCAE
:10467000079904F028FC524902230C22A1F58E6010
:10468000FCF76AFA002836D0236823B105F04AFC0B
:104690004C4904F018FC4C4A4C494D4C46231268D6
:1046A00009684C4802F051FD2368EBB94A494B4870
:1046B00004F009FC04F0F9FE01461FA804F022FEF4
:1046C0001F99464804F0FFFB1FA804F0F3F9444982
:1046D0001FA804F036FA1F99404804F0F4FB1FA805
:1046E00004F0E8F90123236007993C4804F0EBFB50
:1046F000384802F023FD3B4F1FAC002601232370F6
:104700003B686370C3F30723A370374B1B68E370E8
:10471000F3B2013B092B06D8DFE803F0090D1317AC
:104720001B22272F347A4D232371304B73E0432310
:1047300023712F4B6FE0782323712E4804F076FF0E
:104740006AE0722323712C4B06E0522323712B4B1A
:1047500061E0712323712A4B186806F02FFE5BE09D
:1047600074232371FCF7C4FD56E050232371254BBD
:104770002549586806F02AFF4EE068232371FCF7AC
:1047800035FE49E073232371204BD3E9000106F085
:104790000BFD41E08000002012120908440B0020AC
:1047A0004DF30808CC0B0020CC0A0020B105090805
:1047B000C905090828020020D4050908FE050908D2
:1047C0009C06002025060908AC0A0020940B002056
:1047D000500B0020B8060020F4EF0808B0060020B7
:1047E0003A060908880000202002002070070020F7
:1047F0001802002080080020900800207009002086
:10480000F40A0020E80600200000C842E80A002060
:1048100067232371324B1868C0F307236071A371BB
:10482000C0F30743C0F30760E37120722D4801F025
:104830007EFB6072C0F30720A0722A4801F07AFB69
:10484000E072C0F307202073264801F076FB607306
:10485000C0F30720A073234801F072FBE073C0F39C
:10486000072020741F4801F06EFB80461D4801F0B0
:104870006DFB48EA000060741A4801F053FB6B7846
:104880000136E3742B780B2E23754FF02303A074AD
:10489000637504F116047FF431AF05F067FC12492B
:1048A00004F0FEFA05F062FC0368F222DB681FA93F
:1048B000984705F05BFC0D4904F0F2FA13A804F0E8
:1048C000F9F80FA804F0F6F80BA804F0F3F807A81D
:1048D00004F0F0F803A804F0EDF85CB0BDE8F08156
:1048E000E00A002038090020BC06090861F3080826
:1048F00013460A46002104F01BBC000038B51D48D1
:1049000003F04AFE054605F00DFB2A461A49FFF75B
:10491000EFFF642D16D0962D16D0B5F5FA7F16D080
:10492000B5F5617F16D0B5F5966F40F2DC5416D020
:10493000A54212D040F6B832B5F5FA6F14BF2C4636
:1049400014460CE096240AE04FF4FA7407E04FF4A2
:10495000617404E04FF4966401E04FF4FA64A1B28C
:10496000044803F051FE05F0DDFA22460349FFF743
:10497000BFFF38BDA40A00202A0809084808090812
:10498000F0B5334885B003F013FE054610F0800FF4
:104990000CBF00244FF40064470648BF04F5806450
:1049A000860648BF04F50074E80648BF04F5807425
:1049B000290748BF80346A0748BF403405F0B2FA7F
:1049C00022462449FFF794FF281DC0B2030658BFB2
:1049D000002100F0400346BF01214FF400640C4663
:1049E00003F0FF0213B104F58064012200F02005FA
:1049F00005F0FF0315B104F50074012300F0100663
:104A000006F0FF0516B104F58074012500F00807D3
:104A100007F0FF060FB18034012600F0040000F01B
:104A2000FF0710B14034012000E0384602908DE8C5
:104A30006000074803F04BFE054803F0B9FD05F0A0
:104A400071FA22460449FFF753FF05B0F0BD00BFDD
:104A5000A40A0020660809088F0809080000000061
:104A60002DE9F04F8DB0AA4904A804F06AF8A94BCB
:104A70001A689A4622B105F055FAA74904F023FABC
:104A8000A64D0021288805F0C2FC05F04BFD01224F
:104A9000492105F0F5FB0395044650B9DAF80030DA
:104AA000002B3ED005F03EFA9D4904F00CFA9C49DB
:104AB0002DE003219B4801F060F9044606F07EFCDE
:104AC000994B196806F0CEFC984906F07FFD06F078
:104AD0001FF80022964B06460F4605F0B9FE06F079
:104AE0001BFB0028B8BF404206F000F80022914BA3
:104AF00006F0F2FAB0B1DAF800309BB105F012FA24
:104B00000021CDE900678C4A04F012FB8B4908A80C
:104B100004F017F808A8FCF703FE08A803F0CAFF82
:104B200000E01C460021864800F0D1FF88B9DAF881
:104B3000003073B105F0F6F9824904F0C4F98249F6
:104B400008A803F0FEFF08A8FCF7EAFD08A803F098
:104B5000B1FF05F0E7FC0122492105F091FB002897
:104B600000F0BC800021764800F0B1FF002800F082
:104B7000B58000242546274626464FF00A08002126
:104B8000684801F0FAF801210644664801F0F5F89A
:104B900002210744634801F0F0F80321054461480D
:104BA00001F0EBF808F1FF3818F0FF080444E6D1F3
:104BB0000A2394FBF3F496FBF3F697FBF3F795FBCC
:104BC000F3F5594B2046D3F8008006F0F7FB414639
:104BD00006F048FC8146304606F0F0FB414606F000
:104BE00041FC0146484606F033FB584906F0EEFC0E
:104BF0008346384606F0E2FB414606F033FC0146A8
:104C0000484606F025FB524906F0E0FC8046FCF7DA
:104C10006FFB504906F0CEFD20B14146584606F0E4
:104C200017FB1FE0FCF764FB4B4906F0C3FD20B106
:104C30004146584606F00EFB14E0404605F068FF7A
:104C40002FA3D3E9002305F0B7FF804658468946D5
:104C500005F05EFF02460B464046494605F0FAFD68
:104C600006F0A2FA05F054FF27A3D3E9002306F0CB
:104C7000CDF806F099FA02220146804608A803F012
:104C8000FAFF08A904A803F0A6FF08A803F012FF82
:104C9000039B0121188805F0BAFBDAF800303BB31A
:104CA00005F040F92D4904F0FBF805F03BF93246D8
:104CB0002B49FFF71DFE05F035F93A462949FFF764
:104CC00017FE05F02FF92A462749FFF711FE05F0D8
:104CD00029F922462549FFF70BFE09E00025244962
:104CE00004A803F080FF4FF000082F462E46CFE7C0
:104CF00004A803F0DFFE40460DB0BDE8F08F00BF12
:104D000052B81E85EB51E83FB6F3FDD478E9D63FA3
:104D100040160908CC0A0020AD08090898000020B8
:104D2000C1080908940A0020A000002000007A446D
:104D30000000F43F0000E03FE6080908F808090811
:104D4000E001002011090908350909080000F0C236
:104D5000000016C3000070410000C841480909085E
:104D60005D0909086A090908770909088509090818
:104D7000D6EF080873B50D4D05F0D4F803681B692C
:104D80009847044680B9FFF76BFE286005F0CAF823
:104D90000646286805F0BCFE054ACDE9000121461B
:104DA000304604F0C5F9E7E702B070BD7007002097
:104DB00095090908F0B5C84C3023C84E8DB0237052
:104DC0002378782B00F0408405F0ACF8C44904F057
:104DD00067F805F0A7F80368DB69984705F0A2F8C3
:104DE00003681B6998470028F8D005F09BF8036812
:104DF0005B699847C0B2207021385928E0D801A3D8
:104E000053F820F073550808C14D080807560808E4
:104E1000C14D0808C14D0808C14D0808C14D08081A
:104E2000C14D0808C14D080839560808C14D080889
:104E3000C14D0808C14D0808C14D0808C14D0808FA
:104E40006D550808AF530808B5530808BB53080848
:104E5000A1540808BD540808E5540808015508087D
:104E60002955080867550808C14D0808C14D0808AC
:104E7000C14D0808C14D0808C14D08084156080831
:104E8000DF550808755008087B500808A750080827
:104E9000C55008083D510808595108086F510808C5
:104EA00097510808B1510808B7510808C3510808BC
:104EB000D3510808D9510808FB51080821520808A5
:104EC000315208083F520808535208088352080814
:104ED000B3520808DF5208080B5308081D5308088E
:104EE0004B530808C14D08085B530808C14D08081A
:104EF000C14D0808C14D0808C14D0808C14D08083A
:104F0000C14D08086D4F0808734F0808794F08080D
:104F10007F4F0808854F08088B4F0808914F0808F5
:104F2000974F08089D4F0808A34F0808A94F080885
:104F3000AF4F0808B54F0808BB4F0808C14F080815
:104F4000C74F0808CD4F0808DD4F0808F74F08087D
:104F50000F500808155008081B5008082150080871
:104F6000C14D08082750080843500808FDF7BAFE4D
:104F700026E7FDF735FF23E7FDF792FF20E7FEF771
:104F800015F81DE7FEF772F81AE7FEF7EBF817E7DA
:104F9000FEF746F914E7FEF7BFF911E7FEF71AFA34
:104FA0000EE7FEF793FA0BE7FEF7EEFA08E7FEF7D7
:104FB00067FB05E7FEF7C0FB02E7FEF739FCFFE6FB
:104FC000FEF794FCFCE6FEF70FFDF9E604F0AAFFFD
:104FD000444903F078FF444D012306E004F0A2FFAA
:104FE000414D424903F06FFF00232B6005F06EFA3C
:104FF000294648201CE304F095FF05463C4908A8D3
:1050000003F09FFD0899284603F05DFFCBE1FDF713
:105010006BFDD5E6FDF7B6FDD2E6FDF7A9FCCFE6C0
:10502000FDF78CFBCCE6334D2B681BB904F07AFFFF
:10503000314902E004F076FF304903F044FF0123D8
:1050400012E02C4D2B68012B08D104F06BFF2C498A
:1050500003F039FF2B48FBF7E6FC04E004F062FFA5
:10506000294903F030FF00232B6005F02FFA214976
:105070004420DDE2FFF77EFEA2E6244B1A68012AF7
:1050800005D100221A6004F04DFF214904E00122FD
:105090001A6004F047FF1F4903F015FF05F016FAE8
:1050A0001A496420C4E21C4B1A680AB9012258E06C
:1050B00004F038FF194903F006FF05F007FA164916
:1050C0006020B5E2164B1A68012A2DD100221A6021
:1050D00004F028FF13492AE06C070020E8060020AE
:1050E000A5090908AB090908CC0A0020C509090867
:1050F0003A06090814020020E0090908F309090822
:105100000D0A0908340F0020200A0908AC07002006
:105110003B0A09084F0A0908A8060020620A090884
:10512000640700208C0A090804F0FCFEAE4903F075
:10513000CAFE05F0CBF9AD49682079E2AB4B1A689D
:10514000012A03D104F0EEFEA949F0E701221A601A
:1051500004F0E8FEA749EAE7A74B1A68012A02D142
:1051600000221A60A9E704F0DDFEA449A3E7A44BDE
:105170001A68012A03D104F0D5FEA24904E00122F5
:105180001A6004F0CFFEA04903F09DFE05F09EF9E1
:105190009B496C204CE29A4B1A681AB904F0C2FE83
:1051A0009A49F1E700221A6004F0BCFE9849EBE747
:1051B000FDF734FD04E6FCF7A3FE04F0B3FE9549C9
:1051C00011E004F0AFFE944903F07DFEFCF718F8FF
:1051D000F6E5FDF751FCF3E5904D2B68012B05D169
:1051E00004F0A0FE8E4903F06EFEE9E504F09AFE9D
:1051F0008C4903F068FE01230CE0884D2B681BB935
:1052000004F090FE8849EEE704F08CFE874903F035
:105210005AFE00232B6005F059F92946782007E251
:1052200004F080FE824903F04EFEFCF74FF8C7E51C
:1052300004F078FE7F4903F046FE6B2105E004F0A0
:1052400071FE7D4903F03FFE4B210720FBF7AEFCCA
:10525000B6E57A4D2B6883B104F064FE784903F01B
:1052600032FE00232B6005F031F929467C20FBF744
:10527000A8FB744800F099FEA2E504F053FE7249C1
:10528000B1E76E4D2B6883B904F04CFE6F4903F013
:105290001AFE01232B6005F019F929467C20FBF743
:1052A00090FB684800F0A6FE8AE504F03BFE6849E2
:1052B00099E7684D2B6833B904F034FE664903F072
:1052C00002FE012305E004F02DFE644903F0FBFD1E
:1052D00000232B6005F0FAF829468020A8E1604DF4
:1052E0002B6833B904F01EFE5E4903F0ECFD012388
:1052F00005E004F017FE5C4903F0E5FD00232B6098
:1053000005F0E4F82946842092E104F00BFE5749A9
:1053100003F0D9FD4B4800F023FE51E5544D2B68B6
:10532000012B06D104F0FEFD524903F0CCFD002311
:1053300005E004F0F7FD504903F0C5FD01232B60A3
:1053400005F0C4F82946882072E101213D4800F0AB
:1053500077FE4A4BB4221A6032E504F0E3FD484977
:1053600003F0B1FD474908A802F09AFC089A4649A3
:105370004648FBF765FB08A803F09CFB414908A8D9
:1053800002F0AAFC089A42494048FBF759FB08A8DA
:1053900003F090FB3B4908A802F0BAFC089A3D498B
:1053A0003A48FBF74DFB08A803F084FB08E5FEF73D
:1053B00077FB05E5FEF7F8FB02E504F0B3FD36499F
:1053C00003F06EFD04F0AEFD0A22462103F0E9FD74
:1053D00004F0A8FD314903F063FD04F0A3FD0A22A7
:1053E0000D2103F0DEFDEBE4AD0A0908640700209F
:1053F000D10A0908F40A0908A8060020120B0908B6
:105400003C0B00203F0B0908670B09088B0B0908B0
:10541000B40B090801F30808D90B0908480B002050
:10542000F50B0908170C09083B0C09085E0C090864
:10543000830C09089E0C0908B10C09088808002093
:10544000CC0C09084C0B0020EF0C09080A0D0908C8
:105450002C0D0908E8010020460D0908610D090816
:10546000E40600207D0D09089C0D0908BB0D090804
:10547000400B0020D30D0908F70D0908AC060020E9
:105480001A0E09089C0B0020510E0908A40B0020DD
:10549000590E0908610E09086A0E090819F308086F
:1054A0006D4D2B681BB904F03DFD6C4902E004F022
:1054B00039FD6B4903F007FD01230DE0664D2B68B4
:1054C000012B03D104F02EFD664902E004F02AFD11
:1054D000654903F0F8FC00232B6004F0F7FF5E49F8
:1054E0005820A5E0614D2B681BB904F01BFD6049F5
:1054F00002E004F017FD5F4903F0E5FC01230DE035
:105500005A4D2B68012B03D104F00CFD5A4902E0DF
:1055100004F008FD594903F0D6FC00232B6004F089
:10552000D5FF52495C2083E004F0FCFC544903F0B1
:10553000B7FC544803F042F8054604F0F3FC0A2295
:10554000294603F000FD04F0EDFC4F4903F0A8FCF0
:105550004C4803F030F8054604F0E4FC0A222946E2
:1055600003F0F1FC2CE4FFF70BFA29E4FFF7C6F98E
:1055700026E404F0D7FC454903F0A5FC04F0D2FC76
:1055800003681B699847054600287FF419AC40481A
:1055900002F0B0F818B904F0C5FC3E4957E004F039
:1055A000C1FC0746B06805F0B3FACDE906017068A2
:1055B00005F0AEFACDE90401306805F0A9FACDE9AD
:1055C00002013549F06806F001F805F0A1FA334A06
:1055D000CDE900012946384603F0AAFDCEE7304D5B
:1055E0002B68012B0BD104F09DFC2E4903F06BFCC2
:1055F00000232B6004F06AFF29468C2018E0FDF799
:1056000075F9FFF7DDBB284D2B68012B05D1002371
:105610002B6004F087FC254904E001232B6004F093
:1056200081FC234903F04FFC04F050FF29469020F1
:10563000FBF7C7F9FFF7C4BBFCF75CFFFFF7C0BB84
:10564000FEF736FBFFF7BCBB04F06CFC194903F016
:105650003AFC0DB0F0BD00BF8C0A0020780E09089E
:10566000870E09089D0E0908AD0E0908540B00208D
:10567000C40E0908D20E0908E70E0908F70E09083A
:105680000E0F0908A40A0020160F0908260F0908A2
:10569000E8060020610F09080000C842770F0908DA
:1056A00098080020A80F090810020020CA0F090856
:1056B000E80F0908301009081FB56E4C00226E4B28
:1056C000D4E9000105F0C6F8C4E90001FFF7C8F904
:1056D0006A4B1860FBF7D4FE694B1860FCF7EAF9D7
:1056E000FCF76EF803F0E1FE664B1860664B1A6833
:1056F000664B1A60FEF726FD04F014FC03681B6974
:10570000984700281DDD04F00DFC0368604C5B69C0
:105710009847604B20701B684BB104F003FC5E4956
:1057200003F0BEFB04F0FEFB217803F0D6FB04F08F
:10573000F9FB217803F0D1FB23786D2B01D1FFF722
:1057400039FB564B1B686BB1554A138843F0010374
:10575000138002F047FE002838D1524B1A78002AF5
:1057600034D143E002F03EFEA0B14A4B1B6873B156
:1057700004F0D8FB4C4903F0A6FB4B49684603F004
:10578000E0F96846FBF7CCFF684603F093F9474819
:10579000FBF749F9464C204600F048FA454B1B6898
:1057A000012B64D1444803F041FF444905F0F8FF60
:1057B00000285CD094F82130002B58D104F0B2FBC3
:1057C0003F4903F080FBFCF73FFB50E002F00AFE8C
:1057D0000028DFD02F4B1B6823B104F0A3FB39490D
:1057E00003F071FB2F4B00221A70D3E7294C0122E2
:1057F0001A70236873B104F095FB334903F063FB1F
:105800003149684603F09DF96846FBF789FF684611
:1058100003F050F9254800231A461946406802F063
:1058200091FD236873B104F07DFB284903F04BFB25
:105830002749684603F085F96846FBF771FF68461B
:1058400003F038F902F0C6FD2368002BA2D004F063
:1058500069FB204903F037FB1E49684603F071F9E4
:105860006846FBF75DFF684603F024F992E704B051
:1058700010BD00BFD80A00200000F03F70070020D4
:10588000A00A0020C00A0020D4000020D00B002075
:105890006C070020CC0A00204710090814020020E1
:1058A000440B0020D00A0020D6100908340F002035
:1058B00074070020480B0020800800200000A04151
:1058C000FA100908AE1009085610090875100908E1
:1058D0008610090897100908F8B55A4B5A4C5B4DC9
:1058E00001261E7002F0DAFA204602F095F82A46E8
:1058F0005749204604F056FE4FF6FF72554B0024E0
:105900001C705C809A80032002F0A8FC214630467F
:1059100002F0B4FC4FF0FF314F4801F0D5FE4F4884
:1059200000F01DFB4E4800F0D1F84E4800F0CEF8D4
:105930004D4E49214D4800F010FA4A214C4800F0E4
:105940000CFA2146304603F031FE3046494E2A46D5
:10595000494904F027FE2146304602F0D2FD304688
:10596000464E2A46464904F01DFE304600F03EF9F8
:105970002A464449304604F015FE2721424801F0EA
:105980003DFF424B192283F86A24414A41481A607C
:10599000414E424A424FDC7183F8404483F841440F
:1059A00083F8684483F86D44C3F8702483F8744422
:1059B0002A463146047244724460076004F0F2FDE6
:1059C00038482A463146047244724460076004F045
:1059D000E9FD35484FF47A73344E354F8360354BCB
:1059E0002A4604744474446033490360334C04F021
:1059F000D9FD3146384603F0A4F83846304F2A46E0
:105A0000214604F0CFFD3146384603F09AF8384677
:105A10002C4F2A46214604F0C5FD3146384603F096
:105A200090F83846284F2A46214604F0BBFD3146FF
:105A3000384603F086F82A4621463846BDE8F84045
:105A400004F0B0BDE0060020F80A0020C8010020E4
:105A5000D1790808C40A0020E80600204C0B002079
:105A6000E0010020E101002080080020940A0020CD
:105A70009A0A0020A40A0020CB9508087407002089
:105A800021850808C15B08089C0800202C02002022
:105A900038EE0808B006002033090808A4110908E8
:105AA00020EE0808580B002038080020401609088E
:105AB000AC0A0020F8ED080835090808B58A08087E
:105AC0009807002000020020CC010020704710B58C
:105AD0000C4604F027FD482104F0E0FB04F022FD11
