:020000040808EA
:1000000000000808A03B0908000006000A000501DE
:0800100004027E05000000005F
:0400180014070908B8
:1000200009480A4908B5884205D0094A824202D0E7
:10003000121A0DF018FC0748074A0021121A0DF099
:100040001DFC064808BD00BF00000020AC390908AF
:10005000CC010020D0010020F8120020F81200206E
:1000600070B50AF013FF074B074C1E46E41AA408AC
:100070000025A54204D056F8253098470135F8E709
:1000800070BD00BFB43809089439090802F0CEB831
:1000900008B506F069FABDE808400AF0B9BE09F0F3
:1000A00053BC09F059BC0078B0FA80F040097047A1
:1000B00001230370704748B1836C3BB1C36C2BB113
:1000C000006DB0FA80F04009404270474FF0FF30B9
:1000D000704773B5024608460C46FFF7ECFF05462D
:1000E00050BB12F0800FCA7814BF002310239A422D
:1000F00022D0CB708E6C01230DF10702F3216078C2
:10010000B04784F8540010B16FF0010514E0E378B3
:10011000E66C03F010029DF80730732123F0100302
:1001200013438DF807300DF1070201236078B047C3
:1001300084F854000028E7D1284602B070BD73B59A
:100140000446FFF7B8FF054688B9A66C01230DF1F8
:100150000702F3216078B04784F8540028B99DF86D
:10016000073003F01003E37001E06FF0010528464B
:1001700002B070BD40B103788B4208D9017013788A
:1001800043F00203137002E04FF0FF30704700208D
:1001900070472DE9F84306461846884691461D46A5
:1001A000FFF789FF0446A8B9AB783BB9294630462A
:1001B000FFF78FFF044608B946F08006AF6C4B4648
:1001C000424631466878B847002885F8540018BF81
:1001D0006FF001042046BDE8F8832DE9F04F1E467C
:1001E0008BB083468A4614460021282268460DF0CB
:1001F00045FB3046FFF75FFF0546A8BB631E122B89
:1002000030D80DF101085F46C1460AF1FF3AA4B2A9
:10021000CBEB07039BB29C4213D9B37843B9314669
:100220003878FFF756FF3B78054603F07F0300E080
:100230003B7808F8013C1AF8013F013708F8023B07
:10024000E6E78DB96300013BF46C9BB24A469DF82A
:1002500000107078A047002886F8540018BF6FF08F
:10026000010501E06FF0030528460BB0BDE8F08FF3
:1002700037B5E0238DF80630B62305468DF80730F4
:10028000FFF719FF0446D8B9AB786BB12B460122B2
:100290000DF107010DF10600FFF79FFF04462B6DDE
:1002A0000A20984734B10BE02846FFF748FF044680
:1002B00030B9EBE7AB781BB92846FFF740FF04469F
:1002C000204603B030BD30B58DB00446FFF7F3FED5
:1002D0000546002840F0D5802046FFF7C9FF0546B7
:1002E000002840F0CE80234601222146D020FFF78F
:1002F00050FF0546002840F0C4802378612B40F071
:10030000BE800146292201A80DF0B8FA20468DF8DA
:100310000350FFF7D0FE0546002840F0B280234688
:10032000192201A98920FFF734FF054638B9234671
:1003300010220DF11D01E120FFF72BFF05469DF86E
:1003400026209DF8253043EA0223E3829DF806200B
:100350009DF8053043EA022323839DF807309DF87A
:100360000A20A3769DF8093043EA0223A3839DF86F
:100370000C209DF80B3043EA0223E3839DF80D30F7
:100380009DF8102084F820309DF80F3043EA0223B6
:1003900063849DF812209DF8113043EA0223A38460
:1003A0009DF814309DF8182084F826309DF81330FD
:1003B00084F827309DF8173043EA022323859DF8FF
:1003C0001A209DF8193043EA022363859DF81B30FB
:1003D0009DF81F1084F82C309DF81E3003F00F029A
:1003E00042EA011222819DF81D201B0943EA0213F3
:1003F00063819DF820309DF8282023739DF82130DB
:1004000063739DF82230A3739DF82330E3739DF846
:10041000243023749DF8293063749DF8273043EA13
:10042000022363829DF82A30237515BB23460122DF
:100430000DF103010220FFF7ACFE9DF803300546E5
:10044000C3F3011384F8343098B9234601220DF127
:100450000301FFF79EFE9DF80330054684F8353012
:1004600038B9234601220DF103010420FFF791FE64
:1004700005469DF903301B1184F8363001E06FF01A
:10048000020528460DB030BD37B5742304468DF8FB
:100490000730FFF710FEA0BB0546234601220DF1F1
:1004A00006017420FFF775FEA0B99DF8063013F021
:1004B000030511D023F003038DF8063001222346F3
:1004C0000DF106010DF10700FFF787FE236D0A20ED
:1004D0009847E2E7002DE0D194F844308BB19DF8C5
:1004E000062003F0030322F0030213438DF80630C5
:1004F00038B9234601220DF106010DF10700FFF77F
:100500006CFE03B030BD2DE9F041002388B00646F3
:1005100008460C468DF807300493ADF81430069366
:10052000ADF81C30FFF7C7FD002840F064813207AA
:1005300091F844706AD5012FADF80800ADF80C00B1
:1005400063D15A238DF80830B1F84030C72B05D954
:10055000B3F5C87F28BF4FF4C87300E0C823B4F9CF
:100560001220142102F5163202F29912534393FB22
:10057000F1F30A2103F5481393FBF1F394F91120E9
:1005800094F9140002F544725A4394F90430584324
:100590004FF47A7390FBF3F31B0203EB620194F8C0
:1005A0003430043391FBF3F294F9351083234B4339
:1005B00003F5803392FBF3F32222FA3B5343642288
:1005C000323393FBF2F38DF80C30B4F842308DF8EF
:1005D0000920B3F57C6F0BD200223F2BD1B202F180
:1005E000010201D99B08F8E703EB8113DBB200E0BD
:1005F000FF238DF80D30002384F83C30022223467F
:1006000003A902A8FFF7E9FD00E00120002384F818
:10061000443010B92046FFF737FF06F01005ADB2A1
:1006200005B304F14602072104F13B00FFF7A2FDE8
:1006300030B9234601220DF107017520FFF7A9FD0E
:1006400094F83B3001259B0003F01C029DF8073015
:1006500023F01C03134375228DF807308DF810200A
:100660008DF81830B30622D504F14602082104F1B2
:100670003D00FFF77FFD30B9234601220DF1070150
:100680007020FFF786FD9DF80730702123F00802E7
:1006900094F83D3003F00803134308AA2A440135B7
:1006A0008DF8073002F8101C02F8083CEDB2B107D3
:1006B00033D004F14602052104F13900FFF75AFD59
:1006C00030B9234601220DF107017420FFF761FDC7
:1006D000F20709D59DF8073094F8392003F01F037D
:1006E00043EA42138DF80730B3070BD594F83A303C
:1006F0009B0003F01C029DF8073023F01C031343FA
:100700008DF8073008AB2B44742203F8102C9DF8A9
:100710000720013503F8082CEDB2710722D504F14A
:100720004602052104F13800FFF724FD30B92346C5
:1007300001220DF107017220FFF72BFD9DF8073014
:10074000722123F0070294F8383003F007031343B3
:1007500008AA2A4401358DF8073002F8101C02F867
:10076000083CEDB216F0C00F3CD004F146084246FA
:10077000012104F13E00FFF7FDFC68B942460A2161
:1007800004F13C00FFF7F6FC30B9234601220DF1DD
:1007900007017120FFF7FDFC72060BD594F83E307F
:1007A0001B0103F010029DF8073023F010031343E0
:1007B0008DF8073033060AD59DF8073023F00F0275
:1007C00094F83C3003F00F0313438DF8073008AB67
:1007D0002B44712203F8102C9DF80720013503F8F3
:1007E000082CEDB228B923462A4606A904A8FFF72B
:1007F000F4FC84F8447008B0BDE8F08113B5184BE0
:10080000044618689B8802AAADF8043091F8393084
:100810000090134491F83A2002A8024412F8082CE0
:1008200013F8083C134491F83820024412F8082CBD
:10083000134440F2AB72534303F595534FF47A726D
:100840001933B3FBF2F301339BB2238091F83E20BE
:100850001AB1B1F842201344238002B010BD00BF8A
:10086000280709082DE9F04F804689B008460C4654
:10087000FFF721FC0546002840F0678104AF0146E0
:100880000F2238460CF0FAFF2046FFF714FC05460D
:100890000A26002D40F0538123460F2239461D20A1
:1008A000FFF777FC05469DF810009DF81EE000F06C
:1008B0000F0388F801309DF8113020F07F0088F890
:1008C00002309DF812309DF8139000939DF8183077
:1008D0009DF814C001939DF819309DF815B002934E
:1008E0009DF81D309DF8161003934FFA8EF303F018
:1008F000200A40EA0A0003F01003184340B200281F
:100900009DF8172088F8000080F21681120942EA4B
:10091000011141EA0B3BE18AB4F918004900C1EB2F
:10092000DB010A46CB175B104FEA320202FB03F6EB
:10093000A2FB02234FEA123A94F91A2003EB460372
:100940004AEA035A4FEA233B1301DF170AFB07F673
:1009500080FB010103FB0B66AAFB0323C00A33449F
:10096000920B40EA415042EA83428318236303EB2F
:10097000830380331B12A8F80430236B94F92600FC
:100980005B10A3F57A439A105243D1124843B4F94D
:10099000241052135943490001EBA001B4F91E0081
:1009A0004FEA1C1C434394F920004CEA091940010A
:1009B0004243D21002EB63039B14A28B03F5004366
:1009C0005343009ADB1349EA0239B4F92220C9F5EE
:1009D0008019120402EBA10140F63542A9EB213146
:1009E0005143B1FBF3F35B00D9104943B4F92A201A
:1009F000B4F9280049134A43991041431E12491380
:100A000001EB223106FB06F2564394F82C20724388
:100A100001EB624294F9271002EBC11203EB22139F
:100A2000C8F80830236B94F90E1003EB830380336E
:100A30001B125943642291FBF2F194F90D005943C2
:100A40005843891190FBF2F091FBF2F16789014460
:100A500001F58041794301988F120299268941EA74
:100A6000002094F90C10A0EB0616594391FBF2F10B
:100A7000A6EB610000FB07F194F910000EF00F06E1
:100A8000434393FBF2F240F23C50E37B4FEA9E1E5D
:100A900002EBC3128B135B4312119B12534301EB06
:100AA00063034FF47A729B1253432A4A1B1323EABF
:100AB000E3739342D4BFC8F80C30C8F80C2094F903
:100AC000363005220021C3FB0201234B53F8267068
:100AD000A0FB072307FB0133100C40EA0340191465
:100AE000039B1E4F4EEA830E4FEACE3257F826E0A4
:100AF00012F17F42AEFB00670EFB01774FF000035F
:100B000043F1FF3312184B41700A40EAC750791283
:100B10005F104FEA3206801979410CF02FFBC8F8BC
:100B2000100095B998F90030002BBABF012384F862
:100B3000453084F8455008E0236D0A209847013E6F
:100B400016F0FF067FF4A5AE0225284609B0BDE8E1
:100B5000F08F00BFA08601000000002040000020B0
:100B60007047037C024603F0080303F0FF002BB13B
:100B7000D36A506A181A48BF6FF000407047704738
:100B8000704710B504462C210BF0B1F9204610BD7A
:100B900010B5044634210BF0AAF9204610BD07B564
:100BA00001220DF10701103007F0B9F901280CBF3F
:100BB0009DF807004FF0FF3003B05DF804FB1030E4
:100BC00007F032BB103007F05EBA103007F0B8BB48
:100BD000083007F0B5BB07B502AB03F8011D0122D1
:100BE0001946103007F0ACFB03B05DF804FB00F2CF
:100BF000644007F05CB800F2644006F090BF00F279
:100C0000644006F0CFBF00F2644006F040BF10B56C
:100C10000C46042208F08AFC204610BD13B50023C0
:100C2000ADF8063009F014FC902804460AD80BF001
:100C3000EDF8204602220DF1060108F06FFCBDF828
:100C4000060001E04FF0FF3002B010BD10B50C46B9
:100C5000042208F063FC204610BD07B502AB03F880
:100C6000011D01221946083007F06AFB03B05DF848
:100C700004FB00231A461946406808F005BE10B56B
:100C8000044614210BF033F9204610BD38B5054653
:100C900008460C460DF072FB214602462846BDE888
:100CA00038400AF0EFBF8A6809680AF0FABF0EB44C
:100CB00000B58CB00DAA52F8041B20238DE8060065
:100CC000039204930168002304AA1E20059308F0F0
:100CD00045FD0CB05DF804EB03B0704710B50C4C4B
:100CE0002368DB0711D42046FFF7DDF968B1094A14
:100CF0000321094B09480AF0D3FD2046FFF7D8F934
:100D0000074A084905480BF0EDF8044810BD00BF3C
:100D10002C0A0020A4090020340A0020A408002086
:100D2000D0010020610B080810B5FFF7D7FF074B73
:100D3000044653B10AF0D1FD38B1236820461B693F
:100D40009847002801DDAFF3008010BD00000000CF
:100D500010B50C4C2368DB0711D42046FFF7A3F92C
:100D600068B1094A0421094B09480AF099FD204657
:100D7000FFF79EF9074A084905480BF0B3F8044805
:100D800010BD00BFEC010020EC070020E0080020AF
:100D9000F8010020D0010020610B080810B5FFF712
:100DA000D7FF074B044653B10AF097FD38B12368CB
:100DB00020461B699847002801DDAFF3008010BD75
:100DC0000000000038B5044600F2644006F0CBFD98
:100DD000E8B104F58865284607F05CFA0121204651
:100DE00007F096FC014668B12146284607F07FF8D7
:100DF00068B194F8403413F0700316BF054B1846E1
:100E00001D6038BD204607F083FC0028ECD100208F
:100E100038BD00BFC40B002038B50C4605460BF0AA
:100E200041F86B210AF0F4FD0BF03CF80368294609
:100E30009B6898470BF036F8036821469B689847F3
:100E40000BF030F8BDE8384001210AF0E4BD0000A5
:100E500073B50AF0DBFF40F2136302AC44F8043DC3
:100E6000214600206426FFF7D2FE0AF0CFFF21467C
:100E700008200196FFF7CBFE0AF0C8FF214610209C
:100E80000196FFF7C4FE0AF0C1FF21461820019623
:100E9000FFF7BDFE0AF0BAFF214620200196FFF7BA
:100EA000B6FE0AF0B3FF214628200196FFF7AFFEF9
:100EB0000AF0ACFF214630200196FFF7A8FE0AF0A9
:100EC000A5FF214638200196FFF7A1FE0AF09EFFFC
:100ED0002146402000250196FFF799FE0AF096FF73
:100EE000214604200195FFF792FE0AF08FFF21466C
:100EF0000C200195FFF78BFE0AF088FF2146142095
:100F00000195FFF784FE0AF081FF21461C20019520
:100F1000FFF77DFE0AF07AFF214624200195FFF7B6
:100F200076FE0AF073FF21462C200195FFF76FFE35
:100F30000AF06CFF214634200195FFF768FE0AF0A5
:100F400065FF21463C200195FFF761FE0AF05EFF38
:100F5000214644200195FFF75AFE0AF057FF21462B
:100F600048200195FFF753FE0AF050FF2146582014
:100F70000195FFF74CFE0AF049FF41495C20FFF75D
:100F800046FE0AF043FF4FF47A7321464C2001934A
:100F9000FFF73DFE0AF03AFF42F21073214650205F
:100FA0000193FFF734FE0AF031FF21466FF006038C
:100FB00054200193FFF72BFE324B18680BF09EFE76
:100FC00009F00AFD0AF022FF214660200195FFF793
:100FD0001EFE0AF01BFF2146304601950126FFF751
:100FE00016FE0AF013FF214668200196FFF70FFE58
:100FF0000AF00CFF21466C200195FFF708FE0AF06D
:1010000005FF214670200195FFF701FE0AF0FEFE64
:10101000214674200196FFF7FAFD0AF0F7FE2146FB
:1010200078200196FFF7F3FD0AF0F0FE21467C20C0
:101030000195FFF7ECFD0AF0E9FE214680200196BC
:10104000FFF7E5FD0AF0E2FE214684200195FFF757
:10105000DEFD0AF0DBFE214688200195FFF7D7FD73
:101060000AF0D4FE21468C200195FFF7D0FD0AF04E
:10107000CDFE214690200195FFF7C9FD02B070BD5D
:10108000840B0020B40B00202DE9F743B74C0AF085
:10109000BDFE21460020FFF7D9FD2368013304D1AE
:1010A00040F213632360FFF7D3FE0AF0AFFE01A9FD
:1010B0000820FFF7CBFD01980BF020FEAC490BF0A8
:1010C00025FFDFF83483AB4FC8F800000AF09EFE1E
:1010D00001A91020FFF7BAFD01980BF00FFEA449FB
:1010E0000BF014FF38600AF091FE01A91820FFF7F9
:1010F000ADFD01980BF002FE9D490BF007FF9E4EDF
:101100009E4D30600AF082FE01A92020FFF79EFD6F
:1011100001980BF0F3FD96490BF0F8FE28600AF0F9
:1011200075FE01A92820FFF791FD01980BF0E6FD5F
:101130008F490BF0EBFE924CDFF8C09220600AF072
:1011400065FE01A93020FFF781FD01980BF0D6FD67
:1011500087490BF0DBFE8B4B18600AF057FE01A9A4
:101160003820FFF773FD01980BF0C8FD80490BF0A4
:10117000CDFE854B18600AF049FE01A94020FFF71B
:1011800065FD01980BF0BAFD79490BF0BFFE7F4B6E
:1011900018600AF03BFE7E490420FFF757FD0AF075
:1011A00035FE7C490C20FFF751FD0AF02FFE7A49ED
:1011B0001420FFF74BFD0AF029FE78491C20FFF7A9
:1011C00045FD0AF023FE76492420FFF73FFD0AF093
:1011D0001DFE74492C20FFF739FD0AF017FE7249F5
:1011E0003420FFF733FD0AF011FE70493C20FFF771
:1011F0002DFD0AF00BFE6E494420FFF727FD0AF093
:1012000005FE6C494820FFF721FD0AF0FFFD6A4901
:101210005820FFF71BFD0AF0F9FD68495C20FFF735
:1012200015FD0AF0F3FD66494C20FFF70FFD0AF0AB
:10123000EDFD64495020FFF709FD0AF0E7FD01A923
:101240005420FFF703FD01980BF058FD09F0C4FB93
:101250000AF0DCFD5C496020FFF7F8FC0AF0D6FDDF
:101260005A496420FFF7F2FC0AF0D0FD5849682083
:10127000FFF7ECFC0AF0CAFD56496C20FFF7E6FCCC
:101280000AF0C4FD54497020FFF7E0FC0AF0BEFDEF
:1012900052497420FFF7DAFC0AF0B8FD5049782073
:1012A000FFF7D4FC0AF0B2FD4E497C20FFF7CEFCDC
:1012B0000AF0ACFD4C498020FFF7C8FC0AF0A6FDFF
:1012C0004A498420FFF7C2FC0AF0A0FD4849882063
:1012D000FFF7BCFC0AF09AFD49468C20FFF7B6FCEC
:1012E0000AF094FD43499020FFF7B0FCD9F8003094
:1012F00013B1002009F070FB41F28731374AD8F86A
:1013000000001368013B8B4284BF0123136000215E
:101310000BF0DCFE18B1384B4FF07E521A60002102
:1013200038680BF0D3FE18B1124B4FF07E521A60A2
:10133000002130680BF0CAFE18B10F4B4FF07E52FF
:101340001A60002128680BF0C1FE18B10B4B4FF05A
:101350007E521A60002120680BF0B8FE18B1084BCD
:101360004FF07E521A6003B0BDE8F0838800002081
:101370000000C842E801002030020020DC07002005
:10138000180B0020E4070020F0010020EC060020EC
:1013900034020020E8070020CC0A00207C0700204F
:1013A000000B0020D80A0020300A0020700700201F
:1013B00024020020F80A0020B80A0020840B002034
:1013C000900000208C000020B8060020E0070020DC
:1013D00078070020640B0020B4060020EC0A0020EF
:1013E000780B0020C0080020F4010020F406002043
:1013F000700B00201C020020BC0A0020D008002036
:1014000010B50AF01FF903681B69984790B9FFF7F8
:101410009FFC03681B6998470028F2DDFFF798FCE2
:1014200003685B69984704460AF00CF9E1B209F0D9
:1014300061F8E6E710BD0000F7B506460D4600244A
:101440004F1EAC4212D0325D0B4901A808F094FA4D
:101450000AF0F8F801A909F049F8A74204D00AF007
:10146000F1F8202109F046F80134EAE70AF0EAF839
:1014700009F043F803B0F0BD98080908F8B5044630
:101480000F464E1E451E0644B54207D0FFF760FCCE
:10149000036815F8011F9B689847F5E73946204611
:1014A000BDE8F840FFF7C8BF1FB5074A01AB52F8C7
:1014B0000E0F5168128903C30A2101A81A80FFF791
:1014C000DDFF05B05DF804FB880709081FB5074A72
:1014D00001AB52F8180F5168128903C30A2101A801
:1014E0001A80FFF7CBFF05B05DF804FB88070908F9
:1014F00038B5314B314D1B68B3B1314B58890BF0C6
:10150000F9FB30490BF002FD2F490BF04BFC2F4942
:101510000BF03EFB2B680446002B35D00AF092F806
:101520002B4908F0F6FF2FE02A4B1B681BB32B68F2
:1015300023B10AF087F8284908F0EBFF0B200AF0E6
:1015400020FC0BF0DBFB0AF083FF17A3D3E9002399
:101550000AF0D2FF0BF0C8FA4FF07C510BF018FBE9
:101560000AF076FF12A3D3E900230BF0EFF80BF09B
:10157000BBFA044608E02B6823B10AF063F8174968
:1015800008F0C7FF164B1C68164B204619680BF075
:1015900009FC0446144B18680BF0B0FB21460BF015
:1015A000F9FA38BDAFF300802D431CEBE2364A3F19
:1015B0007B14AE47E17A843FF4010020F80A002052
:1015C000D408002000F87F46000025430000204298
:1015D0009D08090878070020BE080908DD080908E9
:1015E000F8060020E4070020D80A002038B5194B7F
:1015F000194D1B6883B1194B18890BF07BFB1849F7
:101600000BF084FC17490BF0CDFB2B68044663B14B
:101610000AF018F8144906E0144B9C682B6823B1B3
:101620000AF010F8124908F074FF124B20461968AE
:101630000BF0B8FB0446104B18680BF05FFB21461B
:101640000BF0A8FA074904460BF068FD00B1054C01
:10165000204638BDF4010020F80A0020D4080020FC
:1016600000F87F460000C84209090908F806002072
:1016700027090908EC0600207007002038B5144B34
:101680001B681BB10121134805F08AFC114805F0C5
:1016900059FC0BF033FB104C0021206005460BF089
:1016A00015FD0E4B10B11B68236000E01D600C4B54
:1016B000206819680BF076FB0A4B054618680BF09A
:1016C0001DFB014628460BF065FA206038BD00BFBF
:1016D000F80A00207C0B002028020020D00A0020FD
:1016E000BC0A0020340200202DE9F04F8BB0944951
:1016F00002A808F004FD934B1A689B4622B109F03A
:10170000A1FF914908F005FF904C002120880AF0C4
:101710000CFB0AF0A7FB01224A210AF06BF92746CD
:1017200028B909F08FFF8A4908F0F3FE2EE0032163
:10173000884805F0A2FA0BF0E1FA874B19680BF024
:1017400031FB864982460BF0E1FB0AF081FE002264
:10175000834B804689460AF01BFD0BF07DF900287B
:10176000B8BF40420AF062FE00227E4B0BF054F9F3
:1017700060B109F067FF7C4908F0B8FE09F062FF2C
:101780000223009342464B4608F0EAFF00217748C7
:1017900005F01DF938B9DBF8003023B109F052FF2C
:1017A000734908F0B6FE0AF05DFB01224A210AF0F7
:1017B00021F9002800F0AC8000216C4805F007F901
:1017C000002800F0A580654950460BF09FFB0AF009
:1017D0003FFE0022624B0AF0DBFC0BF03DF90028D3
:1017E000B8BF40420AF022FE00225E4B0BF014F913
:1017F000002840F08D800446804681460A2500215D
:10180000544805F03AFA01218144524805F035FA6E
:10181000022180444F4805F030FA03214D4805F07D
:101820002CFA013D0444EAD14B4B0A25D3F800A021
:1018300094FBF5F00BF062FA51460BF0B3FA044654
:1018400099FBF5F00BF05AFA51460BF0ABFA014652
:1018500020460BF09DF947490BF058FB814698FB59
:10186000F5F00BF04BFA51460BF09CFA014620467E
:101870000BF08EF940490BF049FB0446FFF738FEA8
:101880003E490BF037FC20B1214648460BF080F969
:1018900025E0FFF72DFE3A490BF02CFC20B1214644
:1018A00048460BF077F91AE0FFF722FE34490BF0B7
:1018B00035FCA8B120460AF0CBFD1DA3D3E90023D7
:1018C0000AF01AFE044648460D460AF0C1FD0246DB
:1018D0000B46204629460AF05DFC0BF005F906464A
:1018E00030460AF0B5FD14A3D3E900230AF02EFF19
:1018F0000BF0FAF802220146054606A808F099FC0A
:1019000006A902A808F045FC06A808F0B1FB03E010
:101910001C4902A808F045FC012138880AF005FAA4
:1019200002A808F0A5FB28460BB0BDE8F08F00BF69
:1019300052B81E85EB51E83FB6F3FDD478E9D63FA7
:10194000DC2F0908F80A002087090908D0000020C8
:101950009D090908C60A0020A400002000007A445E
:101960000000F43F0000E03FC20909082C020020FB
:10197000D20909080000F0C2000016C3000070413F
:101980000000C841F909090830B51E4985B005466F
:1019900002230C22A1F58E60FFF714FA50B309F070
:1019A00051FE194908F0B5FD184A1949194C46234A
:1019B00012680968184806F074FC236893B917493F
:1019C000174808F0A6FD09F000F90146684609F03D
:1019D00029F80099124808F09CFD684608F048FB79
:1019E0000123236029680E4808F093FD0A4806F099
:1019F00051FC04E009F026FE0A4908F08AFD05B012
:101A000030BD00BFAC060020FD090908AC0700206E
:101A1000C40B0020CC080020900B0020170A0908F6
:101A2000880B00202E0A0908F0B58DB0934968464E
:101A300008F065FBFFF78CF90D22014608A808F0B5
:101A400059FF08A9684608F0A4FB08A808F010FB95
:101A500007230422694604A808F0D2FC884904A898
:101A600008F0A2FC0546A8B98449684608F09CFC29
:101A700098B109F0E7FD834908F04BFD814908A8BA
:101A800008F03DFB08A8FFF77FFF08A808F0F0FA70
:101A9000012404E00024012501E00446054604A8D1
:101AA00008F0E6FA15B9002CC4D0E2E0764E012425
:101AB00037460025029B611E994280F0DA80684615
:101AC00008F08DFC2C2840F0D280E5B9214668460C
:101AD00008F085FC2C2800F0C98004F10A03224696
:101AE000694608A808F08CFC684B1B684BB109F0EC
:101AF000A9FD674908F0FAFC09F0A4FD089908F06F
:101B000008FD08A8B0E0012D2FD12146684608F055
:101B100066FC2C2800F0AA8004F1090322466946DD
:101B200004A808F06DFC594B1B684BB109F08AFD05
:101B3000584908F0DBFC09F085FD049908F0D6FC53
:101B400004A908A808F01AFB04F10B01684608F084
:101B500046FC08A90246504805F0BAF808A808F063
:101B600087FA338823F0080369E0032D28D1214642
:101B7000684608F034FC2C2878D004F10A03224689
:101B8000694604A808F03CFC404B1B684BB109F0C7
:101B900059FD424908F0AAFC09F054FD049908F0E7
:101BA000A5FC04A908A808F0E9FA04F10C016846AC
:101BB00008F015FC08A90246374805F0CFF815E0F3
:101BC000062D17D12146684608F009FC2C284DD077
:101BD000A31C2246694604A808F012FC04A908A820
:101BE00008F0CCFA08A92C4805F0FEF808A808F07F
:101BF0003FFA38E0072D39D12146684608F0EFFB5F
:101C00002C2833D0A31C2246694604A808F0F8FB10
:101C100004A908A808F0B2FA08A91F4805F0ECF8D2
:101C200008A808F025FA33881B4823F00C033380FA
:101C300005F0F8F8012804DC338843F00C03338006
:101C400011E0154805F0EEF8042803DC3B8843F06A
:101C5000080307E0104805F0E5F8132803DC3B888B
:101C600043F004033B8004A808F002FA0135013474
:101C700020E7684608F0FCF90DB0F0BD4A0A0908F3
:101C80004F0A0908530A0908740B0020F80A0020BB
:101C9000650A0908760A090868090020880A0908FF
:101CA00010B590B01D4908A808F029FA1C4904A8ED
:101CB00008F064FA04A908A808F044FB194908F0E0
:101CC0004DFB044618490CA808F058FA0CA9204608
:101CD00008F038FB154908F041FB0146684608F05A
:101CE0004DFA0CA808F0C4F904A808F0C1F908A836
:101CF00008F0BEF909F0A6FC0D4908F00AFC09F04D
:101D0000EFFD009908F005FC09F09CFC094908F07A
:101D100000FC684608F0ACF910B010BD170B0908BC
:101D20000C020020AE2B0908D8010020B20A0908D5
:101D30001A0B09083E0B0908024630B500238D1E18
:101D4000141AA54203DD12F8014B2344F8E70144BD
:101D500011F8020C11F8012C423302EB0020C31AD7
:101D60005842584130BD08B54279807900EB0220D5
:101D70000AF0C4FF08BD000010B5FEF7AFFF1A4916
:101D800008F08BFD10B3194CFEF7A8FF1F22214667
:101D900008F086FD23784D2B24D11F212046FFF724
:101DA000CBFFF8B1E2782379204603EB0223104AF7
:101DB0001360FFF7D8FF0BF0BBF90E4BE279186008
:101DC000237A03EB02230C4A136010BDFEF786FF53
:101DD00003681B69984728B1FEF780FF03685B69B9
:101DE0009847F3E710BD00BF1E2D0908BC0700206F
:101DF000C8080020280A00201C0B0020000000005A
:101E00002DE9F047BEB009F01DFC03681B69984737
:101E1000002840F0F580804806F08EFE20B909F0D9
:101E200011FC7E4908F075FBFFF7A6FFFFF7FCFDEC
:101E30007B4805F087F87B4B054618680AF05EFF83
:101E4000044628460AF05AFF014620460AF0A2FE40
:101E5000754B764C19680AF0A5FF6F4B20607449EA
:101E6000054658680BF052F8714906460BF056F9D2
:101E7000A04660B16F4930460BF032F938B16E4977
:101E800030460BF043F829460AF08CFF2060FFF73C
:101E9000ADFB0446FFF7AAFB6549064620460BF05A
:101EA00035F80AF0D5FA58A3D3E900230AF024FB49
:101EB00004460D4630465E490BF028F801464FF0C7
:101EC0007E500AF065FE0AF0C3FA02460B46204631
:101ED00029460AF03BFC4EA3D3E900230AF05AF945
:101EE0000AF002FE0446554B554E1860554BDFF87C
:101EF0005C9118680AF002FF21460AF053FF0DF1C9
:101F0000050430600025012304F8013C4E4B4F4F7F
:101F10001B682370C3F307236370D9F80030A370E4
:101F20002DB97823E3704A4808F010FF18E0012D1E
:101F300003D17223E370474B0AE0022D03D15223F1
:101F4000E37030680CE0032D06D17123E370424B3F
:101F500018680AF0D3FE03E04323D8F80000E370CA
:101F6000C0F3072320716371C0F30743C0F3076018
:101F7000A371E071394804F05AFF2072C0F30720C2
:101F80006072364804F056FFA072C0F30720E0727A
:101F9000324804F052FF2073C0F3072060732F48CB
:101FA00004F04EFFA073C0F30720E0732B4804F049
:101FB0004AFF8246294804F049FF4AEA000020749B
:101FC000264804F02FFF01352323052D6074A374E8
:101FD00004F1160497D109F083FC214908F086FA30
:101FE00009F07EFC03686E22DB6801A9984709F0BE
:101FF00077FC1C4908F07AFA3B6801333B6002E742
:102000003EB0BDE8F08700BF105839B4C876BE3F77
:102010000AD7A3703D0AF33FF8060020470B0908D2
:102020007C0B002034020020BC0A00202802002083
:102030000000C8420080BB4400507D446409002079
:10204000A0090020280A0020880000207407002032
:10205000B8080020C80800201C0B002068090020D8
:102060005D0B0908B20A090800B51E4B89B0188833
:10207000002109F05AFE1C4B0021188809F055FE7A
:102080001A4B0021188809F050FE194B00211888BE
:1020900009F04BFE174B0021188809F046FE164B3D
:1020A0000021188809F041FEFFF710FA134B144A7B
:1020B0001B6812680421ADF8161002925B00012221
:1020C00002218DF81510019300920DF115030DF109
:1020D000160106A807F0AAFE07F08DFE09B05DF80C
:1020E00004FB00BF98000020CC000020A0000020CE
:1020F000C8000020A8000020D40000209400002088
:10210000C408002010B52C4C0121208809F00DFED8
:10211000FA2008F0A7FD0021208809F006FEFA2029
:1021200008F0A0FD0121208809F0FFFDFA2008F049
:1021300099FD0021208809F0F8FDFA2008F092FDB1
:102140000121208809F0F1FDFA2008F08BFD002123
:10215000208809F0EAFDFA2008F084FD012120889A
:1021600009F0E3FDFA2008F07DFD0021208809F048
:10217000DCFDFA2008F076FD0121208809F0D5FD6C
:10218000FA2008F06FFD0021208809F0CEFDFA202A
:1021900008F068FD0121208809F0C7FDFA2008F049
:1021A00061FD2088002109F0C0FDBDE810406B21D1
:1021B0000720FEF731BE00BF98000020F8B5174F8A
:1021C000174E3888174D002109F0AFFD164C3088A6
:1021D000002109F0AAFD2888002109F0A6FD0021B0
:1021E000208809F0A2FD4FF47A7008F03BFD388892
:1021F000012109F09AFD3088012109F096FD288817
:10220000012109F092FD2088012109F08EFDBDE831
:10221000F8404FF47A7008F025BD00BFA000002000
:10222000CC000020C8000020A800002070B5B24BF0
:10223000AAB04FF4FE42B14903A8B14D1A80B14E85
:1022400007F05DFF072008F00BFD0121288809F049
:102250005BFD0121308809F057FDAB4B0121188847
:1022600009F052FDA94B0121188809F04DFDA84B3A
:102270000121188809F048FDA64B0121188809F0B2
:1022800043FDA54B0121188809F03EFD00210420E3
:1022900009F03AFDA14B0121188809F035FDFEF740
:1022A000F3FE9F4807F0A8FB41F270019C4807F03D
:1022B000D3FC9B4807F09BFC9A4C34210020FEF78E
:1022C000ABFD1B210120FEF7A7FD204604F02EFCEC
:1022D000954B1B6823B194F82130002B00F09A82B3
:1022E000924B1B68012B0BD1914808F02FFD9149AF
:1022F0000AF0F6FE20B194F82130002B00F08A821B
:102300000023009301224FF0FF338B49042009F092
:10231000FDF9042009F022FD08B1FFF7A5FE012117
:10232000288809F002FD0121308809F0FEFC784B75
:102330000121188809F0F9FC744B0121188809F073
:10234000F4FC744B0121188809F0EFFC724B012159
:10235000188809F0EAFC714B0121188809F0E5FCA6
:10236000694B0121188809F0E0FC744A74497548EA
:1023700008F016FE09F0B4FA4FF4165109F0AAFA63
:10238000FEF7ACFC4FF4165109F0A4FAFEF7E0FC9E
:102390004FF4165109F09EFAFEF7A0FC41F2883185
:1023A00008F03BFA42F2107008F05CFC09F04AF9C0
:1023B0004FF4165109F02CF9634B0A22196807A84B
:1023C00007F011FF07A90BA807F0D8FE5F490BA87B
:1023D00007F0C4FF044608F02FFC0A2201460FA8AC
:1023E00007F001FF0FA9204607F0ACFF044608F0F4
:1023F0001BFC0A22014613A807F0F5FE13A920468C
:1024000007F0A0FF044608F005FC0A22014617A8C1
:1024100007F0E9FE17A9204607F094FF4B4907F0A3
:102420009DFF044608F0D8FB0A2201461BA807F0CE
:10243000DAFE1BA9204607F085FF044608F0D6FB0C
:102440000A2201461FA807F0CEFE1FA9204607F06A
:1024500079FF044608F0D4FB0A22014623A807F0BE
:10246000C2FE23A9204607F06DFF394907F076FF29
:10247000384C0146204607F072FE23A807F0F8FD0D
:102480001FA807F0F5FD1BA807F0F2FD17A807F03D
:10249000EFFD13A807F0ECFD0FA807F0E9FD0BA86E
:1024A00007F0E6FD07A807F0E3FD09F0CBF82A499D
:1024B00008F02FF8294923A807F021FE214623A878
:1024C00007F040FF0146264807F049FE23A807F021
:1024D000CFFD244902230C22A1F58E60FEF772FC89
:1024E000002843D009F0AEF81F4907F0FFFF09F0BC
:1024F000A9F821683DE000BF740B0020DC2F09081B
:102500009C000020D0000020D4000020CC0000203F
:1025100098000020A0000020C8000020A800002093
:10252000D40A0020880700201C020020780B00201D
:10253000B80800200000A041F79D08085F0B0908BB
:102540001D0C080875AF080888000020850B0908D5
:102550000F080908DC0A00206D0B0908820B090826
:10256000AC070020AC060020870B090809F06AF8C8
:10257000AA49AB4C07F0CDFF09F064F8A94907F070
:10258000C8FF23684BB1A74923A807F0B8FD23A8CB
:10259000FFF7FAF923A807F06BFD09F063FC09F0D7
:1025A00017FA0021288809F0C0FB0323B022182164
:1025B0009D4804F05DFA88B909F044F89B4907F09A
:1025C000A8FF2368FBB1994923A807F098FD23A829
:1025D000FFF7DAF923A807F04BFD14E009F032F811
:1025E000934907F096FF23684BB1914923A807F060
:1025F00086FD23A8FFF7C8F923A807F039FD0121BC
:10260000288809F092FB8B4804F02EFB09F02AFC85
:102610000122492109F0EEF988B909F013F8864939
:1026200007F077FF236873B1834923A807F067FD9C
:1026300023A8FFF7A9F923A807F01AFD03E000215A
:102640007C4804F018FB08F0FDFF7C4907F061FFAF
:1026500023684BB1794923A807F051FD23A8FFF760
:1026600093F923A807F004FD754D09F0FBFB09F071
:10267000AFF90021288809F058FB0323B022182164
:10268000694804F0F5F978B908F0DCFF6D4907F006
:1026900040FF6C4923A807F032FD23A8FFF774F927
:1026A00023A807F0E5FC14E008F0CCFF664907F02A
:1026B00030FF23684BB1644923A807F020FD23A80D
:1026C000FFF762F923A807F0D3FC0121288809F05D
:1026D0002CFB5E4804F0C8FA09F0C4FB01224A2131
:1026E00009F088F988B908F0ADFF534907F011FFE8
:1026F000236873B1504923A807F001FD23A8FFF711
:1027000043F923A807F0B4FC03E000214F4804F08C
:10271000B2FA77214E4806F093F940B908F092FFDB
:102720004C4907F0F6FE236893B14A4907E008F0E8
:1027300089FF494907F0EDFE23684BB1464923A8BC
:1027400007F0DDFC23A8FFF71FF923A807F090FC92
:10275000424804F085FB80B908F074FF404907F057
:10276000D8FE23684BB13F4923A807F0C8FC23A833
:10277000FFF70AF923A807F07BFC0421344806F090
:102780005DFA0221324806F066FA0321304806F06D
:102790006FFA02212E4806F078FA96224FF4A071C3
:1027A0002B4806F03DFAFFF709FD08F04BFF2E49D4
:1027B00007F0AFFE08F046FF2C4907F097FE08F03F
:1027C00041FF0A22072107F012FF08F03BFF2849CA
:1027D00007F08CFE08F036FF0A220F2107F007FFF2
:1027E000FEF762FE1C23002123A8ADF88C3006F012
:1027F000DDFF25A91FA807F082FC1F9A1D491E486E
:10280000FEF755FA1FA807F033FC03A807F030FCC9
:102810002AB070BDFFF776FC72E500BFAD0B09086A
:10282000F80A0020C30B09082C020020E70B090856
:10283000110C0908C00A00202D0C0908600C0908B9
:10284000D0000020830C0908AC0C0908C60A00203F
:10285000F8060020C70C0908FB0C09087C0B0020B7
:10286000120D0908450D0908620D09086D0D0908CA
:102870007A0D0908820D0908D40B002030B55B4D94
:1028800095B008F0DFFE5A4907F030FE594C08F0C9
:10289000D9FE296807F03DFE08F0D4FE564907F03E
:1028A00025FE08F0CFFE216807F033FE08F0CAFECF
:1028B000524907F02EFE08F0C5FE4CF2503107F0E9
:1028C000ACFF08F0BFFE0D220146684608F012F882
:1028D0004B49684607F068FD002800F0818008F049
:1028E000B1FE484907F015FE08F0ACFE464907F076
:1028F00010FE08F0A7FE4CF2503107F08EFF08F0F2
:10290000A1FE0D22014604A807F0F4FF08F09AFE8C
:102910003E4907F0EBFD08F095FE049907F0F9FD3C
:1029200008F090FE3A4907F0F4FD08F08BFE0D2206
:10293000014608A807F0DEFF364908A807F034FD75
:10294000002842D008F07EFE334907F0E2FD04A9DA
:10295000284607F004FC08F075FE304907F0D9FD61
:1029600008F070FE0D2201460CA807F0C3FF08F026
:1029700069FE2B4907F0BAFD08F064FE0C9907F0D8
:10298000C8FD08F05FFE0D22014610A807F0B2FF57
:10299000204910A807F008FD58B108F053FE21495E
:1029A00007F0B7FD0CA9204607F0D9FBFFF778F92F
:1029B00004E008F047FE1C4907F0ABFD10A807F043
:1029C00057FB0CA807F054FB04E008F03BFE164947
:1029D00007F09FFD08A807F04BFB04A807F048FB91
:1029E000684607F045FB15B030BD00BF0C02002063
:1029F000DA0D0908D8010020F00D09080A0E0908AF
:102A00003C0E0908420E0908540E0908640E090814
:102A10007C0E09083E360908920E0908A20E090824
:102A2000B50E0908D10E0908E50E09081FB508F012
:102A300009FE194907F06DFD08F004FE4CF2503113
:102A400007F0EBFE08F0FEFD0D220146684607F098
:102A500051FF1249684607F0A7FC98B108F0F2FD53
:102A60000F4907F056FD0F4C08F0ECFD0E4907F03A
:102A700050FD0123236009F0C9F921468C20FEF79F
:102A8000C6F804E008F0DEFD084907F042FD68469C
:102A900007F0EEFA04B010BDF80E09083B0F090864
:102AA000420E0908D0080020460F0908670F0908E0
:102AB00030B589B008F0C6FD354C07F01EFD08F0B2
:102AC000C1FD344907F012FD08F0BCFD0A2221685F
:102AD00007F08DFD08F0B6FD2F4907F01AFD08F04C
:102AE000B1FD4CF2503107F098FE08F0ABFD0D221D
:102AF0000146684607F0FEFE2849684607F054FC88
:102B000000283AD008F09EFD254907F002FD08F0A4
:102B100099FD244907F0FDFC08F094FD0D220146C3
:102B200004A807F0E7FE04A807F092FC054608F0A9
:102B300089FD1D4907F0EDFC42F20C73AA1E9A4272
:102B400012D808F07FFD194907F0D0FC08F07AFD93
:102B500029460A2207F04BFD256009F057F9214666
:102B60000020FEF754F804E008F06CFD104907F06F
:102B7000D0FC04A807F07CFA04E008F063FD0D49DE
:102B800007F0C7FC684607F073FA09B030BD00BF14
:102B9000880000207D0F0908900F09083C0E0908E5
:102BA000420E0908C00F0908DC2F0908D50F0908D3
:102BB000E60F0908670F09081FB508F043FD07F085
:102BC0009CFC08F03FFD144907F0A3FC08F03AFD17
:102BD0004CF2503107F021FE08F034FD0D22014681
:102BE000684607F087FE0D49684607F0DDFB38B1FF
:102BF00008F028FD0A4907F08CFCFEF729F904E0EB
:102C000008F020FD074907F084FC684607F030FA19
:102C100005B05DF804FB00BFF70F09083C0E09087A
:102C200030100908670F090810B588B008F00AFDD0
:102C30001F4907F06EFC08F005FD4CF2503107F01B
:102C4000ECFD08F0FFFC0D220146684607F052FE3D
:102C5000684607F0FDFB044608F0F4FC154907F050
:102C600058FC154B9C4218DD204607F0D1FE08F0B9
:102C7000E9FC124907F03AFC08F0E4FC044607F0CE
:102C8000A4FF014604A807F0CDFE0499204607F0F2
:102C900040FC04A807F0ECF904E008F0D3FC084974
:102CA00007F037FC684607F0E3F908B010BD00BF35
:102CB0009F100908DC2F0908F52E9439DA1009084D
:102CC000E60F090810B586B008F0BCFC1F4907F0F4
:102CD00020FC08F0B7FC4CF2503107F09EFD08F0E4
:102CE000B1FC0D22014602A807F004FE02A807F07D
:102CF000AFFB019008F0A6FC154907F00AFC01980B
:102D000000F10C031A2B17D809F0F8FF07F064FE46
:102D100006AC08F097FC0F4907F0E8FB08F092FCBE
:102D200054F8141D0A2207F062FC09F06FF82146DE
:102D30005420FDF76CFF04E008F084FC064907F01E
:102D4000E8FB02A807F094F906B010BDED100908E1
:102D5000DC2F090818110908E60F090830B587B0FB
:102D600008F070FC294D07F0C8FB08F06BFC2849FF
:102D700007F0BCFB08F066FC0A22296807F035FC66
:102D800008F060FC234907F0C4FB08F05BFC224913
:102D900007F0ACFB08F056FC4CF2503107F03DFD5B
:102DA00008F050FC0D22014602A807F0A3FD02A87E
:102DB00007F04EFB42F20E730190013898421AD888
:102DC00008F040FC154907F091FB08F03BFC0A2293
:102DD000019907F00CFC06AC08F034FC0D4907F033
:102DE00098FB54F8143D2B6009F010F8214674202C
:102DF000FDF70DFF04E008F025FC094907F089FB09
:102E000002A807F035F907B030BD00BFEC0A00207A
:102E100030110908441109085D11090870110908E9
:102E2000E60F090830B58BB008F00CFC07F065FB25
:102E300008F008FC324907F059FB08F003FC05468E
:102E4000304C0222216806A807F0F3F906992846BB
:102E500007F04CFB06A807F00BF908F0F3FB2A4932
:102E600007F057FB08F0EEFB284907F03FFB08F09E
:102E7000E9FB4CF2503107F0D0FC08F0E3FB0D22E7
:102E8000014602A807F036FD02A807F0E6FA4FF067
:102E90007C5105460AF038F938B31D4928460AF036
:102EA0001FF910B31B492846256009F07BFF0AF083
:102EB0003FF9019008F0C6FB174907F017FB08F02F
:102EC000C1FB05460222216806A807F0B2F906995F
:102ED000284607F01EFB06A807F0CAF808F096FF80
:102EE00001A90820FDF793FE04E008F0ABFB0B49B5
:102EF00007F00FFB02A807F0BBF80BB030BD00BF16
:102F000082110908BC0A0020951109089A110908C4
:102F1000000020410000C842B0110908E60F09086E
:102F200030B587B008F08EFB264D07F0E6FA08F0C2
:102F300089FB254907F0DAFA08F084FB0A222968A0
:102F400007F053FB08F07EFB204907F0E2FA08F097
:102F500079FB1F4907F0CAFA08F074FB4CF25031B4
:102F600007F05BFC08F06EFB0D22014602A807F09B
:102F7000C1FC02A807F06CFA019000F57A70B0F578
:102F8000FA6F15D208F05EFB124907F0AFFA06ACF3
:102F900008F058FB01990A2207F029FB54F8143D68
:102FA0002B6008F033FF21460420FDF730FE04E0DB
:102FB00008F048FB084907F0ACFA02A807F058F8F7
:102FC00007B030BD34020020C2110908951109086C
:102FD000D4110908E9110908E60F090800000000EA
:102FE00030B58BB008F02EFB07F087FA08F02AFB0B
:102FF000374907F07BFA08F025FB0546354C0222DD
:10300000216806A807F015F90699284607F06EFA18
:1030100006A807F02DF808F015FB2F4907F079FAFC
:1030200008F010FB2D4907F061FA08F00BFB4CF299
:10303000503107F0F2FB08F005FB0D22014602A813
:1030400007F058FC02A807F008FA054609F000FA54
:103050001DA3D3E9002309F0D5FC40B34FF0804114
:1030600028460AF03DF810B31D492846256009F0AE
:1030700099FE0AF05DF8019008F0E4FA194907F0AA
:1030800035FA08F0DFFA05460222216806A807F0A3
:10309000D0F80699284607F03CFA06A806F0E8FFA3
:1030A00008F0B4FE01A91020FDF7B1FD04E008F01E
:1030B000C9FA0D4907F02DFA02A806F0D9FF0BB0A6
:1030C00030BD00BFAFF300809A9999999999B93FA3
:1030D000FA110908E8010020951109080C120908E5
:1030E0000000C84221120908E60F090830B587B070
:1030F00008F0A8FA274D07F000FA08F0A3FA2649CD
:1031000007F0F4F908F09EFA0A22296807F06DFA30
:1031100008F098FA214907F0FCF908F093FA2049E1
:1031200007F0E4F908F08EFA4CF2503107F075FB25
:1031300008F088FA0D22014602A807F0DBFB02A87E
:1031400007F086F942F20F73019000F59C500830A9
:10315000984215D808F076FA124907F0C7F906AC7C
:1031600008F070FA01990A2207F041FA54F8143D68
:103170002B6008F04BFE21460C20FDF748FD04E0D3
:1031800008F060FA084907F0C4F902A806F070FFD9
:1031900007B030BDE80700203212090843120908C1
:1031A000481209085C120908E60F090830B58BB00F
:1031B00008F048FA07F0A1F908F044FA324907F09C
:1031C00095F908F03FFA0546304C0222216806A81E
:1031D00007F02FF80699284607F088F906A806F0A8
:1031E00047FF08F02FFA2A4907F093F908F02AFA66
:1031F000284907F07BF908F025FA4CF2503107F026
:103200000CFB08F01FFA0D22014602A807F072FB22
:1032100002A807F022F94FF07C51054609F074FF2F
:1032200040B34FF07F51284609F05AFF10B31A49B6
:103230002846256009F0B6FD09F07AFF019008F0F4
:1032400001FA164907F052F908F0FCF90546022286
:10325000216806A806F0EDFF0699284607F059F9FF
:1032600006A806F005FF08F0D1FD01A91820FDF71A
:10327000CEFC04E008F0E6F9094907F04AF902A893
:1032800006F0F6FE0BB030BD6C12090830020020CB
:10329000090809087F1209080000C84295120908A8
:1032A000E60F090830B587B008F0CCF9264D07F0D5
:1032B00024F908F0C7F9254907F018F908F0C2F910
:1032C0000A22296807F091F908F0BCF9204907F0B3
:1032D00020F908F0B7F91F4907F008F908F0B2F92A
:1032E0004CF2503107F099FA08F0ACF90D22014682
:1032F00002A807F0FFFA02A807F0AAF8019000F56B
:103300007A70B0F5FA6F15D208F09CF9124907F0FF
:10331000EDF806AC08F096F901990A2207F067F972
:1033200054F8143D2B6008F071FD21461420FDF780
:103330006EFC04E008F086F9084907F0EAF802A8F4
:1033400006F096FE07B030BDCC0A0020A71209088F
:10335000B9120908C0120908D5120908E60F0908B0
:1033600030B58BB008F06EF907F0C7F808F06AF9CD
:10337000324907F0BBF808F065F90546304C0222E7
:10338000216806A806F055FF0699284607F0AEF812
:1033900006A806F06DFE08F055F92A4907F0B9F8BD
:1033A00008F050F9284907F0A1F808F04BF94CF261
:1033B000503107F032FA08F045F90D22014602A813
:1033C00007F098FA02A807F048F84FF07C5105463C
:1033D00009F09AFE40B34FF07F51284609F080FE75
:1033E00010B31A492846256009F0DCFC09F0A0FE5C
:1033F000019008F027F9164907F078F808F022F94B
:1034000005460222216806A806F013FF0699284601
:1034100007F07FF806A806F02BFE08F0F7FC01A9DC
:103420002020FDF7F4FB04E008F00CF9094907F04F
:1034300070F802A806F01CFE0BB030BDE6120908B9
:10344000DC07002009080908FB1209080000C8422F
:1034500013130908E60F090830B587B008F0F2F831
:10346000264D07F04AF808F0EDF8254907F03EF838
:1034700008F0E8F80A22296807F0B7F808F0E2F83F
:10348000204907F046F808F0DDF81F4907F02EF84C
:1034900008F0D8F84CF2503107F0BFF908F0D2F834
:1034A0000D22014602A807F025FA02A806F0D0FF77
:1034B000019000F57A70B0F5FA6F15D208F0C2F8F5
:1034C000124907F013F806AC08F0BCF801990A227B
:1034D00007F08DF854F8143D2B6008F097FC214656
:1034E0001C20FDF794FB04E008F0ACF8084907F055
:1034F00010F802A806F0BCFD07B030BD7C07002024
:1035000027130908B91209083B13090852130908BF
:10351000E60F090830B58BB008F094F806F0EDFF1F
:1035200008F090F8324906F0E1FF08F08BF8054604
:10353000304C0222216806A806F07BFE0699284638
:1035400006F0D4FF06A806F093FD08F07BF82A49A0
:1035500006F0DFFF08F076F8284906F0C7FF08F00C
:1035600071F84CF2503107F058F908F06BF80D2261
:10357000014602A807F0BEF902A806F06EFF4FF060
:103580007C51054609F0C0FD40B34FF07F512846FD
:1035900009F0A6FD10B31A492846256009F002FC7F
:1035A00009F0C6FD019008F04DF8164906F09EFF9F
:1035B00008F048F805460222216806A806F039FE00
:1035C0000699284606F0A5FF06A806F051FD08F06A
:1035D0001DFC01A92820FDF71AFB04E008F032F8D1
:1035E000094906F096FF02A806F042FD0BB030BD77
:1035F00065130908180B0020090809087913090840
:103600000000C84290130908E60F090830B587B0DA
:1036100008F018F8264D06F070FF08F013F8254959
:1036200006F064FF08F00EF80A22296806F0DDFFB4
:1036300008F008F8204906F06CFF08F003F81F496D
:1036400006F054FF07F0FEFF4CF2503107F0E5F8AA
:1036500007F0F8FF0D22014602A807F04BF902A877
:1036600006F0F6FE019000F57A70B0F5FA6F15D20B
:1036700007F0E8FF124906F039FF06AC07F0E2FF59
:1036800001990A2206F0B3FF54F8143D2B6008F0AC
:10369000BDFB21462420FDF7BAFA04E007F0D2FF73
:1036A000084906F036FF02A806F0E2FC07B030BD7C
:1036B000000B0020A3130908B6130908BD1309085D
:1036C000D3130908E60F090830B58BB007F0BAFF2D
:1036D00006F013FF07F0B6FF324906F007FF07F0C8
:1036E000B1FF0546304C0222216806A806F0A1FD74
:1036F0000699284606F0FAFE06A806F0B9FC07F07F
:10370000A1FF2A4906F005FF07F09CFF284906F0B3
:10371000EDFE07F097FF4CF2503107F07EF807F00E
:1037200091FF0D22014602A807F0E4F802A806F076
:1037300094FE4FF07C51054609F0E6FC40B34FF093
:103740007F51284609F0CCFC10B31A492846256061
:1037500009F028FB09F0ECFC019007F073FF164913
:1037600006F0C4FE07F06EFF05460222216806A897
:1037700006F05FFD0699284606F0CBFE06A806F087
:1037800077FC08F043FB01A93020FDF740FA04E084
:1037900007F058FF094906F0BCFE02A806F068FCD5
:1037A0000BB030BDE5130908E40700200014090838
:1037B0000B1409080000C84229140908E60F09087B
:1037C00030B587B007F03EFF254D06F096FE07F0B6
:1037D00039FF244906F08AFE07F034FF0A222968DF
:1037E00006F003FF07F02EFF1F4906F092FE07F0D8
:1037F00029FF1E4906F07AFE07F024FF4CF25031F3
:1038000007F00BF807F01EFF0D22014602A807F093
:1038100071F802A806F01CFE01901E303B2815D856
:1038200007F010FF124906F061FE06AC07F00AFF30
:1038300001990A2206F0DBFE54F8143D2B6008F0D3
:10384000E5FA21462C20FDF7E2F904E007F0FAFE44
:10385000084906F05EFE02A806F00AFC07B030BD7B
:10386000D80A002043140908001409085D14090847
:103870007A140908E60F090830B58BB007F0E2FEAC
:1038800006F03BFE07F0DEFE324906F02FFE07F0A1
:10389000D9FE0546304C0222216806A806F0C9FC74
:1038A0000699284606F022FE06A806F0E1FB07F07E
:1038B000C9FE2A4906F02DFE07F0C4FE284906F08D
:1038C00015FE07F0BFFE4CF2503106F0A6FF07F0E0
:1038D000B9FE0D22014602A807F00CF802A806F076
:1038E000BCFD4FF07C51054609F00EFC40B34FF093
:1038F0007F51284609F0F4FB10B31A492846256089
:1039000009F050FA09F014FC019007F09BFE1649EB
:1039100006F0ECFD07F096FE05460222216806A897
:1039200006F087FC0699284606F0F3FD06A806F087
:103930009FFB08F06BFA01A93820FDF768F904E055
:1039400007F080FE094906F0E4FD02A806F090FBAE
:103950000BB030BD93140908F0010020AB14090826
:10396000B11409080000C842CC140908E60F090880
:1039700030B587B007F066FE264D06F0BEFD07F0B5
:1039800061FE254906F0B2FD07F05CFE0A222968B7
:1039900006F02BFE07F056FE204906F0BAFD07F0B0
:1039A00051FE1F4906F0A2FD07F04CFE4CF25031CB
:1039B00006F033FF07F046FE0D22014602A806F08E
:1039C00099FF02A806F044FD019000F57A70B0F569
:1039D000FA6F15D207F036FE124906F087FD06ACE5
:1039E00007F030FE01990A2206F001FE54F8143D5A
:1039F0002B6008F00BFA21463420FDF708F904E0AB
:103A000007F020FE084906F084FD02A806F030FB0E
:103A100007B030BD300A0020E314090895110908E9
:103A2000FA14090814150908E60F090830B58BB017
:103A300007F008FE06F061FD07F004FE324906F0CB
:103A400055FD07F0FFFD0546304C0222216806A80F
:103A500006F0EFFB0699284606F048FD06A806F09A
:103A600007FB07F0EFFD2A4906F053FD07F0EAFDDA
:103A7000284906F03BFD07F0E5FD4CF2503106F019
:103A8000CCFE07F0DFFD0D22014602A806F032FF52
:103A900002A806F0E2FC4FF07C51054609F034FB29
:103AA00038B31D49284609F01BFB10B31B492846B3
:103AB000256009F077F909F03BFB019007F0C2FDA2
:103AC000174906F013FD07F0BDFD054602222168E7
:103AD00006A806F0AEFB0699284606F01AFD06A8D1
:103AE00006F0C6FA08F092F901A94020FDF78FF818
:103AF00004E007F0A7FD0B4906F00BFD02A806F055
:103B0000B7FA0BB030BD00BF2A150908EC0600203B
:103B10003C1509083F150908000020410000C84273
:103B200054150908E60F090830B587B007F08AFD7B
:103B3000254D06F0E2FC07F085FD244906F0D6FC91
:103B400007F080FD0A22296806F04FFD07F07AFD94
:103B50001F4906F0DEFC07F075FD1E4906F0C6FCA5
:103B600007F070FD4CF2503106F057FE07F06AFD89
:103B70000D22014602A806F0BDFE02A806F068FC70
:103B800001903230632815D807F05CFD124906F029
:103B9000ADFC06AC07F056FD01990A2206F027FDA0
:103BA00054F8143D2B6008F031F921463C20FDF714
:103BB0002EF804E007F046FD084906F0AAFC02A82A
:103BC00006F056FA07B030BD7007002065150908E9
:103BD0003C150908761509088A150908E60F090831
:103BE00030B589B007F02EFD354C06F086FC07F0A5
:103BF00029FD344906F07AFC07F024FD0A222168E9
:103C000006F0F5FC07F01EFD2F4906F082FC07F0D8
:103C100019FD4CF2503106F000FE07F013FD0D22A5
:103C20000146684606F066FE2849684606F0BCFB79
:103C300000283AD007F006FD254906F06AFC07F097
:103C400001FD244906F065FC07F0FCFC0D2201464D
:103C500004A806F04FFE04A806F0FAFB054607F09C
:103C6000F1FC1D4906F055FC44F61E636A1E9A429B
:103C700012D807F0E7FC194906F038FC07F0E2FC1F
:103C800029460A2206F0B3FC256008F0BFF8214659
:103C90004C20FCF7BCFF04E007F0D4FC104906F010
:103CA00038FC04A806F0E4F904E007F0CBFC0D4969
:103CB00006F02FFC684606F0DBF909B030BD00BF06
:103CC00090000020E2150908F71509083C0E0908C4
:103CD000420E090830160908DC2F090849160908A0
:103CE000E60F0908670F090830B589B007F0AAFC8C
:103CF000354C06F002FC07F0A5FC344906F0F6FB53
:103D000007F0A0FC0A22216806F071FC07F09AFC7B
:103D10002F4906F0FEFB07F095FC4CF2503106F0FF
:103D20007CFD07F08FFC0D220146684606F0E2FD9F
:103D30002849684606F038FB00283AD007F082FC94
:103D4000254906F0E6FB07F07DFC244906F0E1FB7F
:103D500007F078FC0D22014604A806F0CBFD04A86C
:103D600006F076FB054607F06DFC1D4906F0D1FB19
:103D70004CF24E336A1E9A4212D807F063FC19497E
:103D800006F0B4FB07F05EFC29460A2206F02FFC81
:103D9000256008F03BF821465020FCF738FF04E08E
:103DA00007F050FC104906F0B4FB04A806F060F9D7
:103DB00004E007F047FC0D4906F0ABFB684606F04F
:103DC00057F909B030BD00BF8C0000205C1609080F
:103DD000711609083C0E0908420E0908AA160908BE
:103DE000DC2F0908C3160908E60F0908670F090840
:103DF00008B507F027FC894906F08BFB07F022FC89
:103E0000874906F086FB07F01DFC864906F081FB1A
:103E100007F018FC844906F07CFB07F013FC83498B
:103E200006F077FB07F00EFC814906F072FB07F005
:103E300009FC804906F06DFB07F004FC7E4906F0A2
:103E400068FB07F0FFFB7D4906F063FB07F0FAFB18
:103E50007B4906F05EFB07F0F5FB7A4906F059FB5B
:103E600007F0F0FB784906F054FB07F0EBFB7749CD
:103E700006F04FFB07F0E6FB754906F04AFB07F03A
:103E8000E1FB744906F045FB07F0DCFB724906F0E4
:103E900040FB07F0D7FB714906F03BFB07F0D2FB74
:103EA0006F4906F036FB07F0CDFB6E4906F031FB9B
:103EB00007F0C8FB6C4906F02CFB07F0C3FB6B490D
:103EC00006F027FB07F0BEFB694906F022FB07F06E
:103ED000B9FB684906F01DFB07F0B4FB664906F024
:103EE00018FB07F0AFFB654906F013FB07F0AAFBD0
:103EF000634906F00EFB07F0A5FB624906F009FBDB
:103F000007F0A0FB604906F004FB07F09BFB5F494C
:103F100006F0FFFA07F096FB5D4906F0FAFA07F0A3
:103F200091FB5C4906F0F5FA07F08CFB5A4906F064
:103F3000F0FA07F087FB594906F0EBFA07F082FB2D
:103F4000574906F0E6FA07F07DFB564906F0E1FA1C
:103F500007F078FB544906F0DCFA07F073FB53498D
:103F600006F0D7FA07F06EFB514906F0D2FA07F0D7
:103F700069FB504906F0CDFA07F064FB4E4906F0A4
:103F8000C8FA07F05FFB4D4906F0C3FA07F05AFB89
:103F90004B4906F0BEFA07F055FB4A4906F0B9FA5C
:103FA00007F050FB484906F0B4FA07F04BFB4749CD
:103FB00006F0AFFA07F046FB454906F0AAFA07F00B
:103FC00041FB444906F0A5FA07F03CFB424906F0E4
:103FD000A0FA07F037FB414906F09BFA07F032FBE5
:103FE0003F4906F096FA07F02DFB3E4906F091FA9C
:103FF00007F028FB3C4906F08CFA07F023FB3B490D
:1040000006F087FA07F01EFB394906F082FA07F03E
:1040100019FBBDE80840374906F07BBAD6160908F7
:10402000EC160908011709081517090829170908C6
:104030003C17090851170908651709087C17090872
:1040400092170908A8170908BD170908DA170908FF
:10405000F61709081018090829180908431809084B
:104060005C1809087818090895180908AE18090895
:10407000CA180908E2180908FB18090814190908E0
:10408000281909083D19090853190908641909086C
:10409000761909089F190908C5190908EA190908B4
:1040A000121A0908521A0908951A0908BF1A0908AC
:1040B000F31A0908111B0908351B0908501B0908C8
:1040C0007A1B0908AF1B0908D31B0908E71B09085D
:1040D000031C0908281C09084C1C0908711C090844
:1040E000991C0908DC1C09080E1D0908741D090823
:1040F000D81D0908ED1D090838B5046805467CB1CE
:104100006368013B63605BB9236820469B689847FE
:10411000A368013BA3601BB923682046DB6898476E
:10412000284638BD2DE9F04F99B006460F4604A841
:10413000AB4905F0E4FFAB4CAB4B2068196808F0C5
:1041400029FDAA4DAA4B206019688146286808F00D
:1041500021FDA84BDFF804831B68DFF814A3C8F81F
:104160000030A54B83462860DAF800001B68013058
:104170009842CAF8000040F0EC8008F0BFFD01460C
:104180000390484608F0C2FE039B2060194658463B
:1041900008F0BCFE0023CAF80030984B0A221968C8
:1041A00028600CA806F01FF80CA910A805F0E6FF7F
:1041B000934910A806F0D2F8216806F0EBF891496F
:1041C00006F0CCF8296806F0E5F88F4906F0C6F845
:1041D0008E4B4FF00109196806F0D2F88C4906F0B1
:1041E000BDF88C4B196806F0D5F88B4906F0B6F887
:1041F0008A4B196806F0C4F8894906F0AFF80546FD
:10420000FDF776F90122014614A806F012F814A968
:10421000284606F097F8834906F0A0F8014608A85A
:1042200005F0ACFF14A805F023FF7F4D10A805F0A2
:104230001FFF0CA805F01CFF686808F009F90022B0
:104240007A4B08F083FACDF800900B4602460CA892
:1042500006F006F80CA910A805F090FF744910A804
:1042600006F07CF882464A46A96814A805F0E1FFEA
:1042700014A9504606F066F8014608A806F01DF895
:1042800014A805F0F5FE10A805F0F2FE0CA805F044
:10429000EFFE684B1B68BBB1674914A805F02FFF00
:1042A0000622D8F8001010A805F0C3FF10A914A822
:1042B00006F048F8014608A805F0FFFF10A805F031
:1042C000D7FE14A805F0D4FE5C4908A805F0F9FF54
:1042D00005F01AFB5A4D5B4B002840D01A68002AA3
:1042E0003DD0594A5949138814A843F0020313805A
:1042F0003268574EDFF87C8133788DF800303C23EC
:1043000006F05EFF15A8FFF7F7FE05F0E7F8C8F81E
:10431000000005F0E9FA2B6873B107F093F94D49F5
:1043200006F0F7F84B4914A805F0E9FE14A8FDF7CC
:104330002BFB14A805F09CFE474B1B68002B32D1C9
:104340002A4A00231360454A08A82360136005F039
:104350008FFE04A805F08CFE19B0BDE8F08F1B6835
:104360004BB92B68002BEBD007F06CF93C4906F0F9
:10437000D0F83B490DE0344A138823F00203138040
:104380002B68002BDCD007F05DF9364906F0C1F848
:10439000344914A805F0B3FE14A8FDF7F5FA14A8E3
:1043A00005F066FECCE733783A682F498DF8003087
:1043B00014A83C2306F004FF15A8FFF79DFE05F0A6
:1043C0008DF8C8F8000005F08FFA2B68002BB7D0E5
:1043D00007F038F9254906F09CF82449D9E700BFD1
:1043E000090809086C0B0020040B0020840700203A
:1043F00028020020800B0020EC0A0020880000200A
:10440000011E0908081E0908101E0908C808002016
:10441000181E0908A0090020211E09081C0B0020F5
:104420002A1E0908321E0908F8060020000059401B
:104430003B1E0908B80A0020421E09083E2209084E
:10444000F80A002024020020740B0020B91E09087D
:10445000F0060020481E0908D0080020D4010020E2
:10446000851E09089B1E09085E1E09086C1E0908A6
:1044700020020020EC100020F0B5ADF5257D06F0FF
:10448000A4FBA94B07461A68A84BA94902A81A60C1
:1044900005F035FEA64906A805F031FEA4490AA894
:1044A00005F02DFEA2490EA805F029FEA04912A88C
:1044B00005F025FE5E2102A864AC05F011FF0A227A
:1044C000012127A805F08FFE27A9204605F056FEFA
:1044D0009849204605F042FF014602A805F0EDFE8E
:1044E000204605F0C5FD27A805F0C2FD924E5A21D1
:1044F00022A805F067FE22A9204605F03FFE0A2209
:10450000316827A805F06FFE27A9204605F01AFF9D
:10451000014602A805F0D1FE27A805F0A9FD204616
:1045200005F0A6FD22A805F0A3FD0A22316827A800
:1045300005F059FE27A9204605F020FE7F492046B8
:1045400005F00CFF014606A805F0B7FE204605F071
:104550008FFD27A805F08CFD794B0025229322A81A
:10456000FF2325938DF88C502494269507F02AFB81
:10457000744927A805F0C3FD0A2231681EA805F07A
:1045800032FE1EA927A805F0DDFE014616A805F09B
:10459000F5FD1EA805F06CFD27A805F069FD6A4928
:1045A00022A8FCF773FB16A9FCF77DFB674922A83C
:1045B000FCF76CFB0446664B3A46664927A806F0B2
:1045C000B1FA27A92046FCF76EFB27A805F050FD9D
:1045D000614922A8FCF75AFB0446604B2A46196839
:1045E00027A805F026FE27A92046FCF75CFB27A894
:1045F00005F03EFD5A4922A8FCF748FB0446594BFA
:104600000322196827A805F014FE27A92046FCF705
:104610004AFB27A805F02CFD534922A8FCF736FBDE
:104620000446524B0A22196827A805F0DCFD27A989
:104630002046FCF738FB27A805F01AFD4C4922A8B4
:10464000FCF724FB04464B4B2A46196827A805F0C3
:10465000F0FD27A92046FCF726FB27A805F008FD5A
:10466000454922A8FCF712FB0446FCF741FF012252
:10467000014627A805F0DDFD27A92046FCF713FB1E
:1046800027A805F0F5FC3D4922A8FCF7FFFA3C4BB2
:104690000546586807F0DCFE00223A4B08F056F851
:1046A00001240B460246009427A805F0D9FD27A94E
:1046B0002846FCF7F8FA27A805F0DAFC324922A8C8
:1046C000FCF7E4FA0546FCF791FF2246014627A8CD
:1046D00005F0AFFD27A92846FCF7E5FA27A805F065
:1046E000C7FC2A4802F094FB0022002308F06CF972
:1046F00000284FD1254802F0A6FB18B924490EA87E
:1047000005F0DFFD214802F083FB062302460093FB
:1047100027A80B4605F0A4FD27A90EA805F0CDFD9E
:1047200027A805F0A5FC39E0D8000020000C0020E7
:10473000DC2F0908BF1E090888000020AE2B0908DD
:1047400058320908C11E0908C61E0908D41E0908E6
:10475000DD1E0908FC0B0020272B09082802002079
:104760002A0C0908040B0020F01E0908C8080020C4
:10477000F61E0908A0090020FC1E0908011F0908EF
:10478000F806002000005940071F090868090020AA
:10479000C41E0908B5490EA805F003FDB44922A8B6
:1047A000FCF774FA0EA9FCF77EFAB24802F035FB6A
:1047B0000022002308F008F9C8B9AE4802F046FB11
:1047C000012803D1AC4912A805F07BFDA94802F0ED
:1047D00024FB06230246009327A80B4605F040FD64
:1047E00027A912A805F069FD27A805F041FCA349F7
:1047F00022A8FCF74BFA12A9FCF755FA22A807F0F9
:10480000CBF9269B259A0024934228BF1346249A6D
:104810009B4DD4544D211AA805F0D4FC1AA927A801
:1048200005F0ACFC032229681EA805F002FD1EA9B4
:1048300027A805F087FD014602A805F03EFD1EA849
:1048400005F016FC27A805F013FC1AA805F010FCCB
:10485000032229681EA805F0ECFC1EA927A805F074
:104860008DFC884927A805F079FD014606A805F0CA
:1048700024FD27A805F0FCFB1EA805F0F9FB824DDE
:1048800043211AA805F09EFC1AA927A805F076FC7A
:10489000224629681EA805F0CCFC1EA927A805F011
:1048A00051FD014602A805F008FD1EA805F0E0FB39
:1048B00027A805F0DDFB1AA805F0DAFB22462968D7
:1048C0001EA805F0B6FC1EA927A805F057FC6D49E7
:1048D00027A805F043FD014606A805F0EEFC27A831
:1048E00005F0C6FB1EA805F0C3FB684B1B68002B38
:1048F00035D06721664C1AA805F064FC1AA927A8D0
:1049000005F03CFC012221681EA805F092FC1EA9BE
:1049100027A805F017FD014602A805F0CEFC1EA849
:1049200005F0A6FB27A805F0A3FB1AA805F0A0FB3D
:10493000012221681EA805F07CFC1EA927A805F00D
:104940001DFC504927A805F009FD014606A805F001
:10495000B4FC27A805F08CFB1EA805F089FB4D4C84
:1049600072211AA805F02EFC1AA927A805F006FC4A
:104970000A2221681EA805F036FC1EA927A805F00A
:10498000E1FC014602A805F098FC1EA805F070FBAA
:1049900027A805F06DFB1AA805F06AFB0A2221681A
:1049A0001EA805F020FC1EA927A805F0E7FB354945
:1049B00027A805F0D3FC014606A805F07EFC27A831
:1049C00005F056FB1EA805F053FB334C52211AA8E4
:1049D00005F0F8FB1AA927A805F0D0FB00222168F2
:1049E0001EA805F026FC1EA927A805F0ABFC014671
:1049F00002A805F062FC1EA805F03AFB27A805F006
:104A000037FB1AA805F034FB002221681EA805F028
:104A100010FC1EA927A805F0B1FB1A4927A805F02C
:104A20009DFC014606A805F048FC27A805F020FBE0
:104A30001EA805F01DFB194C71211AA805F0C2FB38
:104A40001AA927A805F09AFB0A2221681EA805F0DA
:104A5000CAFB1EA927A805F075FC014602A805F0AF
:104A60002CFC1EA805F004FB1AE000BFDC2F09088F
:104A70000D1F090868090020C41E0908111F090834
:104A8000040B0020AE2B090828020020840B002014
:104A9000080B0020C8080020A00900201C0B0020E3
:104AA00027A805F0E5FA1AA805F0E2FA0A2221681B
:104AB0001EA805F098FB1EA927A805F05FFBB949C1
:104AC00027A805F04BFC014606A805F0F6FB27A831
:104AD00005F0CEFA1EA805F0CBFA74211AA805F04D
:104AE00071FB1AA927A805F049FBFCF701FD01227B
:104AF00001461EA805F09DFB1EA927A805F022FC73
:104B0000014602A805F0D9FB1EA805F0B1FA27A8B6
:104B100005F0AEFA1AA805F0ABFAFCF7E9FC0122A1
:104B200001461EA805F085FB1EA927A805F026FB57
:104B30009C4927A805F012FC014606A805F0BDFB1C
:104B400027A805F095FA1EA805F092FA964D502177
:104B50001AA805F037FB1AA927A805F00FFB68680B
:104B600007F076FC0022914B07F0F0FD012402468D
:104B70000B4600941EA805F073FB1EA927A805F09C
:104B8000E1FB014602A805F098FB1EA805F070FAAB
:104B900027A805F06DFA1AA805F06AFA686807F008
:104BA00057FC0022814B07F0D1FD00940B460246D2
:104BB0001EA805F055FB1EA927A805F0DFFA7949C4
:104BC00027A805F0CBFB014606A805F076FB27A831
:104BD00005F04EFA1EA805F04BFA68210DEB010016
:104BE00005F0F0FA1AA927A805F0C8FAFCF7FEFCB0
:104BF000224601461EA805F01CFB1EA927A805F0A9
:104C0000A1FB014602A805F058FB1EA805F030FAEA
:104C100027A805F02DFA1AA805F02AFAFCF7E6FCF9
:104C2000224601461EA805F004FB1EA927A805F090
:104C3000A5FA5C4927A805F091FB014606A805F0F6
:104C40003CFB27A805F014FA1EA805F011FA584BF2
:104C50001B68002B35D04F21564D1AA805F0B2FA2B
:104C60001AA927A805F08AFA224629681EA805F085
:104C7000E0FA1EA927A805F065FB014602A805F089
:104C80001CFB1EA805F0F4F927A805F0F1F91AA8F5
:104C900005F0EEF9224629681EA805F0CAFA1EA9F9
:104CA00027A805F06BFA3F4927A805F057FB0146F6
:104CB00006A805F002FB27A805F0DAF91EA805F002
:104CC000D7F978211AA805F07DFA1AA927A805F0C6
:104CD00055FA394806F03AF8012201461EA805F0B7
:104CE000A8FA1EA927A805F02DFB014602A805F089
:104CF000E4FA1EA805F0BCF927A805F0B9F91AA82E
:104D000005F0B6F92C4806F021F8012201461EA84C
:104D100005F08FFA1EA927A805F030FA214927A827
:104D200005F01CFB014606A805F0C7FA27A805F008
:104D30009FF91EA805F09CF9612127A805F042FA09
:104D400027A902A805F0B9FA27A805F091F91B4890
:104D500002F05EF80022002307F036FE002843D15F
:104D6000164802F070F838B9154906A805F0A9FAF6
:104D7000134902A805F0A5FA104802F049F80624E4
:104D800002460B4600941EA805F06AFA1EA927A841
:104D900005F0F4F9034927A805F0E0FA014606A852
:104DA00010E000BFAE2B0908F806002000005940B3
:104DB000B80A0020800B0020B808002068090020F5
:104DC000C41E090805F079FA27A805F051F91EA8B4
:104DD00005F04EF95B4802F01BF8009402460B46C2
:104DE00027A805F03DFA19E057491EA805F087F9F4
:104DF0001EA927A805F0C2F9544927A805F0AEFA64
:104E0000014606A805F059FA27A805F031F91EA8B1
:104E100005F02EF94C4927A805F071F927A902A839
:104E200005F04BFA27A805F023F96F2127A805F014
:104E3000C9F927A902A805F040FA27A805F018F932
:104E4000404801F0EAFF0022002307F0BDFD0028E2
:104E500032D13C4801F0FAFF012807D13C4906A8AD
:104E600005F02FFA3A4902A805F02BFA354801F06F
:104E7000D4FF062402460B4600941EA805F0F0F964
:104E80001EA927A805F07AF9304927A805F066FA87
:104E9000014606A805F011FA27A805F0E9F81EA8B2
:104EA00005F0E6F8274801F0B8FF009402460B46EB
:104EB00027A805F0D5F919E026491EA805F01FF925
:104EC0001EA927A805F05AF9204927A805F046FA97
:104ED000014606A805F0F1F927A805F0C9F81EA8B3
:104EE00005F0C6F81B4927A805F009F927A902A86B
:104EF00005F0E3F927A805F0BBF8632127A805F022
:104F000061F927A902A805F0D8F927A805F0B0F89B
:104F10000C4801F082FF0022002307F055FDE8B99C
:104F2000084801F07FFF07F081FA00220A4B07F0E2
:104F30000DFC0623009302460B4627A805F090F9C6
:104F400010E000BF68090020AC000020AE2B09086B
:104F5000C41E0908B800002000002440884927A882
:104F600005F0CDF827A902A805F0A7F927A805F0B4
:104F70007FF8844B3A46844927A805F0D3FD27A93A
:104F800006A805F09AF927A805F072F859211AA881
:104F900005F018F91AA927A805F0F0F805F015FE94
:104FA0000A2201461EA805F031F91EA927A805F01E
:104FB000C9F9014602A805F080F91EA805F058F8C5
:104FC00027A805F055F8714C1AA805F051F82621CC
:104FD00002A805F085F923684BB106F033FB6C4954
:104FE00005F097FA06F02EFB029905F092FA02A955
:104FF0001EA805F0C3F864A927A805F080F827A922
:105000001EA8FFF78FF827A805F032F81EA805F0B4
:105010002FF8604B1B68ABB1236873B106F012FB2D
:105020005D4905F076FA5D4927A805F068F827A8DC
:10503000FCF7AAFC27A805F01BF806F051FC029922
:1050400005F067FA06F0FEFA069905F062FA54498F
:1050500002230C22A1F58E60FBF7B4FE002836D0A7
:10506000236823B106F0EEFA4E4905F052FA4E4A93
:105070004E494F4C4623126809684E4803F011F917
:105080002368EBB94C494D4805F043FA05F09DFD06
:10509000014627A805F0C6FC2799484805F039FACB
:1050A00027A804F0E5FF464927A805F028F8279926
:1050B000424805F02EFA27A804F0DAFF0123236006
:1050C00006993E4805F025FA3A4803F0E3F83D4ECC
:1050D0000DF19D040025012304F8013C3368237081
:1050E000C3F307236370384B1B68A3701DB94D23AE
:1050F000E370364B7FE0012D03D14323E370344B43
:1051000079E0022D05D17823E370324805F01EFEC8
:1051100072E0032D03D17223E3702F4B0AE0042DBC
:1051200003D15223E3702D4B65E0052D06D1712389
:10513000E3702B4B186807F0E1FD5DE0062D04D10C
:105140007423E370FCF7D4F956E0072D07D1502300
:10515000E370244B2449586807F0D8FE4CE0082D32
:1051600004D16823E370FCF741FA45E0092D3FD1F3
:105170007323E3701D4BD3E9000107F0B5FC3BE05E
:1051800080000020161F0908FC0B0020F80A0020F0
:10519000281F090838020020401F09086A1F090853
:1051A000AC060020911F0908DC0A0020C40B002077
:1051B000BC060020C8060020170A0908C006002007
:1051C000A61F09088800002074070020040B002097
:1051D00028020020B8080020C8080020A0090020EC
:1051E0001C0B0020F80600200000C842100B002015
:1051F0006723E370344B1868C0F307232071637191
:10520000C0F30743C0F30760A371E0712F4801F0BA
:105210000EFE2072C0F3072060722C4801F00AFED7
:10522000A072C0F30720E072284801F006FE207348
:10523000C0F307206073254801F002FEA073C0F39D
:105240000720E073214801F0FEFD07461F4801F0EA
:10525000FDFD384320741D4801F0E4FD1C4B013571
:105260005A781B780B2DE3744FF023036074A274FB
:10527000237504F116047FF42EAF06F031FB1549B7
:1052800005F034F906F02CFB0368F222DB6827A94D
:10529000984706F025FB104905F028F916A804F0F8
:1052A000E7FE12A804F0E4FE0EA804F0E1FE0AA84E
:1052B00004F0DEFE06A804F0DBFE02A804F0D8FE2F
:1052C0000DF5257DF0BD00BF080B0020680900200A
:1052D000740B00205D0B0908B20A090837B50446B3
:1052E00010460D4607F0B4F82A46CDE9000100212A
:1052F000204605F043FA03B030BD13460A460021AC
:1053000005F03CBA000000002DE9F043ABB086493F
:1053100002A804F0F4FE854D854906A804F0EFFECE
:1053200006F0DEFA40F6B83105F077FA2B6873B173
:1053300006F088F97F4905F0ECF87E490EA804F0E4
:10534000DEFE0EA8FCF720FB0EA804F091FE06F08E
:10535000C7FA029905F0CAF800260027002406F0D3
:10536000BFFA03681B699847E0B9DCB90022724BA9
:105370003046394606F00EFF69A3D3E900230646FE
:105380000F4607F049FB0028E9D02B680BB9012430
:10539000E5E706F057F9CDE90067684A214605F0D0
:1053A000EDF9F4E70A2005F05DFC06F099FA0EAC81
:1053B0000146204605F08AFA214606A804F0E9FED7
:1053C000204604F055FE2B689BB106F03BF95C4982
:1053D00005F08CF806F036F9069905F09AF8594967
:1053E000204604F08CFE2046FCF7CEFA204604F05E
:1053F0003FFE0026A0195449103604F080FE702E9E
:10540000F8D100273E463A462C2106A804F0E9FFD1
:105410002B68804653B106F015F94C4905F066F843
:1054200006F010F90A22414605F0E1F8B8F1000F44
:105430002DDD43463A4606A90AA84FEA061904F0AC
:10544000DFFF0AA904EB090004F0A3FE0AA804F098
:105450000FFE2B685BB106F0F5F83D493246FFF7C9
:105460004CFF06F0EFF854F8091005F052F8013639
:10547000072E08F10107C6D112A804F0EEFF2B6831
:105480000646002B35D006F0DDF832492FE03A46CB
:105490000D2106A804F0A5FF031E1DDD4FEA061826
:1054A0003A4606A90AA804EB080904F0A9FF0AA9CC
:1054B000484604F06EFE0AA804F0DAFD2B685BB1E2
:1054C00006F0C0F822493246FFF717FF06F0BAF897
:1054D00054F8081005F01DF8062E13D1204604F0EC
:1054E000BCFF2B68064623B106F0ACF81A4905F05C
:1054F00010F8062504EB051004F0BAFD15F1FF3590
:10550000F8D201E00026F4E706A804F0B1FD02A8F5
:1055100004F0AEFD30462BB0BDE8F083AFF3008061
:1055200000000000004CCD4006200908F80A0020C9
:1055300009080908092009080000F03F252009088A
:105540005F20090878200908DC2F09088F20090846
:105550009D200908A9200908D3200908000000009F
:1055600038B5214B214C1B6883B30A2006F009FC97
:105570001F4B05461B6853B106F064F81D4904F043
:10558000B5FF06F05FF80A22294605F030F82846F4
:1055900007F0B4FB06F05CFF0FA3D3E9002306F08D
:1055A000ABFF07F0A1FA06F053FF0DA3D3E90023E8
:1055B00007F0CCF807F098FA0F4B0546186807F08B
:1055C0009DFB0146284607F0E5FA01E0FFF79CFE47
:1055D000206038BDAFF300802D431CEBE2364A3F1C
:1055E0009A9999999999893F640B0020800B002022
:1055F000F80A0020FB200908B406002038B51D4831
:1056000004F05CFA054606F01DF82A461A49FFF731
:1056100074FE642D16D0962D16D0B5F5FA7F16D0EF
:10562000B5F5617F16D0B5F5966F40F2DC5416D013
:10563000A54212D040F6B832B5F5FA6F14BF2C4629
:1056400014460CE096240AE04FF4FA7407E04FF495
:10565000617404E04FF4966401E04FF4FA64A1B27F
:10566000044804F063FA05F0EDFF22460349FFF712
:1056700044FE38BDD40A0020102109082E21090853
:10568000F0B5334885B004F025FA054610F0800FD8
:105690000CBF00244FF40064470648BF04F5806443
:1056A000860648BF04F50074E80648BF04F5807418
:1056B000290748BF80346A0748BF403405F0C2FF5D
:1056C00022462449FFF719FE281DC0B2030658BF21
:1056D000002100F0400346BF01214FF400640C4656
:1056E00003F0FF0213B104F58064012200F02005ED
:1056F00005F0FF0315B104F50074012300F0100656
:1057000006F0FF0516B104F58074012500F00807C6
:1057100007F0FF060FB18034012600F0040000F00E
:10572000FF0710B14034012000E0384602908DE8B8
:105730006000074804F05DFA054804F0CBF905F075
:1057400081FF22460449FFF7D8FD05B0F0BD00BF38
:10575000D40A00204C210908752109080000000026
:105760002DE9F04FA24D8BB0A24902A804F0C7FC6E
:105770002B6823B105F066FF9F4904F0CAFEDFF8ED
:10578000D0920021B9F8000006F0CFFA06F06AFBCB
:105790000122492106F02EF9CDF8049048B92B6872
:1057A000002B39D005F04EFF944904F0B2FE934926
:1057B00029E00321924801F060FA044607F09EFABE
:1057C000904B196807F0EEFA8F4907F09FFB81466E
:1057D00006F03EFE00228D4B06F0DAFC07F03CF9A5
:1057E0000028B8BF404206F021FE0022884B07F097
:1057F00013F988B12B687BB105F024FF85494A462F
:10580000FFF76CFD844906A804F079FC06A8FCF7B4
:10581000BBF806A804F02CFC0021804801F0D7F862
:1058200080B92B6873B105F00DFF7D4904F071FE5E
:105830007C4906A804F063FC06A8FCF7A5F806A8B6
:1058400004F016FC06F00EFB0122492106F0D2F806
:10585000002800F0B9800021704801F0B8F8002855
:1058600000F0B2800024A246274626464FF00A08E0
:105870000021634801F001FA01210644604801F06B
:10588000FCF9022107445E4801F0F7F90321824444
:105890005B4801F0F2F9B8F101080444E8D10A23A9
:1058A00094FBF3F496FBF3F697FBF3F79AFBF3FA0A
:1058B000544B2046D3F8008007F020FA414607F009
:1058C00071FA8146304607F019FA414607F06AFA44
:1058D0000146484607F05CF9534907F017FB834639
:1058E000384607F00BFA414607F05CFA0146484695
:1058F00007F04EF94D4907F009FB8046FBF7F8FD2C
:105900004B4907F0F7FB20B14146584607F040F9F4
:105910001FE0FBF7EDFD474907F0ECFB20B14146E6
:10592000584607F037F914E0404606F091FD2CA3E5
:10593000D3E9002306F0E0FD80465846894606F08C
:1059400087FD02460B464046494606F023FC07F019
:10595000CBF806F07DFD24A3D3E9002306F0F6FE84
:1059600007F0C2F802220146804606A804F061FC56
:1059700006A902A804F00DFC06A804F079FB019B1F
:105980000121188806F0D1F92B6813B305F05AFEEF
:10599000294904F0ABFD05F055FE32462749FFF7D3
:1059A000ACFC05F04FFE3A462549FFF7A6FC05F092
:1059B00049FE52462349FFF7A0FC05F043FE22466C
:1059C0002149FFF79AFC04E0204902A804F0E9FB12
:1059D000D5E702A804F04CFB40460BB0BDE8F08FC1
:1059E00052B81E85EB51E83FB6F3FDD478E9D63FB7
:1059F000F80A0020DC2F090893210908A7210908CB
:105A0000C00A0020A400002000007A440000F43FF7
:105A10000000E03FCA210908DC2109082C0200200F
:105A2000F5210908192209080000F0C2000016C378
:105A3000000070410000C8412C22090841220908D9
:105A40004E2209085B22090869220908F909090898
:105A50009C00002070B50F4B0F4C1B6813B9FFF76B
:105A60007FFE01E0FBF740FE0C4B2060186807F05A
:105A700045F90B4B06461968206807F093F9094968
:105A80000546304607F042FA0146284607F082F8FC
:105A9000206070BDF4060020040B0020E807002001
:105AA000E801002000007A4410B5094C05F0CAFD59
:105AB00003681B69984748B9FFF7CCFF206005F0E1
:105AC000C1FD22680349FFF709FCEFE710BD00BFE5
:105AD000040B002079220908F0B5AC4C3023AC4E01
