:020000040808EA
:100000000000080814FB0808000006000A000501AB
:080010000402E60C00000000F0
:04001800B0D3080851
:1000200008B5024B1B689B6D019308BD2C000608A8
:1000300008B5024B1B685B6E019308BD2C000608D7
:1000400009480A4908B5884205D0094A824202D0C7
:10005000121A0BF07CF90748074A0021121A0BF01C
:1000600084F9064808BD00BF000000203CF80808DD
:10007000B0020020B0020020550C0020550C0020DA
:1000800070B508F08FFF0025054E064CA41BA40890
:10009000AC4200D170BD56F8043B98470135F7E7F4
:1000A000FCF7080824F8080802F016BA08B504F0AE
:1000B000FBFBBDE8084008F02DBF07F085BD07F049
:1000C00083BD07F089BD0078B0FA80F04009704721
:1000D00001230370704748B1836C3BB1C36C2BB1F3
:1000E000006DB0FA80F04009404270474FF0FF3099
:1000F000704773B502460846FFF7EDFF0C4605460C
:1001000040BB12F0800F14BF00231023CA789A421C
:1001100020D0CB708E6C0123F32160780DF10702A3
:10012000B04784F8540098B99DF80720E37822F08E
:10013000100203F0100313438DF8073073210123DD
:10014000E66C60780DF10702B04784F8540008B1FE
:100150006FF00105284602B070BD37B50446FFF7C1
:10016000BAFF70B90123F321A56C60780DF1070285
:10017000A84784F8540030B99DF8073003F0100305
:10018000E37003B030BD6FF00100FAE703788B42F3
:1001900084BF017092F846304FF0000084BF43F0F6
:1001A000020382F8463070472DE9F84306461846A8
:1001B0001D46FFF790FF884691460446A8B9AB78E4
:1001C0003BB929463046FFF794FF044608B946F08C
:1001D00080064B4642463146AF6C6878B8470028E7
:1001E00018BF6FF0010485F854002046BDE8F8837D
:1001F0002DE9F0471C460F4600218AB0064690467E
:1002000001A8242200910BF0B0F82046FFF763FF0D
:10021000E8B908F1FF33122B33D8EA4681461FFABA
:1002200088F81FFA89F3434514D380B94FEA48028E
:10023000013A93B2E56C9DF8001060780DF101026F
:10024000A847002884F8540018BF6FF001000AB0D6
:10025000BDE8F087A37816F809503BB92846214637
:10026000FFF747FF16F8095005F07F0517F809302A
:100270008AF800508AF8013009F101090AF1020AEE
:10028000CFE76FF00300E2E7E02337B58DF80630E3
:10029000B62305468DF80730FFF71DFF044670B9F9
:1002A000AB787BB12B4601220DF107010DF1060061
:1002B000FFF79EFF04462B6D0A2098474CB120465D
:1002C00003B030BD2846FFF748FF04460028F6D1AA
:1002D000E8E7AB78002BF2D12846FFF73EFF044653
:1002E000EDE730B58DB00546FFF7F5FE0446002872
:1002F00040F0AF802846FFF7C7FF0446002840F0D3
:10030000A8802B4601222946D020FFF74DFF044646
:10031000002840F09E802B78612B40F09D800146A4
:100320000190252202A80BF020F828468DF8034002
:10033000FFF7D1FE0446002840F08B802B4619229F
:10034000892001A9FFF730FF044638B92B46102257
:10035000E1200DF11D01FFF727FF0446BDF8253010
:100360009DF81F10EB82BDF805302B839DF80730F8
:10037000AB76BDF80930AB83BDF80B30EB839DF84D
:100380000D3085F82030BDF80F306B84BDF811308A
:10039000AB849DF8143085F826309DF8133085F82D
:1003A0002730BDF817302B85BDF819306B859DF8C7
:1003B0001B3085F82C309DF81E3003F00F0242EA06
:1003C00001122A819DF81D201B0943EA02136B814B
:1003D0009DF820302B739DF821306B739DF82230EF
:1003E000AB739DF82330EB739DF824302B749DF88C
:1003F00029306B74BDF827306B829DF82A302B753D
:1004000014BB2B46012202200DF10301FFF7CCFEA5
:100410009DF803300446C3F3011385F8343098B9CE
:100420002B4601220DF10301FFF7BEFE9DF80330BC
:10043000044685F8353038B92B46012204200DF1E9
:100440000301FFF7B1FE04469DF903301B1185F847
:10045000363020460DB030BD6FF00204F9E774234A
:1004600037B504468DF80730FFF735FEA0BB0546CB
:100470002346012274200DF10601FFF795FEA0B975
:100480009DF8063013F0030511D023F003038DF817
:100490000630012223460DF106010DF10700FFF79A
:1004A000A7FE0A20236D9847E2E7002DE0D194F8DB
:1004B00044208AB19DF8063002F0030223F00303C2
:1004C00013438DF8063038B9234601220DF1060199
:1004D0000DF10700FFF78CFE03B030BD0023F0B52F
:1004E000064689B008460C468DF807300493ADF8EF
:1004F00014300693ADF81C30FFF7EDFD002840F0F6
:10050000F88016F0080391F8447005D181F8443062
:100510002046FFF7A4FF07E0012FADF80C0000F024
:10052000EA8081F84400012016F010051ED0224612
:10053000072104F13B00FFF729FE28B923460122D9
:1005400075206944FFF730FE94F83B309DF8072092
:100550009B0022F01C0203F01C03134375220125AB
:100560008DF807308DF810208DF81830B30621D59E
:100570002246082104F13D00FFF708FE30B923466A
:10058000012270200DF10701FFF70EFE70219DF88A
:10059000073094F83D2023F0080302F008021343CB
:1005A00008AA2A4401358DF8073002F8101C02F819
:1005B000083CEDB2B10732D02246052104F13900E2
:1005C000FFF7E4FD30B92346012274200DF1070145
:1005D000FFF7EAFDF20709D59DF8073094F83920B6
:1005E00003F01F0343EA42138DF80730B3070BD51E
:1005F00094F83A309DF807209B0003F01C0322F08A
:100600001C0213438DF80730742208AB2B4403F807
:10061000102C9DF80720013503F8082CEDB2710766
:1006200021D52246052104F13800FFF7AFFD30B98E
:100630002346012272200DF10701FFF7B5FD72215B
:100640009DF8073094F8382023F0070302F00702E2
:10065000134308AA2A4401358DF8073002F8101C0C
:1006600002F8083CEDB216F0C00F39D02246012145
:1006700004F13E00FFF78AFD60B90A2104F13C0055
:10068000FFF784FD30B92346012271200DF10701E7
:10069000FFF78AFD72060BD594F83E309DF80720CF
:1006A0001B0103F0100322F0100213438DF80730F2
:1006B00033060AD59DF8073094F83C2023F00F0349
:1006C00002F00F0213438DF80730712208AB2B4460
:1006D00003F8102C9DF80720013503F8082CEDB223
:1006E00028B923462A4606A904A8FFF781FD84F805
:1006F000447009B0F0BD5A238DF80830B1F840308D
:10070000B1F91220B3F5C87F28BF4FF4C873C82BC6
:1007100038BFC82302F5163202F29912534314224D
:10072000B3FBF2F30A2203F54813B3FBF2F391F99A
:10073000112002F544725A4391F9043091F91410D2
:100740004B434FF47A7193FBF1F383211B0203EBCC
:10075000620394F834200432B3FBF2F394F93520A9
:100760004A4302F58032B3FBF2F32222FA3B5343B1
:100770006422323393FBF2F38DF80C30B4F842303C
:100780008DF80920B3F57C6F1AD23F2BC2B200F16D
:10079000010013D803EB8213DBB200258DF80D3076
:1007A0000222234684F83C5003A902A8FFF720FD4B
:1007B00084F8445000287FF4B7AEA9E69B08E4E72C
:1007C000FF23EAE713B5184B024618689B8891F897
:1007D0003A40ADF8043091F83930009002A8034453
:1007E000044413F8083C14F8080C02AC184491F8BF
:1007F0003830234413F8083C40F2AB74184441F2FB
:10080000B92304FB00334FF47A70B3FBF0F30133E8
:100810009BB2138091F83E0018B1B1F842100B441E
:10082000138002B010BD00BFC4D308082DE9F04FFB
:10083000064689B00846FFF74EFC0C4605460028E0
:1008400040F059810690CDE90400CDF81B00084620
:10085000FFF741FC0A270546002D40F0538123464F
:100860000F2204A91D20FFF79FFC9DF810E09DF9C1
:100870001EC09DF818200EF00F030CF020012EF082
:100880007F0E01924EEA01019DF819200CF0100C28
:1008900041EA0C0149B2737002929DF811309DF843
:1008A0001D2000290546B37003929DF812809DF823
:1008B00013909DF814309DF815A09DF816B09DF882
:1008C00017009DF81E20317080F21981000940EA5E
:1008D0000B1B4BEA0A3AB4F816B094F91AC04FEA67
:1008E0004B0BCBEBDA0A4FEAEA714FEA5A0040EAC7
:1008F000C17000FB01F7A0FB000101EB4701000BF9
:1009000040EA01504FEA0C174FEAEC7C00FB0CFC6C
:10091000091307FB01CCA0FB07708444B4F918004D
:100920001B0980FB0A0A4FEAD02EB80B4EEA4A5E3A
:1009300040EA8C407044206300EB8000803000125D
:10094000B080216B43EA09134F10A7F57A474FEAAD
:10095000A70C0CFB0CFC94F926104FEAEC20414349
:10096000B4F9240043EA08337843B4F92280400004
:1009700000EBA1004FEA084808EBA00040F635481C
:10098000B4F91E104FEA6C3C4F4394F92010C3F5A4
:10099000801349010CFB01F1C91001EB67018914B7
:1009A000A78B01F500417943A3EB203308FB03F348
:1009B000C913B3FBF1F343F39C014943B4F92A7023
:1009C000B4F928C049134F4343F35D010CFB01F117
:1009D00043F3D710491301EB273100FB00F77843AD
:1009E00094F82C70784301EB604194F9270001EBF7
:1009F000C0116420091101EB4303B360216B94F92A
:100A00000E3001EB8101803109124B4393FBF0F36F
:100A100094F90D704B434F439B1197FBF0F793FBF9
:100A2000F0F33B44678903F580437B43DDE901C76D
:100A300047EA0C27B4F808C09B12A7EB0C1794F9EF
:100A40000CC001FB0CFC9CFBF0FCA7EB6C077B4390
:100A500094F910704FF0050C794391FBF0F0E17BB5
:100A600002F00F0700EBC1109913494300118912DE
:100A700048434FF47A7103EB60039B124B432A49BE
:100A80001B1323EAE3738B42D4BFF360F16040F29F
:100A90003C51002394F936009209CCFB0013234803
:100AA00050F82700A1FB001C00FB03C30398090CAE
:100AB00042EA8002D20341EA034112F17F4260EB35
:100AC000000052184FEA234C40EB2343184850F8DB
:100AD0002770A7FB010107FB0C1C400A570840EADE
:100AE000CC5047EAC3775910C01941EB6C210AF08A
:100AF000C5F930616DB1284609B0BDE8F08F0A2014
:100B0000236D9847013F17F0FF077FF4A5AE02253C
:100B1000F1E796F90030002BB6BF012384F8455069
:100B200084F84530E7E700BFA08601000000002000
:100B30004000002070470246037C13F008001EBFEF
:100B4000506AD36A181A0028B8BF6FF00040704787
:100B50007047704710B504462C21FFF7B2FA2046C3
:100B600010BD10B504463421FFF7ABFA204610BD86
:100B7000002313B5ADF8063007F008FD98280446A9
:100B80000BD809F0DFF8204602220DF1060106F02D
:100B900085FDBDF8060002B010BD4FF0FF30FAE74A
:100BA000083005F01FBD103005F01CBD07B501224F
:100BB0008DF8071010300DF1070105F013FD03B09B
:100BC0005DF804FB00F2644005F059B900F264409E
:100BD00005F08DB800F2644005F0CBB800F2644037
:100BE00005F03DB8103005F073BC103005F0A4BB23
:100BF00007B501220DF10701103005F0EEFA0128CA
:100C000014BF4FF0FF309DF8070003B05DF804FB00
:100C100070B506460C4615462AB9BDE87040036813
:100C2000C9B29B68184700290BDA0A2A09D12D217D
:100C300007F0FEFC61423046EAB2BDE8704007F0C2
:100C40001ABD2146F7E710B50446FFF7E1FF20463D
:100C5000BDE8104007F0EFBC704707B501228DF8E2
:100C6000071008300DF1070105F0BCFC03B05DF87A
:100C700004FB0EB403B503AB53F8042B002101931E
:100C800007F0F4FD02B05DF804EB03B070470EB45A
:100C90004FF0200C002300B58CB00DAA52F8041BB5
:100CA000CDE904C3CDE900120392016804AA1E2015
:100CB00006F084FE0CB05DF804EB03B07047000052
:100CC00010B50E4C86B02378BFF35B8FDB0711D4D1
:100CD0002046FFF7F8F968B101A809F003F80321ED
:100CE00001AA074808F0F6FD2046FFF7F1F905488C
:100CF0000AF010FB024806B010BD00BF0003002040
:100D00000C030020350B080810B5FFF7D9FF074B7F
:100D1000044653B108F0F9FD38B1236820461B6939
:100D20009847002801DDAFF3008010BD00000000EF
:100D300010B50E4C86B02378BFF35B8FDB0711D460
:100D40002046FFF7C0F968B101A808F0D1FF0421DF
:100D500001AA074808F0BEFD2046FFF7B9F905488B
:100D60000AF0D8FA024806B010BD00BF0403002004
:100D700020030020590C080810B5FFF7D9FF074BD6
:100D8000044653B108F0C1FD38B1236820461B6901
:100D90009847002801DDAFF3008010BD000000007F
:100DA00038B5044613460A4600F58E6100F26440E9
:100DB00004F0C4FE08B9002038BD04F58865284653
:100DC00005F0BCFB0121204605F0E5FD014668B1B8
:100DD0002146284605F0FBF90028ECD094F8403471
:100DE00013F0700FE7D0044B1D60E5E7204605F0D7
:100DF000D2FD0028ECD1DEE7800A002038B50C4691
:100E0000054609F00DF86B2108F00AFE09F008F814
:100E1000036829469B68984709F002F80368214651
:100E20009B68984708F0FCFFBDE83840012108F0B6
:100E300012BE000037B508F085FF042240F21363AC
:100E40000DEB02010020019306F030FC08F07AFF60
:100E5000042264250DEB02010820019506F026FC12
:100E600008F070FF042210200DEB0201019506F03E
:100E70001DFC08F067FF042298200DEB020101958C
:100E800006F014FC08F05EFF042218200DEB0201AE
:100E9000019506F00BFC08F055FF042220200DEB15
:100EA0000201019506F002FC08F04CFF0422282004
:100EB0000DEB0201019506F0F9FB08F043FF042257
:100EC00030200DEB0201019506F0F0FB08F03AFF2F
:100ED000042238200DEB0201019506F0E7FB08F033
:100EE00031FF042240200DEB0201019506F0DEFBEC
:100EF00008F028FF042200240DEB020110460194A3
:100F000006F0D4FB08F01EFF04220C200DEB0201BA
:100F1000019406F0CBFB08F015FF042294200DEBA2
:100F20000201019406F0C2FB08F00CFF0422142019
:100F30000DEB0201019406F0B9FB08F003FF042257
:100F40001C200DEB0201019406F0B0FB08F0FAFE44
:100F5000042224200DEB0201019406F0A7FB08F007
:100F6000F1FE04222C200DEB0201019406F09EFB01
:100F700008F0E8FE042234200DEB0201019406F093
:100F800095FB08F0DFFE04223C200DEB02010194EA
:100F900006F08CFB08F0D6FE042244200DEB020183
:100FA000019406F083FB08F0CDFE042248200DEBEF
:100FB0000201019406F07AFB08F0C4FE04225820D6
:100FC0000DEB0201019406F071FB08F0BBFE042258
:100FD00051495C2006F06AFB08F0B4FE04224FF48D
:100FE0007A730DEB02014C20019306F05FFB08F0D1
:100FF000A9FE042242F210730DEB0201502001936E
:1010000006F054FB08F09EFE04226FF006030DEB81
:1010100002015420019306F049FB404B186809F087
:10102000EDFC07F0EDFC08F08DFE042260200DEBD6
:101030000201019406F03AFB08F084FE04222846DF
:101040000DEB0201019406F031FB08F07BFE042257
:1010500001250DEB02016820019506F027FB08F041
:1010600071FE04226C200DEB0201019406F01EFBC0
:1010700008F068FE042270200DEB0201019406F0D6
:1010800015FB08F05FFE042274200DEB02010195B0
:1010900006F00CFB08F056FE042278200DEB02014E
:1010A000019506F003FB08F04DFE04227C200DEBB9
:1010B0000201019406F0FAFA08F044FE04228020AE
:1010C0000DEB0201019506F0F1FA08F03BFE042257
:1010D00084200DEB0201019406F0E8FA08F032FEDC
:1010E000042288200DEB0201019406F0DFFA08F0DB
:1010F00029FE04228C200DEB0201019406F0D6FAA1
:1011000008F020FE042290200DEB0201019406F06D
:10111000CDFA03B030BD00BF340A0020240A0020FD
:101120002DE9F347D24C08F00DFE042221460020A1
:1011300006F0B4FA2368013304D140F2136323604C
:10114000FFF778FE08F0FEFD042208200DEB0201F7
:1011500006F0A4FA019809F051FCC64909F056FDC1
:10116000DFF81493DFF81483C9F8000008F0EAFDF3
:10117000042210200DEB020106F090FA019809F00C
:101180003DFCBC4909F042FDC8F8000008F0DAFD5A
:10119000042298200DEB020106F080FA019809F074
:1011A0002DFCB44909F032FDB54FB64E386008F059
:1011B000C9FD042218200DEB020106F06FFA019818
:1011C00009F01CFCAB4909F021FD306008F0BAFDC4
:1011D000042220200DEB020106F060FA019809F0CC
:1011E0000DFCA44909F012FDA74DA84C286008F099
:1011F000A9FD042228200DEB020106F04FFA019808
:1012000009F0FCFB9B4909F001FD206008F09AFD04
:10121000042230200DEB020106F040FA019809F09B
:10122000EDFB944909F0F2FC994BDFF868A21860D5
:1012300008F088FD042238200DEB020106F02EFA9A
:10124000019809F0DBFB8B4909F0E0FC924B186038
:1012500008F078FD042240200DEB020106F01EFA92
:10126000019809F0CBFB834909F0D0FC8B4B186047
:1012700008F068FD04228A49104606F00FFA08F0CB
:1012800061FD042287490C2006F008FA08F05AFD97
:1012900004228549942006F001FA08F053FD042247
:1012A0008249142006F0FAF908F04CFD0422804926
:1012B0001C2006F0F3F908F045FD04227D492420A6
:1012C00006F0ECF908F03EFD04227B492C2006F0E4
:1012D000E5F908F037FD04227849342006F0DEF9FC
:1012E00008F030FD042276493C2006F0D7F908F0DA
:1012F00029FD04227349442006F0D0F908F022FDAC
:1013000004227149482006F0C9F908F01BFD0422A7
:101310006E49582006F0C2F908F014FD04226C4909
:101320005C2006F0BBF908F00DFD042269494C2051
:1013300006F0B4F908F006FD04226749502006F0D3
:10134000ADF908F0FFFC042254200DEB020106F079
:10135000A5F9019809F052FB07F052FB08F0F2FCE6
:1013600004225E49602006F099F908F0EBFC0422A3
:101370005B49642006F092F908F0E4FC0422594924
:10138000682006F08BF908F0DDFC042256496C2039
:1013900006F084F908F0D6FC04225449702006F0C7
:1013A0007DF908F0CFFC04225149742006F076F94B
:1013B00008F0C8FC04224F49782006F06FF908F0C5
:1013C000C1FC04224C497C2006F068F908F0BAFC04
:1013D00004224A49802006F061F908F0B3FC042297
:1013E0004749842006F05AF908F0ACFC042245492C
:1013F000882006F053F908F0A5FC042251468C2001
:1014000006F04CF908F09EFC042290203E4906F0BC
:1014100045F9DAF8003013B1002007F0F1FA41F293
:101420008731334AD9F800001368013B8B4288BFEB
:1014300001234FF0000188BF136009F0C7FC18B109
:101440004FF07E53C9F800300021D8F8000009F0B1
:10145000BDFC18B14FF07E53C8F800300021386849
:1014600009F0B4FC002851D04FF07E533B604DE0B2
:10147000800000200000C842B8020020C8020020FE
:10148000CC020020E4020020EC020020DC0200205C
:10149000280A0020F80900207005002078050020A7
:1014A000BC020020D4020020D8020020E802002064
:1014B000F0020020E00200202C0A00207405002029
:1014C0007C050020FC090020C80300203005002016
:1014D000340A0020980000209C000020300A0020E0
:1014E00028050020240500202C05002034050020BC
:1014F0002005002044030020340300208C04002039
:10150000D002002044040020C003002000213068E5
:1015100009F05CFC10B14FF07E5333600021286865
:1015200009F054FC10B14FF07E532B60002120686D
:1015300009F04CFC10B14FF07E53236002B0BDE8BF
:10154000F08700BF38B5124B1B681BB10121114851
:1015500003F006FE0F4803F0D9FD09F04FFA0E4CD8
:1015600000210546206009F031FC0C4B70B11B686E
:1015700023600B4B186809F041FA216809F08AF9D9
:10158000084B196809F08EFA206038BD1D60F0E73D
:10159000C8030020200A0020B0020020B40200206E
:1015A000BC020020B802002010B508F09DF80368C6
:1015B0001B69984790B9FFF7BBFB03681B69984705
:1015C0000028F2DDFFF7B4FB03685B699847044627
:1015D00008F08AF8E1B207F02BF8E6E710BD00004A
:1015E0002DE9F34106460D4600240F4F01F1FF3867
:1015F000AC4212D03946325D01A806F0FDFA08F07F
:1016000073F801A907F010F8A04504D008F06CF8B1
:10161000202107F00DF80134EAE708F065F807F03B
:101620000AF802B0BDE8F081CAD30808F8B504464C
:101630000D4606460F18BE4207D0FFF779FB036838
:1016400016F8011B9B689847F5E729462046BDE838
:10165000F840FFF7C5BF00001FB5084A01ABD2F83C
:101660000E00D2F81210D28A03C30A2101A81A80F0
:10167000FFF7DCFF05B05DF804FB00BF2CF00808A5
:101680001FB5074A01AB9069D169128C03C30A21C7
:1016900001A81A80FFF7CAFF05B05DF804FB00BF80
:1016A0002CF008080000000038B52F4B1D682F4BA8
:1016B0001B680BB32E4B588909F09CF92D4909F092
:1016C000A5FA2D4909F0EEF92C4909F0E1F8044694
:1016D00025B108F009F82A4906F0B9FF294B204640
:1016E000196809F0DFF90446274B186809F086F9F4
:1016F000214609F0CFF838BD244B1B6813B325B140
:1017000007F0F2FF224906F0A2FF0B2008F0B1FA21
:1017100009F074F908F018FD0FA3D3E9002308F0CD
:101720006BFD09F061F84FF07C5109F0B1F808F059
:101730000BFD0BA3D3E9002308F088FE09F054F851
:101740000446CBE725B107F0CFFF124906F07FFF33
:10175000114B1C68C2E700BF2D431CEBE2364A3F29
:101760007B14AE47E17A843FC80300208C0400203C
:101770008004002000F87F4600002543000020423E
:10178000CFD30808280A00202C0A002024050020B6
:10179000F0D308080FD40808480300200000000018
:1017A0002DE9F04FDFF8409289B068468F4906F086
:1017B000B3FDD9F8003023B107F096FF8C4906F04D
:1017C00046FF8C4F0021388808F027FA08F004FB08
:1017D00001224A2108F01DF940BB07F085FF864928
:1017E00006F035FF0021854803F0EFF938B9D9F844
:1017F000003023B107F078FF814906F028FF08F098
:10180000EBFA01224A2108F004F9002838D1684691
:101810007C4906F0D3FD0121388808F0FEF96846BE
:1018200006F030FD284609B0BDE8F08F0321764868
:1018300003F012FB09F0E2F8744B196809F032F971
:101840007349044609F0E2F9804608F07DFC002265
:10185000704B08F019FB21F0004B002259466E4BEB
:1018600008F05AFF0028BDD007F03EFF6B4906F094
:10187000DBFE07F039FF0222414606F0E9FFB1E73F
:1018800000215E4803F0A1F90028C0D0204660493D
:1018900009F0BCF908F058FC00225E4B08F0F4FA9D
:1018A00021F00049002249465B4B08F035FF044611
:1018B0000028ACD14FF00A0881468246524D0021E3
:1018C000284603F0C9FA01218244284603F0C4FAED
:1018D00002218144284603F0BFFA0321284603F081
:1018E000BBFAB8F101080444E9D14FF00A0B474BA9
:1018F000B4FBFBF0D3F8008009F080F8414609F012
:10190000D1F80446BAFBFBF009F078F8414609F03B
:10191000C9F80146204608F0BBFF414909F076F9B5
:101920000546B9FBFBF009F069F8414609F0BAF841
:101930000146204608F0ACFF3A4909F067F9044631
:10194000FFF7B2FE384909F055FAE0B121462846C2
:1019500008F09EFF0646304608F0F6FB1EA3D3E9CA
:10196000002308F073FD08F03FFF02220146054600
:1019700004A806F047FD684604A906F017FD04A870
:1019800006F080FC47E7FFF78FFE284909F032FA9E
:1019900020B12146284608F07DFFDBE7FFF784FEF3
:1019A000224909F03BFA0028D5D0204608F0CCFBAC
:1019B0000BA3D3E9002308F01FFC80462846894684
:1019C00008F0C2FB02460B464046494608F05EFA64
:1019D00008F00AFFBEE700BFB6F3FDD478E9D63FB2
:1019E00052B81E85EB51E83FC8030020D9F1080822
:1019F0003BD40808C400002051D4080892040020F9
:101A000086D40808ADD408083E03002084000020D6
:101A100000007A440000F43F0000E03F76D408085C
:101A20000000F0C2000016C3000070410000C84171
:101A300010B5FFF7B5FE084B196809F033F80446F6
:101A4000064B186808F0DAFF054909F0DFF821466F
:101A500008F020FF10BD00BFCC020020D8020020FB
:101A600000007A4430B50222044685B00C211D489E
:101A7000FFF796F968B307F037FE1B4906F0E7FD5C
:101A80001A4A1B491B4D4623126809681A4804F07C
:101A90005CFD2B689BB91949194806F0D8FD07F081
:101AA000E6F8C3170246684606F0DCFF00991448C2
:101AB00006F0CDFD684606F0E5FB01232B602168AA
:101AC0000F4806F0C4FD0C4805B0BDE8304004F0F6
:101AD00035BD07F009FE0B4905B0BDE8304006F002
:101AE000B6BD00BF80050020B1D40808D80400208E
:101AF000800A002014050020F0040020CBD4080840
:101B0000E8040020E2D408082DE9F0418CB06846D2
:101B1000964906F001FC964FDFF85082954EFFF78C
:101B200007F90D22014608A806F0FCFE08A9684640
:101B300006F03CFC08A806F0A5FB07230422694632
:101B400004A806F001FD394604A806F0DFFC0546AE
:101B5000002853D14146684606F0D8FC04460028C8
:101B60004FD007F0C1FD314606F071FD314608A89F
:101B700006F0D2FB08A8FFF775FF08A806F082FB65
:101B8000012404A806F07EFB85B300242746DFF875
:101B9000E8817A4E029BA3422AD92146684606F084
:101BA000D0FC2C2804F101051ED167BB29466846EC
:101BB00006F0C7FC2C2816D004F10B032A46694610
:101BC00008A806F0C1FC6E4B1B684BB107F08CFDFA
:101BD0006C4906F029FD07F087FD089906F037FDEE
:101BE00008A806F04FFB01372C46D3E7002C96D00F
:101BF000684606F047FB0CB0BDE8F08100240125E3
:101C0000BFE70546BDE7012F2FD12946684606F0FC
:101C100098FC2C28E7D004F10A032A46694604A858
:101C200006F092FC564B1B684BB107F05DFD564920
:101C300006F0FAFC07F058FD049906F0F5FC04A93B
:101C400008A806F0A8FB04F10C01684606F079FC30
:101C500008A90246404603F029F908A806F012FB3D
:101C6000338823F0080333802CE0032F2CD129463E
:101C7000684606F066FC2C28B5D004F10B032A4612
:101C8000694604A806F060FC3D4B1B684BB107F0A9
:101C90002BFD3E4906F0C8FC07F026FD049906F02E
:101CA000C3FC04A908A806F076FB04F10D01684600
:101CB00006F047FC08A90246404603F03FF908A891
:101CC00006F0E0FA04A88CE7062F14D129466846EE
:101CD00006F037FC2C2886D02A466946E31C04A867
:101CE00006F032FC04A908A806F055FB404608A9F6
:101CF00003F06AF9E3E7072F7FF475AF29466846DA
:101D000006F01FFC2C283FF46EAF2A46E31C694600
:101D100004A806F019FC04A908A806F03CFB08A9D1
:101D2000404603F059F908A806F0ACFA338840465B
:101D300023F00C03338003F067F9012803DC3388B8
:101D400043F00C038FE7404603F05EF9042803DC00
:101D5000338843F0080386E7404603F055F913281B
:101D6000B0DC338843F004037DE700BFFED40808ED
:101D700003D5080807D5080848040020100A0020E9
:101D8000C803002019D508082AD508083CD508083A
:101D90002DE9F0418CB068468A4906F0BDFA8A4FB9
:101DA000DFF82082894EFEF7C3FF0D22014608A806
:101DB00006F0B8FD08A9684606F0F8FA08A806F08B
:101DC00061FA07230422694604A806F0BDFB3946E0
:101DD00004A806F09BFB0546002854D141466846FE
:101DE00006F094FB0446002850D007F07DFC3146F5
:101DF00006F02DFC314608A806F08EFA08A8FFF779
:101E000031FE08A806F03EFA012404A806F03AFACA
:101E10008DB300242746DFF8B8816E4D029BA342A4
:101E20002BD92146684606F08CFB2C2804F10106CC
:101E30001FD1062F2CD13146684606F082FB2C2894
:101E400016D004F10B033246694608A806F07CFB65
:101E5000614B1B684BB107F047FC604906F0E4FB9F
:101E600007F042FC089906F0F2FB08A806F00AFA0F
:101E700001373446D2E7002C95D0684606F002FAC6
:101E80000CB0BDE8F08100240125BEE70546BCE7A3
:101E9000012F2FD13146684606F053FB2C28E7D09E
:101EA00004F10A033246694604A806F04DFB4A4B8A
:101EB0001B684BB107F018FC494906F0B5FB07F069
:101EC00013FC049906F0B0FB04A908A806F063FA15
:101ED00004F10C01684606F034FB08A902464046AE
:101EE00002F0E4FF08A806F0CDF92B8823F00803E0
:101EF0002B802CE0032F2CD13146684606F021FBC5
:101F00002C28B5D004F10B033246694604A806F02C
:101F10001BFB314B1B684BB107F0E6FB314906F068
:101F200083FB07F0E1FB049906F07EFB04A908A8F7
:101F300006F031FA04F10D01684606F002FB08A92B
:101F40000246404602F0FAFF08A806F09BF904A8F2
:101F50008CE7072F8CD13146684606F0F2FA2C2820
:101F600086D03246E31C694604A806F0EDFA04A9BF
:101F700008A806F010FA08A9404603F02DF808A8B2
:101F800006F080F92B88404623F00C032B8003F0E9
:101F90003BF8012803DC2B8843F00C03A8E74046FC
:101FA00003F032F8042803DC2B8843F008039FE792
:101FB000404603F029F81328C9DC2B8843F00403BA
:101FC00096E700BFFED4080861D508084FD5080879
:101FD00048040020100A0020C803002019D5080872
:101FE0002AD508083CD508082DE9F04FDFF890A263
:101FF0008BB0A44902A806F08FF9DAF8003023B1BB
:1020000007F072FBA04906F022FBA04B00211888C4
:1020100007F003FE07F0E0FE0122492107F0F9FC7A
:10202000002860D1DAF8003073B107F05DFB984901
:1020300006F00DFB964906A806F06EF906A8FFF714
:1020400011FD06A806F01EF90021924802F0BDFD20
:1020500088B9DAF8003073B107F046FB8E4906F014
:10206000F6FA8E4906A806F057F906A8FFF7FAFC1B
:1020700006A806F007F907F0AFFE0122492107F094
:10208000C8FC00285CD1864902A806F097F97F4B6E
:102090000121188807F0C1FDDAF80030E3B107F03C
:1020A00023FB804906F0C0FA07F01EFB32467E494A
:1020B000FEF7DFFD07F018FB2A467C49FEF7D9FD45
:1020C00007F012FB3A467A49FEF7D3FD07F00CFB06
:1020D00022467849FEF7CDFD02A806F0D3F8404627
:1020E0000BB0BDE8F08F0321734802F0B5FE044643
:1020F00008F084FC714B196808F0D4FC704908F0B2
:1021000085FD08F021F802460B46CDE900230022A8
:102110006C4B07F0B9FE00226B4B21F0004108F038
:10212000FBFA002890D0DAF80030002B8CD007F0B2
:10213000DBFADDE900236549FEF79BFD64497AE798
:102140000021544802F041FD00289CD000244FF0AB
:102150000A092746A0462646574D0021284602F088
:102160007BFE01210644284602F076FE02218044CF
:10217000284602F071FE03210744284602F06CFE57
:10218000B9F101090444E8D10A20B4FBF0F44B4B47
:10219000B8FBF0F5D3F80090B6FBF0F6B7FBF0F71C
:1021A000204608F02BFC494608F07CFC804630466F
:1021B00008F024FC494608F075FC0146404608F04A
:1021C00067FB444908F022FD8346284608F016FCC8
:1021D000494608F067FC0146404608F059FB3E4975
:1021E00008F014FD8046FFF75FFA3C4908F002FE54
:1021F000D0B14146584608F04BFB07F0A5FF1CA3A1
:10220000D3E9002308F022F908F0EEFA0222014691
:10221000804606A806F0F6F806A902A806F0C6F859
:1022200006A806F02FF832E7FFF73EFA2C4908F02F
:10223000E1FD20B14146584608F02CFBDDE7404661
:1022400007F082FF0CA3D3E9002307F0D5FF8046F7
:102250005846894607F078FF02460B4640464946F5
:1022600007F014FE08F0C0FAC7E700BFAFF3008024
:10227000B6F3FDD478E9D63F52B81E85EB51E83F5E
:10228000C8030020D9F1080865D50808C00000205F
:1022900079D5080891040020C9D50808EDD50808AB
:1022A000ADD4080800D6080815D6080822D60808B4
:1022B0002FD608083DD608083803002084000020E7
:1022C00000007A440000F43F0000E03F9ED508087B
:1022D000B0D508080000F0C2000016C3000070412D
:1022E0000000C84110B5FFF77FFE084B196808F0E1
:1022F000D9FB0446064B186808F080FB054908F036
:1023000085FC214608F0C6FA10BD00BFC8020020B7
:10231000D402002000007A4410B590B01D4908A8EE
:1023200005F0FAFF1C4904A806F035F804A908A82E
:1023300006F0CCF8194906F0D5F8044618490CA85F
:1023400006F029F80CA9204606F0C0F8154906F059
:10235000C9F80146684606F01EF80CA805F092FF81
:1023600004A805F08FFF08A805F08CFF07F0BCF962
:102370000D4906F06CF907F0C1FC009906F067F909
:1023800007F0B2F9094906F062F9684605F07AFFEC
:1023900010B010BD4DD60808000A00201ED908084C
:1023A0003805002033EF080850D6080874D608080E
:1023B00010B52C4C0121208807F02FFCFA2006F0E4
:1023C000B7FC0021208807F028FCFA2006F0B0FCBA
:1023D0000121208807F021FCFA2006F0A9FC002149
:1023E000208807F01AFCFA2006F0A2FC01212088C0
:1023F00007F013FCFA2006F09BFC0021208807F070
:102400000CFCFA2006F094FC0121208807F005FC62
:10241000FA2006F08DFC0021208807F0FEFBFA2050
:1024200006F086FC0121208807F0F7FBFA2006F071
:102430007FFC0021208807F0F0FBFA2006F078FCF2
:102440000121208807F0E9FBFA2006F071FC2088C2
:10245000002107F0E2FBBDE810406B210720FEF7EA
:10246000CDBC00BFCC000020F8B5174F174E388800
:10247000174D002107F0D1FB164C3088002107F0E2
:10248000CCFB2888002107F0C8FB0021208807F03A
:10249000C4FB4FF47A7006F04BFC3888012107F03A
:1024A000BCFB3088012107F0B8FB2888012107F028
:1024B000B4FB2088012107F0B0FBBDE8F8404FF4E1
:1024C0007A7006F035BC00BF90000020C8000020E4
:1024D000880000208C0000204FF4DA4270B5C54B14
:1024E000A8B0C549C54D01A81A80C54E05F014FF16
:1024F000072006F01BFC0121288807F07DFB012145
:10250000308807F079FBBF4B0121188807F074FB76
:10251000BD4B0121188807F06FFBBC4B01211888C7
:1025200007F06AFBBA4B0121188807F065FBB94B2D
:102530000121188807F060FBB74B0121188807F0CC
:102540005BFBFEF7EDFDB54805F0ADFB41F2700118
:10255000B24805F0DCFCB14805F084FCB04C3421F5
:102560000020FEF74BFC1B210120FEF747FC204614
:1025700002F0D2FB94F82130002B40F05482FFF798
:1025800017FF0121288807F048FB0121308807F058
:1025900044FB9E4B0121188807F03FFB9A4B012119
:1025A000188807F03AFB9A4B0121188807F035FB91
:1025B000984B0121188807F030FB974B01211888B0
:1025C00007F02BFB8F4B0121188807F026FB954A5B
:1025D0009549964806F073FD0023022294499548D8
:1025E00005F0BAFA07F08AFB4FF4165107F08AF9A2
:1025F000FEF766FB4FF4165107F084F9FEF798FBDF
:102600004FF4165107F07EF9FEF75AFB41F288317C
:1026100006F072F942F2107006F08AFB07F064F8D7
:102620004FF4165107F054F8834B0A22196805A895
:1026300005F0D5FE05A909A805F0ADFE7F4909A85A
:1026400005F050FF044606F05BFB0A2201460DA888
:1026500005F0C5FE0DA9204605F038FF044606F03A
:1026600047FB0A22014611A805F0B9FE11A9204630
:1026700005F02CFF044606F02FFB0A22014615A8A0
:1026800005F0ADFE204615A905F020FF6B4905F0C9
:1026900029FF044606F0FCFA0A22014619A805F0B3
:1026A0009EFE19A9204605F011FF044606F0FCFA2B
:1026B0000A2201461DA805F092FE1DA9204605F03C
:1026C00005FF044606F0FCFA0A22014621A805F09F
:1026D00086FE204621A905F0F9FE594905F002FFC2
:1026E000584C0146204605F047FE21A805F0CAFDDA
:1026F0001DA805F0C7FD19A805F0C4FD15A805F033
:10270000C1FD11A805F0BEFD0DA805F0BBFD09A88F
:1027100005F0B8FD05A805F0B5FD06F0E5FF4A494E
:1027200005F095FF494921A805F0F6FD214621A8AD
:1027300005F0CCFE0146464805F01EFE21A805F036
:10274000A1FD02220C214348FEF72AFB002800F0DD
:102750007E8106F0C9FF404905F066FF06F0C4FF20
:1027600021683E4C05F073FF06F0BEFF3C4905F0C2
:102770006EFF23684BB13A4921A805F0CDFD21A891
:10278000FFF770F921A805F07DFD07F025FB07F0A4
:1027900011F90021288807F040FA0323B0221821FC
:1027A000304802F063FA002840F0558106F09CFFA3
:1027B0002D4905F04CFF23684BB12B4921A805F0AA
:1027C000ABFD21A8FFF74EF921A805F05BFD2748D6
:1027D00002F039FB07F000FB0122492107F019F94B
:1027E000002840F04E8106F07FFF214905F02FFFC1
:1027F00023683FE0100A0020D9F10808C00000203B
:10280000C400002094000020C8000020CC0000205C
:1028100090000020880000208C0000204805002047
:102820004C0500207DD60808710B08089390080815
:10283000D40200208BD6080880000020B1D60808FA
:1028400094D608082C04002099D60808AED60808AB
:10285000D804002080050020B3D60808C803002053
:10286000EFD608089104002013D708083803002089
:1028700079D708084BB1984921A805F04DFD21A84A
:10288000FFF7F0F821A805F0FDFC06F02DFF9349B5
:1028900005F0DDFE23684BB1904921A805F03CFD11
:1028A00021A8FFF7DFF821A805F0ECFC8C4D07F01C
:1028B00093FA07F07FF80021288807F0AEF9032388
:1028C000B0221821874802F0D1F9002840F0DE80BC
:1028D00006F00AFF844905F0BAFE834921A805F0F5
:1028E0001BFD21A8FFF7BEF821A805F0CBFC7F480F
:1028F00002F0A9FA07F070FA01224A2107F089F8DC
:10290000002840F0D98006F0EFFE734905F09FFEE5
:1029100023684BB1704921A805F0FEFC21A8FFF700
:10292000A1F821A805F0AEFC714802F07DFB58B972
:1029300023684BB16F4921A805F0EEFC21A8FFF7F1
:1029400091F821A805F09EFC77216B4804F058FA15
:10295000002840F0B68006F0C7FE684905F077FE13
:1029600023684BB1654921A805F0D6FC21A8FFF7E3
:1029700079F821A805F086FC1C2404215E4804F0A7
:1029800079F902215C4804F082F903215A4804F0E5
:102990008BF90221584804F094F996224FF4A07163
:1029A000554804F059F9FFF75FFD06F09DFE5449C4
:1029B00005F04DFE06F098FE524905F035FE06F092
:1029C00093FE0A224621FEF73EF906F08DFE4E499F
:1029D00005F02AFE06F088FE0A220D21FEF733F9E3
:1029E000FEF73AFE2246002121A808F0BEFC002195
:1029F00021A8ADF8844005F009F823A91DA805F029
:102A00008BFC1D9A41494248FEF741F91DA805F08B
:102A100039FC06F069FE3F4905F019FE01A805F0F2
:102A200031FC28B070BD3C4B1B68012B7FF4A9AD75
:102A30003A4806F0FDF93A4908F0D2F900283FF487
:102A4000A0AD94F82130002B7FF49BAD97E506F004
:102A50004BFE344985E606F047FE334905F0F7FDA5
:102A600023684BB1314921A805F056FC21A8FEF797
:102A7000F9FF21A805F006FC0121288807F0CDF810
:102A8000A5E600212A4802F0E5F9FEE606F02CFE54
:102A9000284905F0DCFD23684BB1264921A805F043
:102AA0003BFC21A8FEF7DEFF21A805F0EBFB01218E
:102AB000288807F0B2F81AE700210C4802F0CAF99A
:102AC00032E706F011FE1C4905F0C1FD2368002B1A
:102AD0003FF452AF184946E779D70808ACD7080841
:102AE000C400002092040020CFD708083E03002035
:102AF000200A002016D808084803002033D8080808
:102B00007ED8080889D8080896D808089ED80808EA
:102B10009C0A0020B1D80808440300203C0400208F
:102B20000000A041D9D608083FD708085DD708089B
:102B300038030020F8D7080867D8080800B5B74B55
:102B40008FB019680A2206A805F049FC06A90AA850
:102B500005F021FCB2490AA805F0C4FC014602A810
:102B600005F019FC0AA805F08DFB06A805F08AFB04
:102B7000AC4B0222196806A805F044FC06A90AA875
:102B800005F009FCA6490AA805F0ACFC014602A81C
:102B900005F07CFC0AA805F075FB06A805F072FBA1
:102BA000A14B0222196806A805F02CFC06A90AA868
:102BB00005F0F1FB9A490AA805F094FC014602A829
:102BC00005F064FC0AA805F05DFB06A805F05AFBB9
:102BD000964B0122196806A805F014FC06A90AA85C
:102BE00005F0D9FB8E490AA805F07CFC014602A835
:102BF00005F04CFC0AA805F045FB06A805F042FBD1
:102C00008B4B586807F0A0FA00228A4B07F01EFC95
:102C10000B4601210246009106A805F00AFC06A910
:102C20000AA805F0B8FB7E490AA805F05BFC01463E
:102C300002A805F02BFC0AA805F024FB06A805F065
:102C400021FB7D4802F0D4F90022002307F03CFD6F
:102C5000002840F0D880784802F0DBF918B97749AD
:102C600002A805F017FC744802F0C2F90B460621D1
:102C70000246009106A805F0DCFB06A90AA805F0AB
:102C80008AFB67490AA805F02DFC014602A805F059
:102C9000FDFB0AA805F0F6FA06A805F0F3FA664867
:102CA00002F0ABF90022002307F00EFD002840F0EF
:102CB000AF80614802F0B0F9012803D15F4902A852
:102CC00005F0E8FB5C4802F098F90B460621024645
:102CD000009106A805F0ADFB06A90AA805F05BFB6C
:102CE0004F490AA805F0FEFB014602A805F0CEFBFD
:102CF0000AA805F0C7FA06A805F0C4FA4E4802F083
:102D00007CF90022002307F0DFFC002840F0A680B9
:102D1000494802F077F90A22014606A805F05FFB50
:102D200006A90AA805F037FB3D490AA805F0DAFB19
:102D3000014602A805F0AAFB0AA805F0A3FA06A816
:102D400005F0A0FA3C4802F058F90022002307F0F1
:102D5000BBFC002840F08780374802F055F907F0A7
:102D6000E1F90022364B07F071FB0B4606210246C3
:102D7000009106A805F05DFB06A90AA805F00BFB6B
:102D800027490AA805F0AEFB014602A805F07EFB24
:102D90000AA805F077FA06A805F074FA294806F0A3
:102DA00047F80222014606A805F02CFB06A90AA84E
:102DB00005F0F1FA1A490AA805F094FB014602A8A9
:102DC00005F064FB0AA805F05DFA06A805F05AFABA
:102DD0001D4B0AA800931D4B1D49D3E9002305F0A4
:102DE000E7FE0AA902A805F051FB0AA805F04AFA75
:102DF00006F07AFC029905F02AFC02A805F042FAD6
:102E00000FB05DF804FB134906A805F085FA34E716
:102E1000114906A805F080FA5EE700BF8000002097
:102E20001ED90808C0020020C4020020B002002001
:102E30004803002000005940480400201BD908081E
:102E4000000024403C04002020D90808180A002073
:102E5000A00A0020A6000020B2000020044902A819
:102E600005F018FB6EE7034906A805F055FA83E75D
:102E70001DD90808A000002038B51D4804F06CFFDB
:102E8000054606F031FC2A461A49FDF7F2FE642D8C
:102E90001FD0962D1FD0B5F5FA7F1FD0B5F5617FF5
:102EA0001FD0B5F5966F40F2DC5407D0A5421BD079
:102EB00040F6B834B5F5FA6F18BF2C46A1B20C48ED
:102EC00004F089FF06F010FC22460B49FDF7D1FE05
:102ED00038BD9624F2E74FF4FA74EFE74FF46174CB
:102EE000ECE74FF49664E9E74FF4FA64E6E700BFD5
:102EF0004805002032D9080850D908087FB52D4868
:102F000004F036FF10F0800F0CBF00254FF4006571
:102F10000446430648BF05F58065860648BF05F5AB
:102F20000075E00648BF05F58075210748BF80356C
:102F3000620748BF4035043406F0D6FB1E492A46D6
:102F4000FDF797FE230658BF0021E0B252BF0C46A2
:102F50004FF40064012110F040021CBF04F58064AE
:102F6000012210F020031CBF012304F5007410F0AF
:102F700010051CBF04F58074012510F008061CBF65
:102F80008034012610F0040018BF01200095CDE91F
:102F90000160084818BF403404F07FFF054804F082
:102FA000E7FE06F0A1FB22460449FDF762FE04B0ED
:102FB00070BD00BF480500206ED9080897D90808E1
:102FC00030B55A4D95B006F08FFB594905F02CFBF2
:102FD000584C06F089FB296805F039FB06F084FBA4
:102FE000554905F021FB06F07FFB216805F02FFB1A
:102FF00006F07AFB514905F02AFB06F075FB4CF20E
:10300000503105F079FC06F06FFB0D220146684651
:1030100005F088FC68464A4905F078FA002874D023
:1030200006F062FB474905F012FB06F05DFB4649DE
:1030300005F00DFB06F058FB4CF2503105F05CFC3E
:1030400006F052FB0D22014604A805F06BFC06F0C9
:103050004BFB3E4905F0E8FA06F046FB049905F003
:10306000F6FA06F041FB3A4905F0F1FA06F03CFBAE
:103070000D22014608A805F055FC364908A805F0C0
:1030800045FA00284CD006F02FFB334905F0DFFA53
:1030900004A9284605F070F906F026FB2F4905F033
:1030A000D6FA06F021FB0D2201460CA805F03AFCE9
:1030B00006F01AFB2A4905F0B7FA06F015FB0C9941
:1030C00005F0C5FA06F010FB0D22014610A805F028
:1030D00029FC204910A805F019FAD8B106F004FB24
:1030E000204905F0B4FA0CA9204605F045F9FFF790
:1030F00013F910A805F0C6F80CA805F0C3F808A845
:1031000005F0C0F804A805F0BDF8684605F0BAF867
:1031100015B030BD06F0E8FA134905F098FAE8E773
:1031200006F0E2FA104905F092FAE8E7000A0020FA
:10313000B5D9080838050020CBD90808E5D9080812
:1031400017DA08081DDA08082FDA08083FDA080835
:1031500057DA08089CE308086DDA08087DDA0808E1
:1031600090DA0808ACDA0808C0DA08081FB506F0DB
:10317000BBFA1A4905F06BFA06F0B6FA4CF2503178
:1031800005F0BAFB06F0B0FA0D220146684605F0DC
:10319000C9FB6846124905F0B9F9C0B106F0A4FAB6
:1031A000104905F054FA06F09FFA0F4905F04FFA5E
:1031B00001230E4C236006F0C5FD042221468C201D
:1031C00004F074FA684605F05DF804B010BD06F02E
:1031D0008BFA074905F03BFAF4E700BFD3DA080899
:1031E00016DB08081DDA080821DB0808F8090020AA
:1031F00042DB080830B589B006F076FA354D05F0A7
:103200001AFA06F071FA344905F00EFA06F06CFA73
:103210000A222968FDF717FD06F066FA2F4905F026
:1032200016FA06F061FA4CF2503105F065FB06F033
:103230005BFA0D220146684605F074FB6846284992
:1032400005F064F900283FD006F04EFA254905F054
:10325000FEF906F049FA244905F0F9F906F044FAB6
:103260000D22014604A805F05DFB04A805F08EF9C7
:10327000044606F039FA1D4905F0E9F942F20C73EB
:10328000A21E9A421AD806F02FFA194905F0CCF975
:1032900006F02AFA0A222146FDF7D5FC2C6006F03A
:1032A00051FD04222946002004F000FA04A804F08D
:1032B000E9FF684604F0E6FF09B030BD06F014FAF5
:1032C0000C4905F0C4F9F1E706F00EFA0A4905F0D9
:1032D000BEF9EEE78000002058DB08086BDB080829
:1032E00017DA08081DDA08089BDB0808D9F1080876
:1032F000B0DB0808C1DB080842DB08081FB506F090
:10330000F3F905F098F906F0EFF9144905F09FF983
:1033100006F0EAF94CF2503105F0EEFA06F0E4F965
:103320000D220146684605F0FDFA68460C4905F095
:10333000EDF860B106F0D8F90A4905F088F9FDF713
:1033400079FD684604F09EFF05B05DF804FB06F0C9
:10335000CBF9054905F07BF9F3E700BFD2DB08089C
:1033600017DA08080BDC080842DB080810B588B03B
:1033700006F0BAF9204905F06AF906F0B5F94CF201
:10338000503105F0B9FA06F0AFF90D220146684652
:1033900005F0C8FA684605F0F9F8044606F0A4F905
:1033A000164905F054F9164B9C421EDDE1172046E4
:1033B00005F044FB06F098F9124905F035F906F0DE
:1033C00093F9044605F053FC0246C31704A805F020
:1033D00049FB2046049905F03AF904A804F052FF8D
:1033E000684604F04FFF08B010BD06F07DF90649AD
:1033F00005F02DF9F4E700BF7ADC0808D9F10808D8
:10340000F52E9439B5DC0808C1DB08087FB506F055
:103410006BF9204905F01BF906F066F94CF25031C2
:1034200005F06AFA06F060F90D22014602A805F0DF
:1034300079FA02A805F0AAF8019006F055F91649A4
:1034400005F005F9019800F10C031A2B1CD807F0C0
:10345000D5FA05F0D5FA06F047F9104905F0E4F879
:1034600006F042F90A220199FDF7EDFB06F06AFC2D
:10347000042254200DEB020104F018F902A804F014
:1034800001FF07B05DF804FB06F02EF9044905F0D2
:10349000DEF8F3E7C8DC0808D9F10808F3DC08080F
:1034A000C1DB080810B586B006F01EF9294C05F0FE
:1034B000C2F806F019F9284905F0B6F806F014F933
:1034C0000A222168FDF7A4FB06F00EF9234905F056
:1034D000BEF806F009F9224905F0A6F806F004F94D
:1034E0004CF2503105F008FA06F0FEF80D220146C4
:1034F00002A805F017FA02A805F048F842F20E7388
:103500000190013898421ED806F0EEF8154905F0F2
:103510008BF806F0E9F80A220199FDF794FB06F012
:10352000E3F80E4905F093F8019B236006F00AFCCE
:10353000042274200DEB020104F0B8F802A804F094
:10354000A1FE06B010BD06F0CFF8074905F07FF8E0
:10355000F4E700BF200500200BDD08081FDD080888
:1035600038DD08084BDD0808C1DB08080000000052
:1035700030B58BB006F0B8F805F05DF806F0B4F899
:10358000374905F051F806F0AFF80446354D0222F0
:10359000296806A804F036FF0699204605F044F88D
:1035A00006A804F06FFE06F09FF82F4905F04FF8CB
:1035B00006F09AF82D4905F037F806F095F84CF228
:1035C000503105F099F906F08FF80D22014602A856
:1035D00005F0A8F902A804F0DEFF044606F0B4FDE9
:1035E0001DA3D3E9002307F08DF870B34FF080419D
:1035F000204607F0F5FB40B31D4920462C6007F03C
:1036000051FA07F015FC019006F06EF8194905F023
:103610000BF806F069F804460222296806A804F0AF
:10362000F1FE0699204605F012F806A804F02AFEDD
:1036300006F088FB042210200DEB020104F036F89E
:1036400002A804F01FFE0BB030BD06F04DF80A4989
:1036500004F0FDFFF4E700BF9A9999999999B93F51
:103660009DDD0808C802002070DD0808B1DD0808EB
:103670000000C842C8DD0808C1DB080800000000DF
:1036800030B58BB006F030F804F0D5FF06F02CF81A
:10369000374904F0C9FF06F027F80446354D0222E9
:1036A000296806A804F0AEFE0699204604F0BCFF87
:1036B00006A804F0E7FD06F017F82F4904F0C7FF4D
:1036C00006F012F82D4904F0AFFF06F00DF84CF2A9
:1036D000503105F011F906F007F80D22014602A855
:1036E00005F020F902A804F056FF044606F02CFD70
:1036F0001DA3D3E9002307F005F870B34FF0804114
:10370000204607F06DFB40B31D4920462C6007F0B2
:10371000C9F907F08DFB019005F0E6FF194904F0A7
:1037200083FF05F0E1FF04460222296806A804F0A1
:1037300069FE0699204604F08AFF06A804F0A2FD5F
:1037400006F000FB042298200DEB020103F0AEFF0F
:1037500002A804F097FD0BB030BD05F0C5FF0A4983
:1037600004F075FFF4E700BF9A9999999999B93FC8
:10377000DBDD0808CC02002070DD0808EFDD08085A
:103780000000C84206DE0808C1DB080810B586B094
:1037900005F0AAFF274C04F04EFF05F0A5FF2649CF
:1037A00004F042FF05F0A0FF0A222168FDF730FA7D
:1037B00005F09AFF214904F04AFF05F095FF2049E2
:1037C00004F032FF05F090FF4CF2503105F094F810
:1037D00005F08AFF0D22014602A805F0A3F802A811
:1037E00004F0D4FE42F20F73019000F59C500830B3
:1037F000984219D805F078FF124904F015FF05F03A
:1038000073FF0A220199FDF71EFA019B236006F05F
:1038100099FA04220C200DEB020103F047FF02A8E5
:1038200004F030FD06B010BD05F05EFF064904F05F
:103830000EFFF4E7D402002019DE08082CDE080889
:1038400031DE080847DE0808C1DB080810B586B07D
:1038500005F04AFF274C04F0EEFE05F045FF26492F
:1038600004F0E2FE05F040FF0A222168FDF7D0F9DE
:1038700005F03AFF214904F0EAFE05F035FF204942
:1038800004F0D2FE05F030FF4CF2503105F034F870
:1038900005F02AFF0D22014602A805F043F802A810
:1038A00004F074FE42F20F73019000F59C50083052
:1038B000984219D805F018FF124904F0B5FE05F03A
:1038C00013FF0A220199FDF7BEF9019B236006F060
:1038D00039FA042294200DEB020103F0E7FE02A85E
:1038E00004F0D0FC06B010BD05F0FEFE064904F061
:1038F000AEFEF4E7D802002059DE08082CDE0808E6
:103900006CDE080882DE0808C1DB080830B589B023
:1039100005F0EAFE354D04F08EFE05F0E5FE344973
:1039200004F082FE05F0E0FE0A222968FDF78BF91B
:1039300005F0DAFE2F4904F08AFE05F0D5FE4CF2C0
:10394000503104F0D9FF05F0CFFE0D220146684644
:1039500004F0E8FF6846284904F0D8FD00283FD06D
:1039600005F0C2FE254904F072FE05F0BDFE2449B3
:1039700004F06DFE05F0B8FE0D22014604A804F027
:10398000D1FF04A804F002FE044605F0ADFE1D4977
:1039900004F05DFE44F61E63621E9A421AD805F0DA
:1039A000A3FE194904F040FE05F09EFE0A222146BE
:1039B000FDF749F92C6006F0C5F9042229464C2090
:1039C00003F074FE04A804F05DFC684604F05AFCA1
:1039D00009B030BD05F088FE0C4904F038FEF1E76F
:1039E00005F082FE0A4904F032FEEEE7980000205E
:1039F000CFDE0808E4DE080817DA08081DDA080830
:103A00001DDF0808D9F1080836DF0808C1DB0808FF
:103A100042DB080830B589B005F066FE354D04F08C
:103A20000AFE05F061FE344904F0FEFD05F05CFE7F
:103A30000A222968FDF707F905F056FE2F4904F020
:103A400006FE05F051FE4CF2503104F055FF05F032
:103A50004BFE0D220146684604F064FF6846284983
:103A600004F054FD00283FD005F03EFE254904F047
:103A7000EEFD05F039FE244904F0E9FD05F034FEC1
:103A80000D22014604A804F04DFF04A804F07EFDB9
:103A9000044605F029FE1D4904F0D9FD4CF24E33D1
:103AA000621E9A421AD805F01FFE194904F0BCFDA7
:103AB00005F01AFE0A222146FDF7C5F82C6006F033
:103AC00041F904222946502003F0F0FD04A804F037
:103AD000D9FB684604F0D6FB09B030BD05F004FE02
:103AE0000C4904F0B4FDF1E705F0FEFD0A4904F0CD
:103AF000AEFDEEE79C00002049DF08085EDF080805
:103B000017DA08081DDA080897DF0808D9F108084D
:103B1000B0DF0808C1DB080842DB080870B50C4DAF
:103B20000C4E05F0E1FD03681B69984778B9FEF774
:103B3000D9FB286005F0D8FD0446286806F004FB90
:103B400002460B4620463146FDF793F8E9E770BD83
:103B5000C0020020C3DF080808B505F0C5FDA24972
:103B600004F075FD05F0C0FDA04904F070FD05F0FE
:103B7000BBFD9F4904F06BFD05F0B6FD9D4904F0C7
:103B800066FD05F0B1FD9C4904F061FD05F0ACFD5A
:103B90009A4904F05CFD05F0A7FD994904F057FD32
:103BA00005F0A2FD974904F052FD05F09DFD9649F0
:103BB00004F04DFD05F098FD944904F048FD05F032
:103BC00093FD934904F043FD05F08EFD914904F007
:103BD0003EFD05F089FD904904F039FD05F084FDB6
:103BE0008E4904F034FD05F07FFD8D4904F02FFD72
:103BF00005F07AFD8B4904F02AFD05F075FD8A4930
:103C000004F025FD05F070FD884904F020FD05F065
:103C10006BFD874904F01BFD05F066FD854904F046
:103C200016FD05F061FD844904F011FD05F05CFD11
:103C3000824904F00CFD05F057FD814904F007FDB1
:103C400005F052FD7F4904F002FD05F04DFD7E496F
:103C500004F0FDFC05F048FD7C4904F0F8FC05F09B
:103C600043FD7B4904F0F3FC05F03EFD794904F087
:103C7000EEFC05F039FD784904F0E9FC05F034FD6F
:103C8000764904F0E4FC05F02FFD754904F0DFFCF3
:103C900005F02AFD734904F0DAFC05F025FD7249B0
:103CA00004F0D5FC05F020FD704904F0D0FC05F0CF
:103CB0001BFD6F4904F0CBFC05F016FD6D4904F0C7
:103CC000C6FC05F011FD6C4904F0C1FC05F00CFDCB
:103CD0006A4904F0BCFC05F007FD694904F0B7FC33
:103CE00005F002FD674904F0B2FC05F0FDFC6649F1
:103CF00004F0ADFC05F0F8FC644904F0A8FC05F004
:103D0000F3FC634904F0A3FC05F0EEFC614904F008
:103D10009EFC05F0E9FC604904F099FC05F0E4FC28
:103D20005E4904F094FC05F0DFFC5D4904F08FFC73
:103D300005F0DAFC5B4904F08AFC05F0D5FC5A4931
:103D400004F085FC05F0D0FC584904F080FC05F037
:103D5000CBFC574904F07BFC05F0C6FC554904F048
:103D600076FC05F0C1FC544904F071FC05F0BCFC84
:103D7000524904F06CFC05F0B7FC514904F067FCB3
:103D800005F0B2FC4F4904F062FC05F0ADFC4E4971
:103D900004F05DFC05F0A8FC4C4904F058FC05F06B
:103DA000A3FC4B4904F053FC05F09EFC494904F088
:103DB0004EFC05F099FC484904F049FC05F094FCE0
:103DC000464904F044FC05F08FFC454904F03FFCF3
:103DD00005F08AFC434904F03AFC05F085FCBDE897
:103DE0000840414904F033BCD3DF0808E9DF080884
:103DF000FFDF080814E008082AE008083FE0080888
:103E000054E0080868E008087FE0080895E0080822
:103E1000ABE00808C0E00808DDE00808F9E00808A1
:103E200013E108082CE1080846E108085FE10808EA
:103E30007BE1080898E10808B1E10808CDE108082D
:103E4000E5E10808FEE1080817E208082BE2080887
:103E500040E208085BE2080876E208088CE20808FD
:103E60009DE20808AFE20808C0E20808D2E20808AC
:103E7000FBE2080824E3080853E3080879E308088C
:103E80009EE30808C6E3080806E4080849E40808B1
:103E900073E40808B6E40808FCE4080830E50808FC
:103EA0004EE5080872E508088DE50808B7E508083A
:103EB000ECE5080810E6080824E6080840E60808CB
:103EC00065E6080889E60808AEE60808D6E60808A8
:103ED00002E7080845E7080877E708089DE70808AB
:103EE00003E8080867E808087CE8080830232DE99B
:103EF000F04F9E4E9E4C9F4F8BB0337005F0F4FBFD
:103F00009D4904F091FB05F0EFFB0368DB699847DE
:103F100005F0EAFB03681B6998470028F8D005F014
:103F2000E3FB03685B699847C0B26128307008D131
:103F3000FFF71EFB3378782BE0D105F0D5FB8F49D6
:103F400024E3622802D1FFF721FCF3E7632802D1C2
:103F5000FFF796FBEEE7642802D1FFF777FCE9E76D
:103F600071280FD105F0C0FB854904F070FB0123D7
:103F7000844D2B6005F0E6FE04222946482003F01C
:103F800095FBD7E7722807D105F0AEFB7E4904F018
:103F90005EFB7C4D0023ECE773280ED105F0A4FBFB
:103FA00005467A4906A804F0B7F92846069904F0B0
:103FB0004EFB06A804F066F9BCE7742802D1FFF7AF
:103FC000D5F9B7E7752802D1FFF720FAB2E77628CE
:103FD00002D1FFF70FF9ADE7772802D1FEF7F0FF26
:103FE000A8E7792813D16A4D2B6863B905F07CFBEB
:103FF000684904F02CFB01232B6005F0A3FE04228A
:1040000044206349BBE705F06FFB6349F1E77A2879
:1040100017D15F4D2B68012B0DD105F065FB5F4972
:1040200004F015FB00235E481A461946406803F069
:104030005BFD0023E0E705F057FB5A4904F007FB5E
:10404000F7E7462811D1584B1A68012A02D10022FD
:104050001A6004E005F048FB544904F0F8FA05F052
:1040600071FE04226020504989E7432808D14E4B55
:104070001A680AB90122EBE705F036FB4C49ECE778
:10408000442814D14B4B1A68012A0CD100221A6023
:1040900005F02AFB484904F0DAFA05F053FE042241
:1040A000682044496BE705F01FFB4449F3E74528C6
:1040B0000DD1404B1A68012A03D105F015FB404988
:1040C000E9E701221A6005F00FFB3E49E3E74728C4
:1040D00014D13D4B1A68012A0AD105F005FB3B4972
:1040E00004F0B5FA05F02EFE04226C20364946E7AE
:1040F00001221A6005F0F8FA3549F1E748280CD199
:10410000314B1A681AB905F0EFFA3249E8E7002294
:104110001A6005F0E9FA3049E2E7492802D1FFF7D1
:10412000C1F907E74A2807D1FEF79EF905F0DCFA46
:104130002A4904F08CFAFDE64B2807D105F0D4FAA1
:10414000274904F084FAFDF72FFAF3E64C2802D150
:10415000FFF7D4F8EEE64D2855D1224D2B68012B00
:1041600044D105F0C1FA2049E3E700BF90040020E4
:10417000C00300200000C84290E808081BEF0808B0
:1041800096E80808C8030020B0E80808B1D8080875
:10419000FC090020CBE80808DEE80808F8E8080871
:1041A000300B00200BE90808300A002026E9080837
:1041B00051E90808240500207BE908089CE9080863
:1041C000C0E90808E3E908082C05002001EA08080E
:1041D00029EA08084DEA080876EA08087ED808089F
:1041E0009BEA080844030020B7EA080805F07CFAB7
:1041F000AA4904F02CFA01232B6005F0A3FD042248
:1042000029467820BBE64E280DD1A54D2B681BB959
:1042100005F06AFAA3498CE705F066FAA24904F0B2
:1042200016FA0023E8E74F2807D105F05DFA9F4909
:1042300004F00DFAFDF724FA7CE6502809D105F0C8
:1042400053FA9B4904F003FA6B210720FCF7D6FDD3
:1042500070E6512806D105F047FA964904F0F7F9BF
:104260004B21F2E7522818D1934D2B688BB105F002
:104270003BFA924904F0EBF900232B6005F062FD54
:10428000042229467C2003F011FA8D4801F02BF816
:1042900050E605F029FA8B494BE7532818D1864D93
:1042A0002B688BB905F020FA874904F0D0F9012377
:1042B0002B6005F047FD042229467C2003F0F6F927
:1042C0007F4801F035F835E605F00EFA7F4930E712
:1042D000542816D17E4D2B6863B905F005FA7D4947
:1042E00004F0B5F901232B6005F02CFD04222946CA
:1042F000802044E605F0F8F9774904F0A8F9002396
:10430000F1E7552816D1754D2B6863B905F0ECF926
:10431000734904F09CF901232B6005F013FD04227E
:10432000294684202BE605F0DFF96E4904F08FF969
:104330000023F1E7562808D105F0D6F96A4904F0C0
:1043400086F95F4800F0AAFFF4E5312802D1FFF7B3
:10435000DDFAEFE5322802D1FFF75CFBEAE533280E
:1043600016D105F0C1F9614904F05EF905F0BCF918
:104370000A224621FCF767FC05F0B6F95C4904F017
:1043800053F905F0B1F90A220D21FCF75CFCD1E5E7
:10439000342813D1574D2B6863B905F0A5F9564958
:1043A00004F055F901232B6005F0CCFC04225820C1
:1043B0005049E4E505F098F95049F1E735280ED168
:1043C0004C4D2B68012B06D105F08EF94C4904F0B9
:1043D0003EF90023E7E705F087F94A49F7E7362871
:1043E00013D1494D2B6863B905F07EF9474904F0B4
:1043F0002EF901232B6005F0A5FC04225C20424924
:10440000BDE505F071F94249F1E737280ED13E4D7F
:104410002B68012B06D105F067F93E4904F017F926
:104420000023E7E705F060F93B49F7E7382826D194
:1044300005F05AF9394904F0F7F8394803F09EFCC1
:10444000804605F051F905460A22414604F013F969
:10445000284604F0F0F805F047F9324904F0E4F892
:104460002F4803F088FC804605F03EF905460A22F5
:10447000414604F000F9284604F0DDF85AE53928F1
:1044800002D1FEF73BFD55E5302802D1FEF7F4FCE2
:1044900050E5412848D1FFF741FB4BE5D9EA080830
:1044A00044030020FDEA080820EB080845EB080853
:1044B00060EB080873EB0808340300208EEB080853
:1044C000200A0020B1EB0808CCEB0808EEEB080846
:1044D0008C04002008EC080823EC0808D002002017
:1044E0003FEC08085EEC08087DEC080895EC08082D
:1044F00096D8080830050020A3EC0808B2EC08089C
:10450000C8EC0808D8EC0808340A0020EFEC0808CA
:10451000FEEC080814ED080824ED08083BED080837
:104520004805002043ED0808422816D16D4B1A6853
:10453000012A0CD100221A6005F0D6F86A4904F06D
:1045400086F805F0FFFB04226420664917E5012286
:104550001A6005F0C9F86549F1E721283CD105F05A
:10456000C3F8634904F073F8624DDFF88C9105F0ED
:10457000BBF803681B69984700287FF4DBAC5D48F3
:1045800002F0F8FA38B905F0AFF85C490BB0BDE8B5
:10459000F04F04F05CB805F0A7F839468046E868AB
:1045A00006F034FB05F0D0FD8246A8688B4605F086
:1045B000CBFDCDE90401686805F0C6FDCDE9020137
:1045C000286805F0C1FD5246CDE900015B46494629
:1045D0004046FCF74EFBCAE7402813D1484D2B68F4
:1045E000012B0CD105F080F8464904F030F8002387
:1045F0002B6005F0A7FB042229468C20BFE4FEF7C0
:10460000B5FD97E4232815D12368012B0CD1002395
:10461000236005F069F83C4904F019F805F092FBB5
:10462000042221469020AAE40123236005F05CF8CF
:104630003649F1E7572817D1354D2B68012B0CD19E
:1046400005F052F8334904F002F800232B6005F01E
:1046500079FB04222946882091E405F045F82E498B
:1046600003F0F5FF0123F1E7582807D101212B487A
:1046700000F084FEB4222A4B1A605BE45A2826D14B
:1046800005F032F8274903F0E2FF06A8264902F0B8
:10469000E3FD069A25492648FCF7F9FA06A803F037
:1046A000F1FD06A8204902F0F3FD069A21492048B1
:1046B000FCF7EDFA06A803F0E5FD06A81A4902F09A
:1046C000EDFD069A1C491A48FCF7E1FA71E42A2824
:1046D00002D1FEF733FA2DE43F287FF42BACFFF72D
:1046E0003BFA27E42805002053ED080867ED080889
:1046F0007AED080848030020CBED0808B5ED08085E
:10470000F8090020FCED08081EEE08083CEE080839
:104710004404002084EE0808A8EE0808200A0020BF
:10472000C4030020CBEE0808880A002002EF080826
:104730009C0A00200AEF080812EF080838B5046840
:1047400005467CB16368013B63605BB92368204622
:104750009B689847A368013BA3601BB92368204668
:10476000DB689847284638BD2DE9F04F0FF208194D
:10477000D9E900898FB0424902A803F0CDFD414933
:1047800006A803F0C9FD05F0B9FA40F6B83104F007
:10479000B3F8002400254FF0000A00263A4FDFF856
:1047A000ECB005F0ABFA03681B699847E8B9BAF1B9
:1047B000000F1AD132463B462046294605F066FBDB
:1047C00042464B4604460D4605F0A6FF0028E8D0B9
:1047D000DBF8003033B104F087FF22462B462C492A
:1047E000FCF747FA4FF0010ADBE70A2004F0A0FAD1
:1047F00005F084FA01460AA804F080F80AA906A880
:1048000003F0D4FD0AA803F03DFD03F0BDF940B963
:1048100006A803F037FD02A803F034FD0FB0BDE891
:10482000F08F1C4B1B68002BF2D01B4B069A1B7899
:104830001A498DF800300AA83C2304F037FD0BA874
:10484000FFF77CFF02F01AFF154B186003F094F994
:104850000E4B1B68002BDBD004F046FF114903F020
:10486000F6FE10490AA803F057FD0AA8FDF7FAF86A
:104870000AA803F007FDCBE700000000004CCD4084
:1048800032EF08083AEE08080000F03FC8030020A5
:1048900035EF0808FC0900200803002070EF080825
:1048A000800B002077EF08082DE9F0435E4C89B0BB
:1048B0000022D4E900015D4B05F0E8FAC4E90001EB
:1048C000FDF710FD5A4B5B4D1860FDF7B1F85A4BE0
:1048D0005A4C1860FCF736FE2860204602F04AF970
:1048E00088B904F001FF564903F0B1FE544904A809
:1048F00003F012FD04A8FDF7B5F804A803F0C2FC0C
:1049000009B0BDE8F0834F4E3368D3B104F0ECFE3C
:104910000746206805F018FC8046A068894605F027
:1049200013FCCDE902014849606806F06FF905F013
:104930000BFC4246CDE900014B4638464349FCF7A3
:1049400098F94149606806F061F93F49044606F06C
:1049500065FA68B120463E4906F042FA40B13D4949
:10496000204606F053F90146286806F09BF82860B7
:10497000FDF7CAF8FDF70CFA04F079F9364BC217C7
:10498000C3E90002354B364D1A68364B1A60FFF703
:10499000EBFEFEF7D3F895F821300BB9FDF708FDD3
:1049A00004F0A2FE03681B69984700281CDD04F090
:1049B0009BFE03682C4C5B699847336820704BB1B1
:1049C00004F092FE294903F02FFE04F08DFE2178B9
:1049D00003F047FE04F088FE217803F042FE2378BE
:1049E0006D2B01D1FFF782FA1D4800F095F9204B9D
:1049F0001B68012B84D11F4804F01AFA1E4906F0E7
:104A0000EFF900283FF47CAF95F82130002B7FF4BC
:104A100077AF04F069FE194903F019FE09B0BDE84B
:104A2000F043FDF7C5BC00BF180500200000F03FB3
:104A3000C0020020B0020020C40200204803002071
:104A4000B5ED0808C80300200000C842D8ED0808EA
:104A50000080BB4400507D44180A0020D400002090
:104A60004C050020A40A0020900400208EEF0808C6
:104A7000440300203C0400200000A0419EEF0808F1
:104A800038B501250024354B35481D7002F082FAF7
:104A9000344B354AC3E900449A60032002F09EFF7C
:104AA0002146284602F0AAFF4FF0FF312F4802F0BE
:104AB0004FF82F4800F0B7FA2E4800F085F82E483E
:104AC00000F082F849212D4800F0B6F94A212C481F
:104AD00000F0B2F921462B4804F05FF921462A483C
:104AE00003F0D9F8294800F0FDF82721284802F002
:104AF00085FC4FF4C812274B2748C3F86824274A7F
:104B00005C601A60264AC3F84044C3F86C44C3F89A
:104B1000702483F87444234A234BC3E901441A6088
:104B2000224B1A604FF47A72C3E90144204B5C6057
:104B30009A601C611F4A204C1A60214603F0ECFB6E
:104B400021461E4803F0E8FB21461D4803F0E4FB24
:104B50002146BDE838401B4803F0DEBB08030020B7
:104B600094040020F40200200000FFFF480300200E
:104B7000200A002091040020920400203803002025
:104B80003E0300203C040020480500204C05002086
:104B900080040020800500202C0400201CF0080860
:104BA000B8F0080804F00808CC030020E80400204E
:104BB000F8030020DCEF0808D9F10808D804002029
:104BC000000A002038050020704710B50C4605F09B
:104BD00003F9482104F024FF05F0FEF8036821469C
:104BE0009B68984705F0F8F8002104F034FF05F0C1
:104BF000F3F8012348211A4604F0F9FE05F0ECF819
:104C000003681B69984728B105F0E6F803685B69FB
:104C10009847C0B210BD70B516460C46054605F063
:104C2000DBF8482104F0FCFE05F0D6F803682146C5
:104C30009B68984705F0D0F8036831469B68984711
:104C400005F0CAF8012104F006FF21462846BDE818
:104C50007040FFF7BABF0021FFF7B7BF012211462E
:104C6000FFF7D9BF00220121FFF7D5BF2DE9F041A1
:104C70000446884617461E46FFF7EDFF0128054605
:104C800017D12046FFF7EEFF424610212046FFF7DE
:104C9000C2FF3A4611212046FFF7BDFF32461221DE
:104CA0002046FFF7B8FF2046FFF7D8FF2846BDE8AB
:104CB000F0810025FAE7000010B50446034B40F8E8
:104CC000143B03F007F8204610BD00BF58F0080859
:104CD00010B50446FFF7F0FF20462421FBF7F1F959
:104CE000204610BD38B50B4B0025322203604FF42F
:104CF000FA630446C0E90123C0E90355294614308C
:104D000002F0C9FF4FF480332046C4E90655236200
:104D100038BD00BF58F0080810B5044602F0AEFCDC
:104D2000E368C01A636898421AD302F0A7FCE060F7
:104D300004F1140003F01FF810F004030BD094F8F2
:104D40002030C0F3011083421FBFE36984F82000C4
:104D50000133E361012384F82130A3690133A361A6
:104D600002F08CFC2369C01AA368984214D902F09F
:104D700085FCA36920610A2B0FDC012384F8223013
:104D800094F82030013B012B8CBF0023012384F8D1
:104D900023300023C4E9063310BDE269B2EBA30F50
:104DA000EBDD002384F82230F1E710B5044605F06E
:104DB00013F803682146BDE810409B68184708B502
:104DC00005F00AF803685B699847C0B208BD70B582
:104DD00006460D46144604F0FFFF314604F01CFE63
:104DE0002846FFF7E2FF200AFFF7DFFFE0B2FFF7F8
:104DF000DCFF04F0F1FFBDE8704004F030BE10B5F8
:104E0000044604F0E9FF214604F006FE0020FFF707
:104E1000CCFF04F0E1FF04F022FE04F0DDFF2146A8
:104E2000022204F0F6FDFFF7CAFF0446FFF7C7FFB2
:104E300040EA042080B210BD002201700821828067
:104E400041708270704708B504F0C6FFBDE80840A5
:104E500004F0B0BD81807047032910B5044622D804
:104E60000229828819D003291AD0012914BF42F4DB
:104E7000834242F4A34242F00302012142F4004281
:104E80002078FFF7A4FF607803F052FF2078FFF747
:104E9000B6FFA378184180B210BD42F4C342EAE7DE
:104EA00042F4E342E7E70020F6E700002DE9F04195
:104EB0000E4688B00446154668460223002203F0D9
:104EC00043FB0A230222314604A803F03DFB684657
:104ED00003F05CFBA08304A803F058FBE083684662
:104EE00003F054FB064604A803F055FB8046304609
:104EF00005F018F9064640460F4605F025F9002250
:104F00000D4B05F0A3FA0B4602463946304604F035
:104F1000BDFF532D0CBF00236FF07F03C4E90201D6
:104F200084F8243004A803F0ADF9684603F0AAF928
:104F300008B0BDE8F08100BF00004E402DE9F0410F
:104F40000E4688B00446154668460323002203F047
:104F5000FBFA0A230322314604A803F0F5FA684657
:104F600003F014FB208404A803F010FB608468465F
:104F700003F00CFB064604A803F00DFB8046304608
:104F800005F0D0F8064640460F4605F0DDF8002251
:104F90000C4B05F05BFA02460B463046394604F0EE
:104FA00075FF453D18BF0125C4E9040184F825506B
:104FB00004A803F067F9684603F064F908B0BDE897
:104FC000F08100BF00004E4010B50446084603F0D3
:104FD000DDFAE06210BD000010B50446084603F09B
:104FE000DAFA024905F05EFD206310BD00002041A1
:104FF00000F10801D1E90001704700F11001D1E989
:1050000000017047C06A704708B5006B05F010FFDB
:1050100008BD90F92400704790F925007047036897
:10502000C9B29B681847704710B504F0D5FE15212A
:1050300004F0F6FC04F0D0FE0421FFF7F0FF04F0CA
:10504000CBFE1321FFF7EBFF04F0C6FE8B21FFF729
:10505000E6FF04F0C1FE0021FFF7E1FF04F0BCFE13
:105060000121FFF7DCFF04F0B7FE04F0F8FC04F0C8
:10507000B3FE0422152104F0CCFC04F0ADFE03685D
:105080001B6998470028F8D004F0A6FE03685B6906
:10509000984704F0A1FE03685B69984704F09CFE02
:1050A00003685B699847044604F096FE0368E4B21F
:1050B0005B699847C0B200EB0420003818BF01209C
:1050C00010BD08B504F088FE152104F0A9FC04F019
:1050D00083FE0421FFF7A3FF04F07EFE1321FFF7F8
:1050E0009EFF04F079FE8B21FFF799FF04F074FE18
:1050F0000021FFF794FF04F06FFE0121FFF78FFFFF
:1051000004F06AFEBDE8084004F0A9BC10B5FFF742
:10511000D8FF04F061FE0422152104F07AFC04F0AB
:105120005BFE03681B6998470028F8D004F054FE22
:1051300003685B69984704F04FFE03685B69984712
:1051400004F04AFE03685B699847044604F044FE95
:10515000036824025B699847A4B2C0B2204310BD23
:105160002DE9F0410C4604F037FE152104F058FCFF
:1051700004F032FE0421FFF752FF04F02DFE13214C
:10518000FFF74DFF04F028FE8A21FFF748FF04F0E7
:1051900023FE0021FFF743FF04F01EFE0121FFF76D
:1051A0003EFF04F019FE04F05AFC24B104F09CFA0E
:1051B000354903F04CFA04F00FFE0422152104F0E7
:1051C00028FC04F009FE03681B6998470028F8D002
:1051D00004F002FE03685B699847804604F0FCFD1A
:1051E00003685B699847074604F0F6FD03685B694E
:1051F0009847064604F0F0FD03685B69984705464A
:10520000002C3ED004F070FA204903F00DFA04F0AF
:105210006BFA044610225FFA88F103F02CFA20465C
:1052200003F009FA04F060FA194903F0FDF904F0FB
:105230005BFA04461022F9B203F01DFA204603F08F
:10524000FAF904F051FA134903F0EEF904F04CFABC
:1052500004460222F1B203F00EFA204603F0EBF905
:1052600004F042FA0C4903F0DFF904F03DFA044679
:10527000E9B2022203F0FFF92046BDE8F04103F055
:10528000DAB9BDE8F08100BF60F008087AF00808DC
:1052900086F0080893F0080899F0080808B504F0AB
:1052A0009BFD152104F0BCFB04F096FD0521FFF7E2
:1052B000B6FE04F091FD0321FFF7B1FE04F08CFD72
:1052C000E821FFF7ACFE04F087FDFF21FFF7A7FE02
:1052D00004F082FD0021FFF7A2FE04F07DFDBDE891
:1052E000084004F0BCBB08B504F076FD152104F0BD
:1052F00097FB04F071FD0521FFF791FE04F06CFDB2
:105300000321FFF78CFE04F067FDEE21FFF787FE17
:1053100004F062FD0021FFF782FE04F05DFD002134
:10532000FFF77DFE04F058FDBDE8084004F097BB90
:1053300008B504F051FD152104F072FB04F04CFD9A
:105340000521FFF76CFE04F047FD0321FFF767FE20
:1053500004F042FDEE21FFF762FE04F03DFDFF2167
:10536000FFF75DFE04F038FD0021FFF758FE04F062
:1053700033FDBDE8084004F072BB000008B521B160
:1053800004F0B2F9134903F062F904F025FD152188
:1053900004F046FB04F020FD0521FFF740FE04F079
:1053A0001BFD0321FFF73BFE04F016FDEC21FFF788
:1053B00036FE04F011FDFF21FFF731FE04F00CFD75
:1053C0000021FFF72CFE04F007FDBDE8084004F0C3
:1053D00046BB00BF9FF00808042904D800EB410039
:1053E000B0F8010070470A299BBF01F1FF3100EBC3
:1053F00041000131C08884BF00EB410080887047C4
:1054000010B50446283001F0C1F928B104F50D703B
:10541000BDE8104001F0BAB910BD411E00F10A0309
:105420000020420842EAC01011F8012F10448B42BC
:1054300000F0FF00F5D170472DE9F047064610F85F
:10544000013B202BFAD00024694D8E60335DC3B13F
:105450002F2B16D05C2B02D10020BDE8F087A3F1E2
:105460002200C0B21D2803D825FA00F0C007F3D4EB
:1054700003F0BF003C28EFD0203B5E2BECD801347A
:10548000E4E733191846074610F8015B202DFAD0DF
:105490002F2DF8D017604CB113F8012D2E2A01D012
:1054A000202A01D1013CF6E7FF2CD5DC4FF0203358
:1054B0004FF00008C1F811304C60C1F80D304B615D
:1054C00016F808302E2B01D0202B02D108F101084C
:1054D000F6E7B8FA88F0651E40096B1C02D0735DD0
:1054E0002E2B14D14FF0000907274A46CA464FF029
:1054F000080EA04568DA16F80830202B03D02E2BB2
:1055000007D1A84512D0002008F10108F1E7013DBC
:10551000E3E7222B08D07C2B06D0A3F12A0CBCF1A8
:10552000050F0AD82D2B12D0A8455BD10A2F4AD0DF
:105530000A2708224FF0100EE6E7A3F13A0CBCF15F
:10554000050FF1D9A3F15B0CBCF1020FECD9A3F16B
:10555000210CBCF15D0FE7D8A845E7D0BA4230D89E
:10556000A3F1610CBCF1190F1AD8203B4EEA0909CE
:10557000DBB25FFA89F902F1010C5FFA8CFC0A4494
:10558000BCF1060F537301D881F80CC06246BBE72B
:10559000A84518DCA8460A2708224FF0100EB2E7EB
:1055A000A3F1410CBCF1190F98BF4EEA0A0AE2E7D9
:1055B00001200B7B087019447E234B7331238B73BE
:1055C0004BE70A2FE4D100204B7B202B3FF444AF64
:1055D0000028EDD01AEA090F18BF4FF0020981F830
:1055E00000903AE7BA42ECD800205F23C3E700BF3F
:1055F000010100312DE9F84306460C4602257E27BD
:1056000091F80C9001F10D086168A2686B189BB2CB
:105610001144914206D012F8010B03EB43134340AF
:105620009BB2F6E7B9F1030F28BF4FF0030909F168
:105630000402D2B203F00F01A018013A0929D2B234
:1056400094BF30313731914541734FEA1313F1D193
:1056500004EB0903002130465F7300F09FFE012137
:10566000304600F07CFE014628B97078B0FA80F030
:105670004009BDE8F88303786BB1C37A1B07EED409
:105680000B22404605F053FE0028E8D10135ADB2AB
:10569000642DB9D1EDE70120EBE700002DE9F04FD3
:1056A0008BB005930B780D4613F0700F17460690DC
:1056B00003D100200BB0BDE8F08F069B1B78002BB8
:1056C000F7D153684FF0000B04931378DA4699072B
:1056D0001BBF0D22049B01230C3318BFB3FBF2F355
:1056E0005C465E46D9461CBF0133DBB2002128462A
:1056F000029300F053FE07F10D03CDF80CB00993AF
:105700006B6901212846C3F34F1800F028FE0346B9
:1057100000286FD16B78002BCBD1059B03F042039F
:10572000422BC6D1039B002C08BF43460393029B28
:105730009C42C0F0F080B9F1000F40F00981039B5A
:105740002846590100F02AFE0028B2D0029B4FF0F3
:10575000000A03F1FF395FFA89F94E464FF00F084E
:10576000002E00F00C810021284600F0F8FD0446D0
:1057700000289ED04E4518BFB346AA6808BF46F021
:10578000400B92F8283043F0010382F8283080F86B
:1057900000B080F80B8080F80CA007F10D00FFF737
:1057A0003CFE0D220BF01F03013B534300226073AC
:1057B00084F81AA084F81BA0D7F808C0049999426D
:1057C00040F2CE801CF80310042A5FFA82FE02F138
:1057D000010000F2CB8004EB4202A2F801100D2878
:1057E000024603F10103E9D1013EF6B2B8E74FF0FA
:1057F000010985E70278E52A00D07AB90399002CDF
:1058000008BF4146039102998C423CBF0134E4B287
:10581000002A82D0E52A05D1002671E702998C4240
:1058200038BF00242E2AF7D0D97A0F2949D116BBC8
:1058300012F040063FF464AF02F01F06B24693F840
:105840000DB00D220AF1FF3802FB08F8049A424518
:10585000E2D9A2EB08020792002202EB08010891AC
:105860001846D1B2FFF7B8FD07998A420DD100283A
:1058700018BF002644E70AF1FF3A5FFA8AFA524558
:10588000CAD15A7B5A45DCD0C6E7FF28C4D8C0B27B
:10589000A0F141011929DDF820C0B96898BF203076
:1058A00011F80C1098BFC0B2A1F1410CBCF1190F56
:1058B0009CBF2031C9B28142AED101320D2ACCD178
:1058C0001EE70A07A8D45EB1BAF1010F7FF4F1AE6A
:1058D0001846FFF7A2FD58457FF4EBAEB1460DE048
:1058E0000B221846099905F022FD00287FF408AF25
:1058F00097F8009019F001097FF479AF059B1B061A
:105900003FF5D7AE42462946059B0698CDF8009054
:1059100000F087FDCEE60021284600F020FDA0B96A
:105920006B78002B7FF4C5AE284600F003FC0028FE
:105930003FF4BFAEAB681B79012B3FF6FCAE029B78
:105940001034E4B2A342EFD8F5E60134E4B2EEE657
:1059500039462846FFF74EFE00287FF4F0AEA8E651
:1059600014BF4FF0FF31002189B22DE7BEF10A0FBD
:1059700094BF04EB420204EB400291802FE73146D2
:105980002846D5F8148000F0EAFC044600283FF4CD
:1059900090AE2022314605F0E8FCD7F80D302360A8
:1059A000D7F811306360B7F815302381FB7DA372FF
:1059B0003B7803F0180323730F4B1B689BB104F172
:1059C0000E0104F110009847238AC8F34F18638230
:1059D0002383E389E382AA6892F8283043F0010325
:1059E00082F828308EE72123237428236374082348
:1059F000A673E373E8E700BF7C0A002003685B69D5
:105A000018470368DB68184710B5037904466BB183
:105A10000121407904F001F9FF212068FFF7EEFF32
:105A2000206803689B6898470023237110BD38B530
:105A30000579044655B90068E17903685B689847C1
:105A40002946607904F0E9F80123237138BDF8B5DF
:105A500004460D46164601F011FE07462068FFF782
:105A6000D0FFFF2820720CD101F008FEC31BB3F554
:105A7000967FF3D911232046A371FFF7C5FF0020BD
:105A8000F8BDFE2801D00F23F5E7206832460368F1
:105A900029461B699847207208B11C23EBE7206850
:105AA000FFF7AFFF2068FFF7ACFF0120E8E770B514
:105AB00006460C4601F0E2FD05463068FFF7A1FFFF
:105AC000FF2806D001F0DAFD431BA342F5D30020E6
:105AD00070BD0120FCE7F7B5037904460D4601923D
