:020000040808EA
:100000000000080898F50808000006000A0005012D
:080010000402DB070000000000
:0400180050CD0808B7
:1000200008B5024B1B685B6C019308BD2C000608E9
:1000300008B5024B1B689B6D019308BD2C00060898
:1000400008B5024B1B685B6E019308BD2C000608C7
:1000500009480A4908B5884205D0094A824202D0B7
:10006000121A0AF029FF0748074A0021121A0AF05B
:100070004BFF064808BD00BF00000020C4F208087E
:10008000AC020020B002002020220020202200200C
:1000900070B508F0B9FE0025054E064CA41BA40857
:1000A000A54200D170BD56F8043B98470135F7E7EB
:1000B0008CF20808B4F2080803F0A4B908B504F0FB
:1000C00051FCBDE8084008F061BE07F0E3BB07F053
:1000D000E1BB07F0E7BB0078B0FA80F04009704759
:1000E00001230370704748B1836C3BB1C36C2BB1E3
:1000F000006DB0FA80F04009404270474FF0FF3089
:10010000704773B5024608460C46FFF7ECFF0546FC
:1001100040BB12F0800F14BF00231023CA789A420C
:1001200020D0CB708E6C0123F32160780DF1070293
:10013000B04784F8540098B99DF80720E37822F07E
:10014000100203F0100313438DF8073073210123CD
:10015000E66C60780DF10702B04784F8540008B1EE
:100160006FF00105284602B070BD03788B4284BF52
:10017000017013784FF0000084BF43F00203137046
:1001800070472DE9F84306461846884691461D46B5
:10019000FFF7A9FF0446A8B9AB783BB9294630461A
:1001A000FFF7AFFF044608B946F080064B464246CB
:1001B0003146AF6C6878B847002818BF6FF001046B
:1001C00085F854002046BDE8F8832DE9F0471C4629
:1001D0000F4600218AB00646904601A824220091CD
:1001E0000AF092FE2046FFF77EFFE8B908F1FF33E0
:1001F000122B33D8EA4681461FFA88F81FFA89F392
:10020000434514D380B94FEA4802013A93B2E56CF2
:100210009DF8001060780DF10102A847002884F8CD
:10022000540018BF6FF001000AB0BDE8F087A37852
:1002300016F809503BB928462146FFF762FF16F829
:10024000095005F07F0517F809308AF800508AF840
:10025000013009F101090AF1020ACFE76FF003004A
:10026000E2E7742337B504468DF80730FFF73BFF0C
:10027000A0BB05462346012274200DF10601FFF7BD
:1002800080FFA0B99DF8063013F0030511D023F0CC
:1002900003038DF80630012223460DF106010DF10E
:1002A0000700FFF792FF0A20236D9847E2E7002D31
:1002B000E0D194F844208AB19DF8063002F00302A0
:1002C00023F0030313438DF8063038B92346012287
:1002D0000DF106010DF10700FFF777FF03B030BD08
:1002E0000023F0B5064689B008460C468DF8073065
:1002F0000493ADF814300693ADF81C30FFF7F3FE0D
:10030000002840F0FE8016F0080391F8447005D1F3
:1003100081F844302046FFF7A4FF07E0012FADF835
:100320000C0000F0F08081F84400012016F0100568
:1003300020D0072104F1460204F13B00FFF715FF2E
:1003400030B92346012275200DF10701FFF719FF8F
:1003500094F83B309DF807209B0022F01C0203F02C
:100360001C031343752201258DF807308DF81020EA
:100370008DF81830B30622D5082104F1460204F1A5
:100380003D00FFF7F2FE30B92346012270200DF147
:100390000701FFF7F6FE70219DF8073094F83D2025
:1003A00023F0080302F00802134308AA2A44013587
:1003B0008DF8073002F8101C02F8083CEDB2B107C6
:1003C00033D0052104F1460204F13900FFF7CDFED8
:1003D00030B92346012274200DF10701FFF7D1FE49
:1003E000F20709D59DF8073094F8392003F01F0370
:1003F00043EA42138DF80730B3070BD594F83A302F
:100400009DF807209B0003F01C0322F01C021343FD
:100410008DF80730742208AB2B4403F8102C9DF89C
:100420000720013503F8082CEDB2710722D505210C
:1004300004F1460204F13800FFF797FE30B9234675
:10044000012272200DF10701FFF79BFE72219DF83A
:10045000073094F8382023F0070302F00702134313
:1004600008AA2A4401358DF8073002F8101C02F85A
:10047000083CEDB216F0C00F3AD0012104F146025B
:1004800004F13E00FFF771FE60B90A2104F13C005F
:10049000FFF76BFE30B92346012271200DF10701F1
:1004A000FFF76FFE72060BD594F83E309DF80720DB
:1004B0001B0103F0100322F0100213438DF80730E4
:1004C00033060AD59DF8073094F83C2023F00F033B
:1004D00002F00F0213438DF80730712208AB2B4452
:1004E00003F8102C9DF80720013503F8082CEDB215
:1004F00028B923462A4606A904A8FFF766FE84F811
:10050000447009B0F0BDB1F84020B1F91230B2F535
:10051000C87F28BF4FF4C872C82A38BFC82203F565
:10052000163303F299135A431423B2FBF3F20A234E
:1005300002F54812B2FBF3F291F9113091F904106F
:1005400003F544735A4394F914304B434FF47A71D2
:1005500093FBF1F31B0203EB620394F8342094F94C
:1005600035100432B3FBF2F383224A4302F58032A2
:10057000B3FBF2F32222FA3B53436422323393FB60
:10058000F2F38DF80C3046F25A43ADF80830B4F867
:100590004230B3F57C6F1AD23F2BC2B200F101009A
:1005A00013D803EB8213DBB200258DF80D30022245
:1005B000234684F83C5003A902A8FFF706FE84F8FE
:1005C000445000287FF4B2AEA4E69B08E4E7FF2382
:1005D000EAE7000013B5184B024618689B880090A4
:1005E000ADF8043091F8393002A891F83A4003444C
:1005F00013F8080C02AB1C4414F8083C02AC184475
:1006000091F83830234413F8083C40F2AB740344AB
:1006100041F2B92004FB03034FF47A70B3FBF0F30B
:1006200001339BB2138091F83E0018B1B1F842102B
:100630000B44138002B010BD64CD08082DE9F04FC3
:10064000804689B008460C46FFF74DFD0546002858
:1006500040F058810690CDE90400CDF81B00084613
:10066000FFF741FD0A270546002D40F05281234641
:100670000F2204A91D20FFF784FD9DF810B09DF9FD
:100680001EA09DF818200BF00F030AF020012BF09C
:100690007F0B01924BEA01019DF819200AF0100A24
:1006A00041EA0A0149B288F8013002929DF81130FE
:1006B0009DF81D200029054688F8023003929DF818
:1006C00012909DF813E09DF814309DF815C09DF828
:1006D00016609DF817009DF81E2088F8001080F223
:1006E0001581000940EA061646EA0C3CE68A1B0919
:1006F0007600C6EBDC0C60464FEA5C06C11746EAA2
:10070000C17649107143A6FB06AB94F91A000BEBB6
:10071000410B4FEA1A36010146EA0B564FEA2B37D6
:100720004FEAE17B06FB0BF0A6FB01ABB4F91860C6
:1007300001FB070786FB0C01BB44C60A4FEA9A304F
:1007400046EA415640EA8B403118216301EB8101B2
:1007500080310912A8F80410216B43EA0E1E4910DB
:10076000A1F57A4140F635438810404394F926704C
:10077000C6127743B4F9246040134E43760006EB6B
:10078000A706B4F91E704EEA09394F4394F92010B8
:10079000C9F5801949014143C91001EB6701A08BDC
:1007A000891401F500414843B4F9221002F00F0CFE
:1007B000090401EBA606A9EB26367343C113B3FB6C
:1007C000F1F141F39C004043B4F92A3040135843FF
:1007D000B4F9283041F35D077B4341F3D7165B132F
:1007E00003EB203306FB06F0464394F82C009209F5
:1007F000464394F9270003EB664303EBC0136420E0
:100800001B1103EB4103C8F80830236B94F90E1059
:1008100003EB830380331B12594391FBF0F194F9EE
:100820000D6059435E43891196FBF0F691FBF0F1A0
:100830003144668901F5804171438E12DDE9017111
:1008400041EA07212789A1EB071194F90C705F4356
:1008500097FBF0F7A1EB6701714394F91060002753
:10086000734393FBF0F3E07B40F23C5603EBC01381
:10087000881340431B118012434301EB6303991219
:100880004FF47A734B432B491B1323EAE3738B42D8
:10089000D4BFC8F80C30C8F80C10052194F93630D4
:1008A000C3FB0167244B53F82C30A6FB030103FB69
:1008B0000711060C4FEA214E46EA01460021039B30
:1008C00042EA8302D30313F17F4341F1FF319A19C6
:1008D00041EB0E03194951F82C10A1FB066701FBEF
:1008E0000E77700A560846EAC37640EAC7504FEAC8
:1008F000672C591080194CEB01010AF0D7F9C8F8A0
:1009000010006DB1284609B0BDE8F08F0A20236DB4
:100910009847013F17F0FF077FF4A6AE0225F1E7E5
:1009200098F90030002BB6BF012384F8455084F8B5
:100930004530E7E7A08601000000002040000020CD
:1009400070470246037C13F008001EBF506AD36A4A
:10095000181A0028B8BF6FF0004070477047704702
:10096000704710B504462C2109F095F9204610BDBA
:1009700010B50446342109F08EF9204610BD10B59B
:10098000044641F2300109F086F9204610BD00000E
:1009900008B55221024806F015FC012008BD00BF31
:1009A0001C0C0020083005F0E1BD103005F0DEBD64
:1009B00007B501228DF8071010300DF1070105F081
:1009C000D5FD03B05DF804FB103005F045BD1030D7
:1009D00005F071BC07B501220DF10701103005F0DB
:1009E000BBFB012814BF4FF0FF309DF8070003B098
:1009F0005DF804FB00F2644005F019BA00F26440AF
:100A000005F04DB900F2644005F08BB900F2644086
:100A100005F0FDB810B50446006808B106F042FFC5
:100A2000204610BD10B50C46042206F0A7FC204657
:100A300010BD002313B5ADF8063007F0DCFC982894
:100A400004460BD809F080F8204602220DF1060179
:100A500006F08CFCBDF8060002B010BD4FF0FF3070
:100A6000FAE710B50C46042206F080FC204610BDC3
:100A700007B501228DF8071008300DF1070105F0C8
:100A800075FD03B05DF804FB0EB403B503AB53F87A
:100A9000042B0021019307F01BFE02B05DF804EB6C
:100AA00003B07047002340681A46194606F08ABE14
:100AB00010B50446142109F0EEF8204610BD0EB41E
:100AC00010B50023016820208DB00FAA52F8044B06
:100AD000CDE90403CDE9004203921E2004AA06F0EA
:100AE000E5FD0DB0BDE8104003B0704710B50D4CEA
:100AF0002378BFF35B8FDB0711D42046FFF7EBFAB7
:100B000068B10321084A094B094808F02BFE20462A
:100B1000FFF7E6FA074A0849054809F0B7F804481C
:100B200010BD00BFFC020020040300208803002049
:100B300018050020B00200204109080810B5FFF791
:100B4000D5FF074B044653B108F029FE38B123689E
:100B500020461B699847002801DDAFF3008010BDD7
:100B60000000000010B50D4C2378BFF35B8FDB074E
:100B700011D42046FFF7AFFA68B10421084A094BA7
:100B8000094808F0EFFD2046FFF7AAFA074A08498E
:100B9000054809F07BF8044810BD00BF00030020A1
:100BA0000C040020900400202C050020B00200203E
:100BB0004109080810B5FFF7D5FF074B044653B1AC
:100BC00008F0EDFD38B1236820461B6998470028DE
:100BD00001DDAFF3008010BD0000000038B5044611
:100BE00000F2644004F082FF08B9002038BD04F52B
:100BF0008865284605F066FC0121204605F08FFE39
:100C0000014668B12146284605F08DFA0028ECD04F
:100C100094F8403413F0700FE7D0044B1D60E5E703
:100C2000204605F07CFE0028ECD1DEE7D41C002035
:100C300038B50C46054609F001F86B2108F062FE54
:100C400008F0FCFF036829469B68984708F0F6FF08
:100C5000036821469B68984708F0F0FFBDE83840DC
:100C6000012108F06ABE000037B508F06DFF40F2C0
:100C700013636425002401A900200193FFF7D2FE2D
:100C800008F062FF01A908200195FFF7CBFE08F0EC
:100C90005BFF01A910200195FFF7C4FE08F054FF87
:100CA00001A998200195FFF7BDFE08F04DFF01A9AD
:100CB00018200195FFF7B6FE08F046FF01A9202095
:100CC0000195FFF7AFFE08F03FFF01A9282001952D
:100CD000FFF7A8FE08F038FF01A930200195FFF7C3
:100CE000A1FE08F031FF01A938200195FFF79AFE17
:100CF00008F02AFF01A940200195FFF793FE08F0B4
:100D000023FF01A904200194FFF78CFE08F01CFFCB
:100D100001A90C200194FFF785FE08F015FF01A939
:100D200094200194FFF77EFE08F00EFF01A9142025
:100D30000194FFF777FE08F007FF01A91C2001943A
:100D4000FFF770FE08F000FF01A924200194FFF7CF
:100D500069FE08F0F9FE01A92C200194FFF762FE5C
:100D600008F0F2FE01A934200194FFF75BFE08F0C1
:100D7000EBFE01A93C200194FFF754FE08F0E4FECD
:100D800001A944200194FFF74DFE08F0DDFE01A902
:100D900048200194FFF746FE08F0D6FE01A958202E
:100DA0000194FFF73FFE08F0CFFE41495C20FFF7BA
:100DB00039FE08F0C9FE4FF47A7301A94C20019363
:100DC000FFF730FE08F0C0FE42F2107301A9502078
:100DD0000193FFF727FE08F0B7FE6FF0060301A9A5
:100DE00054200193FFF71EFE324B186809F01EFDD8
:100DF00007F040FD08F0A8FE01A960200194FFF76C
:100E000011FE08F0A1FE2846012501A90194FFF773
:100E100009FE08F099FE01A968200195FFF702FE7E
:100E200008F092FE01A96C200194FFF7FBFD08F089
:100E30008BFE01A970200194FFF7F4FD08F084FEF9
:100E400001A974200195FFF7EDFD08F07DFE01A9D1
:100E500078200195FFF7E6FD08F076FE01A97C20D9
:100E60000194FFF7DFFD08F06FFE01A980200195D6
:100E7000FFF7D8FD08F068FE01A984200194FFF770
:100E8000D1FD08F061FE01A988200194FFF7CAFD99
:100E900008F05AFE01A98C200194FFF7C3FD08F069
:100EA00053FE01A990200194FFF7BCFD03B030BDB3
:100EB000881C0020741C00202DE9F347C64C08F064
:100EC00043FE21460020FFF7CCFD2368013304D107
:100ED00040F213632360FFF7C7FE08F035FE01A957
:100EE0000820FFF7BEFD019809F0A0FCBB4909F0FE
:100EF000A5FDDFF87493DFF87483C9F8000008F0EB
:100F000023FE01A91020FFF7ACFD019809F08EFC2B
:100F1000B24909F093FDC8F8000008F015FE01A9D8
:100F20009820FFF79EFD019809F080FCAB4909F07D
:100F300085FDAB4FAB4E386008F006FE01A91820C6
:100F4000FFF78FFD019809F071FCA44909F076FDC7
:100F5000306008F0F9FD01A92020FFF782FD01981B
:100F600009F064FC9D4909F069FD9F4D9F4C286084
:100F700008F0EAFD01A92820FFF773FD019809F0A8
:100F800055FC964909F05AFD206008F0DDFD01A9E5
:100F90003020FFF766FD019809F048FC8F4909F001
:100FA0004DFD934BDFF8C8A2186008F0CDFD01A9F4
:100FB0003820FFF756FD019809F038FC874909F001
:100FC0003DFD8C4B186008F0BFFD01A94020FFF7E4
:100FD00048FD019809F02AFC804909F02FFD864B55
:100FE000186008F0B1FD85490420FFF73AFD08F0CC
:100FF000ABFD83490C20FFF734FD08F0A5FD8149C6
:101000009420FFF72EFD08F09FFD7F491420FFF785
:1010100028FD08F099FD7D491C20FFF722FD08F00E
:1010200093FD7B492420FFF71CFD08F08DFD7949D5
:101030002C20FFF716FD08F087FD77493420FFF7D5
:1010400010FD08F081FD75493C20FFF70AFD08F00E
:101050007BFD73494420FFF704FD08F075FD7149DD
:101060004820FFF7FEFC08F06FFD6F495820FFF79E
:10107000F8FC08F069FD6D495C20FFF7F2FC08F010
:1010800063FD6B494C20FFF7ECFC08F05DFD6949FE
:101090005020FFF7E6FC08F057FD01A95420FFF7A8
:1010A000E0FC019809F0C2FB07F0E4FB08F04CFDFE
:1010B00061496020FFF7D5FC08F046FD5F496420D8
:1010C000FFF7CFFC08F040FD5D496820FFF7C9FC41
:1010D00008F03AFD5B496C20FFF7C3FC08F034FDD3
:1010E00059497020FFF7BDFC08F02EFD57497420C8
:1010F000FFF7B7FC08F028FD55497820FFF7B1FC51
:1011000008F022FD53497C20FFF7ABFC08F01CFDE2
:1011100051498020FFF7A5FC08F016FD4F498420B7
:10112000FFF79FFC08F010FD4D498820FFF799FC60
:1011300008F00AFD51468C20FFF793FC08F004FDEF
:1011400090204849FFF78DFCDAF8003013B10020F9
:1011500007F090FB41F287313C4AD9F80000136850
:10116000013B8B4288BF01234FF0000188BF136011
:1011700009F044FD18B14FF07E53C9F8003000214A
:10118000D8F8000009F03AFD18B14FF07E53C8F8C6
:1011900000300021386809F031FD10B14FF07E5366
:1011A0003B600021306809F029FD10B14FF07E53FB
:1011B00033600021286809F021FD10B14FF07E5303
:1011C0002B600021206809F019FD10B14FF07E530B
:1011D000236002B0BDE8F087800000200000C84214
:1011E000C8020020E0020020E8020020D80200200F
:1011F000781C00209007002098070020B8020020EB
:10120000D0020020D4020020E4020020EC020020E2
:10121000DC0200207C1C0020940700209C0700209A
:101220004C1C0020D405002050070020881C002002
:10123000980000209C000020801C0020480700200F
:10124000440700204C0700205407002040070020DE
:101250005005002040050020AC060020CC020020F4
:1012600060060020CC050020B4020020C40200204B
:10127000180C002010B508F077F903681B6998472F
:1012800090B9FFF76FFC03681B6998470028F2DDEF
:10129000FFF768FC03685B699847044608F064F947
:1012A000E1B207F0F9F8E6E710BD00002DE9F341DF
:1012B00006460D4600240F4F01F1FF38AC4212D014
:1012C0003946325D01A806F0FDFA08F04DF901A992
:1012D00007F0DEF8A04504D008F046F9202107F019
:1012E000DBF80134EAE708F03FF907F0D8F802B07C
:1012F000BDE8F0816ACD0808F8B504460D460646FB
:101300000F18BE4207D0FFF72DFC036816F8011B2B
:101310009B689847F5E729462046BDE8F840FFF767
:10132000C5BF00001FB5074A01AB52F80E0F516848
:10133000128903C30A2101A81A80FFF7DDFF05B057
:101340005DF804FB70EC08081FB5074A01AB52F8C2
:10135000180F5168128903C30A2101A81A80FFF7E8
:10136000CBFF05B05DF804FB70EC0808000000003E
:1013700038B52F4B1D682F4B1B680BB32E4B58896C
:1013800009F050FA2D4909F059FB2D4909F0A2FA4C
:101390002C4909F095F9044625B108F0E5F82A49E9
:1013A00007F089F8294B2046196809F093FA04469A
:1013B000274B186809F03AFA214609F083F938BD3D
:1013C000244B1B6813B325B108F0CEF8224907F06F
:1013D00072F80B2008F0A0FB09F028FA08F0CCFD09
:1013E0000FA3D3E9002308F01FFE09F015F94FF011
:1013F0007C5109F065F908F0BFFD0BA3D3E9002388
:1014000008F03CFF09F008F90446CBE725B108F0E5
:10141000ABF8124907F04FF8114B1C68C2E700BF48
:101420002D431CEBE2364A3F7B14AE47E17A843F02
:10143000D4050020AC060020A006002000F87F465E
:1014400000002543000020426FCD0808781C0020D2
:101450007C1C00204407002090CD0808AFCD080870
:1014600054050020000000002DE9F0478E4F88B0A1
:1014700068468E4906F0A0FD3A6822B108F074F87B
:101480008B4907F018F88B4D0021288808F02BFBBA
:1014900008F0ACFB01224A2108F02DFA48BB08F005
:1014A00063F8854907F007F800240021834803F01A
:1014B00092FC30B93B6823B108F056F8804906F039
:1014C000FAFF08F093FB01224A2108F014FA0028E1
:1014D00039D168467B4906F0C1FD002401212888E6
:1014E00008F001FB684606F01DFD204608B0BDE887
:1014F000F0870321744803F0B5FD09F097F9734BA9
:10150000196809F0E7F97249044609F097FA0646A6
:1015100008F032FD00226F4B08F0CEFB21F00049AD
:10152000002249466C4B09F00FF80028BDD008F0A6
:101530001BF86A4906F0ACFF08F016F802223146A3
:1015400007F0B8F8B1E700215C4803F044FC00283C
:10155000BFD020465E4909F071FA08F00DFD002267
:101560005C4B08F0A9FB21F00047002239465A4B9A
:1015700008F0EAFF04460028ABD10A2780468146DE
:10158000514E0021304603F06DFD0121814430466B
:1015900003F068FD02218044304603F063FD03211F
:1015A000304603F05FFD013F0444EAD14FF00A0AE0
:1015B000464BB4FBFAF01F6809F038F9394609F0D8
:1015C00089F90446B9FBFAF009F030F9394609F017
:1015D00081F90146204609F073F8414909F02EFAD5
:1015E0000646B8FBFAF009F021F9394609F072F91C
:1015F0000146204609F064F83A4909F01FFA04460A
:10160000FFF7B6FE384909F00DFBD0B12146304650
:1016100009F056F808F0B0FC1FA3D3E9002308F046
:101620002DFE08F0F9FF02220146044604A806F048
:1016300039FD684604A906F009FD04A806F072FC0D
:101640004CE7FFF795FE294909F0ECFA20B1214655
:10165000304609F037F8DDE7FFF78AFE234909F045
:10166000F5FAA8B1204608F087FC0DA3D3E90023C2
:1016700008F0DAFC80463046894608F07DFC0246D8
:101680000B464046494608F019FB08F0C5FFC1E784
:101690000020BFE7AFF30080B6F3FDD478E9D63F72
:1016A00052B81E85EB51E83FD4050020F1ED080843
:1016B000DBCD0808C4000020F1CD0808B2060020E8
:1016C00026CE08084DCE08084A05002084000020D8
:1016D00000007A440000F43F0000E03F16CE080806
:1016E0000000F0C2000016C3000070410000C841B5
:1016F00030B51E49044685B002230C22A1F58E6048
:10170000FFF76CFA60B307F02FFF194906F0D3FE1C
:10171000184A1949194D462312680968184804F0F7
:10172000D8FE2B689BB91749174806F0C4FE07F08E
:10173000D6F9C3170246684607F0CEF8009912485A
:1017400006F0B9FE684606F0EDFB01232B60216828
:101750000D4806F0B0FE0A4804F0B4FE05B030BDF6
:1017600007F002FF094906F0A6FEF7E7100C00207B
:1017700051CE0808F8060020D41C002034070020B1
:10178000100700206BCE08080807002082CE08084A
:101790002DE9F0478CB06846B64906F00DFCB64F0F
:1017A000DFF8D082B54EFFF7DDF90D22014608A81B
:1017B00006F0EAFF08A9684606F048FC08A806F00B
:1017C000B1FB07230422694604A806F06DFD3946E3
:1017D00004A806F0EBFC054668BB4146684606F0E7
:1017E000E5FC044650B307F0BFFE314606F063FE49
:1017F000314608A806F0E0FB08A8FFF779FF08A823
:1018000006F090FB012404A806F08CFB5DB14FF0BC
:1018100000089B4904A806F0CFFB4746994E9A4D15
:10182000DFF8749232E0002CBDD0684606F07AFBF7
:101830000CB0BDE8F08700240125E4E70546E2E7A7
:1018400004F1010A5146684606F0CBFC2C281AD058
:1018500004F10B035246694608A806F025FD08A9C5
:1018600004A806F0F3FB08A806F05CFBD9F80030EA
:101870004BB107F079FE854906F00AFE07F074FEC9
:10188000049906F018FE013708F10108029B1FFABF
:1018900088F4A34240F2EA802146684606F0A1FCA3
:1018A0002C28F1D1072FEED801A353F827F000BF61
:1018B00041180808D11808088718080843190808AB
:1018C0008718080887180808AD190808EB190808D0
:1018D00004F1010A5146684606F083FC2C28D2D058
:1018E00004F10A035246694608A806F0DDFC08A97F
:1018F00004A806F0ABFB08A806F014FBD9F80030EA
:101900004BB107F031FE624906F0C2FD07F02CFE34
:10191000049906F0BDFD04A908A806F08CFB04F1AB
:101920000C01684606F05DFC08A90246304603F04B
:10193000C3FB08A806F0F6FA2B8823F008032B80D7
:10194000A1E704F1010A5146684606F04AFC2C283A
:1019500099D004F10B035246694608A806F0A4FC8E
:1019600008A904A806F072FB08A806F0DBFAD9F86B
:1019700000304BB107F0F8FD464906F089FD07F04D
:10198000F3FD049906F084FD04A908A806F053FBB2
:1019900004F10D01684606F024FC08A90246304611
:1019A00003F0D2FB08A806F0BDFA6CE704F1010AC7
:1019B0005146684606F015FC2C283FF464AF5246A9
:1019C000E31C694608A806F06FFC08A904A806F005
:1019D0003DFB08A806F0A6FA04A908A806F02BFB10
:1019E000304608A903F0F6FBDCE704F1010A514692
:1019F000684606F0F6FB2C283FF445AF5246E31C40
:101A0000694608A806F050FC08A904A806F01EFBC9
:101A100008A806F087FA04A908A806F00CFB08A994
:101A2000304603F0DFFB08A806F07CFA2B8830462E
:101A300023F00C032B8003F0EBFB012803DC2B8845
:101A400043F00C037BE7304603F0E2FB042803DCA1
:101A50002B8843F0080372E7304603F0D9FB1328C4
:101A60003FF711AF2B8843F0040368E704A806F0A2
:101A700059FADAE69ECE0808A3CE0808A7CE0808D1
:101A8000F1ED080868060020601C0020B9CE0808A7
:101A9000CACE0808DCCE0808D40500202DE9F0479E
:101AA00090B0B649684606F087FAB54904A806F032
:101AB00083FAB44DB14CFFF755F80D2201460CA83E
:101AC00006F062FE0CA9684606F0C0FA0CA806F003
:101AD00029FA0723042269460CA806F0E5FB0CA9A5
:101AE00004A806F0B3FA0CA806F01CFA294604A8CC
:101AF00006F05CFB002840F035812146684606F080
:101B000055FB0028D7D007F02FFD9F4906F0D3FCE6
:101B10009D490CA806F050FA0CA8FFF7E9FD0CA8A7
:101B200006F000FA04A806F0FDF9684606F0FAF996
:101B300010B0BDE8F08704F1010A5146684606F08E
:101B400050FB2C281AD004F10B03524669460CA80E
:101B500006F0AAFB0CA908A806F078FA0CA806F073
:101B6000E1F9D8F800304BB107F0FEFC874906F0E8
:101B70008FFC07F0F9FC089906F09DFC09F10109BA
:101B80000137029BBCB2A34240F2EA80214668467C
:101B900006F027FB2C28F3D109F1FF33062BEDD8F3
:101BA00001A252F823F000BFC51B08087D1B0808DE
:101BB000371C08087D1B0808A11C0808371B0808EB
:101BC000DF1C080804F1010A5146684606F009FBCB
:101BD0002C28D3D004F10A03524669460CA806F01B
:101BE00063FB0CA908A806F031FA0CA806F09AF9D4
:101BF000D8F800304BB107F0B7FC654906F048FC57
:101C000007F0B2FC089906F043FC08A90CA806F0FE
:101C100012FA04F10C01684606F0E3FA0CA9024638
:101C2000304603F049FA0CA806F07CF92B8823F023
:101C300008032B80A2E704F1010A5146684606F02A
:101C4000D0FA2C289AD004F10B03524669460CA80E
:101C500006F02AFB0CA908A806F0F8F90CA806F073
:101C600061F9D8F800304BB107F07EFC494906F025
:101C70000FFC07F079FC089906F00AFC08A90CA8EB
:101C800006F0D9F904F10D01684606F0AAFA0CA98C
:101C90000246304603F058FA0CA806F043F96DE707
:101CA00004F1010A5146684606F09BFA2C283FF4DD
:101CB00065AF5246E31C69460CA806F0F5FA0CA97C
:101CC00008A806F0C3F90CA806F02CF908A90CA87E
:101CD00006F0B1F930460CA903F07CFADCE704F118
:101CE000010A5146684606F07CFA2C283FF446AFBC
:101CF0005246E31C69460CA806F0D6FA0CA908A8BF
:101D000006F0A4F90CA806F00DF908A90CA806F035
:101D100092F90CA9304603F065FA0CA806F002F916
:101D20002B88304623F00C032B8003F071FA012836
:101D300003DC2B8843F00C037BE7304603F068FAA2
:101D4000042803DC2B8843F0080372E7304603F0D5
:101D50005FFA13283FF712AF2B8843F0040368E7BC
:101D600008A8DDE60027064908A806F025F9B946C7
:101D7000094E0A4DDFF8288003E700BF9ECE080811
:101D8000F1ED080801CF0808EFCE0808B9CE080821
:101D9000CACE0808DCCE080868060020601C0020B7
:101DA000D4050020000000002DE9F04F904C89B0D0
:101DB0006846904906F000F9236823B107F0D4FB88
:101DC0008D4906F078FB8D4E0021308807F08BFEA0
:101DD00007F00CFF0122492107F08DFD002845D1B5
:101DE000236873B107F0C0FB854906F064FB8449A2
:101DF00004A806F0E1F804A8FFF77AFC04A806F0AE
:101E000091F800217F4802F0E6FF80B9236873B1A2
:101E100007F0AAFB7C4906F04EFB7C4904A806F0BB
:101E2000CBF804A8FFF764FC04A806F07BF807F0E1
:101E3000DDFE0122492107F05EFD002840D1684601
:101E4000734906F00BF900250121308807F04BFE9D
:101E5000236823B107F088FB6E4906F019FB68463A
:101E600006F060F8284609B0BDE8F08F03216A4803
:101E700003F0F8F808F0DAFC684B196808F02AFD5E
:101E8000674908F0DBFD08F077F80022654B8046D3
:101E9000894607F011FF21F0004B00225946624BA2
:101EA00008F052FB0028ACD02368002BA9D007F023
:101EB0005BFB5E4942464B46FEF7E6FD5C4997E711
:101EC0000021504802F087FF0028B8D000250A27DB
:101ED000A846A946DFF840A10021504603F0C2F809
:101EE00001218144504603F0BDF802218044504650
:101EF00003F0B8F80321504603F0B4F8013F17F09F
:101F0000FF070544E8D14FF00A0B444BB5FBFBF04B
:101F1000D3F800A008F08AFC514608F0DBFC074625
:101F2000B9FBFBF008F082FC514608F0D3FC0146F7
:101F3000384608F0C5FB3F4908F080FD0546B8FB70
:101F4000FBF008F073FC514608F0C4FC014638462B
:101F500008F0B6FB384908F071FD0746FFF708FAAC
:101F6000364908F05FFED0B13946284608F0A8FB94
:101F700008F002F81AA3D3E9002308F07FF908F06B
:101F80004BFB02220146054604A806F08BF8684682
:101F900004A906F05BF804A805F0C4FF54E7FFF7B6
:101FA000E7F9274908F03EFE20B13946284608F0F7
:101FB00089FBDDE7384607F0DFFF0BA3D3E90023F9
:101FC00008F032F880462846894607F0D5FF0246D9
:101FD0000B464046494607F071FE08F01DFBC7E777
:101FE000B6F3FDD478E9D63F52B81E85EB51E83FF1
:101FF000D4050020F1ED080805CF0808C000002036
:1020000019CF0808B106002069CF08088DCF08084D
:102010004DCE0808A0CF0808440500208400002009
:1020200000007A440000F43F0000E03F3ECF080883
:1020300050CF08080000F0C2000016C30000704135
:102040000000C84110B590B01D4908A805F0B4FFC4
:102050001C4904A805F0EFFF04A908A806F086F8BB
:10206000194906F08FF8044618490CA805F0E3FF5B
:102070000CA9204606F07AF8154906F083F80146C7
:10208000684605F0D8FF0CA805F04CFF04A805F041
:1020900049FF08A805F046FF07F066FA0D4906F06B
:1020A0000AFA07F07FFB009906F005FA07F05CFAE0
:1020B000094906F000FA684605F034FF10B010BD7B
:1020C000B5CF0808501C0020B8CF080858070020DA
:1020D00012D00808BACF0808DECF080810B52C4C7B
:1020E0000121208807F0FFFCFA2006F059FD0021AD
:1020F000208807F0F8FCFA2006F052FD0121208824
:1021000007F0F1FCFA2006F04BFD0021208807F0D3
:10211000EAFCFA2006F044FD0121208807F0E3FCE8
:10212000FA2006F03DFD0021208807F0DCFCFA20B3
:1021300006F036FD0121208807F0D5FCFA2006F0D4
:102140002FFD0021208807F0CEFCFA2006F028FDA4
:102150000121208807F0C7FCFA2006F021FD0021AC
:10216000208807F0C0FCFA2006F01AFD0121208823
:1021700007F0B9FCFA2006F013FD2088002107F0D3
:10218000B2FCBDE810406B210720FEF751BD00BF37
:10219000C800002070B5124E124D3088124C00213C
:1021A00007F0A1FC2888002107F09DFC0021208871
:1021B00007F099FC4FF47A7006F0F2FC30880121A8
:1021C00007F091FC2888012107F08DFC208801216F
:1021D00007F089FCBDE870404FF47A7006F0E0BC6F
:1021E00090000020880000208C00002000B58FB0F7
:1021F000834902A805F0E0FE07F0B6F9814906F030
:102200005AF900230093804B06A8D3E9002305F078
:1022100060FF06A90AA805F00EFF7C490AA805F090
:10222000B1FF014602A805F081FF0AA805F07AFE79
:1022300006A805F077FE764B0322196806A805F07C
:1022400031FF06A90AA805F0F6FE70490AA805F0B4
:1022500099FF014602A805F069FF0AA805F062FE91
:1022600006A805F05FFE6B4B0322196806A805F06F
:1022700019FF06A90AA805F0DEFE64490AA805F0C0
:1022800081FF014602A805F051FF0AA805F04AFEA9
:1022900006A805F047FE604802F0B0FF00220023C8
:1022A00008F02AF9002840F09B805B4802F0B5FF57
:1022B00018B95A4902A805F03DFF574802F09EFFA1
:1022C0000B4606210246009106A805F002FF06A96A
:1022D0000AA805F0B0FE4D490AA805F053FF0146D3
:1022E00002A805F023FF0AA805F01CFE06A805F0C9
:1022F00019FE494802F087FF0022002308F0FCF88D
:10230000002872D1444802F08BFF012803D14349D1
:1023100002A805F00FFF404802F075FF0B460621AA
:102320000246009106A805F0D4FE06A90AA805F009
:1023300082FE36490AA805F025FF014602A805F0ED
:10234000F5FE0AA805F0EEFD06A805F0EBFD324803
:1023500002F059FF0022002308F0CEF8002849D1EE
:102360002D4802F055FF07F0F5FD00222C4B07F039
:1023700085FF0B4606210246009106A805F0A9FE3E
:1023800006A90AA805F057FE20490AA805F0FAFE9A
:10239000014602A805F0CAFE0AA805F0C3FD06A87A
:1023A00005F0C0FD1F4B0AA800931F4B1F49D3E93E
:1023B000002306F035FB0AA902A805F0B7FE0AA81B
:1023C00005F0B0FD1A4902A805F0B4FE02991948BB
:1023D00006F05EF802A805F0A5FD0FB05DF804FB5D
:1023E000154906A805F0E8FD71E7144906A805F0AF
:1023F000E3FD9AE7124906A805F0DEFDC0E700BF3D
:10240000F1ED0808E7CF080838070020B8CF080822
:10241000BC020020C002002068060020FCCF080893
:1024200000002440FECF0808681C0020F41C002097
:1024300010D008081C0C0020A6000020B2000020CC
:10244000A000002038B51D4805F0DEFA054607F06B
:102450008BF82A461A49FEF717FB642D1FD0962DDC
:102460001FD0B5F5FA7F1FD0B5F5617F1FD0B5F548
:10247000966F40F2DC5407D0A5421BD040F6B8342A
:10248000B5F5FA6F18BF2C46A1B20C4805F0FDFA5D
:1024900007F06AF822460B49FEF7F6FA38BD962493
:1024A000F2E74FF4FA74EFE74FF46174ECE74FF49E
:1024B0009664E9E74FF4FA64E6E700BF6807002096
:1024C00014D0080832D008087FB52D4805F0A8FAC6
:1024D00010F0800F14BF4FF400650025044643063A
:1024E00048BF05F58065860648BF05F50075E0061E
:1024F00048BF05F58075210748BF8035620748BF92
:10250000403507F031F82A461E49FEF7BDFA201D76
:10251000030656BF00214FF400650D46C4B248BF04
:10252000012114F040021CBF05F58065012214F062
:1025300020031CBF012305F5007514F010001CBF1B
:1025400005F58075012014F008061CBF80350126B2
:1025500014F0040418BF01240090CDE90164084878
:1025600018BF403505F0EFFA054805F059FA06F0B6
:10257000FBFF2A460449FEF787FA04B070BD00BF8E
:102580006807002050D0080879D0080830B55A4DA7
:1025900095B006F0E9FF594905F07AFF584C06F06E
:1025A000E3FF296805F087FF06F0DEFF554905F0D7
:1025B0006FFF06F0D9FF216805F07DFF06F0D4FF1C
:1025C000514905F078FF06F0CFFF4CF2503106F08C
:1025D000C5F806F0C9FF0D220146684606F0D4F89A
:1025E00068464A4905F0E2FD002874D006F0BCFFB9
:1025F000474905F060FF06F0B7FF464905F05BFF6D
:1026000006F0B2FF4CF2503106F0A8F806F0ACFF2D
:102610000D22014604A806F0B7F806F0A5FF3E49D2
:1026200005F036FF06F0A0FF049905F044FF06F020
:102630009BFF3A4905F03FFF06F096FF0D22014649
:1026400008A806F0A1F8364908A805F0AFFD002853
:102650004CD006F089FF334905F02DFF04A9284628
:1026600005F0DAFC06F080FF2F4905F024FF06F0A4
:102670007BFF0D2201460CA806F086F806F074FFD9
:102680002A4905F005FF06F06FFF0C9905F013FFCE
:1026900006F06AFF0D22014610A806F075F82049E1
:1026A00010A805F083FDD8B106F05EFF204905F0C3
:1026B00002FF0CA9204605F0AFFCFFF7C3FC10A8F1
:1026C00005F030FC0CA805F02DFC08A805F02AFC4C
:1026D00004A805F027FC684605F024FC15B030BDC1
:1026E00006F042FF134905F0E6FEE8E706F03CFF7E
:1026F000104905F0E0FEE8E7501C002097D00808DC
:1027000058070020ADD00808C7D00808F9D008083D
:10271000FFD0080811D1080821D1080839D10808CC
:1027200065D808084FD108085FD1080872D1080899
:102730008ED10808A2D108081FB506F015FF194967
:1027400005F0B9FE06F010FF4CF2503106F006F825
:1027500006F00AFF0D220146684606F015F86846A5
:10276000114905F023FDB8B106F0FEFE0F4905F052
:10277000A2FE06F0F9FE0E4905F09DFE01230D4C68
:10278000236007F0E1F921468C20FEF74BF96846FB
:1027900005F0C8FB04B010BD06F0E6FE064905F0E2
:1027A0008AFEF4E7B5D10808F8D10808FFD0080878
:1027B00003D20808180C002024D208081FB506F020
:1027C000D3FE05F06CFE06F0CFFE144905F073FE53
:1027D00006F0CAFE4CF2503105F0C0FF06F0C4FE10
:1027E0000D220146684605F0CFFF68460C4905F00A
:1027F000DDFC60B106F0B8FE0A4905F05CFEFEF7AC
:1028000033FA684605F08EFB05B05DF804FB06F070
:10281000ABFE054905F04FFEF3E700BF3AD20808CA
:10282000F9D0080873D2080824D2080810B588B077
:1028300006F09AFE204905F03EFE06F095FE4CF2A9
:10284000503105F08BFF06F08FFE0D2201466846E1
:1028500005F09AFF684605F0CEFD044606F084FEBA
:10286000164905F028FE164B9C421EDDE117204656
:1028700006F01EF806F078FE124905F009FE06F093
:1028800073FE044606F02BF90246C31704A806F0AF
:1028900023F82046049905F00EFE04A805F042FB3B
:1028A000684605F03FFB08B010BD06F05DFE064926
:1028B00005F001FEF4E700BFE2D20808F1ED0808D8
:1028C000F52E94391DD3080830D3080830B58BB0E5
:1028D00006F04AFE05F0E3FD06F046FE324905F03B
:1028E000D7FD06F041FE0446304D0222296806A8B5
:1028F00005F0D8FB0699204605F0CAFD06A805F0AC
:1029000011FB06F031FE2A4905F0D5FD06F02CFE3C
:10291000284905F0BDFD06F027FE4CF2503105F0C8
:102920001DFF06F021FE0D22014602A805F02CFF36
:1029300002A805F065FD4FF07C51044608F07CF9D3
:1029400058B320461C4908F063F930B31B492046B0
:102950002C6007F0BFFF08F083F9019006F004FE39
:10296000174905F095FD06F0FFFD0446022229688F
:1029700006A805F097FB0699204605F09CFD06A8E1
:1029800005F0D0FA07F0E0F8082001A9FEF74AF8B0
:1029900002A805F0C7FA0BB030BD06F0E5FD094905
:1029A00005F089FDF4E700BF41D30808B402002018
:1029B00054D3080859D30808000020410000C84239
:1029C0006FD3080830D3080830B58BB006F0CCFDC3
:1029D00005F065FD06F0C8FD374905F059FD06F024
:1029E000C3FD0446354D0222296806A805F05AFBAE
:1029F0000699204605F04CFD06A805F093FA06F06E
:102A0000B3FD2F4905F057FD06F0AEFD2D4905F049
:102A10003FFD06F0A9FD4CF2503105F09FFE06F097
:102A2000A3FD0D22014602A805F0AEFE02A805F0A6
:102A3000E7FC044607F0A0FA1DA3D3E9002307F042
:102A400079FD60B34FF08041204608F0E1F830B3E3
:102A50001D4920462C6007F03DFF08F001F9019068
:102A600006F082FD194905F013FD06F07DFD0446D0
:102A70000222296806A805F015FB0699204605F0F4
:102A80001AFD06A805F04EFA07F05EF8102001A91D
:102A9000FDF7C8FF02A805F045FA0BB030BD06F0FF
:102AA00063FD0B4905F007FDF4E700BFAFF30080BD
:102AB0009A9999999999B93F81D30808C40200203D
:102AC00054D3080893D308080000C842A8D30808C4
:102AD00030D3080830B58BB006F046FD05F0DFFCBA
:102AE00006F042FD324905F0D3FC06F03DFD0446F8
:102AF000304D0222296806A805F0D4FA069920462E
:102B000005F0C6FC06A805F00DFA06F02DFD2A49D1
:102B100005F0D1FC06F028FD284905F0B9FC06F0C7
:102B200023FD4CF2503105F019FE06F01DFD0D227B
:102B3000014602A805F028FE02A805F061FC4FF04E
:102B40007C51044608F078F860B34FF07F5120467E
:102B500008F05EF830B31A4920462C6007F0BAFE40
:102B600008F07EF8019006F0FFFC164905F090FC95
:102B700006F0FAFC04460222296806A805F092FA3B
:102B80000699204605F097FC06A805F0CBF906F05B
:102B9000DBFF302001A9FDF745FF02A805F0C2F9CF
:102BA0000BB030BD06F0E0FC074905F084FCF4E70B
:102BB000BAD30808781C0020D5D30808E0D3080849
:102BC0000000C842FED3080830D3080830B58BB0E7
:102BD00006F0CAFC05F063FC06F0C6FC324905F0BD
:102BE00057FC06F0C1FC0446304D0222296806A8B5
:102BF00005F058FA0699204605F04AFC06A805F0AB
:102C000091F906F0B1FC2A4905F055FC06F0ACFC40
:102C1000284905F03DFC06F0A7FC4CF2503105F0C8
:102C20009DFD06F0A1FC0D22014602A805F0ACFDB9
:102C300002A805F0E5FB4FF07C51044607F0FCFFCD
:102C400060B34FF07F51204607F0E2FF30B31A49DE
:102C500020462C6007F03EFE08F002F8019006F0D6
:102C600083FC164905F014FC06F07EFC04460222A3
:102C7000296806A805F016FA0699204605F01BFCFF
:102C800006A805F04FF906F05FFF382001A9FDF70F
:102C9000C9FE02A805F046F90BB030BD06F064FC91
:102CA000074905F008FCF4E718D40808900700204D
:102CB00030D4080836D408080000C84251D40808A7
:102CC00030D3080830B58BB006F04EFC05F0E7FBBA
:102CD00006F04AFC324905F0DBFB06F045FC0446F1
:102CE000304D0222296806A805F0DCF90699204635
:102CF00005F0CEFB06A805F015F906F035FC2A49CB
:102D000005F0D9FB06F030FC284905F0C1FB06F0C0
:102D10002BFC4CF2503105F021FD06F025FC0D2274
:102D2000014602A805F030FD02A805F069FB4FF04E
:102D30007C51044607F080FF58B320461C4907F039
:102D400067FF30B31B4920462C6007F0C3FD07F036
:102D500087FF019006F008FC174905F099FB06F083
:102D600003FC04460222296806A805F09BF906998F
:102D7000204605F0A0FB06A805F0D4F806F0E4FE16
:102D8000402001A9FDF74EFE02A805F0CBF80BB0DC
:102D900030BD06F0E9FB094905F08DFBF4E700BF03
:102DA00068D40808980700207AD408087DD4080859
:102DB000000020410000C84292D4080830D308081F
:102DC00008B506F0D1FBA24905F075FB06F0CCFB77
:102DD000A04905F070FB06F0C7FB9F4905F06BFBAF
:102DE00006F0C2FB9D4905F066FB06F0BDFB9C4961
:102DF00005F061FB06F0B8FB9A4905F05CFB06F0B4
:102E0000B3FB994905F057FB06F0AEFB974905F077
:102E100052FB06F0A9FB964905F04DFB06F0A4FB1A
:102E2000944905F048FB06F09FFB934905F043FBEE
:102E300006F09AFB914905F03EFB06F095FB9049A0
:102E400005F039FB06F090FB8E4905F034FB06F0E7
:102E50008BFB8D4905F02FFB06F086FB8B4905F0B7
:102E60002AFB06F081FB8A4905F025FB06F07CFB76
:102E7000884905F020FB06F077FB874905F01BFB2E
:102E800006F072FB854905F016FB06F06DFB8449E0
:102E900005F011FB06F068FB824905F00CFB06F01B
:102EA00063FB814905F007FB06F05EFB7F4905F0F7
:102EB00002FB06F059FB7E4905F0FDFA06F054FBD3
:102EC0007C4905F0F8FA06F04FFB7B4905F0F3FA70
:102ED00006F04AFB794905F0EEFA06F045FB784921
:102EE00005F0E9FA06F040FB764905F0E4FA06F051
:102EF0003BFB754905F0DFFA06F036FB734905F038
:102F0000DAFA06F031FB724905F0D5FA06F02CFB2F
:102F1000704905F0D0FA06F027FB6F4905F0CBFAAF
:102F200006F022FB6D4905F0C6FA06F01DFB6C4960
:102F300005F0C1FA06F018FB6A4905F0BCFA06F084
:102F400013FB694905F0B7FA06F00EFB674905F077
:102F5000B2FA06F009FB664905F0ADFA06F004FB8B
:102F6000644905F0A8FA06F0FFFA634905F0A3FAF0
:102F700006F0FAFA614905F09EFA06F0F5FA6049A2
:102F800005F099FA06F0F0FA5E4905F094FA06F0B9
:102F9000EBFA5D4905F08FFA06F0E6FA5B4905F0B9
:102FA0008AFA06F0E1FA5A4905F085FA06F0DCFAE9
:102FB000584905F080FA06F0D7FA574905F07BFA30
:102FC00006F0D2FA554905F076FA06F0CDFA5449E2
:102FD00005F071FA06F0C8FA524905F06CFA06F0ED
:102FE000C3FA514905F067FA06F0BEFA4F4905F0F9
:102FF00062FA06F0B9FA4E4905F05DFA06F0B4FA45
:103000004C4905F058FA06F0AFFA4B4905F053FA6F
:1030100006F0AAFA494905F04EFA06F0A5FA484921
:1030200005F049FA06F0A0FA464905F044FA06F020
:103030009BFA454905F03FFA06F096FA434905F038
:103040003AFA06F091FABDE80840414905F033BA72
:10305000A3D40808B9D40808CED40808E2D40808D4
:10306000F6D4080809D508081ED5080832D508087E
:1030700049D508085FD5080875D508088AD5080815
:10308000A7D50808C3D50808DDD50808F6D508086F
:1030900010D6080829D6080845D6080862D60808B8
:1030A0007BD6080897D60808AFD60808C8D60808FF
:1030B000E1D60808F5D608080AD7080825D7080871
:1030C00040D7080856D7080867D7080879D70808EE
:1030D0008AD708089CD70808C5D70808EED708087B
:1030E0001DD8080842D8080867D808088FD80808EB
:1030F000CFD8080812D908083DD9080880D908088F
:10310000C6D90808FAD9080818DA08083CDA080805
:1031100057DA080881DA0808B6DA0808DADA08089F
:10312000EEDA08080ADB08082FDB080853DB08087A
:1031300078DB0808A0DB0808CCDB08080FDC0808EF
:1031400041DC080867DC0808CDDC080831DD080828
:1031500046DD080838B5046805467CB16368013B64
:1031600063605BB9236820469B689847A368013B6E
:10317000A3601BB923682046DB689847284638BD02
:10318000B0B504469AB002AF7A49384604F014FF4D
:10319000794907F1100004F00FFF784907F150005A
:1031A00005F0DEFA07F1500107F1100004F04EFFC0
:1031B00007F1500004F0B6FEBA6907F11000D31D04
:1031C00023F00703ADEB030D02A9002305F00BF874
:1031D00006F0CAF96A4905F06EF906F0C5F93969D1
:1031E00005F069F9674907F1400004F0E5FE62491E
:1031F00007F1500004F0E0FE07F1500207F1400132
:1032000007F1100005F072F807F1500004F08AFE93
:1032100007F1400004F086FE592C1ED15A4B3A6942
:103220001B785A498DF8003007F150003C2305F017
:103230006BFF07F15400FFF78DFF04F087F8544B44
:10324000186004F0F7FA07F1100004F06BFE38463E
:1032500004F068FE6037BD46B0BD512CF3D13A2171
:1032600007F1100004F0E5FF4A4C0346002207F185
:10327000100107F1200005F017F807F120012046A2
:1032800004F0E9FF054606F06FF9434905F013F92C
:1032900006F06AF9396905F00EF906F065F93F495B
:1032A00005F009F906F060F9396A05F004F9002D16
:1032B0003BDDA368AA1E214607F1300004F0F4FFAD
:1032C000374907F1400004F077FE07F1400107F1AC
:1032D000300004F0C0FF0022431C07F1300107F169
:1032E000500004F0E1FF07F1500004F01BFE07F16D
:1032F000400004F017FE06F037F92A4905F0DBF824
:1033000006F032F9396B05F0D6F8204607F11002C5
:1033100007F1300104F0EAFF07F1300004F002FE8B
:1033200007F1200004F0FEFD8DE72046124904F06D
:103330003DFF78B106F018F91B4905F0BCF806F01E
:1033400013F9396905F0B7F8204607F1100104F0C8
:10335000EDFEE5E706F008F9144905F0ACF806F0D3
:1033600003F9396905F0A7F82C21204604F0F1FE95
:10337000EAE700BF69DE0808F1ED08081C0C002030
:103380006CDE08087FDE08081405002081DE0808CE
:10339000DC210020D805002088DE0808C3DE0808EC
:1033A000F9DE0808FCDE080820DF080836DF080818
:1033B0002DE9F04107460C4615462AB9BDE8F04113
:1033C0000368C9B29B68184700290DDA0A2A0BD195
:1033D0002D2105F061F8064661423846EAB205F053
:1033E0007EF83044BDE8F08121460026F5E738B587
:1033F0000546FFF7DDFF0446284605F050F8204457
:1034000038BD00004FF4DA4270B5C44BA8B0C449CF
:10341000C44D01A81A80C44C04F0CEFD072005F06D
:10342000BDFB0121288806F04DFB0121208806F014
:1034300049FBBE4B0121188806F044FBBC4B01211F
:10344000188806F03FFBBB4B0121188806F03AFBB9
:10345000B94B0121188806F035FBB84B01211888BB
:1034600006F030FBB64B0121188806F02BFBFDF768
:1034700023FDB44804F06DFA41F27001B14804F044
:103480009CFBB04804F048FBAF4E34210020FDF710
:10349000CFFB1B210120FDF7CBFB304601F042FDA5
:1034A00096F82130002B40F01D82FEF717FE012117
:1034B000288806F018FB2088012106F014FB9D4B9C
:1034C0000121188806F00FFB994B0121188806F09E
:1034D0000AFB994B0121188806F005FB974B012147
:1034E000188806F000FB964B0121188806F0FBFABD
:1034F0008E4B0121188806F0F6FA944A94499548B3
:1035000005F00FFD944A9549924805F00AFD944A4A
:103510009449904805F005FD002302229249934802
:1035200004F078F906F03EF94FF4165106F034F93C
:10353000FDF7DCFA4FF4165106F02EF9FDF712FBF9
:103540004FF4165106F028F9894803F087FE42F23D
:10355000107005F025FB06F007F84FF4165105F042
:10356000E9FF844B0A22196805A804F088FD05A923
:1035700009A804F060FD804909A804F003FE044690
:1035800005F0F6FA0A2201460DA804F078FD0DA90F
:10359000204604F0EBFD044605F0E2FA0A2201465B
:1035A00011A804F06CFD11A9204604F0DFFD0446CB
:1035B00005F0CAFA0A22014615A804F060FD20466B
:1035C00015A904F0D3FD6C4904F0DCFD044605F0B8
:1035D00097FA0A22014619A804F051FD19A92046BC
:1035E00004F0C4FD044605F097FA0A2201461DA81E
:1035F00004F045FD1DA9204604F0B8FD044605F081
:1036000097FA0A22014621A804F039FD204621A993
:1036100004F0ACFD594904F0B5FD594C0146204673
:1036200004F0FAFC21A804F07DFC1DA804F07AFC4B
:1036300019A804F077FC15A804F074FC11A804F094
:1036400071FC0DA804F06EFC09A804F06BFC05A841
:1036500004F068FC05F088FF4A4904F02CFF4A4951
:1036600021A804F0A9FC214621A804F07FFD014611
:10367000464804F0D1FC21A804F054FC444902233C
:103680000C22A1F58E60FDF7A9FA002800F03E811A
:1036900005F06AFF3F4904F0FBFE05F065FF216875
:1036A0003D4C04F008FF05F05FFF3C4904F003FFC8
:1036B00023684BB1394921A804F07EFC21A8FEF70C
:1036C00017F821A804F02EFC06F090FA06F0E4F8B2
:1036D0000021288806F007FA0323B0221821304879
:1036E00001F0CAFB002840F0158105F03DFF2D498F
:1036F00004F0E1FE23684BB12A4921A804F05CFCE8
:1037000021A8FDF7F5FF21A804F00CFC264801F0E4
:10371000A0FC06F06BFA0122492147E0601C002062
:10372000F1ED0808C0000020C40000209400002033
:10373000CC000020C800002090000020880000205D
:103740008C000020680700206C07002055DF080867
:10375000330A0808F78E080863DF0808910908088B
:1037600070DF0808CD390808D00200207CDF080887
:103770001C0C002080000020A2DF080885DF08085C
:10378000480600208ADF08089FDF0808F8060020A6
:10379000100C0020A4DF0808D4050020E0DF080892
:1037A000B106002004E008084405002006F0A3F854
:1037B000002840F0C58005F0D7FE714904F07BFE7B
:1037C00023684BB16E4921A804F0F6FB21A8FDF750
:1037D0008FFF21A804F0A6FB05F0C6FE694904F09E
:1037E0006AFE23684BB1674921A804F0E5FB21A8D4
:1037F000FDF77EFF21A804F095FB634D06F0F6F976
:1038000006F04AF80021288806F06DF90323B0225B
:1038100018215E4801F030FB002840F0968005F04A
:10382000A3FE5B4904F047FE594921A804F0C4FBFC
:1038300021A8FDF75DFF21A804F074FB554801F0B5
:1038400008FC06F0D3F901224A2106F054F80028BA
:1038500040F0918005F088FE494904F02CFE236871
:103860004BB1474921A804F0A7FB21A8FDF740FF71
:1038700021A804F057FBFEF78DFC05F075FE4649C4
:1038800004F019FE05F070FE444904F001FE05F055
:103890006BFE0A224621FFF7AAFD05F065FE4049AE
:1038A00004F0F6FD05F060FE0A220D21FFF79FFDF2
:1038B000FDF738FD1C23002121A8ADF8843003F06A
:1038C0001DFF23A91DA804F077FB1D9A3549364832
:1038D000FDF7F5F81DA804F025FB01A804F022FB74
:1038E00028B070BD314B1B68012B7FF4E0AD304830
:1038F00005F0E0F92F4907F08BF900283FF4D7AD28
:1039000096F82130002B7FF4D2ADCEE505F02CFEE9
:103910002949C5E605F028FE284904F0CCFD2368B6
:103920004BB1274921A804F047FB21A8FDF7E0FE91
:1039300021A804F0F7FA0121288806F0D4F8E5E67A
:103940000021204801F08CFB46E705F00DFE1E49E2
:1039500004F0B1FD23684BB11B4921A804F02CFBF6
:1039600021A8FDF7C5FE21A804F0DCFA0121288872
:1039700006F0B9F862E70021064801F071FB7AE72A
:103980006AE008089DE00808C4000020B206002094
:10399000C0E008084A05002007E1080812E108080D
:1039A0001FE1080827E10808F01C0020500500204E
:1039B000580600200000A041CADF080830E00808CF
:1039C0004EE0080844050020E9E008087FB5254CD2
:1039D00005F0CAFD244904F06EFD05F0C5FD21681F
:1039E00004F069FD6846214904F0E6FA694620467C
:1039F00004F031FC0546684604F094FA05F0B4FD85
:103A00000A222946FFF7F3FC05F0AEFD184904F041
:103A100052FD05F0A9FD06466B1C002221466846B2
:103A200004F042FC0099304604F045FD684604F07D
:103A300079FA05F099FD0F4904F03DFD05F094FD7C
:103A40000646A368AA1C2146684604F02DFC00998E
:103A5000304604F030FD684604F064FA012004B0FA
:103A600070BD00BFD80500203AE10808F9DE08085B
:103A700058E108088EE1080830B589B005F074FDFA
:103A8000354D04F00CFD05F06FFD344904F000FDE8
:103A900005F06AFD0A222968FFF7A9FC05F064FD1C
:103AA0002F4904F008FD05F05FFD4CF2503104F0A1
:103AB00055FE05F059FD0D220146684604F064FEEE
:103AC0006846284904F072FB00283ED005F04CFD02
:103AD000254904F0F0FC05F047FD244904F0EBFC17
:103AE00005F042FD0D22014604A804F04DFE04A895
:103AF00004F081FC044605F037FD1D4904F0DBFCB1
:103B000042F20C73A21E9A4219D805F02DFD1949F4
:103B100004F0BEFC05F028FD21460A22FFF767FCF1
:103B20002C6006F011F829460020FCF77BFF04A862
:103B300004F0F8F9684604F0F5F909B030BD05F075
:103B400013FD0D4904F0B7FCF1E705F00DFD0B493D
:103B500004F0B1FCEEE700BF80000020BCE10808E3
:103B6000CFE10808F9D00808FFD00808FFE10808ED
:103B7000F1ED080814E2080830D3080824D2080838
:103B80007FB505F0F1FC1F4904F095FC05F0ECFC55
:103B90004CF2503104F0E2FD05F0E6FC0D22014646
:103BA00002A804F0F1FD02A804F025FC019005F044
:103BB000DBFC154904F07FFC019800F10C031A2B83
:103BC0001AD806F033FE04F055FE05F0CDFC0F497F
:103BD00004F05EFC05F0C8FC01990A22FFF707FC1F
:103BE00005F0B2FF542001A9FCF71CFF02A804F065
:103BF00099F907B05DF804FB05F0B6FC044904F040
:103C00005AFCF3E725E20808F1ED080850E208083D
:103C100030D3080810B586B005F0A6FC284C04F097
:103C20003EFC05F0A1FC274904F032FC05F09CFCA9
:103C30000A222168FFF7BCFB05F096FC224904F03C
:103C40003AFC05F091FC214904F022FC05F08CFCC3
:103C50004CF2503104F082FD05F086FC0D22014645
:103C600002A804F091FD02A804F0C5FB42F20E7315
:103C70000190013898421CD805F076FC144904F0F4
:103C800007FC05F071FC0A220199FFF7B0FB05F073
:103C90006BFC0D4904F00FFC019B236005F054FF01
:103CA000742001A9FCF7BEFE02A804F03BF906B09F
:103CB00010BD05F059FC074904F0FDFBF4E700BF17
:103CC0004007002068E208087CE2080895E208083E
:103CD000A8E2080830D3080810B586B005F044FC07
:103CE000254C04F0DCFB05F03FFC244904F0D0FB3C
:103CF00005F03AFC0A222168FFF75AFB05F034FC74
:103D00001F4904F0D8FB05F02FFC1E4904F0C0FB4E
:103D100005F02AFC4CF2503104F020FD05F024FCA3
:103D20000D22014602A804F02FFD02A804F063FB57
:103D3000019000F57A70B0F5FA6F17D205F014FC17
:103D4000114904F0A5FB05F00FFC01990A22FFF7C9
:103D50004EFB019B236005F0F7FE042001A9FCF750
:103D600061FE02A804F0DEF806B010BD05F0FCFB11
:103D7000064904F0A0FBF4E7B8020020BAE2080804
:103D800054D30808CCE20808E1E2080830D3080858
:103D900010B586B005F0E8FB264C04F080FB05F07A
:103DA000E3FB254904F074FB05F0DEFB0A222168E1
:103DB000FFF7FEFA05F0D8FB204904F07CFB05F084
:103DC000D3FB1F4904F064FB05F0CEFB4CF25031ED
:103DD00004F0C4FC05F0C8FB0D22014602A804F063
:103DE000D3FC02A804F007FB42F20F73019000F528
:103DF0009C500830984217D805F0B6FB114904F0E2
:103E000047FB05F0B1FB01990A22FFF7F0FA019B8D
:103E1000236005F099FE0C2001A9FCF703FE02A81F
:103E200004F080F806B010BD05F09EFB064904F0D2
:103E300042FBF4E7D0020020F2E2080805E308089C
:103E40000AE308081EE3080830D3080810B586B056
:103E500005F08AFB244C04F022FB05F085FB234986
:103E600004F016FB05F080FB0A222168FFF7A0FA98
:103E700005F07AFB1E4904F01EFB05F075FB1D4999
:103E800004F006FB05F070FB4CF2503104F066FCC8
:103E900005F06AFB0D22014602A804F075FC02A899
:103EA00004F0A9FA01901E303B2817D805F05CFBFE
:103EB000114904F0EDFA05F057FB01990A22FFF7CA
:103EC00096FA019B236005F03FFE2C2001A9FCF728
:103ED000A9FD02A804F026F806B010BD05F044FBC9
:103EE000064904F0E8FAF4E77C1C00202EE30808F9
:103EF000D5D3080848E3080865E3080830D3080864
:103F000010B586B005F030FB254C04F0C8FA05F07A
:103F10002BFB244904F0BCFA05F026FB0A22216899
:103F2000FFF746FA05F020FB1F4904F0C4FA05F03C
:103F30001BFB1E4904F0ACFA05F016FB4CF25031A5
:103F400004F00CFC05F010FB0D22014602A804F061
:103F50001BFC02A804F04FFA019000F57A70B0F54E
:103F6000FA6F17D205F000FB114904F091FA05F041
:103F7000FBFA01990A22FFF73AFA019B236005F048
:103F8000E3FD342001A9FCF74DFD02A803F0CAFFB0
:103F900006B010BD05F0E8FA064904F08CFAF4E723
:103FA000940700207EE3080854D3080895E3080826
:103FB000AFE3080830D3080810B586B005F0D4FA8E
:103FC000244C04F06CFA05F0CFFA234904F060FAAF
:103FD00005F0CAFA0A222168FFF7EAF905F0C4FAE7
:103FE0001E4904F068FA05F0BFFA1D4904F050FAC2
:103FF00005F0BAFA4CF2503104F0B0FB05F0B4FA17
:104000000D22014602A804F0BFFB02A804F0F3F958
:1040100001903230632817D805F0A6FA114904F050
:1040200037FA05F0A1FA01990A22FFF7E0F9019B9E
:10403000236005F089FD3C2001A9FCF7F3FC02A8F0
:1040400003F070FF06B010BD05F08EFA064904F0CB
:1040500032FAF4E79C070020C5E308087AD4080880
:10406000D6E30808EAE3080830D308082DE9F0474A
:104070008AB005F079FAC84904F01DFA3023C74C1C
:10408000C74DC84F2370C84E2378782B00F03E846C
:1040900005F06AFA314604F0FBF905F065FA0368A9
:1040A000DB69984705F060FA03681B6998470028A8
:1040B000F8D005F059FA03685B699847C0B22070E0
:1040C00021385928E0D801A353F820F031480808D6
:1040D00089400808D148080889400808894008082C
:1040E000894008088940080889400808894008086C
:1040F000FD480808894008088940080889400808E0
:1041000089400808894008082B48080889400808A1
:10411000894008085F4608088D4608087547080862
:1041200093470808B9470808D747080825480808EA
:10413000894008088940080889400808894008081B
:104140008940080805490808A9480808894008085E
:10415000234308084F4308086F430808F54308083D
:1041600011440808254408084D4408086744080815
:104170006D4408087D4408088D44080893440808E5
:10418000BB440808D7440808E7440808FB4408086B
:10419000094508083945080869450808954508088B
:1041A000C1450808D34508080146080889400808A1
:1041B000114608088940080889400808894008080D
:1041C00089400808894008088940080835420808DD
:1041D0003B4208084142080847420808894008084D
:1041E000894008088940080889400808894008086B
:1041F000894008084D4208085342080859420808F7
:104200005F420808654208086B42080871420808C6
:104210008F4208089F420808BD420808C3420808A8
:10422000C9420808CF42080889400808D542080852
:10423000FB420808FEF74AFB25E7FFF74DFD22E7A2
:10424000FEF7C2FB1FE7FFF7A3FD1CE7FEF742FCEA
:1042500019E7FFF7FBFD16E7FEF7B8FC13E7FFF7DA
:104260004FFE10E7FEF72EFD0DE7FFF7A5FE0AE76C
:1042700005F07AF94D4904F01EF901234C4E3360E4
:1042800005F062FC31464820FCF7CCFBFBE605F06C
:104290006BF9484904F00FF9454E0023EFE705F0AC
:1042A00063F90646444906A803F086FE304606999F
:1042B00004F001F906A803F035FEE4E6FEF7B6FACD
:1042C000E1E6FFF75DFCDEE6FFF7D6FBDBE6FEF797
:1042D0005DF9D8E6394E33685BB905F045F93849E0
:1042E00004F0E9F80123336005F02EFC4420334943
:1042F000CAE705F039F93349F2E7304E3368012B4C
:1043000009D105F031F9304904F0D5F82F48FCF710
:10431000C9FB0023E7E705F027F92D4904F0CBF8A6
:10432000F7E72C4B1A68012A0BD100221A6005F01E
:104330001BF9294904F0BFF805F006FC6420254963
:10434000A2E701221A6005F00FF92449F2E7244B95
:104350001A6812B901221A6004E005F005F9214932
:1043600004F0A9F805F0F0FB60201D498CE71E4B16
:104370001A68012A0BD100221A6005F0F5F81B49D2
:1043800004F099F805F0E0FB682017497CE705F098
:10439000EBF81749F4E700BFFAE30808B00600207D
:1043A000540500200000C84224E408082AE4080854
:1043B000D405002044E40808E5DD08084C1C002072
:1043C0005FE4080872E408088CE4080884200020F0
:1043D0009FE4080848070020BAE40808CEE408086B
:1043E000801C0020E1E40808440700200BE50808D1
:1043F0002CE50808AF4B1A68012A03D105F0B4F880
:10440000AD49BDE701221A6005F0AEF8AB49B7E748
:10441000AB4B1A68012A01D100229CE705F0A4F8F1
:10442000A8499DE7A84B1A68012A09D105F09CF814
:10443000A64904F040F805F087FB6C20A24923E769
:1044400001221A6005F090F8A149F2E79E4B1A6824
:104450001AB905F089F89F49EBE700221A6005F0C8
:1044600083F89D49E5E7FFF7D5FB0CE6FDF792FEE3
:1044700005F07AF8994904F01EF804E605F074F89E
:10448000974904F018F8FCF7F5FEFCE5FEF796F9FD
:10449000F9E5944E3368012B03D105F065F8924994
:1044A000E9E705F061F8914904F005F8012333606C
:1044B00005F04AFB31467820E6E68A4E33681BB9A0
:1044C00005F052F88A49D6E705F04EF8894903F01D
:1044D000F2FF0023EBE705F047F8874903F0EBFF15
:1044E000FCF732FFCFE505F03FF8844903F0E3FF26
:1044F0006B210720FCF79CFBC5E505F035F88049EA
:1045000003F0D9FF4B21F4E77E4E336883B105F009
:104510002BF87D4903F0CFFF0023336005F014FB37
:1045200031467C20FCF77EFA784800F0A6FEAAE52A
:1045300005F01AF876499EE7724E336883B905F0A4
:1045400013F8744903F0B7FF0123336005F0FCFA58
:1045500031467C20FCF766FA6C4800F0B3FE92E529
:1045600005F002F86C4986E76C4E33685BB904F0DD
:10457000FBFF6B4903F09FFF0123336005F0E4FA72
:104580003146802080E604F0EFFF664903F093FF98
:104590000023F2E7644E33685BB904F0E5FF63493A
:1045A00003F089FF0123336005F0CEFA3146842001
:1045B0006AE604F0D9FF5E4903F07DFF0023F2E7CD
:1045C00004F0D2FF5B4903F076FF504800F030FE64
:1045D00059E5594E3368012B0BD104F0C5FF5749FB
:1045E00003F069FF0023336005F0AEFA31468820FE
:1045F0004AE604F0B9FF524903F05DFF0123F2E7F8
:104600000121424800F084FEB4224E4B1A603AE584
:1046100004F0AAFF4C4903F04EFF06A84B4902F0F4
:1046200005FD069A4A494B48FCF749FA06A803F0EB
:1046300079FC06A8454902F015FD069A4649454809
:10464000FCF73DFA06A803F06DFC06A83F4902F00E
:104650000FFD069A41493F48FCF731FA2AE604F07B
:1046600083FF3F4903F014FF04F07EFF0A22462136
:10467000FEF7BDFE04F078FF3A4903F009FF04F0AD
:1046800073FF0A220D21FEF7B2FEFCE4364E3368BA
:104690005BB904F069FF354903F00DFF0123336076
:1046A00005F052FA58203049EEE504F05DFF30493C
:1046B000F2E700BF4407002050E5080873E508084A
:1046C000801C002091E508084C070020BEE5080882
:1046D000E6E508080AE6080833E6080807E10808DE
:1046E00058E608085005002074E6080896E6080811
:1046F000BAE60808DDE6080802E708081DE708082A
:1047000030E70808400500204BE70808701C00202F
:104710006EE7080889E70808ABE70808AC06002040
:10472000C5E70808E0E70808CC020020FCE7080815
:104730001BE808083AE808086006002052E8080864
:1047400076E80808D005002099E80808DC1C00205D
:10475000D0E80808F01C0020D8E80808E0E80808BD
:10476000E9E808081FE1080850070020F7E80808F2
:1047700006E90808674E3368012B06D104F0F4FE01
:10478000654903F098FE002389E704F0EDFE6349D4
:10479000F7E7634E33685BB904F0E6FE614903F066
:1047A0008AFE0123336005F0CFF95C205C496BE59C
:1047B00004F0DAFE5C49F2E7594E3368012B06D16A
:1047C00004F0D2FE594903F076FE0023EAE704F034
:1047D000CBFE5749F7E704F0C7FE564903F058FEF1
:1047E000554803F023F9804604F0BEFE06460A222F
:1047F000414603F074FE304603F051FE04F0B4FE6F
:104800004E4903F045FE4C4803F00DF9804604F094
:10481000ABFE06460A22414603F061FE304603F035
:104820003EFE30E4FDF750FE2DE4FDF70BFE2AE4DA
:1048300004F09AFE424903F03EFEDFF824A104F0A2
:1048400093FE03681B69984700287FF41CAC284638
:1048500002F0FEF838B904F087FE3A4903F02BFE67
:104860000AB0BDE8F08704F07FFE39460646E868E6
:1048700006F0E4F805F080FB8046A868894605F05C
:104880007BFBCDE90401686805F076FBCDE9020108
:10489000286805F071FB4246CDE900014B465146C0
:1048A0003046FCF7F1F8CAE7274E3368012B0BD1ED
:1048B00004F05AFE254903F0FEFD0023336005F0A5
:1048C00043F931468C20DFE4FDF736FFFFF7DBBB11
:1048D0001F4E3368012B0BD10023336004F044FEDC
:1048E0001C4903F0E8FD05F02FF931469020CBE498
:1048F0000123336004F038FE1749F2E7FDF776FC38
:10490000FFF7C1BBFEF75CFAFFF7BDBB04F02CFE5E
:104910001249A3E7500700201CE908082CE9080801
:10492000881C002043E9080851E9080866E90808DE
:1049300076E908088DE908086807002095E9080865
:10494000A5E90808E0E90808180C002027EA08088B
:10495000CC05002049EA080867EA0808AFEA080819
:10496000F6E908081FB5694C0022D4E90001684B3C
:1049700005F0A4F9C4E90001FDF716FA654B1860CB
:10498000FCF772FD644B1860FCF702FFFDF786F838
:1049900004F0A5F8614BC117C3E90001604B614801
:1049A0001A68614B1A6002F011FC002813DD5D48A3
:1049B00002F016FC5D4C207004F0D6FD5C4903F05B
:1049C0007AFD04F0D1FD217803F07FFD20786D2879
:1049D00054D1FFF74BFBFDF709FC564B1B68002B2E
:1049E00079D0554A138843F00103138002F032FF57
:1049F000002846D1514B1A78002A42D10122504C4E
:104A00001A70236873B104F0AFFD4E4903F053FDF3
:104A10004C49684603F0D0FA6846FCF769FE6846E0
:104A200003F080FA002348481A461946406802F00D
:104A3000C1FE236873B104F097FD444903F03BFDC8
:104A40004349684603F0B8FA6846FCF751FE6846E9
:104A500003F068FA02F0F6FE2368ABB104F084FDBF
:104A60003C4903F028FD3B49684603F0A5FA684637
:104A7000FCF73EFE684603F055FA05E0FEF780FBC2
:104A8000A9E702F0E7FED0B9334C204600F04AFA1D
:104A9000324B1B68012B10D1314804F00BF931491E
:104AA00006F0B6F848B194F8213033B904F05CFD53
:104AB0002D4903F000FDFDF711FB04B010BD204BA4
:104AC0001B6823B104F050FD284903F0F4FC0022D8
:104AD0001A4B1A70D8E702F0BDFE0028D4D0184B4C
:104AE0001B6873B104F040FD214903F0E4FC204948
:104AF000684603F061FA6846FCF7FAFD684603F081
:104B000011FA1148FBF7CEFFBEE700BF38070020BF
:104B10000000F03FBC020020C0020020681C002002
:104B2000D40000201C0C0020F81C0020B00600203F
:104B3000C6EA08084C1C0020601C0020841C0020D1
:104B4000D405002015EB08088420002034EB080869
:104B500045EB080856EB08086C07002050050020BC
:104B6000580600200000A041B9EB08086DEB0808CA
:104B700095EB08082DE9F8434FF001096D4B6E4C99
:104B80006E4D83F80090204602F0EEF86C4F204600
:104B90006C4C6D4E2A466D4905F078F83946204632
:104BA00003F00AFA2A463146204605F06FF8FBF773
:104BB0009DFF674C0346A4F1300821464FF4805214
:104BC000404602F039FB634B2A4644F8303C00244F
:104BD0006149404605F05AF8DFF8E0815F4BC8F8BC
:104BE0000040C8F80830A8F8044088F806400320C0
:104BF00002F06CFD2A464046594905F047F8214627
:104C0000484602F073FD4FF0FF31564801F00EFFA9
:104C1000554800F00CFB554800F0DCF8544800F013
:104C2000D9F8DFF89C814921524800F00BFA4A215B
:104C3000514800F007FA2146404603F0E5FF4046A0
:104C4000DFF880812A464D4905F020F8214640468C
:104C500002F077FE4046DFF870812A46484905F0A9
:104C600015F8404600F044F92A464046454905F00B
:104C70000DF82721444801F06BFF1922434B4448AB
:104C800083F86A24434ADFF844911A60DFF84081D0
:104C9000414ADC71A3F8404483F8684483F86D44CA
:104CA000C3F8702483F874442A4641460481446062
:104CB000C0F8009004F0EAFF38482A464146C0E9AF
:104CC0000094048104F0E2FF4FF47A7334482A46DA
:104CD0008360344B04824460334C0360334904F0F6
:104CE000D5FF3946204603F067F92046304C2A4666
:104CF000314604F0CBFF3946204603F05DF92046EB
:104D00002C4C2A46314604F0C1FF3946204603F0B8
:104D100053F92046284C2A46314604F0B7FF39465D
:104D2000204603F049F92A4631462046BDE8F843BB
:104D300004F0ACBF14050020B4060020B00200202F
:104D4000F1ED0808D8050020257F0808216D080826
:104D50004C0C00204CEC08085D0908080000FFFF1F
:104D6000150A080854050020701C0020B106002018
:104D7000B2060020440500204A050020278C0808C0
:104D800081790808C54E0808A0060020A007002069
:104D9000E805002034EC0808BCEC080808070020EF
:104DA00014060020F4EB08084806002061090808F2
:104DB000F8060020501C002058070020F0020020B8
:104DC00058060020680700206C0700201CEC08082B
:104DD0005F090808704710B50C4604F007FF48212A
:104DE00004F090FD04F002FF036821469B68984799
:104DF00004F0FCFE002104F0A0FD04F0F7FE012306
:104E000048211A4604F065FD04F0F0FE03681B69B2
:104E1000984728B104F0EAFE03685B699847C0B27E
:104E200010BD70B516460C46054604F0DFFE48215D
:104E300004F068FD04F0DAFE036821469B68984799
:104E400004F0D4FE036831469B68984704F0CEFE18
:104E5000012104F072FD21462846BDE87040FFF7AD
:104E6000BABF0021FFF7B7BF01221146FFF7D9BF34
:104E700000220121FFF7D5BF2DE9F0410446884605
:104E800017461E46FFF7EDFF0128054617D12046BD
:104E9000FFF7EEFF424610212046FFF7C2FF3A46D9
:104EA00011212046FFF7BDFF324612212046FFF7B1
:104EB000B8FF2046FFF7D8FF2846BDE8F08100255F
:104EC000FAE7000010B50446034B40F8143B02F02B
:104ED00057FD204610BD00BF9CEC080810B50446E5
:104EE000FFF7F0FF2046242104F0D5FE204610BD38
:104EF00038B50B4B0025322203604FF4FA630446A9
:104F0000C0E90123C0E903552946143002F019FD18
:104F10004FF480332046C4E90655236238BD00BFF4
:104F20009CEC080810B5044602F010FAE368C01AB9
:104F3000636898421AD302F009FAE06004F11400A1
:104F400002F071FD10F004030BD094F82030C0F390
:104F5000011083421FBFE36984F820000133E3613D
:104F6000012384F82130A3690133A36102F0EEF933
:104F70002369C01AA368984214D902F0E7F9A3691B
:104F800020610A2B0FDC012384F8223094F82030B2
:104F9000013B012B8CBF0023012384F82330002325
:104FA000C4E9063310BDE269B2EBA30FEBDD0023C9
:104FB00084F82230F1E710B5044604F017FE0368C8
:104FC0002146BDE810409B68184708B504F00EFE66
:104FD00003685B699847C0B208BD70B506460D46C8
:104FE000144604F003FE314604F088FC2846FFF71F
:104FF000E2FF200AFFF7DFFFE0B2FFF7DCFF04F07B
:10500000F5FDBDE8704004F09CBC10B5044604F00A
:10501000EDFD214604F072FC0020FFF7CCFF04F008
:10502000E5FD04F08EFC04F0E1FD2146022204F0CF
:1050300062FCFFF7CAFF0446FFF7C7FF40EA0420FF
:1050400080B210BD00220170082182804170827000
:10505000704708B504F0CAFDBDE8084004F01CBC68
:1050600081807047032910B5044622D8022982881E
:1050700019D003291AD0012914BF42F4834242F403
:10508000A34242F00302012142F400422078FFF7DC
:10509000A4FF607803F084FD2078FFF7B6FFA378C3
:1050A000184180B210BD42F4C342EAE742F4E34241
:1050B000E7E70020F6E700002DE9F0410E4688B052
:1050C0000446154668460223002203F0EDF80A2341
:1050D0000222314604A803F0E7F8684603F08BF992
:1050E000A08304A803F087F9E083684603F083F9FE
:1050F000064604A803F084F98046304604F02AFFEF
:10510000064640460F4604F037FF00220D4B05F0DF
:10511000B5F80B4602463946304604F0CFFD532D14
:105120000CBF00236FF07F03C4E9020184F8243030
:1051300004A802F0F7FE684602F0F4FE08B0BDE8ED
:10514000F08100BF00004E402DE9F0410E4688B0CE
:105150000446154668460323002203F0A5F80A23F7
:105160000322314604A803F09FF8684603F043F990
:10517000208404A803F03FF96084684603F03BF9FB
:10518000064604A803F03CF98046304604F0E2FEEF
:10519000064640460F4604F0EFFE00220C4B05F099
:1051A0006DF802460B463046394604F087FD453D12
:1051B00018BF0125C4E9040184F8255004A802F0B1
:1051C000B1FE684602F0AEFE08B0BDE8F08100BF57
:1051D00000004E4010B50446084603F00CF9E062AA
:1051E00010BD000010B50446084603F009F9024955
:1051F00005F070FB206310BD0000204100F10801A4
:10520000D1E90001704700F11001D1E900017047B8
:1052100008B5006B05F024FD08BD90F92400704727
:1052200090F9250070470368C9B29B68184770471A
:1052300008B504F0DBFC152104F064FB04F0D6FC97
:105240000521FFF7F0FF04F0D1FC0321FFF7EBFF8E
:1052500004F0CCFCE821FFF7E6FF04F0C7FCFF21D7
:10526000FFF7E1FF04F0C2FC0021FFF7DCFF04F0D0
:10527000BDFCBDE8084004F064BB08B504F0B6FC12
:10528000152104F03FFB04F0B1FC0521FFF7CBFF33
:1052900004F0ACFC0321FFF7C6FF04F0A7FCEE21ED
:1052A000FFF7C1FF04F0A2FC0021FFF7BCFF04F0F0
:1052B0009DFC0021FFF7B7FF04F098FCBDE8084013
:1052C00004F03FBB08B504F091FC152104F01AFB73
:1052D00004F08CFC0521FFF7A6FF04F087FC0321F6
:1052E000FFF7A1FF04F082FCEE21FFF79CFF04F022
:1052F0007DFCFF21FFF797FF04F078FC0021FFF70A
:1053000092FF04F073FCBDE8084004F01ABB0000F3
:1053100008B521B104F028F9134903F0CCF804F0E2
:1053200065FC152104F0EEFA04F060FC0521FFF79E
:105330007AFF04F05BFC0321FFF775FF04F056FCD5
:10534000EC21FFF770FF04F051FCFF21FFF76BFF2A
:1053500004F04CFC0021FFF766FF04F047FCBDE8B9
:10536000084004F0EEBA00BFA4EC080838B50546C2
:1053700042B903689B6898470446284603F08FF8B3
:10538000204438BDD2B203F0AAF8F5E710B50446C0
:10539000283001F0BFF928B104F50D70BDE81040C8
:1053A00001F0B8B910BD411E00F10A030020420807
:1053B00042EAC01011F8012F10448B4200F0FF00A8
:1053C000F5D170472DE9F047064610F8013B202B38
:1053D000FAD000246A4D8E60335DC3B12F2B16D0F6
:1053E0005C2B02D10020BDE8F087A3F12200C0B2FF
:1053F0001D2803D825FA00F0C007F3D403F0BF003E
:105400003C28EFD0203B5E2BECD80134E4E7331985
:105410001846074610F8015B202DFAD02F2DF8D042
:1054200017604CB113F8012D2E2A01D0202A01D18A
:10543000013CF6E7FF2CD5DC20204C6001F10D0388
:1054400001F1180203F8010B9342FBD14FF0000861
:1054500016F808302E2B01D0202B02D108F10108BC
:10546000F6E7B8FA88F0651E40096B1C02D0735D40
:105470002E2B14D14FF0000907274A46CA464FF099
:10548000080EA04569DA16F80830202B03D02E2B21
:1054900007D1A84512D0002008F10108F1E7013D2D
:1054A000E3E7222B08D07C2B06D0A3F12A0CBCF119
:1054B000050F0BD82D2B13D0A8455CD10A2F4BD04C
:1054C000A8460A2708224FF0100EE5E7A3F13A0C90
:1054D000BCF1050FF0D9A3F15B0CBCF1020FEBD9C5
:1054E000A3F1210CBCF15D0FE6D8A845E6D0BA4285
:1054F00030D8A3F1610CBCF1190F1AD8203B4EEA49
:105500000909DBB25FFA89F902F1010C5FFA8CFC40
:105510000A44BCF1060F537301D881F80CC06246EF
:10552000BAE7A84518DCA8460A2708224FF0100E53
:10553000B1E7A3F1410CBCF1190F98BF4EEA0A0A7A
:10554000E2E701200B7B087019447E234B73312363
:105550008B7348E70A2FE4D100204B7B202B3FF4CC
:1055600041AF0028EDD01AEA090F18BF4FF0020929
:1055700081F8009037E7BA42ECD85F230020C3E7F8
:10558000010100312DE9F84306460C4602257E272D
:1055900091F80C9001F10D086168A2686B189BB23C
:1055A0001144914206D012F8010B03EB4313434020
:1055B0009BB2F6E7B9F1030F28BF4FF0030909F1D9
:1055C0000402D2B203F00F01A018013A0929D2B2A5
:1055D00094BF30313731914541734FEA1313F1D104
:1055E00004EB0903002130465F7300F096FE0121B1
:1055F000304600F073FE014628B97078B0FA80F0AA
:105600004009BDE8F88303786BB1C37A1B07EED479
:105610000B22404605F042FC0028E8D10135ADB22E
:10562000642DB9D1EDE70120EBE700002DE9F04F43
:1056300089B004930B780D4613F0700F90460590D7
:1056400003D1002009B0BDE8F08F059B1B78002B2B
:10565000F7D15368284603931378990718BF039B23
:105660004FF000011FBF03F10C070D23B7FBF3F749
:1056700001370CBF0127FFB200F04FFE00239B460D
:105680001C461E469A4608F10D02029307926A696B
:10569000012128460693C2F34F1900F01FFE069B16
:1056A00000286CD16B78002BCBD1049B03F0420314
:1056B000422BC6D1029B002C08BF4B460293BC4232
:1056C000C0F00381BAF1000F40F01B81029B284615
:1056D000590100F022FE0028B3D0013F5FFA87FA9B
:1056E00056464FF000090F27002E00F021810021BF
:1056F000284600F0F3FD04460028A2D0564518BF06
:10570000B346AA6808BF46F0400B92F8283043F031
:10571000010382F8283080F800B0C77280F80C903E
:1057200008F10D00FFF73FFE0D2200230BF01F0BC9
:105730000BF1FF3B02FB0BF2607384F81A9084F8C4
:105740001B90D8F808C00399914240F2E2801CF8FF
:105750000210042B5FFA83FE03F1010000F2DF80E8
:1057600004EB4303A3F801100D28034602F10102E4
:10577000E9D1013EF6B2B7E74FF0010A87E70278B8
:10578000E52A00D07AB90299002C08BF4946BC42EC
:1057900038BF0134029138BFE4B2002A85D0E52A2F
:1057A00004D1002673E7BC4238BF00242E2AF8D06B
:1057B000C17A0F295DD13EBB12F040063FF467AFBE
:1057C00002F01F06B346437B4FF00D0E0BF1FF3284
:1057D0000EFB02FE039A7245E3D94FF0000CA2EBD8
:1057E0000E020692BCF1040F0CEB0E095FFA8CF26C
:1057F00014D800EB4C02B2F8012006998C451BD15D
:10580000002A18BF002642E70BF1FF3B5FFA8BFB33
:105810005A45C6D1427B9A42D6D0C2E70A2A95BFE2
:105820000CF1FF320CF1010200EB420200EB4202EC
:1058300094BFD2889288E0E7FF2AB2D8D2B2A2F110
:1058400041011929D8F8081098BF203211F8091021
:1058500098BFD2B2A1F14109B9F1190F9CBF203113
:10586000C9B291429DD10CF1010CBCF10D0FB9D11F
:105870000DE70A0795D466B1BBF1010F02937FF4DF
:10588000E0AEFFF790FD029B98427FF4DAAEB2469D
:105890000EE00B220799069305F000FB069B0028FB
:1058A0007FF4F5AE98F800A01AF0010A7FF464AF17
:1058B000049B1B063FF5C5AE4A462946049B059846
:1058C000CDF800A000F06CFDBCE60021284600F0F9
:1058D00005FD98B96B78002B7FF4B3AE284600F035
:1058E000D5FB00283FF4ADAEAB681B79012B3FF62A
:1058F000E9AE1034E4B2A742F0D8E3E60134E4B2F2
:10590000DDE641462846FFF73DFE00287FF4DEAE87
:1059100097E614BF4FF0FF31002189B219E7BEF1BD
:105920000A0F94BF04EB430304EB400399801BE789
:10593000314628466F6900F0D1FC044600283FF448
:1059400080AE2022314605F0DFFA434653F80D2F92
:1059500022605A6862601A8922819B7AA37298F841
:10596000003003F0180323730F4B1B689BB104F145
:105970000E0104F110009847238AC7F34F19638280
:105980002383E389E382AA6892F8283043F0010375
:1059900082F8283090E72123237428236374082396
:1059A000A673E373E8E700BFD01C00200368DB6840
:1059B000184703685B69184710B5037904466BB153
:1059C0000121407904F08FF8FF212068FFF7F1FFF3
:1059D000206803689B6898470023237110BD38B581
:1059E0000579044655B90068E17903685B68984712
:1059F0002946607904F077F80123237138BDF8B5A2
:105A000004460D46164601F0A1FC07462068FFF744
:105A1000CDFFFF2820720CD101F098FCC31BB3F519
:105A2000967FF3D911232046A371FFF7C5FF00200D
:105A3000F8BDFE2801D00F23F5E720683246036841
:105A400029461B699847207208B11C23EBE72068A0
:105A5000FFF7ACFF2068FFF7A9FF0120E8E770B56A
:105A600006460C4601F072FC05463068FFF79EFFC3
:105A7000FF2806D001F06AFC431BA342F5D30020A7
:105A800070BD0120FCE7F7B5037904460D4601928D
:105A90000BB9FFF7A4FF4FF416712046FFF7DFFFA5
:105AA000206845F04001FFF784FF032601AFB95D90
:105AB0002068FFF77EFF013EF9D2002D0CBF952133
:105AC00087212068FFF775FF0C2D02D12068FFF7B2
:105AD0006DFF00252068FFF769FF0306207203D5DC
