:020000040808EA
:100000000000080898F20808000006000A00050130
:080010000402DB070000000000
:0400180078CB080891
:1000200008B5024B1B685B6C019308BD2C000608E9
:1000300008B5024B1B689B6D019308BD2C00060898
:1000400008B5024B1B685B6E019308BD2C000608C7
:1000500009480A4908B5884205D0094A824202D0B7
:10006000121A0AF03DFE0748074A0021121A0AF048
:100070005FFE064808BD00BF00000020C4EF08086E
:10008000AC020020B002002010220020102200202C
:1000900070B508F0CDFD0025054E064CA41BA40844
:1000A000A54200D170BD56F8043B98470135F7E7EB
:1000B0008CEF0808B4EF080803F03CB908B504F069
:1000C0007BFBBDE8084008F075BD07F001BB07F0F9
:1000D000FFBA07F005BB0078B0FA80F0400970471E
:1000E00001230370704748B1836C3BB1C36C2BB1E3
:1000F000006DB0FA80F04009404270474FF0FF3089
:10010000704773B5024608460C46FFF7ECFF0546FC
:1001100040BB12F0800F14BF00231023CA789A420C
:1001200020D0CB708E6C0123F32160780DF1070293
:10013000B04784F8540098B99DF80720E37822F07E
:10014000100203F0100313438DF8073073210123CD
:10015000E66C60780DF10702B04784F8540008B1EE
:100160006FF00105284602B070BD03788B4284BF52
:10017000017013784FF0000084BF43F00203137046
:1001800070472DE9F84306461846884691461D46B5
:10019000FFF7A9FF0446A8B9AB783BB9294630461A
:1001A000FFF7AFFF044608B946F080064B464246CB
:1001B0003146AF6C6878B847002818BF6FF001046B
:1001C00085F854002046BDE8F8832DE9F0471C4629
:1001D0000F4600218AB00646904601A824220091CD
:1001E0000AF0A6FD2046FFF77EFFE8B908F1FF33CD
:1001F000122B33D8EA4681461FFA88F81FFA89F392
:10020000434514D380B94FEA4802013A93B2E56CF2
:100210009DF8001060780DF10102A847002884F8CD
:10022000540018BF6FF001000AB0BDE8F087A37852
:1002300016F809503BB928462146FFF762FF16F829
:10024000095005F07F0517F809308AF800508AF840
:10025000013009F101090AF1020ACFE76FF003004A
:10026000E2E7742337B504468DF80730FFF73BFF0C
:10027000A0BB05462346012274200DF10601FFF7BD
:1002800080FFA0B99DF8063013F0030511D023F0CC
:1002900003038DF80630012223460DF106010DF10E
:1002A0000700FFF792FF0A20236D9847E2E7002D31
:1002B000E0D194F844208AB19DF8063002F00302A0
:1002C00023F0030313438DF8063038B92346012287
:1002D0000DF106010DF10700FFF777FF03B030BD08
:1002E0000023F0B5064689B008460C468DF8073065
:1002F0000493ADF814300693ADF81C30FFF7F3FE0D
:10030000002840F0FE8016F0080391F8447005D1F3
:1003100081F844302046FFF7A4FF07E0012FADF835
:100320000C0000F0F08081F84400012016F0100568
:1003300020D0072104F1460204F13B00FFF715FF2E
:1003400030B92346012275200DF10701FFF719FF8F
:1003500094F83B309DF807209B0022F01C0203F02C
:100360001C031343752201258DF807308DF81020EA
:100370008DF81830B30622D5082104F1460204F1A5
:100380003D00FFF7F2FE30B92346012270200DF147
:100390000701FFF7F6FE70219DF8073094F83D2025
:1003A00023F0080302F00802134308AA2A44013587
:1003B0008DF8073002F8101C02F8083CEDB2B107C6
:1003C00033D0052104F1460204F13900FFF7CDFED8
:1003D00030B92346012274200DF10701FFF7D1FE49
:1003E000F20709D59DF8073094F8392003F01F0370
:1003F00043EA42138DF80730B3070BD594F83A302F
:100400009DF807209B0003F01C0322F01C021343FD
:100410008DF80730742208AB2B4403F8102C9DF89C
:100420000720013503F8082CEDB2710722D505210C
:1004300004F1460204F13800FFF797FE30B9234675
:10044000012272200DF10701FFF79BFE72219DF83A
:10045000073094F8382023F0070302F00702134313
:1004600008AA2A4401358DF8073002F8101C02F85A
:10047000083CEDB216F0C00F3AD0012104F146025B
:1004800004F13E00FFF771FE60B90A2104F13C005F
:10049000FFF76BFE30B92346012271200DF10701F1
:1004A000FFF76FFE72060BD594F83E309DF80720DB
:1004B0001B0103F0100322F0100213438DF80730E4
:1004C00033060AD59DF8073094F83C2023F00F033B
:1004D00002F00F0213438DF80730712208AB2B4452
:1004E00003F8102C9DF80720013503F8082CEDB215
:1004F00028B923462A4606A904A8FFF766FE84F811
:10050000447009B0F0BDB1F84020B1F91230B2F535
:10051000C87F28BF4FF4C872C82A38BFC82203F565
:10052000163303F299135A431423B2FBF3F20A234E
:1005300002F54812B2FBF3F291F9113091F904106F
:1005400003F544735A4394F914304B434FF47A71D2
:1005500093FBF1F31B0203EB620394F8342094F94C
:1005600035100432B3FBF2F383224A4302F58032A2
:10057000B3FBF2F32222FA3B53436422323393FB60
:10058000F2F38DF80C3046F25A43ADF80830B4F867
:100590004230B3F57C6F1AD23F2BC2B200F101009A
:1005A00013D803EB8213DBB200258DF80D30022245
:1005B000234684F83C5003A902A8FFF706FE84F8FE
:1005C000445000287FF4B2AEA4E69B08E4E7FF2382
:1005D000EAE7000013B5184B024618689B880090A4
:1005E000ADF8043091F8393002A891F83A4003444C
:1005F00013F8080C02AB1C4414F8083C02AC184475
:1006000091F83830234413F8083C40F2AB740344AB
:1006100041F2B92004FB03034FF47A70B3FBF0F30B
:1006200001339BB2138091F83E0018B1B1F842102B
:100630000B44138002B010BD8CCB08082DE9F04F9D
:10064000804689B008460C46FFF74DFD0546002858
:1006500040F058810690CDE90400CDF81B00084613
:10066000FFF741FD0A270546002D40F05281234641
:100670000F2204A91D20FFF784FD9DF810B09DF9FD
:100680001EA09DF818200BF00F030AF020012BF09C
:100690007F0B01924BEA01019DF819200AF0100A24
:1006A00041EA0A0149B288F8013002929DF81130FE
:1006B0009DF81D200029054688F8023003929DF818
:1006C00012909DF813E09DF814309DF815C09DF828
:1006D00016609DF817009DF81E2088F8001080F223
:1006E0001581000940EA061646EA0C3CE68A1B0919
:1006F0007600C6EBDC0C60464FEA5C06C11746EAA2
:10070000C17649107143A6FB06AB94F91A000BEBB6
:10071000410B4FEA1A36010146EA0B564FEA2B37D6
:100720004FEAE17B06FB0BF0A6FB01ABB4F91860C6
:1007300001FB070786FB0C01BB44C60A4FEA9A304F
:1007400046EA415640EA8B403118216301EB8101B2
:1007500080310912A8F80410216B43EA0E1E4910DB
:10076000A1F57A4140F635438810404394F926704C
:10077000C6127743B4F9246040134E43760006EB6B
:10078000A706B4F91E704EEA09394F4394F92010B8
:10079000C9F5801949014143C91001EB6701A08BDC
:1007A000891401F500414843B4F9221002F00F0CFE
:1007B000090401EBA606A9EB26367343C113B3FB6C
:1007C000F1F141F39C004043B4F92A3040135843FF
:1007D000B4F9283041F35D077B4341F3D7165B132F
:1007E00003EB203306FB06F0464394F82C009209F5
:1007F000464394F9270003EB664303EBC0136420E0
:100800001B1103EB4103C8F80830236B94F90E1059
:1008100003EB830380331B12594391FBF0F194F9EE
:100820000D6059435E43891196FBF0F691FBF0F1A0
:100830003144668901F5804171438E12DDE9017111
:1008400041EA07212789A1EB071194F90C705F4356
:1008500097FBF0F7A1EB6701714394F91060002753
:10086000734393FBF0F3E07B40F23C5603EBC01381
:10087000881340431B118012434301EB6303991219
:100880004FF47A734B432B491B1323EAE3738B42D8
:10089000D4BFC8F80C30C8F80C10052194F93630D4
:1008A000C3FB0167244B53F82C30A6FB030103FB69
:1008B0000711060C4FEA214E46EA01460021039B30
:1008C00042EA8302D30313F17F4341F1FF319A19C6
:1008D00041EB0E03194951F82C10A1FB066701FBEF
:1008E0000E77700A560846EAC37640EAC7504FEAC8
:1008F000672C591080194CEB01010AF0EBF8C8F88D
:1009000010006DB1284609B0BDE8F08F0A20236DB4
:100910009847013F17F0FF077FF4A6AE0225F1E7E5
:1009200098F90030002BB6BF012384F8455084F8B5
:100930004530E7E7A08601000000002040000020CD
:1009400070470246037C13F008001EBF506AD36A4A
:10095000181A0028B8BF6FF0004070477047704702
:10096000704710B504462C2109F0A9F8204610BDA7
:1009700010B50446342109F0A2F8204610BD10B588
:10098000044641F2300109F09AF8204610BD0830C3
:1009900005F00ABD103005F007BD07B501228DF83E
:1009A000071010300DF1070105F0FEFC03B05DF8F3
:1009B00004FB103005F06EBC103005F09ABB07B593
:1009C00001220DF10701103005F0E4FA012814BFEF
:1009D0004FF0FF309DF8070003B05DF804FB00F214
:1009E000644005F042B900F2644005F076B800F2C8
:1009F000644005F0B4B800F2644005F026B810B5C4
:100A00000446006808B106F06BFE204610BD10B524
:100A10000C46042206F0D0FB204610BD002313B57F
:100A2000ADF8063007F0FBFB982804460BD808F019
:100A30009FFF204602220DF1060106F0B5FBBDF82E
:100A4000060002B010BD4FF0FF30FAE710B50C46BB
:100A5000042206F0A9FB204610BD07B501228DF83F
:100A6000071008300DF1070105F09EFC03B05DF89A
:100A700004FB0EB403B503AB53F8042B0021019320
:100A800007F03AFD02B05DF804EB03B070470023B5
:100A900040681A46194606F0B3BD10B50446142145
:100AA00009F00DF8204610BD08B506F06DFB034BAC
:100AB0001860BDE8084006F0DBBD00BFCC21002077
:100AC0000EB410B50023016820208DB00FAA52F893
:100AD000044BCDE90403CDE9004203921E2004AA91
:100AE00006F002FD0DB0BDE8104003B070470000F5
:100AF00010B50D4C2378BFF35B8FDB0711D4204674
:100B0000FFF7E9FA68B10321084A094B094808F0E0
:100B10003DFD2046FFF7E4FA074A0849054808F07A
:100B2000C9FF044810BD00BFFC02002004030020E0
:100B30008803002018050020B002002041090808A1
:100B400010B5FFF7D5FF074B044653B108F03BFD46
:100B500038B1236820461B699847002801DDAFF3B0
:100B6000008010BD0000000010B50D4C2378BFF3CD
:100B70005B8FDB0711D42046FFF7ADFA68B1042183
:100B8000084A094B094808F001FD2046FFF7A8FA7A
:100B9000074A0849054808F08DFF044810BD00BF0A
:100BA000000300200C040020900400202C050020ED
:100BB000B00200204109080810B5FFF7D5FF074B28
:100BC000044653B108F0FFFC38B1236820461B6986
:100BD0009847002801DDAFF3008010BD0000000041
:100BE00038B5044600F2644004F09EFE08B90020C7
:100BF00038BD04F58865284605F082FB01212046B2
:100C000005F0ABFD014668B12146284605F0A9F97B
:100C10000028ECD094F8403413F0700FE7D0044B68
:100C20001D60E5E7204605F098FD0028ECD1DEE7E1
:100C3000C41C002038B50C46054608F013FF6B2194
:100C400008F074FD08F00EFF036829469B6898477A
:100C500008F008FF036821469B68984708F002FFE8
:100C6000BDE83840012108F07CBD000037B508F030
:100C70007FFE40F213636425002401A90020019344
:100C8000FFF7C5FE08F074FE01A908200195FFF7E3
:100C9000BEFE08F06DFE01A910200195FFF7B7FE1A
:100CA00008F066FE01A998200195FFF7B0FE08F054
:100CB0005FFE01A918200195FFF7A9FE08F058FE74
:100CC00001A920200195FFF7A2FE08F051FE01A91D
:100CD00028200195FFF79BFE08F04AFE01A930206D
:100CE0000195FFF794FE08F043FE01A93820019515
:100CF000FFF78DFE08F03CFE01A940200195FFF7AB
:100D000086FE08F035FE01A904200194FFF77FFE5E
:100D100008F02EFE01A90C200194FFF778FE08F0E0
:100D200027FE01A994200194FFF771FE08F020FE30
:100D300001A914200194FFF76AFE08F019FE01A929
:100D40001C200194FFF763FE08F012FE01A9242085
:100D50000194FFF75CFE08F00BFE01A92C20019422
:100D6000FFF755FE08F004FE01A934200194FFF7B7
:100D70004EFE08F0FDFD01A93C200194FFF747FE5F
:100D800008F0F6FD01A944200194FFF740FE08F0A9
:100D9000EFFD01A948200194FFF739FE08F0E8FDB6
:100DA00001A958200194FFF732FE08F0E1FD414906
:100DB0005C20FFF72CFE08F0DBFD4FF47A7301A9ED
:100DC0004C200193FFF723FE08F0D2FD42F210738E
:100DD00001A950200193FFF71AFE08F0C9FD6FF03A
:100DE000060301A954200193FFF711FE324B186846
:100DF00009F030FC07F052FC08F0BAFD01A96020B0
:100E00000194FFF704FE08F0B3FD2846012501A96F
:100E10000194FFF7FCFD08F0ABFD01A968200195E6
:100E2000FFF7F5FD08F0A4FD01A96C200194FFF780
:100E3000EEFD08F09DFD01A970200194FFF7E7FD8C
:100E400008F096FD01A974200195FFF7E0FD08F078
:100E50008FFD01A978200195FFF7D9FD08F088FDE5
:100E600001A97C200194FFF7D2FD08F081FD01A9C2
:100E700080200195FFF7CBFD08F07AFD01A98420C1
:100E80000194FFF7C4FD08F073FD01A988200194C7
:100E9000FFF7BDFD08F06CFD01A98C200194FFF760
:100EA000B6FD08F065FD01A990200194FFF7AFFDA4
:100EB00003B030BD781C0020641C00202DE9F347EE
:100EC000C64C08F055FD21460020FFF7BFFD236802
:100ED000013304D140F213632360FFF7C7FE08F02B
:100EE00047FD01A90820FFF7B1FD019809F0B2FB09
:100EF000BB4909F0B7FCDFF87493DFF87483C9F8D5
:100F0000000008F035FD01A91020FFF79FFD0198B2
:100F100009F0A0FBB24909F0A5FCC8F8000008F0F0
:100F200027FD01A99820FFF791FD019809F092FB98
:100F3000AB4909F097FCAB4FAB4E386008F018FD99
:100F400001A91820FFF782FD019809F083FBA4494D
:100F500009F088FC306008F00BFD01A92020FFF7A4
:100F600075FD019809F076FB9D4909F07BFC9F4DCA
:100F70009F4C286008F0FCFC01A92820FFF766FDC3
:100F8000019809F067FB964909F06CFC206008F0B5
:100F9000EFFC01A93020FFF759FD019809F05AFB39
:100FA0008F4909F05FFC934BDFF8C8A2186008F086
:100FB000DFFC01A93820FFF749FD019809F04AFB41
:100FC000874909F04FFC8C4B186008F0D1FC01A94F
:100FD0004020FFF73BFD019809F03CFB804909F0F8
:100FE00041FC864B186008F0C3FC85490420FFF7DC
:100FF0002DFD08F0BDFC83490C20FFF727FD08F00C
:10100000B7FC81499420FFF721FD08F0B1FC7F492E
:101010001420FFF71BFD08F0ABFC7D491C20FFF7F7
:1010200015FD08F0A5FC7B492420FFF70FFD08F013
:101030009FFC79492C20FFF709FD08F099FC7749BE
:101040003420FFF703FD08F093FC75493C20FFF7BF
:10105000FDFC08F08DFC73494420FFF7F7FC08F015
:1010600087FC71494820FFF7F1FC08F081FC6F49CB
:101070005820FFF7EBFC08F07BFC6D495C20FFF784
:10108000E5FC08F075FC6B494C20FFF7DFFC08F02D
:101090006FFC69495020FFF7D9FC08F069FC01A9F1
:1010A0005420FFF7D3FC019809F0D4FA07F0F6FAC0
:1010B00008F05EFC61496020FFF7C8FC08F058FCAE
:1010C0005F496420FFF7C2FC08F052FC5D496820CC
:1010D000FFF7BCFC08F04CFC5B496C20FFF7B6FC4A
:1010E00008F046FC59497020FFF7B0FC08F040FCBE
:1010F00057497420FFF7AAFC08F03AFC55497820BC
:10110000FFF7A4FC08F034FC53497C20FFF79EFC59
:1011100008F02EFC51498020FFF798FC08F028FCCD
:101120004F498420FFF792FC08F022FC4D498820AB
:10113000FFF78CFC08F01CFC51468C20FFF786FC66
:1011400008F016FC90204849FFF780FCDAF80030E0
:1011500013B1002007F0A2FA41F287313C4AD9F8D6
:1011600000001368013B8B4288BF01234FF0000150
:1011700088BF136009F056FC18B14FF07E53C9F8D0
:1011800000300021D8F8000009F04CFC18B14FF0F5
:101190007E53C8F800300021386809F043FC10B1D4
:1011A0004FF07E533B600021306809F03BFC10B1EA
:1011B0004FF07E5333600021286809F033FC10B1F2
:1011C0004FF07E532B600021206809F02BFC10B1FA
:1011D0004FF07E53236002B0BDE8F087800000200E
:1011E0000000C842C8020020E0020020E8020020FF
:1011F000D8020020681C00208007002088070020FB
:10120000B8020020D0020020D4020020E402002016
:10121000EC020020DC0200206C1C0020840700206F
:101220008C0700203C1C0020D40500204007002033
:10123000781C0020980000209C000020701C0020DA
:1012400038070020340700203C0700204407002016
:101250003007002050050020400500209C0600209B
:10126000CC02002050060020CC050020B402002053
:10127000C4020020080C002010B508F089F80368AB
:101280001B69984790B9FFF76FFC03681B69984783
:101290000028F2DDFFF768FC03685B6998470446A5
:1012A00008F076F8E1B207F00BF8E6E710BD0000B1
:1012B0002DE9F34106460D4600240F4F01F1FF389A
:1012C000AC4212D03946325D01A806F019FA08F096
:1012D0005FF801A906F0F0FFA04504D008F058F827
:1012E000202106F0EDFF0134EAE708F051F806F09E
:1012F000EAFF02B0BDE8F08192CB0808F8B50446D9
:101300000D4606460F18BE4207D0FFF72DFC0368B6
:1013100016F8011B9B689847F5E729462046BDE86B
:10132000F840FFF7C5BF00001FB5074A01AB52F8F0
:101330000E0F5168128903C30A2101A81A80FFF712
:10134000DDFF05B05DF804FB70E908081FB5074A2A
:1013500001AB52F8180F5168128903C30A2101A882
:101360001A80FFF7CBFF05B05DF804FB70E90808B1
:1013700038B52F4B1D682F4B1B680BB32E4B58896C
:1013800009F064F92D4909F06DFA2D4909F0B6F913
:101390002C4909F0A9F8044625B107F0F9FF2A49BC
:1013A00006F09DFF294B2046196809F0A7F904466D
:1013B000274B186809F04EF9214609F097F838BD17
:1013C000244B1B6813B325B107F0E2FF224906F056
:1013D00086FF0B2008F0B4FA09F03CF908F0E0FCB5
:1013E0000FA3D3E9002308F033FD09F029F84FF0EB
:1013F0007C5109F079F808F0D3FC0BA3D3E9002362
:1014000008F050FE09F01CF80446CBE725B107F0C0
:10141000BFFF124906F063FF114B1C68C2E700BF13
:101420002D431CEBE2364A3F7B14AE47E17A843F02
:10143000D40500209C0600209006002000F87F467E
:10144000000025430000204297CB0808681C0020BC
:101450006C1C002034070020B8CB0808D7CB080844
:1014600054050020000000002DE9F0478E4F88B0A1
:1014700068468E4906F0BEFC3A6822B107F088FF44
:101480008B4906F02CFF8B4D0021288808F03FFA8D
:1014900008F0C0FA01224A2108F041F948BB07F0E0
:1014A00077FF854906F01BFF00240021834803F0E5
:1014B000B0FB30B93B6823B107F06AFF804906F002
:1014C0000EFF08F0A7FA01224A2108F028F90028A7
:1014D00039D168467B4906F0DFFC002401212888C9
:1014E00008F015FA684606F03BFC204608B0BDE857
:1014F000F0870321744803F0D3FC09F0ABF8734B79
:10150000196809F0FBF87249044609F0ABF9064680
:1015100008F046FC00226F4B08F0E2FA21F0004987
:10152000002249466C4B08F023FF0028BDD007F08D
:101530002FFF6A4906F0C0FE07F02AFF022231465B
:1015400006F0CCFFB1E700215C4803F062FB002805
:10155000BFD020465E4909F085F908F021FC002241
:101560005C4B08F0BDFA21F00047002239465A4B87
:1015700008F0FEFE04460028ABD10A2780468146CB
:10158000514E0021304603F08BFC0121814430464E
:1015900003F086FC02218044304603F081FC0321E5
:1015A000304603F07DFC013F0444EAD14FF00A0AC3
:1015B000464BB4FBFAF01F6809F04CF8394609F0C5
:1015C0009DF80446B9FBFAF009F044F8394609F0F1
:1015D00095F80146204608F087FF414909F042F995
:1015E0000646B8FBFAF009F035F8394609F086F8F6
:1015F0000146204608F078FF3A4909F033F90446DD
:10160000FFF7B6FE384909F021FAD0B1214630463D
:1016100008F06AFF08F0C4FB1FA3D3E9002308F019
:1016200041FD08F00DFF02220146044604A806F021
:1016300057FC684604A906F027FC04A806F090FBB6
:101640004CE7FFF795FE294909F000FA20B1214641
:10165000304608F04BFFDDE7FFF78AFE234909F02B
:1016600009FAA8B1204608F09BFB0DA3D3E900239B
:1016700008F0EEFB80463046894608F091FB0246B2
:101680000B464046494608F02DFA08F0D9FEC1E75E
:101690000020BFE7AFF30080B6F3FDD478E9D63F72
:1016A00052B81E85EB51E83FD4050020F1EA080846
:1016B00003CC0808C400002019CC0808A2060020AA
:1016C0004ECC080875CC08084A050020840000208C
:1016D00000007A440000F43F0000E03F3ECC0808E0
:1016E0000000F0C2000016C3000070410000C841B5
:1016F00030B51E49044685B002230C22A1F58E6048
:10170000FFF76EFA60B307F043FE194906F0E7FDF4
:10171000184A1949194D462312680968184804F0F7
:10172000F6FD2B689BB91749174806F0D8FD07F05E
:10173000EAF8C3170246684606F0E2FF009912482D
:1017400006F0CDFD684606F00BFB01232B602168F7
:101750000D4806F0C4FD0A4804F0D2FD05B030BDC6
:1017600007F016FE094906F0BAFDF7E7000C002065
:1017700079CC0808E8060020C41C002024070020BB
:101780000007002093CC0808F8060020AACC08081F
:101790002DE9F0478CB06846B94906F02BFBB94FEC
:1017A000DFF8DC82B84EFFF7DFF90D22014608A80A
:1017B00006F0FEFE08A9684606F066FB08A806F0DB
:1017C000CFFA07230422694604A806F067FC3946CD
:1017D00004A806F009FC054668BB4146684606F0C9
:1017E00003FC044650B307F0D3FD314606F077FD05
:1017F000314608A806F0FEFA08A8FFF779FF08A806
:1018000006F0AEFA012404A806F0AAFA5DB14FF082
:1018100000089E4904A806F0EDFA4746DFF88892D2
:101820009B4E9C4D32E0002CBDD0684606F098FAE5
:101830000CB0BDE8F08700240125E4E70546E2E7A7
:1018400004F1010A5146684606F0E9FB2C281AD03B
:1018500004F10B035246694608A806F01FFC08A9CC
:1018600004A806F011FB08A806F07AFA8A4B1B6858
:101870004BB107F08DFD894906F01EFD07F088FD8C
:10188000049906F02CFD013708F10108029B1FFAAC
:1018900088F4A34240F2F0802146684606F0BFFB80
:1018A0002C28F1D1072F00F2E18001A353F827F093
:1018B00041180808D11808086D1A080843190808C3
:1018C0006D1A08086D1A0808AD190808EB19080800
:1018D00004F1010A5146684606F0A1FB2C28D2D03B
:1018E00004F10A035246694608A806F0D7FB08A986
:1018F00004A806F0C9FA08A806F032FA664B1B687D
:101900004BB107F045FD664906F0D6FC07F040FDF7
:10191000049906F0D1FC04A908A806F0AAFA04F17B
:101920000C01684606F07BFB08A90246304603F02E
:10193000E1FA08A806F014FA2B8823F008032B809C
:10194000A1E704F1010A5146684606F068FB2C281D
:1019500099D004F10B035246694608A806F09EFB95
:1019600008A904A806F090FA08A806F0F9F94A4B6D
:101970001B684BB107F00CFD4A4906F09DFC07F0CF
:1019800007FD049906F098FC04A908A806F071FA6E
:1019900004F10D01684606F042FB08A902463046F4
:1019A00003F0F0FA08A806F0DBF96CE704F1010A8D
:1019B0005146684606F033FB2C283FF464AF52468C
:1019C000E31C694608A806F069FB08A904A806F00C
:1019D0005BFA08A806F0C4F904A908A806F049FAB9
:1019E000304608A903F014FBDCE704F1010A514674
:1019F000684606F014FB2C283FF445AF5246E31C22
:101A0000694608A806F04AFB08A904A806F03CFAB3
:101A100008A806F0A5F904A908A806F02AFA08A95A
:101A2000304603F0FDFA08A806F09AF92B883046F4
:101A300023F00C032B8003F009FB012803DC2B8827
:101A400043F00C037BE7304603F000FB042803DC83
:101A50002B8843F0080372E7304603F0F7FA1328A7
:101A60003FF711AF2B8843F0040368E707F090FCC1
:101A70004946FEF7FEFF06E704A806F071F9D4E632
:101A8000C6CC0808CBCC0808CFCC0808F1EA080877
:101A900058060020501C0020D4050020E1CC080886
:101AA000F2CC080804CD080817CD08082DE9F04746
:101AB00090B0B649684606F09DF9B54904A806F00D
:101AC00099F9B44DB14CFFF74FF80D2201460CA81F
:101AD00006F06EFD0CA9684606F0D6F90CA806F0D3
:101AE0003FF90723042269460CA806F0D7FA0CA98F
:101AF00004A806F0C9F90CA806F032F9294604A892
:101B000006F072FA002840F036812146684606F059
:101B10006BFA0028D7D007F03BFC9F4906F0DFFBAB
:101B20009D490CA806F066F90CA8FFF7E1FD0CA88A
:101B300006F016F904A806F013F9684606F010F945
:101B400010B0BDE8F08704F1010A5146684606F07E
:101B500066FA2C2800F08A8004F10B03524669468D
:101B60000CA806F09BFA0CA908A806F08DF90CA8A1
:101B700006F0F6F8894B1B68002B77D007F008FCBD
:101B8000874906F099FB07F003FC089906F0A7FBCC
:101B90006CE004F1010A5146684606F040FA2C2830
:101BA00064D004F10A03524669460CA806F076FA9E
:101BB0000CA908A806F068F90CA806F0D1F8774B34
:101BC0001B684BB107F0E4FB764906F075FB07F0A4
:101BD000DFFB089906F070FB08A90CA806F049F98C
:101BE00004F10C01684606F01AFA0CA902463046C8
:101BF00003F080F90CA806F0B3F82B8823F0080353
:101C00002B8033E004F1010A5146684606F007FADA
:101C10002C282BD004F10B03524669460CA806F081
:101C20003DFA0CA908A806F02FF90CA806F098F8C0
:101C30005A4B1B684BB107F0ABFB5B4906F03CFB12
:101C400007F0A6FB089906F037FB08A90CA806F0D8
:101C500010F904F10D01684606F0E1F90CA90246FD
:101C6000304603F08FF90CA806F07AF808F1010865
:101C70000137029BBCB2A3427BD92146684606F0DD
:101C8000CEF92C28F4D108F1FF33062B6DD801A230
:101C900052F823F0931B08086B1D0808051C080860
:101CA0006B1D0808B11C0808471B0808ED1C080834
:101CB00004F1010A5146684606F0B1F92C28D5D046
:101CC0005246E31C69460CA806F0E8F90CA908A8DE
:101CD00006F0DAF80CA806F043F808A90CA806F0FC
:101CE000C8F830460CA903F093F9BCE704F1010AE7
:101CF0005146684606F093F92C28B7D05246E31CAB
:101D000069460CA806F0CAF90CA908A806F0BCF8A8
:101D10000CA806F025F808A90CA806F0AAF80CA94A
:101D2000304603F07DF90CA806F01AF82B883046EF
:101D300023F00C032B8003F089F9012803DC2B88A6
:101D400043F00C035CE7304603F080F9042803DC21
:101D50002B8843F0080353E7304603F077F9132844
:101D600084DC2B8843F004034AE707F011FB494663
:101D70000CE708A8DCE60027054908A806F03AF8B1
:101D8000B846DFF83090094E094D72E7C6CC080816
:101D9000F1EA080845CD080833CD0808D40500202D
:101DA000E1CC0808F2CC080804CD08085806002049
:101DB000501C002049CD08082DE9F04F904C89B007
:101DC0006846904906F016F8236823B107F0E0FA58
:101DD0008D4906F084FA8D4E0021308807F097FD7A
:101DE00007F018FE0122492107F099FC002845D18F
:101DF000236873B107F0CCFA854906F070FA84497C
:101E000004A805F0F7FF04A8FFF772FC04A805F08A
:101E1000A7FF00217F4802F0FCFE80B9236873B160
:101E200007F0B6FA7C4906F05AFA7C4904A805F096
:101E3000E1FF04A8FFF75CFC04A805F091FF07F0A0
:101E4000E9FD0122492107F06AFC002840D16846DB
:101E5000734906F021F800250121308807F057FD6D
:101E6000236823B107F094FA6E4906F025FA684614
:101E700005F076FF284609B0BDE8F08F03216A48D7
:101E800003F00EF808F0E6FB684B196808F036FC22
:101E9000674908F0E7FC07F083FF0022654B8046A6
:101EA000894607F01DFE21F0004B00225946624B87
:101EB00008F05EFA0028ACD02368002BA9D007F008
:101EC00067FA5E4942464B46FEF7D3FD5C4997E709
:101ED0000021504802F09DFE0028B8D000250A27B6
:101EE000A846A946DFF840A10021504602F0D8FFDD
:101EF00001218144504602F0D3FF02218044504624
:101F000002F0CEFF0321504602F0CAFF013F17F056
:101F1000FF070544E8D14FF00A0B444BB5FBFBF03B
:101F2000D3F800A008F096FB514608F0E7FB0746FF
:101F3000B9FBFBF008F08EFB514608F0DFFB0146D1
:101F4000384608F0D1FA3F4908F08CFC0546B8FB4A
:101F5000FBF008F07FFB514608F0D0FB0146384605
:101F600008F0C2FA384908F07DFC0746FFF700FA8E
:101F7000364908F06BFDD0B13946284608F0B4FA6E
:101F800007F00EFF1AA3D3E9002308F08BF808F03E
:101F900057FA02220146054604A805F0A1FF68464B
:101FA00004A905F071FF04A805F0DAFE54E7FFF775
:101FB000DFF9274908F04AFD20B13946284608F0E4
:101FC00095FADDE7384607F0EBFE0BA3D3E90023D3
:101FD00007F03EFF80462846894607F0E1FE0246AC
:101FE0000B464046494607F07DFD08F029FAC7E751
:101FF000B6F3FDD478E9D63F52B81E85EB51E83FE1
:10200000D4050020F1EA080871CD0808C0000020BE
:1020100085CD0808A1060020D5CD0808F9CD08080F
:1020200075CC08080CCE0808440500208400002068
:1020300000007A440000F43F0000E03FAACD080809
:10204000BCCD08080000F0C2000016C300007041BB
:102050000000C84110B590B01D4908A805F0CAFE9F
:102060001C4904A805F005FF04A908A805F09CFF79
:10207000194905F0A5FF044618490CA805F0F9FE1A
:102080000CA9204605F090FF154905F099FF01467F
:10209000684605F0EEFE0CA805F062FE04A805F007
:1020A0005FFE08A805F05CFE07F072F90D4906F026
:1020B00016F907F08BFA009906F011F907F068F9A4
:1020C000094906F00CF9684605F04AFE10B010BD4B
:1020D00021CE0808401C002024CE08084807002014
:1020E0007ECE080826CE08084ACE080810B52C4C2B
:1020F0000121208807F00BFCFA2006F065FC002186
:10210000208807F004FCFA2006F05EFC01212088FC
:1021100007F0FDFBFA2006F057FC0021208807F0AD
:10212000F6FBFA2006F050FC0121208807F0EFFBB7
:10213000FA2006F049FC0021208807F0E8FBFA208D
:1021400006F042FC0121208807F0E1FBFA2006F0AE
:102150003BFC0021208807F0DAFBFA2006F034FC73
:102160000121208807F0D3FBFA2006F02DFC002186
:10217000208807F0CCFBFA2006F026FC01212088FD
:1021800007F0C5FBFA2006F01FFC2088002107F0AD
:10219000BEFBBDE810406B210720FEF74BBD00BF22
:1021A000C800002070B5124E124D3088124C00212C
:1021B00007F0ADFB2888002107F0A9FB002120884B
:1021C00007F0A5FB4FF47A7006F0FEFB3088012182
:1021D00007F09DFB2888012107F099FB2088012149
:1021E00007F095FBBDE870404FF47A7006F0ECBB49
:1021F00090000020880000208C00002000B58FB0E7
:10220000834902A805F0F6FD07F0C2F8814906F0FF
:1022100066F800230093804B06A8D3E9002305F05D
:1022200076FE06A90AA805F024FE7C490AA805F056
:10223000C7FE014602A805F097FE0AA805F090FD2A
:1022400006A805F08DFD764B0322196806A805F057
:1022500047FE06A90AA805F00CFE70490AA805F079
:10226000AFFE014602A805F07FFE0AA805F078FD42
:1022700006A805F075FD6B4B0322196806A805F04A
:102280002FFE06A90AA805F0F4FD64490AA805F086
:1022900097FE014602A805F067FE0AA805F060FD5A
:1022A00006A805F05DFD604802F0C6FE002200238E
:1022B00008F036F8002840F09C805B4802F0CBFE26
:1022C00018B95A4902A805F053FE574802F0B4FE67
:1022D0000B4606210246009106A805F018FE06A945
:1022E0000AA805F0C6FD4D490AA805F069FE014699
:1022F00002A805F039FE0AA805F032FD06A805F08F
:102300002FFD494802F09DFE0022002308F008F846
:10231000002873D1444802F0A1FE012803D14349AB
:1023200002A805F025FE404802F08BFE0B46062170
:102330000246009106A805F0EAFD06A90AA805F0E4
:1023400098FD36490AA805F03BFE014602A805F0B3
:102350000BFE0AA805F004FD06A805F001FD3248B1
:1023600002F06FFE0022002307F0DAFF00284AD1B6
:102370002D4802F06BFE07F001FD00222C4B07F008
:1023800091FE0B4606210246009106A805F0BFFD0E
:1023900006A90AA805F06DFD20490AA805F010FE5F
:1023A000014602A805F0E0FD0AA805F0D9FC06A840
:1023B00005F0D6FC1F4B0AA800931F4B1F49D3E919
:1023C000002306F041FA0AA902A805F0CDFD0AA8EB
:1023D00005F0C6FC1A4902A805F0CAFD07F0F6F898
:1023E000029905F069FF02A805F0BAFC0FB05DF88C
:1023F00004FB144906A805F0FDFC70E7124906A885
:1024000005F0F8FC99E7114906A805F0F3FCBFE7D1
:10241000F1EA080853CE08082807002024CE08084F
:10242000BC020020C00200205806002068CE080828
:10243000000024406ACE0808581C0020E41C00203C
:102440007CCE0808A6000020B2000020A0000020DA
:1024500038B51D4805F0F6F9054606F099FF2A46FD
:102460001A49FEF706FB642D1FD0962D1FD0B5F537
:10247000FA7F1FD0B5F5617F1FD0B5F5966F40F29A
:10248000DC5407D0A5421BD040F6B834B5F5FA6F3E
:1024900018BF2C46A1B20C4805F015FA06F078FFDB
:1024A00022460B49FEF7E5FA38BD9624F2E74FF4D1
:1024B000FA74EFE74FF46174ECE74FF49664E9E7E0
:1024C0004FF4FA64E6E700BF5807002080CE080802
:1024D0009ECE08087FB52D4805F0C0F910F0800F9A
:1024E00014BF4FF4006500250446430648BF05F5B8
:1024F0008065860648BF05F50075E00648BF05F50E
:102500008075210748BF8035620748BF403506F017
:102510003FFF2A461E49FEF7ACFA201D030656BFB0
:1025200000214FF400650D46C4B248BF012114F0EC
:1025300040021CBF05F58065012214F020031CBF7A
:10254000012305F5007514F010001CBF05F580751A
:10255000012014F008061CBF8035012614F0040485
:1025600018BF01240090CDE90164084818BF403528
:1025700005F007FA054805F071F906F009FF2A464B
:102580000449FEF776FA04B070BD00BF580700207A
:10259000BCCE0808E5CE080830B55A4D95B006F017
:1025A000F7FE594905F088FE584C06F0F1FE2968FF
:1025B00005F095FE06F0ECFE554905F07DFE06F0AF
:1025C000E7FE216805F08BFE06F0E2FE514905F0BA
:1025D00086FE06F0DDFE4CF2503105F0D3FF06F02A
:1025E000D7FE0D220146684605F0E2FF68464A49DB
:1025F00005F0FAFC002874D006F0CAFE474905F041
:102600006EFE06F0C5FE464905F069FE06F0C0FE06
:102610004CF2503105F0B6FF06F0BAFE0D2201462D
:1026200004A805F0C5FF06F0B3FE3E4905F044FEE0
:1026300006F0AEFE049905F052FE06F0A9FE3A49F6
:1026400005F04DFE06F0A4FE0D22014608A805F097
:10265000AFFF364908A805F0C7FC00284CD006F0AB
:1026600097FE334905F03BFE04A9284605F0F2FB2E
:1026700006F08EFE2F4905F032FE06F089FE0D228F
:1026800001460CA805F094FF06F082FE2A4905F0E9
:1026900013FE06F07DFE0C9905F021FE06F078FE93
:1026A0000D22014610A805F083FF204910A805F06F
:1026B0009BFCD8B106F06CFE204905F010FE0CA979
:1026C000204605F0C7FBFFF7C5FC10A805F048FB46
:1026D0000CA805F045FB08A805F042FB04A805F08E
:1026E0003FFB684605F03CFB15B030BD06F050FEE0
:1026F000134905F0F4FDE8E706F04AFE104905F03D
:10270000EEFDE8E7401C002003CF08084807002042
:1027100019CF080833CF080865CF08086BCF080821
:102720007DCF08088DCF0808A5CF0808D1D60808A6
:10273000BBCF0808CBCF0808DECF0808FACF0808BF
:102740000ED008081FB506F023FE194905F0C7FD95
:1027500006F01EFE4CF2503105F014FF06F018FE94
:102760000D220146684605F023FF6846114905F031
:102770003BFCB8B106F00CFE0F4905F0B0FD06F0C9
:1027800007FE0E4905F0ABFD01230D4C236007F059
:10279000EFF821468C20FEF73AF9684605F0E0FA9A
:1027A00004B010BD06F0F4FD064905F098FDF4E70D
:1027B00021D0080864D008086BCF08086FD008083B
:1027C000080C002090D008081FB506F0E1FD05F0C8
:1027D0007AFD06F0DDFD144905F081FD06F0D8FD17
:1027E0004CF2503105F0CEFE06F0D2FD0D2201462E
:1027F000684605F0DDFE68460C4905F0F5FB60B162
:1028000006F0C6FD0A4905F06AFDFEF72FFA684694
:1028100005F0A6FA05B05DF804FB06F0B9FD054920
:1028200005F05DFDF3E700BFA6D0080865CF0808F6
:10283000DFD0080890D0080810B588B006F0A8FDD1
:10284000204905F04CFD06F0A3FD4CF2503105F097
:1028500099FE06F09DFD0D220146684605F0A8FE92
:10286000684605F0DCFC044606F092FD164905F0CA
:1028700036FD164B9C421EDDE117204605F02CFF6D
:1028800006F086FD124905F017FD06F081FD0446AD
:1028900006F039F80246C31704A805F031FF2046B8
:1028A000049905F01CFD04A805F05AFA684605F0E5
:1028B00057FA08B010BD06F06BFD064905F00FFD94
:1028C000F4E700BF4ED10808F1EA0808F52E943964
:1028D00089D108089CD1080830B58BB006F058FDA6
:1028E00005F0F1FC06F054FD324905F0E5FC06F078
:1028F0004FFD0446304D0222296806A805F0F0FA83
:102900000699204605F0D8FC06A805F029FA06F03D
:102910003FFD2A4905F0E3FC06F03AFD284905F0A1
:10292000CBFC06F035FD4CF2503105F02BFE06F0E5
:102930002FFD0D22014602A805F03AFE02A805F07F
:1029400073FC4FF07C51044608F08AF858B32046D7
:102950001C4908F071F830B31B4920462C6007F081
:10296000CDFE08F091F8019006F012FD174905F030
:10297000A3FC06F00DFD04460222296806A805F016
:10298000AFFA0699204605F0AAFC06A805F0E8F97A
:1029900006F0EEFF082001A9FEF739F802A805F0BD
:1029A000DFF90BB030BD06F0F3FC094905F097FCE8
:1029B000F4E700BFADD10808B4020020C0D1080878
:1029C000C5D10808000020410000C842DBD108083A
:1029D0009CD108080000000030B58BB006F0D8FC90
:1029E00005F071FC06F0D4FC374905F065FC06F0F3
:1029F000CFFC0446354D0222296806A805F070FA7E
:102A00000699204605F058FC06A805F0A9F906F03D
:102A1000BFFC2F4905F063FC06F0BAFC2D4905F018
:102A20004BFC06F0B5FC4CF2503105F0ABFD06F066
:102A3000AFFC0D22014602A805F0BAFD02A805F080
:102A4000F3FB044607F0ACF91DA3D3E9002307F01C
:102A500085FC60B34FF08041204607F0EDFF30B3B6
:102A60001D4920462C6007F049FE08F00DF8019042
:102A700006F08EFC194905F01FFC06F089FC04469F
:102A80000222296806A805F02BFA0699204605F0CF
:102A900026FC06A805F064F906F06AFF102001A9DB
:102AA000FDF7B5FF02A805F05BF90BB030BD06F0ED
:102AB0006FFC0B4905F013FCF4E700BFAFF3008097
:102AC0009A9999999999B93FEDD10808C4020020C3
:102AD000C0D10808FFD108080000C84214D2080875
:102AE0009CD1080830B58BB006F052FC05F0EBFB2A
:102AF00006F04EFC324905F0DFFB06F049FC0446C7
:102B0000304D0222296806A805F0EAF90699204608
:102B100005F0D2FB06A805F023F906F039FC2A4996
:102B200005F0DDFB06F034FC284905F0C5FB06F096
:102B30002FFC4CF2503105F025FD06F029FC0D224A
:102B4000014602A805F034FD02A805F06DFB4FF028
:102B50007C51044607F084FF60B34FF07F5120465C
:102B600007F06AFF30B31A4920462C6007F0C6FD13
:102B700007F08AFF019006F00BFC164905F09CFB5C
:102B800006F006FC04460222296806A805F0A8F90A
:102B90000699204605F0A3FB06A805F0E1F806F02B
:102BA000E7FE302001A9FDF732FF02A805F0D8F8B2
:102BB0000BB030BD06F0ECFB074905F090FBF4E7E5
:102BC00026D20808681C002041D208084CD2080808
:102BD0000000C8426AD208089CD1080830B58BB002
:102BE00006F0D6FB05F06FFB06F0D2FB324905F08C
:102BF00063FB06F0CDFB0446304D0222296806A88F
:102C000005F06EF90699204605F056FB06A805F07A
:102C1000A7F806F0BDFB2A4905F061FB06F0B8FBFA
:102C2000284905F049FB06F0B3FB4CF2503105F0A2
:102C3000A9FC06F0ADFB0D22014602A805F0B8FC88
:102C400002A805F0F1FA4FF07C51044607F008FFA6
:102C500060B34FF07F51204607F0EEFE30B31A49C3
:102C600020462C6007F04AFD07F00EFF019006F0A9
:102C70008FFB164905F020FB06F08AFB0446022272
:102C8000296806A805F02CF90699204605F027FBCF
:102C900006A805F065F806F06BFE382001A9FDF7DF
:102CA000B6FE02A805F05CF80BB030BD06F070FB74
:102CB000074905F014FBF4E784D2080880070020D8
:102CC0009CD20808A2D208080000C842BDD2080859
:102CD0009CD1080830B58BB006F05AFB05F0F3FA2A
:102CE00006F056FB324905F0E7FA06F051FB0446C0
:102CF000304D0222296806A805F0F2F80699204610
:102D000005F0DAFA06A805F02BF806F041FB2A498F
:102D100005F0E5FA06F03CFB284905F0CDFA06F08F
:102D200037FB4CF2503105F02DFC06F031FB0D2243
:102D3000014602A805F03CFC02A805F075FA4FF028
:102D40007C51044607F08CFE58B320461C4907F01E
:102D500073FE30B31B4920462C6007F0CFFC07F010
:102D600093FE019006F014FB174905F0A5FA06F052
:102D70000FFB04460222296806A805F0B1F806995F
:102D8000204605F0ACFA06A804F0EAFF06F0F0FDD4
:102D9000402001A9FDF73BFE02A804F0E1FF0BB0C3
:102DA00030BD06F0F5FA094905F099FAF4E700BFDD
:102DB000D4D2080888070020E6D20808E9D208081B
:102DC000000020410000C842FED208089CD108083B
:102DD00008B506F0DDFAA24905F081FA06F0D8FA46
:102DE000A04905F07CFA06F0D3FA9F4905F077FA7E
:102DF00006F0CEFA9D4905F072FA06F0C9FA9C4930
:102E000005F06DFA06F0C4FA9A4905F068FA06F082
:102E1000BFFA994905F063FA06F0BAFA974905F046
:102E20005EFA06F0B5FA964905F059FA06F0B0FADE
:102E3000944905F054FA06F0ABFA934905F04FFABD
:102E400006F0A6FA914905F04AFA06F0A1FA90496F
:102E500005F045FA06F09CFA8E4905F040FA06F0B6
:102E600097FA8D4905F03BFA06F092FA8B4905F086
:102E700036FA06F08DFA8A4905F031FA06F088FA3A
:102E8000884905F02CFA06F083FA874905F027FAFD
:102E900006F07EFA854905F022FA06F079FA8449AF
:102EA00005F01DFA06F074FA824905F018FA06F0EA
:102EB0006FFA814905F013FA06F06AFA7F4905F0C6
:102EC0000EFA06F065FA7E4905F009FA06F060FA96
:102ED0007C4905F004FA06F05BFA7B4905F0FFF93E
:102EE00006F056FA794905F0FAF906F051FA7849F0
:102EF00005F0F5F906F04CFA764905F0F0F906F020
:102F000047FA754905F0EBF906F042FA734905F006
:102F1000E6F906F03DFA724905F0E1F906F038FAF3
:102F2000704905F0DCF906F033FA6F4905F0D7F97E
:102F300006F02EFA6D4905F0D2F906F029FA6C492F
:102F400005F0CDF906F024FA6A4905F0C8F906F053
:102F50001FFA694905F0C3F906F01AFA674905F046
:102F6000BEF906F015FA664905F0B9F906F010FA4F
:102F7000644905F0B4F906F00BFA634905F0AFF9BE
:102F800006F006FA614905F0AAF906F001FA60496F
:102F900005F0A5F906F0FCF95E4905F0A0F906F088
:102FA000F7F95D4905F09BF906F0F2F95B4905F088
:102FB00096F906F0EDF95A4905F091F906F0E8F9AD
:102FC000584905F08CF906F0E3F9574905F087F9FF
:102FD00006F0DEF9554905F082F906F0D9F95449B1
:102FE00005F07DF906F0D4F9524905F078F906F0BC
:102FF000CFF9514905F073F906F0CAF94F4905F0C8
:103000006EF906F0C5F94E4905F069F906F0C0F908
:103010004C4905F064F906F0BBF94B4905F05FF93E
:1030200006F0B6F9494905F05AF906F0B1F94849F0
:1030300005F055F906F0ACF9464905F050F906F0EF
:10304000A7F9454905F04BF906F0A2F9434905F007
:1030500046F906F09DF9BDE80840414905F03FB941
:103060000FD3080825D308083AD308084ED3080818
:1030700062D3080875D308088AD308089ED30808C5
:10308000B5D30808CBD30808E1D30808F6D308085D
:1030900013D408082FD4080849D4080862D40808B3
:1030A0007CD4080895D40808B1D40808CED4080800
:1030B000E7D4080803D508081BD5080834D5080844
:1030C0004DD5080861D5080876D5080891D50808B7
:1030D000ACD50808C2D50808D3D50808E5D5080836
:1030E000F6D5080808D6080831D608085AD60808C0
:1030F00089D60808AED60808D3D60808FBD6080833
:103100003BD708087ED70808A9D70808ECD70808D5
:1031100032D8080866D8080884D80808A8D808084B
:10312000C3D80808EDD8080822D9080846D90808E5
:103130005AD9080876D908089BD90808BFD90808C1
:10314000E4D908080CDA080838DA08087BDA080835
:10315000ADDA0808D3DA080839DB08089DDB08086F
:10316000B2DB080838B5046805467CB16368013BEA
:1031700063605BB9236820469B689847A368013B5E
:10318000A3601BB923682046DB689847284638BDF2
:1031900090B593B002AF4849384604F02BFE47493A
:1031A00007F1100004F026FE454907F1300005F054
:1031B000EBF907F1300107F1100004F065FE07F1AB
:1031C000300004F0CDFDBA6907F11000D31D23F0E3
:1031D0000703ADEB030D02A9002304F022FF012237
:1031E000002107F110009DF8084004F0FEFF0146A1
:1031F00007F1100004F02EFE324907F1200004F020
:10320000F9FD2E4907F1300004F0F4FD07F130021A
:1032100007F1200107F1100004F062FF07F1300010
:1032200004F09EFD07F1200004F09AFD06F0B0F8CE
:10323000254905F054F806F0ABF8396905F04FF868
:10324000592C24D106F0A4F8204905F048F806F0DE
:103250009FF8396905F043F81D4B3A691B781D4901
:103260008DF800303C2307F1300005F061FE07F1D6
:103270003400FFF777FFFDF717FC07F1100004F0AB
:103280006FFD384604F06CFD4437BD4690BD512CAF
:10329000F3D106F07DF8104905F021F806F078F832
:1032A000396905F01CF80A4B3A691B780B498DF80F
:1032B00000303C23D7E700BFD5DC0808F1EA080856
:1032C0000C0C0020D8DC0808DADC0808EDDC080863
:1032D000140500200CDD080813DD080841DD08088E
:1032E0002DE9F04107460C4615462AB9BDE8F041E4
:1032F0000368C9B29B68184700290DDA0A2A0BD166
:103300002D2104F0DDFF064661423846EAB204F0A2
:10331000FAFF3044BDE8F08121460026F5E738B5D4
:103320000546FFF7DDFF0446284604F0CCFF2044A5
:1033300038BD00004FF4DA4270B5C54BA8B0C5499E
:10334000C54D01A81A80C54C04F054FD072005F0B6
:1033500039FB0121288806F0C9FA0121208806F0EE
:10336000C5FABF4B0121188806F0C0FABD4B0121F8
:10337000188806F0BBFABC4B0121188806F0B6FA93
:10338000BA4B0121188806F0B1FAB94B012118880F
:1033900006F0ACFAB74B0121188806F0A7FAFDF742
:1033A0008DFDB54804F0F3F941F27001B24804F024
:1033B00022FBB14804F0CEFAB04E34210020FDF7D4
:1033C00039FC1B210120FDF735FC304601F0C8FC1B
:1033D00096F82130002B40F00E82FEF787FE012187
:1033E000288806F094FA2088012106F090FA9E4B76
:1033F0000121188806F08BFA9A4B0121188806F0F3
:1034000086FA9A4B0121188806F081FA984B01211F
:10341000188806F07CFA974B0121188806F077FA95
:103420008F4B0121188806F072FA954A9549964803
:1034300005F08BFC002302229449954804F008F91A
:1034400006F0C4F84FF4165106F0BAF8FDF750FB39
:103450004FF4165106F0B4F8FDF786FB4FF4165101
:1034600006F0AEF88B4803F017FE42F2107005F03C
:10347000ABFA05F08DFF4FF4165105F06FFF864B48
:103480000A22196805A804F018FD05A909A804F086
:10349000F0FC824909A804F093FD044605F07CFA8B
:1034A0000A2201460DA804F008FD0DA9204604F0EB
:1034B0007BFD044605F068FA0A22014611A804F0D3
:1034C000FCFC11A9204604F06FFD044605F050FAFB
:1034D0000A22014615A804F0F0FC204615A904F0C4
:1034E00063FD6E4904F06CFD044605F01DFA0A22E6
:1034F000014619A804F0E1FC19A9204604F054FD86
:10350000044605F01DFA0A2201461DA804F0D5FC68
:103510001DA9204604F048FD044605F01DFA0A22C4
:10352000014621A804F0C9FC204621A904F03CFD75
:103530005B4904F045FD5B4C0146204604F08AFCE3
:1035400021A804F00DFC1DA804F00AFC19A804F041
:1035500007FC15A804F004FC11A804F001FC0DA858
:1035600004F0FEFB09A804F0FBFB05A804F0F8FB3F
:1035700005F00EFF4C4904F0B2FE4C4921A804F0BE
:1035800039FC214621A804F00FFD0146484804F00B
:1035900061FC21A804F0E4FB464902230C22A1F5BA
:1035A0008E60FDF71DFB002800F0398105F0F0FE6C
:1035B000414904F081FE05F0EBFE21683F4C04F028
:1035C0008EFE05F0E5FE3E4904F089FE23684BB10E
:1035D0003B4921A804F00EFC21A8FEF789F821A898
:1035E00004F0BEFB06F016FA06F06AF800212888FF
:1035F00006F08DF90323B0221821324801F05AFB5E
:10360000002840F0108105F0C3FE2F4904F067FE4A
:1036100023684BB12C4921A804F0ECFB21A8FEF74C
:1036200067F821A804F09CFB284801F030FC06F064
:10363000F1F90122492106F072F8002840F00981D1
:1036400005F0A6FE224904F04AFE236842E000BFCE
:10365000501C0020F1EA0808C0000020C40000202F
:1036600094000020CC000020C80000209000002022
:10367000880000208C000020580700205C070020F4
:1036800058DD08081D0A08081F8D0808D002002010
:1036900066DD08080C0C0020800000208CDD080886
:1036A0006FDD08083806002074DD080889DD080889
:1036B000E8060020000C00208EDD0808D40500205C
:1036C000CADD0808A1060020EEDD08084405002038
:1036D00054DE08084BB16F4921A804F08BFB21A8E8
:1036E000FEF706F821A804F03BFB05F051FE6A49FD
:1036F00004F0F5FD23684BB1674921A804F07AFB7B
:1037000021A8FDF7F5FF21A804F02AFB634D06F080
:1037100081F905F0D5FF0021288806F0F8F8032389
:10372000B02218215E4801F0C5FA002840F09680CA
:1037300005F02EFE5B4904F0D2FD5A4921A804F0A1
:1037400059FB21A8FDF7D4FF21A804F009FB564836
:1037500001F09DFB06F05EF901224A2105F0DFFF32
:10376000002840F0918005F013FE4A4904F0B7FDAF
:1037700023684BB1474921A804F03CFB21A8FDF781
:10378000B7FF21A804F0ECFAFEF70CFD05F000FEEF
:10379000464904F0A4FD05F0FBFD454904F08CFD0D
:1037A00005F0F6FD0A224621FFF7B9FD05F0F0FD10
:1037B000404904F081FD05F0EBFD0A220D21FFF7E1
:1037C000AEFDFDF7B1FD1C23002121A8ADF884302A
:1037D00003F0B2FE23A91DA804F00CFB1D9A364984
:1037E0003648FDF76DF91DA804F0BAFA01A804F0F7
:1037F000B7FA28B070BD324B1B68012B7FF4EFADD8
:10380000304805F06BF9304907F016F900283FF40D
:10381000E6AD96F82130002B7FF4E1ADDDE505F053
:10382000B7FD2A49CAE605F0B3FD294904F057FD62
:1038300023684BB1274921A804F0DCFA21A8FDF741
:1038400057FF21A804F08CFA0121288806F05FF8C0
:10385000EAE60021204801F021FB46E705F098FD4B
:103860001E4904F03CFD23684BB11C4921A804F01B
:10387000C1FA21A8FDF73CFF21A804F071FA01214B
:10388000288806F044F862E70021074801F006FBAB
:103890007AE700BF54DE080887DE0808C40000206D
:1038A000A2060020AADE08084A050020F1DE08086A
:1038B000FCDE080809DF080811DF0808E01C00200A
:1038C00050050020480600200000A041B4DD080893
:1038D0001ADE080838DE080844050020D3DE080890
:1038E00030B589B005F054FD354D04F0ECFC05F021
:1038F0004FFD344904F0E0FC05F04AFD0A22296836
:10390000FFF70DFD05F044FD2F4904F0E8FC05F03C
:103910003FFD4CF2503104F035FE05F039FD0D222B
:103920000146684604F044FE6846284904F05CFB02
:1039300000283ED005F02CFD254904F0D0FC05F010
:1039400027FD244904F0CBFC05F022FD0D220146A1
:1039500004A804F02DFE04A804F061FC044605F060
:1039600017FD1D4904F0BBFC42F20C73A21E9A42E3
:1039700019D805F00DFD194904F09EFC05F008FD6D
:1039800021460A22FFF7CBFC2C6005F0F1FF294607
:103990000020FDF73CF804A804F0E2F9684604F0C2
:1039A000DFF909B030BD05F0F3FC0D4904F097FCD8
:1039B000F1E705F0EDFC0B4904F091FCEEE700BFE8
:1039C0008000002024DF080837DF080865CF0808DA
:1039D0006BCF080867DF0808F1EA08087CDF0808F1
:1039E0009CD1080890D008087FB505F0D1FC1F498C
:1039F00004F075FC05F0CCFC4CF2503104F0C2FD33
:103A000005F0C6FC0D22014602A804F0D1FD02A873
:103A100004F005FC019005F0BBFC154904F05FFCC7
:103A2000019800F10C031A2B1AD806F013FE04F0CB
:103A300035FE05F0ADFC0F4904F03EFC05F0A8FC96
:103A400001990A22FFF76BFC05F092FF542001A9AF
:103A5000FCF7DDFF02A804F083F907B05DF804FB72
:103A600005F096FC044904F03AFCF3E78DDF080802
:103A7000F1EA0808B8DF08089CD1080810B586B03C
:103A800005F086FC284C04F01EFC05F081FC27495B
:103A900004F012FC05F07CFC0A222168FFF720FCF0
:103AA00005F076FC224904F01AFC05F071FC21496E
:103AB00004F002FC05F06CFC4CF2503104F062FDA5
:103AC00005F066FC0D22014602A804F071FD02A873
:103AD00004F0A5FB42F20E730190013898421CD805
:103AE00005F056FC144904F0E7FB05F051FC0A22EE
:103AF0000199FFF714FC05F04BFC0D4904F0EFFBB6
:103B0000019B236005F034FF742001A9FCF77FFFBF
:103B100002A804F025F906B010BD05F039FC0749EC
:103B200004F0DDFBF4E700BF30070020D0DF080819
:103B3000E4DF0808FDDF080810E008089CD1080849
:103B400010B586B005F024FC254C04F0BCFB05F054
:103B50001FFC244904F0B0FB05F01AFC0A2221687E
:103B6000FFF7BEFB05F014FC1F4904F0B8FB05F09D
:103B70000FFC1E4904F0A0FB05F00AFC4CF250318A
:103B800004F000FD05F004FC0D22014602A804F03B
:103B90000FFD02A804F043FB019000F57A70B0F528
:103BA000FA6F17D205F0F4FB114904F085FB05F01C
:103BB000EFFB01990A22FFF7B2FB019B236005F09E
:103BC000D7FE042001A9FCF722FF02A804F0C8F8E0
:103BD00006B010BD05F0DCFB064904F080FBF4E7FD
:103BE000B802002022E00808C0D1080834E0080824
:103BF00049E008089CD1080810B586B005F0C8FB5C
:103C0000264C04F060FB05F0C3FB254904F054FB8F
:103C100005F0BEFB0A222168FFF762FB05F0B8FB46
:103C2000204904F05CFB05F0B3FB1F4904F044FBA2
:103C300005F0AEFB4CF2503104F0A4FC05F0A8FBFB
:103C40000D22014602A804F0B3FC02A804F0E7FA32
:103C500042F20F73019000F59C500830984217D83B
:103C600005F096FB114904F027FB05F091FB019943
:103C70000A22FFF754FB019B236005F079FE0C201C
:103C800001A9FCF7C4FE02A804F06AF806B010BD52
:103C900005F07EFB064904F022FBF4E7D002002089
:103CA0005AE008086DE0080872E0080886E0080895
:103CB0009CD1080810B586B005F06AFB244C04F0CE
:103CC00002FB05F065FB234904F0F6FA05F060FB02
:103CD0000A222168FFF704FB05F05AFB1E4904F095
:103CE000FEFA05F055FB1D4904F0E6FA05F050FB1D
:103CF0004CF2503104F046FC05F04AFB0D2201461F
:103D000002A804F055FC02A804F089FA01901E30C4
:103D10003B2817D805F03CFB114904F0CDFA05F01B
:103D200037FB01990A22FFF7FAFA019B236005F09D
:103D30001FFE2C2001A9FCF76AFE02A804F010F86F
:103D400006B010BD05F024FB064904F0C8FAF4E7FC
:103D50006C1C002096E0080841D20808B0E0080872
:103D6000CDE008089CD1080810B586B005F010FB1E
:103D7000254C04F0A8FA05F00BFB244904F09CFA4A
:103D800005F006FB0A222168FFF7AAFA05F000FBFE
:103D90001F4904F0A4FA05F0FBFA1E4904F08CFA5E
:103DA00005F0F6FA4CF2503104F0ECFB05F0F0FAB5
:103DB0000D22014602A804F0FBFB02A804F02FFA32
:103DC000019000F57A70B0F5FA6F17D205F0E0FABD
:103DD000114904F071FA05F0DBFA01990A22FFF7A4
:103DE0009EFA019B236005F0C3FD342001A9FCF776
:103DF0000EFE02A803F0B4FF06B010BD05F0C8FA2D
:103E0000064904F06CFAF4E784070020E6E00808AD
:103E1000C0D10808FDE0080817E108089CD108088F
:103E200010B586B005F0B4FA244C04F04CFA05F055
:103E3000AFFA234904F040FA05F0AAFA0A222168F1
:103E4000FFF74EFA05F0A4FA1E4904F048FA05F00F
:103E50009FFA1D4904F030FA05F09AFA4CF25031FD
:103E600004F090FB05F094FA0D22014602A804F03C
:103E70009FFB02A804F0D3F901903230632817D8D1
:103E800005F086FA114904F017FA05F081FA019954
:103E90000A22FFF744FA019B236005F069FD3C20EC
:103EA00001A9FCF7B4FD02A803F05AFF06B010BD4B
:103EB00005F06EFA064904F012FAF4E78C070020C8
:103EC0002DE10808E6D208083EE1080852E108089A
:103ED0009CD1080830232DE9F047CB4CCB4DCC4F7B
:103EE0008AB02370CB4E2378782B00F03E8405F007
:103EF0004FFA314604F0E0F905F04AFA0368DB694D
:103F0000984705F045FA03681B6998470028F8D0E0
:103F100005F03EFA03685B699847C0B2207021380B
:103F20005928E0D801A353F820F000BF8F460808B5
:103F3000E73E08082F470808E73E0808E73E08085C
:103F4000E73E0808E73E0808E73E0808E73E08089D
:103F50005B470808E73E0808E73E0808E73E080810
:103F6000E73E0808E73E080889460808E73E0808D3
:103F7000E73E0808BF440808ED4408081345080850
:103F8000F14508081746080835460808834608081A
:103F9000E73E0808E73E0808E73E0808E73E08084D
:103FA000E73E08086347080807470808E73E08088F
:103FB00083410808AF410808CF410808F7410808C5
:103FC0007142080885420808AD420808C74208083F
:103FD000CD420808DD420808ED420808F34208080F
:103FE0001B43080837430808474308085B43080891
:103FF0006943080899430808C9430808F5430808B5
:10400000214408083344080861440808E73E0808CA
:1040100071440808E73E0808E73E0808E73E08083C
:10402000E73E0808E73E0808E73E0808954008080C
:104030009B400808A1400808A7400808E73E080878
:10404000E73E0808E73E0808E73E0808E73E08089C
:10405000E73E0808AD400808B3400808B940080822
:10406000BF400808C5400808CB400808D1400808F0
:10407000EF400808FF4008081D41080823410808D0
:10408000294108082F410808E73E0808354108087B
:104090005B410808FEF720FC24E7FFF751FD21E70C
:1040A000FEF79AFC1EE7FFF7A7FD1BE7FEF71AFDD8
:1040B00018E7FFF7FFFD15E7FEF790FD12E7FFF7A2
:1040C00053FE0FE7FEF706FE0CE7FFF7A9FE09E730
:1040D00005F05EF9504904F002F901234F4E3360B8
:1040E00005F046FC31464820FCF791FCFAE605F065
:1040F0004FF94B4904F0F3F8484E0023EFE705F081
:1041000047F90646474906A803F074FE304606996B
:1041100004F0E5F806A803F023FEE3E6FEF78CFBC7
:10412000E0E6FFF761FCDDE6FFF7DAFBDAE6FEF733
:1041300033FAD7E63C4E33685BB905F029F93B49C1
:1041400004F0CDF80123336005F012FC4420364919
:10415000CAE705F01DF93649F2E7334E3368012B03
:1041600009D105F015F9334904F0B9F83248FCF7E4
:104170008EFC0023E7E705F00BF9304904F0AFF8B7
:10418000F7E72F4B1A68012A0BD100221A6005F0BD
:10419000FFF82C4904F0A3F805F0EAFB6420284955
:1041A000A2E701221A6005F0F3F82749F2E7274B4E
:1041B0001A6812B901221A6004E005F0E9F82449EE
:1041C00004F08DF805F0D4FB602020498CE7214BEA
:1041D0001A68012A0BD100221A6005F0D9F81E498D
:1041E00004F07DF805F0C4FB68201A497CE705F06F
:1041F000CFF81A49F4E7174B1A68012A32D105F0B3
:10420000C7F81749ECE700BFA006002054050020BE
:104210000000C84262E1080868E10808D4050020EF
:1042200082E1080851DC08083C1C00209DE10808D8
:10423000B0E10808CAE1080874200020DDE10808A0
:1042400038070020F8E108080CE20808701C00207C
:104250001FE208083407002049E208086AE208085B
:104260008EE2080801221A6005F092F8B049B7E71B
:10427000B04B1A68012A01D100229CE705F088F8AA
:10428000AD499DE7AD4B1A68012A09D105F080F8C8
:10429000AB4904F024F805F06BFB6C20A74923E739
:1042A00001221A6005F074F8A649F2E7A34B1A68D8
:1042B0001AB905F06DF8A449EBE700221A6005F081
:1042C00067F8A249E5E7FFF7D9FB0BE6FDF76AFFC0
:1042D00005F05EF89E4904F002F803E605F058F890
:1042E0009C4903F0FCFFFCF7C7FFFBE5FEF76CFA07
:1042F000F8E5994E3368012B03D105F049F8974949
:10430000E9E705F045F8964903F0E9FF012333603A
:1043100005F02EFB31467820E6E68F4E33681BB958
:1043200005F036F88F49D6E705F032F88E4903F0EC
:10433000D6FF0023EBE705F02BF88C4903F0CFFF05
:10434000FDF704F8CEE505F023F8894903F0C7FF2F
:104350006B210720FCF76EFCC4E505F019F88549D0
:1043600003F0BDFF4B21F4E7834E336883B105F0C2
:104370000FF8824903F0B3FF0023336005F0F8FA29
:1043800031467C20FCF743FB7D4800F094FEA9E514
:1043900004F0FEFF7B499EE7774E336883B904F053
:1043A000F7FF794903F09BFF0123336005F0E0FA42
:1043B00031467C20FCF72BFB714800F0A1FE91E513
:1043C00004F0E6FF714986E7714E33685BB904F08B
:1043D000DFFF704903F083FF0123336005F0C8FA63
:1043E0003146802080E604F0D3FF6B4903F077FF6D
:1043F0000023F2E7694E33685BB904F0C9FF6849EE
:1044000003F06DFF0123336005F0B2FA31468420DA
:104410006AE604F0BDFF634903F061FF0023F2E7A1
:1044200004F0B6FF604903F05AFF554800F01EFE45
:1044300058E55E4E3368012B0BD104F0A9FF5C49AF
:1044400003F04DFF0023336005F092FA31468820D7
:104450004AE604F09DFF574903F041FF0123F2E7CC
:104460000121474800F072FEB422534B1A6039E52F
:1044700004F08EFF514903F032FF06A8504902F0C4
:10448000F3FC069A4F495048FCF71AFB06A803F0C4
:1044900067FC06A84A4902F003FD069A4B494A48C0
:1044A000FCF70EFB06A803F05BFC06A8444902F0EB
:1044B000FDFC069A46494448FCF702FB2AE604F054
:1044C00067FF444903F0F8FE04F062FF0A22462128
:1044D000FEF725FF04F05CFF3F4903F0EDFE04F01A
:1044E00057FF0A220D21FEF71AFFFBE43B4E33680B
:1044F0005BB904F04DFF3A4903F0F1FE012333604C
:1045000005F036FA58203549EEE504F041FF35490B
:10451000F2E7324E3368012B06D104F039FF3249FD
:1045200003F0DDFE0023EAE704F032FF2F49F7E74E
:10453000B1E20808701C0020CFE208083C07002008
:10454000FCE2080824E3080848E3080871E30808C7
:10455000F1DE080896E3080850050020B2E30808D9
:10456000D4E30808F8E308081BE4080840E4080856
:104570005BE408086EE408084005002089E40808A8
:10458000601C0020ACE40808C7E40808E9E4080857
:104590009C06002003E508081EE50808CC02002060
:1045A0003AE5080859E5080878E5080850060020AB
:1045B00090E50808B4E50808D0050020D7E508080C
:1045C000CC1C00200EE60808E01C002016E60808B7
:1045D0001EE6080827E6080809DF0808400700204B
:1045E00035E6080844E608085AE608086AE60808B6
:1045F000604E33685BB904F0CBFE5F4903F06FFE99
:104600000123336005F0B4F95C205A496CE504F0ED
:10461000BFFE5A49F2E7574E3368012B06D104F02A
:10462000B7FE574903F05BFE0023EAE704F0B0FE53
:104630005449F7E704F0ACFE534903F03DFE5348FC
:1046400003F012F9804604F0A3FE06460A22414612
:1046500003F059FE304603F036FE04F099FE4C4953
:1046600003F02AFE494803F0FCF8804604F090FE6F
:1046700006460A22414603F046FE304603F023FE7A
:1046800030E4FDF727FF2DE4FDF7E2FE2AE404F015
:104690007FFE404903F023FEDFF818A104F078FE06
:1046A00003681B69984700287FF41CAC284602F079
:1046B000EDF838B904F06CFE374903F010FE0AB08B
:1046C000BDE8F08704F064FE39460646E86806F067
:1046D000C9F805F065FB8046A868894605F060FBCF
:1046E000CDE90401686805F05BFBCDE902012868AB
:1046F00005F056FB4246CDE900014B465146304697
:10470000FCF7B7F9CAE7254E3368012B0BD104F04B
:104710003FFE234903F0E3FD0023336005F028F951
:1047200031468C20E0E4FEF70DF8FFF7DBBB1D4EB1
:104730003368012B0BD10023336004F029FE1A49A2
:1047400003F0CDFD05F014F931469020CCE40123AF
:10475000336004F01DFE1549F2E7FDF74FFDFFF74A
:10476000C1BBFEF735FBFFF7BDBB04F011FE1049DE
:10477000A3E700BF781C002081E608088FE6080840
:10478000A4E60808B4E60808CBE6080858070020A5
:10479000D3E60808E3E608081EE70808080C00202E
:1047A00065E70808CC05002087E70808A5E70808A2
:1047B000EDE7080834E708081FB5704C0022D4E97B
:1047C00000016F4B05F08EF9C4E90001FDF7F4FA22
:1047D0006C4B1860FCF748FE6B4B1860FCF7D8FF79
:1047E000FDF764F904F08FF8684BC117C3E90001C5
:1047F000674B68481A68684B1A6002F005FC00288D
:1048000001DDFEF7C5FC04F0C3FD03681B69984792
:1048100000281DDD04F0BCFD0368604C5B6998470F
:104820005F4B20701B684BB104F0B2FD5D4903F093
:1048300043FD04F0ADFD217803F05BFD04F0A8FD1D
:10484000217803F056FD23786D2B01D1FFF742FB51
:10485000554B1B68002B76D0544A138843F0010354
:10486000138002F015FF002843D1514B1A78002A1B
:104870003FD101224A4C1A70236873B104F088FDBD
:104880004C4903F02CFD4B49684603F0B3FA6846E7
:10489000FCF72EFF684603F063FA002346481A46E9
:1048A0001946406802F0A4FE236873B104F070FD5D
:1048B000424903F014FD4249684603F09BFA6846FA
:1048C000FCF716FF684603F04BFA02F0D9FE2368A6
:1048D00093B104F05DFD3B4903F001FD39496846A1
:1048E00003F088FA6846FCF703FF684603F038FADD
:1048F00002E002F0CDFED0B9334C204600F030FA91
:10490000324B1B68012B10D1314804F0E7F83149D4
:1049100006F092F848B194F8213033B904F038FD2C
:104920002D4903F0DCFCFDF7E1FB04B010BD1C4B8E
:104930001B6823B104F02CFD284903F0D0FC0022B1
:104940001B4B1A70D8E702F0A3FE0028D4D0144BFA
:104950001B6873B104F01CFD214903F0C0FC204921
:10496000684603F047FA6846FCF7C2FE684603F063
:10497000F7F91148FCF78BF8BEE700BF28070020C5
:104980000000F03FBC020020C0020020581C0020A4
:10499000D40000200C0C0020E81C0020A006002001
:1049A000D405002004E808083C1C0020501C00200E
:1049B000741C002013E808087420002032E808085E
:1049C00043E8080854E808085C0700205005002068
:1049D000480600200000A041B7E808086BE8080876
:1049E00093E80808F8B50127624B634C634D1F70CC
:1049F000204602F0D7F82A466149204605F05AF8C9
:104A0000FCF776F85F4C0346A4F1300621464FF4DC
:104A10008052304602F02EFB5B4B2A4644F8303C75
:104A200000245A49304605F045F8594E594B346038
:104A3000B360B480B471032002F066FD2A463046AC
:104A4000554905F037F82146384602F06DFD4FF024
:104A5000FF31524801F008FF514800F006FB514871
:104A600000F0D6F8504800F0D3F8504E4921504895
:104A700000F006FA4A214F4800F002FA214630467B
:104A800003F0D6FF30464C4E2A464C4905F012F84A
:104A90002146304602F073FE3046494E2A464949C7
:104AA00005F008F8304600F041F92A4630464649FC
:104AB00005F000F82721454801F068FF1922444B12
:104AC000444883F86A24444A444F1A60444E454A95
:104AD000DC71A3F8404483F8684483F86D44C3F85C
:104AE000702483F874442A46314604814460076088
:104AF00004F0E0FF3C482A463146C0E900740481D6
:104B000004F0D8FF4FF47A733848394E8360394B3C
:104B1000394F03602A4639490482446004F0CAFFD1
:104B2000374C3146384603F065F93846354F2A464A
:104B3000214604F0BFFF3146384603F05BF93846A2
:104B4000314F2A46214604F0B5FF3146384603F07E
:104B500051F938462D4F2A46214604F0ABFF314625
:104B6000384603F047F92A4621463846BDE8F84062
:104B700004F0A0BF14050020A4060020B00200200D
:104B80005D6B08083C0C00204CE908085D0908082A
:104B9000F00200200000FFFFFF0908085405002074
:104BA000601C0020A1060020A2060020480600206C
:104BB000440500204A050020580700204F8A0808B5
:104BC0005C070020BD770808014D0808900600200A
:104BD00090070020D805002034E908081CE90808DF
:104BE0005F090808BCE90808F80600200406002050
:104BF000F1EA0808F4E80808380600206109080806
:104C0000617D0808E8060020401C002048070020BD
:104C1000704710B50C4604F0FDFE482104F086FDF7
:104C200004F0F8FE036821469B68984704F0F2FE02
:104C3000002104F096FD04F0EDFE012348211A4600
:104C400004F05BFD04F0E6FE03681B69984728B199
:104C500004F0E0FE03685B699847C0B210BD70B510
:104C600016460C46054604F0D5FE482104F05EFDCC
:104C700004F0D0FE036821469B68984704F0CAFE02
:104C8000036831469B68984704F0C4FE012104F094
:104C900068FD21462846BDE87040FFF7BABF0021F5
:104CA000FFF7B7BF01221146FFF7D9BF002201214C
:104CB000FFF7D5BF2DE9F0410446884617461E464A
:104CC000FFF7EDFF0128054617D12046FFF7EEFF5D
:104CD000424610212046FFF7C2FF3A4611212046E6
:104CE000FFF7BDFF324612212046FFF7B8FF2046EE
:104CF000FFF7D8FF2846BDE8F0810025FAE700005D
:104D000010B50446034B40F8143B02F057FD204613
:104D100010BD00BF9CE9080810B50446FFF7F0FF7E
:104D20002046242104F0CBFE204610BD38B50B4BA5
:104D30000025322203604FF4FA630446C0E90123E0
:104D4000C0E903552946143002F019FD4FF48033B1
:104D50002046C4E90655236238BD00BF9CE9080817
:104D600010B5044602F010FAE368C01A636898426E
:104D70001AD302F009FAE06004F1140002F071FDA8
:104D800010F004030BD094F82030C0F301108342DC
:104D90001FBFE36984F820000133E361012384F835
:104DA0002130A3690133A36102F0EEF92369C01A2F
:104DB000A368984214D902F0E7F9A36920610A2B8D
:104DC0000FDC012384F8223094F82030013B012BC2
:104DD0008CBF0023012384F823300023C4E9063369
:104DE00010BDE269B2EBA30FEBDD002384F82230A3
:104DF000F1E710B5044604F00DFE03682146BDE856
:104E000010409B68184708B504F004FE03685B690E
:104E10009847C0B208BD70B506460D46144604F06A
:104E2000F9FD314604F07EFC2846FFF7E2FF200A38
:104E3000FFF7DFFFE0B2FFF7DCFF04F0EBFDBDE8BA
:104E4000704004F092BC10B5044604F0E3FD214626
:104E500004F068FC0020FFF7CCFF04F0DBFD04F059
:104E600084FC04F0D7FD2146022204F058FCFFF731
:104E7000CAFF0446FFF7C7FF40EA042080B210BD16
:104E8000002201700821828041708270704708B54D
:104E900004F0C0FDBDE8084004F012BC81807047FA
:104EA000032910B5044622D80229828819D0032983
:104EB0001AD0012914BF42F4834242F4A34242F0C3
:104EC0000302012142F400422078FFF7A4FF60783A
:104ED00003F07AFD2078FFF7B6FFA378184180B27F
:104EE00010BD42F4C342EAE742F4E342E7E70020A0
:104EF000F6E700002DE9F0410E4688B0044615465D
:104F000068460223002203F0C9F80A230222314630
:104F100004A803F0C3F8684603F081F9A08304A84D
:104F200003F07DF9E083684603F079F9064604A8AA
:104F300003F07AF98046304604F020FF06464046EA
:104F40000F4604F02DFF00220D4B05F0ABF80B4689
:104F500002463946304604F0C5FD532D0CBF0023F0
:104F60006FF07F03C4E9020184F8243004A802F042
:104F7000F7FE684602F0F4FE08B0BDE8F08100BF1D
:104F800000004E402DE9F0410E4688B0044615461B
:104F900068460323002203F081F80A2303223146E6
:104FA00004A803F07BF8684603F039F9208404A8CC
:104FB00003F035F96084684603F031F9064604A829
:104FC00003F032F98046304604F0D8FE06464046EB
:104FD0000F4604F0E5FE00220C4B05F063F8024694
:104FE0000B463046394604F07DFD453D18BF01258E
:104FF000C4E9040184F8255004A802F0B1FE684613
:1050000002F0AEFE08B0BDE8F08100BF00004E40E7
:1050100010B50446084603F002F9E06210BD000036
:1050200010B50446084603F0FFF8024905F066FB98
:10503000206310BD0000204100F10801D1E900010A
:10504000704700F11001D1E90001704708B5006B0D
:1050500005F01AFD08BD90F92400704790F925006D
:1050600070470368C9B29B681847704708B504F0D9
:10507000D1FC152104F05AFB04F0CCFC0521FFF70C
:10508000F0FF04F0C7FC0321FFF7EBFF04F0C2FCC4
:10509000E821FFF7E6FF04F0BDFCFF21FFF7E1FF89
:1050A00004F0B8FC0021FFF7DCFF04F0B3FCBDE81E
:1050B000084004F05ABB08B504F0ACFC152104F01C
:1050C00035FB04F0A7FC0521FFF7CBFF04F0A2FCA1
:1050D0000321FFF7C6FF04F09DFCEE21FFF7C1FF9F
:1050E00004F098FC0021FFF7BCFF04F093FC0021C2
:1050F000FFF7B7FF04F08EFCBDE8084004F035BBB5
:1051000008B504F087FC152104F010FB04F082FCC4
:105110000521FFF7A6FF04F07DFC0321FFF7A1FFA7
:1051200004F078FCEE21FFF79CFF04F073FCFF21F4
:10513000FFF797FF04F06EFC0021FFF792FF04F0E9
:1051400069FCBDE8084004F010BB000008B521B1BF
:1051500004F01EF9134903F0C2F804F05BFC1521BA
:1051600004F0E4FA04F056FC0521FFF77AFF04F09E
:1051700051FC0321FFF775FF04F04CFCEC21FFF715
:1051800070FF04F047FCFF21FFF76BFF04F042FCC7
:105190000021FFF766FF04F03DFCBDE8084004F085
:1051A000E4BA00BFA4E9080838B5054642B9036867
:1051B0009B6898470446284603F085F8204438BD8C
:1051C000D2B203F0A0F8F5E710B50446283001F09C
:1051D000BFF928B104F50D70BDE8104001F0B8B971
:1051E00010BD411E00F10A030020420842EAC0102F
:1051F00011F8012F10448B4200F0FF00F5D17047E9
:105200002DE9F047064610F8013B202BFAD0002488
:105210006A4D8E60335DC3B12F2B16D05C2B02D14B
:105220000020BDE8F087A3F12200C0B21D2803D8FA
:1052300025FA00F0C007F3D403F0BF003C28EFD0FC
:10524000203B5E2BECD80134E4E7331918460746BF
:1052500010F8015B202DFAD02F2DF8D017604CB13B
:1052600013F8012D2E2A01D0202A01D1013CF6E7A6
:10527000FF2CD5DC20204C6001F10D0301F1180258
:1052800003F8010B9342FBD14FF0000816F80830E9
:105290002E2B01D0202B02D108F10108F6E7B8FA35
:1052A00088F0651E40096B1C02D0735D2E2B14D153
:1052B0004FF0000907274A46CA464FF0080EA0459E
:1052C00069DA16F80830202B03D02E2B07D1A84519
:1052D00012D0002008F10108F1E7013DE3E7222B9D
:1052E00008D07C2B06D0A3F12A0CBCF1050F0BD8FB
:1052F0002D2B13D0A8455CD10A2F4BD0A8460A27E6
:1053000008224FF0100EE5E7A3F13A0CBCF1050FAF
:10531000F0D9A3F15B0CBCF1020FEBD9A3F1210C86
:10532000BCF15D0FE6D8A845E6D0BA4230D8A3F16B
:10533000610CBCF1190F1AD8203B4EEA0909DBB207
:105340005FFA89F902F1010C5FFA8CFC0A44BCF1A6
:10535000060F537301D881F80CC06246BAE7A8451E
:1053600018DCA8460A2708224FF0100EB1E7A3F177
:10537000410CBCF1190F98BF4EEA0A0AE2E701207E
:105380000B7B087019447E234B7331238B7348E7E2
:105390000A2FE4D100204B7B202B3FF441AF0028A3
:1053A000EDD01AEA090F18BF4FF0020981F80090FA
:1053B00037E7BA42ECD85F230020C3E70101003190
:1053C0002DE9F84306460C4602257E2791F80C90FD
:1053D00001F10D086168A2686B189BB211449142FB
:1053E00006D012F8010B03EB431343409BB2F6E7E0
:1053F000B9F1030F28BF4FF0030909F10402D2B23B
:1054000003F00F01A018013A0929D2B294BF30313C
:105410003731914541734FEA1313F1D104EB09037E
:10542000002130465F7300F096FE0121304600F007
:1054300073FE014628B97078B0FA80F04009BDE8E3
:10544000F88303786BB1C37A1B07EED40B22404676
:1054500005F038FC0028E8D10135ADB2642DB9D192
:10546000EDE70120EBE700002DE9F04F89B0049350
:105470000B780D4613F0700F9046059003D1002075
:1054800009B0BDE8F08F059B1B78002BF7D153685E
:10549000284603931378990718BF039B4FF0000128
:1054A0001FBF03F10C070D23B7FBF3F701370CBF48
:1054B0000127FFB200F04FFE00239B461C461E460C
:1054C0009A4608F10D02029307926A690121284663
:1054D0000693C2F34F1900F01FFE069B00286CD103
:1054E0006B78002BCBD1049B03F04203422BC6D137
:1054F000029B002C08BF4B460293BC42C0F00381C4
:10550000BAF1000F40F01B81029B2846590100F0C0
:1055100022FE0028B3D0013F5FFA87FA56464FF0CB
:1055200000090F27002E00F021810021284600F0FD
:10553000F3FD04460028A2D0564518BFB346AA681A
:1055400008BF46F0400B92F8283043F0010382F880
:10555000283080F800B0C77280F80C9008F10D0078
:10556000FFF73FFE0D2200230BF01F0B0BF1FF3B5B
:1055700002FB0BF2607384F81A9084F81B90D8F841
:1055800008C00399914240F2E2801CF80210042BFB
:105590005FFA83FE03F1010000F2DF8004EB4303B6
:1055A000A3F801100D28034602F10102E9D1013EE2
:1055B000F6B2B7E74FF0010A87E70278E52A00D094
:1055C0007AB90299002C08BF4946BC4238BF013461
:1055D000029138BFE4B2002A85D0E52A04D1002622
:1055E00073E7BC4238BF00242E2AF8D0C17A0F29B5
:1055F0005DD13EBB12F040063FF467AF02F01F06DC
:10560000B346437B4FF00D0E0BF1FF320EFB02FE53
:10561000039A7245E3D94FF0000CA2EB0E020692FA
:10562000BCF1040F0CEB0E095FFA8CF214D800EBFE
:105630004C02B2F8012006998C451BD1002A18BFF4
:10564000002642E70BF1FF3B5FFA8BFB5A45C6D1C0
:10565000427B9A42D6D0C2E70A2A95BF0CF1FF32AC
:105660000CF1010200EB420200EB420294BFD2882F
:105670009288E0E7FF2AB2D8D2B2A2F141011929FB
:10568000D8F8081098BF203211F8091098BFD2B28C
:10569000A1F14109B9F1190F9CBF2031C9B2914262
:1056A0009DD10CF1010CBCF10D0FB9D10DE70A072A
:1056B00095D466B1BBF1010F02937FF4E0AEFFF722
:1056C00090FD029B98427FF4DAAEB2460EE00B22C8
:1056D0000799069305F0F6FA069B00287FF4F5AECD
:1056E00098F800A01AF0010A7FF464AF049B1B062F
:1056F0003FF5C5AE4A462946049B0598CDF800A063
:1057000000F06CFDBCE60021284600F005FD98B9CC
:105710006B78002B7FF4B3AE284600F0D5FB002851
:105720003FF4ADAEAB681B79012B3FF6E9AE103408
:10573000E4B2A742F0D8E3E60134E4B2DDE6414644
:105740002846FFF73DFE00287FF4DEAE97E614BF43
:105750004FF0FF31002189B219E7BEF10A0F94BF63
:1057600004EB430304EB400399801BE731462846D2
:105770006F6900F0D1FC044600283FF480AE20227F
:10578000314605F0D5FA434653F80D2F22605A688A
:1057900062601A8922819B7AA37298F8003003F024
:1057A000180323730F4B1B689BB104F10E0104F126
:1057B00010009847238AC7F34F1963822383E38934
:1057C000E382AA6892F8283043F0010382F8283077
:1057D00090E721232374282363740823A673E373BB
:1057E000E8E700BFC01C00200368DB6818470368B7
:1057F0005B69184710B5037904466BB10121407904
:1058000004F085F8FF212068FFF7F1FF20680368A6
:105810009B6898470023237110BD38B5057904466D
:1058200055B90068E17903685B6898472946607953
:1058300004F06DF80123237138BDF8B504460D4618
:10584000164601F0A1FC07462068FFF7CDFFFF28B0
:1058500020720CD101F098FCC31BB3F5967FF3D9ED
:1058600011232046A371FFF7C5FF0020F8BDFE28D5
:1058700001D00F23F5E720683246036829461B69EB
:105880009847207208B11C23EBE72068FFF7ACFFB4
:105890002068FFF7A9FF0120E8E770B506460C462F
:1058A00001F072FC05463068FFF79EFFFF2806D026
:1058B00001F06AFC431BA342F5D3002070BD012018
:1058C000FCE7F7B5037904460D4601920BB9FFF7E3
:1058D000A4FF4FF416712046FFF7DFFF206845F064
:1058E0004001FFF784FF032601AFB95D2068FFF791
:1058F0007EFF013EF9D2002D0CBF95218721206843
:10590000FFF775FF0C2D02D12068FFF76DFF002512
:105910002068FFF769FF0306207203D50135B5F54E
:10592000807FF5D103B0F0BDF8B51F46002342716A
:10593000437283710160044601F026FC054620682D
:10594000617903680A261B68984780212068E17105
:1059500003685B689847FF212068013EFFF747FF17
:1059600016F0FF06F7D1206803689B68984700226D
:1059700020461146FFF7A5FF01280CD001F004FCDA
:10598000401BB0F5FA6FF2D901232046A371FFF74F
:1059900031FF0020F8BD4FF4D57208212046FFF7F3
:1059A00090FF052816D101230026637200223721BB
:1059B0002046FFF786FF324629212046FFF781FF68
:1059C0000246F8B101F0E0FB401BB0F5FA6FEDD9EB
:1059D0000A23DAE704262068FFF706FF013E16F0E7
:1059E000FF062072F7D1AA2804D102234FF0804687
:1059F0006372DBE701F0C8FB401BB0F5FA6FCAD950
:105A00000223C2E7637A022B19D13A212046FFF71D
:105A100058FF08B10823B8E72068FFF7E5FE00F05B
:105A2000C000C02808BF0323206808BF6372FFF7C7
:105A3000DBFE2068FFF7D8FE2068FFF7D5FE204682
:105A4000FFF7D8FE0120E771A4E738B5437A154681
:105A5000032B18BF49020A4611210446FFF731FF04
:105A600030B10423A3712046FFF7C4FE00250BE0EC
:105A700029464FF400722046FFF7DFFE0546002856
:105A8000F1D02046FFF7B6FE284638BD10B5437A60
:105A90000A46032B18BF4A0212210446FFF711FFE2
:105AA00030B105232046A371FFF7A4FE002010BDEE
:105AB0000120FCE710B500220C210446FFF701FF8E
:105AC00030B103232046A371FFF794FE002010BDE0
:105AD0002046FFF78FFE0120F9E7F8B50446164689
