:020000040808EA
:100000000000080818080908000006000A00050199
:080010000402DB070000000000
:0400180080DD080877
:1000200008B5024B1B685B6C019308BD2C000608E9
:1000300008B5024B1B689B6D019308BD2C00060898
:1000400008B5024B1B685B6E019308BD2C000608C7
:1000500009480A4908B5884205D0094A824202D0B7
:10006000121A0BF05BFF0748074A0021121A0BF027
:1000700063FF064808BD00BF0000002044050908D2
:10008000AC020020B002002008120020081200205C
:1000900070B509F0D7FE0025054E064CA41BA40838
:1000A000A54200D170BD56F8043B98470135F7E7EB
:1000B000140509083C05090804F012B908B505F053
:1000C0008FFDBDE8084009F07FBE08F065BC08F070
:1000D00063BC08F069BC0078B0FA80F04009704752
:1000E00001230370704748B1836C3BB1C36C2BB1E3
:1000F000006DB0FA80F04009404270474FF0FF3089
:10010000704773B5024608460C46FFF7ECFF0546FC
:1001100040BB12F0800F14BF00231023CA789A420C
:1001200020D0CB708E6C0123F32160780DF1070293
:10013000B04784F8540098B99DF80720E37822F07E
:10014000100203F0100313438DF8073073210123CD
:10015000E66C60780DF10702B04784F8540008B1EE
:100160006FF00105284602B070BD03788B4284BF52
:10017000017013784FF0000084BF43F00203137046
:1001800070472DE9F84306461846884691461D46B5
:10019000FFF7A9FF0446A8B9AB783BB9294630461A
:1001A000FFF7AFFF044608B946F080064B464246CB
:1001B0003146AF6C6878B847002818BF6FF001046B
:1001C00085F854002046BDE8F8832DE9F0471C4629
:1001D0000F4600218AB00646904601A824220091CD
:1001E0000BF0AAFE2046FFF77EFFE8B908F1FF33C7
:1001F000122B33D8EA4681461FFA88F81FFA89F392
:10020000434514D380B94FEA4802013A93B2E56CF2
:100210009DF8001060780DF10102A847002884F8CD
:10022000540018BF6FF001000AB0BDE8F087A37852
:1002300016F809503BB928462146FFF762FF16F829
:10024000095005F07F0517F809308AF800508AF840
:10025000013009F101090AF1020ACFE76FF003004A
:10026000E2E7742337B504468DF80730FFF73BFF0C
:10027000A0BB05462346012274200DF10601FFF7BD
:1002800080FFA0B99DF8063013F0030511D023F0CC
:1002900003038DF80630012223460DF106010DF10E
:1002A0000700FFF792FF0A20236D9847E2E7002D31
:1002B000E0D194F844208AB19DF8063002F00302A0
:1002C00023F0030313438DF8063038B92346012287
:1002D0000DF106010DF10700FFF777FF03B030BD08
:1002E0000023F0B5064689B008460C468DF8073065
:1002F0000493ADF814300693ADF81C30FFF7F3FE0D
:10030000002840F0FE8016F0080391F8447005D1F3
:1003100081F844302046FFF7A4FF07E0012FADF835
:100320000C0000F0F08081F84400012016F0100568
:1003300020D0072104F1460204F13B00FFF715FF2E
:1003400030B92346012275200DF10701FFF719FF8F
:1003500094F83B309DF807209B0022F01C0203F02C
:100360001C031343752201258DF807308DF81020EA
:100370008DF81830B30622D5082104F1460204F1A5
:100380003D00FFF7F2FE30B92346012270200DF147
:100390000701FFF7F6FE70219DF8073094F83D2025
:1003A00023F0080302F00802134308AA2A44013587
:1003B0008DF8073002F8101C02F8083CEDB2B107C6
:1003C00033D0052104F1460204F13900FFF7CDFED8
:1003D00030B92346012274200DF10701FFF7D1FE49
:1003E000F20709D59DF8073094F8392003F01F0370
:1003F00043EA42138DF80730B3070BD594F83A302F
:100400009DF807209B0003F01C0322F01C021343FD
:100410008DF80730742208AB2B4403F8102C9DF89C
:100420000720013503F8082CEDB2710722D505210C
:1004300004F1460204F13800FFF797FE30B9234675
:10044000012272200DF10701FFF79BFE72219DF83A
:10045000073094F8382023F0070302F00702134313
:1004600008AA2A4401358DF8073002F8101C02F85A
:10047000083CEDB216F0C00F3AD0012104F146025B
:1004800004F13E00FFF771FE60B90A2104F13C005F
:10049000FFF76BFE30B92346012271200DF10701F1
:1004A000FFF76FFE72060BD594F83E309DF80720DB
:1004B0001B0103F0100322F0100213438DF80730E4
:1004C00033060AD59DF8073094F83C2023F00F033B
:1004D00002F00F0213438DF80730712208AB2B4452
:1004E00003F8102C9DF80720013503F8082CEDB215
:1004F00028B923462A4606A904A8FFF766FE84F811
:10050000447009B0F0BDB1F84020B1F91230B2F535
:10051000C87F28BF4FF4C872C82A38BFC82203F565
:10052000163303F299135A431423B2FBF3F20A234E
:1005300002F54812B2FBF3F291F9113091F904106F
:1005400003F544735A4394F914304B434FF47A71D2
:1005500093FBF1F31B0203EB620394F8342094F94C
:1005600035100432B3FBF2F383224A4302F58032A2
:10057000B3FBF2F32222FA3B53436422323393FB60
:10058000F2F38DF80C3046F25A43ADF80830B4F867
:100590004230B3F57C6F1AD23F2BC2B200F101009A
:1005A00013D803EB8213DBB200258DF80D30022245
:1005B000234684F83C5003A902A8FFF706FE84F8FE
:1005C000445000287FF4B2AEA4E69B08E4E7FF2382
:1005D000EAE7000013B5184B024618689B880090A4
:1005E000ADF8043091F8393002A891F83A4003444C
:1005F00013F8080C02AB1C4414F8083C02AC184475
:1006000091F83830234413F8083C40F2AB740344AB
:1006100041F2B92004FB03034FF47A70B3FBF0F30B
:1006200001339BB2138091F83E0018B1B1F842102B
:100630000B44138002B010BD94DD08082DE9F04F83
:10064000804689B008460C46FFF74DFD0546002858
:1006500040F058810690CDE90400CDF81B00084613
:10066000FFF741FD0A270546002D40F05281234641
:100670000F2204A91D20FFF784FD9DF810B09DF9FD
:100680001EA09DF818200BF00F030AF020012BF09C
:100690007F0B01924BEA01019DF819200AF0100A24
:1006A00041EA0A0149B288F8013002929DF81130FE
:1006B0009DF81D200029054688F8023003929DF818
:1006C00012909DF813E09DF814309DF815C09DF828
:1006D00016609DF817009DF81E2088F8001080F223
:1006E0001581000940EA061646EA0C3CE68A1B0919
:1006F0007600C6EBDC0C60464FEA5C06C11746EAA2
:10070000C17649107143A6FB06AB94F91A000BEBB6
:10071000410B4FEA1A36010146EA0B564FEA2B37D6
:100720004FEAE17B06FB0BF0A6FB01ABB4F91860C6
:1007300001FB070786FB0C01BB44C60A4FEA9A304F
:1007400046EA415640EA8B403118216301EB8101B2
:1007500080310912A8F80410216B43EA0E1E4910DB
:10076000A1F57A4140F635438810404394F926704C
:10077000C6127743B4F9246040134E43760006EB6B
:10078000A706B4F91E704EEA09394F4394F92010B8
:10079000C9F5801949014143C91001EB6701A08BDC
:1007A000891401F500414843B4F9221002F00F0CFE
:1007B000090401EBA606A9EB26367343C113B3FB6C
:1007C000F1F141F39C004043B4F92A3040135843FF
:1007D000B4F9283041F35D077B4341F3D7165B132F
:1007E00003EB203306FB06F0464394F82C009209F5
:1007F000464394F9270003EB664303EBC0136420E0
:100800001B1103EB4103C8F80830236B94F90E1059
:1008100003EB830380331B12594391FBF0F194F9EE
:100820000D6059435E43891196FBF0F691FBF0F1A0
:100830003144668901F5804171438E12DDE9017111
:1008400041EA07212789A1EB071194F90C705F4356
:1008500097FBF0F7A1EB6701714394F91060002753
:10086000734393FBF0F3E07B40F23C5603EBC01381
:10087000881340431B118012434301EB6303991219
:100880004FF47A734B432B491B1323EAE3738B42D8
:10089000D4BFC8F80C30C8F80C10052194F93630D4
:1008A000C3FB0167244B53F82C30A6FB030103FB69
:1008B0000711060C4FEA214E46EA01460021039B30
:1008C00042EA8302D30313F17F4341F1FF319A19C6
:1008D00041EB0E03194951F82C10A1FB066701FBEF
:1008E0000E77700A560846EAC37640EAC7504FEAC8
:1008F000672C591080194CEB01010BF0F5F9C8F881
:1009000010006DB1284609B0BDE8F08F0A20236DB4
:100910009847013F17F0FF077FF4A6AE0225F1E7E5
:1009200098F90030002BB6BF012384F8455084F8B5
:100930004530E7E7A08601000000002040000020CD
:1009400070470246037C13F008001EBF506AD36A4A
:10095000181A0028B8BF6FF0004070477047704702
:1009600010B504462C210AF0B4F9204610BD10B58C
:10097000044634210AF0ADF9204610BD083006F0D7
:1009800013BF103006F010BF07B501228DF8071015
:1009900010300DF1070106F007FF03B05DF804FB0E
:1009A000103006F077BE103006F0A3BD07B5012267
:1009B0000DF10701103006F0EDFC012814BF4FF0D7
:1009C000FF309DF8070003B05DF804FB00F26440BF
:1009D00006F04BBB00F2644006F07FBA00F26440C0
:1009E00006F0BDBA00F2644006F02FBA10B5044616
:1009F000006808B107F0D8FF204610BD10B50C46BE
:100A0000042207F04DFD204610BD002313B5ADF8BC
:100A1000063008F00DFD982804460BD80AF0B2F80D
:100A2000204602220DF1060107F032FDBDF8060056
:100A300002B010BD4FF0FF30FAE710B50C460422AB
:100A400007F026FD204610BD07B501228DF80710DE
:100A500008300DF1070106F0A7FE03B05DF804FBB6
:100A60000EB403B503AB53F8042B0021019308F037
:100A70004DFE02B05DF804EB03B070470023406800
:100A80001A46194607F020BF10B5044614210AF093
:100A900020F9204610BD000008B507F0E9FC034B23
:100AA0001860BDE8084007F047BF00BFC411002030
:100AB0000EB410B50023016820208DB00FAA52F8A3
:100AC000044BCDE90403CDE9004203921E2004AAA1
:100AD00007F06EFE0DB0BDE8104003B07047000097
:100AE00010B50D4C2378BFF35B8FDB0711D4204684
:100AF000FFF7F1FA68B10321084A094B094809F0E8
:100B00004FFE2046FFF7ECFA074A084905480AF06D
:100B1000DBF8044810BD00BF0803002010030020CC
:100B20009403002024050020B00200204109080899
:100B300010B5FFF7D5FF074B044653B109F04DFE42
:100B400038B1236820461B699847002801DDAFF3C0
:100B5000008010BD0000000010B50D4C2378BFF3DD
:100B60005B8FDB0711D42046FFF7B5FA68B104218B
:100B7000084A094B094809F013FE2046FFF7B0FA6E
:100B8000074A084905480AF09FF8044810BD00BF0D
:100B90000C030020180400209C04002038050020CD
:100BA000B00200204109080810B5FFF7D5FF074B38
:100BB000044653B109F011FE38B1236820461B6981
:100BC0009847002801DDAFF3008010BD0000000051
:100BD00038B5044600F2644006F0A6F808B90020D3
:100BE00038BD04F58865284606F08AFD01212046B7
:100BF00006F0B3FF014668B12146284606F0B1FB76
:100C00000028ECD094F8403413F0700FE7D0044B78
:100C10001D60E5E7204606F0A0FF0028ECD1DEE7E6
:100C2000BC0C002038B50C4605460AF025F86B21AF
:100C300009F086FE0AF020F8036829469B68984769
:100C40000AF01AF8036821469B6898470AF014F8DE
:100C5000BDE83840012109F08EBE000037B509F02B
:100C600091FF40F213636425002401A90020019341
:100C7000FFF7C4FE09F086FF01A908200195FFF7E0
:100C8000BDFE09F07FFF01A910200195FFF7B6FE18
:100C900009F078FF01A998200195FFF7AFFE09F050
:100CA00071FF01A918200195FFF7A8FE09F06AFF5E
:100CB00001A920200195FFF7A1FE09F063FF01A91A
:100CC00028200195FFF79AFE09F05CFF01A930206A
:100CD0000195FFF793FE09F055FF01A93820019512
:100CE000FFF78CFE09F04EFF01A940200195FFF7A8
:100CF00085FE09F047FF01A904200194FFF77EFE5D
:100D000009F040FF01A90C200194FFF777FE09F0DC
:100D100039FF01A994200194FFF770FE09F032FF1A
:100D200001A914200194FFF769FE09F02BFF01A926
:100D30001C200194FFF762FE09F024FF01A9242082
:100D40000194FFF75BFE09F01DFF01A92C2001941F
:100D5000FFF754FE09F016FF01A934200194FFF7B4
:100D60004DFE09F00FFF01A93C200194FFF746FE5C
:100D700009F008FF01A944200194FFF73FFE09F0A4
:100D800001FF01A948200194FFF738FE09F0FAFE9F
:100D900001A958200194FFF731FE09F0F3FE414903
:100DA0005C20FFF72BFE09F0EDFE4FF47A7301A9EA
:100DB0004C200193FFF722FE09F0E4FE42F210738B
:100DC00001A950200193FFF719FE09F0DBFE6FF037
:100DD000060301A954200193FFF710FE324B186857
:100DE0000AF042FD08F064FD09F0CCFE01A9602084
:100DF0000194FFF703FE09F0C5FE2846012501A96D
:100E00000194FFF7FBFD09F0BDFE01A968200195E3
:100E1000FFF7F4FD09F0B6FE01A96C200194FFF77D
:100E2000EDFD09F0AFFE01A970200194FFF7E6FD8A
:100E300009F0A8FE01A974200195FFF7DFFD09F074
:100E4000A1FE01A978200195FFF7D8FD09F09AFECF
:100E500001A97C200194FFF7D1FD09F093FE01A9BF
:100E600080200195FFF7CAFD09F08CFE01A98420BE
:100E70000194FFF7C3FD09F085FE01A988200194C4
:100E8000FFF7BCFD09F07EFE01A98C200194FFF75D
:100E9000B5FD09F077FE01A990200194FFF7AEFDA2
:100EA00003B030BD700C00205C0C00202DE9F3472E
:100EB000C64C09F067FE21460020FFF7BEFD2368FF
:100EC000013304D140F213632360FFF7C7FE09F03A
:100ED00059FE01A90820FFF7B0FD01980AF0C4FCF3
:100EE000BB490AF0C9FDDFF87493DFF87483C9F8D1
:100EF000000009F047FE01A91020FFF79EFD0198B0
:100F00000AF0B2FCB2490AF0B7FDC8F8000009F0D7
:100F100039FE01A99820FFF790FD01980AF0A4FC82
:100F2000AB490AF0A9FDAB4FAB4E386009F02AFE81
:100F300001A91820FFF781FD01980AF095FCA4494A
:100F40000AF09AFD306009F01DFE01A92020FFF78C
:100F500074FD01980AF088FC9D490AF08DFD9F4DB3
:100F60009F4C286009F00EFE01A92820FFF765FDBF
:100F700001980AF079FC96490AF07EFD206009F09C
:100F800001FE01A93020FFF758FD01980AF06CFC22
:100F90008F490AF071FD934BDFF8C8A2186009F081
:100FA000F1FD01A93820FFF748FD01980AF05CFC2B
:100FB00087490AF061FD8C4B186009F0E3FD01A937
:100FC0004020FFF73AFD01980AF04EFC80490AF0F4
:100FD00053FD864B186009F0D5FD85490420FFF7C5
:100FE0002CFD09F0CFFD83490C20FFF726FD09F009
:100FF000C9FD81499420FFF720FD09F0C3FD7F4919
:101000001420FFF71AFD09F0BDFD7D491C20FFF7F4
:1010100014FD09F0B7FD7B492420FFF70EFD09F010
:10102000B1FD79492C20FFF708FD09F0ABFD7749A8
:101030003420FFF702FD09F0A5FD75493C20FFF7BC
:10104000FCFC09F09FFD73494420FFF7F6FC09F012
:1010500099FD71494820FFF7F0FC09F093FD6F49B5
:101060005820FFF7EAFC09F08DFD6D495C20FFF781
:10107000E4FC09F087FD6B494C20FFF7DEFC09F02A
:1010800081FD69495020FFF7D8FC09F07BFD01A9DB
:101090005420FFF7D2FC01980AF0E6FB08F008FCA8
:1010A00009F070FD61496020FFF7C7FC09F06AFD97
:1010B0005F496420FFF7C1FC09F064FD5D496820C9
:1010C000FFF7BBFC09F05EFD5B496C20FFF7B5FC48
:1010D00009F058FD59497020FFF7AFFC09F052FDA7
:1010E00057497420FFF7A9FC09F04CFD55497820B9
:1010F000FFF7A3FC09F046FD53497C20FFF79DFC58
:1011000009F040FD51498020FFF797FC09F03AFDB6
:101110004F498420FFF791FC09F034FD4D498820A8
:10112000FFF78BFC09F02EFD51468C20FFF785FC64
:1011300009F028FD90204849FFF77FFCDAF80030DD
:1011400013B1002008F0B4FB41F287313C4AD9F8D2
:1011500000001368013B8B4288BF01234FF0000160
:1011600088BF13600AF068FD18B14FF07E53C9F8CC
:1011700000300021D8F800000AF05EFD18B14FF0F1
:101180007E53C8F80030002138680AF055FD10B1D0
:101190004FF07E533B60002130680AF04DFD10B1E6
:1011A0004FF07E533360002128680AF045FD10B1EE
:1011B0004FF07E532B60002120680AF03DFD10B1F6
:1011C0004FF07E53236002B0BDE8F087800000201E
:1011D0000000C842CC020020EC020020F4020020F3
:1011E000E4020020600C002098070020A0070020E7
:1011F000BC020020D4020020D8020020F00200200F
:10120000F8020020E8020020640C00209C07002067
:10121000A4070020280C0020E80500205807002023
:10122000700C0020980000209C000020680C00201A
:10123000500700204C070020540700205C070020C6
:1012400048070020600500204C050020B40600205F
:10125000D00200206C060020DC050020B80200202F
:10126000C8020020240C002010B509F09BF9036887
:101270001B69984790B9FFF76FFC03681B69984793
:101280000028F2DDFFF768FC03685B6998470446B5
:1012900009F088F9E1B208F01DF9E6E710BD000099
:1012A0002DE9F34106460D4600240F4F01F1FF38AA
:1012B000AC4212D03946325D01A807F085FB09F037
:1012C00071F901A908F002F9A04504D009F06AF902
:1012D000202108F0FFF80134EAE709F063F908F08B
:1012E000FCF802B0BDE8F0819ADD0808F8B50446C4
:1012F0000D4606460F18BE4207D0FFF72DFC0368C7
:1013000016F8011B9B689847F5E729462046BDE87B
:10131000F840FFF7C5BF00001FB5074A01AB52F800
:101320000E0F5168128903C30A2101A81A80FFF722
:10133000DDFF05B05DF804FB38FF08081FB5074A5C
:1013400001AB52F8180F5168128903C30A2101A892
:101350001A80FFF7CBFF05B05DF804FB38FF0808E3
:1013600038B52F4B1D682F4B1B680BB32E4B58897C
:101370000AF076FA2D490AF07FFB2D490AF0C8FAE7
:101380002C490AF0BBF9044625B109F00BF92A49AA
:1013900008F0AFF8294B204619680AF0B9FA04465C
:1013A000274B18680AF060FA21460AF0A9F938BDFF
:1013B000244B1B6813B325B109F0F4F8224908F057
:1013C00098F80B2009F0C6FB0AF04EFA09F0F2FD7E
:1013D0000FA3D3E9002309F045FE0AF03BF94FF0D3
:1013E0007C510AF08BF909F0E5FD0BA3D3E900234A
:1013F00009F062FF0AF02EF90446CBE725B109F0A7
:10140000D1F8124908F075F8114B1C68C2E700BF0B
:101410002D431CEBE2364A3F7B14AE47E17A843F12
:10142000E8050020B4060020A806002000F87F464A
:1014300000002543000020429FDD0808600C0020CA
:10144000640C00204C070020C0DD0808DFDD080820
:101450006405002038B5194B1D68194B1B682BB368
:10146000184B18890AF0FCF917490AF005FB1749CF
:101470000AF04EFA044625B109F094F8144908F030
:1014800038F8144B204619680AF042FA0446124B09
:1014900018680AF0E9F921460AF032F90B490446C6
:1014A0000AF0F2FB00B1094C204638BD0B4B9C689A
:1014B000002DE6D009F076F80949E0E7E8050020BC
:1014C000B4060020A806002000F87F460000C842AD
:1014D0000BDE0808A0070020A407002064050020F8
:1014E00029DE0808000000002DE9F0478E4F88B083
:1014F00068468E4907F026FE3A6822B109F052F894
:101500008B4907F0F6FF8B4D0021288809F009FB75
:1015100009F08AFB01224A2109F00BFA48BB09F0C5
:1015200041F8854907F0E5FF00240021834804F0D5
:1015300064FD30B93B6823B109F034F8804907F005
:10154000D8FF09F071FB01224A2109F0F2F90028C5
:1015500039D168467B4907F047FE002401212888DD
:1015600009F0DFFA684607F0A3FD204608B0BDE8A1
:10157000F0870321744804F087FE0AF075F9734B75
:1015800019680AF0C5F9724904460AF075FA064668
:1015900009F010FD00226F4B09F0ACFB21F000496F
:1015A000002249466C4B09F0EDFF0028BDD008F041
:1015B000F9FF6A4907F08AFF08F0F4FF022231467A
:1015C00008F096F8B1E700215C4804F016FD002809
:1015D000BFD020465E490AF04FFA09F0EBFC00222A
:1015E0005C4B09F087FB21F00047002239465A4B3B
:1015F00009F0C8FF04460028ABD10A27804681467F
:10160000514E0021304604F03FFE01218144304616
:1016100004F03AFE02218044304604F035FE0321F6
:10162000304604F031FE013F0444EAD14FF00A0A8B
:10163000464BB4FBFAF01F680AF016F939460AF077
:1016400067F90446B9FBFAF00AF00EF939460AF0D8
:101650005FF9014620460AF051F841490AF00CFAB8
:101660000646B8FBFAF00AF0FFF839460AF050F9DE
:10167000014620460AF042F83A490AF0FDF90446CC
:10168000FFF76EFE38490AF0EBFAD0B1214630463A
:101690000AF034F809F08EFC1FA3D3E9002309F007
:1016A0000BFE09F0D7FF02220146044604A807F00A
:1016B000E3FD684604A907F08FFD04A807F0F8FCD5
:1016C0004CE7FFF74DFE29490AF0CAFA20B121463E
:1016D00030460AF015F8DDE7FFF742FE23490AF02D
:1016E000D3FAA8B1204609F065FC0DA3D3E9002385
:1016F00009F0B8FC80463046894609F05BFC02469A
:101700000B464046494609F0F7FA09F0A3FFC1E746
:101710000020BFE7AFF30080B6F3FDD478E9D63FF1
:1017200052B81E85EB51E83FE8050020B9000908D2
:1017300043DE0808C400002059DE0808BA0600206D
:101740008EDE0808B5DE080856050020840000205B
:1017500000007A440000F43F0000E03F7EDE08080D
:101760000000F0C2000016C3000070410000C84134
:1017700030B51E49044685B002230C22A1F58E60C7
:10178000FFF726FA60B308F00DFF194907F0B1FE24
:10179000184A1949194D462312680968184805F076
:1017A000B6FF2B689BB91749174807F0A2FE08F04F
:1017B000B4F9C3170246684608F0ACF8009912481D
:1017C00007F097FE684607F073FC01232B60216841
:1017D0000D4807F08EFE0A4805F092FF05B030BDB7
:1017E00008F0E0FE094907F084FEF7E71C0C002032
:1017F000B9DE080800070020BC0C00203C070020D0
:1018000018070020D3DE080810070020EADE0808C9
:101810002DE9F0478CB06846B94907F093FCB94F01
:10182000DFF8DC82B84EFFF797F90D22014608A8D1
:1018300007F0C8FF08A9684607F0CEFC08A807F023
:1018400037FC07230422694604A807F0CFFD394678
:1018500004A807F095FD054668BB4146684607F0B9
:101860008FFD044650B308F09DFE314607F041FE5F
:10187000314608A807F066FC08A8FFF779FF08A81A
:1018800007F016FC012404A807F012FC5DB14FF02C
:1018900000089E4904A807F055FC4746DFF88892E7
:1018A0009B4E9C4D32E0002CBDD0684607F000FCFA
:1018B0000CB0BDE8F08700240125E4E70546E2E727
:1018C00004F1010A5146684607F075FD2C281AD02C
:1018D00004F10B035246694608A807F087FD08A9E2
:1018E00004A807F079FC08A807F0E2FB8A4B1B6804
:1018F0004BB108F057FE894907F0E8FD08F052FEA9
:10190000049907F0F6FD013708F10108029B1FFA60
:1019100088F4A34240F2F0802146684607F04BFD70
:101920002C28F1D1072F00F2E18001A353F827F012
:10193000C118080851190808ED1A0808C319080841
:10194000ED1A0808ED1A08082D1A08086B1A08087D
:1019500004F1010A5146684607F02DFD2C28D2D02B
:1019600004F10A035246694608A807F03FFD08A99A
:1019700004A807F031FC08A807F09AFB664B1B6827
:101980004BB108F00FFE664907F0A0FD08F00AFE13
:10199000049907F09BFD04A908A807F012FC04F1C4
:1019A0000C01684607F007FD08A90246304604F01E
:1019B00095FC08A807F07CFB2B8823F008032B80FC
:1019C000A1E704F1010A5146684607F0F4FC2C280F
:1019D00099D004F10B035246694608A807F006FDAA
:1019E00008A904A807F0F8FB08A807F061FB4A4B18
:1019F0001B684BB108F0D6FD4A4907F067FD08F0B7
:101A0000D1FD049907F062FD04A908A807F0D9FBED
:101A100004F10D01684607F0CEFC08A902463046E5
:101A200004F0A4FC08A807F043FB6CE704F1010AEA
:101A30005146684607F0BFFC2C283FF464AF52467D
:101A4000E31C694608A807F0D1FC08A904A807F020
:101A5000C3FB08A807F02CFB04A908A807F0B1FBFA
:101A6000304608A904F0C8FCDCE704F1010A51463D
:101A7000684607F0A0FC2C283FF445AF5246E31C13
:101A8000694608A807F0B2FC08A904A807F0A4FB5F
:101A900008A807F00DFB04A908A807F092FB08A905
:101AA000304604F0B1FC08A807F002FB2B88304652
:101AB00023F00C032B8004F0BDFC012803DC2B88F1
:101AC00043F00C037BE7304604F0B4FC042803DC4D
:101AD0002B8843F0080372E7304604F0ABFC132870
:101AE0003FF711AF2B8843F0040368E708F05AFD75
:101AF0004946FEF7B5FF06E704A807F0D9FAD4E691
:101B000006DF08080BDF08080FDF0808B90009081E
:101B100070060020480C0020E805002021DF08089E
:101B200032DF080844DF080857DF08082DE9F047CE
:101B300090B0B649684607F005FBB54904A807F020
:101B400001FBB44DB14CFFF707F80D2201460CA87C
:101B500007F038FE0CA9684607F03EFB0CA807F01A
:101B6000A7FA0723042269460CA807F03FFC0CA93A
:101B700004A807F031FB0CA807F09AFA294604A83C
:101B800007F0FEFB002840F036812146684607F04A
:101B9000F7FB0028D7D008F005FD9F4907F0A9FC06
:101BA0009D490CA807F0CEFA0CA8FFF7E1FD0CA8A0
:101BB00007F07EFA04A807F07BFA684607F078FA87
:101BC00010B0BDE8F08704F1010A5146684607F0FD
:101BD000F2FB2C2800F08A8004F10B035246694680
:101BE0000CA807F003FC0CA908A807F0F5FA0CA84C
:101BF00007F05EFA894B1B68002B77D008F0D2FC07
:101C0000874907F063FC08F0CDFC089907F071FCE8
:101C10006CE004F1010A5146684607F0CCFB2C2821
:101C200064D004F10A03524669460CA807F0DEFBB3
:101C30000CA908A807F0D0FA0CA807F039FA774BDE
:101C40001B684BB108F0AEFC764907F03FFC08F08A
:101C5000A9FC089907F03AFC08A90CA807F0B1FA0A
:101C600004F10C01684607F0A6FB0CA902463046B9
:101C700004F034FB0CA807F01BFA2B8823F00803B0
:101C80002B8033E004F1010A5146684607F093FBCC
:101C90002C282BD004F10B03524669460CA807F000
:101CA000A5FB0CA908A807F097FA0CA807F000FA02
:101CB0005A4B1B684BB108F075FC5B4907F006FCFA
:101CC00008F070FC089907F001FC08A90CA807F0BF
:101CD00078FA04F10D01684607F06DFB0CA9024685
:101CE000304604F043FB0CA807F0E2F908F10108C4
:101CF0000137029BBCB2A3427BD92146684607F05C
:101D00005AFB2C28F4D108F1FF33062B6DD801A221
:101D100052F823F0131C0808EB1D0808851C08085E
:101D2000EB1D0808311D0808C71B08086D1D0808B1
:101D300004F1010A5146684607F03DFB2C28D5D036
:101D40005246E31C69460CA807F050FB0CA908A8F2
:101D500007F042FA0CA807F0ABF908A90CA807F0A5
:101D600030FA30460CA904F047FBBCE704F1010A45
:101D70005146684607F01FFB2C28B7D05246E31C9B
:101D800069460CA807F032FB0CA908A807F024FA52
:101D90000CA807F08DF908A90CA807F012FA0CA9F5
:101DA000304604F031FB0CA807F082F92B8830464E
:101DB00023F00C032B8004F03DFB012803DC2B886F
:101DC00043F00C035CE7304604F034FB042803DCEA
:101DD0002B8843F0080353E7304604F02BFB13280D
:101DE00084DC2B8843F004034AE708F0DBFB494618
:101DF0000CE708A8DCE60027054908A807F0A2F9C7
:101E0000B846DFF83090094E094D72E706DF080842
:101E1000B900090885DF080873DF0808E805002015
:101E200021DF080832DF080844DF080870060020B8
:101E3000480C002089DF08082DE9F04F8BB0AC4931
:101E400002A807F07FF9AB4B1A689A4622B108F056
:101E5000A9FBA94907F04DFBA84C0021208808F0F8
:101E600060FE08F0E1FE0122492108F062FD0194C4
:101E70000546002866D1DAF800407CB108F092FBF4
:101E80009F4907F036FB9E4906A807F05BF906A8B4
:101E9000FFF76EFC06A807F00BF92C4600219948C5
:101EA00004F0ABF888B9DAF8003073B108F07AFBC7
:101EB000954907F01EFB954906A807F043F906A8C7
:101EC000FFF756FC06A807F0F3F808F0ADFE012274
:101ED000492108F02EFD002869D100258C4902A86F
:101EE00007F082F94FF000082E462F46019B012192
:101EF000188808F016FEDAF80030E3B108F052FB5B
:101F0000844907F0E3FA08F04DFB3A468249FEF7B0
:101F1000A7FD08F047FB32468049FEF7A1FD08F017
:101F200041FB2A467E49FEF79BFD08F03BFB22461B
:101F30007C49FEF795FD02A807F0BAF840460BB0C1
:101F4000BDE8F08F0321784804F09EF9044609F0BB
:101F50008BFC764B196809F0DBFC754909F08CFDA8
:101F600009F028F80022734B06460F4608F0C2FE1F
:101F700021F00049002249466F4B09F003FB00287D
:101F80008CD0DAF80030002B88D008F00BFB3246FA
:101F90003B466A49FEF764FD694906A807F0D2F896
:101FA00006A8FFF7E5FB06A807F082F876E7002110
:101FB000544804F022F800288FD000244FF00A087B
:101FC000A14626462746584D0021284604F05CF9D4
:101FD00001210744284604F057F902210644284607
:101FE00004F052F903218144284604F04DF908F128
:101FF000FF3818F0FF080444E6D10A20B4FBF0F4DF
:102000004A4BB9FBF0F5D3F80090B7FBF0F7B6FBFD
:10201000F0F6204609F028FC494609F079FC804694
:10202000384609F021FC494609F072FC0146404659
:1020300009F064FB434909F01FFD8346304609F06F
:1020400013FC494609F064FC0146404609F056FB82
:102050003D4909F011FD8046FFF782F93B4909F03F
:10206000FFFDD0B14146584609F048FB08F0A2FFF9
:102070001BA3D3E9002309F01FF909F0EBFA0222B0
:102080000146804606A807F0F7F806A902A807F05F
:10209000A3F806A807F00CF828E7FFF761F92C4928
:1020A00009F0DEFD20B14146584609F029FBDDE785
:1020B000404608F07FFF0CA3D3E9002308F0D2FFCD
:1020C00080465846894608F075FF02460B46404652
:1020D000494608F011FE09F0BDFAC7E7AFF30080EA
:1020E000B6F3FDD478E9D63F52B81E85EB51E83FF0
:1020F000B9000908E8050020B1DF0808C000002089
:10210000C5DF0808B906002015E0080839E008080E
:10211000B5DE08084CE0080861E008086EE0080831
:102120007BE0080889E008085005002084000020B2
:1021300000007A440000F43F0000E03FEADF0808B6
:10214000FCDF08080000F0C2000016C30000704168
:102150000000C84110B590B01D4908A806F0F2FF74
:102160001C4904A807F02DF804A908A807F0E8F80E
:10217000194907F0F1F8044618490CA807F021F8AE
:102180000CA9204607F0DCF8154907F0E5F80146F0
:10219000684607F016F80CA806F08AFF04A806F0B7
:1021A00087FF08A806F084FF08F0FCF90D4907F046
:1021B000A0F908F015FB009907F09BF908F0F2F977
:1021C000094907F096F9684606F072FF10B010BD95
:1021D00099E00808380C00209CE0080860070020FF
:1021E000F8E008089EE00808C2E0080810B52C4C8A
:1021F0000121208808F095FCFA2007F0EFFC00216F
:10220000208808F08EFCFA2007F0E8FC01212088E5
:1022100008F087FCFA2007F0E1FC0021208808F094
:1022200080FCFA2007F0DAFC0121208808F079FC14
:10223000FA2007F0D3FC0021208808F072FCFA2075
:1022400007F0CCFC0121208808F06BFCFA2007F095
:10225000C5FC0021208808F064FCFA2007F0BEFCD1
:102260000121208808F05DFCFA2007F0B7FC00216E
:10227000208808F056FCFA2007F0B0FC01212088E5
:1022800008F04FFCFA2007F0A9FC2088002108F094
:1022900048FCBDE810406B210720FEF7C3BC00BF1F
:1022A000CC000020F8B5174F174E3888174D002185
:1022B00008F037FC164C3088002108F032FC2888E2
:1022C000002108F02EFC0021208808F02AFC4FF4A1
:1022D0007A7007F083FC3888012108F022FC3088EE
:1022E000012108F01EFC2888012108F01AFC208832
:1022F000012108F016FCBDE8F8404FF47A7007F0B1
:102300006DBC00BF90000020C800002088000020A5
:102310008C00002000B58FB0834902A806F012FFA0
:1023200008F040F9814907F0E4F800230093804B5E
:1023300006A8D3E9002306F0B6FF06A90AA806F00E
:1023400040FF7C490AA807F007F8014602A806F0FA
:10235000D7FF0AA806F0ACFE06A806F0A9FE764B49
:102360000322196806A806F087FF06A90AA806F046
:1023700028FF70490AA806F0EFFF014602A806F000
:10238000BFFF0AA806F094FE06A806F091FE6B4B6C
:102390000322196806A806F06FFF06A90AA806F02E
:1023A00010FF64490AA806F0D7FF014602A806F00C
:1023B000A7FF0AA806F07CFE06A806F079FE604892
:1023C00004F02EF80022002309F0B4F8002840F0B1
:1023D0009C805B4804F03FF818B95A4902A806F0FF
:1023E00093FF574804F01CF80B4606210246009163
:1023F00006A806F058FF06A90AA806F0E2FE4D4915
:102400000AA806F0A9FF014602A806F079FF0AA86B
:1024100006F04EFE06A806F04BFE494804F005F80B
:102420000022002309F086F8002873D1444804F004
:1024300015F8012803D1434902A806F065FF40487A
:1024400003F0F3FF0B4606210246009106A806F0B2
:102450002AFF06A90AA806F0B4FE36490AA806F023
:102460007BFF014602A806F04BFF0AA806F020FEFB
:1024700006A806F01DFE324803F0D7FF0022002315
:1024800009F058F800284AD12D4803F0D3FF08F08E
:102490007FFD00222C4B08F00FFF0B460621024661
:1024A000009106A806F0FFFE06A90AA806F089FE1C
:1024B00020490AA806F050FF014602A806F020FFB6
:1024C0000AA806F0F5FD06A806F0F2FD1F4B0AA8C3
:1024D00000931F4B1F49D3E9002307F0BFFA0AA955
:1024E00002A806F00DFF0AA806F0E2FD1A4902A8AC
:1024F00006F00AFF08F074F9029906F0E7FF02A857
:1025000006F0D6FD0FB05DF804FB144906A806F0EE
:1025100019FE70E7124906A806F014FE99E7114962
:1025200006A806F00FFEBFE7CBE00808CDE00808DC
:10253000400700209CE00808C0020020C4020020E0
:1025400070060020E2E0080800002440E4E00808EB
:10255000500C0020DC0C0020F6E00808A60000204B
:10256000B2000020A000002038B51D4806F0CEFAC9
:10257000054608F017F82A461A49FEF771FA642D45
:102580001FD0962D1FD0B5F5FA7F1FD0B5F5617F0E
:102590001FD0B5F5966F40F2DC5407D0A5421BD092
:1025A00040F6B834B5F5FA6F18BF2C46A1B20C4806
:1025B00006F0EDFA07F0F6FF22460B49FEF750FA57
:1025C00038BD9624F2E74FF4FA74EFE74FF46174E4
:1025D000ECE74FF49664E9E74FF4FA64E6E700BFEE
:1025E00070070020FAE0080818E108087FB52D48B8
:1025F00006F098FA10F0800F14BF4FF40065002524
:102600000446430648BF05F58065860648BF05F5C4
:102610000075E00648BF05F58075210748BF803585
:10262000620748BF403507F0BDFF2A461E49FEF746
:1026300017FA201D030656BF00214FF400650D4612
:10264000C4B248BF012114F040021CBF05F58065EB
:10265000012214F020031CBF012305F5007514F0BE
:1026600010001CBF05F58075012014F008061CBF82
:102670008035012614F0040418BF01240090CDE930
:102680000164084818BF403506F0DFFA054806F037
:1026900049FA07F087FF2A460449FEF7E1F904B03A
:1026A00070BD00BF7007002036E108085FE1080830
:1026B00030B55A4D95B007F075FF594906F006FF41
:1026C000584C07F06FFF296806F013FF07F06AFF08
:1026D000554906F0FBFE07F065FF216806F009FF8B
:1026E00007F060FF514906F004FF07F05BFF4CF272
:1026F000503107F051F807F055FF0D2201466846AA
:1027000007F060F868464A4906F03AFE002874D09F
:1027100007F048FF474906F0ECFE07F043FF464943
:1027200006F0E7FE07F03EFF4CF2503107F034F8B8
:1027300007F038FF0D22014604A807F043F807F020
:1027400031FF3E4906F0C2FE07F02CFF049906F067
:10275000D0FE07F027FF3A4906F0CBFE07F022FF34
:102760000D22014608A807F02DF8364908A806F002
:1027700007FE00284CD007F015FF334906F0B9FEDC
:1027800004A9284606F00EFD07F00CFF2F4906F0BD
:10279000B0FE07F007FF0D2201460CA807F012F863
:1027A00007F000FF2A4906F091FE07F0FBFE0C99A6
:1027B00006F09FFE07F0F6FE0D22014610A807F076
:1027C00001F8204910A806F0DBFDD8B107F0EAFEB9
:1027D000204906F08EFE0CA9204606F0E3FCFFF728
:1027E000B9FC10A806F064FC0CA806F061FC08A86F
:1027F00006F05EFC04A806F05BFC684606F058FC98
:1028000015B030BD07F0CEFE134906F072FEE8E7C2
:1028100007F0C8FE104906F06CFEE8E7380C00200F
:102820007DE108086007002093E10808ADE1080891
:10283000DFE10808E5E10808F7E1080807E2080811
:102840001FE2080815EA080835E2080845E208080A
:1028500058E2080874E2080888E208081FB507F083
:10286000A1FE194906F045FE07F09CFE4CF25031DE
:1028700006F092FF07F096FE0D220146684606F02C
:10288000A1FF6846114906F07BFDB8B107F08AFE4A
:102890000F4906F02EFE07F085FE0E4906F029FED0
:1028A00001230D4C236008F06DF921468C20FEF7C2
:1028B000A5F8684606F0FCFB04B010BD07F072FEF8
:1028C000064906F016FEF4E79BE20808DEE2080877
:1028D000E5E10808E9E20808240C00200AE30808FA
:1028E0001FB507F05FFE06F0F8FD07F05BFE144928
:1028F00006F0FFFD07F056FE4CF2503106F04CFF9B
:1029000007F050FE0D220146684606F05BFF684660
:102910000C4906F035FD60B107F044FE0A4906F0A7
:10292000E8FDFEF79BF9684606F0C2FB05B05DF8CE
:1029300004FB07F037FE054906F0DBFDF3E700BFB7
:1029400020E30808DFE1080859E308080AE308085B
:1029500010B588B007F026FE204906F0CAFD07F042
:1029600021FE4CF2503106F017FF07F01BFE0D223E
:102970000146684606F026FF684606F059FD044603
:1029800007F010FE164906F0B4FD164B9C421EDD02
:10299000E117204606F0AAFF07F004FE124906F0F0
:1029A00095FD07F0FFFD044607F0B7F80246C31790
:1029B00004A806F0AFFF2046049906F09AFD04A88B
:1029C00006F076FB684606F073FB08B010BD07F012
:1029D000E9FD064906F08DFDF4E700BFC8E30808ED
:1029E000B9000908F52E943903E4080816E408082C
:1029F00030B58BB007F0D6FD06F06FFD07F0D2FDC5
:102A0000324906F063FD07F0CDFD0446304D022249
:102A1000296806A806F030FC0699204606F056FD07
:102A200006A806F045FB07F0BDFD2A4906F061FD4A
:102A300007F0B8FD284906F049FD07F0B3FD4CF258
:102A4000503106F0A9FE07F0ADFD0D22014602A8A7
:102A500006F0B8FE02A806F0F0FC4FF07C510446E8
:102A600009F008F958B320461C4909F0EFF830B3D3
:102A70001B4920462C6008F04BFF09F00FF901902C
:102A800007F090FD174906F021FD07F08BFD044685
:102A90000222296806A806F0EFFB0699204606F0F8
:102AA00028FD06A806F004FB08F06CF8082001A930
:102AB000FDF7A4FF02A806F0FBFA0BB030BD07F04B
:102AC00071FD094906F015FDF4E700BF27E4080889
:102AD000B80200203AE408083FE40808000020415A
:102AE0000000C84255E4080816E408080000000089
:102AF00030B58BB007F056FD06F0EFFC07F052FD45
:102B0000374906F0E3FC07F04DFD0446354D02223F
:102B1000296806A806F0B0FB0699204606F0D6FC08
:102B200006A806F0C5FA07F03DFD2F4906F0E1FCC6
:102B300007F038FD2D4906F0C9FC07F033FD4CF2D3
:102B4000503106F029FE07F02DFD0D22014602A8A6
:102B500006F038FE02A806F070FC044608F02AFAD7
:102B60001DA3D3E9002308F003FD60B34FF08041BB
:102B7000204609F06BF830B31D4920462C6008F060
:102B8000C7FE09F08BF8019007F00CFD194906F01B
:102B90009DFC07F007FD04460222296806A806F0FE
:102BA0006BFB0699204606F0A4FC06A806F080FA06
:102BB00007F0E8FF102001A9FDF720FF02A806F0AA
:102BC00077FA0BB030BD07F0EDFC0B4906F091FC35
:102BD000F4E700BFAFF300809A9999999999B93FAA
:102BE00067E40808C80200203AE4080879E4080805
:102BF0000000C8428EE4080816E4080830B58BB01F
:102C000007F0D0FC06F069FC07F0CCFC324906F076
:102C10005DFC07F0C7FC0446304D0222296806A877
:102C200006F02AFB0699204606F050FC06A806F09E
:102C30003FFA07F0B7FC2A4906F05BFC07F0B2FC4C
:102C4000284906F043FC07F0ADFC4CF2503106F089
:102C5000A3FD07F0A7FC0D22014602A806F0B2FD75
:102C600002A806F0EAFB4FF07C51044609F002F896
:102C700060B34FF07F51204608F0E8FF30B31A49A7
:102C800020462C6008F044FE09F008F8019007F097
:102C900089FC164906F01AFC07F084FC044602225F
:102CA000296806A806F0E8FA0699204606F021FCF5
:102CB00006A806F0FDF907F065FF182001A9FDF749
:102CC0009DFE02A806F0F4F90BB030BD07F06AFCD7
:102CD000074906F00EFCF4E7A0E40808EC02002027
:102CE00099FD0808B3E408080000C842C9E40808D0
:102CF00016E4080830B58BB007F054FC06F0EDFB85
:102D000007F050FC324906F0E1FB07F04BFC0446AB
:102D1000304D0222296806A806F0AEFA0699204630
:102D200006F0D4FB06A806F0C3F907F03BFC2A49DD
:102D300006F0DFFB07F036FC284906F0C7FB07F07A
:102D400031FC4CF2503106F027FD07F02BFC0D2230
:102D5000014602A806F036FD02A806F06EFB4FF011
:102D60007C51044608F086FF60B34FF07F51204647
:102D700008F06CFF30B31A4920462C6008F0C8FDFB
:102D800008F08CFF019007F00DFC164906F09EFB41
:102D900007F008FC04460222296806A806F06CFA2F
:102DA0000699204606F0A5FB06A806F081F907F073
:102DB000E9FE202001A9FDF721FE02A806F078F91E
:102DC0000BB030BD07F0EEFB074906F092FBF4E7CD
:102DD000DBE40808F402002099FD0808F0E4080884
:102DE0000000C84208E5080816E4080830B58BB0B2
:102DF00007F0D8FB06F071FB07F0D4FB324906F070
:102E000065FB07F0CFFB0446304D0222296806A877
:102E100006F032FA0699204606F058FB06A806F09E
:102E200047F907F0BFFB2A4906F063FB07F0BAFB3E
:102E3000284906F04BFB07F0B5FB4CF2503106F089
:102E4000ABFC07F0AFFB0D22014602A806F0BAFC6E
:102E500002A806F0F2FA4FF07C51044608F00AFF8F
:102E600060B34FF07F51204608F0F0FE30B31A49AE
:102E700020462C6008F04CFD08F010FF019007F090
:102E800091FB164906F022FB07F08CFB0446022258
:102E9000296806A806F0F0F90699204606F029FBF5
:102EA00006A806F005F907F06DFE282001A9FDF738
:102EB000A5FD02A806F0FCF80BB030BD07F072FBD0
:102EC000074906F016FBF4E71CE50808E4020020B9
:102ED00099FD080830E508080000C84247E50808E1
:102EE00016E4080830B58BB007F05CFB06F0F5FA85
:102EF00007F058FB324906F0E9FA07F053FB0446A5
:102F0000304D0222296806A806F0B6F90699204637
:102F100006F0DCFA06A806F0CBF807F043FB2A49D6
:102F200006F0E7FA07F03EFB284906F0CFFA07F073
:102F300039FB4CF2503106F02FFC07F033FB0D2229
:102F4000014602A806F03EFC02A806F076FA4FF011
:102F50007C51044608F08EFE60B34FF07F5120464E
:102F600008F074FE30B31A4920462C6008F0D0FCFB
:102F700008F094FE019007F015FB164906F0A6FA3A
:102F800007F010FB04460222296806A806F074F92F
:102F90000699204606F0ADFA06A806F089F807F073
:102FA000F1FD302001A9FDF729FD02A806F080F807
:102FB0000BB030BD07F0F6FA074906F09AFAF4E7CD
:102FC0005AE50808600C002075E5080880E5080847
:102FD0000000C8429EE5080816E4080830B58BB02A
:102FE00007F0E0FA06F079FA07F0DCFA324906F069
:102FF0006DFA07F0D7FA0446304D0222296806A878
:1030000006F03AF90699204606F060FA06A806F09E
:103010004FF807F0C7FA2A4906F06BFA07F0C2FA30
:10302000284906F053FA07F0BDFA4CF2503106F089
:10303000B3FB07F0B7FA0D22014602A806F0C2FB67
:1030400002A806F0FAF94FF07C51044608F012FE8F
:1030500060B34FF07F51204608F0F8FD30B31A49B5
:1030600020462C6008F054FC08F018FE019007F090
:1030700099FA164906F02AFA07F094FA0446022251
:10308000296806A806F0F8F80699204606F031FAF5
:1030900006A806F00DF807F075FD382001A9FDF728
:1030A000ADFC02A806F004F80BB030BD07F07AFAC8
:1030B000074906F01EFAF4E7B8E50808980700206B
:1030C000D0E50808D6E508080000C842F1E5080880
:1030D00016E4080830B58BB007F064FA06F0FDF985
:1030E00007F060FA324906F0F1F907F05BFA04469E
:1030F000304D0222296806A806F0BEF8069920463F
:1031000006F0E4F906A805F0D3FF07F04BFA2A49C8
:1031100006F0EFF907F046FA284906F0D7F907F06C
:1031200041FA4CF2503106F037FB07F03BFA0D2222
:10313000014602A806F046FB02A806F07EF94FF011
:103140007C51044608F096FD58B320461C4908F00F
:103150007DFD30B31B4920462C6008F0D9FB08F0F8
:103160009DFD019007F01EFA174906F0AFF907F030
:1031700019FA04460222296806A806F07DF8069985
:10318000204606F0B6F906A805F092FF07F0FAFC13
:10319000402001A9FDF732FC02A805F089FF0BB021
:1031A00030BD07F0FFF9094906F0A3F9F4E700BFC5
:1031B00008E60808A00700201AE608081DE6080827
:1031C000000020410000C84232E6080816E4080862
:1031D00070B50C4D0C4E07F0E5F903681B69984774
:1031E00078B9FEF729FE286007F0DCF90446286864
:1031F00007F0E0FE02460B4620463146FDF730FC64
:10320000E9E770BDC002002043E6080808B507F0F2
:10321000C9F9A24906F06DF907F0C4F9A04906F012
:1032200068F907F0BFF99F4906F063F907F0BAF9AA
:103230009D4906F05EF907F0B5F99C4906F059F989
:1032400007F0B0F99A4906F054F907F0ABF999493B
:1032500006F04FF907F0A6F9974906F04AF907F08A
:10326000A1F9964906F045F907F09CF9944906F052
:1032700040F907F097F9934906F03BF907F092F906
:10328000914906F036F907F08DF9904906F031F9C9
:1032900007F088F98E4906F02CF907F083F98D497B
:1032A00006F027F907F07EF98B4906F022F907F0BE
:1032B00079F98A4906F01DF907F074F9884906F092
:1032C00018F907F06FF9874906F013F907F06AF962
:1032D000854906F00EF907F065F9844906F009F909
:1032E00007F060F9824906F004F907F05BF98149BB
:1032F00006F0FFF807F056F97F4906F0FAF807F0F4
:1033000051F97E4906F0F5F807F04CF97C4906F0D2
:10331000F0F807F047F97B4906F0EBF807F042F9BF
:10332000794906F0E6F807F03DF9784906F0E1F84A
:1033300007F038F9764906F0DCF807F033F97549FB
:1033400006F0D7F807F02EF9734906F0D2F807F027
:1033500029F9724906F0CDF807F024F9704906F012
:10336000C8F807F01FF96F4906F0C3F807F01AF91B
:103370006D4906F0BEF807F015F96C4906F0B9F88A
:1033800007F010F96A4906F0B4F807F00BF969493B
:1033900006F0AFF807F006F9674906F0AAF807F05B
:1033A00001F9664906F0A5F807F0FCF8644906F053
:1033B000A0F807F0F7F8634906F09BF807F0F2F879
:1033C000614906F096F807F0EDF8604906F091F8CB
:1033D00007F0E8F85E4906F08CF807F0E3F85D497D
:1033E00006F087F807F0DEF85B4906F082F807F090
:1033F000D9F85A4906F07DF807F0D4F8584906F094
:1034000078F807F0CFF8574906F073F807F0CAF8D4
:10341000554906F06EF807F0C5F8544906F069F80A
:1034200007F0C0F8524906F064F807F0BBF85149BC
:1034300006F05FF807F0B6F84F4906F05AF807F0C3
:10344000B1F84E4906F055F807F0ACF84C4906F0D3
:1034500050F807F0A7F84B4906F04BF807F0A2F830
:10346000494906F046F807F09DF8484906F041F84A
:1034700007F098F8464906F03CF807F093F84549FC
:1034800006F037F807F08EF8434906F032F807F0F7
:1034900089F8BDE80840414906F02BB853E6080812
:1034A00069E608087EE6080892E60808A6E6080825
:1034B000B9E60808CEE60808E2E60808F9E60808D2
:1034C0000FE7080825E708083AE7080857E708085B
:1034D00073E708088DE70808A6E70808C0E70808AA
:1034E000D9E70808F5E7080812E808082BE80808F3
:1034F00047E808085FE8080878E8080891E808083D
:10350000A5E80808BAE80808D5E80808F0E80808B7
:1035100006E9080817E9080829E908083AE9080847
:103520004CE9080875E908089EE90808CDE908088B
:10353000F2E9080817EA08083FEA08087FEA0808DD
:10354000C2EA0808EDEA080830EB080876EB08083C
:10355000AAEB0808C8EB0808ECEB080807EC080819
:1035600031EC080866EC08088AEC08089EEC0808AC
:10357000BAEC0808DFEC080803ED080828ED080895
:1035800050ED08087CED0808BFED0808F1ED0808CB
:1035900017EE08087DEE0808E1EE0808F6EE0808C8
:1035A00038B5046805467CB16368013B63605BB96C
:1035B000236820469B689847A368013BA3601BB91A
:1035C00023682046DB689847284638BD30B58BB065
:1035D0002849054602A805F0B5FD05F0BDF9264CC1
:1035E000264B58B31B6863B3254A2649138806A89F
:1035F00043F002031380244B2A681B788DF80030B7
:103600003C2306F09FFD07A8FFF7CAFFFDF744FA29
:10361000236873B106F0C6FF1C4905F06AFF1B4919
:1036200006A805F08FFD06A8FEF7A2F806A805F08B
:103630003FFD02A805F03CFD0BB030BD1B682168C2
:103640004BB92368002BF4D006F0ACFF104905F00D
:1036500050FF0F49E4E70A4A138823F0020313805E
:103660000029E6D006F09EFF0A4905F042FF09490D
:10367000D6E700BF99FD0808E8050020280C0020C7
:10368000480C00200AEF08082005002010EF080869
:1036900026EF08083CEF08082DE9F047DCB006F0FB
:1036A0003CFAB84BB8491A68B84B0446C51703A88A
:1036B0001A6005F047FDB44907A805F043FDB2497B
:1036C0000BA805F03FFDB0490FA805F03BFDAE4942
:1036D00013A805F037FD5E2103A805F024FE0A2299
:1036E00001211BA805F0A2FD1BA91FA805F069FD7B
:1036F000A7491FA805F030FE014603A805F000FE0B
:103700001FA805F0D5FC1BA805F0D2FCA14E5A213C
:1037100017A805F07AFD17A91FA805F052FD0A2287
:1037200031681BA805F082FD1BA91FA805F008FE43
:10373000014603A805F0E4FD1BA805F0B9FC1FA88D
:1037400005F0B6FC17A805F0B3FC0A2231681BA8E7
:1037500005F06CFD1BA91FA805F033FD8E491FA8BD
:1037600005F0FAFD014607A805F0CAFD1FA805F0FF
:103770009FFC1BA805F09CFC884E4D2117A805F066
:1037800044FD17A91FA805F01CFD032231681BA8E2
:1037900005F072FD1BA91FA805F0D2FD014603A884
:1037A00005F0AEFD1BA805F083FC1FA805F080FC0A
:1037B00017A805F07DFC032231681BA805F05CFD0D
:1037C0001BA91FA805F0FDFC73491FA805F0C4FD47
:1037D000014607A805F094FD1FA805F069FC1BA889
:1037E00005F066FC6E4B032219681BA805F044FD2A
:1037F0001BA91FA805F0E5FC67491FA805F0ACFD53
:10380000014607A805F07CFD1FA805F051FC1BA888
:1038100005F04EFC61211FA805F0F7FC1FA903A8C5
:1038200005F06EFD1FA805F043FC5E4802F0F8FDB0
:103830000022002307F07EFE002840F0D581594881
:1038400002F009FE38B9584907A805F05DFD564950
:1038500003A805F059FD534802F0E2FD0626024692
:103860000B4600961BA805F01EFD1BA91FA805F01E
:10387000A8FC49491FA805F06FFD014607A805F0FF
:103880003FFD1FA805F014FC1BA805F011FC4548DE
:1038900002F0C6FD009602460B461FA805F003FD88
:1038A0001FA903A805F02CFD1FA805F001FC6F213E
:1038B0001FA805F0AAFC1FA903A805F021FD1FA859
:1038C00005F0F6FB374802F0B0FD0022002307F0B8
:1038D00031FE002840F0A381324802F0BFFD0128EC
:1038E00007D1314907A805F00FFD2F4903A805F0BE
:1038F0000BFD2C4802F099FD062602460B46009669
:103900001BA805F0D0FC1BA91FA805F05AFC2249F2
:103910001FA805F021FD014607A805F0F1FC1FA82E
:1039200005F0C6FB1BA805F0C3FB1E4802F07DFD99
:10393000009602460B461FA805F0B5FC1FA903A878
:1039400005F0DEFC1FA805F0B3FB63211FA805F0FE
:103950005CFC1FA903A805F0D3FC1FA805F0A8FB79
:10396000104802F062FD0022002307F0E3FD00286A
:1039700040F0A4810B4802F05DFD07F009FB002236
:1039800014E000BFD4000020B9000908E00C0020BA
:103990005AEF0808800000209CE00808C0020020C0
:1039A000C402002070060020E2E00808A94B07F0DE
:1039B00083FC062602460B4600961BA805F073FC06
:1039C0001BA91FA805F0FDFBA3491FA805F0C4FC17
:1039D000014607A805F094FC1FA805F069FB1BA889
:1039E00005F066FB9D4802F025FD07F0D1FA0022A4
:1039F000984B07F061FC009602460B461FA805F0A5
:103A000052FC1FA9964E03A805F07AFC1FA805F0EA
:103A10004FFB0A2231881BA805F008FC1BA91FA830
:103A200005F0CFFB8C491FA805F096FC014607A8BE
:103A300005F066FC1FA805F03BFB1BA805F038FB52
:103A4000884B2246884900931FA82B4606F006F8AB
:103A50001FA907A805F054FC1FA805F029FB592150
:103A600017A805F0D2FB17A91FA805F0AAFB06F0BE
:103A700054F80A2201461BA805F0EBFB1BA91FA85E
:103A800005F05EFC014603A805F03AFC1BA805F012
:103A90000FFB1FA805F00CFB744C17A805F008FBE2
:103AA000262103A805F03FFC23684BB106F07AFD00
:103AB0006F4905F01EFD06F075FD039905F019FD2F
:103AC00003A91BA805F07DFB6A491FA805F03AFB76
:103AD0001FA91BA8FFF77AFD1FA805F0E9FA1BA88C
:103AE00005F0E6FA644B1B68ABB1236873B106F0CE
:103AF00059FD624905F0FDFC61491FA805F022FB54
:103B00001FA8FDF735FE1FA805F0D2FA06F068FEE3
:103B1000039905F0EEFC06F045FD079905F0E9FC78
:103B2000584902230C22A1F58E60FDF751F80028B8
:103B300037D0236823B106F035FD534905F0D9FC91
:103B4000524A5349534C462312680968524803F0BD
:103B5000DEFD2368F3B95149514805F0CAFC05F070
:103B6000DCFFC31702461FA805F0D4FE1F994C487E
:103B700005F0BFFC1FA805F09BFA4A491FA805F0F5
:103B8000E1FA1F99464805F0B4FC1FA805F090FA29
:103B9000012323600799424805F0ABFC3E4803F03F
:103BA000AFFD0027DFF80C81DFF80C912B4D1FAC27
:103BB00001232370D8F800306370C3F30723A37088
:103BC000394B1B68E370FBB2013B092B00F291807B
:103BD000DFE813F094009800020109010D011101C2
:103BE00016011E0123012B0130491BA805F0AAFA7A
:103BF0001BA91FA805F0E5FA17491FA805F0ACFBA3
:103C0000014607A805F07CFB1FA805F051FA1BA888
:103C100005F04EFA25491FA805F094FA40E624491C
:103C20001BA805F08FFA1BA91FA805F0CAFA0A49BC
:103C30001FA805F091FB014607A805F061FB1FA82E
:103C400005F036FA1BA805F033FA19491FA805F04C
:103C500079FA73E6000024409CE008087006002012
:103C6000480C0020E4E00808DC0C0020E8050020F7
:103C70005CEF080874EF0808EC0500207FEF0808E7
:103C8000A9EF08081C0C0020D0EF080850060020FF
:103C9000BC0C002060060020F8050020D3DE0808D8
:103CA000F0050020E5EF0808A8070020A600002086
:103CB000B2000020800000200000C8425D491BA81F
:103CC00005F040FA1BA91FA805F07BFA5A491FA866
:103CD00005F042FB014607A805F012FB1FA805F0FE
:103CE000E7F91BA805F0E4F952491FA805F02AFAE4
:103CF00087E64D232371514B186808E04323237155
:103D00004F4BF9E778234F48237105F0F1FFC0F3DB
:103D100007236071A371C0F30743C0F30760E37129
:103D20002072284602F08BFB6072C0F30720A0725D
:103D3000284602F087FBE072C0F307202073284674
:103D400002F083FB6073C0F30720A073284602F0E3
:103D50007FFBE073C0F307202074284602F07BFB52
:103D60008246284602F07AFB4AEA000A84F811A04B
:103D7000284602F05FFB73780137E37433780B2F2A
:103D800023754FF02303A074637504F116047FF4C8
:103D90000FAF06F025FD2C4905F098FB06F020FD3D
:103DA0000368F222DB681FA9984706F019FD27492E
:103DB00005F08CFB13A805F07BF90FA805F078F946
:103DC0000BA805F075F907A805F072F903A805F02E
:103DD0006FF95CB0BDE8F087722323711C4B186843
:103DE00007F042FD93E7522323711A4B84E77123B6
:103DF0002371194BF3E774232371FDF7B1FA86E7BA
:103E000050232371154B4946586807F035FE7EE76D
:103E100068232371FDF71EFB79E773232371104B91
:103E2000D3E9000107F016FC71E7672323710D4BFE
:103E300062E700BFA00000209CE00808C00200204C
:103E4000B40200206406002067F00808F8E00808C3
:103E5000DC020020E4050020E002002064050020D0
:103E6000300C00205C0500202DE9F04F91B002AF2E
:103E7000734907F1080005F065F9724E724907F1C0
:103E8000180005F05FF906F0ABFC40F6B83105F01C
:103E900083FC33688BB106F085FB6C4905F029FB88
:103EA0006A4907F1280005F04DF907F12800FDF7F0
:103EB0005FFC07F1280005F0FBF80FF27C19D9E947
:103EC000008906F08DFCB96805F000FB0024002590
:103ED0004FF0000ADFF890B106F082FC03681B691E
:103EE0009847E0B9BAF1000F19D1002220462946BF
:103EF000574B06F001FF42464B4604460D4607F07D
:103F000041FB0028E8D0336833B106F04BFB224672
:103F10002B465946FCF7A4FD4FF0010ADCE70A20C6
:103F200005F05CFE06F05CFC014607F1280005F098
:103F300035FC07F1280107F1180005F04DF907F1EC
:103F4000280005F0B5F83A6A07F11800D31D23F0F0
:103F50000703ADEB030D02AD0023294605F02DFA52
:103F60003C4907F1280005F0EDF806F01BFB3A4943
:103F700005F0BFFA06F016FB294605F0BAFA01244F
:103F8000344EDFF8E880DFF8E890284608F03BF888
:103F9000A0423ED92B5D402B06D0295D07F12800B9
:103FA00005F0C1F90134F0E7314607F1280005F0CA
:103FB000E7F90028F1D1414607F1280005F0E0F9C2
:103FC0000028EAD104F0C8FC0028EBD0D9F8003072
:103FD000002BE7D006F0E6FA204905F08AFA06F051
:103FE000E1FAB96A05F085FA1D4BBA6A1B781D49DA
:103FF00038468DF800303C2306F0A4F8381DFFF752
:10400000CFFAFCF749FD314607F1280005F0ECF83E
:10401000C8E707F1280005F04BF807F1180005F094
:1040200047F807F1080005F043F83C37BD46BDE806
:10403000F08F00BFAFF3008000000000004CCD40C7
:1040400069F00808E805002099FD08086CF00808E8
:104050000000F03FB90009088AF00808F1F00808EC
:104060002005002010F10808B4F00808EFF0080857
:10407000280C0020000000002DE9F04F91B002AFA5
:10408000754907F1080005F05DF8744E744907F1B1
:10409000180005F057F806F0A3FB40F6B83105F01C
:1040A0007BFB33688BB106F07DFA6E4905F021FA8F
:1040B0006C4907F1280005F045F807F12800FDF7E5
:1040C00057FB07F1280004F0F3FF0FF28419D9E938
:1040D000008906F085FBB96805F0F8F90024002591
:1040E0004FF0000ADFF898B106F07AFB03681B690D
:1040F0009847E0B9BAF1000F19D1002220462946AD
:10410000594B06F0F9FD42464B4604460D4607F072
:1041100039FA0028E8D0336833B106F043FA224672
:104120002B465946FCF79CFC4FF0010ADCE70A20BD
:1041300005F054FD06F054FB014607F1280005F098
:104140002DFB07F1280107F1180005F045F807F1EC
:10415000280004F0ADFF3A6A07F11800D31D23F0E0
:104160000703ADEB030D02AD0023294605F025F949
:104170003E4907F1280004F0E5FF06F013FA3C4938
:1041800005F0B7F906F00EFA294605F0B2F9012458
:10419000364EDFF8F080DFF8F090284607F033FF66
:1041A000A0424FD92B5D402B06D0295D07F1280096
:1041B00005F0B9F80134F0E7314607F1280005F0C1
:1041C000DFF80028F1D1414607F1280005F0D8F8C2
:1041D0000028EAD104F0C0FB0028EBD0D9F8003069
:1041E000002BE7D006F0DEF9224905F082F906F04F
:1041F000D9F9B96A05F07DF91F4BBA6A1B781F49D6
:1042000038468DF800303C2305F09CFF381DFFF741
:10421000C7F9FCF741FC154907F1280004F0E4FF59
:10422000012407F1280004F043FF07F1180004F00F
:104230003FFF07F1080004F03BFF20463C37BD4636
:10424000BDE8F08F4FF0FF34EBE700BFAFF3008025
:1042500000000000004CCD4017F10808E8050020E0
:1042600099FD08081AF108080000F03FB900090894
:104270008AF00808F1F008082005002079F1080804
:104280003EF10808EFF00808280C00202DE9F04165
:1042900007460C4615462AB9BDE8F0410368C9B285
:1042A0009B68184700290DDA0A2A0BD12D2105F049
:1042B00011F9064661423846EAB205F02EF930445B
:1042C000BDE8F08121460026F5E738B50546FFF741
:1042D000DDFF0446284605F000F9204438BD000003
:1042E0004FF4DA4270B5C64BA8B0C649C64D01A816
:1042F0001A80C64C04F026FF072005F06DFC012152
:10430000288806F0FDFB0121208806F0F9FBC04B50
:104310000121188806F0F4FBBE4B0121188806F035
:10432000EFFBBD4B0121188806F0EAFBBB4B0121D6
:10433000188806F0E5FBBA4B0121188806F0E0FB6F
:10434000B84B0121188806F0DBFBFCF7AFFDB6483F
:1043500004F081FB41F27001B34804F0B0FCB248B4
:1043600004F05CFCB14E34210020FCF75BFC1B2107
:104370000120FCF757FC304601F0E6FE96F82130AC
:10438000002B40F01682FDF731FF0121288806F04E
:10439000C8FB2088012106F0C4FB9F4B012118882F
:1043A00006F0BFFB9B4B0121188806F0BAFB9B4B24
:1043B0000121188806F0B5FB994B0121188806F0F9
:1043C000B0FB984B0121188806F0ABFB904B012104
:1043D000188806F0A6FB964A9649974805F0BFFD57
:1043E000964A9749944805F0BAFD00230222954960
:1043F000954804F091FA06F0F3F94FF4165106F0DF
:10440000E9F9FCF76DFB4FF4165106F0E3F9FCF700
:10441000A3FB4FF4165106F0DDF9FCF761FB41F206
:10442000883105F0B9F942F2107005F0D7FB06F0BB
:10443000B9F84FF4165106F09BF8844B0A2219681C
:1044400005A804F0F3FE05A909A804F0BAFE804906
:1044500009A804F081FF044605F0A8FB0A220146E2
:104460000DA804F0E3FE0DA9204604F069FF044600
:1044700005F094FB0A22014611A804F0D7FE11A909
:10448000204604F05DFF044605F07CFB0A2201464D
:1044900015A804F0CBFE204615A904F051FF6C4985
:1044A00004F05AFF044605F049FB0A22014619A808
:1044B00004F0BCFE19A9204604F042FF044605F0B2
:1044C00049FB0A2201461DA804F0B0FE1DA92046A2
:1044D00004F036FF044605F049FB0A22014621A8F4
:1044E00004F0A4FE204621A904F02AFF594904F053
:1044F00033FF594C0146204604F054FE21A804F035
:10450000D7FD1DA804F0D4FD19A804F0D1FD15A80D
:1045100004F0CEFD11A804F0CBFD0DA804F0C8FDF9
:1045200009A804F0C5FD05A804F0C2FD06F03AF89C
:104530004A4904F0DEFF4A4921A804F003FE21465F
:1045400021A804F0FDFE0146464804F02BFE21A8F8
:1045500004F0AEFD444902230C22A1F58E60FCF765
:1045600037FB002800F0398106F01CF83F4904F0C1
:10457000ADFF06F017F821683D4C04F0BAFF06F0D5
:1045800011F83C4904F0B5FF23684BB1394921A823
:1045900004F0D8FD21A8FDF7EBF821A804F088FD70
:1045A00006F042FB06F096F90021288806F0B9FAD9
:1045B0000323B0221821304801F070FD002840F09C
:1045C000108105F0EFFF2D4904F093FF23684BB1F4
:1045D0002A4921A804F0B6FD21A8FDF7C9F821A8B1
:1045E00004F066FD264801F046FE06F01DFB0122A0
:1045F000492106F09EF9002840F0098142E000BF01
:10460000480C0020B9000908C0000020C4000020A8
:1046100094000020C8000020CC0000209000002062
:10462000880000208C000020700700207407002004
:1046300090F108080B0A0808339F08089EF1080843
:1046400079400808D4020020A9F108088000002061
:10465000CFF10808B2F1080850060020B7F10808A9
:10466000CCF10808000700201C0C0020D1F108083C
:10467000E80500200DF20808B906002031F208080C
:104680005005002005F08EFF714904F032FF2368C9
:104690004BB16F4921A804F055FD21A8FDF768F83A
:1046A00021A804F005FD05F07DFF6A4904F021FF13
:1046B00023684BB1674921A804F044FD21A8FDF708
:1046C00057F821A804F0F4FC634D06F0ADFA06F0AB
:1046D00001F90021288806F024FA0323B0221821CA
:1046E0005E4801F0DBFC002840F0968005F05AFFA0
:1046F0005B4904F0FEFE5A4921A804F023FD21A8DD
:10470000FDF736F821A804F0D3FC564801F0B3FDBC
:1047100006F08AFA01224A2106F00BF9002840F03F
:10472000918005F03FFF4A4904F0E3FE23684BB156
:10473000474921A804F006FD21A8FDF719F821A892
:1047400004F0B6FCFDF7AEFD05F02CFF464904F081
:10475000D0FE05F027FF454904F0B8FE05F022FF22
:104760000A224621FFF7B1FD05F01CFF404904F085
:10477000ADFE05F017FF0A220D21FFF7A6FDFCF79D
:10478000CBFD1C23002121A8ADF8843004F038F8BB
:1047900023A91DA804F0D6FC1D9A36493648FCF71B
:1047A00087F91DA804F084FC01A804F081FC28B05E
:1047B00070BD324B1B68012B7FF4E7AD304805F02C
:1047C00097FA304907F042FA00283FF4DEAD96F838
:1047D0002130002B7FF4D9ADD5E505F0E3FE2A4961
:1047E000CAE605F0DFFE294904F083FE23684BB1D9
:1047F000274921A804F0A6FC21A8FCF7B9FF21A8AD
:1048000004F056FC0121288806F08BF9EAE6002125
:10481000204801F037FD46E705F0C4FE1E4904F0CC
:1048200068FE23684BB11C4921A804F08BFC21A829
:10483000FCF79EFF21A804F03BFC0121288806F02C
:1048400070F962E70021074801F01CFD7AE700BF1C
:1048500097F20808CAF20808C4000020BA0600202F
:10486000EDF208085605002034F308083FF3080865
:104870004CF3080854F30808D80C00206005002009
:10488000640600200000A041F7F108085DF2080866
:104890007BF208085005002016F3080830B589B0EF
:1048A00005F080FE354D04F018FE05F07BFE34491E
:1048B00004F00CFE05F076FE0A222968FFF705FDDC
:1048C00005F070FE2F4904F014FE05F06BFE4CF26B
:1048D000503104F061FF05F065FE0D220146684687
:1048E00004F070FF6846284904F04AFD00283ED0D5
:1048F00005F058FE254904F0FCFD05F053FE24495F
:1049000004F0F7FD05F04EFE0D22014604A804F068
:1049100059FF04A804F08CFD044605F043FE1D4930
:1049200004F0E7FD42F20C73A21E9A4219D805F07A
:1049300039FE194904F0CAFD05F034FE21460A2269
:10494000FFF7C3FC2C6006F01DF929460020FCF798
:1049500055F804A804F0ACFB684604F0A9FB09B0C4
:1049600030BD05F01FFE0D4904F0C3FDF1E705F071
:1049700019FE0B4904F0BDFDEEE700BF80000020EA
:1049800067F308087AF30808DFE10808E5E108089A
:10499000AAF30808B9000908BFF3080816E40808D4
:1049A0000AE308087FB505F0FDFD1F4904F0A1FDED
:1049B00005F0F8FD4CF2503104F0EEFE05F0F2FD8A
:1049C0000D22014602A804F0FDFE02A804F030FD0D
:1049D000019005F0E7FD154904F08BFD019800F109
:1049E0000C031A2B1AD806F03FFF04F061FF05F004
:1049F000D9FD0F4904F06AFD05F0D4FD01990A22A2
:104A0000FFF763FC06F0BEF8542001A9FBF7F6FFA0
:104A100002A804F04DFB07B05DF804FB05F0C2FDF1
:104A2000044904F066FDF3E7D0F30808B90009086B
:104A3000FBF3080816E4080830B589B005F0B2FDAC
:104A4000354D04F04AFD05F0ADFD344904F03EFD5E
:104A500005F0A8FD0A222968FFF737FC05F0A2FD42
:104A60002F4904F046FD05F09DFD4CF2503104F055
:104A700093FE05F097FD0D220146684604F0A2FE64
:104A80006846284904F07CFC00283ED005F08AFDE9
:104A9000254904F02EFD05F085FD244904F029FD8B
:104AA00005F080FD0D22014604A804F08BFE04A849
:104AB00004F0BEFC044605F075FD1D4904F019FD27
:104AC00044F61E63621E9A4219D805F06BFD19491F
:104AD00004F0FCFC05F066FD21460A22FFF7F5FB19
:104AE0002C6006F04FF829464C20FBF787FF04A8FE
:104AF00004F0DEFA684604F0DBFA09B030BD05F0D8
:104B000051FD0D4904F0F5FCF1E705F04BFD0B49B3
:104B100004F0EFFCEEE700BF9800002013F4080853
:104B200028F40808DFE10808E5E1080861F408084E
:104B3000B90009087AF4080816E408080AE3080826
:104B400030B589B005F02EFD354D04F0C6FC05F0FA
:104B500029FD344904F0BAFC05F024FD0A22296835
:104B6000FFF7B3FB05F01EFD2F4904F0C2FC05F072
:104B700019FD4CF2503104F00FFE05F013FD0D222B
:104B80000146684604F01EFE6846284904F0F8FB1A
:104B900000283ED005F006FD254904F0AAFC05F0EA
:104BA00001FD244904F0A5FC05F0FCFC0D220146A2
:104BB00004A804F007FE04A804F03AFC044605F03B
:104BC000F1FC1D4904F095FC4CF24E33621E9A42F2
:104BD00019D805F0E7FC194904F078FC05F0E2FC6F
:104BE00021460A22FFF771FB2C6005F0CBFF294616
:104BF0005020FBF703FF04A804F05AFA684604F0BB
:104C000057FA09B030BD05F0CDFC0D4904F071FC38
:104C1000F1E705F0C7FC0B4904F06BFCEEE700BFC1
:104C20009C0000208DF40808A2F40808DFE10808C1
:104C3000E5E10808DBF40808B9000908F4F40808FD
:104C400016E408080AE3080810B586B005F0AAFCC7
:104C5000284C04F042FC05F0A5FC274904F036FC82
:104C600005F0A0FC0A222168FFF710FB05F09AFC72
:104C7000224904F03EFC05F095FC214904F026FC95
:104C800005F090FC4CF2503104F086FD05F08AFCF2
:104C90000D22014602A804F095FD02A804F0C8FB0D
:104CA00042F20E730190013898421CD805F07AFC4C
:104CB000144904F00BFC05F075FC0A220199FFF77A
:104CC00004FB05F06FFC0D4904F013FC019B23600D
:104CD00005F058FF742001A9FBF790FE02A804F02C
:104CE000E7F906B010BD05F05DFC074904F001FCD2
:104CF000F4E700BF4807002007F508081BF508087F
:104D000034F5080847F5080816E4080810B586B019
:104D100005F048FC254C04F0E0FB05F043FC244979
:104D200004F0D4FB05F03EFC0A222168FFF7AEFA3E
:104D300005F038FC1F4904F0DCFB05F033FC1E498C
:104D400004F0C4FB05F02EFC4CF2503104F024FDBD
:104D500005F028FC0D22014602A804F033FD02A84C
:104D600004F066FB019000F57A70B0F5FA6F17D287
:104D700005F018FC114904F0A9FB05F013FC01999A
:104D80000A22FFF7A2FA019B236005F0FBFE042034
:104D900001A9FBF733FE02A804F08AF906B010BDA2
:104DA00005F000FC064904F0A4FBF4E7BC02002077
:104DB00059F508083AE408086BF5080880F5080872
:104DC00016E4080810B586B005F0ECFB264C04F09C
:104DD00084FB05F0E7FB254904F078FB05F0E2FBD6
:104DE0000A222168FFF752FA05F0DCFB204904F0A3
:104DF00080FB05F0D7FB1F4904F068FB05F0D2FBF0
:104E00004CF2503104F0C8FC05F0CCFB0D220146F9
:104E100002A804F0D7FC02A804F00AFB42F20F73C8
:104E2000019000F59C500830984217D805F0BAFB65
:104E3000114904F04BFB05F0B5FB01990A22FFF77D
:104E400044FA019B236005F09DFE0C2001A9FBF7AD
:104E5000D5FD02A804F02CF906B010BD05F0A2FBA8
:104E6000064904F046FBF4E7D402002091F5080857
:104E7000A4F50808A9F50808BDF5080816E408080F
:104E800010B586B005F08EFB254C04F026FB05F02E
:104E900089FB244904F01AFB05F084FB0A222168EF
:104EA000FFF7F4F905F07EFB1F4904F022FB05F043
:104EB00079FB1E4904F00AFB05F074FB4CF25031FB
:104EC00004F06AFC05F06EFB0D22014602A804F016
:104ED00079FC02A804F0ACFA019000F57A70B0F504
:104EE000FA6F17D205F05EFB114904F0EFFA05F0F6
:104EF00059FB01990A22FFF7E8F9019B236005F0AD
:104F000041FE142001A9FBF779FD02A804F0D0F8B6
:104F100006B010BD05F046FB064904F0EAFAF4E7D6
:104F2000F0020020CDF50808DFF50808E6F50808CE
:104F3000FBF5080816E4080810B586B005F032FB4A
:104F4000254C04F0CAFA05F02DFB244904F0BEFA02
:104F500005F028FB0A222168FFF798F905F022FBEB
:104F60001F4904F0C6FA05F01DFB1E4904F0AEFA15
:104F700005F018FB4CF2503104F00EFC05F012FB6A
:104F80000D22014602A804F01DFC02A804F050FA0C
:104F9000019000F57A70B0F5FA6F17D205F002FBB8
:104FA000114904F093FA05F0FDFA01990A22FFF77E
:104FB0008CF9019B236005F0E5FD1C2001A9FBF79E
:104FC0001DFD02A804F074F806B010BD05F0EAFA61
:104FD000064904F08EFAF4E7F80200200CF60808FF
:104FE000DFF5080820F6080837F6080816E4080870
:104FF00010B586B005F0D6FA254C04F06EFA05F02F
:10500000D1FA244904F062FA05F0CCFA0A222168A8
:10501000FFF73CF905F0C6FA1F4904F06AFA05F0FB
:10502000C1FA1E4904F052FA05F0BCFA4CF25031B4
:1050300004F0B2FB05F0B6FA0D22014602A804F016
:10504000C1FB02A804F0F4F9019000F57A70B0F504
:10505000FA6F17D205F0A6FA114904F037FA05F0F5
:10506000A1FA01990A22FFF730F9019B236005F0AC
:1050700089FD242001A9FBF7C1FC02A804F018F85F
:1050800006B010BD05F08EFA064904F032FAF4E7D6
:10509000E80200204AF608085DF6080864F60808E9
:1050A0007AF6080816E4080810B586B005F07AFA12
:1050B000244C04F012FA05F075FA234904F006FABC
:1050C00005F070FA0A222168FFF7E0F805F06AFAA5
:1050D0001E4904F00EFA05F065FA1D4904F0F6F9D0
:1050E00005F060FA4CF2503104F056FB05F05AFA24
:1050F0000D22014602A804F065FB02A804F098F90D
:1051000001901E303B2817D805F04CFA114904F0E5
:10511000DDF905F047FA01990A22FFF7D6F8019B5D
:10512000236005F02FFD2C2001A9FBF767FC02A8E6
:1051300003F0BEFF06B010BD05F034FA064904F0D6
:10514000D8F9F4E7640C00208CF6080875E5080827
:10515000A6F60808C3F6080816E4080810B586B0D5
:1051600005F020FA254C04F0B8F905F01BFA2449A3
:1051700004F0ACF905F016FA0A222168FFF786F868
:1051800005F010FA1F4904F0B4F905F00BFA1E49B6
:1051900004F09CF905F006FA4CF2503104F0FCFAE8
:1051A00005F000FA0D22014602A804F00BFB02A84C
:1051B00004F03EF9019000F57A70B0F5FA6F17D25D
:1051C00005F0F0F9114904F081F905F0EBF90199C6
:1051D0000A22FFF77AF8019B236005F0D3FC342004
:1051E00001A9FBF70BFC02A803F062FF06B010BD9B
:1051F00005F0D8F9064904F07CF9F4E79C07002093
:10520000DCF608083AE40808F3F608080DF7080881
:1052100016E4080810B586B005F0C4F9244C04F073
:105220005CF905F0BFF9234904F050F905F0BAF92B
:105230000A222168FFF72AF805F0B4F91E4904F0A4
:1052400058F905F0AFF91D4904F040F905F0AAF945
:105250004CF2503104F0A0FA05F0A4F90D220146F9
:1052600002A804F0AFFA02A804F0E2F8019032308C
:10527000632817D805F096F9114904F027F905F0CD
:1052800091F901990A22FFF720F8019B236005F0AC
:1052900079FC3C2001A9FBF7B1FB02A803F008FF51
:1052A00006B010BD05F07EF9064904F022F9F4E7D6
:1052B000A407002023F708081AE6080834F70808AE
:1052C00048F7080816E4080830232DE9F047C74CD2
:1052D000C74DC84F8AB02370C74E2378782B00F093
:1052E0004B8405F05FF9314604F0F0F805F05AF907
:1052F0000368DB69984705F055F903681B6998470F
:105300000028F8D005F04EF903685B699847C0B2F1
:10531000207021385928E0D801A353F820F000BFAD
:105320009D5A0808DB5208083D5B0808DB52080854
:10533000DB520808DB520808DB520808DB52080879
:10534000DB520808695B0808DB520808DB520808D2
:10535000DB520808DB520808DB520808975A080895
:10536000CB580808D15808088D590808BB590808B7
:10537000E1590808FF590808255A0808435A08083F
:10538000915A0808DB520808DB520808DB5208086B
:10539000DB520808DB520808715B0808155B080837
:1053A0009B550808A1550808CD5508083956080826
:1053B000615608087D56080891560808B95608082D
:1053C000D3560808D9560808E9560808F9560808B7
:1053D000FF56080827570808435708085357080876
:1053E0006757080875570808A5570808D5570808CB
:1053F000015808082D5808083F5808086D58080833
:10540000DB5208087D580808DB520808DB52080800
:10541000DB520808DB520808DB520808DB52080898
:10542000895408088F540808955408089B540808A4
:10543000A1540808A7540808AD540808B354080834
:10544000B9540808BF540808C5540808CB540808C4
:10545000D1540808D7540808DD540808E354080854
:10546000E95408080755080817550808355508086D
:105470003B5508084155080847550808DB520808FD
:105480004D55080873550808FDF7B2FA24E7FFF7F1
:105490003DFC21E7FDF72CFB1EE7FFF793FC1BE724
:1054A000FDF7ACFB18E7FFF7EBFC15E7FDF722FC77
:1054B00012E7FFF741FD0FE7FDF798FC0CE7FFF758
:1054C00097FD09E7FDF70EFD06E7FFF7EDFD03E7A2
:1054D000FDF784FD00E7FFF741FEFDE6FDF7FAFD6D
:1054E000FAE6FFF797FEF7E605F05CF8434904F0AB
:1054F00000F80123424E336005F044FB314648205A
:10550000FBF77CFAE8E605F04DF83E4903F0F1FFC1
:105510003B4E0023EFE705F045F806463A4906A85A
:1055200003F010FE3046069903F0E3FF06A803F0EF
:10553000BFFDD1E6FDF70CFACEE6FFF733FACBE676
:10554000FFF7ACF9C8E6FDF7B3F8C5E62F4E3368B0
:105550005BB905F027F82E4903F0CBFF0123336038
:1055600005F010FB44202949CAE705F01BF829493A
:10557000F2E7264E3368012B09D105F013F82649CE
:1055800003F0B7FF2548FBF779FA0023E7E705F0BA
:1055900009F8234903F0ADFFF7E7FDF719FE9BE695
:1055A000204B1A68012A0BD100221A6004F0FAFF7E
:1055B0001D4903F09EFF05F0E5FA642019499FE7B5
:1055C00001221A6004F0EEFF1849F2E7184B1A683E
:1055D00012B901221A6004E004F0E4FF154903F057
:1055E00088FF05F0CFFA6020114989E7B80600204E
:1055F000640500200000C84258F708085EF7080854
:10560000E805002078F70808E5EF0808280C0020D6
:1056100093F70808A6F70808C0F708086C100020E0
:10562000D3F7080850070020EEF7080802F808082A
:10563000680C002015F80808A74B1A68012A0BD13E
:1056400000221A6004F0AEFFA44903F052FF05F0F7
:1056500099FA6820A04953E704F0A4FFA049F4E7B1
:105660009D4B1A68012A03D104F09CFF9D49ECE789
:1056700001221A6004F096FF9B49E6E79B4B1A68EB
:10568000012A01D10022A5E704F08CFF9849A6E782
:10569000984B1A68012A09D104F084FF964903F057
:1056A00028FF05F06FFA6C20924929E701221A6061
:1056B00004F078FF9149F2E78E4B1A681AB904F0AA
:1056C00071FF8F49EBE700221A6004F06BFF8D49F0
:1056D000E5E7FFF7B9FAFFE5FCF7E4FD04F062FF48
:1056E000894903F006FFF7E504F05CFF874903F002
:1056F00000FFFBF7B9FDEFE5FDF7F2F8ECE5844EAE
:105700003368012B03D104F04DFF8249E9E704F02F
:1057100049FF814903F0EDFE0123336005F032FAC1
:1057200031467820ECE67A4E33681BB904F03AFF34
:105730007A49D6E704F036FF794903F0DAFE002310
:10574000EBE704F02FFF774903F0D3FEFBF7F6FDFC
:10575000C2E504F027FF744903F0CBFE6B2107205C
:10576000FBF760FAB8E504F01DFF704903F0C1FED5
:105770004B21F4E76E4E336883B104F013FF6D499B
:1057800003F0B7FE0023336005F0FCF931467C20BE
:10579000FBF734F9684800F08EFE9DE504F002FF47
:1057A00066499EE7624E336883B904F0FBFE6449A4
:1057B00003F09FFE0123336005F0E4F931467C20BD
:1057C000FBF71CF95C4800F09BFE85E504F0EAFE5F
:1057D0005C4986E75C4E33685BB904F0E3FE5B49E5
:1057E00003F087FE0123336005F0CCF931468020B9
:1057F00086E604F0D7FE564903F07BFE0023F2E76D
:10580000544E33685BB904F0CDFE534903F071FE8A
:105810000123336005F0B6F93146842070E604F0C8
:10582000C1FE4E4903F065FE0023F2E704F0BAFE24
:105830004B4903F05EFE404800F018FE4CE5494E2F
:105840003368012B0BD104F0ADFE474903F051FE44
:105850000023336005F096F93146882050E604F0C5
:10586000A1FE424903F045FE0123F2E7012132483F
:1058700000F06CFEB4223E4B1A602DE504F092FE5F
:105880003C4903F036FE06A83B4902F0EDFC069ABF
:105890003A493B48FBF70CF906A803F009FC06A8B7
:1058A000354902F0FDFC069A36493548FBF700F908
:1058B00006A803F0FDFB06A82F4902F0F7FC069AA4
:1058C00031492F48FBF7F4F830E6FFF7B5F803E568
:1058D000FFF736F900E500BF4C0700203FF8080845
:1058E00060F8080884F80808A7F80808680C002081
:1058F000C5F8080854070020F2F808081AF9080843
:105900003EF9080867F9080834F308088CF9080814
:1059100060050020A8F90808CAF90808EEF9080887
:1059200011FA080836FA080851FA080864FA080853
:105930004C0500207FFA0808580C0020A2FA08083D
:10594000BDFA0808DFFA0808B4060020F9FA0808CA
:1059500014FB0808D002002030FB08084FFB0808A1
:105960006EFB08086C06002086FB0808AAFB0808E6
:10597000E0050020CDFB0808C40C002004FC08084A
:10598000D80C00200CFC080814FC080804F00AFEDF
:105990007B4903F09BFD04F005FE0A224621FEF739
:1059A00094FC04F0FFFD774903F090FD04F0FAFD4C
:1059B0000A220D21FEF789FC8EE4734E33685BB931
:1059C00004F0F0FD714903F094FD0123336005F00C
:1059D000D9F858206C4993E504F0E4FD6C49F2E7EE
:1059E000694E3368012B06D104F0DCFD694903F0F0
:1059F00080FD0023EAE704F0D5FD6749F7E7674E2D
:105A000033685BB904F0CEFD654903F072FD0123F4
:105A1000336005F0B7F85C20604971E504F0C2FD21
:105A20006049F2E75D4E3368012B06D104F0BAFD00
:105A30005D4903F05EFD0023EAE704F0B3FD5B4936
:105A4000F7E704F0AFFD5A4903F040FD594803F071
:105A50006FF8804604F0A6FD06460A22414603F090
:105A60005CFD304603F039FD04F09CFD524903F023
:105A70002DFD504803F059F8804604F093FD06468A
:105A80000A22414603F049FD304603F026FD23E497
:105A9000FCF7ACFD20E4FCF767FD1DE404F082FD9B
:105AA000464903F026FDDFF834A104F07BFD0368CE
:105AB0001B69984700287FF40FAC284602F0E6F8EF
:105AC00038B904F06FFD3E4903F013FD0AB0BDE89C
:105AD000F08704F067FD39460646E86805F0CCFF1C
