:020000040808EA
:1000000000000808D8070908000006000A000501DA
:080010000402DB070000000000
:0400180040DD0808B7
:1000200008B5024B1B685B6C019308BD2C000608E9
:1000300008B5024B1B689B6D019308BD2C00060898
:1000400008B5024B1B685B6E019308BD2C000608C7
:1000500009480A4908B5884205D0094A824202D0B7
:10006000121A0BF039FF0748074A0021121A0BF049
:1000700041FF064808BD00BF000000200405090834
:10008000AC020020B002002008120020081200205C
:1000900070B509F0B5FE0025054E064CA41BA4085A
:1000A000A54200D170BD56F8043B98470135F7E7EB
:1000B000D4040908FC04090804F0F0B808B505F0F8
:1000C0006DFDBDE8084009F05DBE08F043BC08F0D6
:1000D00041BC08F047BC0078B0FA80F04009704796
:1000E00001230370704748B1836C3BB1C36C2BB1E3
:1000F000006DB0FA80F04009404270474FF0FF3089
:10010000704773B5024608460C46FFF7ECFF0546FC
:1001100040BB12F0800F14BF00231023CA789A420C
:1001200020D0CB708E6C0123F32160780DF1070293
:10013000B04784F8540098B99DF80720E37822F07E
:10014000100203F0100313438DF8073073210123CD
:10015000E66C60780DF10702B04784F8540008B1EE
:100160006FF00105284602B070BD03788B4284BF52
:10017000017013784FF0000084BF43F00203137046
:1001800070472DE9F84306461846884691461D46B5
:10019000FFF7A9FF0446A8B9AB783BB9294630461A
:1001A000FFF7AFFF044608B946F080064B464246CB
:1001B0003146AF6C6878B847002818BF6FF001046B
:1001C00085F854002046BDE8F8832DE9F0471C4629
:1001D0000F4600218AB00646904601A824220091CD
:1001E0000BF088FE2046FFF77EFFE8B908F1FF33E9
:1001F000122B33D8EA4681461FFA88F81FFA89F392
:10020000434514D380B94FEA4802013A93B2E56CF2
:100210009DF8001060780DF10102A847002884F8CD
:10022000540018BF6FF001000AB0BDE8F087A37852
:1002300016F809503BB928462146FFF762FF16F829
:10024000095005F07F0517F809308AF800508AF840
:10025000013009F101090AF1020ACFE76FF003004A
:10026000E2E7742337B504468DF80730FFF73BFF0C
:10027000A0BB05462346012274200DF10601FFF7BD
:1002800080FFA0B99DF8063013F0030511D023F0CC
:1002900003038DF80630012223460DF106010DF10E
:1002A0000700FFF792FF0A20236D9847E2E7002D31
:1002B000E0D194F844208AB19DF8063002F00302A0
:1002C00023F0030313438DF8063038B92346012287
:1002D0000DF106010DF10700FFF777FF03B030BD08
:1002E0000023F0B5064689B008460C468DF8073065
:1002F0000493ADF814300693ADF81C30FFF7F3FE0D
:10030000002840F0FE8016F0080391F8447005D1F3
:1003100081F844302046FFF7A4FF07E0012FADF835
:100320000C0000F0F08081F84400012016F0100568
:1003300020D0072104F1460204F13B00FFF715FF2E
:1003400030B92346012275200DF10701FFF719FF8F
:1003500094F83B309DF807209B0022F01C0203F02C
:100360001C031343752201258DF807308DF81020EA
:100370008DF81830B30622D5082104F1460204F1A5
:100380003D00FFF7F2FE30B92346012270200DF147
:100390000701FFF7F6FE70219DF8073094F83D2025
:1003A00023F0080302F00802134308AA2A44013587
:1003B0008DF8073002F8101C02F8083CEDB2B107C6
:1003C00033D0052104F1460204F13900FFF7CDFED8
:1003D00030B92346012274200DF10701FFF7D1FE49
:1003E000F20709D59DF8073094F8392003F01F0370
:1003F00043EA42138DF80730B3070BD594F83A302F
:100400009DF807209B0003F01C0322F01C021343FD
:100410008DF80730742208AB2B4403F8102C9DF89C
:100420000720013503F8082CEDB2710722D505210C
:1004300004F1460204F13800FFF797FE30B9234675
:10044000012272200DF10701FFF79BFE72219DF83A
:10045000073094F8382023F0070302F00702134313
:1004600008AA2A4401358DF8073002F8101C02F85A
:10047000083CEDB216F0C00F3AD0012104F146025B
:1004800004F13E00FFF771FE60B90A2104F13C005F
:10049000FFF76BFE30B92346012271200DF10701F1
:1004A000FFF76FFE72060BD594F83E309DF80720DB
:1004B0001B0103F0100322F0100213438DF80730E4
:1004C00033060AD59DF8073094F83C2023F00F033B
:1004D00002F00F0213438DF80730712208AB2B4452
:1004E00003F8102C9DF80720013503F8082CEDB215
:1004F00028B923462A4606A904A8FFF766FE84F811
:10050000447009B0F0BDB1F84020B1F91230B2F535
:10051000C87F28BF4FF4C872C82A38BFC82203F565
:10052000163303F299135A431423B2FBF3F20A234E
:1005300002F54812B2FBF3F291F9113091F904106F
:1005400003F544735A4394F914304B434FF47A71D2
:1005500093FBF1F31B0203EB620394F8342094F94C
:1005600035100432B3FBF2F383224A4302F58032A2
:10057000B3FBF2F32222FA3B53436422323393FB60
:10058000F2F38DF80C3046F25A43ADF80830B4F867
:100590004230B3F57C6F1AD23F2BC2B200F101009A
:1005A00013D803EB8213DBB200258DF80D30022245
:1005B000234684F83C5003A902A8FFF706FE84F8FE
:1005C000445000287FF4B2AEA4E69B08E4E7FF2382
:1005D000EAE7000013B5184B024618689B880090A4
:1005E000ADF8043091F8393002A891F83A4003444C
:1005F00013F8080C02AB1C4414F8083C02AC184475
:1006000091F83830234413F8083C40F2AB740344AB
:1006100041F2B92004FB03034FF47A70B3FBF0F30B
:1006200001339BB2138091F83E0018B1B1F842102B
:100630000B44138002B010BD54DD08082DE9F04FC3
:10064000804689B008460C46FFF74DFD0546002858
:1006500040F058810690CDE90400CDF81B00084613
:10066000FFF741FD0A270546002D40F05281234641
:100670000F2204A91D20FFF784FD9DF810B09DF9FD
:100680001EA09DF818200BF00F030AF020012BF09C
:100690007F0B01924BEA01019DF819200AF0100A24
:1006A00041EA0A0149B288F8013002929DF81130FE
:1006B0009DF81D200029054688F8023003929DF818
:1006C00012909DF813E09DF814309DF815C09DF828
:1006D00016609DF817009DF81E2088F8001080F223
:1006E0001581000940EA061646EA0C3CE68A1B0919
:1006F0007600C6EBDC0C60464FEA5C06C11746EAA2
:10070000C17649107143A6FB06AB94F91A000BEBB6
:10071000410B4FEA1A36010146EA0B564FEA2B37D6
:100720004FEAE17B06FB0BF0A6FB01ABB4F91860C6
:1007300001FB070786FB0C01BB44C60A4FEA9A304F
:1007400046EA415640EA8B403118216301EB8101B2
:1007500080310912A8F80410216B43EA0E1E4910DB
:10076000A1F57A4140F635438810404394F926704C
:10077000C6127743B4F9246040134E43760006EB6B
:10078000A706B4F91E704EEA09394F4394F92010B8
:10079000C9F5801949014143C91001EB6701A08BDC
:1007A000891401F500414843B4F9221002F00F0CFE
:1007B000090401EBA606A9EB26367343C113B3FB6C
:1007C000F1F141F39C004043B4F92A3040135843FF
:1007D000B4F9283041F35D077B4341F3D7165B132F
:1007E00003EB203306FB06F0464394F82C009209F5
:1007F000464394F9270003EB664303EBC0136420E0
:100800001B1103EB4103C8F80830236B94F90E1059
:1008100003EB830380331B12594391FBF0F194F9EE
:100820000D6059435E43891196FBF0F691FBF0F1A0
:100830003144668901F5804171438E12DDE9017111
:1008400041EA07212789A1EB071194F90C705F4356
:1008500097FBF0F7A1EB6701714394F91060002753
:10086000734393FBF0F3E07B40F23C5603EBC01381
:10087000881340431B118012434301EB6303991219
:100880004FF47A734B432B491B1323EAE3738B42D8
:10089000D4BFC8F80C30C8F80C10052194F93630D4
:1008A000C3FB0167244B53F82C30A6FB030103FB69
:1008B0000711060C4FEA214E46EA01460021039B30
:1008C00042EA8302D30313F17F4341F1FF319A19C6
:1008D00041EB0E03194951F82C10A1FB066701FBEF
:1008E0000E77700A560846EAC37640EAC7504FEAC8
:1008F000672C591080194CEB01010BF0D3F9C8F8A3
:1009000010006DB1284609B0BDE8F08F0A20236DB4
:100910009847013F17F0FF077FF4A6AE0225F1E7E5
:1009200098F90030002BB6BF012384F8455084F8B5
:100930004530E7E7A08601000000002040000020CD
:1009400070470246037C13F008001EBF506AD36A4A
:10095000181A0028B8BF6FF0004070477047704702
:1009600010B504462C210AF092F9204610BD10B5AE
:10097000044634210AF08BF9204610BD083006F0F9
:10098000F1BE103006F0EEBE07B501228DF807105B
:1009900010300DF1070106F0E5FE03B05DF804FB31
:1009A000103006F055BE103006F081BD07B50122AB
:1009B0000DF10701103006F0CBFC012814BF4FF0F9
:1009C000FF309DF8070003B05DF804FB00F26440BF
:1009D00006F029BB00F2644006F05DBA00F2644004
:1009E00006F09BBA00F2644006F00DBA10B504465A
:1009F000006808B107F0B6FF204610BD10B50C46E0
:100A0000042207F02BFD204610BD002313B5ADF8DE
:100A1000063008F0EBFC982804460BD80AF090F852
:100A2000204602220DF1060107F010FDBDF8060078
:100A300002B010BD4FF0FF30FAE710B50C460422AB
:100A400007F004FD204610BD07B501228DF8071000
:100A500008300DF1070106F085FE03B05DF804FBD8
:100A60000EB403B503AB53F8042B0021019308F037
:100A70002BFE02B05DF804EB03B070470023406822
:100A80001A46194607F0FEBE10B5044614210AF0B6
:100A9000FEF8204610BD0EB410B5002301682020DA
:100AA0008DB00FAA52F8044BCDE90403CDE9004202
:100AB00003921E2004AA07F059FE0DB0BDE81040B5
:100AC00003B0704710B50D4C2378BFF35B8FDB0785
:100AD00011D42046FFF7FFFA68B10321084A094BF9
:100AE000094809F03BFE2046FFF7FAFA074A084991
:100AF00005480AF0C7F8044810BD00BF08030020ED
:100B0000100300209403002024050020B0020020E0
:100B10004109080810B5FFF7D5FF074B044653B14C
:100B200009F039FE38B1236820461B699847002830
:100B300001DDAFF3008010BD0000000010B50D4CCA
:100B40002378BFF35B8FDB0711D42046FFF7C3FA8E
:100B500068B10421084A094B094809F0FFFD204605
:100B6000FFF7BEFA074A084905480AF08BF804481F
:100B700010BD00BF0C030020180400209C040020BE
:100B800038050020B00200204109080810B5FFF721
:100B9000D5FF074B044653B109F0FDFD38B123687A
:100BA00020461B699847002801DDAFF3008010BD87
:100BB0000000000038B5044600F2644006F092F8E8
:100BC00008B9002038BD04F58865284606F076FD92
:100BD0000121204606F09FFF014668B121462846C4
:100BE00006F09DFB0028ECD094F8403413F0700F11
:100BF000E7D0044B1D60E5E7204606F08CFF002897
:100C0000ECD1DEE7BC0C002038B50C4605460AF0F6
:100C100011F86B2109F072FE0AF00CF803682946FE
:100C20009B6898470AF006F8036821469B68984736
:100C30000AF000F8BDE83840012109F07ABE000052
:100C400037B509F07DFF40F213636425002401A944
:100C500000200193FFF7D2FE09F072FF01A90820DE
:100C60000195FFF7CBFE09F06BFF01A9102001955C
:100C7000FFF7C4FE09F064FF01A998200195FFF772
:100C8000BDFE09F05DFF01A918200195FFF7B6FE32
:100C900009F056FF01A920200195FFF7AFFE09F0EA
:100CA0004FFF01A928200195FFF7A8FE09F048FF92
:100CB00001A930200195FFF7A1FE09F041FF01A92C
:100CC00038200195FFF79AFE09F03AFF01A940206C
:100CD0000195FFF793FE09F033FF01A90420019469
:100CE000FFF78CFE09F02CFF01A90C200194FFF7FF
:100CF00085FE09F025FF01A994200194FFF77EFEEF
:100D000009F01EFF01A914200194FFF777FE09F0F6
:100D100017FF01A91C200194FFF770FE09F010FFD6
:100D200001A924200194FFF769FE09F009FF01A938
:100D30002C200194FFF762FE09F002FF01A9342084
:100D40000194FFF75BFE09F0FBFE01A93C20019432
:100D5000FFF754FE09F0F4FE01A944200194FFF7C7
:100D60004DFE09F0EDFE01A948200194FFF746FE73
:100D700009F0E6FE01A958200194FFF73FFE09F0B3
:100D8000DFFE41495C20FFF739FE09F0D9FE4FF440
:100D90007A7301A94C200193FFF730FE09F0D0FED1
:100DA00042F2107301A950200193FFF727FE09F0CA
:100DB000C7FE6FF0060301A954200193FFF71EFE42
:100DC000324B18680AF02EFD08F050FD09F0B8FE0D
:100DD00001A960200194FFF711FE09F0B1FE284639
:100DE000012501A90194FFF709FE09F0A9FE01A957
:100DF00068200195FFF702FE09F0A2FE01A96C2010
:100E00000194FFF7FBFD09F09BFE01A970200194FE
:100E1000FFF7F4FD09F094FE01A974200195FFF796
:100E2000EDFD09F08DFE01A978200195FFF7E6FDA3
:100E300009F086FE01A97C200194FFF7DFFD09F08F
:100E40007FFE01A980200195FFF7D8FD09F078FE0B
:100E500001A984200194FFF7D1FD09F071FE01A9D9
:100E600088200194FFF7CAFD09F06AFE01A98C20D1
:100E70000194FFF7C3FD09F063FE01A990200194DE
:100E8000FFF7BCFD03B030BD700C00205C0C0020EF
:100E90002DE9F347C64C09F053FE21460020FFF729
:100EA000CCFD2368013304D140F213632360FFF7C4
:100EB000C7FE09F045FE01A90820FFF7BEFD019815
:100EC0000AF0B0FCBB490AF0B5FDDFF87493DFF817
:100ED0007483C9F8000009F033FE01A91020FFF760
:100EE000ACFD01980AF09EFCB2490AF0A3FDC8F8D7
:100EF000000009F025FE01A99820FFF79EFD01984A
:100F00000AF090FCAB490AF095FDAB4FAB4E386050
:100F100009F016FE01A91820FFF78FFD01980AF0CD
:100F200081FCA4490AF086FD306009F009FE01A9A0
:100F30002020FFF782FD01980AF074FC9D490AF019
:100F400079FD9F4D9F4C286009F0FAFD01A92820EA
:100F5000FFF773FD01980AF065FC96490AF06AFDF7
:100F6000206009F0EDFD01A93020FFF766FD019832
:100F70000AF058FC8F490AF05DFD934BDFF8C8A2D8
:100F8000186009F0DDFD01A93820FFF756FD019832
:100F90000AF048FC87490AF04DFD8C4B186009F0B7
:100FA000CFFD01A94020FFF748FD01980AF03AFC67
:100FB00080490AF03FFD864B186009F0C1FD854964
:100FC0000420FFF73AFD09F0BBFD83490C20FFF731
:100FD00034FD09F0B5FD81499420FFF72EFD09F09D
:100FE000AFFD7F491420FFF728FD09F0A9FD7D49D9
:100FF0001C20FFF722FD09F0A3FD7B492420FFF709
:101000001CFD09F09DFD79492C20FFF716FD09F024
:1010100097FD77493420FFF710FD09F091FD7549E0
:101020003C20FFF70AFD09F08BFD73494420FFF7D0
:1010300004FD09F085FD71494820FFF7FEFC09F029
:101040007FFD6F495820FFF7F8FC09F079FD6D49E5
:101050005C20FFF7F2FC09F073FD6B494C20FFF7B1
:10106000ECFC09F06DFD69495020FFF7E6FC09F042
:1010700067FD01A95420FFF7E0FC01980AF0D2FBBC
:1010800008F0F4FB09F05CFD61496020FFF7D5FC36
:1010900009F056FD5F496420FFF7CFFC09F050FDD1
:1010A0005D496820FFF7C9FC09F04AFD5B496C20E7
:1010B000FFF7C3FC09F044FD59497020FFF7BDFC60
:1010C00009F03EFD57497420FFF7B7FC09F038FDE1
:1010D00055497820FFF7B1FC09F032FD53497C20D7
:1010E000FFF7ABFC09F02CFD51498020FFF7A5FC70
:1010F00009F026FD4F498420FFF79FFC09F020FDF1
:101100004D498820FFF799FC09F01AFD51468C20C3
:10111000FFF793FC09F014FD90204849FFF78DFC80
:10112000DAF8003013B1002008F0A0FB41F287315B
:101130003C4AD9F800001368013B8B4288BF012369
:101140004FF0000188BF13600AF054FD18B14FF052
:101150007E53C9F800300021D8F800000AF04AFD9B
:1011600018B14FF07E53C8F80030002138680AF0FB
:1011700041FD10B14FF07E533B60002130680AF012
:1011800039FD10B14FF07E533360002128680AF01A
:1011900031FD10B14FF07E532B60002120680AF022
:1011A00029FD10B14FF07E53236002B0BDE8F087F7
:1011B000800000200000C842CC020020EC02002089
:1011C000F4020020E4020020600C002098070020B8
:1011D000A0070020BC020020D4020020D80200207A
:1011E000F0020020F8020020E8020020640C002039
:1011F0009C070020A4070020280C0020E805002000
:1012000058070020700C0020980000209C0000204F
:10121000680C0020500700204C07002054070020D5
:101220005C07002048070020600500204C050020D6
:10123000B4060020D00200206C060020DC0500204F
:10124000B8020020C8020020240C002010B509F0CC
:1012500087F903681B69984790B9FFF76FFC03682B
:101260001B6998470028F2DDFFF768FC03685B699B
:101270009847044609F074F9E1B208F009F9E6E785
:1012800010BD00002DE9F34106460D4600240F4F26
:1012900001F1FF38AC4212D03946325D01A807F0A7
:1012A00071FB09F05DF901A908F0EEF8A04504D042
:1012B00009F056F9202108F0EBF80134EAE709F0CB
:1012C0004FF908F0E8F802B0BDE8F0815ADD0808EF
:1012D000F8B504460D4606460F18BE4207D0FFF784
:1012E0002DFC036816F8011B9B689847F5E7294613
:1012F0002046BDE8F840FFF7C5BF00001FB5074A0C
:1013000001AB52F80E0F5168128903C30A2101A8DC
:101310001A80FFF7DDFF05B05DF804FBF4FE080856
:101320001FB5074A01AB52F8180F5168128903C361
:101330000A2101A81A80FFF7CBFF05B05DF804FB76
:10134000F4FE08080000000038B52F4B1D682F4B35
:101350001B680BB32E4B58890AF060FA2D490AF02E
:1013600069FB2D490AF0B2FA2C490AF0A5F90446A6
:1013700025B109F0F5F82A4908F099F8294B2046DB
:1013800019680AF0A3FA0446274B18680AF04AFACB
:1013900021460AF093F938BD244B1B6813B325B1DD
:1013A00009F0DEF8224908F082F80B2009F0B0FBC2
:1013B0000AF038FA09F0DCFD0FA3D3E9002309F0A5
:1013C0002FFE0AF025F94FF07C510AF075F909F06B
:1013D000CFFD0BA3D3E9002309F04CFF0AF018F965
:1013E0000446CBE725B109F0BBF8124908F05FF8D5
:1013F000114B1C68C2E700BF2D431CEBE2364A3F8D
:101400007B14AE47E17A843FE8050020B406002053
:10141000A806002000F87F46000025430000204277
:101420005FDD0808600C0020640C00204C070020E1
:1014300080DD08089FDD08086405002038B5194BD9
:101440001D68194B1B682BB3184B18890AF0E6F975
:1014500017490AF0EFFA17490AF038FA044625B19D
:1014600009F07EF8144908F022F8144B2046196858
:101470000AF02CFA0446124B18680AF0D3F92146F8
:101480000AF01CF90B4904460AF0DCFB00B1094CD8
:10149000204638BD0B4B9C68002DE6D009F060F863
:1014A0000949E0E7E8050020B4060020A80600206E
:1014B00000F87F460000C842CBDD0808A0070020E6
:1014C000A407002064050020E9DD080800000000F2
:1014D0002DE9F0478E4F88B068468E4907F010FE20
:1014E0003A6822B109F03CF88B4907F0E0FF8B4DD8
:1014F0000021288809F0F3FA09F074FB01224A213F
:1015000009F0F5F948BB09F02BF8854907F0CFFF42
:1015100000240021834804F04EFD30B93B6823B11C
:1015200009F01EF8804907F0C2FF09F05BFB0122B9
:101530004A2109F0DCF9002839D168467B4907F0D7
:1015400031FE00240121288809F0C9FA684607F015
:101550008DFD204608B0BDE8F0870321744804F0F3
:1015600071FE0AF05FF9734B19680AF0AFF972491E
:1015700004460AF05FFA064609F0FAFC00226F4BB7
:1015800009F096FB21F00049002249466C4B09F016
:10159000D7FF0028BDD008F0E3FF6A4907F074FFC9
:1015A00008F0DEFF0222314608F080F8B1E70021A2
:1015B0005C4804F000FD0028BFD020465E490AF0D8
:1015C00039FA09F0D5FC00225C4B09F071FB21F0DF
:1015D0000047002239465A4B09F0B2FF0446002862
:1015E000ABD10A2780468146514E0021304604F097
:1015F00029FE01218144304604F024FE022180446A
:10160000304604F01FFE0321304604F01BFE013F6C
:101610000444EAD14FF00A0A464BB4FBFAF01F68C3
:101620000AF000F939460AF051F90446B9FBFAF01C
:101630000AF0F8F839460AF049F9014620460AF05E
:101640003BF841490AF0F6F90646B8FBFAF00AF011
:10165000E9F839460AF03AF9014620460AF02CF832
:101660003A490AF0E7F90446FFF76EFE38490AF0F6
:10167000D5FAD0B1214630460AF01EF809F078FCC0
:101680001FA3D3E9002309F0F5FD09F0C1FF0222F1
:101690000146044604A807F0CDFD684604A907F0FA
:1016A00079FD04A807F0E2FC4CE7FFF74DFE29495D
:1016B0000AF0B4FA20B12146304609F0FFFFDDE719
:1016C000FFF742FE23490AF0BDFAA8B1204609F00F
:1016D0004FFC0DA3D3E9002309F0A2FC804630465D
:1016E000894609F045FC02460B464046494609F04A
:1016F000E1FA09F08DFFC1E70020BFE7AFF30080FA
:10170000B6F3FDD478E9D63F52B81E85EB51E83FD9
:10171000E80500207500090803DE0808C400002061
:1017200019DE0808BA0600204EDE080875DE080833
:10173000560500208400002000007A440000F43F99
:101740000000E03F3EDE08080000F0C2000016C3C3
:10175000000070410000C84130B51E49044685B004
:1017600002230C22A1F58E60FFF724FA60B308F083
:10177000F7FE194907F09BFE184A1949194D4623EF
:1017800012680968184805F0A0FF2B689BB9174933
:10179000174807F08CFE08F09EF9C317024668460A
:1017A00008F096F80099124807F081FE684607F0A5
:1017B0005DFC01232B6021680D4807F078FE0A4884
:1017C00005F07CFF05B030BD08F0CAFE094907F0FE
:1017D0006EFEF7E71C0C002079DE080800070020E9
:1017E000BC0C00203C0700201807002093DE0808EE
:1017F00010070020AADE08082DE9F0478CB06846E3
:10180000B94907F07DFCB94FDFF8DC82B84EFFF72D
:1018100095F90D22014608A807F0B2FF08A968460D
:1018200007F0B8FC08A807F021FC0723042269464A
:1018300004A807F0B9FD394604A807F07FFD054666
:1018400068BB4146684607F079FD044650B308F08E
:1018500087FE314607F02BFE314608A807F050FC02
:1018600008A8FFF779FF08A807F000FC012404A8E6
:1018700007F0FCFB5DB14FF000089E4904A807F09B
:101880003FFC4746DFF888929B4E9C4D32E0002C8F
:10189000BDD0684607F0EAFB0CB0BDE8F087002435
:1018A0000125E4E70546E2E704F1010A51466846EE
:1018B00007F05FFD2C281AD004F10B03524669464D
:1018C00008A807F071FD08A904A807F063FC08A8A0
:1018D00007F0CCFB8A4B1B684BB108F041FE8949ED
:1018E00007F0D2FD08F03CFE049907F0E0FD013757
:1018F00008F10108029B1FFA88F4A34240F2F0802D
:101900002146684607F035FD2C28F1D1072F00F25B
:10191000E18001A353F827F0A9180808391908082D
:10192000D51A0808AB190808D51A0808D51A0808E6
:10193000151A0808531A080804F1010A51466846A6
:1019400007F017FD2C28D2D004F10A03524669464D
:1019500008A807F029FD08A904A807F01BFC08A89F
:1019600007F084FB664B1B684BB108F0F9FD664934
:1019700007F08AFD08F0F4FD049907F085FD04A93D
:1019800008A807F0FCFB04F10C01684607F0F1FC25
:1019900008A90246304604F07FFC08A807F066FB61
:1019A0002B8823F008032B80A1E704F1010A51469C
:1019B000684607F0DEFC2C2899D004F10B03524650
:1019C000694608A807F0F0FC08A904A807F0E2FBA4
:1019D00008A807F04BFB4A4B1B684BB108F0C0FD51
:1019E0004A4907F051FD08F0BBFD049907F04CFD92
:1019F00004A908A807F0C3FB04F10D01684607F02D
:101A0000B8FC08A90246304604F08EFC08A807F08E
:101A10002DFB6CE704F1010A5146684607F0A9FC6A
:101A20002C283FF464AF5246E31C694608A807F02F
:101A3000BBFC08A904A807F0ADFB08A807F016FB3B
:101A400004A908A807F09BFB304608A904F0B2FCE3
:101A5000DCE704F1010A5146684607F08AFC2C28AD
:101A60003FF445AF5246E31C694608A807F09CFCCA
:101A700008A904A807F08EFB08A807F0F7FA04A944
:101A800008A807F07CFB08A9304604F09BFC08A8D6
:101A900007F0ECFA2B88304623F00C032B8004F07F
:101AA000A7FC012803DC2B8843F00C037BE73046BE
:101AB00004F09EFC042803DC2B8843F0080372E743
:101AC000304604F095FC13283FF711AF2B8843F004
:101AD000040368E708F044FD4946FEF7C1FF06E746
:101AE00004A807F0C3FAD4E6C6DE0808CBDE08086F
:101AF000CFDE08087500090870060020480C002099
:101B0000E8050020E1DE0808F2DE080804DF080826
:101B100017DF08082DE9F04790B0B649684607F08E
:101B2000EFFAB54904A807F0EBFAB44DB14CFFF752
:101B300005F80D2201460CA807F022FE0CA9684604
:101B400007F028FB0CA807F091FA07230422694646
:101B50000CA807F029FC0CA904A807F01BFB0CA893
:101B600007F084FA294604A807F0E8FB002840F0B3
:101B700036812146684607F0E1FB0028D7D008F0FF
:101B8000EFFC9F4907F093FC9D490CA807F0B8FAB9
:101B90000CA8FFF7E1FD0CA807F068FA04A807F00D
:101BA00065FA684607F062FA10B0BDE8F08704F104
:101BB000010A5146684607F0DCFB2C2800F08A80B9
:101BC00004F10B03524669460CA807F0EDFB0CA983
:101BD00008A807F0DFFA0CA807F048FA894B1B6841
:101BE000002B77D008F0BCFC874907F04DFC08F0CB
:101BF000B7FC089907F05BFC6CE004F1010A514660
:101C0000684607F0B6FB2C2864D004F10A0352465C
:101C100069460CA807F0C8FB0CA908A807F0BAFA97
:101C20000CA807F023FA774B1B684BB108F098FC1F
:101C3000764907F029FC08F093FC089907F024FC8A
:101C400008A90CA807F09BFA04F10C01684607F0FC
:101C500090FB0CA90246304604F01EFB0CA807F0CE
:101C600005FA2B8823F008032B8033E004F1010AE6
:101C70005146684607F07DFB2C282BD004F10B035E
:101C8000524669460CA807F08FFB0CA908A807F07C
:101C900081FA0CA807F0EAF95A4B1B684BB108F01F
:101CA0005FFC5B4907F0F0FB08F05AFC089907F06D
:101CB000EBFB08A90CA807F062FA04F10D016846D5
:101CC00007F057FB0CA90246304604F02DFB0CA888
:101CD00007F0CCF908F101080137029BBCB2A3421E
:101CE0007BD92146684607F044FB2C28F4D108F143
:101CF000FF33062B6DD801A252F823F0FB1B080816
:101D0000D31D08086D1C0808D31D0808191D0808F4
:101D1000AF1B0808551D080804F1010A5146684622
:101D200007F027FB2C28D5D05246E31C69460CA8A7
:101D300007F03AFB0CA908A807F02CFA0CA807F04A
:101D400095F908A90CA807F01AFA30460CA904F076
:101D500031FBBCE704F1010A5146684607F009FB74
:101D60002C28B7D05246E31C69460CA807F01CFB90
:101D70000CA908A807F00EFA0CA807F077F908A933
:101D80000CA807F0FCF90CA9304604F01BFB0CA8CA
:101D900007F06CF92B88304623F00C032B8004F0FD
:101DA00027FB012803DC2B8843F00C035CE730465B
:101DB00004F01EFB042803DC2B8843F0080353E7E0
:101DC000304604F015FB132884DC2B8843F0040311
:101DD0004AE708F0C5FB49460CE708A8DCE60027FF
:101DE000054908A807F08CF9B846DFF83090094E8D
:101DF000094D72E7C6DE08087500090845DF0808C6
:101E000033DF0808E8050020E1DE0808F2DE0808F4
:101E100004DF080870060020480C002049DF08088D
:101E20002DE9F04F8BB0AC4902A807F069F9AB4B34
:101E30001A689A4622B108F093FBA94907F037FBCC
:101E4000A84C0021208808F04AFE08F0CBFE0122B1
:101E5000492108F04CFD01940546002866D1DAF8C6
:101E600000407CB108F07CFB9F4907F020FB9E49B5
:101E700006A807F045F906A8FFF76EFC06A807F0CC
:101E8000F5F82C460021994804F095F888B9DAF85D
:101E9000003073B108F064FB954907F008FB9549E1
:101EA00006A807F02DF906A8FFF756FC06A807F0CC
:101EB000DDF808F097FE0122492108F018FD0028FE
:101EC00069D100258C4902A807F06CF94FF0000891
:101ED0002E462F46019B0121188808F000FEDAF8F3
:101EE0000030E3B108F03CFB844907F0CDFA08F07C
:101EF00037FB3A468249FEF7B3FD08F031FB324624
:101F00008049FEF7ADFD08F02BFB2A467E49FEF71F
:101F1000A7FD08F025FB22467C49FEF7A1FD02A89B
:101F200007F0A4F840460BB0BDE8F08F03217848D5
:101F300004F088F9044609F075FC764B196809F03D
:101F4000C5FC754909F076FD09F012F80022734BC3
:101F500006460F4608F0ACFE21F000490022494633
:101F60006F4B09F0EDFA00288CD0DAF80030002B26
:101F700088D008F0F5FA32463B466A49FEF770FD14
:101F8000694906A807F0BCF806A8FFF7E5FB06A814
:101F900007F06CF876E70021544804F00CF80028AC
:101FA0008FD000244FF00A08A14626462746584DF8
:101FB0000021284604F046F901210744284604F090
:101FC00041F902210644284604F03CF903218144EA
:101FD000284604F037F908F1FF3818F0FF080444E8
:101FE000E6D10A20B4FBF0F44A4BB9FBF0F5D3F884
:101FF0000090B7FBF0F7B6FBF0F6204609F012FCB4
:10200000494609F063FC8046384609F00BFC494616
:1020100009F05CFC0146404609F04EFB434909F0DB
:1020200009FD8346304609F0FDFB494609F04EFCA8
:102030000146404609F040FB3D4909F0FBFC804663
:10204000FFF782F93B4909F0E9FDD0B14146584616
:1020500009F032FB08F08CFF1BA3D3E9002309F041
:1020600009F909F0D5FA02220146804606A807F0D0
:10207000E1F806A902A807F08DF806A806F0F6FF19
:1020800028E7FFF761F92C4909F0C8FD20B1414666
:10209000584609F013FBDDE7404608F069FF0CA342
:1020A000D3E9002308F0BCFF80465846894608F073
:1020B0005FFF02460B464046494608F0FBFD09F02B
:1020C000A7FAC7E7AFF30080B6F3FDD478E9D63FAF
:1020D00052B81E85EB51E83F75000908E80500205D
:1020E00071DF0808C000002085DF0808B90600205D
:1020F000D5DF0808F9DF080875DE08080CE00808D5
:1021000021E008082EE008083BE0080849E008083C
:10211000500500208400002000007A440000F43FB5
:102120000000E03FAADF0808BCDF08080000F0C29A
:10213000000016C3000070410000C84110B590B007
:102140001D4908A806F0DCFF1C4904A807F017F891
:1021500004A908A807F0D2F8194907F0DBF80446EB
:1021600018490CA807F00BF80CA9204607F0C6F890
:10217000154907F0CFF80146684607F000F80CA8AB
:1021800006F074FF04A806F071FF08A806F06EFFC1
:1021900008F0E6F90D4907F08AF908F0FFFA00990E
:1021A00007F085F908F0DCF9094907F080F968467D
:1021B00006F05CFF10B010BD59E00808380C002094
:1021C0005CE00808600700205FE108085EE008089E
:1021D00082E00808000000002DE9F04F8DB000AF4C
:1021E0006549384606F08CFF644E654907F11000DA
:1021F00006F086FF08F0D2FA40F6B83107F0AAFAE6
:1022000033688BB108F0ACF95E4907F050F95D49CD
:1022100007F1200006F074FF07F12000FFF79CFA99
:1022200007F1200006F022FF0FF24419D9E90089D6
:1022300008F0B4FA396807F027F9002400254FF0B8
:10224000000ADFF850B108F0A9FA03681B69984743
:10225000E0B9BAF1000F19D10022204629464A4BB5
:1022600008F028FD42464B4604460D4609F068F941
:102270000028E8D0336833B108F072F922462B46C3
:102280005946FEF7EDFB4FF0010ADCE70A2007F0A4
:1022900083FC08F083FA014607F1200007F05CFA9E
:1022A00007F1200107F1100006F074FF07F120008C
:1022B00006F0DCFEBA6907F11000D31D23F0070316
:1022C000ADEB030D6946002307F055F82F4907F1E0
:1022D000200006F015FF08F043F92D4907F0E7F854
:1022E00008F03EF969466D4607F0E1F80124274EF3
:1022F000DFF8A480DFF8A490284609F062FEA0422F
:1023000027D92B5D402B06D0295D07F1200006F070
:10231000E8FF0134F0E7314607F1200007F00EF83E
:102320000028F1D1414607F1200007F007F8002806
:10233000EAD108F015F9494607F0B9F808F010F9A4
:10234000396A07F0B4F8314607F1200006F02AFF99
:10235000DFE707F1200006F089FE07F1100006F024
:1023600085FE384606F082FE3437BD46BDE8F08F64
:1023700000000000004CCD408BE00808E80500207C
:1023800052FD08088EE008080000F03F75000908BB
:10239000ACE00808D6E0080811E1080813E10808D5
:1023A00010B52C4C0121208808F099FBFA2007F089
:1023B000F3FB0021208808F092FBFA2007F0ECFBE9
:1023C0000121208808F08BFBFA2007F0E5FB0021B3
:1023D000208808F084FBFA2007F0DEFB012120882A
:1023E00008F07DFBFA2007F0D7FB0021208808F0D9
:1023F00076FBFA2007F0D0FB0121208808F06FFB64
:10240000FA2007F0C9FB0021208808F068FBFA20B9
:1024100007F0C2FB0121208808F061FBFA2007F0D9
:10242000BBFB0021208808F05AFBFA2007F0B4FB20
:102430000121208808F053FBFA2007F0ADFB20882B
:10244000002108F04CFBBDE810406B210720FEF78F
:10245000DBBB00BFCC000020F8B5174F174E388803
:10246000174D002108F03BFB164C3088002108F086
:1024700036FB2888002108F032FB0021208808F074
:102480002EFB4FF47A7007F087FB3888012108F0A3
:1024900026FB3088012108F022FB2888012108F062
:1024A0001EFB2088012108F01AFBBDE8F8404FF41C
:1024B0007A7007F071BB00BF90000020C8000020B8
:1024C000880000208C00002000B58FB0834902A84E
:1024D00006F016FE08F044F8814906F0E8FF0023F4
:1024E0000093804B06A8D3E9002306F0BAFE06A9A4
:1024F0000AA806F044FE7C490AA806F00BFF014634
:1025000002A806F0DBFE0AA806F0B0FD06A806F059
:10251000ADFD764B0322196806A806F08BFE06A9CE
:102520000AA806F02CFE70490AA806F0F3FE014640
:1025300002A806F0C3FE0AA806F098FD06A806F059
:1025400095FD6B4B0322196806A806F073FE06A9D9
:102550000AA806F014FE64490AA806F0DBFE01464C
:1025600002A806F0ABFE0AA806F080FD06A806F059
:102570007DFD604803F032FF0022002308F0B8FF21
:10258000002840F09C805B4803F043FF18B95A498B
:1025900002A806F097FE574803F020FF0B460621DD
:1025A0000246009106A806F05CFE06A90AA806F0FD
:1025B000E6FD4D490AA806F0ADFE014602A806F068
:1025C0007DFE0AA806F052FD06A806F04FFD494818
:1025D00003F009FF0022002308F08AFF002873D1CE
:1025E000444803F019FF012803D1434902A806F02B
:1025F00069FE404803F0F7FE0B46062102460091B3
:1026000006A806F02EFE06A90AA806F0B8FD36496F
:102610000AA806F07FFE014602A806F04FFE0AA8AF
:1026200006F024FD06A806F021FD324803F0DBFE8B
:102630000022002308F05CFF00284AD12D4803F057
:10264000D7FE08F083FC00222C4B08F013FE0B464B
:1026500006210246009106A806F003FE06A90AA874
:1026600006F08DFD20490AA806F054FE014602A896
:1026700006F024FE0AA806F0F9FC06A806F0F6FC0F
:102680001F4B0AA800931F4B1F49D3E9002307F0F3
:10269000C3F90AA902A806F011FE0AA806F0E6FC92
:1026A0001A4902A806F00EFE08F078F8029906F022
:1026B000EBFE02A806F0DAFC0FB05DF804FB14494B
:1026C00006A806F01DFD70E7124906A806F018FDE1
:1026D00099E7114906A806F013FDBFE732E10808A3
:1026E00034E10808400700205CE00808C002002030
:1026F000C40200207006002049E1080800002440C0
:102700004BE10808500C0020DC0C00205DE10808BB
:10271000A6000020B2000020A000002038B51D480F
:1027200006F0D2F9054607F01BFF2A461A49FEF7C4
:1027300097F9642D1FD0962D1FD0B5F5FA7F1FD0C5
:10274000B5F5617F1FD0B5F5966F40F2DC5407D028
:10275000A5421BD040F6B834B5F5FA6F18BF2C4629
:10276000A1B20C4806F0F1F907F0FAFE22460B4937
:10277000FEF776F938BD9624F2E74FF4FA74EFE7E6
:102780004FF46174ECE74FF49664E9E74FF4FA64B0
:10279000E6E700BF7007002061E108087FE1080854
:1027A0007FB52D4806F09CF910F0800F14BF4FF450
:1027B000006500250446430648BF05F5806586068A
:1027C00048BF05F50075E00648BF05F5807521078F
:1027D00048BF8035620748BF403507F0C1FE2A4632
:1027E0001E49FEF73DF9201D030656BF00214FF498
:1027F00000650D46C4B248BF012114F040021CBF61
:1028000005F58065012214F020031CBF012305F5A6
:10281000007514F010001CBF05F58075012014F040
:1028200008061CBF8035012614F0040418BF0124DB
:102830000090CDE90164084818BF403506F0E3F97F
:10284000054806F04DF907F08BFE2A460449FEF7CD
:1028500007F904B070BD00BF700700209DE10808B3
:10286000C6E1080830B55A4D95B007F079FE5949D0
:1028700006F00AFE584C07F073FE296806F017FEB2
:1028800007F06EFE554906F0FFFD07F069FE21686E
:1028900006F00DFE07F064FE514906F008FE07F051
:1028A0005FFE4CF2503106F055FF07F059FE0D2245
:1028B0000146684606F064FF68464A4906F03EFD58
:1028C000002874D007F04CFE474906F0F0FD07F0F1
:1028D00047FE464906F0EBFD07F042FE4CF2503150
:1028E00006F038FF07F03CFE0D22014604A806F072
:1028F00047FF07F035FE3E4906F0C6FD07F030FE03
:10290000049906F0D4FD07F02BFE3A4906F0CFFDFE
:1029100007F026FE0D22014608A806F031FF3649D1
:1029200008A806F00BFD00284CD007F019FE33492B
:1029300006F0BDFD04A9284606F012FC07F010FEC3
:102940002F4906F0B4FD07F00BFE0D2201460CA83E
:1029500006F016FF07F004FE2A4906F095FD07F081
:10296000FFFD0C9906F0A3FD07F0FAFD0D220146CC
:1029700010A806F005FF204910A806F0DFFCD8B12A
:1029800007F0EEFD204906F092FD0CA9204606F066
:10299000E7FBFFF7D3FB10A806F068FB0CA806F0D6
:1029A00065FB08A806F062FB04A806F05FFB68461A
:1029B00006F05CFB15B030BD07F0D2FD134906F000
:1029C00076FDE8E707F0CCFD104906F070FDE8E77A
:1029D000380C0020E4E1080860070020FAE108084C
:1029E00014E2080846E208084CE208085EE208081B
:1029F0006EE2080886E208087CEA08089CE20808FB
:102A0000ACE20808BFE20808DBE20808EFE20808C9
:102A10001FB507F0A5FD194906F049FD07F0A0FD17
:102A20004CF2503106F096FE07F09AFD0D22014659
:102A3000684606F0A5FE6846114906F07FFCB8B16D
:102A400007F08EFD0F4906F032FD07F089FD0E49B3
:102A500006F02DFD01230D4C236008F071F821468E
:102A60008C20FDF7CBFF684606F000FB04B010BDDC
:102A700007F076FD064906F01AFDF4E702E30808C0
:102A800045E308084CE2080850E30808240C00203D
:102A900071E308081FB507F063FD06F0FCFC07F0C2
:102AA0005FFD144906F003FD07F05AFD4CF250316A
:102AB00006F050FE07F054FD0D220146684606F070
:102AC0005FFE68460C4906F039FC60B107F048FD2E
:102AD0000A4906F0ECFCFEF7B3F8684606F0C6FAC1
:102AE00005B05DF804FB07F03BFD054906F0DFFC8F
:102AF000F3E700BF87E3080846E20808C0E30808D8
:102B000071E3080810B588B007F02AFD204906F0E7
:102B1000CEFC07F025FD4CF2503106F01BFE07F00D
:102B20001FFD0D220146684606F02AFE684606F0A3
:102B30005DFC044607F014FD164906F0B8FC164B80
:102B40009C421EDDE117204606F0AEFE07F008FDB0
:102B5000124906F099FC07F003FD044606F0BBFF9E
:102B60000246C31704A806F0B3FE2046049906F0F7
:102B70009EFC04A806F07AFA684606F077FA08B0D8
:102B800010BD07F0EDFC064906F091FCF4E700BF2C
:102B90002FE4080875000908F52E94396AE408083E
:102BA0007DE4080830B58BB007F0DAFC06F073FC62
:102BB00007F0D6FC324906F067FC07F0D1FC04466A
:102BC000304D0222296806A806F034FB06992046FB
:102BD00006F05AFC06A806F049FA07F0C1FC2A499B
:102BE00006F065FC07F0BCFC284906F04DFC07F038
:102BF000B7FC4CF2503106F0ADFD07F0B1FC0D22F0
:102C0000014602A806F0BCFD02A806F0F4FB4FF056
:102C10007C51044609F00CF858B320461C4908F0D2
:102C2000F3FF30B31B4920462C6008F04FFE09F03B
:102C300013F8019007F094FC174906F025FC07F003
:102C40008FFC04460222296806A806F0F3FA0699CA
:102C5000204606F02CFC06A806F008FA07F070FFE4
:102C6000082001A9FDF7CAFE02A806F0FFF90BB083
:102C700030BD07F075FC094906F019FCF4E700BF08
:102C80008EE40808B8020020A1E40808A6E40808B9
:102C9000000020410000C842BCE408087DE40808A8
:102CA00030B58BB007F05CFC06F0F5FB07F058FC84
:102CB000374906F0E9FB07F053FC0446354D022284
:102CC000296806A806F0B6FA0699204606F0DCFB4D
:102CD00006A806F0CBF907F043FC2F4906F0E7FB06
:102CE00007F03EFC2D4906F0CFFB07F039FC4CF213
:102CF000503106F02FFD07F033FC0D22014602A8EB
:102D000006F03EFD02A806F076FB044608F030F916
:102D10001DA3D3E9002308F009FC60B34FF0804104
:102D2000204608F071FF30B31D4920462C6008F0A2
:102D3000CDFD08F091FF019007F012FC194906F053
:102D4000A3FB07F00DFC04460222296806A806F042
:102D500071FA0699204606F0AAFB06A806F086F945
:102D600007F0EEFE102001A9FDF748FE02A806F0CC
:102D70007DF90BB030BD07F0F3FB0B4906F097FB74
:102D8000F4E700BFAFF300809A9999999999B93FF8
:102D9000CEE40808C8020020A1E40808E0E408081E
:102DA0000000C842F5E408087DE4080830B58BB09F
:102DB00007F0D6FB06F06FFB07F0D2FB324906F0B6
:102DC00063FB07F0CDFB0446304D0222296806A8BC
:102DD00006F030FA0699204606F056FB06A806F0E3
:102DE00045F907F0BDFB2A4906F061FB07F0B8FB87
:102DF000284906F049FB07F0B3FB4CF2503106F0CE
:102E0000A9FC07F0ADFB0D22014602A806F0B8FCB4
:102E100002A806F0F0FA4FF07C51044608F008FFD3
:102E200060B34FF07F51204608F0EEFE30B31A49F0
:102E300020462C6008F04AFD08F00EFF019007F0D4
:102E40008FFB164906F020FB07F08AFB044602229E
:102E5000296806A806F0EEF90699204606F027FB39
:102E600006A806F003F907F06BFE182001A9FDF78C
:102E7000C5FD02A806F0FAF80BB030BD07F070FBF4
:102E8000074906F014FBF4E707E50808EC02002008
:102E900052FD08081AE508080000C84230E5080895
:102EA0007DE4080830B58BB007F05AFB06F0F3FA62
:102EB00007F056FB324906F0E7FA07F051FB0446EB
:102EC000304D0222296806A806F0B4F9069920467A
:102ED00006F0DAFA06A806F0C9F807F041FB2A491D
:102EE00006F0E5FA07F03CFB284906F0CDFA07F0BA
:102EF00037FB4CF2503106F02DFC07F031FB0D2270
:102F0000014602A806F03CFC02A806F074FA4FF055
:102F10007C51044608F08CFE60B34FF07F51204690
:102F200008F072FE30B31A4920462C6008F0CEFC3F
:102F300008F092FE019007F013FB164906F0A4FA80
:102F400007F00EFB04460222296806A806F072F973
:102F50000699204606F0ABFA06A806F087F807F0B7
:102F6000EFFD202001A9FDF749FD02A806F07EF83B
:102F70000BB030BD07F0F4FA074906F098FAF4E711
:102F800042E50808F402002052FD080857E5080849
:102F90000000C8426FE508087DE4080830B58BB032
:102FA00007F0DEFA06F077FA07F0DAFA324906F0AF
:102FB0006BFA07F0D5FA0446304D0222296806A8BC
:102FC00006F038F90699204606F05EFA06A806F0E3
:102FD0004DF807F0C5FA2A4906F069FA07F0C0FA79
:102FE000284906F051FA07F0BBFA4CF2503106F0CE
:102FF000B1FB07F0B5FA0D22014602A806F0C0FBAE
:1030000002A806F0F8F94FF07C51044608F010FED3
:1030100060B34FF07F51204608F0F6FD30B31A49F7
:1030200020462C6008F052FC08F016FE019007F0D4
:1030300097FA164906F028FA07F092FA0446022297
:10304000296806A806F0F6F80699204606F02FFA39
:1030500006A806F00BF807F073FD282001A9FDF77C
:10306000CDFC02A806F002F80BB030BD07F078FAEC
:10307000074906F01CFAF4E783E50808E40200209B
:1030800052FD080897E508080000C842AEE50808A8
:103090007DE4080830B58BB007F062FA06F0FBF962
:1030A00007F05EFA324906F0EFF907F059FA0446E4
:1030B000304D0222296806A806F0BCF80699204681
:1030C00006F0E2F906A805F0D1FF07F049FA2A490F
:1030D00006F0EDF907F044FA284906F0D5F907F0B3
:1030E0003FFA4CF2503106F035FB07F039FA0D2269
:1030F000014602A806F044FB02A806F07CF94FF056
:103100007C51044608F094FD60B34FF07F51204697
:1031100008F07AFD30B31A4920462C6008F0D6FB3F
:1031200008F09AFD019007F01BFA164906F0ACF979
:1031300007F016FA04460222296806A806F07AF873
:103140000699204606F0B3F906A805F08FFF07F0B0
:10315000F7FC302001A9FDF751FC02A805F086FF1D
:103160000BB030BD07F0FCF9074906F0A0F9F4E711
:10317000C1E50808600C0020DCE50808E7E5080860
:103180000000C84205E608087DE4080830B58BB0A9
:1031900007F0E6F906F07FF907F0E2F9324906F0A8
:1031A00073F907F0DDF90446304D0222296806A8BC
:1031B00006F040F80699204606F066F906A805F0E4
:1031C00055FF07F0CDF92A4906F071F907F0C8F963
:1031D000284906F059F907F0C3F94CF2503106F0CE
:1031E000B9FA07F0BDF90D22014602A806F0C8FAA7
:1031F00002A806F000F94FF07C51044608F018FDD3
:1032000060B34FF07F51204608F0FEFC30B31A49FE
:1032100020462C6008F05AFB08F01EFD019007F0D4
:103220009FF9164906F030F907F09AF90446022290
:10323000296806A805F0FEFF0699204606F037F932
:1032400006A805F013FF07F07BFC382001A9FDF765
:10325000D5FB02A805F00AFF0BB030BD07F080F9DE
:10326000074906F024F9F4E71FE60808980700204C
:1032700037E608083DE608080000C84258E6080896
:103280007DE4080830B58BB007F06AF906F003F961
:1032900007F066F9324906F0F7F807F061F90446DD
:1032A000304D0222296806A805F0C4FF0699204681
:1032B00006F0EAF806A805F0D9FE07F051F92A4908
:1032C00006F0F5F807F04CF9284906F0DDF807F0AC
:1032D00047F94CF2503106F03DFA07F041F90D2262
:1032E000014602A806F04CFA02A806F084F84FF056
:1032F0007C51044608F09CFC58B320461C4908F059
:1033000083FC30B31B4920462C6008F0DFFA08F03C
:10331000A3FC019007F024F9174906F0B5F807F06F
:103320001FF904460222296806A805F083FF0699C2
:10333000204606F0BCF806A805F098FE07F000FC51
:10334000402001A9FDF75AFB02A805F08FFE0BB043
:1033500030BD07F005F9094906F0A9F8F4E700BF08
:103360006FE60808A007002081E6080884E6080840
:10337000000020410000C84299E608087DE40808E2
:1033800070B50C4D0C4E07F0EBF803681B699847BD
:1033900078B9FEF745FD286007F0E2F80446286892
:1033A00007F0E6FD02460B4620463146FDF758FB86
:1033B000E9E770BDC0020020AAE6080808B507F0DA
:1033C000CFF8A24906F073F807F0CAF8A04906F052
:1033D0006EF807F0C5F89F4906F069F807F0C0F8E5
:1033E0009D4906F064F807F0BBF89C4906F05FF8C9
:1033F00007F0B6F89A4906F05AF807F0B1F899497B
:1034000006F055F807F0ACF8974906F050F807F0C9
:10341000A7F8964906F04BF807F0A2F8944906F091
:1034200046F807F09DF8934906F041F807F098F840
:10343000914906F03CF807F093F8904906F037F808
:1034400007F08EF88E4906F032F807F089F88D49BA
:1034500006F02DF807F084F88B4906F028F807F0FD
:103460007FF88A4906F023F807F07AF8884906F0D1
:103470001EF807F075F8874906F019F807F070F89C
:10348000854906F014F807F06BF8844906F00FF848
:1034900007F066F8824906F00AF807F061F88149FA
:1034A00006F005F807F05CF87F4906F000F807F031
:1034B00057F87E4905F0FBFF07F052F87C4905F00C
:1034C000F6FF07F04DF87B4905F0F1FF07F048F8EB
:1034D000794905F0ECFF07F043F8784905F0E7FF7C
:1034E00007F03EF8764905F0E2FF07F039F8754934
:1034F00005F0DDFF07F034F8734905F0D8FF07F059
:103500002FF8724905F0D3FF07F02AF8704905F04B
:10351000CEFF07F025F86F4905F0C9FF07F020F846
:103520006D4905F0C4FF07F01BF86C4905F0BFFFBB
:1035300007F016F86A4905F0BAFF07F011F8694973
:1035400005F0B5FF07F00CF8674905F0B0FF07F08C
:1035500007F8664905F0ABFF07F002F8644905F08B
:10356000A6FF06F0FDFF634905F0A1FF06F0F8FF96
:10357000614905F09CFF06F0F3FF604905F097FFF5
:1035800006F0EEFF5E4905F092FF06F0E9FF5D49A7
:1035900005F08DFF06F0E4FF5B4905F088FF06F0BB
:1035A000DFFF5A4905F083FF06F0DAFF584905F0BE
:1035B0007EFF06F0D5FF574905F079FF06F0D0FFF2
:1035C000554905F074FF06F0CBFF544905F06FFF35
:1035D00006F0C6FF524905F06AFF06F0C1FF5149E7
:1035E00005F065FF06F0BCFF4F4905F060FF06F0EF
:1035F000B7FF4E4905F05BFF06F0B2FF4C4905F0FE
:1036000056FF06F0ADFF4B4905F051FF06F0A8FF4D
:10361000494905F04CFF06F0A3FF484905F047FF74
:1036200006F09EFF464905F042FF06F099FF454926
:1036300005F03DFF06F094FF434905F038FF06F022
:103640008FFFBDE80840414905F031BFBAE60808E0
:10365000D0E60808E5E60808F9E608080DE70808D6
:1036600020E7080835E7080849E7080860E7080880
:1036700076E708088CE70808A1E70808BEE708080D
:10368000DAE70808F4E708080DE8080827E808085A
:1036900040E808085CE8080879E8080892E80808A3
:1036A000AEE80808C6E80808DFE80808F8E80808EF
:1036B0000CE9080821E908083CE9080857E9080866
:1036C0006DE908087EE9080890E90808A1E90808FA
:1036D000B3E90808DCE9080805EA080834EA08083C
:1036E00059EA08087EEA0808A6EA0808E6EA08088F
:1036F00029EB080854EB080897EB0808DDEB0808ED
:1037000011EC08082FEC080853EC08086EEC0808C8
:1037100098EC0808CDEC0808F1EC080805ED08085D
:1037200021ED080846ED08086AED08088FED080845
:10373000B7ED0808E3ED080826EE080858EE08087B
:103740007EEE0808E4EE080848EF08085DEF080878
:1037500038B5046805467CB16368013B63605BB9BA
:10376000236820469B689847A368013BA3601BB968
:1037700023682046DB689847284638BD30B58BB0B3
:103780002B49054602A805F0BBFC05F0C3F8294CFF
:10379000294B002830D01B68002B30D0274A2849FD
:1037A000138806A843F002031380264B2A681B786F
:1037B0008DF800303C2306F0A3FC07A8FFF7C8FFF4
:1037C00004F034FE204B186005F094F8236873B1C0
:1037D00006F0C6FE1D4905F06AFE1C4906A805F064
:1037E0008FFC06A8FDF7B8FF06A805F03FFC02A86D
:1037F00005F03CFC0BB030BD1B6821684BB9236859
:10380000002BF4D006F0ACFE114905F050FE104933
:10381000E4E70A4A138823F0020313800029E6D064
:1038200006F09EFE0B4905F042FE0A49D6E700BFAE
:1038300052FD0808E8050020280C0020480C002054
:1038400071EF080820050020C411002077EF080858
:103850008DEF0808A3EF08082DE9F047DCB006F06B
:103860003AF9B84BB8491A68B84B0446C51703A8CB
:103870001A6005F045FCB44907A805F041FCB249BF
:103880000BA805F03DFCB0490FA805F039FCAE4986
:1038900013A805F035FC5E2103A805F022FD0A22DD
:1038A00001211BA805F0A0FC1BA91FA805F067FCBF
:1038B000A7491FA805F02EFD014603A805F0FEFC50
:1038C0001FA805F0D3FB1BA805F0D0FBA14E5A2181
:1038D00017A805F078FC17A91FA805F050FC0A22CC
:1038E00031681BA805F080FC1BA91FA805F006FD88
:1038F000014603A805F0E2FC1BA805F0B7FB1FA8D2
:1039000005F0B4FB17A805F0B1FB0A2231681BA82B
:1039100005F06AFC1BA91FA805F031FC8E491FA801
:1039200005F0F8FC014607A805F0C8FC1FA805F043
:103930009DFB1BA805F09AFB884E4D2117A805F0AA
:1039400042FC17A91FA805F01AFC032231681BA826
:1039500005F070FC1BA91FA805F0D0FC014603A8C8
:1039600005F0ACFC1BA805F081FB1FA805F07EFB51
:1039700017A805F07BFB032231681BA805F05AFC51
:103980001BA91FA805F0FBFB73491FA805F0C2FC8B
:10399000014607A805F092FC1FA805F067FB1BA8CD
:1039A00005F064FB6E4B032219681BA805F042FC6E
:1039B0001BA91FA805F0E3FB67491FA805F0AAFC97
:1039C000014607A805F07AFC1FA805F04FFB1BA8CD
:1039D00005F04CFB61211FA805F0F5FB1FA903A80A
:1039E00005F06CFC1FA805F041FB5E4802F0F6FCF8
:1039F0000022002307F07CFD002840F0D5815948C3
:103A000002F007FD38B9584907A805F05BFC564994
:103A100003A805F057FC534802F0E0FC06260246D6
:103A20000B4600961BA805F01CFC1BA91FA805F05F
:103A3000A6FB49491FA805F06DFC014607A805F043
:103A40003DFC1FA805F012FB1BA805F00FFB454825
:103A500002F0C4FC009602460B461FA805F001FCCC
:103A60001FA903A805F02AFC1FA805F0FFFA6F2183
:103A70001FA805F0A8FB1FA903A805F01FFC1FA89D
:103A800005F0F4FA374802F0AEFC0022002307F0FC
:103A90002FFD002840F0A381324802F0BDFC012830
:103AA00007D1314907A805F00DFC2F4903A805F0FF
:103AB00009FC2C4802F097FC062602460B460096AD
:103AC0001BA805F0CEFB1BA91FA805F058FB224937
:103AD0001FA805F01FFC014607A805F0EFFB1FA873
:103AE00005F0C4FA1BA805F0C1FA1E4802F07BFCE1
:103AF000009602460B461FA805F0B3FB1FA903A8BA
:103B000005F0DCFB1FA805F0B1FA63211FA805F042
:103B10005AFB1FA903A805F0D1FB1FA805F0A6FAC0
:103B2000104802F060FC0022002307F0E1FC0028AE
:103B300040F0A4810B4802F05BFC07F007FA00227A
:103B400014E000BFD400002075000908E00C00203C
:103B5000C1EF0808800000205CE00808C0020020D7
:103B6000C40200207006002049E10808A94B07F0B4
:103B700081FB062602460B4600961BA805F071FB4A
:103B80001BA91FA805F0FBFAA3491FA805F0C2FB5B
:103B9000014607A805F092FB1FA805F067FA1BA8CD
:103BA00005F064FA9D4802F023FC07F0CFF90022EB
:103BB000984B07F05FFB009602460B461FA805F0E6
:103BC00050FB1FA9964E03A805F078FB1FA805F02F
:103BD0004DFA0A2231881BA805F006FB1BA91FA875
:103BE00005F0CDFA8C491FA805F094FB014607A803
:103BF00005F064FB1FA805F039FA1BA805F036FA9A
:103C0000884B2246884900931FA82B4605F004FFE5
:103C10001FA907A805F052FB1FA805F027FA592194
:103C200017A805F0D0FA17A91FA805F0A8FA05F003
:103C300052FF0A2201461BA805F0E9FA1BA91FA89A
:103C400005F05CFB014603A805F038FB1BA805F056
:103C50000DFA1FA805F00AFA744C17A805F006FA29
:103C6000262103A805F03DFB23684BB106F078FC44
:103C70006F4905F01CFC06F073FC039905F017FC76
:103C800003A91BA805F07BFA6A491FA805F038FABA
:103C90001FA91BA8FFF772FD1FA805F0E7F91BA8D5
:103CA00005F0E4F9644B1B68ABB1236873B106F00F
:103CB00057FC624905F0FBFB61491FA805F020FA9B
:103CC0001FA8FDF749FD1FA805F0D0F906F066FD15
:103CD000039905F0ECFB06F043FC079905F0E7FBC0
:103CE000584902230C22A1F58E60FCF763FF0028DF
:103CF00037D0236823B106F033FC534905F0D7FBD6
:103D0000524A5349534C462312680968524803F0FB
:103D1000DCFC2368F3B95149514805F0C8FB05F0B4
:103D2000DAFEC31702461FA805F0D2FD1F994C48C2
:103D300005F0BDFB1FA805F099F94A491FA805F039
:103D4000DFF91F99464805F0B2FB1FA805F08EF970
:103D5000012323600799424805F0A9FB3E4803F080
:103D6000ADFC0027DFF80C81DFF80C912B4D1FAC68
:103D700001232370D8F800306370C3F30723A370C6
:103D8000394B1B68E370FBB2013B092B00F29180B9
:103D9000DFE813F094009800020109010D01110100
:103DA00016011E0123012B0130491BA805F0A8F9BB
:103DB0001BA91FA805F0E3F917491FA805F0AAFAE7
:103DC000014607A805F07AFA1FA805F04FF91BA8CD
:103DD00005F04CF925491FA805F092F940E6244961
:103DE0001BA805F08DF91BA91FA805F0C8F90A4901
:103DF0001FA805F08FFA014607A805F05FFA1FA873
:103E000005F034F91BA805F031F919491FA805F090
:103E100077F973E6000024405CE008087006002093
:103E2000480C00204BE10808DC0C0020E8050020CD
:103E3000C3EF0808DBEF0808EC050020E6EF0808F0
:103E400010F008081C0C002037F00808500600206D
:103E5000BC0C002060060020F805002093DE080856
:103E6000F00500204CF00808A8070020A60000205C
:103E7000B2000020800000200000C8425D491BA85D
:103E800005F03EF91BA91FA805F079F95A491FA8AA
:103E900005F040FA014607A805F010FA1FA805F042
:103EA000E5F81BA805F0E2F852491FA805F028F92B
:103EB00087E64D232371514B186808E04323237193
:103EC0004F4BF9E778234F48237105F0EFFEC0F31D
:103ED00007236071A371C0F30743C0F30760E37168
:103EE0002072284602F089FA6072C0F30720A0729F
:103EF000284602F085FAE072C0F3072020732846B6
:103F000002F081FA6073C0F30720A073284602F024
:103F10007DFAE073C0F307202074284602F079FA96
:103F20008246284602F078FA4AEA000A84F811A08C
:103F3000284602F05DFA73780137E37433780B2F6B
:103F400023754FF02303A074637504F116047FF406
:103F50000FAF06F023FC2C4905F096FA06F01EFC84
:103F60000368F222DB681FA9984706F017FC27496F
:103F700005F08AFA13A805F079F80FA805F076F88D
:103F80000BA805F073F807A805F070F803A805F072
:103F90006DF85CB0BDE8F087722323711C4B186884
:103FA00007F040FC93E7522323711A4B84E77123F7
:103FB0002371194BF3E774232371FDF7C5F986E7E5
:103FC00050232371154B4946586807F033FD7EE7AF
:103FD00068232371FDF732FA79E773232371104BBD
:103FE000D3E9000107F014FB71E7672323710D4B40
:103FF00062E700BFA00000205CE00808C0020020CB
:10400000B402002064060020CEF008085FE1080832
:10401000DC020020E4050020E0020020640500200E
:10402000300C00205C0500202DE9F04F91B002AF6C
:10403000774907F1080005F063F8764E764907F1F5
:10404000180005F05DF806F0A9FB40F6B83105F060
:1040500081FB33688BB106F083FA704905F027FACB
:104060006E4907F1280005F04BF807F12800FDF72D
:1040700073FB07F1280004F0F9FF0FF28C19D9E95E
:10408000008906F08BFBB96805F0FEF900240025D5
:104090004FF0000ADFF8A4B106F080FB03681B694B
:1040A0009847E0B9BAF1000F19D1002220462946FD
:1040B0005B4B06F0FFFD42464B4604460D4607F0BB
:1040C0003FFA0028E8D0336833B106F049FA2246B7
:1040D0002B465946FCF7C4FC4FF0010ADCE70A20E6
:1040E00005F05AFD06F05AFB014607F1280005F0DD
:1040F00033FB07F1280107F1180005F04BF807F131
:10410000280004F0B3FF3A6A07F11800D31D23F02A
:104110000703ADEB030D02AD0023294605F02BF993
:10412000404907F1280004F0EBFF06F019FA3E4978
:1041300005F0BDF906F014FA294605F0B8F9012496
:10414000384EDFF8FC80DFF8FC90284607F039FF96
:10415000A04253D92B5D402B06D0295D07F12800E2
:1041600005F0BFF80134F0E7314607F1280005F00B
:10417000E5F80028F1D1414607F1280005F0DEF806
:104180000028EAD104F0C6FB0028EBD0D9F80030B3
:10419000002BE7D006F0E4F9244905F088F906F091
:1041A000DFF9B96A05F083F9214BBA6A1B78214916
:1041B00038468DF800303C2305F0A2FF381DFFF78C
:1041C000C7FA04F033F91C4B0124186004F092FB89
:1041D000144907F1280004F0E5FF07F1280004F076
:1041E00045FF07F1180004F041FF07F1080004F053
:1041F0003DFF20463C37BD46BDE8F08F4FF0FF3411
:10420000EBE700BFAFF3008000000000004CCD40A2
:10421000D0F00808E805002052FD0808D3F008088F
:104220000000F03F75000908ACE0080813E1080839
:104230002005002032F10808C4110020F7F008081A
:1042400011E10808280C00202DE9F04107460C4632
:1042500015462AB9BDE8F0410368C9B29B68184702
:1042600000290DDA0A2A0BD12D2105F011F9064695
:1042700061423846EAB205F02EF93044BDE8F081DB
:1042800021460026F5E738B50546FFF7DDFF044671
:10429000284605F000F9204438BD00004FF4DA420A
:1042A00070B5C64BA8B0C649C64D01A81A80C64C09
:1042B00004F026FF072005F06DFC0121288806F098
:1042C000FDFB0121208806F0F9FBC04B0121188875
:1042D00006F0F4FBBE4B0121188806F0EFFBBD4B46
:1042E0000121188806F0EAFBBB4B0121188806F073
:1042F000E5FBBA4B0121188806F0E0FBB84B012121
:10430000188806F0DBFBFCF7C3FDB64804F081FB20
:1043100041F27001B34804F0B0FCB24804F05CFC18
:10432000B14E34210020FCF76FFC1B210120FCF76B
:104330006BFC304601F0E6FE96F82130002B40F091
:104340001682FEF72DF80121288806F0C8FB208888
:10435000012106F0C4FB9F4B0121188806F0BFFB2A
:104360009B4B0121188806F0BAFB9B4B0121188852
:1043700006F0B5FB994B0121188806F0B0FB984B6D
:104380000121188806F0ABFB904B0121188806F03C
:10439000A6FB964A9649974805F0BFFD964A97496D
:1043A000944805F0BAFD002302229549954804F08F
:1043B00091FA06F0F3F94FF4165106F0E9F9FCF71B
:1043C00081FB4FF4165106F0E3F9FCF7B7FB4FF40D
:1043D000165106F0DDF9FCF775FB41F2883105F066
:1043E000B9F942F2107005F0D7FB06F0B9F84FF4B6
:1043F000165106F09BF8844B0A22196805A804F0B0
:10440000F3FE05A909A804F0BAFE804909A804F042
:1044100081FF044605F0A8FB0A2201460DA804F01E
:10442000E3FE0DA9204604F069FF044605F094FB65
:104430000A22014611A804F0D7FE11A9204604F073
:104440005DFF044605F07CFB0A22014615A804F036
:10445000CBFE204615A904F051FF6C4904F05AFF29
:10446000044605F049FB0A22014619A804F0BCFEE7
:1044700019A9204604F042FF044605F049FB0A2230
:1044800001461DA804F0B0FE1DA9204604F036FF29
:10449000044605F049FB0A22014621A804F0A4FEC7
:1044A000204621A904F02AFF594904F033FF594C52
:1044B0000146204604F054FE21A804F0D7FD1DA8B3
:1044C00004F0D4FD19A804F0D1FD15A804F0CEFD28
:1044D00011A804F0CBFD0DA804F0C8FD09A804F054
:1044E000C5FD05A804F0C2FD06F03AF84A4904F0FB
:1044F000DEFF4A4921A804F003FE214621A804F06A
:10450000FDFE0146464804F02BFE21A804F0AEFD56
:10451000444902230C22A1F58E60FCF74BFB0028D6
:1045200000F0398106F01CF83F4904F0ADFF06F0B9
:1045300017F821683D4C04F0BAFF06F011F83C4929
:1045400004F0B5FF23684BB1394921A804F0D8FD28
:1045500021A8FDF701F921A804F088FD06F042FB2F
:1045600006F096F90021288806F0B9FA0323B02254
:104570001821304801F070FD002840F0108105F04E
:10458000EFFF2D4904F093FF23684BB12A4921A87E
:1045900004F0B6FD21A8FDF7DFF821A804F066FDC0
:1045A000264801F046FE06F01DFB0122492106F0D7
:1045B0009EF9002840F0098142E000BF480C00202D
:1045C00075000908C0000020C400002094000020ED
:1045D000C8000020CC0000209000002088000020AF
:1045E0008C000020700700207407002049F10808A3
:1045F0000B0A0808EF9E080857F108082940080828
:10460000D402002062F108088000002088F1080828
:104610006BF108085006002070F1080885F10808C1
:10462000000700201C0C00208AF10808E805002083
:10463000C6F10808B9060020EAF108085005002074
:1046400005F08EFF714904F032FF23684BB16F49CA
:1046500021A804F055FD21A8FDF77EF821A804F05B
:1046600005FD05F07DFF6A4904F021FF23684BB189
:10467000674921A804F044FD21A8FDF76DF821A8A1
:1046800004F0F4FC634D06F0ADFA06F001F90021E8
:10469000288806F024FA0323B02218215E4801F08E
:1046A000DBFC002840F0968005F05AFF5B4904F0DF
:1046B000FEFE5A4921A804F023FD21A8FDF74CF87D
:1046C00021A804F0D3FC564801F0B3FD06F08AFAA5
:1046D00001224A2106F00BF9002840F0918005F0F4
:1046E0003FFF4A4904F0E3FE23684BB1474921A844
:1046F00004F006FD21A8FDF72FF821A804F0B6FC70
:10470000FDF7AAFE05F02CFF464904F0D0FE05F0A7
:1047100027FF454904F0B8FE05F022FF0A22462192
:10472000FFF7B1FD05F01CFF404904F0ADFE05F0B8
:1047300017FF0A220D21FFF7A6FDFCF7DFFD1C2362
:10474000002121A8ADF8843004F038F823A91DA871
:1047500004F0D6FC1D9A36493648FCF79CF91DA892
:1047600004F084FC01A804F081FC28B070BD324B39
:104770001B68012B7FF4E7AD304805F097FA30490C
:1047800007F042FA00283FF4DEAD96F82130002B06
:104790007FF4D9ADD5E505F0E3FE2A49CAE605F078
:1047A000DFFE294904F083FE23684BB1274921A885
:1047B00004F0A6FC21A8FCF7CFFF21A804F056FCCA
:1047C0000121288806F08BF9EAE60021204801F053
:1047D00037FD46E705F0C4FE1E4904F068FE236875
:1047E0004BB11C4921A804F08BFC21A8FCF7B4FFB5
:1047F00021A804F03BFC0121288806F070F962E74B
:104800000021074801F01CFD7AE700BF50F20808BC
:1048100083F20808C4000020BA060020A6F20808A7
:1048200056050020EDF20808F8F2080805F308081C
:104830000DF30808D80C0020600500206406002055
:104840000000A041B0F1080816F2080834F2080888
:1048500050050020CFF2080830B589B005F080FE81
:10486000354D04F018FE05F07BFE344904F00CFED3
:1048700005F076FE0A222968FFF705FD05F070FEB7
:104880002F4904F014FE05F06BFE4CF2503104F099
:1048900061FF05F065FE0D220146684604F070FFD9
:1048A0006846284904F04AFD00283ED005F058FE2D
:1048B000254904F0FCFD05F053FE244904F0F7FD02
:1048C00005F04EFE0D22014604A804F059FF04A88D
:1048D00004F08CFD044605F043FE1D4904F0E7FD9D
:1048E00042F20C73A21E9A4219D805F039FE1949FA
:1048F00004F0CAFD05F034FE21460A22FFF7C3FC8E
:104900002C6006F01DF929460020FCF777F804A872
:1049100004F0ACFB684604F0A9FB09B030BD05F01B
:104920001FFE0D4904F0C3FDF1E705F019FE0B4928
:1049300004F0BDFDEEE700BF8000002020F3080872
:1049400033F3080846E208084CE2080863F3080855
:104950007500090878F308087DE4080871E3080881
:104960007FB505F0FDFD1F4904F0A1FD05F0F8FD40
:104970004CF2503104F0EEFE05F0F2FD0D2201463E
:1049800002A804F0FDFE02A804F030FD019005F03D
:10499000E7FD154904F08BFD019800F10C031A2B7B
:1049A0001AD806F03FFF04F061FF05F0D9FD0F496A
:1049B00004F06AFD05F0D4FD01990A22FFF763FCBB
:1049C00006F0BEF8542001A9FCF718F802A804F07C
:1049D0004DFB07B05DF804FB05F0C2FD044904F08F
:1049E00066FDF3E789F3080875000908B4F30808C1
:1049F0007DE4080830B589B005F0B2FD354D04F00E
:104A00004AFD05F0ADFD344904F03EFD05F0A8FD7A
:104A10000A222968FFF737FC05F0A2FD2F4904F0B0
:104A200046FD05F09DFD4CF2503104F093FE05F07B
:104A300097FD0D220146684604F0A2FE684628490B
:104A400004F07CFC00283ED005F08AFD254904F0E6
:104A50002EFD05F085FD244904F029FD05F080FDBB
:104A60000D22014604A804F08BFE04A804F0BEFC4D
:104A7000044605F075FD1D4904F019FD44F61E635A
:104A8000621E9A4219D805F06BFD194904F0FCFC2E
:104A900005F066FD21460A22FFF7F5FB2C6006F0C3
:104AA0004FF829464C20FBF7A9FF04A804F0DEFAD2
:104AB000684604F0DBFA09B030BD05F051FD0D4940
:104AC00004F0F5FCF1E705F04BFD0B4904F0EFFCB9
:104AD000EEE700BF98000020CCF30808E1F30808D7
:104AE00046E208084CE208081AF4080875000908AC
:104AF00033F408087DE4080871E3080830B589B08C
:104B000005F02EFD354D04F0C6FC05F029FD3449B5
:104B100004F0BAFC05F024FD0A222968FFF7B3FB74
:104B200005F01EFD2F4904F0C2FC05F019FD4CF202
:104B3000503104F00FFE05F013FD0D2201466846CA
:104B400004F01EFE6846284904F0F8FB00283ED019
:104B500005F006FD254904F0AAFC05F001FD2449F5
:104B600004F0A5FC05F0FCFC0D22014604A804F0AD
:104B700007FE04A804F03AFC044605F0F1FC1D49C8
:104B800004F095FC4CF24E33621E9A4219D805F09F
:104B9000E7FC194904F078FC05F0E2FC21460A2202
:104BA000FFF771FB2C6005F0CBFF29465020FBF787
:104BB00025FF04A804F05AFA684604F057FA09B031
:104BC00030BD05F0CDFC0D4904F071FCF1E705F0B6
:104BD000C7FC0B4904F06BFCEEE700BF9C00002013
:104BE00046F408085BF4080846E208084CE20808A6
:104BF00094F4080875000908ADF408087DE4080875
:104C000071E3080810B586B005F0AAFC284C04F042
:104C100042FC05F0A5FC274904F036FC05F0A0FC99
:104C20000A222168FFF710FB05F09AFC224904F0E4
:104C30003EFC05F095FC214904F026FC05F090FCB3
:104C40004CF2503104F086FD05F08AFC0D2201463D
:104C500002A804F095FD02A804F0C8FB42F20E730E
:104C60000190013898421CD805F07AFC144904F0F0
:104C70000BFC05F075FC0A220199FFF704FB05F017
:104C80006FFC0D4904F013FC019B236005F058FFF5
:104C9000742001A9FBF7B2FE02A804F0E7F906B000
:104CA00010BD05F05DFC074904F001FCF4E700BF0E
:104CB00048070020C0F40808D4F40808EDF40808F8
:104CC00000F508087DE4080810B586B005F048FC3A
:104CD000254C04F0E0FB05F043FC244904F0D4FB30
:104CE00005F03EFC0A222168FFF7AEFA05F038FC19
:104CF0001F4904F0DCFB05F033FC1E4904F0C4FB43
:104D000005F02EFC4CF2503104F024FD05F028FC97
:104D10000D22014602A804F033FD02A804F066FB50
:104D2000019000F57A70B0F5FA6F17D205F018FC13
:104D3000114904F0A9FB05F013FC01990A22FFF7C1
:104D4000A2FA019B236005F0FBFE042001A9FBF7FA
:104D500055FE02A804F08AF906B010BD05F000FC6B
:104D6000064904F0A4FBF4E7BC02002012F5080891
:104D7000A1E4080824F5080839F508087DE40808C6
:104D800010B586B005F0ECFB264C04F084FB05F072
:104D9000E7FB254904F078FB05F0E2FB0A222168D5
:104DA000FFF752FA05F0DCFB204904F080FB05F028
:104DB000D7FB1F4904F068FB05F0D2FB4CF25031E1
:104DC00004F0C8FC05F0CCFB0D22014602A804F05B
:104DD000D7FC02A804F00AFB42F20F73019000F521
:104DE0009C500830984217D805F0BAFB114904F0DE
:104DF0004BFB05F0B5FB01990A22FFF744FA019B32
:104E0000236005F09DFE0C2001A9FBF7F7FD02A829
:104E100004F02CF906B010BD05F0A2FB064904F021
:104E200046FBF4E7D40200204AF508085DF50808BF
:104E300062F5080876F508087DE4080810B586B024
:104E400005F08EFB254C04F026FB05F089FB244978
:104E500004F01AFB05F084FB0A222168FFF7F4F93D
:104E600005F07EFB1F4904F022FB05F079FB1E498B
:104E700004F00AFB05F074FB4CF2503104F06AFCBC
:104E800005F06EFB0D22014602A804F079FC02A891
:104E900004F0ACFA019000F57A70B0F5FA6F17D211
:104EA00005F05EFB114904F0EFFA05F059FB01999A
:104EB0000A22FFF7E8F9019B236005F041FE142068
:104EC00001A9FBF79BFD02A804F0D0F806B010BDC5
:104ED00005F046FB064904F0EAFAF4E7F002002088
:104EE00086F5080898F508089FF50808B4F508083D
:104EF0007DE4080810B586B005F032FB254C04F0BF
:104F0000CAFA05F02DFB244904F0BEFA05F028FB8F
:104F10000A222168FFF798F905F022FB1F4904F0E7
:104F2000C6FA05F01DFB1E4904F0AEFA05F018FBA9
:104F30004CF2503104F00EFC05F012FB0D2201463C
:104F400002A804F01DFC02A804F050FA019000F53C
:104F50007A70B0F5FA6F17D205F002FB114904F030
:104F600093FA05F0FDFA01990A22FFF78CF9019BEB
:104F7000236005F0E5FD1C2001A9FBF73FFD02A819
:104F800004F074F806B010BD05F0EAFA064904F022
:104F90008EFAF4E7F8020020C5F5080898F508082D
:104FA000D9F50808F0F508087DE4080810B586B0C2
:104FB00005F0D6FA254C04F06EFA05F0D1FA244932
:104FC00004F062FA05F0CCFA0A222168FFF73CF9F6
:104FD00005F0C6FA1F4904F06AFA05F0C1FA1E4945
:104FE00004F052FA05F0BCFA4CF2503104F0B2FB76
:104FF00005F0B6FA0D22014602A804F0C1FB02A892
:1050000004F0F4F9019000F57A70B0F5FA6F17D258
:1050100005F0A6FA114904F037FA05F0A1FA019952
:105020000A22FFF730F9019B236005F089FD242057
:1050300001A9FBF7E3FC02A804F018F806B010BDC4
:1050400005F08EFA064904F032FAF4E7E80200208F
:1050500003F6080816F608081DF6080833F60808CF
:105060007DE4080810B586B005F07AFA244C04F007
:1050700012FA05F075FA234904F006FA05F070FA01
:105080000A222168FFF7E0F805F06AFA1E4904F0E9
:105090000EFA05F065FA1D4904F0F6F905F060FA1C
:1050A0004CF2503104F056FB05F05AFA0D2201463D
:1050B00002A804F065FB02A804F098F901901E30E4
:1050C0003B2817D805F04CFA114904F0DDF905F03A
:1050D00047FA01990A22FFF7D6F8019B236005F0F1
:1050E0002FFD2C2001A9FBF789FC02A803F0BEFFCD
:1050F00006B010BD05F034FA064904F0D8F9F4E71B
:10510000640C002045F60808DCE508085FF608088E
:105110007CF608087DE4080810B586B005F020FA92
:10512000254C04F0B8F905F01BFA244904F0ACF959
:1051300005F016FA0A222168FFF786F805F010FA42
:105140001F4904F0B4F905F00BFA1E4904F09CF96C
:1051500005F006FA4CF2503104F0FCFA05F000FAC2
:105160000D22014602A804F00BFB02A804F03EF950
:10517000019000F57A70B0F5FA6F17D205F0F0F9EA
:10518000114904F081F905F0EBF901990A22FFF7C2
:105190007AF8019B236005F0D3FC342001A9FBF7CA
:1051A0002DFC02A803F062FF06B010BD05F0D8F98F
:1051B000064904F07CF9F4E79C07002095F60808FE
:1051C000A1E40808ACF60808C6F608087DE408085B
:1051D00010B586B005F0C4F9244C04F05CF905F074
:1051E000BFF9234904F050F905F0BAF90A22216801
:1051F000FFF72AF805F0B4F91E4904F058F905F054
:10520000AFF91D4904F040F905F0AAF94CF250310C
:1052100004F0A0FA05F0A4F90D22014602A804F05A
:10522000AFFA02A804F0E2F801903230632817D8F0
:1052300005F096F9114904F027F905F091F9019963
:105240000A22FFF720F8019B236005F079FC3C203F
:1052500001A9FBF7D3FB02A803F008FF06B010BDBD
:1052600005F07EF9064904F022F9F4E7A4070020CE
:10527000DCF6080881E60808EDF6080801F70808DA
:105280007DE4080830232DE9F047C74CC74DC84FCF
:105290008AB02370C74E2378782B00F04B8405F03A
:1052A0005FF9314604F0F0F805F05AF90368DB695C
:1052B000984705F055F903681B6998470028F8D00E
:1052C00005F04EF903685B699847C0B22070213839
:1052D0005928E0D801A353F820F000BF595A080814
:1052E00097520808F95A0808975208089752080870
:1052F00097520808975208089752080897520808CA
:10530000255B080897520808975208089752080822
:105310009752080897520808535A080887580808EF
:105320008D58080849590808775908089D590808F0
:10533000BB590808E1590808FF5908084D5A0808E0
:105340009752080897520808975208089752080879
:10535000975208082D5B0808D15A080857550808C5
:105360005D55080889550808F55508081D560808B0
:10537000395608084D560808755608088F5608080B
:1053800095560808A5560808B5560808BB560808DB
:10539000E3560808FF5608080F570808235708085F
:1053A000315708086157080891570808BD57080881
:1053B000E9570808FB5708082958080897520808B1
:1053C0003958080897520808975208089752080851
:1053D0009752080897520808975208084554080839
:1053E0004B54080851540808575408085D540808DD
:1053F00063540808695408086F540808755408086D
:105400007B54080881540808875408088D540808FC
:1054100093540808995408089F540808A55408088C
:10542000C3540808D3540808F1540808F75408086E
:10543000FD5408080355080897520808095508083C
:105440002F550808FDF7AEFB24E7FFF73DFC21E7E9
:10545000FDF726FC1EE7FFF793FC1BE7FDF7A6FC14
:1054600018E7FFF7EBFC15E7FDF71CFD12E7FFF768
:1054700041FD0FE7FDF792FD0CE7FFF797FD09E708
:10548000FDF708FE06E7FFF7EDFD03E7FDF77EFEFB
:1054900000E7FFF741FEFDE6FDF7F4FEFAE6FFF751
:1054A00097FEF7E605F05CF8434904F000F80123A5
:1054B000424E336005F044FB31464820FBF79EFA2C
:1054C000E8E605F04DF83E4903F0F1FF3B4E0023BE
:1054D000EFE705F045F806463A4906A803F010FE46
:1054E0003046069903F0E3FF06A803F0BFFDD1E6BE
:1054F000FDF708FBCEE6FFF733FACBE6FFF7ACF992
:10550000C8E6FDF7AFF9C5E62F4E33685BB905F085
:1055100027F82E4903F0CBFF0123336005F010FB81
:1055200044202949CAE705F01BF82949F2E7264E2D
:105530003368012B09D105F013F8264903F0B7FFB2
:105540002548FBF79BFA0023E7E705F009F8234914
:1055500003F0ADFFF7E7FDF713FF9BE6204B1A685A
:10556000012A0BD100221A6004F0FAFF1D4903F052
:105570009EFF05F0E5FA642019499FE701221A60B1
:1055800004F0EEFF1849F2E7184B1A6812B901222D
:105590001A6004E004F0E4FF154903F088FF05F009
:1055A000CFFA6020114989E7B80600206405002081
:1055B0000000C84211F7080817F70808E80500209E
:1055C00031F708084CF00808280C00204CF70808B0
:1055D0005FF7080879F708086C1000208CF70808B6
:1055E00050070020A7F70808BBF70808680C002040
:1055F000CEF70808A74B1A68012A0BD100221A60BF
:1056000004F0AEFFA44903F052FF05F099FA6820B8
:10561000A04953E704F0A4FFA049F4E79D4B1A68A2
:10562000012A03D104F09CFF9D49ECE701221A6096
:1056300004F096FF9B49E6E79B4B1A68012A01D1CB
:105640000022A5E704F08CFF9849A6E7984B1A685A
:10565000012A09D104F084FF964903F028FF05F0E0
:105660006FFA6C20924929E701221A6004F078FF52
:105670009149F2E78E4B1A681AB904F071FF8F490D
:10568000EBE700221A6004F06BFF8D49E5E7FFF7B6
:10569000B9FAFFE5FCF7E0FE04F062FF894903F088
:1056A00006FFF7E504F05CFF874903F000FFFBF716
:1056B000CDFDEFE5FDF7EEF9ECE5844E3368012B07
:1056C00003D104F04DFF8249E9E704F049FF814925
:1056D00003F0EDFE0123336005F032FA3146782005
:1056E000ECE67A4E33681BB904F03AFF7A49D6E704
:1056F00004F036FF794903F0DAFE0023EBE704F00B
:105700002FFF774903F0D3FEFBF70AFEC2E504F052
:1057100027FF744903F0CBFE6B210720FBF774FAD7
:10572000B8E504F01DFF704903F0C1FE4B21F4E71A
:105730006E4E336883B104F013FF6D4903F0B7FE7A
:105740000023336005F0FCF931467C20FBF756F965
:10575000684800F08EFE9DE504F002FF66499EE772
:10576000624E336883B904F0FBFE644903F09FFE88
:105770000123336005F0E4F931467C20FBF73EF964
:105780005C4800F09BFE85E504F0EAFE5C4986E794
:105790005C4E33685BB904F0E3FE5B4903F087FEBF
:1057A0000123336005F0CCF93146802086E604F011
:1057B000D7FE564903F07BFE0023F2E7544E3368D0
:1057C0005BB904F0CDFE534903F071FE0123336051
:1057D00005F0B6F93146842070E604F0C1FE4E496A
:1057E00003F065FE0023F2E704F0BAFE4B4903F034
:1057F0005EFE404800F018FE4CE5494E3368012B30
:105800000BD104F0ADFE474903F051FE0023336095
:1058100005F096F93146882050E604F0A1FE424991
:1058200003F045FE0123F2E70121324800F06CFE4F
:10583000B4223E4B1A602DE504F092FE3C4903F081
:1058400036FE06A83B4902F0EDFC069A3A493B4871
:10585000FBF721F906A803F009FC06A8354902F078
:10586000FDFC069A36493548FBF715F906A803F002
:10587000FDFB06A82F4902F0F7FC069A31492F4894
:10588000FBF709F930E6FFF7B5F803E5FFF736F95E
:1058900000E500BF4C070020F8F7080819F80808D1
:1058A0003DF8080860F80808680C00207EF8080831
:1058B00054070020ABF80808D3F80808F7F80808E0
:1058C00020F90808EDF2080845F9080860050020ED
:1058D00061F9080883F90808A7F90808CAF908084F
:1058E000EFF908080AFA08081DFA08084C05002014
:1058F00038FA0808580C00205BFA080876FA0808FD
:1059000098FA0808B4060020B2FA0808CDFA080888
:10591000D0020020E9FA080808FB080827FB08085D
:105920006C0600203FFB080863FB0808E005002028
:1059300086FB0808C40C0020BDFB0808D80C00201A
:10594000C5FB0808CDFB080804F00AFE7B4903F0FC
:105950009BFD04F005FE0A224621FEF794FC04F0AC
:10596000FFFD774903F090FD04F0FAFD0A220D21B6
:10597000FEF789FC8EE4734E33685BB904F0F0FDEA
:10598000714903F094FD0123336005F0D9F85820E4
:105990006C4993E504F0E4FD6C49F2E7694E336825
:1059A000012B06D104F0DCFD694903F080FD0023E2
:1059B000EAE704F0D5FD6749F7E7674E33685BB95E
:1059C00004F0CEFD654903F072FD0123336005F05C
:1059D000B7F85C20604971E504F0C2FD6049F2E768
:1059E0005D4E3368012B06D104F0BAFD5D4903F02A
:1059F0005EFD0023EAE704F0B3FD5B49F7E704F03E
:105A0000AFFD5A4903F040FD594803F06FF8804656
:105A100004F0A6FD06460A22414603F05CFD30462E
:105A200003F039FD04F09CFD524903F02DFD504870
:105A300003F059F8804604F093FD06460A224146D9
:105A400003F049FD304603F026FD23E4FCF7A8FEF1
:105A500020E4FCF763FE1DE404F082FD464903F0F8
:105A600026FDDFF834A104F07BFD03681B6998472D
:105A700000287FF40FAC284602F0E6F838B904F0AD
:105A80006FFD3E4903F013FD0AB0BDE8F08704F056
:105A900067FD39460646E86805F0CCFF05F068FA70
:105AA0008046A868894605F063FACDE90401686874
:105AB00005F05EFACDE90201286805F059FA424680
:105AC000CDE900014B4651463046FAF7C9FFCAE717
:105AD0002B4E3368012B0BD104F042FD294903F012
