:020000040808EA
:100000000000080808F30808000006000A000501BF
:080010000402DB070000000000
:04001800E0CB080829
:1000200008B5024B1B685B6C019308BD2C000608E9
:1000300008B5024B1B689B6D019308BD2C00060898
:1000400008B5024B1B685B6E019308BD2C000608C7
:1000500009480A4908B5884205D0094A824202D0B7
:10006000121A0AF06FFE0748074A0021121A0AF016
:1000700091FE064808BD00BF0000002034F00808CB
:10008000AC020020B002002020220020202200200C
:1000900070B508F0FFFD0025054E064CA41BA40812
:1000A000A54200D170BD56F8043B98470135F7E7EB
:1000B00004F008082CF0080803F040B908B504F073
:1000C00097FBBDE8084008F0A7BD07F033BB07F079
:1000D00031BB07F037BB0078B0FA80F040097047B9
:1000E00001230370704748B1836C3BB1C36C2BB1E3
:1000F000006DB0FA80F04009404270474FF0FF3089
:10010000704773B5024608460C46FFF7ECFF0546FC
:1001100040BB12F0800F14BF00231023CA789A420C
:1001200020D0CB708E6C0123F32160780DF1070293
:10013000B04784F8540098B99DF80720E37822F07E
:10014000100203F0100313438DF8073073210123CD
:10015000E66C60780DF10702B04784F8540008B1EE
:100160006FF00105284602B070BD03788B4284BF52
:10017000017013784FF0000084BF43F00203137046
:1001800070472DE9F84306461846884691461D46B5
:10019000FFF7A9FF0446A8B9AB783BB9294630461A
:1001A000FFF7AFFF044608B946F080064B464246CB
:1001B0003146AF6C6878B847002818BF6FF001046B
:1001C00085F854002046BDE8F8832DE9F0471C4629
:1001D0000F4600218AB00646904601A824220091CD
:1001E0000AF0D8FD2046FFF77EFFE8B908F1FF339B
:1001F000122B33D8EA4681461FFA88F81FFA89F392
:10020000434514D380B94FEA4802013A93B2E56CF2
:100210009DF8001060780DF10102A847002884F8CD
:10022000540018BF6FF001000AB0BDE8F087A37852
:1002300016F809503BB928462146FFF762FF16F829
:10024000095005F07F0517F809308AF800508AF840
:10025000013009F101090AF1020ACFE76FF003004A
:10026000E2E7742337B504468DF80730FFF73BFF0C
:10027000A0BB05462346012274200DF10601FFF7BD
:1002800080FFA0B99DF8063013F0030511D023F0CC
:1002900003038DF80630012223460DF106010DF10E
:1002A0000700FFF792FF0A20236D9847E2E7002D31
:1002B000E0D194F844208AB19DF8063002F00302A0
:1002C00023F0030313438DF8063038B92346012287
:1002D0000DF106010DF10700FFF777FF03B030BD08
:1002E0000023F0B5064689B008460C468DF8073065
:1002F0000493ADF814300693ADF81C30FFF7F3FE0D
:10030000002840F0FE8016F0080391F8447005D1F3
:1003100081F844302046FFF7A4FF07E0012FADF835
:100320000C0000F0F08081F84400012016F0100568
:1003300020D0072104F1460204F13B00FFF715FF2E
:1003400030B92346012275200DF10701FFF719FF8F
:1003500094F83B309DF807209B0022F01C0203F02C
:100360001C031343752201258DF807308DF81020EA
:100370008DF81830B30622D5082104F1460204F1A5
:100380003D00FFF7F2FE30B92346012270200DF147
:100390000701FFF7F6FE70219DF8073094F83D2025
:1003A00023F0080302F00802134308AA2A44013587
:1003B0008DF8073002F8101C02F8083CEDB2B107C6
:1003C00033D0052104F1460204F13900FFF7CDFED8
:1003D00030B92346012274200DF10701FFF7D1FE49
:1003E000F20709D59DF8073094F8392003F01F0370
:1003F00043EA42138DF80730B3070BD594F83A302F
:100400009DF807209B0003F01C0322F01C021343FD
:100410008DF80730742208AB2B4403F8102C9DF89C
:100420000720013503F8082CEDB2710722D505210C
:1004300004F1460204F13800FFF797FE30B9234675
:10044000012272200DF10701FFF79BFE72219DF83A
:10045000073094F8382023F0070302F00702134313
:1004600008AA2A4401358DF8073002F8101C02F85A
:10047000083CEDB216F0C00F3AD0012104F146025B
:1004800004F13E00FFF771FE60B90A2104F13C005F
:10049000FFF76BFE30B92346012271200DF10701F1
:1004A000FFF76FFE72060BD594F83E309DF80720DB
:1004B0001B0103F0100322F0100213438DF80730E4
:1004C00033060AD59DF8073094F83C2023F00F033B
:1004D00002F00F0213438DF80730712208AB2B4452
:1004E00003F8102C9DF80720013503F8082CEDB215
:1004F00028B923462A4606A904A8FFF766FE84F811
:10050000447009B0F0BDB1F84020B1F91230B2F535
:10051000C87F28BF4FF4C872C82A38BFC82203F565
:10052000163303F299135A431423B2FBF3F20A234E
:1005300002F54812B2FBF3F291F9113091F904106F
:1005400003F544735A4394F914304B434FF47A71D2
:1005500093FBF1F31B0203EB620394F8342094F94C
:1005600035100432B3FBF2F383224A4302F58032A2
:10057000B3FBF2F32222FA3B53436422323393FB60
:10058000F2F38DF80C3046F25A43ADF80830B4F867
:100590004230B3F57C6F1AD23F2BC2B200F101009A
:1005A00013D803EB8213DBB200258DF80D30022245
:1005B000234684F83C5003A902A8FFF706FE84F8FE
:1005C000445000287FF4B2AEA4E69B08E4E7FF2382
:1005D000EAE7000013B5184B024618689B880090A4
:1005E000ADF8043091F8393002A891F83A4003444C
:1005F00013F8080C02AB1C4414F8083C02AC184475
:1006000091F83830234413F8083C40F2AB740344AB
:1006100041F2B92004FB03034FF47A70B3FBF0F30B
:1006200001339BB2138091F83E0018B1B1F842102B
:100630000B44138002B010BDF4CB08082DE9F04F35
:10064000804689B008460C46FFF74DFD0546002858
:1006500040F058810690CDE90400CDF81B00084613
:10066000FFF741FD0A270546002D40F05281234641
:100670000F2204A91D20FFF784FD9DF810B09DF9FD
:100680001EA09DF818200BF00F030AF020012BF09C
:100690007F0B01924BEA01019DF819200AF0100A24
:1006A00041EA0A0149B288F8013002929DF81130FE
:1006B0009DF81D200029054688F8023003929DF818
:1006C00012909DF813E09DF814309DF815C09DF828
:1006D00016609DF817009DF81E2088F8001080F223
:1006E0001581000940EA061646EA0C3CE68A1B0919
:1006F0007600C6EBDC0C60464FEA5C06C11746EAA2
:10070000C17649107143A6FB06AB94F91A000BEBB6
:10071000410B4FEA1A36010146EA0B564FEA2B37D6
:100720004FEAE17B06FB0BF0A6FB01ABB4F91860C6
:1007300001FB070786FB0C01BB44C60A4FEA9A304F
:1007400046EA415640EA8B403118216301EB8101B2
:1007500080310912A8F80410216B43EA0E1E4910DB
:10076000A1F57A4140F635438810404394F926704C
:10077000C6127743B4F9246040134E43760006EB6B
:10078000A706B4F91E704EEA09394F4394F92010B8
:10079000C9F5801949014143C91001EB6701A08BDC
:1007A000891401F500414843B4F9221002F00F0CFE
:1007B000090401EBA606A9EB26367343C113B3FB6C
:1007C000F1F141F39C004043B4F92A3040135843FF
:1007D000B4F9283041F35D077B4341F3D7165B132F
:1007E00003EB203306FB06F0464394F82C009209F5
:1007F000464394F9270003EB664303EBC0136420E0
:100800001B1103EB4103C8F80830236B94F90E1059
:1008100003EB830380331B12594391FBF0F194F9EE
:100820000D6059435E43891196FBF0F691FBF0F1A0
:100830003144668901F5804171438E12DDE9017111
:1008400041EA07212789A1EB071194F90C705F4356
:1008500097FBF0F7A1EB6701714394F91060002753
:10086000734393FBF0F3E07B40F23C5603EBC01381
:10087000881340431B118012434301EB6303991219
:100880004FF47A734B432B491B1323EAE3738B42D8
:10089000D4BFC8F80C30C8F80C10052194F93630D4
:1008A000C3FB0167244B53F82C30A6FB030103FB69
:1008B0000711060C4FEA214E46EA01460021039B30
:1008C00042EA8302D30313F17F4341F1FF319A19C6
:1008D00041EB0E03194951F82C10A1FB066701FBEF
:1008E0000E77700A560846EAC37640EAC7504FEAC8
:1008F000672C591080194CEB01010AF01DF9C8F85A
:1009000010006DB1284609B0BDE8F08F0A20236DB4
:100910009847013F17F0FF077FF4A6AE0225F1E7E5
:1009200098F90030002BB6BF012384F8455084F8B5
:100930004530E7E7A08601000000002040000020CD
:100940007047106870470246037C13F008001EBF12
:10095000506AD36A181A0028B8BF6FF00040704779
:1009600070477047704710B504462C2109F0D9F83C
:10097000204610BD10B50446342109F0D2F82046B7
:1009800010BD10B5044641F2300109F0CAF8204606
:1009900010BD000008B55221024806F063FB01209B
:1009A00008BD00BF1C0C0020083005F02FBD103022
:1009B00005F02CBD07B501228DF8071010300DF1A0
:1009C000070105F023FD03B05DF804FB103005F0CE
:1009D00093BC103005F0BFBB07B501220DF1070134
:1009E000103005F009FB012814BF4FF0FF309DF8CF
:1009F000070003B05DF804FB00F2644005F067B93E
:100A000000F2644005F09BB800F2644005F0D9B8EC
:100A100000F2644005F04BB810B50446006808B118
:100A200006F090FE204610BD10B50C46042206F0DC
:100A3000F5FB204610BD002313B5ADF8063007F0D6
:100A400020FC982804460BD808F0C4FF2046022258
:100A50000DF1060106F0DAFBBDF8060002B010BD8C
:100A60004FF0FF30FAE710B50C46042206F0CEFB3B
:100A7000204610BD07B501228DF8071008300DF192
:100A8000070105F0C3FC03B05DF804FB0EB403B529
:100A900003AB53F8042B0021019307F05FFD02B074
:100AA0005DF804EB03B07047002340681A4619460E
:100AB00006F0D8BD10B50446142109F032F82046DE
:100AC00010BD0EB410B50023016820208DB00FAA10
:100AD00052F8044BCDE90403CDE9004203921E20F5
:100AE00004AA06F033FD0DB0BDE8104003B0704716
:100AF00010B50D4C2378BFF35B8FDB0711D4204674
:100B0000FFF7E9FA68B10321084A094B094808F0E0
:100B10006FFD2046FFF7E4FA074A0849054808F048
:100B2000FBFF044810BD00BFFC02002004030020AE
:100B30008803002018050020B002002041090808A1
:100B400010B5FFF7D5FF074B044653B108F06DFD14
:100B500038B1236820461B699847002801DDAFF3B0
:100B6000008010BD0000000010B50D4C2378BFF3CD
:100B70005B8FDB0711D42046FFF7ADFA68B1042183
:100B8000084A094B094808F033FD2046FFF7A8FA48
:100B9000074A0849054808F0BFFF044810BD00BFD8
:100BA000000300200C040020900400202C050020ED
:100BB000B00200204109080810B5FFF7D5FF074B28
:100BC000044653B108F031FD38B1236820461B6953
:100BD0009847002801DDAFF3008010BD0000000041
:100BE00038B5044600F2644004F0D0FE08B9002095
:100BF00038BD04F58865284605F0B4FB0121204680
:100C000005F0DDFD014668B12146284605F0DBF917
:100C10000028ECD094F8403413F0700FE7D0044B68
:100C20001D60E5E7204605F0CAFD0028ECD1DEE7AF
:100C3000D41C002038B50C46054608F045FF6B2152
:100C400008F0A6FD08F040FF036829469B68984716
:100C500008F03AFF036821469B68984708F034FF84
:100C6000BDE83840012108F0AEBD000037B508F0FE
:100C7000B1FE40F213636425002401A90020019312
:100C8000FFF7D2FE08F0A6FE01A908200195FFF7A4
:100C9000CBFE08F09FFE01A910200195FFF7C4FECE
:100CA00008F098FE01A998200195FFF7BDFE08F015
:100CB00091FE01A918200195FFF7B6FE08F08AFE03
:100CC00001A920200195FFF7AFFE08F083FE01A9DE
:100CD00028200195FFF7A8FE08F07CFE01A930202E
:100CE0000195FFF7A1FE08F075FE01A938200195D6
:100CF000FFF79AFE08F06EFE01A940200195FFF76C
:100D000093FE08F067FE01A904200194FFF78CFE12
:100D100008F060FE01A90C200194FFF785FE08F0A1
:100D200059FE01A994200194FFF77EFE08F052FEBF
:100D300001A914200194FFF777FE08F04BFE01A9EA
:100D40001C200194FFF770FE08F044FE01A9242046
:100D50000194FFF769FE08F03DFE01A92C200194E3
:100D6000FFF762FE08F036FE01A934200194FFF778
:100D70005BFE08F02FFE01A93C200194FFF754FE12
:100D800008F028FE01A944200194FFF74DFE08F069
:100D900021FE01A948200194FFF746FE08F01AFE43
:100DA00001A958200194FFF73FFE08F013FE4149C6
:100DB0005C20FFF739FE08F00DFE4FF47A7301A9AD
:100DC0004C200193FFF730FE08F004FE42F210734E
:100DD00001A950200193FFF727FE08F0FBFD6FF0FB
:100DE000060301A954200193FFF71EFE324B186839
:100DF00009F062FC07F084FC08F0ECFD01A960201A
:100E00000194FFF711FE08F0E5FD2846012501A930
:100E10000194FFF709FE08F0DDFD01A968200195A6
:100E2000FFF702FE08F0D6FD01A96C200194FFF740
:100E3000FBFD08F0CFFD01A970200194FFF7F4FD40
:100E400008F0C8FD01A974200195FFF7EDFD08F039
:100E5000C1FD01A978200195FFF7E6FD08F0BAFD74
:100E600001A97C200194FFF7DFFD08F0B3FD01A983
:100E700080200195FFF7D8FD08F0ACFD01A9842082
:100E80000194FFF7D1FD08F0A5FD01A98820019488
:100E9000FFF7CAFD08F09EFD01A98C200194FFF721
:100EA000C3FD08F097FD01A990200194FFF7BCFD58
:100EB00003B030BD881C0020741C00202DE9F347CE
:100EC000C64C08F087FD21460020FFF7CCFD2368C3
:100ED000013304D140F213632360FFF7C7FE08F02B
:100EE00079FD01A90820FFF7BEFD019809F0E4FB98
:100EF000BB4909F0E9FCDFF87493DFF87483C9F8A3
:100F0000000008F067FD01A91020FFF7ACFD019873
:100F100009F0D2FBB24909F0D7FCC8F8000008F08C
:100F200059FD01A99820FFF79EFD019809F0C4FB27
:100F3000AB4909F0C9FCAB4FAB4E386008F04AFD35
:100F400001A91820FFF78FFD019809F0B5FBA4490E
:100F500009F0BAFC306008F03DFD01A92020FFF740
:100F600082FD019809F0A8FB9D4909F0ADFC9F4D59
:100F70009F4C286008F02EFD01A92820FFF773FD83
:100F8000019809F099FB964909F09EFC206008F051
:100F900021FD01A93020FFF766FD019809F08CFBC7
:100FA0008F4909F091FC934BDFF8C8A2186008F054
:100FB00011FD01A93820FFF756FD019809F07CFBCF
:100FC000874909F081FC8C4B186008F003FD01A9EA
:100FD0004020FFF748FD019809F06EFB804909F0B9
:100FE00073FC864B186008F0F5FC85490420FFF778
:100FF0003AFD08F0EFFC83490C20FFF734FD08F0C0
:10100000E9FC81499420FFF72EFD08F0E3FC7F49BD
:101010001420FFF728FD08F0DDFC7D491C20FFF7B8
:1010200022FD08F0D7FC7B492420FFF71CFD08F0C7
:10103000D1FC79492C20FFF716FD08F0CBFC77494D
:101040003420FFF710FD08F0C5FC75493C20FFF780
:101050000AFD08F0BFFC73494420FFF704FD08F0C7
:10106000B9FC71494820FFF7FEFC08F0B3FC6F495A
:101070005820FFF7F8FC08F0ADFC6D495C20FFF745
:10108000F2FC08F0A7FC6B494C20FFF7ECFC08F0E1
:10109000A1FC69495020FFF7E6FC08F09BFC01A980
:1010A0005420FFF7E0FC019809F006FB07F028FB4D
:1010B00008F090FC61496020FFF7D5FC08F08AFC3D
:1010C0005F496420FFF7CFFC08F084FC5D4968208D
:1010D000FFF7C9FC08F07EFC5B496C20FFF7C3FCFE
:1010E00008F078FC59497020FFF7BDFC08F072FC4D
:1010F00057497420FFF7B7FC08F06CFC554978207D
:10110000FFF7B1FC08F066FC53497C20FFF7ABFC0D
:1011100008F060FC51498020FFF7A5FC08F05AFC5C
:101120004F498420FFF79FFC08F054FC4D4988206C
:10113000FFF799FC08F04EFC51468C20FFF793FC1A
:1011400008F048FC90204849FFF78DFCDAF80030A1
:1011500013B1002007F0D4FA41F287313C4AD9F8A4
:1011600000001368013B8B4288BF01234FF0000150
:1011700088BF136009F088FC18B14FF07E53C9F89E
:1011800000300021D8F8000009F07EFC18B14FF0C3
:101190007E53C8F800300021386809F075FC10B1A2
:1011A0004FF07E533B600021306809F06DFC10B1B8
:1011B0004FF07E5333600021286809F065FC10B1C0
:1011C0004FF07E532B600021206809F05DFC10B1C8
:1011D0004FF07E53236002B0BDE8F087800000200E
:1011E0000000C842C8020020E0020020E8020020FF
:1011F000D8020020781C00209007002098070020CB
:10120000B8020020D0020020D4020020E402002016
:10121000EC020020DC0200207C1C0020940700204F
:101220009C0700204C1C0020D40500205007002003
:10123000881C0020980000209C000020801C0020BA
:1012400048070020440700204C07002054070020D6
:10125000400700205005002040050020AC0600207B
:10126000CC02002060060020CC050020B402002043
:10127000C4020020180C002010B508F0BBF8036869
:101280001B69984790B9FFF76FFC03681B69984783
:101290000028F2DDFFF768FC03685B6998470446A5
:1012A00008F0A8F8E1B207F03DF8E6E710BD00004D
:1012B0002DE9F34106460D4600240F4F01F1FF389A
:1012C000AC4212D03946325D01A806F04BFA08F064
:1012D00091F801A907F022F8A04504D008F08AF897
:1012E000202107F01FF80134EAE708F083F807F03F
:1012F0001CF802B0BDE8F081FACB0808F8B5044646
:101300000D4606460F18BE4207D0FFF72DFC0368B6
:1013100016F8011B9B689847F5E729462046BDE86B
:10132000F840FFF7C5BF00001FB5074A01AB52F8F0
:101330000E0F5168128903C30A2101A81A80FFF712
:10134000DDFF05B05DF804FBE8E908081FB5074AB2
:1013500001AB52F8180F5168128903C30A2101A882
:101360001A80FFF7CBFF05B05DF804FBE8E9080839
:1013700038B52F4B1D682F4B1B680BB32E4B58896C
:1013800009F096F92D4909F09FFA2D4909F0E8F97D
:101390002C4909F0DBF8044625B108F02BF82A495E
:1013A00006F0CFFF294B2046196809F0D9F9044609
:1013B000274B186809F080F9214609F0C9F838BDB3
:1013C000244B1B6813B325B108F014F8224906F02A
:1013D000B8FF0B2008F0E6FA09F06EF908F012FDEC
:1013E0000FA3D3E9002308F065FD09F05BF84FF087
:1013F0007C5109F0ABF808F005FD0BA3D3E90023FD
:1014000008F082FE09F04EF80446CBE725B107F05C
:10141000F1FF124906F095FF114B1C68C2E700BFAF
:101420002D431CEBE2364A3F7B14AE47E17A843F02
:10143000D4050020AC060020A006002000F87F465E
:101440000000254300002042FFCB0808781C002044
:101450007C1C00204407002020CC08083FCC080852
:1014600054050020000000002DE9F0478E4F88B0A1
:1014700068468E4906F0F0FC3A6822B107F0BAFFE0
:101480008B4906F05EFF8B4D0021288808F071FA29
:1014900008F0F2FA01224A2108F073F948BB07F07C
:1014A000A9FF854906F04DFF00240021834803F081
:1014B000E2FB30B93B6823B107F09CFF804906F09E
:1014C00040FF08F0D9FA01224A2108F05AF9002811
:1014D00039D168467B4906F011FD00240121288896
:1014E00008F047FA684606F06DFC204608B0BDE8F3
:1014F000F0870321744803F005FD09F0DDF8734B14
:10150000196809F02DF97249044609F0DDF906461B
:1015100008F078FC00226F4B08F014FB21F0004922
:10152000002249466C4B08F055FF0028BDD007F05B
:1015300061FF6A4906F0F2FE07F05CFF02223146C5
:1015400006F0FEFFB1E700215C4803F094FB0028A1
:10155000BFD020465E4909F0B7F908F053FC0022DD
:101560005C4B08F0EFFA21F00047002239465A4B55
:1015700008F030FF04460028ABD10A278046814698
:10158000514E0021304603F0BDFC0121814430461C
:1015900003F0B8FC02218044304603F0B3FC032181
:1015A000304603F0AFFC013F0444EAD14FF00A0A91
:1015B000464BB4FBFAF01F6809F07EF8394609F093
:1015C000CFF80446B9FBFAF009F076F8394609F08D
:1015D000C7F80146204608F0B9FF414909F074F9FF
:1015E0000646B8FBFAF009F067F8394609F0B8F892
:1015F0000146204608F0AAFF3A4909F065F9044679
:10160000FFF7B6FE384909F053FAD0B1214630460B
:1016100008F09CFF08F0F6FB1FA3D3E9002308F0B5
:1016200073FD08F03FFF02220146044604A806F0BD
:1016300089FC684604A906F059FC04A806F0C2FB20
:101640004CE7FFF795FE294909F032FA20B121460F
:10165000304608F07DFFDDE7FFF78AFE234909F0F9
:101660003BFAA8B1204608F0CDFB0DA3D3E9002337
:1016700008F020FC80463046894608F0C3FB02464D
:101680000B464046494608F05FFA08F00BFFC1E7F9
:101690000020BFE7AFF30080B6F3FDD478E9D63F72
:1016A00052B81E85EB51E83FD405002069EB0808CD
:1016B0006BCC0808C400002081CC0808B2060020CA
:1016C000B6CC0808DDCC08084A05002084000020BC
:1016D00000007A440000F43F0000E03FA6CC080878
:1016E0000000F0C2000016C3000070410000C841B5
:1016F00030B51E49044685B002230C22A1F58E6048
:10170000FFF76EFA60B307F075FE194906F019FE8F
:10171000184A1949194D462312680968184804F0F7
:1017200028FE2B689BB91749174806F00AFE07F0F8
:101730001CF9C3170246684607F014F800991248CE
:1017400006F0FFFD684606F03DFB01232B60216893
:101750000D4806F0F6FD0A4804F004FE05B030BD61
:1017600007F048FE094906F0ECFDF7E7100C0020F1
:10177000E1CC0808F8060020D41C00203407002023
:1017800010070020FBCC08080807002012CD08082D
:101790002DE9F0478CB06846B94906F05DFBB94FBA
:1017A000DFF8DC82B84EFFF7DFF90D22014608A80A
:1017B00006F030FF08A9684606F098FB08A806F076
:1017C00001FB07230422694604A806F099FC394668
:1017D00004A806F03BFC054668BB4146684606F097
:1017E00035FC044650B307F005FE314606F0A9FD6E
:1017F000314608A806F030FB08A8FFF779FF08A8D3
:1018000006F0E0FA012404A806F0DCFA5DB14FF01E
:1018100000089E4904A806F01FFB4746DFF888929F
:101820009B4E9C4D32E0002CBDD0684606F0CAFAB3
:101830000CB0BDE8F08700240125E4E70546E2E7A7
:1018400004F1010A5146684606F01BFC2C281AD008
:1018500004F10B035246694608A806F051FC08A99A
:1018600004A806F043FB08A806F0ACFA8A4B1B68F4
:101870004BB107F0BFFD894906F050FD07F0BAFDF6
:10188000049906F05EFD013708F10108029B1FFA7A
:1018900088F4A34240F2F0802146684606F0F1FB4E
:1018A0002C28F1D1072F00F2E18001A353F827F093
:1018B00041180808D11808086D1A080843190808C3
:1018C0006D1A08086D1A0808AD190808EB19080800
:1018D00004F1010A5146684606F0D3FB2C28D2D009
:1018E00004F10A035246694608A806F009FC08A953
:1018F00004A806F0FBFA08A806F064FA664B1B6819
:101900004BB107F077FD664906F008FD07F072FD60
:10191000049906F003FD04A908A806F0DCFA04F116
:101920000C01684606F0ADFB08A90246304603F0FC
:1019300013FB08A806F046FA2B8823F008032B8037
:10194000A1E704F1010A5146684606F09AFB2C28EB
:1019500099D004F10B035246694608A806F0D0FB63
:1019600008A904A806F0C2FA08A806F02BFA4A4B08
:101970001B684BB107F03EFD4A4906F0CFFC07F06B
:1019800039FD049906F0CAFC04A908A806F0A3FAD8
:1019900004F10D01684606F074FB08A902463046C2
:1019A00003F022FB08A806F00DFA6CE704F1010A27
:1019B0005146684606F065FB2C283FF464AF52465A
:1019C000E31C694608A806F09BFB08A904A806F0DA
:1019D0008DFA08A806F0F6F904A908A806F07BFA23
:1019E000304608A903F046FBDCE704F1010A514642
:1019F000684606F046FB2C283FF445AF5246E31CF0
:101A0000694608A806F07CFB08A904A806F06EFA4F
:101A100008A806F0D7F904A908A806F05CFA08A9F6
:101A2000304603F02FFB08A806F0CCF92B8830468F
:101A300023F00C032B8003F03BFB012803DC2B88F5
:101A400043F00C037BE7304603F032FB042803DC51
:101A50002B8843F0080372E7304603F029FB132874
:101A60003FF711AF2B8843F0040368E707F0C2FC8F
:101A70004946FFF70BF806E704A806F0A3F9D4E6F9
:101A80002ECD080833CD080837CD080869EB0808C3
:101A900068060020601C0020D405002049CD0808FD
:101AA0005ACD08086CCD08087FCD08082DE9F0470D
:101AB00090B0B649684606F0CFF9B54904A806F0DB
:101AC000CBF9B44DB14CFFF74FF80D2201460CA8ED
:101AD00006F0A0FD0CA9684606F008FA0CA806F06E
:101AE00071F90723042269460CA806F009FB0CA92A
:101AF00004A806F0FBF90CA806F064F9294604A82E
:101B000006F0A4FA002840F036812146684606F027
:101B10009DFA0028D7D007F06DFC9F4906F011FC14
:101B20009D490CA806F098F90CA8FFF7E1FD0CA858
:101B300006F048F904A806F045F9684606F042F9AF
:101B400010B0BDE8F08704F1010A5146684606F07E
:101B500098FA2C2800F08A8004F10B03524669465B
:101B60000CA806F0CDFA0CA908A806F0BFF90CA83D
:101B700006F028F9894B1B68002B77D007F03AFC58
:101B8000874906F0CBFB07F035FC089906F0D9FB36
:101B90006CE004F1010A5146684606F072FA2C28FE
:101BA00064D004F10A03524669460CA806F0A8FA6C
:101BB0000CA908A806F09AF90CA806F003F9774BCF
:101BC0001B684BB107F016FC764906F0A7FB07F03F
:101BD00011FC089906F0A2FB08A90CA806F07BF9F5
:101BE00004F10C01684606F04CFA0CA90246304696
:101BF00003F0B2F90CA806F0E5F82B8823F00803EF
:101C00002B8033E004F1010A5146684606F039FAA8
:101C10002C282BD004F10B03524669460CA806F081
:101C20006FFA0CA908A806F061F90CA806F0CAF82A
:101C30005A4B1B684BB107F0DDFB5B4906F06EFBAE
:101C400007F0D8FB089906F069FB08A90CA806F074
:101C500042F904F10D01684606F013FA0CA9024698
:101C6000304603F0C1F90CA806F0ACF808F1010801
:101C70000137029BBCB2A3427BD92146684606F0DD
:101C800000FA2C28F4D108F1FF33062B6DD801A2FD
:101C900052F823F0931B08086B1D0808051C080860
:101CA0006B1D0808B11C0808471B0808ED1C080834
:101CB00004F1010A5146684606F0E3F92C28D5D014
:101CC0005246E31C69460CA806F01AFA0CA908A8AB
:101CD00006F00CF90CA806F075F808A90CA806F097
:101CE000FAF830460CA903F0C5F9BCE704F1010A83
:101CF0005146684606F0C5F92C28B7D05246E31C79
:101D000069460CA806F0FCF90CA908A806F0EEF844
:101D10000CA806F057F808A90CA806F0DCF80CA9E6
:101D2000304603F0AFF90CA806F04CF82B8830468B
:101D300023F00C032B8003F0BBF9012803DC2B8874
:101D400043F00C035CE7304603F0B2F9042803DCEF
:101D50002B8843F0080353E7304603F0A9F9132812
:101D600084DC2B8843F004034AE707F043FB494631
:101D70000CE708A8DCE60027054908A806F06CF87F
:101D8000B846DFF83090094E094D72E72ECD0808AD
:101D900069EB0808ADCD08089BCD0808D4050020E4
:101DA00049CD08085ACD08086CCD080868060020FF
:101DB000601C0020B1CD08082DE9F04F904C89B08F
:101DC0006846904906F048F8236823B107F012FBF3
:101DD0008D4906F0B6FA8D4E0021308807F0C9FD16
:101DE00007F04AFE0122492107F0CBFC002845D12B
:101DF000236873B107F0FEFA854906F0A2FA844918
:101E000004A806F029F804A8FFF772FC04A805F05E
:101E1000D9FF00217F4802F02EFF80B9236873B1FB
:101E200007F0E8FA7C4906F08CFA7C4904A806F031
:101E300013F804A8FFF75CFC04A805F0C3FF07F043
:101E40001BFE0122492107F09CFC002840D1684676
:101E5000734906F053F800250121308807F089FD09
:101E6000236823B107F0C6FA6E4906F057FA6846B0
:101E700005F0A8FF284609B0BDE8F08F03216A48A5
:101E800003F040F808F018FC684B196808F068FC8B
:101E9000674908F019FD07F0B5FF0022654B804641
:101EA000894607F04FFE21F0004B00225946624B55
:101EB00008F090FA0028ACD02368002BA9D007F0D6
:101EC00099FA5E4942464B46FEF7E0FD5C4997E7CA
:101ED0000021504802F0CFFE0028B8D000250A2784
:101EE000A846A946DFF840A10021504603F00AF8B1
:101EF00001218144504603F005F8022180445046F8
:101F000003F000F80321504602F0FCFF013F17F0F8
:101F1000FF070544E8D14FF00A0B444BB5FBFBF03B
:101F2000D3F800A008F0C8FB514608F019FC07469A
:101F3000B9FBFBF008F0C0FB514608F011FC01466C
:101F4000384608F003FB3F4908F0BEFC0546B8FBE5
:101F5000FBF008F0B1FB514608F002FC01463846A0
:101F600008F0F4FA384908F0AFFC0746FFF700FA2A
:101F7000364908F09DFDD0B13946284608F0E6FA0A
:101F800007F040FF1AA3D3E9002308F0BDF808F0DA
:101F900089FA02220146054604A805F0D3FF6846E7
:101FA00004A905F0A3FF04A805F00CFF54E7FFF710
:101FB000DFF9274908F07CFD20B13946284608F0B2
:101FC000C7FADDE7384607F01DFF0BA3D3E900236E
:101FD00007F070FF80462846894607F013FF024647
:101FE0000B464046494607F0AFFD08F05BFAC7E7ED
:101FF000B6F3FDD478E9D63F52B81E85EB51E83FE1
:10200000D405002069EB0808D9CD0808C0000020DD
:10201000EDCD0808B10600203DCE080861CE0808C5
:10202000DDCC080874CE0808440500208400002098
:1020300000007A440000F43F0000E03F12CE0808A0
:1020400024CE08080000F0C2000016C30000704152
:102050000000C84110B590B01D4908A805F0FCFE6D
:102060001C4904A805F037FF04A908A805F0CEFF15
:10207000194905F0D7FF044618490CA805F02BFFB5
:102080000CA9204605F0C2FF154905F0CBFF01461B
:10209000684605F020FF0CA805F094FE04A805F0A2
:1020A00091FE08A805F08EFE07F0A4F90D4906F090
:1020B00048F907F0BDFA009906F043F907F09AF9DC
:1020C000094906F03EF9684605F07CFE10B010BDE7
:1020D00089CE0808501C00208CCE08085807002024
:1020E000E6CE08088ECE0808B2CE080810B52C4CF3
:1020F0000121208807F03DFCFA2006F097FC002122
:10210000208807F036FCFA2006F090FC0121208898
:1021100007F02FFCFA2006F089FC0021208807F048
:1021200028FCFA2006F082FC0121208807F021FC1F
:10213000FA2006F07BFC0021208807F01AFCFA2028
:1021400006F074FC0121208807F013FCFA2006F049
:102150006DFC0021208807F00CFCFA2006F066FCDC
:102160000121208807F005FCFA2006F05FFC002121
:10217000208807F0FEFBFA2006F058FC0121208899
:1021800007F0F7FBFA2006F051FC2088002107F049
:10219000F0FBBDE810406B210720FEF74BBD00BFF0
:1021A000C800002070B5124E124D3088124C00212C
:1021B00007F0DFFB2888002107F0DBFB00212088E7
:1021C00007F0D7FB4FF47A7006F030FC308801211D
:1021D00007F0CFFB2888012107F0CBFB20880121E5
:1021E00007F0C7FBBDE870404FF47A7006F01EBCE4
:1021F00090000020880000208C00002000B58FB0E7
:10220000834902A805F028FE07F0F4F8814906F09A
:1022100098F800230093804B06A8D3E9002305F02B
:10222000A8FE06A90AA805F056FE7C490AA805F0F2
:10223000F9FE014602A805F0C9FE0AA805F0C2FD94
:1022400006A805F0BFFD764B0322196806A805F025
:1022500079FE06A90AA805F03EFE70490AA805F015
:10226000E1FE014602A805F0B1FE0AA805F0AAFDAC
:1022700006A805F0A7FD6B4B0322196806A805F018
:1022800061FE06A90AA805F026FE64490AA805F021
:10229000C9FE014602A805F099FE0AA805F092FDC4
:1022A00006A805F08FFD604802F0F8FE002200232A
:1022B00008F068F8002840F09C805B4802F0FDFEC2
:1022C00018B95A4902A805F085FE574802F0E6FE03
:1022D0000B4606210246009106A805F04AFE06A913
:1022E0000AA805F0F8FD4D490AA805F09BFE014635
:1022F00002A805F06BFE0AA805F064FD06A805F02B
:1023000061FD494802F0CFFE0022002308F03AF8B0
:10231000002873D1444802F0D3FE012803D1434979
:1023200002A805F057FE404802F0BDFE0B4606210C
:102330000246009106A805F01CFE06A90AA805F0B1
:10234000CAFD36490AA805F06DFE014602A805F04F
:102350003DFE0AA805F036FD06A805F033FD32481B
:1023600002F0A1FE0022002308F00CF800284AD158
:102370002D4802F09DFE07F033FD00222C4B07F0A4
:10238000C3FE0B4606210246009106A805F0F1FDAA
:1023900006A90AA805F09FFD20490AA805F042FEFB
:1023A000014602A805F012FE0AA805F00BFD06A8DA
:1023B00005F008FD1F4B0AA800931F4B1F49D3E9E6
:1023C000002306F073FA0AA902A805F0FFFD0AA887
:1023D00005F0F8FC1A4902A805F0FCFD07F028F901
:1023E000029905F09BFF02A805F0ECFC0FB05DF828
:1023F00004FB144906A805F02FFD70E7124906A852
:1024000005F02AFD99E7114906A805F025FDBFE76B
:1024100069EB0808BBCE0808380700208CCE0808F6
:10242000BC020020C002002068060020D0CE0808B0
:1024300000002440D2CE0808681C0020F41C0020B4
:10244000E4CE0808A6000020B2000020A000002072
:1024500038B51D4805F028FA054606F0CBFF2A4698
:102460001A49FEF713FB642D1FD0962D1FD0B5F52A
:10247000FA7F1FD0B5F5617F1FD0B5F5966F40F29A
:10248000DC5407D0A5421BD040F6B834B5F5FA6F3E
:1024900018BF2C46A1B20C4805F047FA06F0AAFF77
:1024A00022460B49FEF7F2FA38BD9624F2E74FF4C4
:1024B000FA74EFE74FF46174ECE74FF49664E9E7E0
:1024C0004FF4FA64E6E700BF68070020E8CE08088A
:1024D00006CF08087FB52D4805F0F2F910F0800FFF
:1024E00014BF4FF4006500250446430648BF05F5B8
:1024F0008065860648BF05F50075E00648BF05F50E
:102500008075210748BF8035620748BF403506F017
:1025100071FF2A461E49FEF7B9FA201D030656BF71
:1025200000214FF400650D46C4B248BF012114F0EC
:1025300040021CBF05F58065012214F020031CBF7A
:10254000012305F5007514F010001CBF05F580751A
:10255000012014F008061CBF8035012614F0040485
:1025600018BF01240090CDE90164084818BF403528
:1025700005F039FA054805F0A3F906F03BFF2A46B5
:102580000449FEF783FA04B070BD00BF680700205D
:1025900024CF08084DCF080830B55A4D95B006F045
:1025A00029FF594905F0BAFE584C06F023FF296867
:1025B00005F0C7FE06F01EFF554905F0AFFE06F018
:1025C00019FF216805F0BDFE06F014FF514905F022
:1025D000B8FE06F00FFF4CF2503106F005F806F099
:1025E00009FF0D220146684606F014F868464A497C
:1025F00005F02CFD002874D006F0FCFE474905F0DC
:10260000A0FE06F0F7FE464905F09BFE06F0F2FE3E
:102610004CF2503105F0E8FF06F0ECFE0D220146C9
:1026200004A805F0F7FF06F0E5FE3E4905F076FE4A
:1026300006F0E0FE049905F084FE06F0DBFE3A4960
:1026400005F07FFE06F0D6FE0D22014608A805F033
:10265000E1FF364908A805F0F9FC00284CD006F047
:10266000C9FE334905F06DFE04A9284605F024FC97
:1026700006F0C0FE2F4905F064FE06F0BBFE0D22F9
:1026800001460CA805F0C6FF06F0B4FE2A4905F085
:1026900045FE06F0AFFE0C9905F053FE06F0AAFECB
:1026A0000D22014610A805F0B5FF204910A805F03D
:1026B000CDFCD8B106F09EFE204905F042FE0CA9E3
:1026C000204605F0F9FBFFF7C5FC10A805F07AFBE2
:1026D0000CA805F077FB08A805F074FB04A805F02A
:1026E00071FB684605F06EFB15B030BD06F082FE4A
:1026F000134905F026FEE8E706F07CFE104905F0D8
:1027000020FEE8E7501C00206BCF08085807002087
:1027100081CF08089BCF0808CDCF0808D3CF080881
:10272000E5CF0808F5CF08080DD0080839D7080804
:1027300023D0080833D0080846D0080862D008081B
:1027400076D008081FB506F055FE194905F0F9FDC9
:1027500006F050FE4CF2503105F046FF06F04AFEFE
:102760000D220146684605F055FF6846114905F0FF
:102770006DFCB8B106F03EFE0F4905F0E2FD06F033
:1027800039FE0E4905F0DDFD01230D4C236007F0F5
:1027900021F921468C20FEF747F9684605F012FB27
:1027A00004B010BD06F026FE064905F0CAFDF4E7A8
:1027B00089D00808CCD00808D3CF0808D7D008089B
:1027C000180C0020F8D008081FB506F013FE05F01D
:1027D000ACFD06F00FFE144905F0B3FD06F00AFE4D
:1027E0004CF2503105F000FF06F004FE0D220146C8
:1027F000684605F00FFF68460C4905F027FC60B1FC
:1028000006F0F8FD0A4905F09CFDFEF72FFA684630
:1028100005F0D8FA05B05DF804FB06F0EBFD0549BC
:1028200005F08FFDF3E700BF0ED10808CDCF0808F3
:1028300047D10808F8D0080810B588B006F0DAFDCE
:10284000204905F07EFD06F0D5FD4CF2503105F033
:10285000CBFE06F0CFFD0D220146684605F0DAFEFC
:10286000684605F00EFD044606F0C4FD164905F065
:1028700068FD164B9C421EDDE117204605F05EFF09
:1028800006F0B8FD124905F049FD06F0B3FD044617
:1028900006F06BF80246C31704A805F063FF204654
:1028A000049905F04EFD04A805F08CFA684605F081
:1028B00089FA08B010BD06F09DFD064905F041FDFE
:1028C000F4E700BFB6D1080869EB0808F52E943983
:1028D000F1D1080804D2080830B58BB006F08AFDA3
:1028E00005F023FD06F086FD324905F017FD06F0E0
:1028F00081FD0446304D0222296806A805F022FB1E
:102900000699204605F00AFD06A805F05BFA06F0D8
:1029100071FD2A4905F015FD06F06CFD284905F00A
:10292000FDFC06F067FD4CF2503105F05DFE06F04F
:1029300061FD0D22014602A805F06CFE02A805F01B
:10294000A5FC4FF07C51044608F0BCF858B3204673
:102950001C4908F0A3F830B31B4920462C6007F04F
:10296000FFFE08F0C3F8019006F044FD174905F09A
:10297000D5FC06F03FFD04460222296806A805F0B2
:10298000E1FA0699204605F0DCFC06A805F01AFAE3
:1029900007F020F8082001A9FEF746F802A805F084
:1029A00011FA0BB030BD06F025FD094905F0C9FC50
:1029B000F4E700BF15D20808B402002028D20808A6
:1029C0002DD20808000020410000C84243D2080868
:1029D00004D208080000000030B58BB006F00AFDF4
:1029E00005F0A3FC06F006FD374905F097FC06F05C
:1029F00001FD0446354D0222296806A805F0A2FA19
:102A00000699204605F08AFC06A805F0DBF906F0D9
:102A1000F1FC2F4905F095FC06F0ECFC2D4905F082
:102A20007DFC06F0E7FC4CF2503105F0DDFD06F0D0
:102A3000E1FC0D22014602A805F0ECFD02A805F01C
:102A400025FC044607F0DEF91DA3D3E9002307F0B7
:102A5000B7FC60B34FF08041204608F01FF830B358
:102A60001D4920462C6007F07BFE08F03FF80190DE
:102A700006F0C0FC194905F051FC06F0BBFC044609
:102A80000222296806A805F05DFA0699204605F09D
:102A900058FC06A805F096F906F09CFF102001A945
:102AA000FDF7C2FF02A805F08DF90BB030BD06F0AE
:102AB000A1FC0B4905F045FCF4E700BFAFF3008033
:102AC0009A9999999999B93F55D20808C40200205A
:102AD00028D2080867D208080000C8427CD208083B
:102AE00004D2080830B58BB006F084FC05F01DFC5C
:102AF00006F080FC324905F011FC06F07BFC044630
:102B0000304D0222296806A805F01CFA06992046D5
:102B100005F004FC06A805F055F906F06BFC2A49FF
:102B200005F00FFC06F066FC284905F0F7FB06F0FF
:102B300061FC4CF2503105F057FD06F05BFC0D22B4
:102B4000014602A805F066FD02A805F09FFB4FF0C4
:102B50007C51044607F0B6FF60B34FF07F5120462A
:102B600007F09CFF30B31A4920462C6007F0F8FDAF
:102B700007F0BCFF019006F03DFC164905F0CEFBC6
:102B800006F038FC04460222296806A805F0DAF9A6
:102B90000699204605F0D5FB06A805F013F906F0C6
:102BA00019FF302001A9FDF73FFF02A805F00AF93F
:102BB0000BB030BD06F01EFC074905F0C2FBF4E780
:102BC0008ED20808781C0020A9D20808B4D20808C0
:102BD0000000C842D2D2080804D2080830B58BB031
:102BE00006F008FC05F0A1FB06F004FC324905F0F4
:102BF00095FB06F0FFFB0446304D0222296806A82B
:102C000005F0A0F90699204605F088FB06A805F016
:102C1000D9F806F0EFFB2A4905F093FB06F0EAFB32
:102C2000284905F07BFB06F0E5FB4CF2503105F03E
:102C3000DBFC06F0DFFB0D22014602A805F0EAFCF2
:102C400002A805F023FB4FF07C51044607F03AFF41
:102C500060B34FF07F51204607F020FF30B31A4990
:102C600020462C6007F07CFD07F040FF019006F045
:102C7000C1FB164905F052FB06F0BCFB04460222DC
:102C8000296806A805F05EF90699204605F059FB6B
:102C900006A805F097F806F09DFE382001A9FDF77B
:102CA000C3FE02A805F08EF80BB030BD06F0A2FB03
:102CB000074905F046FBF4E7ECD20808900700202E
:102CC00004D308080AD308080000C84225D308081E
:102CD00004D2080830B58BB006F08CFB05F025FB5C
:102CE00006F088FB324905F019FB06F083FB044629
:102CF000304D0222296806A805F024F906992046DD
:102D000005F00CFB06A805F05DF806F073FB2A49F8
:102D100005F017FB06F06EFB284905F0FFFA06F0F8
:102D200069FB4CF2503105F05FFC06F063FB0D22AD
:102D3000014602A805F06EFC02A805F0A7FA4FF0C4
:102D40007C51044607F0BEFE58B320461C4907F0EC
:102D5000A5FE30B31B4920462C6007F001FD07F0AB
:102D6000C5FE019006F046FB174905F0D7FA06F0BC
:102D700041FB04460222296806A805F0E3F80699FB
:102D8000204605F0DEFA06A805F01CF806F022FE43
:102D9000402001A9FDF748FE02A805F013F80BB08A
:102DA00030BD06F027FB094905F0CBFAF4E700BF78
:102DB0003CD30808980700204ED3080851D30808D0
:102DC000000020410000C84266D3080804D2080869
:102DD00008B506F00FFBA24905F0B3FA06F00AFBAE
:102DE000A04905F0AEFA06F005FB9F4905F0A9FAE7
:102DF00006F000FB9D4905F0A4FA06F0FBFA9C4999
:102E000005F09FFA06F0F6FA9A4905F09AFA06F0EC
:102E1000F1FA994905F095FA06F0ECFA974905F0B0
:102E200090FA06F0E7FA964905F08BFA06F0E2FA16
:102E3000944905F086FA06F0DDFA934905F081FA27
:102E400006F0D8FA914905F07CFA06F0D3FA9049D9
:102E500005F077FA06F0CEFA8E4905F072FA06F020
:102E6000C9FA8D4905F06DFA06F0C4FA8B4905F0F0
:102E700068FA06F0BFFA8A4905F063FA06F0BAFA72
:102E8000884905F05EFA06F0B5FA874905F059FA67
:102E900006F0B0FA854905F054FA06F0ABFA844919
:102EA00005F04FFA06F0A6FA824905F04AFA06F054
:102EB000A1FA814905F045FA06F09CFA7F4905F030
:102EC00040FA06F097FA7E4905F03BFA06F092FACE
:102ED0007C4905F036FA06F08DFA7B4905F031FAA7
:102EE00006F088FA794905F02CFA06F083FA784959
:102EF00005F027FA06F07EFA764905F022FA06F088
:102F000079FA754905F01DFA06F074FA734905F06F
:102F100018FA06F06FFA724905F013FA06F06AFA29
:102F2000704905F00EFA06F065FA6F4905F009FAE6
:102F300006F060FA6D4905F004FA06F05BFA6C4998
:102F400005F0FFF906F056FA6A4905F0FAF906F0BD
:102F500051FA694905F0F5F906F04CFA674905F0B0
:102F6000F0F906F047FA664905F0EBF906F042FA87
:102F7000644905F0E6F906F03DFA634905F0E1F928
:102F800006F038FA614905F0DCF906F033FA6049D9
:102F900005F0D7F906F02EFA5E4905F0D2F906F0F1
:102FA00029FA5D4905F0CDF906F024FA5B4905F0F0
:102FB000C8F906F01FFA5A4905F0C3F906F01AFAE3
:102FC000584905F0BEF906F015FA574905F0B9F968
:102FD00006F010FA554905F0B4F906F00BFA544919
:102FE00005F0AFF906F006FA524905F0AAF906F025
:102FF00001FA514905F0A5F906F0FCF94F4905F031
:10300000A0F906F0F7F94E4905F09BF906F0F2F940
:103010004C4905F096F906F0EDF94B4905F091F9A8
:1030200006F0E8F9494905F08CF906F0E3F948495A
:1030300005F087F906F0DEF9464905F082F906F059
:10304000D9F9454905F07DF906F0D4F9434905F071
:1030500078F906F0CFF9BDE80840414905F071B9AB
:1030600077D308088DD30808A2D30808B6D3080878
:10307000CAD30808DDD30808F2D3080806D4080824
:103080001DD4080833D4080849D408085ED40808B9
:103090007BD4080897D40808B1D40808CAD4080813
:1030A000E4D40808FDD4080819D5080836D508085E
:1030B0004FD508086BD5080883D508089CD50808A3
:1030C000B5D50808C9D50808DED50808F9D5080817
:1030D00014D608082AD608083BD608084DD6080892
:1030E0005ED6080870D6080899D60808C2D608081F
:1030F000F1D6080816D708083BD7080863D7080890
:10310000A3D70808E6D7080811D8080854D8080833
:103110009AD80808CED80808ECD8080810D90808AA
:103120002BD9080855D908088AD90808AED9080843
:10313000C2D90808DED9080803DA080827DA08081F
:103140004CDA080874DA0808A0DA0808E3DA080894
:1031500015DB08083BDB0808A1DB080805DC0808CC
:103160001ADC080838B5046805467CB16368013B81
:1031700063605BB9236820469B689847A368013B5E
:10318000A3601BB923682046DB689847284638BDF2
:1031900090B593B002AF4949384604F05DFE484906
:1031A00007F1100004F058FE464907F1300005F021
:1031B0001DFA07F1300107F1100004F097FE07F146
:1031C000300004F0FFFDBA6907F11000D31D23F0B1
:1031D0000703ADEB030D02A9002304F054FF012205
:1031E000002107F110009DF8084005F030F8014675
:1031F00007F1100004F060FE334907F1200004F0ED
:103200002BFE2F4907F1300004F026FE07F13002B3
:1032100007F1200107F1100004F094FF07F13000DE
:1032200004F0D0FD07F1200004F0CCFD06F0E2F838
:10323000264905F086F806F0DDF8396905F081F8D1
:10324000592C28D106F0D6F8214905F07AF806F075
:10325000D1F8396905F075F81E4B3A691B781E499B
:103260008DF8003007F130003C2305F093FE07F1A4
:103270003400FFF777FF03F0B9FF184B186004F034
:1032800029FA07F1100004F09DFD384604F09AFD7C
:103290004437BD4690BD512CF3D106F0ABF8104930
:1032A00005F04FF806F0A6F8396905F04AF807F17D
:1032B00010010C4804F000FEE3E700BF3DDD080804
:1032C00069EB08081C0C002040DD080842DD0808F6
:1032D00055DD08081405002074DD0808DC210020F5
:1032E0007BDD0808D80500202DE9F04107460C4693
:1032F00015462AB9BDE8F0410368C9B29B68184772
:1033000000290DDA0A2A0BD12D2105F00BF806460B
:1033100061423846EAB205F028F83044BDE8F08151
:1033200021460026F5E738B50546FFF7DDFF0446E0
:10333000284604F0FAFF204438BD00004FF4DA427A
:1033400070B5C44BA8B0C449C44D01A81A80C44C80
:1033500004F082FD072005F067FB0121288806F0B4
:10336000F7FA0121208806F0F3FABE4B01211888F4
:1033700006F0EEFABC4B0121188806F0E9FABB4BC7
:103380000121188806F0E4FAB94B0121188806F0EB
:10339000DFFAB84B0121188806F0DAFAB64B0121A2
:1033A000188806F0D5FAFDF789FDB44804F021FA33
:1033B00041F27001B14804F050FBB04804F0FCFA4F
:1033C000AF4E34210020FDF735FC1B210120FDF715
:1033D00031FC304601F0F6FC96F82130002B40F02D
:1033E0002782FEF783FE0121288806F0C2FA0C2608
:1033F00020880024012106F0BCFA9C4B012118888A
:1034000006F0B7FA984B0121188806F0B2FA984BEB
:103410000121188806F0ADFA964B0121188806F0B4
:10342000A8FA954B0121188806F0A3FA8D4B0121CB
:10343000188806F09EFA934A9349944805F0B7FC21
:10344000934A9449914805F0B2FC934B0422934966
:103450002293934821AB21942394ADF8846004F027
:1034600029F9234602228F498F4804F023F906F0F8
:10347000DFF84FF4165106F0D5F8FDF739FB4FF49D
:10348000165106F0CFF8FDF76FFB4FF4165106F01A
:10349000C9F8864803F032FE42F2107005F0C6FA11
:1034A00005F0A8FF4FF4165105F08AFF804B0A2261
:1034B000196805A804F033FD05A909A804F00BFD5F
:1034C0007C4909A804F0AEFD044605F097FA0A22EB
:1034D00001460DA804F023FD0DA9204604F096FD39
:1034E000044605F083FA0A22014611A804F017FDEC
:1034F00011A9204604F08AFD044605F06BFA0A2261
:10350000014615A804F00BFD204615A904F07EFD28
:10351000684904F087FD044605F038FA0A2201469E
:1035200019A804F0FCFC19A9204604F06FFD04461C
:1035300005F038FA0A2201461DA804F0F0FC1DA986
:10354000204604F063FD044605F038FA0A220146DD
:1035500021A804F0E4FC204621A904F057FD5649B7
:1035600004F060FD554C0146204604F0A5FC21A85E
:1035700004F028FC1DA804F025FC19A804F022FC86
:1035800015A804F01FFC11A804F01CFC0DA804F001
:1035900019FC09A804F016FC05A804F013FC05F0BA
:1035A00029FF474904F0CDFE464921A804F054FC08
:1035B000214621A804F02AFD0146434804F07CFC82
:1035C00021A804F0FFFB414902233246A1F58E6099
:1035D000FDF706FB002800F03F8105F00BFF3C499A
:1035E00004F09CFE05F006FF21683A4C04F0A9FEA9
:1035F00005F000FF384904F0A4FE23684BB13649BA
:1036000021A804F029FC21A8FEF772F821A804F0F3
:10361000D9FB06F031FA06F085F80021288806F07B
:10362000A8F90323B02218212C4801F075FB0028CB
:1036300040F0168105F0DEFE294904F082FE236881
:10364000002B52D0264921A804F006FC21A8FEF741
:103650004FF847E0601C002069EB0808C00000201C
:10366000C400002094000020CC000020C8000020EE
:1036700090000020880000208C00002068070020B7
:103680006C070020A8DD0808370A0808838D0808A1
:10369000B6DD08089509080843090808D805002080
:1036A000C3DD0808D0020020CFDD08081C0C002074
:1036B00080000020F5DD0808D8DD08084806002055
:1036C000DDDD0808F2DD0808F8060020100C0020F7
:1036D000F7DD0808D405002033DE0808B106002015
:1036E00057DE080821A804F06DFB784801F001FCC2
:1036F00006F0C2F90122492106F043F8002840F003
:10370000C58005F077FE724904F01BFE23684BB1BB
:103710006F4921A804F0A0FB21A8FDF7E9FF21A82B
:1037200004F050FB05F066FE6A4904F00AFE2368C7
:103730004BB1684921A804F08FFB21A8FDF7D8FF01
:1037400021A804F03FFB644D06F096F905F0EAFF6E
:103750000021288806F00DF90323B02218215F48C4
:1037600001F0DAFA002840F0968005F043FE5C494B
:1037700004F0E7FD5A4921A804F06EFB21A8FDF7EB
:10378000B7FF21A804F01EFB564801F0B2FB06F07B
:1037900073F901224A2105F0F4FF002840F09180DE
:1037A00005F028FE4A4904F0CCFD23684BB1484996
:1037B00021A804F051FB21A8FDF79AFF21A804F0ED
:1037C00001FBFEF7EFFC05F015FE474904F0B9FDDB
:1037D00005F010FE454904F0A1FD05F00BFE0A229C
:1037E0004621FFF7A0FD05F005FE414904F096FDD6
:1037F00005F000FE0A220D21FFF795FDFDF794FD6F
:103800001C23002121A8ADF8843003F0C7FE23A9B2
:103810001DA804F021FB1D9A36493748FDF751F9E0
:103820001DA804F0CFFA01A804F0CCFA28B070BDAE
:10383000324B1B68012B7FF4D6AD314805F080F97F
:10384000304907F02BF900283FF4CDAD96F8213030
:10385000002B7FF4C8ADC4E505F0CCFD2A49C4E6D1
:1038600005F0C8FD294904F06CFD23684BB12849D7
:1038700021A804F0F1FA21A8FDF73AFF21A804F0ED
:10388000A1FA0121288806F074F82EE700210F48DC
:1038900001F036FB46E705F0ADFD1E4904F051FD91
:1038A00023684BB11B4921A804F0D6FA21A8FDF7E3
:1038B0001FFF21A804F086FA0121288806F059F894
:1038C00062E70021074801F01BFB7AE7440500206E
:1038D000BDDE0808F0DE0808C4000020B2060020A3
:1038E00013DF08084A0500205ADF080865DF0808CA
:1038F00072DF08087ADF0808F01C0020500500205D
:10390000580600200000A0411DDE080883DE0808DC
:10391000A1DE08083CDF080830B589B005F06AFD73
:10392000354D04F002FD05F065FD344904F0F6FC68
:1039300005F060FD0A222968FFF7F5FC05F05AFD45
:103940002F4904F0FEFC05F055FD4CF2503104F017
:103950004BFE05F04FFD0D220146684604F05AFE6D
:103960006846284904F072FB00283ED005F042FD6D
:10397000254904F0E6FC05F03DFD244904F0E1FC96
:1039800005F038FD0D22014604A804F043FE04A80A
:1039900004F077FC044605F02DFD1D4904F0D1FC30
:1039A00042F20C73A21E9A4219D805F023FD194960
:1039B00004F0B4FC05F01EFD21460A22FFF7B3FC1B
:1039C0002C6006F007F829460020FDF72DF804A822
:1039D00004F0F8F9684604F0F5F909B030BD05F0D7
:1039E00009FD0D4904F0ADFCF1E705F003FD0B49BD
:1039F00004F0A7FCEEE700BF800000208DDF080880
:103A0000A0DF0808CDCF0808D3CF0808D0DF08080A
:103A100069EB0808E5DF080804D20808F8D00808B0
:103A20007FB505F0E7FC1F4904F08BFC05F0E2FCD4
:103A30004CF2503104F0D8FD05F0DCFC0D220146BB
:103A400002A804F0E7FD02A804F01BFC019005F0B9
:103A5000D1FC154904F075FC019800F10C031A2BF8
:103A60001AD806F029FE04F04BFE05F0C3FC0F49FE
:103A700004F054FC05F0BEFC01990A22FFF753FC48
:103A800005F0A8FF542001A9FCF7CEFF02A804F01E
:103A900099F907B05DF804FB05F0ACFC044904F0AB
:103AA00050FCF3E7F6DF080869EB080821E0080896
:103AB00004D2080810B586B005F09CFC284C04F030
:103AC00034FC05F097FC274904F028FC05F092FC33
:103AD0000A222168FFF708FC05F08CFC224904F05B
:103AE00030FC05F087FC214904F018FC05F082FC4D
:103AF0004CF2503104F078FD05F07CFC0D220146BB
:103B000002A804F087FD02A804F0BBFB42F20E738A
:103B10000190013898421CD805F06CFC144904F05F
:103B2000FDFB05F067FC0A220199FFF7FCFB05F09D
:103B300061FC0D4904F005FC019B236005F04AFF80
:103B4000742001A9FCF770FF02A804F03BF906B04D
:103B500010BD05F04FFC074904F0F3FBF4E700BF8C
:103B60004007002039E008084DE0080866E0080832
:103B700079E0080804D2080810B586B005F03AFCD0
:103B8000254C04F0D2FB05F035FC244904F0C6FBBB
:103B900005F030FC0A222168FFF7A6FB05F02AFC9D
:103BA0001F4904F0CEFB05F025FC1E4904F0B6FBCE
:103BB00005F020FC4CF2503104F016FD05F01AFC23
:103BC0000D22014602A804F025FD02A804F059FBCD
:103BD000019000F57A70B0F5FA6F17D205F00AFC83
:103BE000114904F09BFB05F005FC01990A22FFF73F
:103BF0009AFB019B236005F0EDFE042001A9FCF770
:103C000013FF02A804F0DEF806B010BD05F0F2FBC9
:103C1000064904F096FBF4E7B80200208BE00808A0
:103C200028D208089DE00808B2E0080804D2080875
:103C300010B586B005F0DEFB264C04F076FB05F0EF
:103C4000D9FB254904F06AFB05F0D4FB0A22216860
:103C5000FFF74AFB05F0CEFB204904F072FB05F0AC
:103C6000C9FB1F4904F05AFB05F0C4FB4CF250316C
:103C700004F0BAFC05F0BEFB0D22014602A804F0D8
:103C8000C9FC02A804F0FDFA42F20F73019000F59E
:103C90009C500830984217D805F0ACFB114904F04D
:103CA0003DFB05F0A7FB01990A22FFF73CFB019BB6
:103CB000236005F08FFE0C2001A9FCF7B5FE02A8D9
:103CC00004F080F806B010BD05F094FB064904F03E
:103CD00038FBF4E7D0020020C3E00808D6E008086B
:103CE000DBE00808EFE0080804D2080810B586B049
:103CF00005F080FB244C04F018FB05F07BFB234906
:103D000004F00CFB05F076FB0A222168FFF7ECFAC1
:103D100005F070FB1E4904F014FB05F06BFB1D4918
:103D200004F0FCFA05F066FB4CF2503104F05CFC48
:103D300005F060FB0D22014602A804F06BFC02A80E
:103D400004F09FFA01901E303B2817D805F052FB73
:103D5000114904F0E3FA05F04DFB01990A22FFF73F
:103D6000E2FA019B236005F035FE2C2001A9FCF747
:103D70005BFE02A804F026F806B010BD05F03AFB81
:103D8000064904F0DEFAF4E77C1C0020FFE0080896
:103D9000A9D2080819E1080836E1080804D2080881
:103DA00010B586B005F026FB254C04F0BEFA05F0F0
:103DB00021FB244904F0B2FA05F01CFB0A22216819
:103DC000FFF792FA05F016FB1F4904F0BAFA05F066
:103DD00011FB1E4904F0A2FA05F00CFB4CF2503125
:103DE00004F002FC05F006FB0D22014602A804F0D7
:103DF00011FC02A804F045FA019000F57A70B0F5C4
:103E0000FA6F17D205F0F6FA114904F087FA05F0B7
:103E1000F1FA01990A22FFF786FA019B236005F067
:103E2000D9FD342001A9FCF7FFFD02A803F0CAFF69
:103E300006B010BD05F0DEFA064904F082FAF4E798
:103E4000940700204FE1080828D2080866E1080816
:103E500080E1080804D2080810B586B005F0CAFA57
:103E6000244C04F062FA05F0C5FA234904F056FA2E
:103E700005F0C0FA0A222168FFF736FA05F0BAFA0F
:103E80001E4904F05EFA05F0B5FA1D4904F046FA41
:103E900005F0B0FA4CF2503104F0A6FB05F0AAFA96
:103EA0000D22014602A804F0B5FB02A804F0E9F9CE
:103EB00001903230632817D805F09CFA114904F0BC
:103EC0002DFA05F097FA01990A22FFF72CFA019BC7
:103ED000236005F07FFD3C2001A9FCF7A5FD02A8A9
:103EE00003F070FF06B010BD05F084FA064904F037
:103EF00028FAF4E79C07002096E108084ED308084A
:103F0000A7E10808BBE1080804D2080830232DE91E
:103F1000F047CB4CCB4DCC4F8AB02370CB4E23789F
:103F2000782B00F03E8405F065FA314604F0F6F98E
:103F300005F060FA0368DB69984705F05BFA0368EF
:103F40001B6998470028F8D005F054FA03685B69AC
:103F50009847C0B2207021385928E0D801A353F8FF
:103F600020F000BFC74608081F3F08086747080839
:103F70001F3F08081F3F08081F3F08081F3F080889
:103F80001F3F08081F3F0808934708081F3F0808FD
:103F90001F3F08081F3F08081F3F08081F3F080869
:103FA000C14608081F3F08081F3F0808F7440808D3
:103FB000254508084B450808294608084F460808C3
:103FC0006D460808BB4608081F3F08081F3F080841
:103FD0001F3F08081F3F08081F3F08089B470808A5
:103FE0003F4708081F3F0808BB410808E741080889
:103FF000074208082F420808A9420808BD420808DD
:10400000E5420808FF420808054308081543080868
:10401000254308082B430808534308086F43080842
:104020007F43080893430808A1430808D1430808C0
:10403000014408082D440808594408086B4408083E
:10404000994408081F3F0808A94408081F3F0808AA
:104050001F3F08081F3F08081F3F08081F3F0808A8
:104060001F3F0808CD400808D3400808D940080879
:10407000DF4008081F3F08081F3F08081F3F0808C7
:104080001F3F08081F3F08081F3F0808E5400808B1
:10409000EB400808F1400808F7400808FD40080810
:1040A0000341080809410808274108083741080862
:1040B000554108085B410808614108086741080844
:1040C0001F3F08086D41080893410808FEF704FCEB
:1040D00024E7FFF751FD21E7FEF77EFC1EE7FFF71F
:1040E000A7FD1BE7FEF7FEFC18E7FFF7FFFD15E74E
:1040F000FEF774FD12E7FFF753FE0FE7FEF7EAFD48
:104100000CE7FFF7A9FE09E705F074F9504904F040
:1041100018F901234F4E336005F05CFC314648200E
:10412000FCF782FCFAE605F065F94B4904F009F961
:10413000484E0023EFE705F05DF90646474906A81B
:1041400003F08AFE3046069904F0FBF806A803F057
:1041500039FEE3E6FEF770FBE0E6FFF761FCDDE623
:10416000FFF7DAFBDAE6FEF717FAD7E63C4E3368DC
:104170005BB905F03FF93B4904F0E3F801233360F4
:1041800005F028FC44203649CAE705F033F93649E2
:10419000F2E7334E3368012B09D105F02BF933498F
:1041A00004F0CFF83248FCF77FFC0023E7E705F086
:1041B00021F9304904F0C5F8F7E72F4B1A68012AB6
:1041C0000BD100221A6005F015F92C4904F0B9F85A
:1041D00005F000FC64202849A2E701221A6005F0DE
:1041E00009F92749F2E7274B1A6812B901221A6028
:1041F00004E005F0FFF8244904F0A3F805F0EAFB19
:10420000602020498CE7214B1A68012A0BD100223B
:104210001A6005F0EFF81E4904F093F805F0DAFB98
:1042200068201A497CE705F0E5F81A49F4E7174BCE
:104230001A68012A32D105F0DDF81749ECE700BF12
:10424000B0060020540500200000C842CBE1080859
:10425000D1E10808D4050020EBE10808B9DC080822
:104260004C1C002006E2080819E2080833E208089E
:104270008420002046E208084807002061E2080880
:1042800075E20808801C002088E208084407002026
:10429000B2E20808D3E20808F7E2080801221A602F
:1042A00005F0A8F8B049B7E7B04B1A68012A01D168
:1042B00000229CE705F09EF8AD499DE7AD4B1A68DA
:1042C000012A09D105F096F8AB4904F03AF805F057
:1042D00081FB6C20A74923E701221A6005F08AF8C8
:1042E000A649F2E7A34B1A681AB905F083F8A44966
:1042F000EBE700221A6005F07DF8A249E5E7FFF739
:10430000D9FB0BE6FDF74EFF05F074F89E4904F06B
:1043100018F803E605F06EF89C4904F012F8FCF773
:10432000ABFFFBE5FEF750FAF8E5994E3368012B39
:1043300003D105F05FF89749E9E705F05BF8964986
:1043400003F0FFFF0123336005F044FB3146782082
:10435000E6E68F4E33681BB905F04CF88F49D6E777
:1043600005F048F88E4903F0ECFF0023EBE705F079
:1043700041F88C4903F0E5FFFCF7E8FFCEE505F0D6
:1043800039F8894903F0DDFF6B210720FCF752FC67
:10439000C4E505F02FF8854903F0D3FF4B21F4E77E
:1043A000834E336883B105F025F8824903F0C9FFD5
:1043B0000023336005F00EFB31467C20FCF734FB14
:1043C0007D4800F0AAFEA9E505F014F87B499EE7B8
:1043D000774E336883B905F00DF8794903F0B1FFE2
:1043E0000123336005F0F6FA31467C20FCF71CFB14
:1043F000714800F0B7FE91E504F0FCFF714986E7D3
:10440000714E33685BB904F0F5FF704903F099FF12
:104410000123336005F0DEFA3146802080E604F0A7
:10442000E9FF6B4903F08DFF0023F2E7694E336823
:104430005BB904F0DFFF684903F083FF01233360B9
:1044400005F0C8FA314684206AE604F0D3FF6349D8
:1044500003F077FF0023F2E704F0CCFF604903F09C
:1044600070FF554800F034FE58E55E4E3368012B6E
:104470000BD104F0BFFF5C4903F063FF00233360FE
:1044800005F0A8FA314688204AE604F0B3FF574900
:1044900003F057FF0123F2E70121474800F088FEAF
:1044A000B422534B1A6039E504F0A4FF514903F0DC
:1044B00048FF06A8504902F009FD069A4F495048A6
:1044C000FCF7FFFA06A803F07DFC06A84A4902F0B3
:1044D00019FD069A4B494A48FCF7F3FA06A803F07F
:1044E00071FC06A8444902F013FD069A4649444867
:1044F000FCF7E7FA2AE604F07DFF444903F00EFFDB
:1045000004F078FF0A224621FEF70DFF04F072FF47
:104510003F4903F003FF04F06DFF0A220D21FEF76F
:1045200002FFFBE43B4E33685BB904F063FF3A499A
:1045300003F007FF0123336005F04CFA582035499A
:10454000EEE504F057FF3549F2E7324E3368012BB0
:1045500006D104F04FFF324903F0F3FE0023EAE7EF
:1045600004F048FF2F49F7E71AE30808801C0020F1
:1045700038E308084C07002065E308088DE30808C5
:10458000B1E30808DAE308085ADF0808FFE308087F
:10459000500500201BE408083DE4080861E4080811
:1045A00084E40808A9E40808C4E40808D7E4080873
:1045B00040050020F2E40808701C002015E50808FA
:1045C00030E5080852E50808AC0600206CE508084C
:1045D00087E50808CC020020A3E50808C2E5080822
:1045E000E1E5080860060020F9E508081DE608086E
:1045F000D005002040E60808DC1C002077E608080B
:10460000F01C00207FE6080887E6080890E6080806
:1046100072DF0808500700209EE60808ADE608088B
:10462000C3E60808D3E60808604E33685BB904F0B7
:10463000E1FE5F4903F085FE0123336005F0CAF90E
:104640005C205A496CE504F0D5FE5A49F2E7574E12
:104650003368012B06D104F0CDFE574903F071FEFB
:104660000023EAE704F0C6FE5449F7E704F0C2FE6F
:10467000534903F053FE534803F028F9804604F0F1
:10468000B9FE06460A22414603F06FFE304603F0AB
:104690004CFE04F0AFFE4C4903F040FE494803F0E5
:1046A00012F9804604F0A6FE06460A22414603F0AF
:1046B0005CFE304603F039FE30E4FDF70BFF2DE4DD
:1046C000FDF7C6FE2AE404F095FE404903F039FEEA
:1046D000DFF818A104F08EFE03681B6998470028D4
:1046E0007FF41CAC284602F003F938B904F082FECE
:1046F000374903F026FE0AB0BDE8F08704F07AFEE1
:1047000039460646E86806F0DFF805F07BFB804690
:10471000A868894605F076FBCDE90401686805F0D4
:1047200071FBCDE90201286805F06CFB4246CDE93A
:1047300000014B4651463046FCF7A8F9CAE7254E22
:104740003368012B0BD104F055FE234903F0F9FD2A
:104750000023336005F03EF931468C20E0E4FDF79C
:10476000F1FFFFF7DBBB1D4E3368012B0BD100239C
:10477000336004F03FFE1A4903F0E3FD05F02AF927
:1047800031469020CCE40123336004F033FE154918
:10479000F2E7FDF733FDFFF7C1BBFEF719FBFFF7AB
:1047A000BDBB04F027FE1049A3E700BF881C002012
:1047B000EAE60808F8E608080DE708081DE7080813
:1047C00034E70808680700203CE708084CE70808B9
:1047D00087E70808180C0020CEE70808CC05002061
:1047E000F0E708080EE8080856E808089DE70808FA
:1047F0001FB5714C0022D4E90001704B05F0A4F9FB
:10480000C4E90001FDF7D8FA6D4B1860FCF72CFEE7
:104810006C4B1860FCF7BCFFFDF748F904F0A5F8F5
:10482000694BC117C3E90001684B69481A68694BB5
:104830001A6002F01BFC002801DDFEF7A9FCFDF761
:10484000DDFC04F0D7FD03681B69984700281DDDD7
:1048500004F0D0FD0368604C5B6998475F4B2070A3
:104860001B684BB104F0C6FD5D4903F057FD04F031
:10487000C1FD217803F06FFD04F0BCFD217803F049
:104880006AFD23786D2B01D1FFF740FB554B1B6868
:10489000002B76D0544A138843F00103138002F0B2
:1048A00029FF002843D1514B1A78002A3FD1012219
:1048B0004A4C1A70236873B104F09CFD4C4903F014
:1048C00040FD4B49684603F0C7FA6846FCF710FF05
:1048D000684603F077FA002346481A4619464068AE
:1048E00002F0B8FE236873B104F084FD424903F07E
:1048F00028FD4249684603F0AFFA6846FCF7F8FE27
:10490000684603F05FFA02F0EDFE236893B104F00D
:1049100071FD3B4903F015FD3949684603F09CFAE7
:104920006846FCF7E5FE684603F04CFA02E002F048
:10493000E1FED0B9334C204600F044FA324B1B68FC
:10494000012B10D1314804F0FBF8314906F0A6F8EC
:1049500048B194F8213033B904F04CFD2D4903F0EF
:10496000F0FCFDF7C3FB04B010BD1C4B1B6823B16A
:1049700004F040FD284903F0E4FC00221B4B1A70B0
:10498000D8E702F0B7FE0028D4D0144B1B6873B1EF
:1049900004F030FD214903F0D4FC2049684603F0BF
:1049A0005BFA6846FCF7A4FE684603F00BFA114870
:1049B000FCF77AF8BEE700BF380700200000F03FA0
:1049C000BC020020C0020020681C0020D40000208F
:1049D0001C0C0020F81C0020B0060020D40500208C
:1049E0006DE808084C1C0020601C0020841C00207E
:1049F0007CE80808842000209BE80808ACE8080848
:104A0000BDE808086C07002050050020580600206B
:104A10000000A04120E90808D4E80808FCE80808DC
:104A20002DE9F0414FF00108694B6A4C6A4D83F85B
:104A30000080204602F0E8F82046684C684E2A467E
:104A4000684905F069F82046674903F005FA2A46E7
:104A50003146204605F060F8FCF74AF8634C0346FF
:104A6000A4F1300721464FF48052384602F034FB5F
:104A70005F4B2A4644F8303C00245E49384605F036
:104A80004BF85D4F5D4B3C60BB60BC80BC7103204C
:104A900002F06CFD2A463846594905F03DF821469A
:104AA000404602F073FD4FF0FF31564801F00EFF13
:104AB000554800F00CFB554800F0DCF8544800F075
:104AC000D9F8544F4921544800F00CFA4A21534870
:104AD00000F008FA2146384603F0DCFF3846504F14
:104AE0002A46504905F018F82146384602F079FE6A
:104AF00038464D4F2A464D4905F00EF8384600F02D
:104B000047F92A4638464A4905F006F82721494818
:104B100001F06EFF1922484B484883F86A24484A3E
:104B2000DFF84C811A60474F474ADC71A3F84044D4
:104B300083F8684483F86D44C3F8702483F87444A0
:104B40002A46394604814460C0F8008004F0E4FF3E
:104B50003E482A463946C0E90084048104F0DCFF5F
:104B60004FF47A733A483B4F83603B4B0482446076
:104B70003A4C03602A463A4904F0CEFF21463846B3
:104B800003F06AF93846374F2A46314604F0C4FF2D
:104B90002146384603F060F93846334F2A463146FD
:104BA00004F0BAFF2146384603F056F938462F4F35
:104BB0002A46314604F0B0FF2146384603F04CF94E
:104BC0002A4631463846BDE8F04104F0A5BF00BF93
:104BD00014050020B4060020B0020020D8050020F3
:104BE000C57D0808C16B080853E908084C0C002073
:104BF000C4E9080861090808F00200200000FFFF6E
:104C0000190A080854050020701C0020B106002075
:104C1000B206002058060020440500204A05002066
:104C200068070020B38A08086C070020217808086C
:104C3000654D0808A0060020A0070020E805002018
:104C4000ACE908086309080834EA080808070020E6
:104C500014060020480600206CE9080869EB0808E3
:104C600065090808F8060020501C0020580700209D
:104C700094E90808704710B50C4604F0FDFE482181
:104C800004F086FD04F0F8FE036821469B6898470F
:104C900004F0F2FE002104F096FD04F0EDFE012385
:104CA00048211A4604F05BFD04F0E6FE03681B6928
:104CB000984728B104F0E0FE03685B699847C0B2EA
:104CC00010BD70B516460C46054604F0D5FE4821C9
:104CD00004F05EFD04F0D0FE036821469B6898470F
:104CE00004F0CAFE036831469B68984704F0C4FE8E
:104CF000012104F068FD21462846BDE87040FFF719
:104D0000BABF0021FFF7B7BF01221146FFF7D9BF95
:104D100000220121FFF7D5BF2DE9F0410446884666
:104D200017461E46FFF7EDFF0128054617D120461E
:104D3000FFF7EEFF424610212046FFF7C2FF3A463A
:104D400011212046FFF7BDFF324612212046FFF712
:104D5000B8FF2046FFF7D8FF2846BDE8F0810025C0
:104D6000FAE7000010B50446034B40F8143B02F08C
:104D700057FD204610BD00BF14EA080810B50446D0
:104D8000FFF7F0FF2046242104F0CBFE204610BDA3
:104D900038B50B4B0025322203604FF4FA6304460A
:104DA000C0E90123C0E903552946143002F019FD7A
:104DB0004FF480332046C4E90655236238BD00BF56
:104DC00014EA080810B5044602F010FAE368C01AA5
:104DD000636898421AD302F009FAE06004F1140003
:104DE00002F071FD10F004030BD094F82030C0F3F2
:104DF000011083421FBFE36984F820000133E3619F
:104E0000012384F82130A3690133A36102F0EEF994
:104E10002369C01AA368984214D902F0E7F9A3697C
:104E200020610A2B0FDC012384F8223094F8203013
:104E3000013B012B8CBF0023012384F82330002386
:104E4000C4E9063310BDE269B2EBA30FEBDD00232A
:104E500084F82230F1E710B5044604F00DFE036833
:104E60002146BDE810409B68184708B504F004FED1
:104E700003685B699847C0B208BD70B506460D4629
:104E8000144604F0F9FD314604F07EFC2846FFF795
:104E9000E2FF200AFFF7DFFFE0B2FFF7DCFF04F0DC
:104EA000EBFDBDE8704004F092BC10B5044604F080
:104EB000E3FD214604F068FC0020FFF7CCFF04F07E
:104EC000DBFD04F084FC04F0D7FD2146022204F04F
:104ED00058FCFFF7CAFF0446FFF7C7FF40EA04206B
:104EE00080B210BD00220170082182804170827062
:104EF000704708B504F0C0FDBDE8084004F012BCDE
:104F000081807047032910B5044622D8022982887F
:104F100019D003291AD0012914BF42F4834242F464
:104F2000A34242F00302012142F400422078FFF73D
:104F3000A4FF607803F07AFD2078FFF7B6FFA3782E
:104F4000184180B210BD42F4C342EAE742F4E342A2
:104F5000E7E70020F6E700002DE9F0410E4688B0B3
:104F60000446154668460223002203F0C9F80A23C6
:104F70000222314604A803F0C3F8684603F081F921
:104F8000A08304A803F07DF9E083684603F079F973
:104F9000064604A803F07AF98046304604F020FF64
:104FA000064640460F4604F02DFF00220D4B05F04B
:104FB000ABF80B4602463946304604F0C5FD532D8A
:104FC0000CBF00236FF07F03C4E9020184F8243092
:104FD00004A802F0F7FE684602F0F4FE08B0BDE84F
:104FE000F08100BF00004E402DE9F0410E4688B030
:104FF0000446154668460323002203F081F80A237D
:105000000322314604A803F07BF8684603F039F91F
:10501000208404A803F035F96084684603F031F970
:10502000064604A803F032F98046304604F0D8FE64
:10503000064640460F4604F0E5FE00220C4B05F004
:1050400063F802460B463046394604F07DFD453D87
:1050500018BF0125C4E9040184F8255004A802F012
:10506000B1FE684602F0AEFE08B0BDE8F08100BFB8
:1050700000004E4010B50446084603F002F9E06215
:1050800010BD000010B50446084603F0FFF80249C1
:1050900005F066FB206310BD0000204100F108010F
:1050A000D1E90001704700F11001D1E9000170471A
:1050B00008B5006B05F01AFD08BD90F92400704793
:1050C00090F9250070470368C9B29B68184770477C
:1050D00008B504F0D1FC152104F05AFB04F0CCFC17
:1050E0000521FFF7F0FF04F0C7FC0321FFF7EBFFFA
:1050F00004F0C2FCE821FFF7E6FF04F0BDFCFF214D
:10510000FFF7E1FF04F0B8FC0021FFF7DCFF04F03B
:10511000B3FCBDE8084004F05ABB08B504F0ACFC91
:10512000152104F035FB04F0A7FC0521FFF7CBFFA8
:1051300004F0A2FC0321FFF7C6FF04F09DFCEE2162
:10514000FFF7C1FF04F098FC0021FFF7BCFF04F05B
:1051500093FC0021FFF7B7FF04F08EFCBDE8084088
:1051600004F035BB08B504F087FC152104F010FBF2
:1051700004F082FC0521FFF7A6FF04F07DFC03216B
:10518000FFF7A1FF04F078FCEE21FFF79CFF04F08D
:1051900073FCFF21FFF797FF04F06EFC0021FFF77F
:1051A00092FF04F069FCBDE8084004F010BB000069
:1051B00008B521B104F01EF9134903F0C2F804F058
:1051C0005BFC152104F0E4FA04F056FC0521FFF71E
:1051D0007AFF04F051FC0321FFF775FF04F04CFC4B
:1051E000EC21FFF770FF04F047FCFF21FFF76BFF96
:1051F00004F042FC0021FFF766FF04F03DFCBDE82F
:10520000084004F0E4BA00BF1CEA080838B50546B7
:1052100042B903689B6898470446284603F085F81E
:10522000204438BDD2B203F0A0F8F5E710B504462B
:10523000283001F0BFF928B104F50D70BDE8104029
:1052400001F0B8B910BD411E00F10A030020420868
:1052500042EAC01011F8012F10448B4200F0FF0009
:10526000F5D170472DE9F047064610F8013B202B99
:10527000FAD000246A4D8E60335DC3B12F2B16D057
:105280005C2B02D10020BDE8F087A3F12200C0B260
:105290001D2803D825FA00F0C007F3D403F0BF009F
:1052A0003C28EFD0203B5E2BECD80134E4E73319E7
:1052B0001846074610F8015B202DFAD02F2DF8D0A4
:1052C00017604CB113F8012D2E2A01D0202A01D1EC
:1052D000013CF6E7FF2CD5DC20204C6001F10D03EA
:1052E00001F1180203F8010B9342FBD14FF00008C3
:1052F00016F808302E2B01D0202B02D108F101081E
:10530000F6E7B8FA88F0651E40096B1C02D0735DA1
:105310002E2B14D14FF0000907274A46CA464FF0FA
:10532000080EA04569DA16F80830202B03D02E2B82
:1053300007D1A84512D0002008F10108F1E7013D8E
:10534000E3E7222B08D07C2B06D0A3F12A0CBCF17A
:10535000050F0BD82D2B13D0A8455CD10A2F4BD0AD
:10536000A8460A2708224FF0100EE5E7A3F13A0CF1
:10537000BCF1050FF0D9A3F15B0CBCF1020FEBD926
:10538000A3F1210CBCF15D0FE6D8A845E6D0BA42E6
:1053900030D8A3F1610CBCF1190F1AD8203B4EEAAA
:1053A0000909DBB25FFA89F902F1010C5FFA8CFCA2
:1053B0000A44BCF1060F537301D881F80CC0624651
:1053C000BAE7A84518DCA8460A2708224FF0100EB5
:1053D000B1E7A3F1410CBCF1190F98BF4EEA0A0ADC
:1053E000E2E701200B7B087019447E234B733123C5
:1053F0008B7348E70A2FE4D100204B7B202B3FF42E
:1054000041AF0028EDD01AEA090F18BF4FF002098A
:1054100081F8009037E7BA42ECD85F230020C3E759
:10542000010100312DE9F84306460C4602257E278E
:1054300091F80C9001F10D086168A2686B189BB29D
:105440001144914206D012F8010B03EB4313434081
:105450009BB2F6E7B9F1030F28BF4FF0030909F13A
:105460000402D2B203F00F01A018013A0929D2B206
:1054700094BF30313731914541734FEA1313F1D165
:1054800004EB0903002130465F7300F096FE012112
:10549000304600F073FE014628B97078B0FA80F00B
:1054A0004009BDE8F88303786BB1C37A1B07EED4DB
:1054B0000B22404605F038FC0028E8D10135ADB29A
:1054C000642DB9D1EDE70120EBE700002DE9F04FA5
:1054D00089B004930B780D4613F0700F9046059039
:1054E00003D1002009B0BDE8F08F059B1B78002B8D
:1054F000F7D15368284603931378990718BF039B85
:105500004FF000011FBF03F10C070D23B7FBF3F7AA
:1055100001370CBF0127FFB200F04FFE00239B466E
:105520001C461E469A4608F10D02029307926A69CC
:10553000012128460693C2F34F1900F01FFE069B77
:1055400000286CD16B78002BCBD1049B03F0420375
:10555000422BC6D1029B002C08BF4B460293BC4293
:10556000C0F00381BAF1000F40F01B81029B284676
:10557000590100F022FE0028B3D0013F5FFA87FAFC
:1055800056464FF000090F27002E00F02181002120
:10559000284600F0F3FD04460028A2D0564518BF67
:1055A000B346AA6808BF46F0400B92F8283043F093
:1055B000010382F8283080F800B0C77280F80C90A0
:1055C00008F10D00FFF73FFE0D2200230BF01F0B2B
:1055D0000BF1FF3B02FB0BF2607384F81A9084F826
:1055E0001B90D8F808C00399914240F2E2801CF861
:1055F0000210042B5FFA83FE03F1010000F2DF804A
:1056000004EB4303A3F801100D28034602F1010245
:10561000E9D1013EF6B2B7E74FF0010A87E7027819
:10562000E52A00D07AB90299002C08BF4946BC424D
:1056300038BF0134029138BFE4B2002A85D0E52A90
:1056400004D1002673E7BC4238BF00242E2AF8D0CC
:10565000C17A0F295DD13EBB12F040063FF467AF1F
:1056600002F01F06B346437B4FF00D0E0BF1FF32E5
:105670000EFB02FE039A7245E3D94FF0000CA2EB39
:105680000E020692BCF1040F0CEB0E095FFA8CF2CD
:1056900014D800EB4C02B2F8012006998C451BD1BE
:1056A000002A18BF002642E70BF1FF3B5FFA8BFB95
:1056B0005A45C6D1427B9A42D6D0C2E70A2A95BF44
:1056C0000CF1FF320CF1010200EB420200EB42024E
:1056D00094BFD2889288E0E7FF2AB2D8D2B2A2F172
:1056E00041011929D8F8081098BF203211F8091083
:1056F00098BFD2B2A1F14109B9F1190F9CBF203175
:10570000C9B291429DD10CF1010CBCF10D0FB9D180
:105710000DE70A0795D466B1BBF1010F02937FF440
:10572000E0AEFFF790FD029B98427FF4DAAEB246FE
:105730000EE00B220799069305F0F6FA069B002867
:105740007FF4F5AE98F800A01AF0010A7FF464AF78
:10575000049B1B063FF5C5AE4A462946049B0598A7
:10576000CDF800A000F06CFDBCE60021284600F05A
:1057700005FD98B96B78002B7FF4B3AE284600F096
:10578000D5FB00283FF4ADAEAB681B79012B3FF68B
:10579000E9AE1034E4B2A742F0D8E3E60134E4B253
:1057A000DDE641462846FFF73DFE00287FF4DEAEE9
:1057B00097E614BF4FF0FF31002189B219E7BEF11F
:1057C0000A0F94BF04EB430304EB400399801BE7EB
:1057D000314628466F6900F0D1FC044600283FF4AA
:1057E00080AE2022314605F0D5FA434653F80D2FFE
:1057F00022605A6862601A8922819B7AA37298F8A3
:10580000003003F0180323730F4B1B689BB104F1A6
:105810000E0104F110009847238AC7F34F196382E1
:105820002383E389E382AA6892F8283043F00103D6
:1058300082F8283090E721232374282363740823F7
:10584000A673E373E8E700BFD01C00200368DB68A1
:10585000184703685B69184710B5037904466BB1B4
:105860000121407904F085F8FF212068FFF7F1FF5E
:10587000206803689B6898470023237110BD38B5E2
:105880000579044655B90068E17903685B68984773
:105890002946607904F06DF80123237138BDF8B50D
:1058A00004460D46164601F0A1FC07462068FFF7A6
:1058B000CDFFFF2820720CD101F098FCC31BB3F57B
:1058C000967FF3D911232046A371FFF7C5FF00206F
:1058D000F8BDFE2801D00F23F5E7206832460368A3
:1058E00029461B699847207208B11C23EBE7206802
:1058F000FFF7ACFF2068FFF7A9FF0120E8E770B5CC
:1059000006460C4601F072FC05463068FFF79EFF24
:10591000FF2806D001F06AFC431BA342F5D3002008
:1059200070BD0120FCE7F7B5037904460D460192EE
:105930000BB9FFF7A4FF4FF416712046FFF7DFFF06
:10594000206845F04001FFF784FF032601AFB95DF1
:105950002068FFF77EFF013EF9D2002D0CBF952194
:1059600087212068FFF775FF0C2D02D12068FFF713
:105970006DFF00252068FFF769FF0306207203D53D
:105980000135B5F5807FF5D103B0F0BDF8B51F4600
:1059900000234271437283710160044601F026FCCA
:1059A00005462068617903680A261B6898478021AC
:1059B0002068E17103685B689847FF212068013E19
:1059C000FFF747FF16F0FF06F7D1206803689B68D2
:1059D0009847002220461146FFF7A5FF01280CD06A
:1059E00001F004FC401BB0F5FA6FF2D90123204608
:1059F000A371FFF731FF0020F8BD4FF4D5720821E5
:105A00002046FFF790FF052816D101230026637278
:105A1000002237212046FFF786FF32462921204603
:105A2000FFF781FF0246F8B101F0E0FB401BB0F543
:105A3000FA6FEDD90A23DAE704262068FFF706FF9C
:105A4000013E16F0FF062072F7D1AA2804D10223E6
:105A50004FF080466372DBE701F0C8FB401BB0F5F6
:105A6000FA6FCAD90223C2E7637A022B19D13A210D
:105A70002046FFF758FF08B10823B8E72068FFF772
:105A8000E5FE00F0C000C02808BF0323206808BF5F
:105A90006372FFF7DBFE2068FFF7D8FE2068FFF790
:105AA000D5FE2046FFF7D8FE0120E771A4E738B500
:105AB000437A1546032B18BF49020A4611210446B2
:105AC000FFF731FF30B10423A3712046FFF7C4FE76
:105AD00000250BE029464FF400722046FFF7DFFE59
