:020000040808EA
:1000000000000808B8050908000006000A000501FC
:080010000402DB070000000000
:0400180080DB080879
:1000200008B5024B1B685B6C019308BD2C000608E9
:1000300008B5024B1B689B6D019308BD2C00060898
:1000400008B5024B1B685B6E019308BD2C000608C7
:1000500009480A4908B5884205D0094A824202D0B7
:10006000121A0BF05BFE0748074A0021121A0BF028
:1000700063FE064808BD00BF00000020E402090836
:10008000AC020020B002002008120020081200205C
:1000900070B509F0D7FD0025054E064CA41BA40839
:1000A000A54200D170BD56F8043B98470135F7E7EB
:1000B000AC020908D402090804F01AB808B505F022
:1000C0008FFCBDE8084009F07FBD08F065BB08F073
:1000D00063BB08F069BB0078B0FA80F04009704754
:1000E00001230370704748B1836C3BB1C36C2BB1E3
:1000F000006DB0FA80F04009404270474FF0FF3089
:10010000704773B5024608460C46FFF7ECFF0546FC
:1001100040BB12F0800F14BF00231023CA789A420C
:1001200020D0CB708E6C0123F32160780DF1070293
:10013000B04784F8540098B99DF80720E37822F07E
:10014000100203F0100313438DF8073073210123CD
:10015000E66C60780DF10702B04784F8540008B1EE
:100160006FF00105284602B070BD03788B4284BF52
:10017000017013784FF0000084BF43F00203137046
:1001800070472DE9F84306461846884691461D46B5
:10019000FFF7A9FF0446A8B9AB783BB9294630461A
:1001A000FFF7AFFF044608B946F080064B464246CB
:1001B0003146AF6C6878B847002818BF6FF001046B
:1001C00085F854002046BDE8F8832DE9F0471C4629
:1001D0000F4600218AB00646904601A824220091CD
:1001E0000BF0AAFD2046FFF77EFFE8B908F1FF33C8
:1001F000122B33D8EA4681461FFA88F81FFA89F392
:10020000434514D380B94FEA4802013A93B2E56CF2
:100210009DF8001060780DF10102A847002884F8CD
:10022000540018BF6FF001000AB0BDE8F087A37852
:1002300016F809503BB928462146FFF762FF16F829
:10024000095005F07F0517F809308AF800508AF840
:10025000013009F101090AF1020ACFE76FF003004A
:10026000E2E7742337B504468DF80730FFF73BFF0C
:10027000A0BB05462346012274200DF10601FFF7BD
:1002800080FFA0B99DF8063013F0030511D023F0CC
:1002900003038DF80630012223460DF106010DF10E
:1002A0000700FFF792FF0A20236D9847E2E7002D31
:1002B000E0D194F844208AB19DF8063002F00302A0
:1002C00023F0030313438DF8063038B92346012287
:1002D0000DF106010DF10700FFF777FF03B030BD08
:1002E0000023F0B5064689B008460C468DF8073065
:1002F0000493ADF814300693ADF81C30FFF7F3FE0D
:10030000002840F0FE8016F0080391F8447005D1F3
:1003100081F844302046FFF7A4FF07E0012FADF835
:100320000C0000F0F08081F84400012016F0100568
:1003300020D0072104F1460204F13B00FFF715FF2E
:1003400030B92346012275200DF10701FFF719FF8F
:1003500094F83B309DF807209B0022F01C0203F02C
:100360001C031343752201258DF807308DF81020EA
:100370008DF81830B30622D5082104F1460204F1A5
:100380003D00FFF7F2FE30B92346012270200DF147
:100390000701FFF7F6FE70219DF8073094F83D2025
:1003A00023F0080302F00802134308AA2A44013587
:1003B0008DF8073002F8101C02F8083CEDB2B107C6
:1003C00033D0052104F1460204F13900FFF7CDFED8
:1003D00030B92346012274200DF10701FFF7D1FE49
:1003E000F20709D59DF8073094F8392003F01F0370
:1003F00043EA42138DF80730B3070BD594F83A302F
:100400009DF807209B0003F01C0322F01C021343FD
:100410008DF80730742208AB2B4403F8102C9DF89C
:100420000720013503F8082CEDB2710722D505210C
:1004300004F1460204F13800FFF797FE30B9234675
:10044000012272200DF10701FFF79BFE72219DF83A
:10045000073094F8382023F0070302F00702134313
:1004600008AA2A4401358DF8073002F8101C02F85A
:10047000083CEDB216F0C00F3AD0012104F146025B
:1004800004F13E00FFF771FE60B90A2104F13C005F
:10049000FFF76BFE30B92346012271200DF10701F1
:1004A000FFF76FFE72060BD594F83E309DF80720DB
:1004B0001B0103F0100322F0100213438DF80730E4
:1004C00033060AD59DF8073094F83C2023F00F033B
:1004D00002F00F0213438DF80730712208AB2B4452
:1004E00003F8102C9DF80720013503F8082CEDB215
:1004F00028B923462A4606A904A8FFF766FE84F811
:10050000447009B0F0BDB1F84020B1F91230B2F535
:10051000C87F28BF4FF4C872C82A38BFC82203F565
:10052000163303F299135A431423B2FBF3F20A234E
:1005300002F54812B2FBF3F291F9113091F904106F
:1005400003F544735A4394F914304B434FF47A71D2
:1005500093FBF1F31B0203EB620394F8342094F94C
:1005600035100432B3FBF2F383224A4302F58032A2
:10057000B3FBF2F32222FA3B53436422323393FB60
:10058000F2F38DF80C3046F25A43ADF80830B4F867
:100590004230B3F57C6F1AD23F2BC2B200F101009A
:1005A00013D803EB8213DBB200258DF80D30022245
:1005B000234684F83C5003A902A8FFF706FE84F8FE
:1005C000445000287FF4B2AEA4E69B08E4E7FF2382
:1005D000EAE7000013B5184B024618689B880090A4
:1005E000ADF8043091F8393002A891F83A4003444C
:1005F00013F8080C02AB1C4414F8083C02AC184475
:1006000091F83830234413F8083C40F2AB740344AB
:1006100041F2B92004FB03034FF47A70B3FBF0F30B
:1006200001339BB2138091F83E0018B1B1F842102B
:100630000B44138002B010BD94DB08082DE9F04F85
:10064000804689B008460C46FFF74DFD0546002858
:1006500040F058810690CDE90400CDF81B00084613
:10066000FFF741FD0A270546002D40F05281234641
:100670000F2204A91D20FFF784FD9DF810B09DF9FD
:100680001EA09DF818200BF00F030AF020012BF09C
:100690007F0B01924BEA01019DF819200AF0100A24
:1006A00041EA0A0149B288F8013002929DF81130FE
:1006B0009DF81D200029054688F8023003929DF818
:1006C00012909DF813E09DF814309DF815C09DF828
:1006D00016609DF817009DF81E2088F8001080F223
:1006E0001581000940EA061646EA0C3CE68A1B0919
:1006F0007600C6EBDC0C60464FEA5C06C11746EAA2
:10070000C17649107143A6FB06AB94F91A000BEBB6
:10071000410B4FEA1A36010146EA0B564FEA2B37D6
:100720004FEAE17B06FB0BF0A6FB01ABB4F91860C6
:1007300001FB070786FB0C01BB44C60A4FEA9A304F
:1007400046EA415640EA8B403118216301EB8101B2
:1007500080310912A8F80410216B43EA0E1E4910DB
:10076000A1F57A4140F635438810404394F926704C
:10077000C6127743B4F9246040134E43760006EB6B
:10078000A706B4F91E704EEA09394F4394F92010B8
:10079000C9F5801949014143C91001EB6701A08BDC
:1007A000891401F500414843B4F9221002F00F0CFE
:1007B000090401EBA606A9EB26367343C113B3FB6C
:1007C000F1F141F39C004043B4F92A3040135843FF
:1007D000B4F9283041F35D077B4341F3D7165B132F
:1007E00003EB203306FB06F0464394F82C009209F5
:1007F000464394F9270003EB664303EBC0136420E0
:100800001B1103EB4103C8F80830236B94F90E1059
:1008100003EB830380331B12594391FBF0F194F9EE
:100820000D6059435E43891196FBF0F691FBF0F1A0
:100830003144668901F5804171438E12DDE9017111
:1008400041EA07212789A1EB071194F90C705F4356
:1008500097FBF0F7A1EB6701714394F91060002753
:10086000734393FBF0F3E07B40F23C5603EBC01381
:10087000881340431B118012434301EB6303991219
:100880004FF47A734B432B491B1323EAE3738B42D8
:10089000D4BFC8F80C30C8F80C10052194F93630D4
:1008A000C3FB0167244B53F82C30A6FB030103FB69
:1008B0000711060C4FEA214E46EA01460021039B30
:1008C00042EA8302D30313F17F4341F1FF319A19C6
:1008D00041EB0E03194951F82C10A1FB066701FBEF
:1008E0000E77700A560846EAC37640EAC7504FEAC8
:1008F000672C591080194CEB01010BF0F5F8C8F882
:1009000010006DB1284609B0BDE8F08F0A20236DB4
:100910009847013F17F0FF077FF4A6AE0225F1E7E5
:1009200098F90030002BB6BF012384F8455084F8B5
:100930004530E7E7A08601000000002040000020CD
:1009400070470246037C13F008001EBF506AD36A4A
:10095000181A0028B8BF6FF0004070477047704702
:1009600010B504462C210AF0B4F8204610BD10B58D
:10097000044634210AF0ADF8204610BD083006F0D8
:1009800013BE103006F010BE07B501228DF8071017
:1009900010300DF1070106F007FE03B05DF804FB0F
:1009A000103006F077BD103006F0A3BC07B5012269
:1009B0000DF10701103006F0EDFB012814BF4FF0D8
:1009C000FF309DF8070003B05DF804FB00F26440BF
:1009D00006F04BBA00F2644006F07FB900F26440C2
:1009E00006F0BDB900F2644006F02FB910B5044618
:1009F000006808B107F0D8FE204610BD10B50C46BF
:100A0000042207F04DFC204610BD002313B5ADF8BD
:100A1000063008F00DFC982804460BD809F0B2FF08
:100A2000204602220DF1060107F032FCBDF8060057
:100A300002B010BD4FF0FF30FAE710B50C460422AB
:100A400007F026FC204610BD07B501228DF80710DF
:100A500008300DF1070106F0A7FD03B05DF804FBB7
:100A60000EB403B503AB53F8042B0021019308F037
:100A70004DFD02B05DF804EB03B070470023406801
:100A80001A46194607F020BE10B5044614210AF094
:100A900020F8204610BD0EB410B5002301682020B8
:100AA0008DB00FAA52F8044BCDE90403CDE9004202
:100AB00003921E2004AA07F07BFD0DB0BDE8104094
:100AC00003B0704710B50D4C2378BFF35B8FDB0785
:100AD00011D42046FFF7FFFA68B10321084A094BF9
:100AE000094809F05DFD2046FFF7FAFA074A084970
:100AF000054809F0E9FF044810BD00BF08030020C5
:100B0000100300209403002024050020B0020020E0
:100B10004109080810B5FFF7D5FF074B044653B14C
:100B200009F05BFD38B1236820461B69984700280F
:100B300001DDAFF3008010BD0000000010B50D4CCA
:100B40002378BFF35B8FDB0711D42046FFF7C3FA8E
:100B500068B10421084A094B094809F021FD2046E3
:100B6000FFF7BEFA074A0849054809F0ADFF0448F7
:100B700010BD00BF0C030020180400209C040020BE
:100B800038050020B00200204109080810B5FFF721
:100B9000D5FF074B044653B109F01FFD38B1236858
:100BA00020461B699847002801DDAFF3008010BD87
:100BB0000000000038B5044600F2644005F0B4FFC0
:100BC00008B9002038BD04F58865284606F098FC71
:100BD0000121204606F0C1FE014668B121462846A3
:100BE00006F0BFFA0028ECD094F8403413F0700FF0
:100BF000E7D0044B1D60E5E7204606F0AEFE002876
:100C0000ECD1DEE7BC0C002038B50C46054609F0F7
:100C100033FF6B2109F094FD09F02EFF036829468C
:100C20009B68984709F028FF036821469B6898470E
:100C300009F022FFBDE83840012109F09CBD000009
:100C400037B509F09FFE40F213636425002401A923
:100C500000200193FFF7D2FE09F094FE01A90820BD
:100C60000195FFF7CBFE09F08DFE01A9102001953B
:100C7000FFF7C4FE09F086FE01A998200195FFF751
:100C8000BDFE09F07FFE01A918200195FFF7B6FE11
:100C900009F078FE01A920200195FFF7AFFE09F0C9
:100CA00071FE01A928200195FFF7A8FE09F06AFE50
:100CB00001A930200195FFF7A1FE09F063FE01A90B
:100CC00038200195FFF79AFE09F05CFE01A940204B
:100CD0000195FFF793FE09F055FE01A90420019448
:100CE000FFF78CFE09F04EFE01A90C200194FFF7DE
:100CF00085FE09F047FE01A994200194FFF77EFECE
:100D000009F040FE01A914200194FFF777FE09F0D5
:100D100039FE01A91C200194FFF770FE09F032FE94
:100D200001A924200194FFF769FE09F02BFE01A917
:100D30002C200194FFF762FE09F024FE01A9342063
:100D40000194FFF75BFE09F01DFE01A93C20019410
:100D5000FFF754FE09F016FE01A944200194FFF7A5
:100D60004DFE09F00FFE01A948200194FFF746FE51
:100D700009F008FE01A958200194FFF73FFE09F091
:100D800001FE41495C20FFF739FE09F0FBFD4FF4FD
:100D90007A7301A94C200193FFF730FE09F0F2FDB0
:100DA00042F2107301A950200193FFF727FE09F0CA
:100DB000E9FD6FF0060301A954200193FFF71EFE21
:100DC000324B18680AF050FC08F072FC09F0DAFDAA
:100DD00001A960200194FFF711FE09F0D3FD284618
:100DE000012501A90194FFF709FE09F0CBFD01A936
:100DF00068200195FFF702FE09F0C4FD01A96C20EF
:100E00000194FFF7FBFD09F0BDFD01A970200194DD
:100E1000FFF7F4FD09F0B6FD01A974200195FFF775
:100E2000EDFD09F0AFFD01A978200195FFF7E6FD82
:100E300009F0A8FD01A97C200194FFF7DFFD09F06E
:100E4000A1FD01A980200195FFF7D8FD09F09AFDC9
:100E500001A984200194FFF7D1FD09F093FD01A9B8
:100E600088200194FFF7CAFD09F08CFD01A98C20B0
:100E70000194FFF7C3FD09F085FD01A990200194BD
:100E8000FFF7BCFD03B030BD700C00205C0C0020EF
:100E90002DE9F347C64C09F075FD21460020FFF708
:100EA000CCFD2368013304D140F213632360FFF7C4
:100EB000C7FE09F067FD01A90820FFF7BEFD0198F4
:100EC0000AF0D2FBBB490AF0D7FCDFF87493DFF8D5
:100ED0007483C9F8000009F055FD01A91020FFF73F
:100EE000ACFD01980AF0C0FBB2490AF0C5FCC8F895
:100EF000000009F047FD01A99820FFF79EFD019829
:100F00000AF0B2FBAB490AF0B7FCAB4FAB4E38600E
:100F100009F038FD01A91820FFF78FFD01980AF0AC
:100F2000A3FBA4490AF0A8FC306009F02BFD01A93D
:100F30002020FFF782FD01980AF096FB9D490AF0F8
:100F40009BFC9F4D9F4C286009F01CFD01A92820A7
:100F5000FFF773FD01980AF087FB96490AF08CFCB5
:100F6000206009F00FFD01A93020FFF766FD019810
:100F70000AF07AFB8F490AF07FFC934BDFF8C8A296
:100F8000186009F0FFFC01A93820FFF756FD019811
:100F90000AF06AFB87490AF06FFC8C4B186009F075
:100FA000F1FC01A94020FFF748FD01980AF05CFB25
:100FB00080490AF061FC864B186009F0E3FC854922
:100FC0000420FFF73AFD09F0DDFC83490C20FFF710
:100FD00034FD09F0D7FC81499420FFF72EFD09F07C
:100FE000D1FC7F491420FFF728FD09F0CBFC7D4997
:100FF0001C20FFF722FD09F0C5FC7B492420FFF7E8
:101000001CFD09F0BFFC79492C20FFF716FD09F003
:10101000B9FC77493420FFF710FD09F0B3FC75499E
:101020003C20FFF70AFD09F0ADFC73494420FFF7AF
:1010300004FD09F0A7FC71494820FFF7FEFC09F008
:10104000A1FC6F495820FFF7F8FC09F09BFC6D49A3
:101050005C20FFF7F2FC09F095FC6B494C20FFF790
:10106000ECFC09F08FFC69495020FFF7E6FC09F021
:1010700089FC01A95420FFF7E0FC01980AF0F4FA7A
:1010800008F016FB09F07EFC61496020FFF7D5FCF3
:1010900009F078FC5F496420FFF7CFFC09F072FC8F
:1010A0005D496820FFF7C9FC09F06CFC5B496C20C6
:1010B000FFF7C3FC09F066FC59497020FFF7BDFC3F
:1010C00009F060FC57497420FFF7B7FC09F05AFC9F
:1010D00055497820FFF7B1FC09F054FC53497C20B6
:1010E000FFF7ABFC09F04EFC51498020FFF7A5FC4F
:1010F00009F048FC4F498420FFF79FFC09F042FCAF
:101100004D498820FFF799FC09F03CFC51468C20A2
:10111000FFF793FC09F036FC90204849FFF78DFC5F
:10112000DAF8003013B1002008F0C2FA41F287313A
:101130003C4AD9F800001368013B8B4288BF012369
:101140004FF0000188BF13600AF076FC18B14FF031
:101150007E53C9F800300021D8F800000AF06CFC7A
:1011600018B14FF07E53C8F80030002138680AF0FB
:1011700063FC10B14FF07E533B60002130680AF0F1
:101180005BFC10B14FF07E533360002128680AF0F9
:1011900053FC10B14FF07E532B60002120680AF001
:1011A0004BFC10B14FF07E53236002B0BDE8F087D6
:1011B000800000200000C842CC020020EC02002089
:1011C000F4020020E4020020600C002098070020B8
:1011D000A0070020BC020020D4020020D80200207A
:1011E000F0020020F8020020E8020020640C002039
:1011F0009C070020A4070020280C0020E805002000
:1012000058070020700C0020980000209C0000204F
:10121000680C0020500700204C07002054070020D5
:101220005C07002048070020600500204C050020D6
:10123000B4060020D00200206C060020DC0500204F
:10124000B8020020C8020020240C002010B509F0CC
:10125000A9F803681B69984790B9FFF76FFC03680A
:101260001B6998470028F2DDFFF768FC03685B699B
:101270009847044609F096F8E1B208F02BF8E6E743
:1012800010BD00002DE9F34106460D4600240F4F26
:1012900001F1FF38AC4212D03946325D01A807F0A7
:1012A00093FA09F07FF801A908F010F8A04504D0DE
:1012B00009F078F8202108F00DF80134EAE709F088
:1012C00071F808F00AF802B0BDE8F0819ADB08086E
:1012D000F8B504460D4606460F18BE4207D0FFF784
:1012E0002DFC036816F8011B9B689847F5E7294613
:1012F0002046BDE8F840FFF7C5BF00001FB5074A0C
:1013000001AB52F80E0F5168128903C30A2101A8DC
:101310001A80FFF7DDFF05B05DF804FBD0FC08087C
:101320001FB5074A01AB52F8180F5168128903C361
:101330000A2101A81A80FFF7CBFF05B05DF804FB76
:10134000D0FC08080000000038B52F4B1D682F4B5B
:101350001B680BB32E4B58890AF082F92D490AF00D
:101360008BFA2D490AF0D4F92C490AF0C7F8044643
:1013700025B109F017F82A4907F0BBFF294B204691
:1013800019680AF0C5F90446274B18680AF06CF989
:1013900021460AF0B5F838BD244B1B6813B325B1BC
:1013A00009F000F8224907F0A4FF0B2009F0D2FA57
:1013B0000AF05AF909F0FEFC0FA3D3E9002309F063
:1013C00051FD0AF047F84FF07C510AF097F809F008
:1013D000F1FC0BA3D3E9002309F06EFE0AF03AF802
:1013E0000446CBE725B108F0DDFF124907F081FF85
:1013F000114B1C68C2E700BF2D431CEBE2364A3F8D
:101400007B14AE47E17A843FE8050020B406002053
:10141000A806002000F87F46000025430000204277
:101420009FDB0808600C0020640C00204C070020A3
:10143000C0DB0808DFDB08086405002038B5194B5D
:101440001D68194B1B682BB3184B18890AF008F953
:1014500017490AF011FA17490AF05AF9044625B15A
:1014600008F0A0FF144907F044FF144B2046196808
:101470000AF04EF90446124B18680AF0F5F82146B6
:101480000AF03EF80B4904460AF0FEFA00B1094C96
:10149000204638BD0B4B9C68002DE6D008F082FF3B
:1014A0000949E0E7E8050020B4060020A80600206E
:1014B00000F87F460000C8420BDC0808A0070020A7
:1014C000A40700206405002029DC080800000000B3
:1014D0002DE9F0478E4F88B068468E4907F032FDFF
:1014E0003A6822B108F05EFF8B4907F002FF8B4D8E
:1014F0000021288809F015FA09F096FA01224A21FC
:1015000009F017F948BB08F04DFF854907F0F1FED7
:1015100000240021834804F070FC30B93B6823B1FB
:1015200008F040FF804907F0E4FE09F07DFA01224F
:101530004A2109F0FEF8002839D168467B4907F0B6
:1015400053FD00240121288809F0EBF9684607F0D3
:10155000AFFC204608B0BDE8F0870321744804F0D2
:1015600093FD0AF081F8734B19680AF0D1F87249BB
:1015700004460AF081F9064609F01CFC00226F4B74
:1015800009F0B8FA21F00049002249466C4B09F0F5
:10159000F9FE0028BDD008F005FF6A4907F096FE65
:1015A00008F000FF0222314607F0A2FFB1E7002158
:1015B0005C4804F022FC0028BFD020465E490AF0B7
:1015C0005BF909F0F7FB00225C4B09F093FA21F07C
:1015D0000047002239465A4B09F0D4FE0446002841
:1015E000ABD10A2780468146514E0021304604F097
:1015F0004BFD01218144304604F046FD0221804428
:10160000304604F041FD0321304604F03DFD013F2A
:101610000444EAD14FF00A0A464BB4FBFAF01F68C3
:101620000AF022F839460AF073F80446B9FBFAF0DA
:101630000AF01AF839460AF06BF80146204609F01C
:101640005DFF41490AF018F90646B8FBFAF00AF0C6
:101650000BF839460AF05CF80146204609F04EFFC7
:101660003A490AF009F90446FFF76EFE38490AF0D4
:10167000F7F9D0B12146304609F040FF09F09AFB56
:101680001FA3D3E9002309F017FD09F0E3FE0222AE
:101690000146044604A807F0EFFC684604A907F0D9
:1016A0009BFC04A807F004FC4CE7FFF74DFE29491A
:1016B0000AF0D6F920B12146304609F021FFDDE7D6
:1016C000FFF742FE23490AF0DFF9A8B1204609F0EE
:1016D00071FB0DA3D3E9002309F0C4FB804630461B
:1016E000894609F067FB02460B464046494609F029
:1016F00003FA09F0AFFEC1E70020BFE7AFF30080B7
:10170000B6F3FDD478E9D63F52B81E85EB51E83FD9
:10171000E805002051FE080843DC0808C40000204A
:1017200059DC0808BA0600208EDC0808B5DC080879
:10173000560500208400002000007A440000F43F99
:101740000000E03F7EDC08080000F0C2000016C385
:10175000000070410000C84130B51E49044685B004
:1017600002230C22A1F58E60FFF724FA60B308F083
:1017700019FE194907F0BDFD184A1949194D4623AC
:1017800012680968184805F0C2FE2B689BB9174912
:10179000174807F0AEFD08F0C0F8C31702466846C8
:1017A00007F0B8FF0099124807F0A3FD684607F05C
:1017B0007FFB01232B6021680D4807F09AFD0A4842
:1017C00005F09EFE05B030BD08F0ECFD094907F0BC
:1017D00090FDF7E71C0C0020B9DC0808000700208A
:1017E000BC0C00203C07002018070020D3DC0808B0
:1017F00010070020EADC08082DE9F0478CB06846A5
:10180000B94907F09FFBB94FDFF8DC82B84EFFF70C
:1018100095F90D22014608A807F0D4FE08A96846EC
:1018200007F0DAFB08A807F043FB07230422694608
:1018300004A807F0DBFC394604A807F0A1FC054624
:1018400068BB4146684607F09BFC044650B308F06D
:10185000A9FD314607F04DFD314608A807F072FB9F
:1018600008A8FFF779FF08A807F022FB012404A8C5
:1018700007F01EFB5DB14FF000089E4904A807F079
:1018800061FB4746DFF888929B4E9C4D32E0002C6E
:10189000BDD0684607F00CFB0CB0BDE8F087002413
:1018A0000125E4E70546E2E704F1010A51466846EE
:1018B00007F081FC2C281AD004F10B03524669462C
:1018C00008A807F093FC08A904A807F085FB08A85E
:1018D00007F0EEFA8A4B1B684BB108F063FD8949AB
:1018E00007F0F4FC08F05EFD049907F002FD0137F3
:1018F00008F10108029B1FFA88F4A34240F2F0802D
:101900002146684607F057FC2C28F1D1072F00F23A
:10191000E18001A353F827F0A9180808391908082D
:10192000D51A0808AB190808D51A0808D51A0808E6
:10193000151A0808531A080804F1010A51466846A6
:1019400007F039FC2C28D2D004F10A03524669462C
:1019500008A807F04BFC08A904A807F03DFB08A85D
:1019600007F0A6FA664B1B684BB108F01BFD6649F1
:1019700007F0ACFC08F016FD049907F0A7FC04A9D9
:1019800008A807F01EFB04F10C01684607F013FCE1
:1019900008A90246304604F0A1FB08A807F088FA1F
:1019A0002B8823F008032B80A1E704F1010A51469C
:1019B000684607F000FC2C2899D004F10B0352462E
:1019C000694608A807F012FC08A904A807F004FB60
:1019D00008A807F06DFA4A4B1B684BB108F0E2FC0F
:1019E0004A4907F073FC08F0DDFC049907F06EFC2F
:1019F00004A908A807F0E5FA04F10D01684607F00C
:101A0000DAFB08A90246304604F0B0FB08A807F04C
:101A10004FFA6CE704F1010A5146684607F0CBFB28
:101A20002C283FF464AF5246E31C694608A807F02F
:101A3000DDFB08A904A807F0CFFA08A807F038FAD8
:101A400004A908A807F0BDFA304608A904F0D4FBA1
:101A5000DCE704F1010A5146684607F0ACFB2C288C
:101A60003FF445AF5246E31C694608A807F0BEFBA9
:101A700008A904A807F0B0FA08A807F019FA04A901
:101A800008A807F09EFA08A9304604F0BDFB08A894
:101A900007F00EFA2B88304623F00C032B8004F05D
:101AA000C9FB012803DC2B8843F00C037BE730469D
:101AB00004F0C0FB042803DC2B8843F0080372E722
:101AC000304604F0B7FB13283FF711AF2B8843F0E3
:101AD000040368E708F066FC4946FEF7C1FF06E725
:101AE00004A807F0E5F9D4E606DD08080BDD0808D0
:101AF0000FDD080851FE080870060020480C002081
:101B0000E805002021DD080832DD080844DD08086A
:101B100057DD08082DE9F04790B0B649684607F050
:101B200011FAB54904A807F00DFAB44DB14CFFF70E
:101B300005F80D2201460CA807F044FD0CA96846E3
:101B400007F04AFA0CA807F0B3F907230422694604
:101B50000CA807F04BFB0CA904A807F03DFA0CA851
:101B600007F0A6F9294604A807F00AFB002840F070
:101B700036812146684607F003FB0028D7D008F0DD
:101B800011FC9F4907F0B5FB9D490CA807F0DAF955
:101B90000CA8FFF7E1FD0CA807F08AF904A807F0EC
:101BA00087F9684607F084F910B0BDE8F08704F1C2
:101BB000010A5146684607F0FEFA2C2800F08A8098
:101BC00004F10B03524669460CA807F00FFB0CA961
:101BD00008A807F001FA0CA807F06AF9894B1B68FE
:101BE000002B77D008F0DEFB874907F06FFB08F089
:101BF000D9FB089907F07DFB6CE004F1010A51461E
:101C0000684607F0D8FA2C2864D004F10A0352463B
:101C100069460CA807F0EAFA0CA908A807F0DCF955
:101C20000CA807F045F9774B1B684BB108F0BAFBDD
:101C3000764907F04BFB08F0B5FB089907F046FB27
:101C400008A90CA807F0BDF904F10C01684607F0DB
:101C5000B2FA0CA90246304604F040FA0CA807F08C
:101C600027F92B8823F008032B8033E004F1010AC5
:101C70005146684607F09FFA2C282BD004F10B033D
:101C8000524669460CA807F0B1FA0CA908A807F05B
:101C9000A3F90CA807F00CF95A4B1B684BB108F0DC
:101CA00081FB5B4907F012FB08F07CFB089907F009
:101CB0000DFB08A90CA807F084F904F10D01684692
:101CC00007F079FA0CA90246304604F04FFA0CA846
:101CD00007F0EEF808F101080137029BBCB2A342FD
:101CE0007BD92146684607F066FA2C28F4D108F122
:101CF000FF33062B6DD801A252F823F0FB1B080816
:101D0000D31D08086D1C0808D31D0808191D0808F4
:101D1000AF1B0808551D080804F1010A5146684622
:101D200007F049FA2C28D5D05246E31C69460CA886
:101D300007F05CFA0CA908A807F04EF90CA807F008
:101D4000B7F808A90CA807F03CF930460CA904F034
:101D500053FABCE704F1010A5146684607F02BFA32
:101D60002C28B7D05246E31C69460CA807F03EFA6F
:101D70000CA908A807F030F90CA807F099F808A9F1
:101D80000CA807F01EF90CA9304604F03DFA0CA887
:101D900007F08EF82B88304623F00C032B8004F0DC
:101DA00049FA012803DC2B8843F00C035CE730463A
:101DB00004F040FA042803DC2B8843F0080353E7BF
:101DC000304604F037FA132884DC2B8843F00403F0
:101DD0004AE708F0E7FA49460CE708A8DCE60027DE
:101DE000054908A807F0AEF8B846DFF83090094E6C
:101DF000094D72E706DD080851FE080885DD080870
:101E000073DD0808E805002021DD080832DD080838
:101E100044DD080870060020480C002089DD080811
:101E20002DE9F04F8BB0AC4902A807F08BF8AB4B13
:101E30001A689A4622B108F0B5FAA94907F059FA8A
:101E4000A84C0021208808F06CFD08F0EDFD01226F
:101E5000492108F06EFC01940546002866D1DAF8A5
:101E600000407CB108F09EFA9F4907F042FA9E4973
:101E700006A807F067F806A8FFF76EFC06A807F0AB
:101E800017F82C460021994803F0B7FF88B9DAF813
:101E9000003073B108F086FA954907F02AFA95499F
:101EA00006A807F04FF806A8FFF756FC06A806F0AC
:101EB000FFFF08F0B9FD0122492108F03AFC002893
:101EC00069D100258C4902A807F08EF84FF0000870
:101ED0002E462F46019B0121188808F022FDDAF8D2
:101EE0000030E3B108F05EFA844907F0EFF908F03A
:101EF00059FA3A468249FEF7B3FD08F053FA3246E2
:101F00008049FEF7ADFD08F04DFA2A467E49FEF7FE
:101F1000A7FD08F047FA22467C49FEF7A1FD02A87A
:101F200006F0C6FF40460BB0BDE8F08F03217848AD
:101F300004F0AAF8044609F097FB764B196809F0FB
:101F4000E7FB754909F098FC08F034FF0022734B59
:101F500006460F4608F0CEFD21F000490022494612
:101F60006F4B09F00FFA00288CD0DAF80030002B04
:101F700088D008F017FA32463B466A49FEF770FDF2
:101F8000694906A806F0DEFF06A8FFF7E5FB06A8EC
:101F900006F08EFF76E70021544803F02EFF00285C
:101FA0008FD000244FF00A08A14626462746584DF8
:101FB0000021284604F068F801210744284604F06F
:101FC00063F802210644284604F05EF803218144A8
:101FD000284604F059F808F1FF3818F0FF080444C7
:101FE000E6D10A20B4FBF0F44A4BB9FBF0F5D3F884
:101FF0000090B7FBF0F7B6FBF0F6204609F034FB93
:10200000494609F085FB8046384609F02DFB4946D4
:1020100009F07EFB0146404609F070FA434909F099
:102020002BFC8346304609F01FFB494609F070FB44
:102030000146404609F062FA3D4909F01DFC804620
:10204000FFF782F93B4909F00BFDD0B141465846F4
:1020500009F054FA08F0AEFE1BA3D3E9002309F0FF
:102060002BF809F0F7F902220146804606A807F08E
:1020700003F806A902A806F0AFFF06A806F018FFAD
:1020800028E7FFF761F92C4909F0EAFC20B1414645
:10209000584609F035FADDE7404608F08BFE0CA300
:1020A000D3E9002308F0DEFE80465846894608F052
:1020B00081FE02460B464046494608F01DFD09F0E8
:1020C000C9F9C7E7AFF30080B6F3FDD478E9D63F8E
:1020D00052B81E85EB51E83F51FE0808E805002084
:1020E000B1DD0808C0000020C5DD0808B9060020E1
:1020F00015DE080839DE0808B5DC08084CDE0808DB
:1021000061DE08086EDE08087BDE080889DE080844
:10211000500500208400002000007A440000F43FB5
:102120000000E03FEADD0808FCDD08080000F0C21E
:10213000000016C3000070410000C84110B590B007
:102140001D4908A806F0FEFE1C4904A806F039FF48
:1021500004A908A806F0F4FF194906F0FDFF04469B
:1021600018490CA806F02DFF0CA9204606F0E8FF40
:10217000154906F0F1FF0146684606F022FF0CA85B
:1021800006F096FE04A806F093FE08A806F090FE5E
:1021900008F008F90D4907F0ACF808F021FA0099A9
:1021A00007F0A7F808F0FEF8094907F0A2F868461A
:1021B00006F07EFE10B010BD99DE0808380C002035
:1021C0009CDE080860070020F8DE08089EDE08088C
:1021D000C2DE080810B52C4C0121208808F0A1FBB4
:1021E000FA2007F0FBFB0021208808F09AFBFA2078
:1021F00007F0F4FB0121208808F093FBFA2007F098
:10220000EDFB0021208808F08CFBFA2007F0E6FBAC
:102210000121208808F085FBFA2007F0DFFB002170
:10222000208808F07EFBFA2007F0D8FB01212088E7
:1022300008F077FBFA2007F0D1FB0021208808F096
:1022400070FBFA2007F0CAFB0121208808F069FB27
:10225000FA2007F0C3FB0021208808F062FBFA2077
:1022600007F0BCFB0121208808F05BFBFA2007F097
:10227000B5FB2088002108F054FBBDE810406B211D
:102280000720FEF7C1BC00BFCC000020F8B5174FF7
:10229000174E3888174D002108F043FB164C308844
:1022A000002108F03EFB2888002108F03AFB0021BD
:1022B000208808F036FB4FF47A7007F08FFB3888DF
:1022C000012108F02EFB3088012108F02AFB288824
:1022D000012108F026FB2088012108F022FBBDE83F
:1022E000F8404FF47A7007F079BB00BF90000020EF
:1022F000C8000020880000208C00002000B58FB0AE
:10230000834902A806F01EFE08F04CF8814906F049
:10231000F0FF00230093804B06A8D3E9002306F0CA
:10232000C2FE06A90AA806F04CFE7C490AA806F0DF
:1023300013FF014602A806F0E3FE0AA806F0B8FD66
:1023400006A806F0B5FD764B0322196806A806F02C
:1023500093FE06A90AA806F034FE70490AA806F002
:10236000FBFE014602A806F0CBFE0AA806F0A0FD7F
:1023700006A806F09DFD6B4B0322196806A806F01F
:102380007BFE06A90AA806F01CFE64490AA806F00E
:10239000E3FE014602A806F0B3FE0AA806F088FD97
:1023A00006A806F085FD604803F03AFF00220023EE
:1023B00008F0C0FF002840F09C805B4803F04BFF12
:1023C00018B95A4902A806F09FFE574803F028FFA3
:1023D0000B4606210246009106A806F064FE06A9F7
:1023E0000AA806F0EEFD4D490AA806F0B5FE014622
:1023F00002A806F085FE0AA806F05AFD06A806F017
:1024000057FD494803F011FF0022002308F092FF16
:10241000002873D1444803F021FF012803D1434928
:1024200002A806F071FE404803F0FFFE0B460621AD
:102430000246009106A806F036FE06A90AA806F094
:10244000C0FD36490AA806F087FE014602A806F03C
:1024500057FE0AA806F02CFD06A806F029FD324812
:1024600003F0E3FE0022002308F064FF00284AD1B5
:102470002D4803F0DFFE08F08BFC00222C4B08F007
:102480001BFE0B4606210246009106A806F00BFE35
:1024900006A90AA806F095FD20490AA806F05CFEE8
:1024A000014602A806F02CFE0AA806F001FD06A8C7
:1024B00006F0FEFC1F4B0AA800931F4B1F49D3E9EF
:1024C000002307F0CBF90AA902A806F019FE0AA812
:1024D00006F0EEFC1A4902A806F016FE08F080F895
:1024E000029906F0F3FE02A806F0E2FC0FB05DF8D8
:1024F00004FB144906A806F025FD70E7124906A85A
:1025000006F020FD99E7114906A806F01BFDBFE77C
:10251000CBDE0808CDDE0808400700209CDE080856
:10252000C0020020C402002070060020E2DE08087D
:1025300000002440E4DE0808500C0020DC0C0020E1
:10254000F6DE0808A6000020B2000020A00000204F
:1025500038B51D4806F0DAF9054607F023FF2A468C
:102560001A49FEF77DFA642D1FD0962D1FD0B5F5C0
:10257000FA7F1FD0B5F5617F1FD0B5F5966F40F299
:10258000DC5407D0A5421BD040F6B834B5F5FA6F3D
:1025900018BF2C46A1B20C4806F0F9F907F002FF6B
:1025A00022460B49FEF75CFA38BD9624F2E74FF459
:1025B000FA74EFE74FF46174ECE74FF49664E9E7DF
:1025C0004FF4FA64E6E700BF70070020FADE08085F
:1025D00018DF08087FB52D4806F0A4F910F0800F29
:1025E00014BF4FF4006500250446430648BF05F5B7
:1025F0008065860648BF05F50075E00648BF05F50D
:102600008075210748BF8035620748BF403507F015
:10261000C9FE2A461E49FEF723FA201D030656BFAF
:1026200000214FF400650D46C4B248BF012114F0EB
:1026300040021CBF05F58065012214F020031CBF79
:10264000012305F5007514F010001CBF05F5807519
:10265000012014F008061CBF8035012614F0040484
:1026600018BF01240090CDE90164084818BF403527
:1026700006F0EBF9054806F055F907F093FE2A46F7
:102680000449FEF7EDF904B070BD00BF70070020EB
:1026900036DF08085FDF080830B55A4D95B007F0FF
:1026A00081FE594906F012FE584C07F07BFE29685E
:1026B00006F01FFE07F076FE554906F007FE07F00C
:1026C00071FE216806F015FE07F06CFE514906F018
:1026D00010FE07F067FE4CF2503106F05DFF07F088
:1026E00061FE0D220146684606F06CFF68464A49C5
:1026F00006F046FD002874D007F054FE474906F066
:10270000F8FD07F04FFE464906F0F3FD07F04AFEDC
:102710004CF2503106F040FF07F044FE0D22014616
:1027200004A806F04FFF07F03DFE3E4906F0CEFD3F
:1027300007F038FE049906F0DCFD07F033FE3A4955
:1027400006F0D7FD07F02EFE0D22014608A806F080
:1027500039FF364908A806F013FD00284CD007F0D1
:1027600021FE334906F0C5FD04A9284606F01AFCEF
:1027700007F018FE2F4906F0BCFD07F013FE0D22EE
:1027800001460CA806F01EFF07F00CFE2A4906F0D1
:102790009DFD07F007FE0C9906F0ABFD07F002FE69
:1027A0000D22014610A806F00DFF204910A806F0E2
:1027B000E7FCD8B107F0F6FD204906F09AFD0CA918
:1027C000204606F0EFFBFFF7B9FC10A806F070FBFF
:1027D0000CA806F06DFB08A806F06AFB04A806F03A
:1027E00067FB684606F064FB15B030BD07F0DAFD04
:1027F000134906F07EFDE8E707F0D4FD104906F026
:1028000078FDE8E7380C00207DDF0808600700202D
:1028100093DF0808ADDF0808DFDF0808E5DF0808F8
:10282000F7DF080807E008081FE0080815E80808AF
:1028300035E0080845E0080858E0080874E0080892
:1028400088E008081FB507F0ADFD194906F051FDF5
:1028500007F0A8FD4CF2503106F09EFE07F0A2FDF5
:102860000D220146684606F0ADFE6846114906F0A5
:1028700087FCB8B107F096FD0F4906F03AFD07F066
:1028800091FD0E4906F035FD01230D4C236008F043
:1028900079F821468C20FEF7B1F8684606F008FB6F
:1028A00004B010BD07F07EFD064906F022FDF4E7F6
:1028B0009BE00808DEE00808E5DF0808E9E0080812
:1028C000240C00200AE108081FB507F06BFD06F094
:1028D00004FD07F067FD144906F00BFD07F062FDEB
:1028E0004CF2503106F058FE07F05CFD0D22014617
:1028F000684606F067FE68460C4906F041FC60B188
:1029000007F050FD0A4906F0F4FCFEF799F9684615
:1029100006F0CEFA05B05DF804FB07F043FD05496B
:1029200006F0E7FCF3E700BF20E10808DFDF080856
:1029300059E108080AE1080810B588B007F032FD2F
:10294000204906F0D6FC07F02DFD4CF2503106F080
:1029500023FE07F027FD0D220146684606F032FEF1
:10296000684606F065FC044607F01CFD164906F0B3
:10297000C0FC164B9C421EDDE117204606F0B6FE59
:1029800007F010FD124906F0A1FC07F00BFD04460C
:1029900006F0C3FF0246C31704A806F0BBFE20469C
:1029A000049906F0A6FC04A806F082FA684606F030
:1029B0007FFA08B010BD07F0F5FC064906F099FC57
:1029C000F4E700BFC8E1080851FE0808F52E943965
:1029D00003E2080816E2080830B58BB007F0E2FC05
:1029E00006F07BFC07F0DEFC324906F06FFC07F0D6
:1029F000D9FC0446304D0222296806A806F03CFBAB
:102A00000699204606F062FC06A806F051FA07F087
:102A1000C9FC2A4906F06DFC07F0C4FC284906F001
:102A200055FC07F0BFFC4CF2503106F0B5FD07F045
:102A3000B9FC0D22014602A806F0C4FD02A806F06A
:102A4000FCFB4FF07C51044609F014F858B32046C3
:102A50001C4908F0FBFF30B31B4920462C6008F0EE
:102A600057FE09F01BF8019007F09CFC174906F08F
:102A70002DFC07F097FC04460222296806A806F000
:102A8000FBFA0699204606F034FC06A806F010FA78
:102A900007F078FF082001A9FDF7B0FF02A806F0B3
:102AA00007FA0BB030BD07F07DFC094906F021FCA8
:102AB000F4E700BF27E20808B80200203AE208085D
:102AC0003FE20808000020410000C84255E2080823
:102AD00016E208080000000030B58BB007F062FC79
:102AE00006F0FBFB07F05EFC374906F0EFFB07F052
:102AF00059FC0446354D0222296806A806F0BCFAA6
:102B00000699204606F0E2FB06A806F0D1F907F088
:102B100049FC2F4906F0EDFB07F044FC2D4906F077
:102B2000D5FB07F03FFC4CF2503106F035FD07F0C5
:102B300039FC0D22014602A806F044FD02A806F069
:102B40007CFB044608F036F91DA3D3E9002308F006
:102B50000FFC60B34FF08041204608F077FF30B3A0
:102B60001D4920462C6008F0D3FD08F097FF019026
:102B700007F018FC194906F0A9FB07F013FC0446FE
:102B80000222296806A806F077FA0699204606F080
:102B9000B0FB06A806F08CF907F0F4FE102001A99E
:102BA000FDF72CFF02A806F083F90BB030BD07F04B
:102BB000F9FB0B4906F09DFBF4E700BFAFF3008083
:102BC0009A9999999999B93F67E20808C802002033
:102BD0003AE2080879E208080000C8428EE20808D4
:102BE00016E2080830B58BB007F0DCFB06F075FB89
:102BF00007F0D8FB324906F069FB07F0D3FB044627
:102C0000304D0222296806A806F036FA06992046B9
:102C100006F05CFB06A806F04BF907F0C3FB2A4957
:102C200006F067FB07F0BEFB284906F04FFB07F0F4
:102C3000B9FB4CF2503106F0AFFC07F0B3FB0D22AC
:102C4000014602A806F0BEFC02A806F0F6FA4FF014
:102C50007C51044608F00EFF60B34FF07F512046D0
:102C600008F0F4FE30B31A4920462C6008F050FDFD
:102C700008F014FF019007F095FB164906F026FBBB
:102C800007F090FB04460222296806A806F0F4F932
:102C90000699204606F02DFB06A806F009F907F074
:102CA00071FE182001A9FDF7A9FE02A806F000F99F
:102CB0000BB030BD07F076FB074906F01AFBF4E7CE
:102CC000A0E20808EC0200202EFB0808B3E2080886
:102CD0000000C842C9E2080816E2080830B58BB007
:102CE00007F060FB06F0F9FA07F05CFB324906F0EA
:102CF000EDFA07F057FB0446304D0222296806A87A
:102D000006F0BAF90699204606F0E0FA06A806F0A1
:102D1000CFF807F047FB2A4906F0EBFA07F042FB31
:102D2000284906F0D3FA07F03DFB4CF2503106F08B
:102D300033FC07F037FB0D22014602A806F042FCE7
:102D400002A806F07AFA4FF07C51044608F092FE91
:102D500060B34FF07F51204608F078FE30B31A4937
:102D600020462C6008F0D4FC08F098FE019007F093
:102D700019FB164906F0AAFA07F014FB04460222D2
:102D8000296806A806F078F90699204606F0B1FAF7
:102D900006A806F08DF807F0F5FD202001A9FDF743
:102DA0002DFE02A806F084F80BB030BD07F0FAFA49
:102DB000074906F09EFAF4E7DBE20808F402002077
:102DC0002EFB0808F0E208080000C84208E30808E3
:102DD00016E2080830B58BB007F0E4FA06F07DFA89
:102DE00007F0E0FA324906F071FA07F0DBFA044620
:102DF000304D0222296806A806F03EF906992046C1
:102E000006F064FA06A806F053F807F0CBFA2A4950
:102E100006F06FFA07F0C6FA284906F057FA07F0ED
:102E2000C1FA4CF2503106F0B7FB07F0BBFA0D22A5
:102E3000014602A806F0C6FB02A806F0FEF94FF014
:102E40007C51044608F016FE60B34FF07F512046D7
:102E500008F0FCFD30B31A4920462C6008F058FCFD
:102E600008F01CFE019007F09DFA164906F02EFAB4
:102E700007F098FA04460222296806A806F0FCF832
:102E80000699204606F035FA06A806F011F807F074
:102E900079FD282001A9FDF7B1FD02A806F008F888
:102EA0000BB030BD07F07EFA074906F022FAF4E7CE
:102EB0001CE30808E40200202EFB080830E30808A1
:102EC0000000C84247E3080816E2080830B58BB096
:102ED00007F068FA06F001FA07F064FA324906F0E2
:102EE000F5F907F05FFA0446304D0222296806A87A
:102EF00006F0C2F80699204606F0E8F906A805F0A3
:102F0000D7FF07F04FFA2A4906F0F3F907F04AFA1B
:102F1000284906F0DBF907F045FA4CF2503106F08B
:102F20003BFB07F03FFA0D22014602A806F04AFBE0
:102F300002A806F082F94FF07C51044608F09AFD91
:102F400060B34FF07F51204608F080FD30B31A493E
:102F500020462C6008F0DCFB08F0A0FD019007F093
:102F600021FA164906F0B2F907F01CFA04460222CB
:102F7000296806A806F080F80699204606F0B9F9F7
:102F800006A805F095FF07F0FDFC302001A9FDF72C
:102F900035FD02A805F08CFF0BB030BD07F002FA3A
:102FA000074906F0A6F9F4E75AE30808600C002088
:102FB00075E3080880E308080000C8429EE308089B
:102FC00016E2080830B58BB007F0ECF906F085F989
:102FD00007F0E8F9324906F079F907F0E3F9044619
:102FE000304D0222296806A806F046F806992046C8
:102FF00006F06CF906A805F05BFF07F0D3F92A4943
:1030000006F077F907F0CEF9284906F05FF907F0E6
:10301000C9F94CF2503106F0BFFA07F0C3F90D229E
:10302000014602A806F0CEFA02A806F006F94FF013
:103030007C51044608F01EFD60B34FF07F512046DE
:1030400008F004FD30B31A4920462C6008F060FBFC
:1030500008F024FD019007F0A5F9164906F036F9AD
:1030600007F0A0F904460222296806A806F004F831
:103070000699204606F03DF906A805F019FF07F06D
:1030800081FC382001A9FDF7B9FC02A805F010FF6A
:103090000BB030BD07F086F9074906F02AF9F4E7CE
:1030A000B8E3080898070020D0E30808D6E308082A
:1030B0000000C842F1E3080816E2080830B58BB0FA
:1030C00007F070F906F009F907F06CF9324906F0DB
:1030D000FDF807F067F90446304D0222296806A87A
:1030E00005F0CAFF0699204606F0F0F806A805F09C
:1030F000DFFE07F057F92A4906F0FBF807F052F90E
:10310000284906F0E3F807F04DF94CF2503106F08B
:1031100043FA07F047F90D22014602A806F052FAD9
:1031200002A806F08AF84FF07C51044608F0A2FC91
:1031300058B320461C4908F089FC30B31B4920468F
:103140002C6008F0E5FA08F0A9FC019007F02AF9D4
:10315000174906F0BBF807F025F904460222296852
:1031600006A805F089FF0699204606F0C2F806A8D1
:1031700005F09EFE07F006FC402001A9FDF73EFC8D
:1031800002A805F095FE0BB030BD07F00BF9094918
:1031900006F0AFF8F4E700BF08E40808A007002035
:1031A0001AE408081DE40808000020410000C84295
:1031B00032E4080816E2080870B50C4D0C4E07F012
:1031C000F1F803681B69984778B9FEF729FE286073
:1031D00007F0E8F80446286807F0ECFD02460B46C5
:1031E00020463146FDF73CFCE9E770BDC0020020F7
:1031F00043E4080808B507F0D5F8A24906F079F8C5
:1032000007F0D0F8A04906F074F807F0CBF89F4912
:1032100006F06FF807F0C6F89D4906F06AF807F067
:10322000C1F89C4906F065F807F0BCF89A4906F029
:1032300060F807F0B7F8994906F05BF807F0B2F8C4
:10324000974906F056F807F0ADF8964906F051F8A0
:1032500007F0A8F8944906F04CF807F0A3F8934952
:1032600006F047F807F09EF8914906F042F807F09B
:1032700099F8904906F03DF807F094F88E4906F069
:1032800038F807F08FF88D4906F033F807F08AF820
:103290008B4906F02EF807F085F88A4906F029F8E0
:1032A00007F080F8884906F024F807F07BF8874992
:1032B00006F01FF807F076F8854906F01AF807F0CF
:1032C00071F8844906F015F807F06CF8824906F0A9
:1032D00010F807F067F8814906F00BF807F062F87C
:1032E0007F4906F006F807F05DF87E4906F001F820
:1032F00007F058F87C4905F0FCFF07F053F87B49CC
:1033000005F0F7FF07F04EF8794905F0F2FF07F0F6
:1033100049F8784905F0EDFF07F044F8764905F0E3
:10332000E8FF07F03FF8754905F0E3FF07F03AF8CA
:10333000734905F0DEFF07F035F8724905F0D9FF53
:1033400007F030F8704905F0D4FF07F02BF86F490B
:1033500005F0CFFF07F026F86D4905F0CAFF07F02A
:1033600021F86C4905F0C5FF07F01CF86A4905F023
:10337000C0FF07F017F8694905F0BBFF07F012F826
:10338000674905F0B6FF07F00DF8664905F0B1FF93
:1033900007F008F8644905F0ACFF07F003F863494B
:1033A00005F0A7FF06F0FEFF614905F0A2FF06F059
:1033B000F9FF604905F09DFF06F0F4FF5E4905F056
:1033C00098FF06F0EFFF5D4905F093FF06F0EAFF76
:1033D0005B4905F08EFF06F0E5FF5A4905F089FFCD
:1033E00006F0E0FF584905F084FF06F0DBFF57497F
:1033F00005F07FFF06F0D6FF554905F07AFF06F08D
:10340000D1FF544905F075FF06F0CCFF524905F095
:1034100070FF06F0C7FF514905F06BFF06F0C2FFD1
:103420004F4905F066FF06F0BDFF4E4905F061FF0C
:1034300006F0B8FF4C4905F05CFF06F0B3FF4B49BE
:1034400005F057FF06F0AEFF494905F052FF06F0C0
:10345000A9FF484905F04DFF06F0A4FF464905F0D5
:1034600048FF06F09FFF454905F043FF06F09AFF2D
:10347000434905F03EFF06F095FFBDE8084041498D
:1034800005F037BF53E4080869E408087EE408083B
:1034900092E40808A6E40808B9E40808CEE408089D
:1034A000E2E40808F9E408080FE5080825E508083B
:1034B0003AE5080857E5080873E508088DE50808A7
:1034C000A6E50808C0E50808D9E50808F5E50808F4
:1034D00012E608082BE6080847E608085FE6080831
:1034E00078E6080891E60808A5E60808BAE608089C
:1034F000D5E60808F0E6080806E7080817E7080810
:1035000029E708083AE708084CE7080875E70808BB
:103510009EE70808CDE70808F2E7080817E808085A
:103520003FE808087FE80808C2E80808EDE808084E
:1035300030E9080876E90808AAE90808C8E908088F
:10354000ECE9080807EA080831EA080866EA08080A
:103550008AEA08089EEA0808BAEA0808DFEA0808C2
:1035600003EB080828EB080850EB08087CEB080878
:10357000BFEB0808F1EB080817EC08087DEC080819
:10358000E1EC0808F6EC080838B5046805467CB19B
:103590006368013B63605BB9236820469B6898477A
:1035A000A368013BA3601BB923682046DB689847EA
:1035B000284638BD30B58BB02B49054602A805F02A
:1035C000C1FC05F0C9F8294C294B002830D01B68F4
:1035D000002B30D0274A2849138806A843F002035D
:1035E0001380264B2A681B788DF800303C2306F0A8
:1035F000A9FC07A8FFF7C8FF04F03AFE204B1860AB
:1036000005F09AF8236873B106F0CCFE1D4905F069
:1036100070FE1C4906A805F095FC06A8FEF79CF86C
:1036200006A805F045FC02A805F042FC0BB030BD31
:103630001B6821684BB92368002BF4D006F0B2FE5A
:10364000114905F056FE1049E4E70A4A138823F0B1
:10365000020313800029E6D006F0A4FE0B4905F012
:1036600048FE0A49D6E700BF2EFB0808E8050020FF
:10367000280C0020480C00200AED08082005002036
:10368000C411002010ED080826ED08083CED0808DC
:103690002DE9F047DCB006F040F9B84BB8491A689C
:1036A000B84B0446C51703A81A6005F04BFCB44993
:1036B00007A805F047FCB2490BA805F043FCB04948
:1036C0000FA805F03FFCAE4913A805F03BFC5E21B6
:1036D00003A805F028FD0A2201211BA805F0A6FC7D
:1036E0001BA91FA805F06DFCA7491FA805F034FD14
:1036F000014603A805F004FD1FA805F0D9FB1BA88F
:1037000005F0D6FBA14E5A2117A805F07EFC17A99B
:103710001FA805F056FC0A2231681BA805F086FC9C
:103720001BA91FA805F00CFD014603A805F0E8FC45
:103730001BA805F0BDFB1FA805F0BAFB17A805F0F4
:10374000B7FB0A2231681BA805F070FC1BA91FA853
:1037500005F037FC8E491FA805F0FEFC014607A8BE
:1037600005F0CEFC1FA805F0A3FB1BA805F0A0FBED
:10377000884E4D2117A805F048FC17A91FA805F091
:1037800020FC032231681BA805F076FC1BA91FA8AA
:1037900005F0D6FC014603A805F0B2FC1BA805F015
:1037A00087FB1FA805F084FB17A805F081FB032207
:1037B00031681BA805F060FC1BA91FA805F001FCDF
:1037C00073491FA805F0C8FC014607A805F098FC3E
:1037D0001FA805F06DFB1BA805F06AFB6E4B0322CA
:1037E00019681BA805F048FC1BA91FA805F0E9FBF8
:1037F00067491FA805F0B0FC014607A805F080FC4A
:103800001FA805F055FB1BA805F052FB61211FA85E
:1038100005F0FBFB1FA903A805F072FC1FA805F02B
:1038200047FB5E4802F0FCFC0022002307F082FD0B
:10383000002840F0D581594802F00DFD38B95849AB
:1038400007A805F061FC564903A805F05DFC534844
:1038500002F0E6FC062602460B4600961BA805F081
:1038600022FC1BA91FA805F0ACFB49491FA805F0C5
:1038700073FC014607A805F043FC1FA805F018FBE0
:103880001BA805F015FB454802F0CAFC009602464D
:103890000B461FA805F007FC1FA903A805F030FC84
:1038A0001FA805F005FB6F211FA805F0AEFB1FA99F
:1038B00003A805F025FC1FA805F0FAFA374802F026
:1038C000B4FC0022002307F035FD002840F0A3815E
:1038D000324802F0C3FC012807D1314907A805F09E
:1038E00013FC2F4903A805F00FFC2C4802F09DFCA7
:1038F000062602460B4600961BA805F0D4FB1BA922
:103900001FA805F05EFB22491FA805F025FC014613
:1039100007A805F0F5FB1FA805F0CAFA1BA805F0DB
:10392000C7FA1E4802F081FC009602460B461FA80B
:1039300005F0B9FB1FA903A805F0E2FB1FA805F0DD
:10394000B7FA63211FA805F060FB1FA903A805F0C3
:10395000D7FB1FA805F0ACFA104802F066FC002265
:10396000002307F0E7FC002840F0A4810B4802F098
:1039700061FC07F00DFA002214E000BFD400002023
:1039800051FE0808E00C00205AED080880000020D5
:103990009CDE0808C0020020C4020020700600203F
:1039A000E2DE0808A94B07F087FB062602460B4615
:1039B00000961BA805F077FB1BA91FA805F001FBCB
:1039C000A3491FA805F0C8FB014607A805F098FB0E
:1039D0001FA805F06DFA1BA805F06AFA9D4802F0D1
:1039E00029FC07F0D5F90022984B07F065FB0096FB
:1039F00002460B461FA805F056FB1FA9964E03A8CA
:103A000005F07EFB1FA805F053FA0A2231881BA897
:103A100005F00CFB1BA91FA805F0D3FA8C491FA8C1
:103A200005F09AFB014607A805F06AFB1FA805F000
:103A30003FFA1BA805F03CFA884B224688490093C0
:103A40001FA82B4605F00AFF1FA907A805F058FB81
:103A50001FA805F02DFA592117A805F0D6FA17A9C5
:103A60001FA805F0AEFA05F058FF0A2201461BA870
:103A700005F0EFFA1BA91FA805F062FB014603A899
:103A800005F03EFB1BA805F013FA1FA805F010FA7D
:103A9000744C17A805F00CFA262103A805F043FB87
:103AA00023684BB106F07EFC6F4905F022FC06F05E
:103AB00079FC039905F01DFC03A91BA805F081FA08
:103AC0006A491FA805F03EFA1FA91BA8FFF772FD5F
:103AD0001FA805F0EDF91BA805F0EAF9644B1B6877
:103AE000ABB1236873B106F05DFC624905F001FCDF
:103AF00061491FA805F026FA1FA8FDF72DFE1FA893
:103B000005F0D6F906F06CFD039905F0F2FB06F01E
:103B100049FC079905F0EDFB584902230C22A1F559
:103B20008E60FDF747F8002837D0236823B106F0F0
:103B300039FC534905F0DDFB524A5349534C4623A7
:103B400012680968524803F0E2FC2368F3B951494E
:103B5000514805F0CEFB05F0E0FEC31702461FA852
:103B600005F0D8FD1F994C4805F0C3FB1FA805F0D0
:103B70009FF94A491FA805F0E5F91F99464805F045
:103B8000B8FB1FA805F094F9012323600799424868
:103B900005F0AFFB3E4803F0B3FC0027DFF80C81D3
:103BA000DFF80C912B4D1FAC01232370D8F80030A7
:103BB0006370C3F30723A370394B1B68E370FBB238
:103BC000013B092B00F29180DFE813F0940098008C
:103BD000020109010D01110116011E0123012B0132
:103BE00030491BA805F0AEF91BA91FA805F0E9F99B
:103BF00017491FA805F0B0FA014607A805F080FA9A
:103C00001FA805F055F91BA805F052F925491FA872
:103C100005F098F940E624491BA805F093F91BA983
:103C20001FA805F0CEF90A491FA805F095FA01462C
:103C300007A805F065FA1FA805F03AF91BA805F0DA
:103C400037F919491FA805F07DF973E600002440F3
:103C50009CDE080870060020480C0020E4DE0808FE
:103C6000DC0C0020E80500205CED080874ED080875
:103C7000EC0500207FED0808A9ED08081C0C0020C9
:103C8000D0ED080850060020BC0C00206006002083
:103C9000F8050020D3DC0808F0050020E5ED080851
:103CA000A8070020A6000020B2000020800000200D
:103CB0000000C8425D491BA805F044F91BA91FA8D4
:103CC00005F07FF95A491FA805F046FA014607A8F2
:103CD00005F016FA1FA805F0EBF81BA805F0E8F8A8
:103CE00052491FA805F02EF987E64D232371514B49
:103CF000186808E0432323714F4BF9E778234F48B6
:103D0000237105F0F5FEC0F307236071A371C0F3C2
:103D10000743C0F30760E3712072284602F08FFA70
:103D20006072C0F30720A072284602F08BFAE0729E
:103D3000C0F307202073284602F087FA6073C0F3AF
:103D40000720A073284602F083FAE073C0F307202F
:103D50002074284602F07FFA8246284602F07EFA56
:103D60004AEA000A84F811A0284602F063FA737840
:103D70000137E37433780B2F23754FF02303A074BE
:103D8000637504F116047FF40FAF06F029FC2C498B
:103D900005F09CFA06F024FC0368F222DB681FA9F8
:103DA000984706F01DFC274905F090FA13A805F086
:103DB0007FF80FA805F07CF80BA805F079F807A8A4
:103DC00005F076F803A805F073F85CB0BDE8F0875D
:103DD000722323711C4B186807F046FC93E75223AB
:103DE00023711A4B84E771232371194BF3E7742372
:103DF0002371FDF7A9FA86E750232371154B494635
:103E0000586807F039FD7EE768232371FDF716FB3C
:103E100079E773232371104BD3E9000107F01AFBF4
:103E200071E7672323710D4B62E700BFA0000020FC
:103E30009CDE0808C0020020B402002064060020B6
:103E400067EE0808F8DE0808DC020020E405002020
:103E5000E002002064050020300C00205C050020FA
:103E60002DE9F04F93B002AF7D49384605F06AF86E
:103E70007C4C7D4907F1100005F064F806F0B0FBBA
:103E800040F6B83105F088FB23688BB106F08AFA5A
:103E9000764905F02EFA754907F1300005F052F821
:103EA00007F13000FDF758FC07F1300005F000F88D
:103EB0000FF2A41BDBE900AB06F092FB396805F0BA
:103EC00005FA4FF000084FF000090025684E06F093
:103ED00087FB03681B699847C8B9C5B900224046EB
:103EE0004946644B06F008FE52465B4680468946CA
:103EF00007F048FA0028EAD0236833B106F052FAF6
:103F000042464B463146FCF7ABFD0125DFE70A2070
:103F100005F064FD06F064FB014607F1300005F092
:103F20003DFB07F1300107F1100005F055F807F1EE
:103F3000300004F0BDFFBA6907F11000D31D23F073
:103F40000703ADEB030D02AE0023314605F035F952
:103F5000494907F1200004F0F5FF06F023FA47492C
:103F600005F0C7F906F01EFA314605F0C2F9012541
:103F7000DFF80481DFF81C91DFF81CA1304607F060
:103F800042FFA84227D9735D402B06D0715D07F12F
:103F9000200005F0C8F80135F0E7414607F12000A0
:103FA00005F0EEF80028F1D1494607F1200005F0B0
:103FB000E7F80028EAD106F0F5F9514605F099F93D
:103FC00006F0F0F9396A05F094F9414607F120004E
:103FD00005F00AF8DFE704F0BFFB58B3284B1B6875
:103FE00043B3284B3A691B7827498DF8003007F115
:103FF00030003C2305F0A6FF07F13400FFF7C4FAB8
:1040000004F036F9214B186004F096FB23688BB15D
:1040100006F0C8F91E4905F06CF91D4907F130009A
:1040200004F090FF07F13000FDF796FB07F1300038
:1040300004F03EFF07F1200004F03AFF07F1100002
:1040400004F036FF384604F033FF4437BD46BDE880
:10405000F08F00BFAFF3008000000000004CCD40A7
:1040600069EE0808E80500202EFB08086CEE080839
:10407000B4EE08080000F03F51FE08088AEE080878
:10408000280C00202005002012EF0808C411002091
:1040900019EF0808EFEE0808F1EE08082DE9F041E5
:1040A00007460C4615462AB9BDE8F0410368C9B277
:1040B0009B68184700290DDA0A2A0BD12D2105F03B
:1040C00009F9064661423846EAB205F026F930445D
:1040D000BDE8F08121460026F5E738B50546FFF733
:1040E000DDFF0446284605F0F8F8204438BD0000FE
:1040F0004FF4DA4270B5C64BA8B0C649C64D01A808
:104100001A80C64C04F01EFF072005F065FC012153
:10411000288806F0F5FB0121208806F0F1FBC04B52
:104120000121188806F0ECFBBE4B0121188806F02F
:10413000E7FBBD4B0121188806F0E2FBBB4B0121D8
:10414000188806F0DDFBBA4B0121188806F0D8FB71
:10415000B84B0121188806F0D3FBFCF799FEB6484E
:1041600004F079FB41F27001B34804F0A8FCB248B6
:1041700004F054FCB14E34210020FCF745FD1B2116
:104180000120FCF741FD304601F0DEFE96F82130BB
:10419000002B40F00E82FEF71DF80121288806F062
:1041A000C0FB2088012106F0BCFB9F4B0121188831
:1041B00006F0B7FB9B4B0121188806F0B2FB9B4B26
:1041C0000121188806F0ADFB994B0121188806F0F3
:1041D000A8FB984B0121188806F0A3FB904B012106
:1041E000188806F09EFB964A9649974805F0B7FD59
:1041F000002302229549964804F08EFA06F0F0F961
:104200004FF4165106F0E6F9FCF75CFC4FF416513A
:1042100006F0E0F9FCF792FC4FF4165106F0DAF9DB
:10422000FCF750FC41F2883105F0B6F942F210700B
:1042300005F0D4FB06F0B6F84FF4165106F098F8E6
:10424000844B0A22196805A804F0F0FE05A909A804
:1042500004F0B7FE804909A804F07EFF044605F08B
:10426000A5FB0A2201460DA804F0E0FE0DA9204698
:1042700004F066FF044605F091FB0A22014611A8EE
:1042800004F0D4FE11A9204604F05AFF044605F0BC
:1042900079FB0A22014615A804F0C8FE204615A99C
:1042A00004F04EFF6C4904F057FF044605F046FB4E
:1042B0000A22014619A804F0B9FE19A9204604F003
:1042C0003FFF044605F046FB0A2201461DA804F004
:1042D000ADFE1DA9204604F033FF044605F046FB61
:1042E0000A22014621A804F0A1FE204621A904F0DB
:1042F00027FF5A4904F030FF594C0146204604F08C
:1043000051FE21A804F0D4FD1DA804F0D1FD19A888
:1043100004F0CEFD15A804F0CBFD11A804F0C8FDF3
:104320000DA804F0C5FD09A804F0C2FD05A804F01D
:10433000BFFD06F037F84B4904F0DBFF4A4921A8DE
:1043400004F000FE214621A804F0FAFE0146474889
:1043500004F028FE21A804F0ABFD454902230C22FD
:10436000A1F58E60FCF726FC002800F0368106F0EF
:1043700019F8404904F0AAFF06F014F821683E4CF1
:1043800004F0B7FF06F00EF83C4904F0B2FF2368D2
:104390004BB13A4921A804F0D5FD21A8FDF7DCF97D
:1043A00021A804F085FD06F03FFB06F093F90021FB
:1043B000288806F0B6FA0323B0221821304801F00D
:1043C0006DFD002840F00D8105F0ECFF2D4904F053
:1043D00090FF23684BB12B4921A804F0B3FD21A81D
:1043E000FDF7BAF921A804F063FD274801F043FE68
:1043F00006F01AFB0122492106F09BF9002840F043
:10440000068105F0CFFF214904F073FF23683FE0E8
:10441000480C002051FE0808C0000020C400002005
:1044200094000020C8000020CC0000209000002054
:10443000880000208C0000207007002074070020F6
:1044400030EF08080B0A0808339D0808D402002042
:104450003EEF08088000002064EF080847EF0808D6
:10446000500600204CEF080861EF08080007002004
:104470001C0C002066EF0808E8050020A2EF0808E1
:10448000B9060020C6EF0808500500202CF00808E7
:104490004BB16F4921A804F055FD21A8FDF75CF947
:1044A00021A804F005FD05F07DFF6A4904F021FF15
:1044B00023684BB1674921A804F044FD21A8FDF70A
:1044C0004BF921A804F0F4FC634D06F0ADFA06F0B8
:1044D00001F90021288806F024FA0323B0221821CC
:1044E0005E4801F0DBFC002840F0968005F05AFFA2
:1044F0005B4904F0FEFE5A4921A804F023FD21A8DF
:10450000FDF72AF921A804F0D3FC564801F0B3FDC9
:1045100006F08AFA01224A2106F00BF9002840F041
:10452000918005F03FFF4A4904F0E3FE23684BB158
:10453000474921A804F006FD21A8FDF70DF921A89F
:1045400004F0B6FCFDF7A2FE05F02CFF464904F08E
:10455000D0FE05F027FF454904F0B8FE05F022FF24
:104560000A224621FFF7B9FD05F01CFF404904F07F
:10457000ADFE05F017FF0A220D21FFF7AEFDFCF797
:10458000BDFE1C23002121A8ADF8843004F038F8CA
:1045900023A91DA804F0D6FC1D9A36493648FCF71D
:1045A0007AFA1DA804F084FC01A804F081FC28B06C
:1045B00070BD324B1B68012B7FF4EFAD304805F026
:1045C00097FA304907F042FA00283FF4E6AD96F832
:1045D0002130002B7FF4E1ADDDE505F0E3FE2A4953
:1045E000CDE605F0DFFE294904F083FE23684BB1D8
:1045F000274921A804F0A6FC21A8FDF7ADF821A8C1
:1046000004F056FC0121288806F08BF9EDE6002124
:10461000204801F037FD46E705F0C4FE1E4904F0CE
:1046200068FE23684BB11C4921A804F08BFC21A82B
:10463000FDF792F821A804F03BFC0121288806F040
:1046400070F962E70021074801F01CFD7AE700BF1E
:104650002CF008085FF00808C4000020BA0600200B
:1046600082F0080856050020C9F00808D4F00808B0
:10467000E1F00808E9F00808D80C002060050020E7
:10468000640600200000A0418CEF0808F2EF080843
:1046900010F0080850050020ABF0080830B589B0CC
:1046A00005F080FE354D04F018FE05F07BFE344920
:1046B00004F00CFE05F076FE0A222968FFF70DFDD6
:1046C00005F070FE2F4904F014FE05F06BFE4CF26D
:1046D000503104F061FF05F065FE0D220146684689
:1046E00004F070FF6846284904F04AFD00283ED0D7
:1046F00005F058FE254904F0FCFD05F053FE244961
:1047000004F0F7FD05F04EFE0D22014604A804F06A
:1047100059FF04A804F08CFD044605F043FE1D4932
:1047200004F0E7FD42F20C73A21E9A4219D805F07C
:1047300039FE194904F0CAFD05F034FE21460A226B
:10474000FFF7CBFC2C6006F01DF929460020FCF792
:1047500055F904A804F0ACFB684604F0A9FB09B0C5
:1047600030BD05F01FFE0D4904F0C3FDF1E705F073
:1047700019FE0B4904F0BDFDEEE700BF80000020EC
:10478000FCF008080FF10808DFDF0808E5DF08087B
:104790003FF1080851FE080854F1080816E208081D
:1047A0000AE108087FB505F0FDFD1F4904F0A1FDF1
:1047B00005F0F8FD4CF2503104F0EEFE05F0F2FD8C
:1047C0000D22014602A804F0FDFE02A804F030FD0F
:1047D000019005F0E7FD154904F08BFD019800F10B
:1047E0000C031A2B1AD806F03FFF04F061FF05F006
:1047F000D9FD0F4904F06AFD05F0D4FD01990A22A4
:10480000FFF76BFC06F0BEF8542001A9FCF7F6F8A0
:1048100002A804F04DFB07B05DF804FB05F0C2FDF3
:10482000044904F066FDF3E765F1080851FE080845
:1048300090F1080816E2080830B589B005F0B2FD1D
:10484000354D04F04AFD05F0ADFD344904F03EFD60
:1048500005F0A8FD0A222968FFF73FFC05F0A2FD3C
:104860002F4904F046FD05F09DFD4CF2503104F057
:1048700093FE05F097FD0D220146684604F0A2FE66
:104880006846284904F07CFC00283ED005F08AFDEB
:10489000254904F02EFD05F085FD244904F029FD8D
:1048A00005F080FD0D22014604A804F08BFE04A84B
:1048B00004F0BEFC044605F075FD1D4904F019FD29
:1048C00044F61E63621E9A4219D805F06BFD194921
:1048D00004F0FCFC05F066FD21460A22FFF7FDFB13
:1048E0002C6006F04FF829464C20FCF787F804A806
:1048F00004F0DEFA684604F0DBFA09B030BD05F0DA
:1049000051FD0D4904F0F5FCF1E705F04BFD0B49B5
:1049100004F0EFFCEEE700BF98000020A8F10808C3
:10492000BDF10808DFDF0808E5DF0808F6F1080830
:1049300051FE08080FF2080816E208080AE1080804
:1049400030B589B005F02EFD354D04F0C6FC05F0FC
:1049500029FD344904F0BAFC05F024FD0A22296837
:10496000FFF7BBFB05F01EFD2F4904F0C2FC05F06C
:1049700019FD4CF2503104F00FFE05F013FD0D222D
:104980000146684604F01EFE6846284904F0F8FB1C
:1049900000283ED005F006FD254904F0AAFC05F0EC
:1049A00001FD244904F0A5FC05F0FCFC0D220146A4
:1049B00004A804F007FE04A804F03AFC044605F03D
:1049C000F1FC1D4904F095FC4CF24E33621E9A42F4
:1049D00019D805F0E7FC194904F078FC05F0E2FC71
:1049E00021460A22FFF779FB2C6005F0CBFF294610
:1049F0005020FCF703F804A804F05AFA684604F0C3
:104A000057FA09B030BD05F0CDFC0D4904F071FC3A
:104A1000F1E705F0C7FC0B4904F06BFCEEE700BFC3
:104A20009C00002022F2080837F20808DFDF08089F
:104A3000E5DF080870F2080851FE080889F2080846
:104A400016E208080AE1080810B586B005F0AAFCCD
:104A5000284C04F042FC05F0A5FC274904F036FC84
:104A600005F0A0FC0A222168FFF718FB05F09AFC6C
:104A7000224904F03EFC05F095FC214904F026FC97
:104A800005F090FC4CF2503104F086FD05F08AFCF4
:104A90000D22014602A804F095FD02A804F0C8FB0F
:104AA00042F20E730190013898421CD805F07AFC4E
:104AB000144904F00BFC05F075FC0A220199FFF77C
:104AC0000CFB05F06FFC0D4904F013FC019B236007
:104AD00005F058FF742001A9FBF790FF02A804F02D
:104AE000E7F906B010BD05F05DFC074904F001FCD4
:104AF000F4E700BF480700209CF20808B0F208085D
:104B0000C9F20808DCF2080816E2080810B586B0F9
:104B100005F048FC254C04F0E0FB05F043FC24497B
:104B200004F0D4FB05F03EFC0A222168FFF7B6FA38
:104B300005F038FC1F4904F0DCFB05F033FC1E498E
:104B400004F0C4FB05F02EFC4CF2503104F024FDBF
:104B500005F028FC0D22014602A804F033FD02A84E
:104B600004F066FB019000F57A70B0F5FA6F17D289
:104B700005F018FC114904F0A9FB05F013FC01999C
:104B80000A22FFF7AAFA019B236005F0FBFE04202E
:104B900001A9FBF733FF02A804F08AF906B010BDA3
:104BA00005F000FC064904F0A4FBF4E7BC02002079
:104BB000EEF208083AE2080800F3080815F30808BE
:104BC00016E2080810B586B005F0ECFB264C04F0A0
:104BD00084FB05F0E7FB254904F078FB05F0E2FBD8
:104BE0000A222168FFF75AFA05F0DCFB204904F09D
:104BF00080FB05F0D7FB1F4904F068FB05F0D2FBF2
:104C00004CF2503104F0C8FC05F0CCFB0D220146FB
:104C100002A804F0D7FC02A804F00AFB42F20F73CA
:104C2000019000F59C500830984217D805F0BAFB67
:104C3000114904F04BFB05F0B5FB01990A22FFF77F
:104C40004CFA019B236005F09DFE0C2001A9FBF7A7
:104C5000D5FE02A804F02CF906B010BD05F0A2FBA9
:104C6000064904F046FBF4E7D402002026F30808C6
:104C700039F308083EF3080852F3080816E208085A
:104C800010B586B005F08EFB254C04F026FB05F030
:104C900089FB244904F01AFB05F084FB0A222168F1
:104CA000FFF7FCF905F07EFB1F4904F022FB05F03D
:104CB00079FB1E4904F00AFB05F074FB4CF25031FD
:104CC00004F06AFC05F06EFB0D22014602A804F018
:104CD00079FC02A804F0ACFA019000F57A70B0F506
:104CE000FA6F17D205F05EFB114904F0EFFA05F0F8
:104CF00059FB01990A22FFF7F0F9019B236005F0A7
:104D000041FE142001A9FBF779FE02A804F0D0F8B7
:104D100006B010BD05F046FB064904F0EAFAF4E7D8
:104D2000F002002062F3080874F308087BF3080817
:104D300090F3080816E2080810B586B005F032FBBB
:104D4000254C04F0CAFA05F02DFB244904F0BEFA04
:104D500005F028FB0A222168FFF7A0F905F022FBE5
:104D60001F4904F0C6FA05F01DFB1E4904F0AEFA17
:104D700005F018FB4CF2503104F00EFC05F012FB6C
:104D80000D22014602A804F01DFC02A804F050FA0E
:104D9000019000F57A70B0F5FA6F17D205F002FBBA
:104DA000114904F093FA05F0FDFA01990A22FFF780
:104DB00094F9019B236005F0E5FD1C2001A9FBF798
:104DC0001DFE02A804F074F806B010BD05F0EAFA62
:104DD000064904F08EFAF4E7F8020020A1F308086F
:104DE00074F30808B5F30808CCF3080816E20808BD
:104DF00010B586B005F0D6FA254C04F06EFA05F031
:104E0000D1FA244904F062FA05F0CCFA0A222168AA
:104E1000FFF744F905F0C6FA1F4904F06AFA05F0F5
:104E2000C1FA1E4904F052FA05F0BCFA4CF25031B6
:104E300004F0B2FB05F0B6FA0D22014602A804F018
:104E4000C1FB02A804F0F4F9019000F57A70B0F506
:104E5000FA6F17D205F0A6FA114904F037FA05F0F7
:104E6000A1FA01990A22FFF738F9019B236005F0A6
:104E700089FD242001A9FBF7C1FD02A804F018F860
:104E800006B010BD05F08EFA064904F032FAF4E7D8
:104E9000E8020020DFF30808F2F30808F9F3080835
:104EA0000FF4080816E2080810B586B005F07AFA83
:104EB000244C04F012FA05F075FA234904F006FABE
:104EC00005F070FA0A222168FFF7E8F805F06AFA9F
:104ED0001E4904F00EFA05F065FA1D4904F0F6F9D2
:104EE00005F060FA4CF2503104F056FB05F05AFA26
:104EF0000D22014602A804F065FB02A804F098F90F
:104F000001901E303B2817D805F04CFA114904F0E7
:104F1000DDF905F047FA01990A22FFF7DEF8019B57
:104F2000236005F02FFD2C2001A9FBF767FD02A8E7
:104F300003F0BEFF06B010BD05F034FA064904F0D8
:104F4000D8F9F4E7640C002021F4080875E3080898
:104F50003BF4080858F4080816E2080810B586B0B3
:104F600005F020FA254C04F0B8F905F01BFA2449A5
:104F700004F0ACF905F016FA0A222168FFF78EF862
:104F800005F010FA1F4904F0B4F905F00BFA1E49B8
:104F900004F09CF905F006FA4CF2503104F0FCFAEA
:104FA00005F000FA0D22014602A804F00BFB02A84E
:104FB00004F03EF9019000F57A70B0F5FA6F17D25F
:104FC00005F0F0F9114904F081F905F0EBF90199C8
:104FD0000A22FFF782F8019B236005F0D3FC3420FE
:104FE00001A9FBF70BFD02A803F062FF06B010BD9C
:104FF00005F0D8F9064904F07CF9F4E79C07002095
:1050000071F408083AE2080888F40808A2F40808CD
:1050100016E2080810B586B005F0C4F9244C04F077
:105020005CF905F0BFF9234904F050F905F0BAF92D
:105030000A222168FFF732F805F0B4F91E4904F09E
:1050400058F905F0AFF91D4904F040F905F0AAF947
:105050004CF2503104F0A0FA05F0A4F90D220146FB
:1050600002A804F0AFFA02A804F0E2F8019032308E
:10507000632817D805F096F9114904F027F905F0CF
:1050800091F901990A22FFF728F8019B236005F0A6
:1050900079FC3C2001A9FBF7B1FC02A803F008FF52
:1050A00006B010BD05F07EF9064904F022F9F4E7D8
:1050B000A4070020B8F408081AE40808C9F408088E
:1050C000DDF4080816E2080830232DE9F047C74C44
:1050D000C74DC84F8AB02370C74E2378782B00F095
:1050E0004B8405F05FF9314604F0F0F805F05AF909
:1050F0000368DB69984705F055F903681B69984711
:105100000028F8D005F04EF903685B699847C0B2F3
:10511000207021385928E0D801A353F820F000BFAF
:105120009D580808DB5008083D590808DB5008085E
:10513000DB500808DB500808DB500808DB50080883
:10514000DB50080869590808DB500808DB500808DC
:10515000DB500808DB500808DB500808975808089F
:10516000CB560808D15608088D570808BB570808C1
:10517000E1570808FF570808255808084358080849
:1051800091580808DB500808DB500808DB50080875
:10519000DB500808DB500808715908081559080841
:1051A0009B530808A1530808CD5308083954080830
:1051B000615408087D54080891540808B954080837
:1051C000D3540808D9540808E9540808F9540808C1
:1051D000FF54080827550808435508085355080880
:1051E0006755080875550808A5550808D5550808D5
:1051F000015608082D5608083F5608086D5608083D
:10520000DB5008087D560808DB500808DB5008080A
:10521000DB500808DB500808DB500808DB500808A2
:10522000895208088F520808955208089B520808AE
:10523000A1520808A7520808AD520808B35208083E
:10524000B9520808BF520808C5520808CB520808CE
:10525000D1520808D7520808DD520808E35208085E
:10526000E952080807530808175308083553080877
:105270003B5308084153080847530808DB50080807
:105280004D53080873530808FDF7A6FB24E7FFF702
:105290003DFC21E7FDF720FC1EE7FFF793FC1BE731
:1052A000FDF7A0FC18E7FFF7EBFC15E7FDF716FD8F
:1052B00012E7FFF741FD0FE7FDF78CFD0CE7FFF765
:1052C00097FD09E7FDF702FE06E7FFF7EDFD03E7AF
:1052D000FDF778FE00E7FFF741FEFDE6FDF7EEFE85
:1052E000FAE6FFF797FEF7E605F05CF8434904F0AD
:1052F00000F80123424E336005F044FB314648205C
:10530000FBF77CFBE8E605F04DF83E4903F0F1FFC2
:105310003B4E0023EFE705F045F806463A4906A85C
:1053200003F010FE3046069903F0E3FF06A803F0F1
:10533000BFFDD1E6FDF700FBCEE6FFF733FACBE683
:10534000FFF7ACF9C8E6FDF7A7F9C5E62F4E3368BD
:105350005BB905F027F82E4903F0CBFF012333603A
:1053600005F010FB44202949CAE705F01BF829493C
:10537000F2E7264E3368012B09D105F013F82649D0
:1053800003F0B7FF2548FBF779FB0023E7E705F0BB
:1053900009F8234903F0ADFFF7E7FDF70DFF9BE6A2
:1053A000204B1A68012A0BD100221A6004F0FAFF80
:1053B0001D4903F09EFF05F0E5FA642019499FE7B7
:1053C00001221A6004F0EEFF1849F2E7184B1A6840
:1053D00012B901221A6004E004F0E4FF154903F059
:1053E00088FF05F0CFFA6020114989E7B806002050
:1053F000640500200000C842EDF40808F3F4080832
:10540000E80500200DF50808E5ED0808280C002047
:1054100028F508083BF5080855F508086C10002029
:1054200068F508085007002083F5080897F5080874
:10543000680C0020AAF50808A74B1A68012A0BD1AE
:1054400000221A6004F0AEFFA44903F052FF05F0F9
:1054500099FA6820A04953E704F0A4FFA049F4E7B3
:105460009D4B1A68012A03D104F09CFF9D49ECE78B
:1054700001221A6004F096FF9B49E6E79B4B1A68ED
:10548000012A01D10022A5E704F08CFF9849A6E784
:10549000984B1A68012A09D104F084FF964903F059
:1054A00028FF05F06FFA6C20924929E701221A6063
:1054B00004F078FF9149F2E78E4B1A681AB904F0AC
:1054C00071FF8F49EBE700221A6004F06BFF8D49F2
:1054D000E5E7FFF7B9FAFFE5FCF7D8FE04F062FF55
:1054E000894903F006FFF7E504F05CFF874903F004
:1054F00000FFFBF7ABFEEFE5FDF7E6F9ECE5844EC8
:105500003368012B03D104F04DFF8249E9E704F031
:1055100049FF814903F0EDFE0123336005F032FAC3
:1055200031467820ECE67A4E33681BB904F03AFF36
:105530007A49D6E704F036FF794903F0DAFE002312
:10554000EBE704F02FFF774903F0D3FEFBF7E8FE0B
:10555000C2E504F027FF744903F0CBFE6B2107205E
:10556000FBF752FBB8E504F01DFF704903F0C1FEE4
:105570004B21F4E76E4E336883B104F013FF6D499D
:1055800003F0B7FE0023336005F0FCF931467C20C0
:10559000FBF734FA684800F08EFE9DE504F002FF48
:1055A00066499EE7624E336883B904F0FBFE6449A6
:1055B00003F09FFE0123336005F0E4F931467C20BF
:1055C000FBF71CFA5C4800F09BFE85E504F0EAFE60
:1055D0005C4986E75C4E33685BB904F0E3FE5B49E7
:1055E00003F087FE0123336005F0CCF931468020BB
:1055F00086E604F0D7FE564903F07BFE0023F2E76F
:10560000544E33685BB904F0CDFE534903F071FE8C
:105610000123336005F0B6F93146842070E604F0CA
:10562000C1FE4E4903F065FE0023F2E704F0BAFE26
:105630004B4903F05EFE404800F018FE4CE5494E31
:105640003368012B0BD104F0ADFE474903F051FE46
:105650000023336005F096F93146882050E604F0C7
:10566000A1FE424903F045FE0123F2E70121324841
:1056700000F06CFEB4223E4B1A602DE504F092FE61
:105680003C4903F036FE06A83B4902F0EDFC069AC1
:105690003A493B48FBF7FFF906A803F009FC06A8C6
:1056A000354902F0FDFC069A36493548FBF7F3F917
:1056B00006A803F0FDFB06A82F4902F0F7FC069AA6
:1056C00031492F48FBF7E7F930E6FFF7B5F803E576
:1056D000FFF736F900E500BF4C070020D4F50808B5
:1056E000F5F5080819F608083CF60808680C0020CB
:1056F0005AF608085407002087F60808AFF608088D
:10570000D3F60808FCF60808C9F0080821F70808CD
:10571000600500203DF708085FF7080883F70808D0
:10572000A6F70808CBF70808E6F70808F9F708080D
:105730004C05002014F80808580C002037F8080819
:1057400052F8080874F80808B40600208EF8080813
:10575000A9F80808D0020020C5F80808E4F80808ED
:1057600003F908086C0600201BF908083FF908082F
:10577000E005002062F90808C40C002099F9080827
:10578000D80C0020A1F90808A9F9080804F00AFEBD
:105790007B4903F09BFD04F005FE0A224621FEF73B
:1057A0009CFC04F0FFFD774903F090FD04F0FAFD46
:1057B0000A220D21FEF791FC8EE4734E33685BB92B
:1057C00004F0F0FD714903F094FD0123336005F00E
:1057D000D9F858206C4993E504F0E4FD6C49F2E7F0
:1057E000694E3368012B06D104F0DCFD694903F0F2
:1057F00080FD0023EAE704F0D5FD6749F7E7674E2F
:1058000033685BB904F0CEFD654903F072FD0123F6
:10581000336005F0B7F85C20604971E504F0C2FD23
:105820006049F2E75D4E3368012B06D104F0BAFD02
:105830005D4903F05EFD0023EAE704F0B3FD5B4938
:10584000F7E704F0AFFD5A4903F040FD594803F073
:105850006FF8804604F0A6FD06460A22414603F092
:105860005CFD304603F039FD04F09CFD524903F025
:105870002DFD504803F059F8804604F093FD06468C
:105880000A22414603F049FD304603F026FD23E499
:10589000FCF7A0FE20E4FCF75BFE1DE404F082FDB3
:1058A000464903F026FDDFF834A104F07BFD0368D0
:1058B0001B69984700287FF40FAC284602F0E6F8F1
:1058C00038B904F06FFD3E4903F013FD0AB0BDE89E
:1058D000F08704F067FD39460646E86805F0CCFF1E
:1058E00005F068FA8046A868894605F063FACDE9B4
:1058F0000401686805F05EFACDE90201286805F048
:1059000059FA4246CDE900014B4651463046FBF775
:10591000A7F8CAE72B4E3368012B0BD104F042FDE8
:10592000294903F0E6FC0023336005F02BF83146EB
:105930008C20E5E4FCF786FFFFF7CEBB234E3368EF
:10594000012B0BD10023336004F02CFD204903F020
:10595000D0FC05F017F831469020D1E401233360E4
:1059600004F020FD1B49F2E7FCF7C8FCFFF7B4BBCD
:10597000FDF740FCFFF7B0BB04F014FD1649A3E7A8
:10598000B2F90808E1F0080858070020C0F9080833
:10599000CFF90808E5F90808F5F90808700C0020A7
:1059A0000CFA08081AFA08082FFA08083FFA08083B
:1059B00056FA0808700700205EFA08086EFA080810
:1059C000A9FA0808240C0020F0FA0808DC050020D9
:1059D00012FB080830FB080878FB0808BFFA080823
:1059E0001FB56E4C0022D4E900016D4B05F084F820
:1059F000C4E90001FCF714FA6A4B1860FBF768FD74
:105A0000694B1860FBF7F8FEFCF784F803F085FF9C
:105A1000664BC117C3E90001654B1A68654B1A60F4
:105A2000FEF71EFAFDF734FE04F0BCFC03681B69A8
:105A3000984700281DDD04F0B5FC03685E4C5B69E7
:105A400098475E4B20701B684BB104F0ABFC5C497F
:105A500003F03CFC04F0A6FC217803F054FC04F0B5
:105A6000A1FC217803F04FFC23786D2B01D1FFF7C7
:105A70002BFB544B1B68002B76D0534A138843F002
:105A80000103138002F068FE002843D14F4B1A78BF
:105A9000002A3FD10122494C1A70236873B104F0E7
:105AA00081FC4B4903F025FC4949684603F04AFA5A
:105AB0006846FBF751FE684603F0FAF900234548B3
:105AC0001A461946406802F0F7FD236873B104F0E6
:105AD00069FC414903F00DFC4049684603F032FA85
